:040000006F00C07855
:10000400000000000000000090000020AA02002070
:10001400A9BDF9F5900000200000000000000000D8
:10002400900000209000002000000000000000006C
:10003400900000200000000090000020000000005C
:1000440090000020900000209000002090000020EC
:10005400900000209000002090000020000000008C
:1000640090000020900000209000002090000020CC
:1000740090000020900000209000002090000020BC
:1000840090000020900000209000002090000020AC
:1000940001A0B7F707000111944B13078008F33749
:1000A400078093F787083EC20F100000B71700407F
:1000B4001308700523800705930580FA2380B7048D
:1000C4000F10000003C6B7041376F60DA385C7040A
:1000D400238007041246732606800F10000013764F
:1000E400050255CEF336078093F6860836C40F1002
:1000F4000000238007052380B7040F100000B70613
:1001040014007D89558D88C701000100010001009C
:1001140023800704A246F3A606800F10000073375D
:100124000780137787083AC60F100000238007055D
:100134002380B7040F1000000F1000003727004081
:1001440093061005A303D78023800704B247F3A7BF
:1001540007800F10000093078008F3B7078093F718
:1001640087083ECE0F100000B71700401307700534
:100174002380E704130780FA2380E7040F100000AC
:1001840003C7B70413670708A385E704238007049C
:10019400F247F3A707800F100000056182801376F1
:1001A400050459C2733607801376860832C80F10C7
:1001B4000000238007052380B7040F1000003706D2
:1001C4001400130606047D89518D88C701000100BF
:1001D40001000100238007044246732606800F10A5
:1001E400000073370780137787083ACA0F1000009E
:1001F400238007052380B7040F100000A54793F65A
:10020400F60F639EF600B727004013073005A3835B
:10021400E780B717004023800704D2470DBFB727F4
:10022400004013072005E5B7733707801377870865
:100234003ACC0F100000238007052380B7040F1069
:10024400000098471367070C98C723800704E24708
:10025400FDBD0111814601468145114506CE7D2A29
:1002640093078008F3B7078093F787083EC60F10FB
:100274000000B7170040130770052380E704130735
:1002840080FA2380E7040F10000003C76704136794
:1002940017002383E70423800704B247F3A70780EA
:1002A4000F100000F2400561828041118146014631
:1002B40081451145A52213078008F337078093F77A
:1002C40087083EC40F100000B717004013067005DE
:1002D4002380C704930680FA2380D7040F100000FC
:1002E400FD552396B70223800704A245F3A5058094
:1002F4000F10000073370780137787083AC60F1072
:1003040000002380C7042380D7040F10000003C714
:100314006704136717002383E70423800704B247A5
:10032400F3A707800F10000001A0BD473305F502B5
:1003340001007D1575FD8280411122C426C206C6C6
:10034400AA84014463179400B240224492444101B8
:10035400828005041305803E4204C13F4180DDB71D
:100364002303048015472303E48001002302A480AF
:10037400828083076480E3CE07FE230304808280A7
:1003840083076480E3CE07FE0345448082808307AD
:100394006480E3CE07FE2302A4808280411126C438
:1003A4004AC24EC006C61377F50BAD47AA892E89FB
:1003B40095446306F70019456537653F8D444E85BE
:1003C4004537FD59FD1463983401B240A2441249E3
:1003D400824941018280135509011375F50F453F88
:1003E4002209CDB7011126CC06CEB7040800513737
:1003F4001545BD37713769372AC6A53F324593770E
:10040400150089EB136515001375F50FF240E244EE
:1004140005618280FD14E9FC0145CDBF397126DCFC
:100424004ADA4ED852D656D45AD25ED006DE62CEBE
:1004340066CCB7E700E07D5783AA070022C603AA6B
:10044400470023A0E71823A2E718B71700401307B3
:1004540070052380E704130780FA2380E70483C729
:100464004704930B75FFB684E20793FBFB0F8546A5
:10047400AA892E8B328937240040E187015763FA19
:1004840076016308D5008946130700026313D5007B
:100494000157D98F93F7F70FB71C00402382FC0450
:1004A40011472303E4801305F00F5D3D094CD1355A
:1004B400636D7C11B7050700DA9537870700795516
:1004C40063F2E504B3879500636EF702370B080007
:1004D400A94733EB65016399F90689E48144513DE9
:1004E40026850DA0DA850945553D05090345F9FF23
:1004F400FD14050B693D81C49377FB0FFDF7DD35D2
:1005040069FD7D55B7170040130770052380E70484
:10051400130780FA2380E70403C74704418B23822F
:10052400E704F250B7E700E023A0571123A24711D4
:10053400E25432445259C259325AA25A125B825B73
:10054400724CE24C21618280A5476395F906856966
:100554001309F00FB3069900B3742B01B694134931
:10056400F9FFB3749900856B33796901416B938703
:10057400F9FFB3F7270199E363FC340193D94900E8
:10058400C147E3E637FF99BF0569C1697D19D9B74A
:100594001305800D638869011305000263847901E2
:1005A40013051008CA85DD3B353D21DD4E99B38422
:1005B4003441D9B7DA852D45D533CA94E30099F28D
:1005C40005097D3BA30FA9FED5BF9387F9FF93F7D8
:1005D400F70F6361FC0C83C71C0413073008631F07
:1005E400F70437070800636BEB04B3079B00B706F7
:1005F400100063F5D704334BEB0089476393F90686
:100604008980D549E38C04ECDA850945413B11091D
:100614000327C9FF91472320E48003076480E34E46
:1006240007FE23033481FD17EDFBFD14110B81C478
:100634009377FB0FE9FF7D3371F5E1B5B717004000
:1006440003C75704B70708001377070219E3B787EE
:1006540007007955E378FBEA33079B00E3FFE7F8EB
:1006640055B58547E382F9F2DA852D45053B938933
:10067400F4FFE38504E6293393F7390091EB8326ED
:1006840004800327090093074900E39AE6E43E89BE
:10069400CE84F1BFB5476396F9001305900BC931B9
:1006A40035BDB1471305B00AE38BF9FE9947639151
:1006B400F904B7050800B365BB002D45C531814475
:1006C4008D4BA149753963967401832704802320D7
:1006D400F9008504E39834FF8327048013172B0162
:1006E400635507002312F900D5BB2322F900FDB39B
:1006F4009D476399F90281451305B0044531BD4412
:100704002320090023220900FD599D3993F7740021
:10071400CA9703C70700FD14398D2380A700E39609
:1007240034FF6DBBA1476392F9046D398144630DB5
:100734000B008D479304C0036308FB00930400057A
:1007440063048B01930440041375C507E30895D82B
:100754001945393139390545213126850D39094580
:100764003D314931E31C05D669BB91476399F900D2
:1007740013056006F536F53E130590090DB7E38FB2
:0807840009D4F154A9BB0000E7
:10078C00971100209381C185176100201301C106C8
:10079C001305400097050020938505861706002059
:1007AC00130606FE63FAC5008322050023A055003C
:1007BC0011059105E3EAC5FE175500001305C58721
:1007CC00970500209385C5FB1386818063FAC500CD
:1007DC008322050023A0550011059105E3EAC5FE0F
:1007EC0013858180938541C66377B500232005006E
:1007FC001105E36DB5FEFD42739002BC8D42739002
:10080C004280930280087390023097F2FF1F93820C
:10081C00A27E93E2320073905230970200009382D2
:10082C00020D73901234730020303D432A8763739A
:10083C00C3029377F700BDEFADE5937606FF3D8AD3
:10084C00BA960CC34CC30CC74CC74107E36BD7FE1D
:10085C0011E28280B306C3408A0697020000969686
:10086C006780A6002307B700A306B7002306B700CE
:10087C00A305B7002305B700A304B7002304B700F2
:10088C00A303B7002303B700A302B7002302B700EA
:10089C00A301B7002301B700A300B7002300B700E2
:1008AC00828093F5F50F93968500D58D939605016F
:1008BC00D58D61B793962700970200009696868295
:1008CC00E78086FA9680C1171D8F3E96E374C3F8B5
:1008DC00A5B719C94111AA85174500001305454E46
:1008EC0006C6EF30E01B01A08280797113058004ED
:1008FC0006D622D426D2371400404AD04ECE52CC43
:10090C0056CA5AC85EC662C466C297F0FF1FE7801B
:10091C00C0778327840A85451305001093E70720C9
:10092C002324F40A9D298D4513050020BD21E92BB4
:10093C00834514041745000013058549D174EF3025
:10094C0020169387C18123A6F1809387C18523A8A4
:10095C00F180EF003040F12E3789004097070020DE
:10096C00238407E89749000093890948174A000037
:10097C00130A8A48938AC1C0174B0000130BCB4E45
:10098C009384246B834769000145858B81CF054493
:10099C00230389007D23D5476316F50097070020B4
:1009AC00238487E49707002083C707E481E7D547B2
:1009BC006314F5121305800C97070020238607E2B9
:1009CC0097000020E780C096EF00503F631605109B
:1009DC0091472386F1C029444E85EF302021EF103A
:1009EC007002AA8511CD5285EF30800B7D14130552
:1009FC0020031374F40F97000020E780609369FCC8
:100A0C0083C70A0011476379F70C174500001305DB
:100A1C00253FEF30A01D974500009385E53E1385DB
:100A2C0001B0EF30A01DEF20100F65351745000009
:100A3C001305853EEF30801B974500009385853E5E
:100A4C001385C189EF30801B0144930C1004138C67
:100A5C00C189A94B239091B123A281B1EF20F04819
:100A6C008D3DA2855A850504EF308003E31474FF95
:100A7C001745000013058540EF304017FD5723A0A4
:100A8C00F1B02384F1B023A291B0EF2070379135EF
:100A9C00174500001305053FEF30401585472380AF
:100AAC00F1B0EF20A0703535174500001305053E59
:100ABC00EF30C013974500009385C53D138501B0F9
:100ACC00EF30C013EF20E078AA8519C51745000058
:100ADC001305052FEF20D07C13054006970000204E
:100AEC00E78000850545F12971BD6F0010147971FF
:100AFC0022D426D24AD04ECE52CC56CA5AC85EC642
:100B0C0062C466C206D6AA842E8C0144930900F8EE
:100B1C00138AC1C3A94A130B8002938B81C0938C97
:100B2C0041C10D4983C711C5B397F4002382F186E7
:100B3C0013D78700A382E18613D70701E1832383B0
:100B4C00E186A383F1862384318783470A0062857B
:100B5C00A384F18623855187A3856187238601862B
:100B6C0083A70B0013D78701A386E18613D7070150
:100B7C002387E18613D78700A387E1862388F18634
:100B8C00A388018623890186A3899186238A0186FD
:100B9C00EF00905D83C70C0093F7F70FB1C7228568
:100BAC00EF100029238AA1C083C70C0093F7F70F1D
:100BBC0095C303C50C001375F50FB2502254925413
:100BCC000259F249624AD24A424BB24B224C924CE5
:100BDC004561828005041374F40FE31524F5FD4779
:100BEC00238AF1C07D45D1BF0145C1BF797122D4A3
:100BFC0026D24AD04ECE52CC56CA5AC85EC662C411
:100C0C0006D6AA84AE8B01449389C1C3294A930AA0
:100C1C00A002138B81C0138C41C10D4983C711C530
:100C2C00B397F4002382F18613D78700A382E18661
:100C3C0013D70701E1832383E186A383F186238401
:100C4C00018683C709005E85A384F18623854187CD
:100C5C00A38551872386018683270B0013D7870131
:100C6C00A386E18613D707012387E18613D7870074
:100C7C00A387E1862388F186A388018623890186D0
:100C8C00A3899186238A0186EF00104E83470C00BE
:100C9C0093F7F70F85E71305800C97F0FF1FE7809C
:100CAC0040680145B250225492540259F249624AAA
:100CBC00D24A424BB24B224C456182802285EF10C6
:100CCC002017238AA1C083470C0093F7F70F91C715
:100CDC0003450C001375F50FF1B705041374F40FED
:100CEC00E31E24F3FD47238AF1C07D4565BF37879A
:100CFC00004083473700894693F7F707A301F700B5
:100D0C00834757000347370093F7F70F1377F70F15
:100D1C00631BD70093F6170099C6918B014581CBC5
:100D2C002386E1C0828085472386F1C059458280A5
:100D3C008280411106C6EF0050413D479307F00FEA
:100D4C006379A7049387019023AAF1BE23AEF1BC6B
:100D5C00238601C0A547A388F1C4930700202390E4
:100D6C00F1C223A801C293070004239BF1C2B787E9
:100D7C0000401387C70123A8E1BE1387870123AC6A
:100D8C00E1C41387C702A10723A8E1BC23AEF1BEBF
:100D9C008147B2403E8541018280914763EEB702A4
:100DAC00174700001307870F8A05BA959C41BA971D
:100DBC008287B717004003A7470B1345F5FF698FD0
:100DCC0023AAE70A03A7070B698F23A8E70A03A73F
:100DDC00070A798D23A0A70A8280B717004083A643
:100DEC00470B1347F5FFF98E23AAD70A83A6070BE7
:100DFC00558D23A8A70A83A6070A758F23A0E70A97
:100E0C008280B717004003A7470B498F23AAE70A34
:100E1C0003A7070B1345F5FF45BFB717004083A683
:100E2C00470B1347F5FF758F23AAE70A03A7070A99
:100E3C00598D4DB7B717004003A7470B498FEDB736
:100E4C00B71700408847420541819377050491EB21
:100E5C009377F5013755E801130505803345F50205
:100E6C0082809377050C130700046397E700937750
:100E7C00F50137459C1CCDB72165130505D0828043
:100E8C00814737370040A14663C4C7003285828052
:100E9C000345B740E38EA6FE3385F50003450500F8
:100EAC0085072304A740CDB7970700209387479366
:100EBC009C43138741C63E95636EE500175700208F
:100ECC00130787736368A70017070020232AA790CE
:100EDC003E858280FD57EDBF411122C406C62A848F
:100EEC0085372947B307E502B2408D83B3D7870214
:100EFC0022449507B3D7E70237370040C207C183B6
:100F0C002316F740410182807165411113050520BC
:100F1C0006C6D937B7370040130770F82381E7406E
:100F2C000D47A381E74013070004A380E740054762
:100F3C002387E740B2404101828085472386F1C078
:100F4C008280411106C6B786004083C756001387BE
:100F5C00C1C0858B9DCB8347070005476307F7000E
:100F6C0083C716000145858B91EF85472386F1C019
:100F7C00174500001305C5F389472386F1C0EF2000
:100F8C00F0465545B2404101828003470700854732
:100F9C000145E3F9E7FE17450000130525F223860A
:100FAC00F1C0EF20B0445945F1BF3787004083476B
:100FBC0037001375F50793F70708C98FA301F700DE
:100FCC00828082804111A147014506C622C4A384B8
:100FDC00F18037840040D13F834714003D4593F79F
:100FEC00E70FA300F4008347140093F7970F93E7E0
:100FFC002700A300F40097F0FF1FE78060338347BE
:10100C0014001305A00F93F7D70FA300F40097F06B
:10101C00FF1FE780003185472303F400B2402244D0
:10102C004101828003C7C1C0854763E5E70089475A
:10103C002386F1C0B787004003C757005945058B7D
:10104C0001CB03C71700014513671700A380E70006
:10105C0082805D71A2C4A6C2CAC04EDE52DC56DAD2
:10106C005AD85ED662D466D26AD06ECE86C6B787A0
:10107C0000402387B702B7840040AA8A32892385AF
:10108C00B702935945000144938D6400094C054BFC
:10109C00D54C938BC1C0094A7D5D238454032380B6
:1010AC008D019307803E03C70D00098B01EF0545A9
:1010BC003EC697F0FF1FE780C026B247FD17C20758
:1010CC00C183F5F32384040283C70D00898B81E768
:1010DC001305E00F55A083C70D00858B9DC723809A
:1010EC006D018535631495012384618183C70B00E1
:1010FC000547630AF70A83C70B006308FA0A13054E
:10110C00800C97F0FF1FE780C02183C70D00898BEF
:10111C00C1CB83C7740093F70704D1EB83C774006A
:10112C00394793F7F70F13F5F7006304E5082947E0
:10113C006318E50263020908FD576303F9007D1982
:10114C007D141374F40F05043D451374F40F97F0DC
:10115C00FF1FE780001DE3728AF41305000229A823
:10116C002547638AE902B5476385F9008547E39112
:10117C00F9F671D913650502B64026449644064922
:10118C00F259625AD25A425BB25B225C925C025DAB
:10119C00F24D616182809D8B0D47E39CE7FC65B746
:1011AC002380AD014DB75945C1BF5545F1B7014538
:1011BC00E1B71305E002C9B71305A00275BF011111
:1011CC0026CA4AC8AE842A891305800C06CE22CCC6
:1011DC004EC652C456C25AC097F0FF1FE780601427
:1011EC0099C02380040037840040A14789692306F5
:1011FC00F4021386097181451305000D993D6313A3
:10120C000518930700FD2307F4022305F402854714
:10121C002306F402138A018183270A001745000074
:10122C00130585CAD28A03C4770003C7670022045A
:10123C00598CA285EF20D0066302041063000910BC
:10124C0083270A0017450000130505C99389097106
:10125C0083C50700EF20D00483270A00378A00409B
:10126C008387070063C307061305800C97F0FF1FE5
:10127C00E780200B83C791806374F4009377F40F9D
:10128C002306FA0281470347CA026392E712834599
:10129C00EA024E864145753B6316050E8347CA022A
:1012AC001D8C4204418081C88347CA0203C70400D5
:1012BC00BA972380F4004DF883C50400174500004D
:1012CC001305C5C2EF20C07D95A8938AC180130574
:1012DC00800C97F0FF1FE780C0048345AA024E865E
:1012EC0013050009BD3359ED03478A009377F40FBA
:1012FC006376870083478A0093F7F70F1D8C4204AF
:10130C00418091C403C704003E972380E400014749
:10131C009376F70F6392D7083E9983478A0093F729
:10132C00F70F89CB03478A0083C79180FD17F98F8C
:10133C0091E351FCB7870040238607021305800C0C
:10134C0097F0FF1FE780E0FDB787004083C7C70217
:10135C001305000993F7F70F91E34145096613064E
:10136C0006719305000CF53111ED3787004083476A
:10137C00C70293F7F70F99C78347870093F7F70FC7
:10138C0091C35D45F2406244D2444249B249224A7B
:10139C00924A024B0561828083A60A00BA9603C664
:1013AC000600B306E90005072380C60095B703A71E
:1013BC000A008346090005093E9785072300D700DC
:1013CC0093F7F70FC9B5814793850181A146330780
:1013DC00F5000346070098413E972300C700850798
:1013EC00E397D7FE82800111A14717450000130532
:1013FC00E5C206CEA384F180F9379305F10013857D
:10140C0001B5753B05E1938701B583C77700A384CC
:10141C00F1800347F1009747000083D787C06373BF
:10142C00F7005D45F240056182800111174500000F
:10143C00130545BE06CE22CC79379305F1001385F2
:10144C0001B5B53B2A843DE10347F1009747000005
:10145C0083D7A7BC5D44636BF70483C721B51745DD
:10146C000000130525BBA307F100B13F9387018151
:10147C009C430347F1009305F100A38307002383EA
:10148C00E700138501B5253B2A840DE10347F100E4
:10149C009307000463F4E700A307F1000346F1008F
:1014AC00938501B51385C185EF2020542285F24028
:1014BC00624405618280411126C2AA84174500004E
:1014CC00130545B606C622C4FD3D938701819C4396
:1014DC008145014523819700A3810700CD312A84E2
:1014EC0001E92685D934294597F0FF1FE78040E4B0
:1014FC002285B2402244924441018280411122C48F
:10150C002A8417450000130565B206C66D3D938706
:10151C0001819C43B2408145238187002244A381F1
:10152C0007000145410161B9411122C42A841745C4
:10153C0000001305A5AD06C67935938701819C4340
:10154C00B2408145238287002244A38207000145D3
:10155C004101B5B1B7870040130700F82380E700BD
:10156C0003C7070062076187E35C07FEA3800700DF
:10157C00A381070013078004A386E70003D7C1806B
:10158C00239CE70003D70181239EE70023850702F4
:10159C0023870702130790F82380E7001307000442
:1015AC002383E7027D572383E70005472386E1C0A9
:1015BC000D472381E70023840180828001111745A8
:1015CC0000001305659306CE22CC26CA4AC84EC627
:1015DC00EF20C061C53A814401441309400605451A
:1015EC0097F0FF1FE780C0D4353C19E5850493F4D0
:1015FC00F40F636C990E014405041374F40FE3109B
:10160C0024FFEFF09F93174500001305E592EF20A0
:10161C00E05D5944D9A0B307890083C507004E8506
:10162C000504EF20E0471374F40F93170401C183F2
:10163C00E3E397FE2945EF20E04A8357890097445E
:10164C00000083C4449E26852392F1B48357A900DD
:10165C0083C941B52393F1B4B93D2A8405E11745FB
:10166C0000001305E58AA38091B4EF206043753B1D
:10167C002A8497440000938424890DC9A2851745B8
:10168C0000001305E589EF20A04189470545238615
:10169C00F1C0EFF01F9391A0B307890083C5070039
:1016AC0026850504EF20C03F1374F40F9317040133
:1016BC0003D721B5C183E3E1E7FE2945EF20804242
:1016CC001304B00F639B090003C7E1B5A147631670
:1016DC00F70091472386F1C001442285F240624411
:1016EC00D2444249B2490561828003C521B4EFF06E
:1016FC005F8D174500001305A586EF20603AE53194
:10170C002A842DFD9744000083C4B491A20497470A
:10171C00000083C70791DD8C138901B59739000050
:10172C009389897E19B74111094506C622C426C280
:10173C0097F0FF1FE780C0BF83C741C1A38FF1C4DF
:10174C00EFF0EFDAAA873DE503C7C1C08D469307DA
:10175C00300863F1E60683C6C1C513061002238E5A
:10176C00C1847D569387C185A38EC18423810700D4
:10177C00A38107002382D700A382070023830700DD
:10178C00A38307008145253C238AA1C05947AA871A
:10179C006302E50203C501C03D89793303C501C568
:1017AC003D8913650508493383C7F1C5A38F01C46F
:1017BC00238AF1C0B240224492443E85410182808A
:1017CC004111054706C62386E1C0EFF04FD219E15F
:1017DC0013053008B24041018280411122C483A715
:1017EC0081C003A741C406C601456384E70283A5F3
:1017FC00C1BD03A741BF23A2F1C46308B7020545CD
:10180C00EFF0EFAE238AA1C009E903C541C11375FE
:10181C00F50FB2402244410182807D5723AAE1C4D6
:10182C0023A2E1C4238001BECDB7054523AAF1C490
:10183C00EFF0EFAB238AA1C069D9C5B7411122C41F
:10184C0083A781C003A741C506C601456384E7028F
:10185C0083A541BF03A7C1BD23AAF1C46308B70286
:10186C000545EFF0CFA8238AA1C009E903C541C102
:10187C001375F50FB2402244410182807D5723AA93
:10188C00E1C423A2E1C4238001BECDB7054523A248
:10189C00F1C4EFF0CFA5238AA1C069D9C5B783A73E
:1018AC0081C083A5C1BD411103A741BF22C406C697
:1018BC0023A2F1C46305B7020545EFF02FB3238AC9
:1018CC00A1C001C97D5723AAE1C423A2E1C423808E
:1018DC0001BEB240224403C541C14101828023AA0A
:1018EC00F1C4D9BF83A781C083A541BF411103A710
:1018FC00C1BD22C406C623AAF1C46305B7020545BF
:10190C00EFF0CFAE238AA1C001C97D5723AAE1C451
:10191C0023A2E1C4238001BEB240224403C541C1CD
:10192C004101828023A2F1C4D9BF03C681BD83A724
:10193C0081C203C7D1C583A681C4F917B397C70069
:10194C003697BA9723A4F1C082804145828083C721
:10195C00C1C093F7F70F63E6A7002386B1C001451A
:10196C008280E38EB7FEA9BD797126D2130750058C
:10197C0056CA238EE18413073005A38EE18483A716
:10198C0001BD13072004238FE1841307300422D4F4
:10199C004AD04ECE52CCA38FE18406D67D475AC88E
:1019AC005EC662C42390E7002A8483C5F1C503C5D3
:1019BC0001C037060200EFF0CFE9238AA1C05947D6
:1019CC006301E516938BC18515CD9387C1859384EF
:1019DC00C18798439107D8CFE39D97FEA933DE8743
:1019EC009853910723AEE7FEE39C97FE83C5F1C5A0
:1019FC0003C501C037060200EFF0AFE5238AA1C092
:101A0C00631F051683C49B0003C68B0083C7AB0002
:101A1C0003C7F1C583C6BB00A204D18CC207C58F16
:101A2C001347070493948601A38FE1C4DD8C63866E
:101A3C0004108386CB0083D761C363D60608371B9B
:101A4C000020130B4B8091A000C383C5F1C503C5C7
:101A5C0001C537060200EFF0CFDF238AA1C0631067
:101A6C00051603C7F1C583A6C1BF83D761C313474E
:101A7C000708A38FE1C483D6060063E3F4189D8C9A
:101A8C006390D7163E94638D041403A781C5E3FDC0
:101A9C00F4FA2320670155BF23A088002390F60099
:101AAC0083D761C39D8C3E94EFF0AFDA238AA1C03B
:101ABC002DE103C7F1C513470704A38FE1C4638865
:101ACC00040E83D761C303C801C0BA853706020070
:101ADC0083A801BF83A601BD4285E3FFF4FA23A0CE
:101AEC00780123909600814703460400B386770162
:101AFC008507C2072380C600C1830504E39697FEC1
:101B0C0037060200BA854285EFF0AFD4238AA1C014
:101B1C0069CD03A701BF9307E0022320770163017E
:101B2C00F508B250225492540259F249624AD24AF0
:101B3C00424BB24B224C4561828003C501C537062E
:101B4C000200BA85EFF0EFD0238AA1C079F983C7E0
:101B5C00F1C503A7C1BF93C707F8A38FF1C4FD4715
:101B6C00238AF1C003570700B5476316F702B7176E
:101B7C00002003C5078129C1854763FEA7002254B5
:101B8C00B25092540259F249624AD24A424BB24B79
:101B9C00224C456149BE03C541C11375F50F51B7C0
:101BAC0003C501C03D89EFF03F9803C7F1C583A77A
:101BBC0001BF23A0770151B7238A01C09DB783A62B
:101BCC0081C51307E00223A06601E31CE5F403C5FD
:101BDC0001C53D8913650508EFF01F9503C7F1C5D5
:101BEC0083A781C523A0670189BF03C7F1C583A75C
:101BFC0001BF13470704A38FE1C423A0770135BFAE
:101C0C0063E5D402F1DE9387F6FFC207C183850733
:101C1C00A2975A878346070005040507A30FD4FE35
:101C2C00E39A87FE03C7F1C565BF93960401C18291
:101C3C00D9BF4111294506C697E0FF1FE780406FC9
:101C4C0003C7C1C39387C185A386E700C94619475B
:101C5C002384D7002387E700930600F80D47A3875A
:101C6C00E700A3840700494723850700A3850700E5
:101C7C002386D7001385C187A389E7002388070033
:101C8C00A388070023890700238A0700A38A07007B
:101C9C00238B0700A38B0700238C0700F13115451C
:101CAC0097E0FF1FE780C06883C741C1014593F7E8
:101CBC00F70F81CF03C541C1D9471375F50F6309E0
:101CCC00F500D547630CF5000145B2404101828017
:101CDC0005472386E1C023A801C2C5BF0947238657
:101CEC00E1C0E5B73971A54722DCA388F1C4BD4733
:101CFC002386F1BE26DA4AD84ED652D456D25AD0C2
:101D0C005ECE62CC66CA6AC86EC606DE938DC1858D
:101D1C009384C1BE214B930A00F8130A5002A949BF
:101D2C00854C4D4D81A063FADC0A6308A70BA38098
:101D3C00E400013703C5C1BE03C7140072057D85DD
:101D4C00137585F71305850C238AE1C097E0FF1FF7
:101D5C00E780005E03C7C1BE7D171377F70F23869C
:101D6C00E1BE25CF03C7C1C31385C18723846D0191
:101D7C00A386ED00A3840D0023850D00A3850D0023
:101D8C0023865D01A3874D0123880D00A3880D00D8
:101D9C0023890D00238A0D00A38A0D00238B0D00CF
:101DAC00A38B0D00238C0D0023873D01A3890D000F
:101DBC00653E03C741C11377F70F9306B7FE93F641
:101DCC00F60F35F383C76D0211476382E704214791
:101DDC006384E70441476388E70403C711C585475B
:101DEC00B397E700C207C183F25062542390F1C24B
:101DFC0003C514004259D254B259225A925A025B6A
:101E0C00F24B624CD24C424DB24D21618280A38880
:101E1C0031C593070040C9BFAD47A388F1C485679E
:101E2C0093870780D1B7B147A388F1C485676DBF8D
:101E3C00411126C2AA84054506C622C497E0FF1F9D
:101E4C00E780004F854763F3970683C7C1C0C94637
:101E5C0093F7F70F6388D700C14663F8F600238623
:101E6C00D1C021A095472386F1C083C741C193F708
:101E7C00F70FAD1793F7F70F05476374F700553B52
:101E8C0005C1094597E0FF1FE780804A03C541C1A2
:101E9C00D9471375F50F630CF502D5476303F504A9
:101EAC00B2402244924401454101828083C741C122
:101EBC0093F7F70FDDFC094597E0FF1FE7804047DC
:101ECC0003C541C1D9471375F50FE318F5FCB240B2
:101EDC00224405472386E1C023A801C29244410154
:101EEC008280B240224409472386E1C092444101DA
:101EFC00828039716EC606DE22DC26DA4AD84ED6CE
:101F0C0052D456D25AD05ECE62CC66CA6AC8EFE0C2
:101F1C001FDEAA8D71E983C7C1C00D476376F70E2A
:101F2C0091472386F1C0EFE05FBC238AA1C0AA8D44
:101F3C0045ED938CC18583C6EC002147639DE60C6F
:101F4C0003C6FC00238201C299466315D600854660
:101F5C002382D1C203C77C0183C5BC0003C66C01BC
:101F6C0083C6EC0103C8DC0103D361C32207A206BC
:101F7C00238EB1C4518F238601BEB3E6060103C67E
:101F8C004C0183C5BC0103C801C003CE01C563105D
:101F9C006708620661861373F600634606081368C9
:101FAC000301014605436390E62013978501618781
:101FBC009376F700138BC1BE634607080947238647
:101FCC00E1BEA300BB0013E806016311061A2380CF
:101FDC0001C161A083C641C11306E0026300D62291
:101FEC0003C741C1937DF70FF25062546E85D254F2
:101FFC004259B259225A925A025BF24B624CD24C61
:10200C00424DB24D21618280930D3008F1BF13898E
:10201C00C1BEA300C900FD47238AF1C003C741C15B
:10202C00937DF70FD1B7136E030905460143E38E79
:10203C00E6F69387C1BE2386C1BEA380B700238872
:10204C00C1C5D1BF93E606F909472386E1BEA300BB
:10205C00BB002388D1C4E31C03F603C55C00EFF07E
:10206C00EFC9238AA1C0AA8D41F183C6C1C513064D
:10207C0010FA03A541BF238EC1847956A38EC18467
:10208C00854A9385D1BE238601BE23810C00A38192
:10209C000C002382DC00A3820C0023835C01A3834D
:1020AC000C00EFF0CF91238AA1C00DF583461B00E5
:1020BC006398560183A641BF83C606002386D1BE12
:1020CC00154597E0FF1FE780A026FD5623AAD1C433
:1020DC0023A2D1C403A541BF238001BEA38F01C499
:1020EC00238E01C20146130C4002930B00F8194BCE
:1020FC00C94A130A4002A386CC0023848C01A38412
:10210C000C0023850C00A3850C0023867C012387FF
:10211C006C01A3875C0123880C00A3880C00238925
:10212C000C00A3894C01238A0C00A38A0C00238B7E
:10213C000C00A38B0C00238C0C00EFF0FF8283C6E9
:10214C0041C1054693F6F60F8DE683C6C1BEB9C2F2
:10215C0083C6C1C3A1E203A541BF954783460500D1
:10216C00639AF6028547238EF1C271B72388C1C5E5
:10217C00B9BD83C6C1BEA9C283C6C1C38947138674
:10218C0016001376F60F63E9D702238EC1C203A59E
:10219C0041BF95B783C7C1C08D4663F1F60495471F
:1021AC002386F1C091B59387C1BE238661BEA380FF
:1021BC00B700238001C185B56254238E01C2F25051
:1021CC00D2544259B259225A925A025BF24B624C87
:1021DC00D24C424DB24D0545216199B96254F25031
:1021EC00D2544259B259225A925A025BF24B624C67
:1021FC00D24C424DB24D21616FF08FDC0145EFF0B6
:10220C00AFB27DBD411126C222C406C623A001B0C7
:10221C00EFE0FFAD2A8441E183C7C1C0114763726F
:10222C00F7089387C18503C7C1C323840700A3861E
:10223C00E7001947A384070023850700A38507003F
:10224C00238607002387E7001385C187A387070030
:10225C0023880700A388070023890700A3890700A8
:10226C00238A0700A38A0700238B0700A38B070090
:10227C00238C0700EFF04FEF83C741C193F7F70FA3
:10228C0099CB83C741C12386F1BEEFF09F9A03C45B
:10229C00C1BE238A81C02285B240224492444101AE
:1022AC008280813919C91305000497E0FF1FE7806C
:1022BC002008813119C12A84F9BFEFF0BFA205E5CE
:1022CC009387C18503C6170283C5070283C62702FD
:1022DC0003C7370222064D8EC206D18E6207558F78
:1022EC0023A0E1B089B703C441C11374F40F65B7DF
:1022FC0083C7C1C0397106DE22DC26DA4AD84ED635
:10230C0052D456D25AD05ECE62CC66CA6AC86EC659
:10231C0011476374F73803A701C3FD5723AAF1C40F
:10232C0023A2F1C4238001BEB7573412937607FF62
:10233C0093870767638AF636938401C1A3800400F0
:10234C00238A01C2A38E01C423AE01C02D6A130AD5
:10235C005AA5138DC1BE23A401C0930B900E930DEF
:10236C000004EFF0AFCD6314051283C6140003A66E
:10237C0041BF99E68347060093F7D70F638B771716
:10238C008357E61F6398473183CE41C32388D1C15D
:10239C00638FBE2F9387EE1BB29783C5A70003C72D
:1023AC00B70003C8870003C59700A301ED0023867F
:1023BC0001BFA300AD002301BD0083A5C1BE83C72F
:1023CC004700154723A4B1C02386F1BE6387E72AD3
:1023DC003D476384E72A7687014F01433545054E17
:1023EC001548BD489DA083C7C1BEFD1793F7F70FD5
:1023FC00930F07019382F6FF6367F500637EDE0E91
:10240C0093F6F20F054F13F7FF0F9307E71BB297E5
:10241C006306B70B03C3A70083C5B70083CF970030
:10242C0023016D00A301BD00A300FD0183C587003E
:10243C0083C7470005432386B1BE83A5C1BE23864F
:10244C00F1BE638F0701638D1701939F870193DFA3
:10245C008F4193F7F703E3D80FF82386F1BE71B7DA
:10246C0023A4B1C063040F00A380D4002388E1C06F
:10247C0083A7C1C183C6D1C5BE9523A4B1C0E392C5
:10248C0006EE4107A38EE1C423AEB1C0F9B5EFF05F
:10249C008FA9EFF03F85EFF06FBAE30805ECF2502F
:1024AC006254D2544259B259225A925A025BF24B9C
:1024BC00624CD24C424DB24D2161828063040300C8
:1024CC0023A4B1C063040F00A380D40083C7D1C57B
:1024DC00130700042388E1C0638B071A63990E1A53
:1024EC0003C71400238AF1C223AE01C0BD47E31415
:1024FC00F7E683A581C005A06302031E23A4B1C027
:10250C0063040F00A380D4002388E1C083A741C5D6
:10251C00BE9523A4B1C023A8B1C2EFF02FB241F1F4
:10252C0083A541BF1307900E83C7050093F7D70F00
:10253C006390E71A83C7D50013978701238AF1C2EA
:10254C0061876342071819478607238CE1BC93F710
:10255C00F70F0145194793968701E1861306F7FF9C
:10256C00860763C706101377F60F93F7F70F054529
:10257C007DF38547238C01BC238AF1C203D5650109
:10258C0023ACA1C001E5C85123ACA1C083C7450150
:10259C0003C63501A207D18F23ACF1BE81E79C5154
:1025AC0023ACF1BE03C6250183C8150183D601C235
:1025BC0003C311C5220633661601958283D8E50044
:1025CC00B296FD161306B3FFB3D6C640338616017A
:1025DC0003CF05012A9623A2D1BE23A211C123A6A3
:1025EC00C1BE8946630DDF0823AC01C083A681C040
:1025FC00918F33D7E700369623A4C1C423A0E1C43E
:10260C00C167D11763EBE704239D01C28567D1171E
:10261C0063EBE7060547A380E1BE6383080283A74B
:10262C0041BE99CF85476305FF0083A781C189CB44
:10263C0003C5B50011E503C7C500854763E5E70A87
:10264C0083C71400C9EB8547A380F400238A01C219
:10265C00A38E01C423AE01C0D5B9DC5503D6050346
:10266C0023A2F1BE239DC1C20D47A380E1BE75B765
:10267C00E30605F0238CE1BC11B77687D5BB2A960F
:10268C0023A6C1BEA5B70947A380E1BE79B7130540
:10269C00200931B51305100919B5EFF09F85E3102A
:1026AC0005E0EFF02FE485B93D8B938401C1A38045
:1026BC00E400238A01C2A38E01C423AE01C0BD472E
:1026CC00E316F7C83DB51D47238CE1BC1D477DB50E
:1026DC001305100AE9B31305300AD1B3E3080FE26E
:1026EC00A380D40025B583C7C1C0B69823A211C15D
:1026FC0011476376F700C1472386F1C04DB362548E
:10270C00F250D2544259B259225A925A025BF24BAD
:10271C00624CD24C424DB24D21616FF06F8A011167
:10272C004AC883A741C426CA22CC06CE4EC623A4CF
:10273C00F1C0EFF0CF962A8411E583A781C199EB04
:10274C00238001BE2285F2406244D2444249B24900
:10275C000561828003A781C083A5C1BDBA970545D9
:10276C0023A4F1C0EFE08FC803A781C0238AA1C0C6
:10277C0003A681C183C741C1118F23A4E1C093F784
:10278C00F70FDDDF03C441C1FD5723AAF1C423A217
:10279C00F1C4238001BE1374F40F6DB7797152CC60
:1027AC0003C811BE22D426D24AD006D64ECE56CA63
:1027BC005AC85EC689472A89014403A741BD6300F4
:1027CC00F8128D47630BF81093571700137417000A
:1027DC003E9783D601C283C711C583A5C1BD03A68D
:1027EC0041C0FD16F98EB357F70003A741C4AE964E
:1027FC00B29723A8D1C023AAF1BC6382E70203C716
:10280C0001BE09C7293F5DED83A741BD23A4F1C0DB
:10281C00EFE0BFFC45E903C811BE83A601C1630FFD
:10282C00090091476308F9168547630FF90E83A7D2
:10283C0081C223AAF1BC05472380E1BE238C01C2CF
:10284C0089476300F80A0D4783A741BD6301E80E71
:10285C0003C5060013F8F70F83D501C21377F500F3
:10286C009318480003A6C1BD336717019384C1BEFA
:10287C0091831377F70FFD15A380F4002381A40037
:10288C002386E1BEB307B600638AF61083C7160031
:10289C00A381F400631009086309040E83D7240094
:1028AC00918305672391F4005917636CF70A03C7EA
:1028BC0081C323A6F1BE3369E900631B090423A479
:1028CC00F1C20145B250225492540259F249624A63
:1028DC00D24A424BB24B456182800A07DDBD0607E6
:1028EC00CDBD03D7060023A6E1BEC167D91763FD92
:1028FC00E7008547238CF1C2630C090083A741BD17
:10290C0001452390F6007DBFE31A09FE23A4E1C222
:10291C0001454DBF31CC2380E60083A701C103C71D
:10292C001400A380E7009DBF23AA01BC29B79842DD
:10293C00370600101305F6FFB70500F0F98DE98F87
:10294C00CD8F698F23AAF1BC23A6E1BE5916637CF7
:10295C00E6060547238CE1C2E30C09FA9CC201454B
:10296C0095B70547238CE1C223A6F1BE014599BF5B
:10297C002380060183C7340003C7140083A601C15A
:10298C00C19B1183D98FA380F60083D72400D20773
:10299C00D18301BFFD5723AAF1BC71BD6318090295
:1029AC0083C701BE85EB83A741C4850723A4F1C06F
:1029BC00EFE0BFE2E31805F083A7C1BD83C70700B2
:1029CC00A381F400D1BDE31B09F889B711E042875C
:1029DC002380E600A933E31705EE83A741C48507DE
:1029EC0023A4F1C0EFE07FDFE31E05EC83A6C1BD9D
:1029FC0003C70600A381E400E30009EA83C71400BF
:102A0C0001E4419B9183D98F2380F60005472380F5
:102A1C00E1BE59B5797122D466C262C403A801C45F
:102A2C0003AC81C26AC026D24AD04ECE52CC56CA12
:102A3C005AC85EC606D68549938AC1BE636388139D
:102A4C00050C014523AA81BD913B23A481C359EDFB
:102A5C0083A7C1BE6380071403A801C49367FC0F4E
:102A6C001367F80FE38CE7FC83C611BEE38836FDD1
:102A7C0083A7C1BD094603D701C223A8F1C0638552
:102A8C00C60893562700FD16C206C182370E0010E9
:102A9C002396D1BE2391DA003687814E7D1E39A054
:102AAC00131703014183AE87854E5DCFD0431303CB
:102ABC00F7FF93854700B378C601E39308FE23A87C
:102ACC00B1C063850E0C2396E1BEB7050010B3E6CA
:102ADC008601FD153387E6404D8E0507D0C323A430
:102AEC00E1C26360E80805472380E1BEB25022547E
:102AFC0092540259F249624AD24A424BB24B224C8E
:102B0C00924C024D45618280135617007D16420689
:102B1C0041822396C1BE2391CA003287014339A05A
:102B2C00139708014183AE87054321CB83D6270039
:102B3C009308F7FF93852700E5F623A8B1C0630936
:102B4C0003042396E1BEFD562391D70083D62A00B9
:102B5C00B3E686013387E640050723A4E1C2E3749C
:102B6C00E8F81305100B59B7336CDC0023A8B1C07F
:102B7C00239601BE23A481C3D1B5336CCC0023A80A
:102B8C00B1C0239601BE23A481C34DBD368735BF8A
:102B9C00328755BF225423AA81BDB2509254025998
:102BAC00F249624AD24A424BB24B224C924C024DF1
:102BBC00114545616FF09FBE411106C6A13D9307BB
:102BCC00100B6305F500B24041018280B24023A492
:102BDC0001C2410181B55D7156DA83C7C1C086C699
:102BEC00A2C4A6C2CAC04EDE52DC5AD85ED662D48B
:102BFC0066D26AD06ECE3D47637CF72C83C7C1C0CA
:102C0C003D47637DF710C1472386F1C083C601B0F1
:102C1C00238F01C4638606301307C0056387E63033
:102C2C001307F0026383E630138701B003461700E5
:102C3C009307A0036306F62A3EC483A681BE83A72E
:102C4C0081C432C623A6E1C41384C1BE638D061CA5
:102C5C0083C581BD03C641C31387E6FF3317B70095
:102C6C00BA97A38EC1C423A6F1C26302062423A47F
:102C7C00F1C0EFE0BFBC5DE583D701C2239101C277
:102C8C006384072083A541BF23A8B1C083C7050077
:102C9C00B9CB930D500E2D45930BC0056381B70333
:102CAC0015476394E7009307500E03A8C1C48346ED
:102CBC0008006388F6081307A0026384E60883D72C
:102CCC0021C203D701C293870702C207C183239194
:102CDC00F1C263FBE71A83A541BFBE9523A8B1C01F
:102CEC0083C70500C5FF83A6C1C481471306A00294
:102CFC009305C0051305F00239A0630EC7006303EA
:102D0C00B7226301A7223387F60003470700850724
:102D1C0093F7F70F7DF31305200429A0EFE05FAACA
:102D2C00E30605EEB640264496440649F259625A2B
:102D3C00D25A425BB25B225C925C025DF24D6161E5
:102D4C0082809D8E93B6160036872301D40033867D
:102D5C00D500B307E80083C70700034606009308B5
:102D6C00F0021303E002214E930E0002130F170022
:102D7C00638EC702F9C76386770D6384170D639D55
:102D8C00670C6304C701631AD6152301E401A1463D
:102D9C00034724003386D50003460600B307E8003A
:102DAC0083C70700130F1700E396C7FC05078506BA
:102DBC001377F70F2301E40093F6F60FE39AA6FCC2
:102DCC00429783470700A301F40083C7B500A18B8A
:102DDC00E39707EE238C01C283A701C1A24583D6DA
:102DEC00A70103C611BE0D4723A4D1BE6318E6008C
:102DFC0003D747014207D98E23A4D1BE0347340021
:102E0C00630B072403C781C36317072403472400FC
:102E1C0083A7C1C40507BA9723A6F1C4B24783A7F9
:102E2C0081C4E39706E203A741BE9376F70F958F13
:102E3C001377F70FA38EE1C423A6F1C2E31907E2BF
:102E4C005DB513070002631EE6021D47E36DD7F65E
:102E5C0003C78500E309C7F6A301F4001307A0021A
:102E6C00E39FE7E483C7B500A18BE39A07E483A74C
:102E7C00C1C16389071463C10712FD1723AEF1C0EA
:102E8C003DBDA301F40025BD03C7D1C583A7C1C2B5
:102E9C007D1785071377F70F23A6F1C2A38EE1C424
:102EAC00E31707DCA24783A681BEE38E06E2014549
:102EBC0023AAD1BCEFF09F8EE31605E683C781C32E
:102ECC00E39307E283A6C1BEA24723A4D1BEB9B740
:102EDC00EFF00FC2E30405D2B1B5A3016400C5B392
:102EEC0093072004E3FAD7D4138731B023A6E1C4A7
:102EFC00938731B089A0D84F23AEE1C091E67D57BE
:102F0C00A38EE1C423AE01C083C7C1C03D47637823
:102F1C00F718D1472386F1C083C781C3639907167D
:102F2C00014509B51305300BF5BB138711B023A66A
:102F3C00E1C4938711B083C611BE0D476384E606C6
:102F4C0003C707003EC436C623A401BE83A781C4B1
:102F5C008146E31B07CE83A641BE03C611C5A2451D
:102F6C0013F7F60F998F3317C700094623A4C1BE78
:102F7C00238AD1C2B24623A4F1C423AEE1C0894650
:102F8C0023A4D1C223AC01BEA38E01C4C94723869E
:102F9C00F1C01305100479B3EFD09FD983A7C1C139
:102FAC002D45E1BD83A641BE83C707003AC423A4C7
:102FBC00D1BE89C73EC683A781C479B17D5723AEE4
:102FCC00E1C07DBF238601BE83A7C1C401471305A1
:102FDC0000022148154E15539308E002AD451DA87B
:102FEC002300D60083C7C1BE83A6C1C499EB03C618
:102FFC0006006318C6012380660083C7C1BE83A682
:10300C00C1C4850793F7F70F2386F1BEB697050762
:10301C00630DB70283A601C13E86BA9683C606002D
:10302C00E387A6FEE31E07FB2380170183C7C1BEFF
:10303C0083A601C103A6C1C4850793F7F70F2386A6
:10304C00F1BE83C686003E9661BF2380070085478C
:10305C00238CF1C251B303C7B70023A4D1C223AC54
:10306C0001BEA38E01C4418BE30707E883C7C1C02F
:10307C00FD5623AED1C03D47637EF700CD47238676
:10308C00F1C083C781C313051004E38D07C8130572
:10309C00300449B9EFE0CFF2E31605C8DDB7EFE035
:1030AC002FF2E31105C88DBD411106C622C4EFF005
:1030BC007F9611CD9307100B6306F500B2402244A6
:1030CC004101828023A401C2EFF0DF9465F9EFF097
:1030DC000FE56DF583A781C203A7C1C223A4F1BE7E
:1030EC0023A4E1C0EFE08FF571F903D621C283A7C9
:1030FC0041BF03A781BE2244B29793560701239D7B
:10310C00E700B2400546D0CF239AD70023A8F1C0E0
:10311C0041016FE02FFD411183D7A1C322C423A627
:10312C00A1BE06C6014589E7B24022444101828016
:10313C0003A701C3BA9723A4F1C0EFE02FF06DF5FC
:10314C0003A741BF83A6C1BE22448327871EB2407A
:10315C00B6972324F71E41016FE0CFF883C7C1C097
:10316C00238F01C44D476364F7000145828003A798
:10317C00C1C2411106C623A4E1C0EFE02FEC09ED5A
:10318C0003D721C283A741BF0145BA9703C7B70034
:10319C0023A8F1C0418B01C7B2404101828003A733
:1031AC00C1C1B240D8CF41016FE0CFF3411122C46D
:1031BC0083C7C1C006C6454793F7F70F6371F7087D
:1031CC004947638AE70483C7C1C04D4793F7F70F9C
:1031DC006361F702238F01C483C7C1C03D47637786
:1031EC00F702C1472386F1C00145B2402244410198
:1031FC0082805147638BE70483C7E1C5F1DFB93F98
:10320C006DF583C7C1C03D47E36DF7FC2244B24066
:10321C0041016FE0EFDA03C711BE8D47E305F7FA02
:10322C0083C581BD03A681C483C741BE054733173F
:10323C00B700B297238AE1C223A4F1C469B7B240A4
:10324C0022441305400B4101828083C701B0CDF7A6
:10325C0051B7011122CC83C7C1C006CE26CA4AC8B9
:10326C004EC64947637FF70883C7C1C03D476370AB
:10327C00F708C1472386F1C003A7C1C223A4E1C04C
:10328C00EFE0CFDB25E903D721C283A741BFBA9773
:10329C0015572380E700EFE0EFE429ED83A781BE0B
:1032AC0023A6F1BEA1CB9386F7FF23A4D1BE23A402
:1032BC0001C219A083A7C1BE054523AAF1BCEFF03A
:1032CC00EFCD0DE983A781C203C781C3850723A472
:1032DC00F1C26DD3EFF0AFC411ED03A581C262440E
:1032EC00F240D2444249B24905616FF0DFE2EFE0AF
:1032FC002FCD59D1F2406244D2444249B2490561C2
:10330C008280EFF05F8D2DD1F2406244D24442496D
:10331C00B24905618280797122D406D626D24AD070
:10332C004ECE52CC56CA5AC85EC6EFF0DF8AA38E78
:10333C00A1C4630F051093072004630DF500B25070
:10334C00225492540259F249624AD24A424BB24B2D
:10335C004561828083D621C283D701C203A781BE77
:10336C0063E0F6086319071083A741BEA38EF1C46E
:10337C00130A500E83A7C1C2FD1723A6F1C223A4C2
:10338C00F1C0EFE0AFCB45FD03D601C2239101C2E2
:10339C000DCA83A541BF83C70500638847259307E2
:1033AC00000201A883C606004207418363864603D8
:1033BC00BA87B386F50013870702E3E5C7FE2391AE
:1033CC00F1C283C7D1C5FD1793F7F70FA38EF1C4D4
:1033DC00D5F31305200BA5B703A781BE2391F1C22A
:1033EC0023A4E1C2EFF00FE39307100B6300F50881
:1033FC0039F5EFF0CFB221F583A781C27D5523A417
:10340C00F1BEEFF05FD105FD03A7C1C223A4E1C05B
:10341C00EFE0CFC2E31505F283D621C203A741BF6B
:10342C008147369723A8E1C0A945930800027D483F
:10343C0001A8230007006380061103A701C18507BB
:10344C003E9793F6F70FE3E6F5FE23001701F5B769
:10345C00EFF03FE0E31505EE03A781BE23A4E1C224
:10346C00EFF04FDB9307100BE314F5F823A401C224
:10347C00EFF04FDAB5BF014523AAE1BCEFF00FB274
:10348C00E31F05EA83C781C303A781BEB1DB23A475
:10349C00E1C2EFF02FD89307100B6309F508E31086
:1034AC0005EA83A781BE094523AAF1BCEFF00FAF53
:1034BC00E31705E8EFF0AFA6E31305E883D601C2E6
:1034CC0089CE03A641BF81473307F6009107C20797
:1034DC0023200700C183E399D7FE83A781C203C6CB
:1034EC0081BD83A681C4F91703C741C3B397C70035
:1034FC00B697A38E01C423A4F1C0239101C223A6C5
:10350C00F1C22386E1BE19EFE5A083C7C1BE03A7B4
:10351C0081C0FD17050793F7F70F23A4E1C023869D
:10352C00F1BEF9C7EFE00FBC6DD111BD23A401C2F0
:10353C00EFF04FCEADB703A601C18D67938717028D
:10354C00231CF60085475CCE83A7C1C49308E00218
:10355C002D4303C70700B305A60005051375F50F2A
:10356C0009CF93861700630917052380E50023A66E
:10357C00D1C463046500B687E9BF83A781BE13D7A6
:10358C000701231DF600231AE600EFE0AFB5E318A0
:10359C0005DA83A681BE03C7C1C023A4D1C223AE62
:1035AC0001C023AC01BEA38E01C4BD4663F3E60289
:1035BC0051472386E1C061B323A6D1C403C71700CA
:1035CC009386270023A6D1C42304E6002545B6879D
:1035DC0049B72254B25092540259F249624AD24A23
:1035EC00424BB24B45616FE0AF9D03A781BECDBB93
:1035FC007D55EFF05FB2E31405D403A781BECDB3C4
:10360C0083C7C1C04947637FF70A03A7C1C24111F1
:10361C0006C623A4E1C0EFE06FA255E183D621C218
:10362C0083A741BF138701B0B69783C5B700834604
:10363C0087002304B70023A8F1C09305F00F81483D
:10364C006385B600A385D700854883D667010358E8
:10365C0067002313D700C166239601BFFD166305CF
:10366C00D800239B0701854883D687010358470060
:10367C0003A3C7012312D7004167239601BF7D170F
:10368C0083A601B06304E802239C070123A6D1BEE4
:10369C0023A061B07D576387E600D4CF23AED1C0A1
:1036AC00238F01C4B24041016FE0CFA323A6D1BE4A
:1036BC0023A061B07D57E392E6FEE39508FEB2408D
:1036CC00410182801305400B828003A781BED54542
:1036DC009337170023A4E1C2B307F04023AC01BE1B
:1036EC005145A38EF1C46FE08FA639715AD083C7B0
:1036FC00C1C006DE22DC26DA4AD84ED652D456D2C7
:10370C005ECE62CC66CA6AC86EC65547630BF700BC
:10371C0083C7C1C05147631FF726EFF01FFB631629
:10372C00051A03D701B0938401B02394E40009E790
:10373C0083C7E1C563980726239001B0054C63014C
:10374C00071803C7D1C59307F00F6312F70683A7B9
:10375C0081BE6385072283C7C1C049476317F70041
:10376C0003C711BE8D47631FF72683A781C223AC05
:10377C00F1BEEFF06FC4631A051403A781BF0945AE
:10378C0023AAE1BCEFF08F816311051403A7C1BD1F
:10379C0083A741BF6303F7207D55EFF0DF976316D6
:1037AC00051283A7C1C1A38E01C423ACF1BEEFE007
:1037BC00CF9783D501C283A681BF03C7D1C583C769
:1037CC0041C303C811C51385F5FF3376D500998F16
:1037DC00420603D784004182B3970701918F63F3AC
:1037EC00E7003E87AE8D6361B710630E0610B38D94
:1037FC00C540C20D93DD0D01636CB719EFE00F846A
:10380C0069E583D501C283A681BF1385F5FF03A7A4
:10381C0041BF03D601B0DC40758D93950D012A97FD
:10382C00B297C18163840D021386F5FF4206418273
:10383C0005063E96850783C6F7FF0507A30FD7FE3F
:10384C00E39AC7FE83A681BF03D601B083D7840059
:10385C00B69D2E968D8F23ACB1BF2394F40023908C
:10386C00C1B0EFE02F8835E103A781BF83A6C1C1AA
:10387C0063F6E60023AEE1C0238F81C583D701C276
:10388C00FD17F98F95EB83C7D1C503C741C38507D6
:10389C0093F7F70FA38EF1C463E0E70203A781C28D
:1038AC00014523AAE1BCEFE07FEF05E183C781C3AB
:1038BC00F9CBFD57A38EF1C403D78400E31307E8BB
:1038CC0083C701BE0145639F070EF2506254D25468
:1038DC004259B259225A925A025BF24B624CD24C68
:1038EC00424DB24D21618280B38DC540C20D93DD36
:1038FC000D016373B701BA8DE31206F083A7C1C142
:10390C00E3F7F6F0E5BD83D701B0CC40BE9593F755
:10391C003500EDF7335A0701937DFA0F6E85EFD022
:10392C00EFAC45F583C711C503D7840083C6D1C559
:10393C00B317FA001396070183A881BF03D801B00F
:10394C004182118FEE96420703A5C1C193F6F60F83
:10395C00C69741834296A38ED1C423ACF1BE239467
:10396C00E4002390C1B06376F50023AEF1C0238F41
:10397C0081C583C741C3E3E4F6DC0DB7EFF0CFF2AA
:10398C00E30C05E099B703D78400A38E01C445BBB3
:10399C00BA8DADB51305400B0DBFEFE05FD8E30D4D
:1039AC0005DE25B76254F250D2544259B259225A0C
:1039BC00925A025BF24B624CD24C424DB24D216199
:1039CC006FF0CFF96254F250D2544259B259225A84
:1039DC00925A025BF24B624CD24C424DB24D216179
:1039EC006FE0FFD31305100BCDB5B3C7A5008D8BBE
:1039FC003307C50081E78D4763EEC700AA87637064
:103A0C00E50A83C6050085078505A38FD7FEE3EA83
:103A1C00E7FE828093763500AA8791CA83C605009B
:103A2C0085078505A38FD7FE93F63700FDB79376F0
:103A3C00C7FF138606FE63F0C70683A3050083A2A7
:103A4C00450083AF850003AFC50083AE050103AE0F
:103A5C00450103A3850183A8C5019385450223A0D5
:103A6C00770003A8C5FF23A2570023A4F70123A6C0
:103A7C00E70123A8D70123AAC70123AC670023AE13
:103A8C0017019387470223AE07FF75B79041910743
:103A9C00910523AEC7FEE3EBD7FEE3E4E7F68280A5
:103AAC0039713EDA2ED232D436D63AD842DC46DEE2
:103ABC0097D7FF1F938707D322CC804326CA06CE05
:103ACC00AA8409C41C4C99E32285852B0C44541000
:103ADC002686228536C6EF00D01CF2406244D244C2
:103AEC0021618280011197D7FF1F9387A7CF22CC2A
:103AFC00804306CEAA8519C41C4C89E72AC62285A8
:103B0C002D2BB245104422856244F24005616F00B2
:103B1C00907E011126CA4AC806CE22CC4EC652C48B
:103B2C00AA842E8901C51C4D91E3012B9C4C804429
:103B3C0099E3268519239717000093876745631C23
:103B4C00F402C0408357C400A18BB1C71C48A1C765
:103B5C00FD59294A1C4483450900FD17B1E91CC4D1
:103B6C0063DE07062286A94526855520FD57630886
:103B7C00F502294535A09717000093876743631416
:103B8C00F4008044C1B7971700009387673EE31B8E
:103B9C00F4FAC04445BFA2852685152A55D97D5512
:103BAC00F2406244D2444249B249224A05618280C1
:103BBC001CC4050963D70700184C63CBE700638965
:103BCC0045011C401387170018C02380B70059B754
:103BDC00228626852D28E31F35F7D1B71C40138785
:103BEC00170018C029472380E70061B797D7FF1F3C
:103BFC00938747BFAA8588436FF0BFF1AA8703C795
:103C0C00050085078505A38FE7FE75FB82800111F2
:103C1C0022CC26CA4AC806CE4EC6AA842E89328425
:103C2C0001C51C4D91E31129971700009387473666
:103C3C006319F406C0401C4C1CC48357C400A18BF0
:103C4C00C9C31C48BDCF1C4808409379F90F1379A0
:103C5C00F90F1D8D5C486346F500A2852685752CF1
:103C6C002DE51C440505FD171CC41C4013871700CB
:103C7C0018C0238037015C486389A7008357C400B0
:103C8C00858B81CBA9476316F900A2852685712403
:103C9C000DEDF24062444A85D2444249B249056175
:103CAC008280971700009387A7306314F400804438
:103CBC0059B7971700009387A72BE31EF4F6C0445F
:103CCC009DBFA285268521203DDD7D59D9B74111A7
:103CDC0097D7FF1F938707B126C2844322C44AC0DB
:103CEC0006C62A892E8489C49C4C99E32685B12664
:103CFC00971700009387C729631CF402C040031771
:103D0C00C40093170701C18393F68700B5EE93F6B1
:103D1C0007019DEEA5472320F9001367070423161E
:103D2C00E4007D55B2402244924402494101828014
:103D3C00971700009387C7276314F4008044C1B71A
:103D4C00971700009387C722E31BF4FAC04445BFC2
:103D5C00918B8DC74C5889C9930744046384F50033
:103D6C004A85892B232A04028357C400232204008A
:103D7C0093F7B7FD2316F4001C481CC08357C400EE
:103D8C0093E787002316F4001C4881EF8357C40087
:103D9C001307002093F707286385E700A2854A855F
:103DAC0095298357C40013F7170005C75C482324D3
:103DBC000400B307F0401CCC1C480145A5F7831741
:103DCC00C40013F7070839DF93E707042316F40040
:103DDC0089BF898B014791E3584818C4F1BF83D739
:103DEC00C500011122CC26CA06CE4AC84EC613F70E
:103DFC008700AA842E8471EFD841634DE000B8414E
:103E0C00634AE0000145F2406244D2444249B2495F
:103E1C000561828058547DD703A90400939637011D
:103E2C0023A0040063DD060670488357C400918B01
:103E3C0099C75C401D8E5C5899C33C401D8E5C54E8
:103E4C000C50814626858297FD570357C400631D8D
:103E5C00F5009440F54763E8D706B707402085077F
:103E6C00B3D7D700858BA5C31C48232204001CC0E4
:103E7C009317370163D80700FD576314F5009C4076
:103E8C0091E368C84C5823A02401ADDD930744048A
:103E9C006384F50026853929232A0402A5B70C5022
:103EAC000146854626850297FD572A86E31FF5F6BF
:103EBC009C40A5DF75476385E70059476394E70489
:103ECC0023A0240181B7136707042316E4007D5552
:103EDC001DBF83A90501E38709F203A905008D8B9A
:103EEC0023A0350133093941014791E3D84918C45E
:103EFC00E35A20F11C540C50CA864E8626858297B4
:103F0C006349A0008357C40093E707042316F40009
:103F1C007DBFAA993309A940E1BF9C49A5C30111F2
:103F2C0022CC06CE2A8411C51C4D81E72EC6312227
:103F3C00B245971700009387A705639CF5004C408A
:103F4C008397C5009DC722856244F24005616FF0DE
:103F5C001FE9971700009387A7056394F5000C449D
:103F6C00C5B7971700009387A700E39BF5FC4C445B
:103F7C00C1BFF240624401450561828001458280E7
:103F8C00411122C406C62A842316B5002317C50086
:103F9C0023200500232205002324050023220506E7
:103FAC0023280500232A0500232C050021468145E2
:103FBC001305C505EFC07F87971700009387E7BEF1
:103FCC005CD097170000938747C11CD4971700004B
:103FDC00938787C55CD497170000938747C800D098
:103FEC001CD8B24022444101828097050000938581
:103FFC0005F3B1AA411126C2130680069384F5FF7E
:10400C00B384C4024AC02E8922C406C693854407D1
:10401C00B1262A8401CD2320050023222501310558
:10402C0008C4138684068145EFC03F802285B240C8
:10403C00224492440249410182801C4DB5E7411152
:10404C0006C622C497070000938767FA1CD59717FA
:10405C000000938727FE9C43232405042326050494
:10406C00232805046314F50085471CCD2A843528C4
:10407C0048C022851D2808C42285052848C448400C
:10408C0001469145EFF0DFEF08440546A545EFF0FA
:10409C003FEF48440946C945EFF09FEE85471CCCDD
:1040AC00B240224441018280828041119717000066
:1040BC00938747F826C284434AC006C69C4C22C448
:1040CC002A8981E72685EFF05FF793848404804486
:1040DC00DC40FD1763D607009C40B9CF8440C5BFB8
:1040EC000317C40039E7C177850723220406232070
:1040FC00040023220400232404005CC423280400AD
:10410C00232A0400232C0400214681451305C405F1
:10411C00EFC0AFF1232A0402232C0402232404044D
:10412C00232604042285B2402244924402494101D0
:10413C0082801304840671BF91454A85EFF09FEB92
:10414C0088C049FDB1472320F9000144E1BF7971D2
:10415C0022D44AD052CC56CA5AC85EC606D626D2EB
:10416C004ECE2A8AAE8A130485040149054BFD5BA9
:10417C0009ECB25022544A8592540259F249624ACF
:10418C00D24A424BB24B456182800444832944009D
:10419C00FD1963D409000040E1BF83D7C400637BE1
:1041AC00FB008397E40063877701A6855285829A8A
:1041BC003369A90093848406E1BF1971A6DAAE8431
:1041CC008395E500A2DC86DE328463DC050083D7B0
:1041DC00C40023A0060093F7070885E79307004067
:1041EC001DA0300836C6EF00102DB246E34105FE87
:1041FC007247BD67F98F7977BA9793B717009CC24E
:10420C00F1BF930700041CC0F6506654D654014508
:10421C000961828083D7C500011122CC06CE26CA43
:10422C004AC8898B2E8489CF930774041CC01CC880
:10423C0085475CC8F2406244D244424905618280A1
:10424C0074003000AA84EFF05FF7A2452A89268516
:10425C00312201ED8317C40013F7072061FFF19B96
:10426C0093E727002316F400C1B797070000938744
:10427C0007D89CD48357C40008C008C893E7070824
:10428C002316F400A2475CC8B24791CF8315E40013
:10429C002685EF00F02401C98357C400F19B93E7F6
:1042AC0017002316F4008357C4003369F900231652
:1042BC00240149B7DDC183A7C5FF411122C406C63D
:1042CC0026C21384C5FF63D307003E94AA84EF0073
:1042DC001028938741819C4381EF2322040023AA59
:1042EC0081802244B2402685924441016F005026C1
:1042FC00637EF40014403307D4006396E7009843C0
:10430C00DC43369718C05CC0D9BFBA87D84319C3F1
:10431C00E37DE4FE94433386D700631F8600104090
:10432C00B29694C33386D700E31DC7FA10435843A3
:10433C00B29694C3D8C375B76375C400B1479CC01B
:10434C004DB71040B306C4006316D700144358434E
:10435C00B29614C058C0C0C369B78280011126CA76
:10436C0093843500F19806CE22CC4AC84EC6A104DF
:10437C00B14763F5F404B14463E4B4042A89EF0053
:10438C00101D9387418198433A8429E49387818156
:10439C009C4399E781454A85EF00407E23ACA18080
:1043AC00A6854A85EF00807DFD5963193507B14715
:1043BC002320F9004A85EF00B01929A0E3DE04FAA6
:1043CC00B1471CC10145F2406244D2444249B24952
:1043DC00056182801C40858F63CF0702AD4663F672
:1043EC00F6001CC03E9404C031A05C4063138702ED
:1043FC0023AAF1804A85EF00B0151305B40093078A
:10440C00440061993307F5405DDF3A94898F1CC0F5
:10441C005DBF5CC3C5B72287404085BF1304350020
:10442C007198E30285FCB305A4404A85812FE31CF7
:10443C0035FBB5BF1C46FD171CC663DA0700184ECA
:10444C0063C5E700A9476394F5006FF04FFC1C426D
:10445C002E851387170018C22380B70082800111A4
:10446C0022CC26CA4AC84EC652C406CE2A89AE8968
:10447C003284B304D6007D5A63149400014511A80C
:10448C00834504004E864A85EFF0DFFA0504E315F8
:10449C0045FFF2406244D2444249B249224A056186
:1044AC008280357122CD26CB4AC94EC706CF52C564
:1044BC0056C35AC1DEDEE2DCE6DAAA89AE84328962
:1044CC00368409C51C4D99E3EFF03FB797170000F0
:1044DC00938707AC639DF40C83A4490083D7C40075
:1044EC00A18BE5CB9C48F5C793070002A304F1020E
:1044FC009307000302D22305F10222C6930B50024C
:10450C00971A0000938ACAAC054C294B4A848347FE
:10451C00040099C36392770FB30C2441638E0C0093
:10452C00E6864A86A6854E85EFF07FF3FD57630736
:10453C00F51E9256E69636D2834704006380071E1A
:10454C00FD571309140002C802CE3ECA02CCA309BF
:10455C00010482D48345090015465685EF00807D01
:10456C0013041900C24759E913F7070109C71307C8
:10457C000002A309E10413F7870009C71307B0026F
:10458C00A309E104834609001307A0026380E6082F
:10459C00F2474A84814625460347040093051400DC
:1045AC00130707FD6379E60AB5CA3ECE85A89717AF
:1045BC0000009387E79F6395F40083A4890039BFBB
:1045CC00971700009387C79AE39AF4F083A4C90065
:1045DC0031B7A6854E85EFF08FEF19D57D55FA4092
:1045EC006A44DA444A49BA492A4A9A4A0A4BF65B5F
:1045FC00665CD65C0D618280050411BF33055541A4
:10460C003315AC00C98F3EC82289A9B7324793062F
:10461C004700184336C6634907023ACE03470400E5
:10462C009307E002631FF704034714009307A002EB
:10463C00631BF702B2470904138747009C433AC631
:10464C0063C107023ECA35A83307E04093E7270051
:10465C003ACE3EC8E1B7B387670385462E84BA9736
:10466C0025BFFD57C5B7050402CA814681472546BB
:10467C000347040093051400130707FD6376E60651
:10468C00F1F2834504000D46171500001305C5947F
:10469C00552511CD97170000938707941D8D93070F
:1046AC000004B397A700424505045D8D2AC88345D5
:1046BC000400194617150000130545921309140040
:1046CC002304B102852D3DC197C7FFFF9387C79285
:1046DC0095E74247B2471377071009CF91073EC6BB
:1046EC009257D2973ED21DB5B387670385462E8469
:1046FC00BA97BDBF9D07E19BA107D5B77800970678
:10470C000000938606D626860C084E85970000007E
:10471C00E7000000FD572A8AE314F5FC83D7C40098
:10472C0093F70704E39C07EA125555BD78009706EA
:10473C000000938606D326860C084E85012AD9BF25
:10474C00797156CA9C49BA8A984522D426D24ECE43
:10475C0052CC06D64AD05AC85EC6AA892E84B284D8
:10476C00368A63D3E700BA879CC00347340419C365
:10477C0085079CC01C4093F7070281C79C408907A2
:10478C009CC00329040013796900631A0900130BF8
:10479C009401FD5B5C449840998F634CF9041C4078
:1047AC008346340493F70702B336D000A5EB130607
:1047BC003404D2854E85829AFD576303F5041C4060
:1047CC0011469840998B544481446397C700B38435
:1047DC00E64063D3040081441C4418486354F7003A
:1047EC00998FBE94014969047D5B6398240501454A
:1047FC0009A885465A86D2854E85829A631E750114
:10480C007D55B250225492540259F249624AD24A0E
:10481C00424BB24B456182800509ADBF3307D400D2
:10482C0013060003A301C70403475404938716001F
:10483C00A2978906A381E7049DBF85462286D2856F
:10484C004E85829AE30E65FB050945B7797122D432
:10485C0026D24AD04ECE06D652CC56CA5AC8B689A3
:10486C0083C68501930790063289AA842E84138609
:10487C003504638DF60263E2D706930780056388DF
:10488C00F61863EDD7006381062293073004638E1C
:10489C00F60A930A24042301D404C9A09307300612
:1048AC006385F60A93074006E395F6FE1C40084321
:1048BC0093F6070893054500C5C61C410CC363D885
:1048CC0007001307D002B307F040A301E4049706D6
:1048DC0000009386267129476DA89307000763840F
:1048EC00F61663E5D7029307E006638BF618930779
:1048FC00F006E390F6FA0C401C4313F805081385F8
:10490C0047006307080608C39C438DA8930750070C
:10491C00E383F6FE93078007638BF6129307300749
:10492C00E399F6F61C43D04181459386470014C3A6
:10493C0083AA07005685FD2E01C53305554148C095
:10494C005C401CC8A301040471A81C43930A2404F2
:10495C00938647009C4314C32301F4048547D5B7C1
:10496C0093F607041C410CC3B9DAC207C18781BF97
:10497C0093F5050408C3C9D983D707001307F006BC
:10498C006388E60E970600009386C6652947A30147
:10499C0004044C400CC463C5050008406D9908C064
:1049AC0099E3B28A91CDB28AB3F5E702FD1AB695B6
:1049BC0083C505002380BA00B3D5E70263F0E70C8A
:1049CC00A147631EF7001C40858B91CB58401C48B7
:1049DC0063C7E70093070003A38FFAFEFD1A3306A3
:1049EC00564110C84E87CA867000A2852685EFF006
:1049FC003FD57D5A631E450B7D55B25022549254BF
:104A0C000259F249624AD24A424B45618280A382E2
:104A1C00D504970600009386E65C0C40084313F817
:104A2C0005081C411105630D080208C313F7150096
:104A3C0001C793E505020CC04147B1FB0C4093F54F
:104A4C00F5FD0CC0A9B79C4193E707029CC19307E5
:104A5C008007A302F404970600009386E65975BFFD
:104A6C0013F8050408C3E30308FCC207C1837DBF28
:104A7C009706000093860657214711BFAE872DB7C6
:104A8C0094411C43CC4913F8060813854700630670
:104A9C00080008C39C438CC301A808C393F6060402
:104AAC009C43F5DA2390B70023280400B28A1DBF7B
:104ABC0014485686CA8526858299E30F45F31C4017
:104ACC00898B8DE7B2474844E359F5F23E8535B7FB
:104ADC0085465686CA8526858299E30F65F1050AB7
:104AEC005C443247998FE345FAFEE9BF014A930AC9
:104AFC0094017D5BF5B7011122CC06CE2A8409C93D
:104B0C001C4D99E732C62EC4EFF02FD33246A24586
:104B1C00970700009387C7476316F60250401C4660
:104B2C00FD171CC663D00704184E63C7E70093F744
:104B3C00F50F29476398E70222856244F24005612C
:104B4C006FF0EF8C97070000938787466314F6008D
:104B5C001044F1B79707000093878741E311F6FCE7
:104B6C00504475BF1C4213F5F50F1387170018C27C
:104B7C002380B700F240624405618280411122C457
:104B8C002A842E8523A001C606C6EFC0EFB1FD57BF
:104B9C006317F500938701C69C4391C31CC0B240B8
:104BAC00224441018280411122C42E848395E50068
:104BBC0006C64522634905007C48AA977CC8B240CA
:104BCC002244410182808357C4007D777D17F98F81
:104BDC002316F400EDB783D7C500011122CC26CAE9
:104BEC004AC84EC606CE93F70710AA842E84328983
:104BFC00B68991C78395E5008946014631228357D2
:104C0C00C4007D777D17F98F2316F4008315E4001B
:104C1C006244F240CE864A86B24942492685D24445
:104C2C0005613DA8411122C42E848395E50006C67A
:104C3C00E128FD570357C400631BF500FD77FD17F2
:104C4C00F98F2316F400B24022444101828085671B
:104C5C00D98F2316F40068C8FDB78395E50005A825
:104C6C00411122C42A842E85B285368623A001C622
:104C7C0006C6EFC0EFA0FD576317F500938701C67A
:104C8C009C4391C31CC0B24022444101828041111B
:104C9C0022C42A842E8523A001C606C6CD20FD572A
:104CAC006317F500938701C69C4391C31CC0B240A7
:104CBC00224441018280411122C42A842E85B2856E
:104CCC0023A001C606C6D120FD576317F5009387B4
:104CDC0001C69C4391C31CC0B24022444101828056
:104CEC00411122C42A842E8523A001C606C6652044
:104CFC00FD576317F500938701C69C4391C31CC0F5
:104D0C00B240224441018280411122C42A842E8562
:104D1C00B285368623A001C606C66120FD576317EF
:104D2C00F500938701C69C4391C31CC0B24022443A
:104D3C004101828093F5F50F2A966314C500014555
:104D4C00828083470500E38DB7FE0505FDB78280A1
:104D5C008280411122C42A842E85B285368623A0F6
:104D6C0001C606C6A920FD576317F500938701C637
:104D7C009C4391C31CC0B2402244410182809307E2
:104D8C00800523A0F1C67D5582809307800523A062
:104D9C00F1C67D5582809307800523A0F1C601459D
:104DAC0082809307800523A0F1C67D5582809307EE
:104DBC00800523A0F1C67D55828000004572726F7C
:104DCC00723A20253032580A000000005374617288
:104DDC007420404368697049443D25303258200A9C
:104DEC000000000057616974204469736B5265615F
:104DFC0064790000253032780A0000004372656146
:104E0C00746500002F4E455746494C452E54585456
:104E1C0000000000427974655772697465000000E7
:104E2C004E6F74653A200D0AD5E2B8F6B3CCD0F2C9
:104E3C00CAC7D2D4D7D6BDDACEAAB5A5CEBBBDF8DB
:104E4C00D0D055C5CCCEC4BCFEB6C1D0B42C5256B5
:104E5C0033BCF2B5A5D1DDCABEB9A6C4DCA1A30D85
:104E6C000A000000B3C9B9A6D0B4C8EB2025303273
:104E7C0058B4CE0A000000004D6F646966790000DA
:104E8C00436C6F7365000000457261736500000030
:104E9C002F4F4C44000000001ABFFFFF42BFFFFF22
:104EAC006ABFFFFF82BFFFFF9CBFFFFF555342202D
:104EBC0064657620696E0000555342206465762047
:104ECC006F757400774C656E6774683A2025780AA4
:104EDC0000000000625265717565737454797065D9
:104EEC003A2025780A00000053656E643A20256448
:104EFC000A000000526573657420686F737420702B
:104F0C006F72740078253032582000004765744366
:104F1C00666744657363723A20000000496E6974D9
:104F2C00526F6F7444657620457272203D20253097
:104F3C0032580A0044697361626C6520686F73743F
:104F4C0020706F72742062656361757365206F6683
:104F5C0020646973636F6E6E656374004765744497
:104F6C00657644657363723A20000000000000000F
:104F7C000000000000000000000000000000000025
:104F8C000000000000000000000000000000000015
:104F9C000000000000000000000000000000000005
:104FAC0000000000000000000000000000000000F5
:104FBC0000000000000000000000000000000000E5
:104FCC00000000000000000000000000232D302B2A
:104FDC0020000000686C4C00656667454647000081
:104FEC003031323334353637383941424344454613
:104FFC0000000000303132333435363738396162D5
:10500C0063646566000000000201000000000000FF
:10501C00800600020000040080060001000012005F
:10502C000005020000000000000900000000000064
:04503C0088070020C1
:1050400000000000984F0000B84F0000784F0000AB
:105050000000000000000000000000000000000050
:105060000000000000000000000000000000000040
:105070000000000000000000000000000000000030
:105080000000000000000000000000000000000020
:105090000000000000000000000000000000000010
:0850A0004C0C002088070020E1
:00000001FF
