:040000006F10C07548
:10000400000000000000000090000020C202002058
:10001400A9BDF9F5780300200000000000000000ED
:100024007803002090000020000000000000000081
:10003400900000200000000090000020000000005C
:1000440090000020900000209000002090000020EC
:1000540090000020240800209000002000000000F0
:1000640090000020900000209000002090000020CC
:10007400DE0300209000002090000020900000206B
:1000840090000020900000209000002090000020AC
:1000940001A04111B7170040985F3AC6945F3247F8
:1000A400E39CE6FE324541018280B7F70700011167
:1000B400944B13078008F337078093F787083EC2F1
:1000C4000F100000B71700401308700523800705C0
:1000D400930580FA2380B7040F10000003C6B70409
:1000E4001376F60DA385C7042380070412467326EE
:1000F40006800F1000001376050255CEF3360780F4
:1001040093F6860836C40F10000023800705238069
:10011400B7040F100000B70614007D89558D88C7F9
:10012400010001000100010023800704A246F3A698
:1001340006800F10000073370780137787083AC6CC
:100144000F100000238007052380B7040F10000060
:100154000F1000003727004093061005A303D78033
:1001640023800704B247F3A707800F10000093070A
:100174008008F3B7078093F787083ECE0F1000007E
:10018400B7170040130770052380E704130780FAAC
:100194002380E7040F10000003C7B70413670708A0
:1001A400A385E70423800704F247F3A707800F1011
:1001B4000000056182801376050459C273360780F6
:1001C4001376860832C80F100000238007052380A9
:1001D400B7040F10000037061400130606047D89C7
:1001E400518D88C70100010001000100238007042C
:1001F4004246732606800F1000007337078013777A
:1002040087083ACA0F100000238007052380B7042B
:100214000F100000A54793F6F60F639EF600B7276C
:10022400004013073005A383E780B71700402380FD
:100234000704D2470DBFB727004013072005E5B7D1
:1002440073370780137787083ACC0F100000238098
:1002540007052380B7040F10000098471367070CA5
:1002640098C723800704E247FDBD0111814601467A
:100274008145114506CE912493078008F3B7078082
:1002840093F787083EC60F100000B7170040130706
:1002940070052380E704130780FA2380E7040F1016
:1002A400000003C76704136717002383E704238050
:1002B4000704B247F3A707800F100000F24005615E
:1002C400828041118146014681451145FD22130773
:1002D4008008F337078093F787083EC40F100000A7
:1002E400B7170040130670052380C704930680FAED
:1002F4002380D7040F100000FD552396B7022380F6
:100304000704A245F3A505800F100000733707808A
:10031400137787083AC60F1000002380C704238090
:10032400D7040F10000003C7670413671700238363
:10033400E70423800704B247F3A707800F100000E7
:1003440001A0BD473305F50201007D1575FD8280CE
:10035400411122C426C206C6AA840144631794002C
:10036400B240224492444101828005041305803E38
:100374004204C13F4180DDB79305000273A045806C
:1003840082457390153492402242B2424243D24392
:100394006244F244025592552256B2564257D257FD
:1003A4006258F25806499649264AB64A464BD64BF5
:1003B400664CF64C065D965D265EB65E465FD65F7D
:1003C4000961730020304111B7170040985F3AC6A5
:1003D400945F3247E39CE6FE324541018280B717C1
:1003E4000040130700032388E702854723A0F18414
:1003F40073002030411106C6EF00007FF5BF2303D0
:10040400048015472303E48001002302A480828032
:1004140083076480E3CE07FE23030480828083077E
:100424006480E3CE07FE03454480828083076480B2
:10043400E3CE07FE2302A4808280411126C44AC26F
:100444004EC006C61377F50BAD47AA892E8995448D
:100454006306F70019456537653F8D444E8545377A
:10046400FD59FD1463983401B240A24412498249F3
:1004740041018280135509011375F50F453F220987
:10048400CDB7011126CC06CEB70408005137154567
:10049400BD37713769372AC6A53F324593771500B2
:1004A40089EB136515001375F50FF240E2440561FD
:1004B4008280FD14E9FC0145CDBF397126DC4ADA9E
:1004C4004ED852D656D45AD25ED006DE62CE66CC10
:1004D400B7E700E07D5783AA070022C603AA4700B6
:1004E40023A0E71823A2E718B717004013077005E5
:1004F4002380E704130780FA2380E70483C74704B3
:10050400930B75FFB684E20793FBFB0F8546AA891C
:100514002E8B328937240040E187015763FA760134
:100524006308D5008946130700026313D5000157F9
:10053400D98F93F7F70FB71C00402382FC041147AF
:100544002303E4801305F00F5D3D094CD135636D41
:100554007C11B7050700DA9537870700795563F2F0
:10056400E504B3879500636EF702370B0800A947CB
:1005740033EB65016399F90689E48144513D26858D
:100584000DA0DA850945553D05090345F9FFFD141C
:10059400050B693D81C49377FB0FFDF7DD3569FDDC
:1005A4007D55B7170040130770052380E704130730
:1005B40080FA2380E70403C74704418B2382E704BE
:1005C400F250B7E700E023A0571123A24711E254E9
:1005D40032445259C259325AA25A125B825B724C4B
:1005E400E24C21618280A5476395F9068569130968
:1005F400F00FB3069900B3742B01B6941349F9FFB5
:10060400B3749900856B33796901416B9387F9FF62
:10061400B3F7270199E363FC340193D94900C14737
:10062400E3E637FF99BF0569C1697D19D9B7130599
:10063400800D638869011305000263847901130541
:100644001008CA85DD3B353D21DD4E99B384344124
:10065400D9B7DA852D45D533CA94E30099F2050953
:100664007D3BA30FA9FED5BF9387F9FF93F7F70F3F
:100674006361FC0C83C71C0413073008631FF70471
:1006840037070800636BEB04B3079B00B706100041
:1006940063F5D704334BEB0089476393F9068980EC
:1006A400D549E38C04ECDA850945413B110903275C
:1006B400C9FF91472320E48003076480E34E07FECB
:1006C40023033481FD17EDFBFD14110B81C49377D3
:1006D400FB0FE9FF7D3371F5E1B5B717004003C7A0
:1006E4005704B70708001377070219E3B787070011
:1006F4007955E378FBEA33079B00E3FFE7F855B548
:100704008547E382F9F2DA852D45053B9389F4FFA9
:10071400E38504E6293393F7390091EB83260480BB
:100724000327090093074900E39AE6E43E89CE844F
:10073400F1BFB5476396F9001305900BC93135BD78
:10074400B1471305B00AE38BF9FE99476391F904A5
:10075400B7050800B365BB002D45C53181448D4BF9
:10076400A149753963967401832704802320F90015
:100774008504E39834FF8327048013172B01635502
:1007840007002312F900D5BB2322F900FDB39D47CE
:100794006399F90281451305B0044531BD44232012
:1007A400090023220900FD599D3993F77400CA9763
:1007B40003C70700FD14398D2380A700E39634FF97
:1007C4006DBBA1476392F9046D398144630D0B003D
:1007D4008D479304C0036308FB009304000563047E
:1007E4008B01930440041375C507E30895D8194594
:1007F400393139390545213126850D3909453D31D0
:100804004931E31C05D669BB91476399F900130587
:100814006006F536F53E130590090DB7E38F09D44C
:10082400F154A9BB197106C212C416C61AC81ECA4D
:1008340022CC26CE2AD02ED232D436D63AD83EDA9C
:1008440042DC46DECAC0CEC2D2C4D6C6DAC8DECACC
:10085400E2CCE6CEEAD0EED2F2D4F6D6FAD8FEDA7C
:10086400938581838841E700050092402242B24289
:100874004243D2436244F244025592552256B25640
:100884004257D2576258F25806499649264AB64A00
:10089400464BD64B664CF64C065D965D265EB65EC0
:1008A400465FD65F096173002030B7E700E09843E4
:1008B400B706200023A0D718758F0F10000001C5BC
:1008C40099C1814711E6B7E700E023A0E7108280D1
:1008D400B386F50003C80600B306F5008507238038
:1008E4000601E317F6FEC5B737E700E01C43B70679
:1008F40020002320D718F58F0F10000019C191C1D3
:1009040011E637E700E02320F7108280910503A762
:10091400C5FF11057D16232EE5FEDDB737E700E0A0
:100924001C43B70620002320D718F58F0F100000B2
:1009340001C53307C50011E637E700E02320F710AF
:1009440082800505A30FB5FEE31DE5FEF5B7B7E705
:1009540000E09843B706200023A0D718758F0F1026
:1009640000008147B306F5008386060099E6B7E6E2
:1009740000E023A0E6103E8582808507E5B737E7CF
:1009840000E01C43B70620002320D718F58F0F1072
:10099400000001C599C1014711EA37E700E02320AF
:1009A400F710054582800507E309E6FE3308E500F4
:1009B400B386E5000348080083C60600E305D8FEB5
:1009C40037E700E02320F7100145828037E700E095
:1009D4001C43B70620002320D718F58F0F10000002
:1009E4001307F6FFBA952A966317C50037E700E0A8
:1009F4002320F7108280FD1503C715000505A30FFA
:100A0400E5FEDDB737E700E01C43B70620002320EE
:100A1400D718F58F0F10000001C53307C50019E67C
:100A240037E700E02320F71001458280050583465F
:100A3400F5FFE397B6FEE31BE5FE37E700E023206E
:100A4400F7100545828079719737000093874786B0
:100A540022D4804306D626D24AD04ECE52CC56CA91
:100A64005AC85EC669C037C9C901014B973900002D
:100A7400938989831309F937173A0000130A8A8383
:100A8400972A0000938A8A7D9734000093844487D0
:100A94008357240095E35C44631D0B001737000063
:100AA4002328F780832BC4002285EF00F02C5E847A
:100AB400A9A82326FB00FDB783A7090082971C443D
:100AC4003307F5406375F500D8401D8F2A9763619D
:100AD400E9089727000023AB0778835524000345D2
:100AE4000400972000E0E78020655C405844B9C7C3
:100AF4000C44D040AE97BE8663E4B70063E4C700FD
:100B0400B386C74014C4228B3A8459F09727000057
:100B14009387C7749C4B09476373F708F917172722
:100B240000002325F774B250225492540259F2491A
:100B3400624AD24A424BB24B4561828063170B0032
:100B44009727000023A6E776B1BF2326EB0099BFC1
:100B540003274A021DCF63E1A7043385A7408347D7
:100B6400040085E317270000034737765917B307B6
:100B7400A7003E85D44063E4E70063E4D7003385EF
:100B8400D74083A70A016376F5009727000023AFB7
:100B9400A76C228B404495BFD840BA977DBF972756
:100BA400000023A5076C41B7972700009387C774FB
:100BB4009C4385C3411106C682979727000083C7CB
:100BC400876E89E79727000023A80772B240410186
:100BD40082809727000083C7076D91E7972700005D
:100BE40023AC077082808280411122C41724000044
:100BF400130484691C4006C626C24AC091C7829762
:100C04009727000023A207689737000083C79788B7
:100C1400858B173900001309A98789CF8347790089
:100C240019476312F71097370000A3850786F92345
:100C34005C4482971C4491C3829797240000938458
:100C4400E466984017260000034656619727000083
:100C540083C7C76093961700BA9683D60600E5C289
:100C64009727000083C7875F63E5C70E97270000B7
:100C74002386075E1C40639E071497270000938712
:100C8400A7629C43638707149727000093874767ED
:100C9400DC4317270000232BF75C753397270000EC
:100CA40083C7B77F639707129727000083C7D77E50
:100CB40091CF8347790093F7F70F89EB97270000CB
:100CC400A38C077C970001E0E780E02897270000C9
:100CD4009387475EDC53638E070E97270000938744
:100CE400E7579C4BFDC78347790015476363F70EAD
:100CF4009727000083C7477F918BE1EF9727000078
:100D040083C7675AF9E790409726000083C61655B3
:100D140063C7D70C2244B2409244024941011733BD
:100D240000E06700E3A2834779001D47E314F7F06E
:100D340097270000A3800776D1211C48DDBD8507D5
:100D440093F7F70F97260000238AF650E3E0C7F0E5
:100D540001BF86073E978355070023100700972796
:100D6400000023910754972700009387A7519C43C1
:100D7400172500000345854E13172500BA979C4399
:100D840082979727000083D7E7511727000003476E
:100D9400E74C93C7F7FF7D8D9317170098403E9754
:100DA400835707005D8D2310A7009727000083C792
:100DB400E74A91C78507172700002301F74A172739
:100DC40000000347A7499727000083C73749E37FFB
:100DD400F7E8B240224492440249410182801397C9
:100DE40017003297035707006DF7850715B737C704
:100DF40000408326C720B707FCFFFD17F58F232685
:100E0400F720010001009727000093872745C84F6A
:100E1400832787262326D7206A0593C7F7FF99835C
:100E24005D8D8280011122CC604126CA4AC84EC61B
:100E340052C406CEAA841D4A130965058549BC44DB
:100E44006364F4000545B9A003C7D4008347440094
:100E5400631A470503C784026304F7000040C5B75B
:100E64000347540083C75405E31AF7FE1946CA859D
:100E7400130564002936E31335FF0347C40083C711
:100E84009402E31DF7FC0357E40083D7A402E3179D
:100E9400F7FC0145F2406244D2444249B249224A35
:100EA40005618280E31CF7FA0347540083C75405A5
:100EB400E316F7FA1946CA8513056400C934E31F1B
:100EC40035F9C1BF0111972700009387A76D22CC84
:100ED40003A4070C26CA06CE2AC42EC6854419E4E8
:100EE4000145F2406244D244056182808347910007
:100EF40003471400858B6304F7000044CDB71946FB
:100F04009305A100130524009D3CE31895FE0545B7
:100F1400C9BF0000EFF05FC97300000000000000CB
:100F24009722000093822238038302002380020068
:100F3400630F0300F32510342EC09705000093853A
:100F4400A5FD73901534EF00204E7300203086DC2D
:100F5400EF00804DE6508280000017270000130741
:100F6400E7521443411122C49C5E4AC006C69983C9
:100F740026C2858B3A84172900001309E950D1CB86
:100F8400930700069CDE172700000347C75093070A
:100F94000008972400009384A44F631BF700832761
:100FA40009009C4393F70704172700002305F74E15
:100FB40083C7040093F707049DC397270000938712
:100FC400A72E9C4382979727000023A1A74E83C78F
:100FD400040093F7F70B17270000230BF74A83C786
:100FE400440093F7070495E7854717270000A303F8
:100FF400F74A972700009387274C9C433707020042
:1010040098C7130700FC972600002385E6489848F4
:10101400F8D318401C5F9183858B8DC31C5F93E7C5
:1010240007011CDF97270000938707499C4323A2ED
:101034000706854717270000230EF7448327090076
:10104400D8430583058B19C7D843759BD8C3D843A8
:10105400799BD8C3B2402244924402494101828020
:10106400ED3D730020309317D50063D30702972713
:101074000000938767449C437D57B8D797270000A7
:101084009387C71DDC4F8507172700002326F71E0B
:10109400937785009DCB9727000083C7873F93E70D
:1010A4001700172700002306F73E930700F81727B9
:1010B40000002301F73E972700009387273D9843BC
:1010C4005C57F19B93E717005CD7937715008DC7A6
:1010D4009727000083C7D73B93E717001727000023
:1010E400A308F73A972700009387473A98435C5739
:1010F400F19B93E717005CD79377650095CB9377C3
:101104004500172700001307A738CDCB83470700F6
:1011140093E7170017270000230CF73697270000E2
:101124009387C73698435C57F19B93E717005CD7C6
:101134009317F50063D40702172700000347074EEF
:10114400418B972700009387E74551C383C78707DF
:1011540093E70702172700002302F74C9317E500D3
:1011640063D707029727000083C7C732E207E187E6
:1011740063D70700854717270000230DF73097270B
:101184000000938767339C433707020098C793177F
:10119400C50063D407021727000003473748058BAF
:1011A400972700009387074029C383C7970793E7CE
:1011B400270017270000A303F746828083473700E0
:1011C40093E7170017270000A305F72C81BF03C777
:1011D400870789463D8B6308D70083C787070D4778
:1011E400BD8BE39DE7F69147B5B703C79707118B0E
:1011F40069D783C7970793E7870065BF97270000E0
:101204009387872B9443972700009387672803C706
:101214000700058B11CB97270000238D07269727FE
:101224000000A3890726828003C71700058B65F792
:10123400F85271FF83C75700DDB717270000130763
:10124400E72403280700832788039583858BADEF64
:1012540011C683270803BD832300F6009DC61C43E3
:10126400985B4607935767016356070093E707C0E7
:10127400C207C18303970600C207C18709C7BA978B
:101284000947B3C7E7022390F6008DCD83451500C7
:1012940095C99727000083C7072093F7070413878E
:1012A4009500894585C33A958347050005479945C7
:1012B40093F6F7066398E600E207E187814563D376
:1012C4000700B9452E8582808545EDBF411126C2B0
:1012D40006C622C4972400009384041E3DED944066
:1012E400AE87F8527DFF37F400E03E859727000073
:1012F4002381071A832704D1B285ED9B2328F4D0D8
:10130400832704D193E787022328F4D07300501075
:10131400970001E0E780E0B0972700009387071764
:101324009C43B70680009843558F98C3D857719B48
:10133400D8D797270000A38F071497270000A38905
:1013440007149C40094798C3832704D193E7870077
:101354002328F4D0730050100DA08D476315F504B5
:1013640097270000938787129C43B7068000984311
:10137400558F98C3D857719BD8D79440172700002E
:101384001307071183472700858B89EB83473700B1
:10139400858BC1CB97270000238E070EB2402244D1
:1013A4009244410182808547E319F5FCB7F700E0D8
:1013B40003A707D16D9B23A8E7D003A707D1136721
:1013C400870223A8E7D07300501098408177FD1757
:1013D4005447F58F5CC70F1000009840B707020010
:1013E4001CC7930700F8172600002305F60A972761
:1013F40000009387A7099C439C439D83858B639F2F
:10140400A700930760197CD354C737F700E08327FC
:1014140007D193E787002328F7D02DBF9307E01B5C
:10142400DDB7FC52A5F39DBF972700009387C7083B
:101434009C438847D847798D09C988C79387818A8F
:1014440003A307006303030002838280972700003D
:101454009387870698438967938707F47CD39727F4
:1014640000009387A70A9C4383A607091396560096
:101474006358060083A607091396660063440600B2
:101484007453FDF282804111B7E700E022C4804327
:101494003707200006C6798C23A0E7180F10000038
:1014A40011C199E5B7E700E023A0871001457DA8A5
:1014B40093073500C207C183F19BC207C183130799
:1014C40040036369F702172700001307670D0843F9
:1014D400172700001307470C14436392A60217272B
:1014E4000000130727DD185B55DFC207DD8D0545B6
:1014F40002974DBF172700001307470AC9BF0357B8
:1015040065002DEB035745006366F706B306F74005
:101514002146637CD60203280500938687001D8F2D
:10152400AA966117172600000356A6D32392E60055
:1015340023A006012393060014C12312F500130708
:1015440086FF97260000239EE6D02313B500972537
:10155400000083D505D1B387F54017270000231277
:10156400F7D0B7E700E023A087102105B24022445A
:1015740041018280084195B7B7E700E08C43370703
:10158400200023A0E718F98D0F10000001E523A027
:10159400B7108280972700009387870003A3070072
:1015A40097270000938747FF83A8070081469A87FF
:1015B40063F2170D03A807006361F50C636FA80AB3
:1015C400138787006368E50A03D667002167050768
:1015D4006317E60003C7018A05072380E18A1725FC
:1015E40000001305A5C703D64700035765002393DE
:1015F4000700329742074183172E00002313EEC6DB
:10160400638C670217230000130343F903230300C9
:101614006304F30203D366006310030283D7460016
:1016240023A0060121073E9621062392C600972790
:1016340000002398E7C2B6879843630D17039726E3
:1016440000009386A6F594426306D702835667008A
:1016540095E283D64700035647001843A106B29685
:101664002392D70098C383576500A107172700006A
:101674002319F7BEB7E700E019BFBE86C2870DBFC6
:101684000111972700009387E7F122CC03A4870C6C
:1016940026CA4AC84EC606CEAA841309250085491F
:1016A40015C083C7140003473400858B6304F70017
:1016B400405CFDB71946930544004A85EFF02FAC12
:1016C400E31835FF2285F2406244D2444249B249CC
:1016D400056182804111972700009387A7EC22C4FB
:1016E40003A4870C26C24AC006C6930425000549F4
:1016F40001E82285B2402244924402494101828099
:10170400A6851305A40297A001E0E780C023E302A5
:1017140025FF405CF1BF411197270000938787E8BC
:1017240022C403A4870C26C24AC006C6930425001B
:10173400054901E82285B24022449244024941010C
:101744008280A6851305A40197A001E0E780A01F6D
:08175400E30225FF405CF1BF38
:10175C009711002093814194175100201301C10966
:10176C001305400097F5FF1F938505891706002088
:10177C00130606FE63FAC5008322050023A055005C
:10178C0011059105E3EAC5FE17D5010013054503C4
:10179C00970500209385C5FB1386818363FAC500EA
:1017AC008322050023A0550011059105E3EAC5FE2F
:1017BC001385818397250020938505F26377B50007
:1017CC00232005001105E36DB5FEFD42739002BCAC
:1017DC008D4273904280930280087390023097F28E
:1017EC00FF1F9382628193E2320073905230971202
:1017FC0000009382423D73901234730020303D43BD
:10180C002A876373C3029377F700BDEFADE5937638
:10181C0006FF3D8ABA960CC34CC30CC74CC7410794
:10182C00E36BD7FE11E28280B306C3408A069702AF
:10183C00000096966780A6002307B700A306B700A2
:10184C002306B700A305B7002305B700A304B70010
:10185C002304B700A303B7002303B700A302B70008
:10186C002302B700A301B7002301B700A300B70000
:10187C002300B700828093F5F50F93968500D58DE4
:10188C0093960501D58D61B79396270097020000BA
:10189C0096968682E78086FA9680C1171D8F3E96B3
:1018AC00E374C3F8A5B7B717004003C777051377E0
:1018BC00E70FA38BE704130700F8A38DE7043D475C
:1018CC00238CE70413075003A38CE70403C7A70575
:1018DC001377D70F238DE7048280B717004003C717
:1018EC00E7020D8941111377C70F498F93068008C2
:1018FC00F3B6068093F6860836C60F1000009306E2
:10190C0070052380D704930680FA2380D7040F1028
:10191C0000002387E70223800704B247F3A7078060
:10192C000F1000004101828041112A83014E930E59
:10193C00407E130F0019930F400663E56E12930857
:10194C00001913034006B3781503854E0D4FA14FB4
:10195C00337365020D891335150063EFBE1213083E
:10196C00F6FF794672984208135808013307C702EC
:10197C0013D61700BE0732976146B3F6C60213069C
:10198C008070B386C6023697A166F58F42075D8FCD
:10199C00B716004083C7F60293F70708A303F100BC
:1019AC000346710083C7F60293F70708E394C7FE5A
:1019BC0083477100B716004093F7F70F638807123F
:1019CC0093078008F3B7078093F787083EC40F107E
:1019DC000000B7170040930670052380D7049306C8
:1019EC0080FA2380D7040F10000023AA070383C6B4
:1019FC00170393E60608A388D70223800704A2479F
:101A0C00F3A707800F1000001166B71700407D1672
:101A1C00D45BC85F93854703A98EF18EF5FA9306C4
:101A2C008008F3B6068093F6860836C60F100000C1
:101A3C00930670052380D704930680FA2380D7047D
:101A4C000F10000098C103C7170313670704A3887E
:101A5C00E70223800704B247F3A707800F100000AA
:101A6C00410182807D133368E3039308E016630E13
:101A7C0008003368F3039308D016630808009378C2
:101A8C00330093B818009388D81633081E01131E20
:101A9C000801135E0E0155B56393E5030548638693
:101AAC0008000148630303002A8871087298FD1529
:101ABC00131E0801C205135E0E01C18179BD13F816
:101ACC00150063F4BF007908D5B713381800E5BFCB
:101ADC0083C7F60293F70708A303F10003467100CE
:101AEC0083C7F60293F70708E394C7FE8347710098
:101AFC0093F7F70FF1DFE9B531714AD966CB06DF01
:101B0C0022DD26DB4ED752D556D35AD15ECF62CDCD
:101B1C006AC96EC7AA8C02D8EF0010122A899307E3
:101B2C008008F3B7078093F787083EDA0F100000A0
:101B3C00B7170040130770052380E704130780FADA
:101B4C002380E7040F10000003C7F7021377770F09
:101B5C00A387E70203C7F70213678700A387E7028F
:101B6C0023800704D257F3A707800F100000054508
:101B7C00AD33130780C13347E902116A93070AE8B2
:101B8C0093065002BD69930BA004814A014B1304C8
:101B9C008008930470057D1AB347F9023307D70206
:101BAC003EC0FD873ECC938709A69309803E334700
:101BBC00F7023AC27D873AC4334739038549B39952
:101BCC00990193D93940B306D702B30B7703B3C647
:101BDC00F602B3CBFB0236C6FD8636C893D6FB4164
:101BEC0036CEB7460F00938606243349D902856654
:101BFC00938606FAB3969601B389E90213076055EA
:101C0C003309D90293060010B389E9023349D9028A
:101C1C00B3C9F9029316390036CA37190040FD864C
:101C2C0036D0930D090493D7F9413ED2F336048094
:101C3C0093F6860836DC0F1000009307700523809E
:101C4C00FD00930680FA2380DD000F100000834610
:101C5C00390593F6860FA309D9048346390593E613
:101C6C001600A309D90423800D00E256F3A60680C2
:101C7C000F100000130C80FA116DF336048093F6EC
:101C8C00860836DE0F100000930770052380FD00D8
:101C9C0023808D010F10000083463905216693E6E1
:101CAC000602A309D90483560905B3E6A601231835
:101CBC00D90483560905D18E2318D90423800D002D
:101CCC00F256F3A606800F1000008346390593F6F2
:101CDC0006026389061803463905218A6DDE081849
:101CEC00612F7336048013768608B2C20F10000081
:101CFC0023809D0023808D010F100000B71700403A
:101D0C0003C637051376F60DA389C70403C637053A
:101D1C0013660602A389C704835609052166B3E638
:101D2C00A6012318D90483560905D18E2318D9048A
:101D3C0023800D009646F3A606800F100000834604
:101D4C00390593F606026386061483463905A18A83
:101D5C00EDFE97E0FF1FE7804033AA8636D497E06C
:101D6C00FF1FE7808032A256E30AD5FE8356090591
:101D7C004255B3E6A6012318D904392F83463905F9
:101D8C00A18AEDDE03560905834629058247337681
:101D9C00CA00B306DA0293D5F641B296B388F64080
:101DAC00E24733B8C6002E983308F840A247B3B6C2
:101DBC0016013308D84063C70701631DF80092472A
:101DCC0063FA1701C247634DF80E63950701B247DA
:101DDC0063E8F80E894663E7660FF2469315180020
:101DEC0013D3F8015E8613951800B365B30042D681
:101DFC0046D4EFA0617F3258050B137BFB0F634772
:101E0C00000163120838A258638F083613081500B6
:101E1C00B336A800B69513D6F5013298B336C80080
:101E2C00AE9613581800FE06B3E60601733604800E
:101E3C0013768608B2C60F10000023809D00238005
:101E4C008D010F1000000356C902B296C206C18262
:101E5C002316D90223800D00B646F3A606800F1078
:101E6C00000021BDF336048093F68608B6C00F102F
:101E7C00000023809D0023808D010F1000008346FD
:101E8C00390593E60602A309D90423800D00864682
:101E9C000DBDF336048093F68608B6C40F1000000F
:101EAC0023809D0023808D010F100000834639058F
:101EBC0093E60602A309D90423800D00A646A5BD0E
:101ECC00E30D0BF0F336048093F68608B6C80F10BA
:101EDC000000930680FA23809D002380DD000F1004
:101EEC0000008346390593F5FC0F93F6860FA30982
:101EFC00D90483463905CD8EA309D90423800D005E
:101F0C00C646F3A606800F100000130580FA0346A0
:101F1C003905930639051D8A631496297336048096
:101F2C0013768608B2CC0F100000130680FA2380BB
:101F3C009D002380CD000F10000003C60600137611
:101F4C00F60D2380C60003C6060013660602238026
:101F5C00C600835609051166D18E2318D904835601
:101F6C0009052166D18E2318D90423800D00E6467D
:101F7C00F3A606800F100000130680FA834639057D
:101F8C0093F606026388062483463905130C39053B
:101F9C00A18AFDDA0818CD21F336048093F6860861
:101FAC00B6D00F100000930680FA23809D0023808A
:101FBC00DD000F10000083460C00116693F6F60D41
:101FCC002300DC0083460C0093E606022300DC00B1
:101FDC0083560905D18E2318D90483560905216629
:101FEC00D18E2318D90423800D008656F3A60680C3
:101FFC000F100000130680FA8346390593F606028B
:10200C006385062083463905A18AEDFE97E0FF1F04
:10201C00E780A0072A8C97E0FF1FE7800007E30CFE
:10202C0085FF8356090511664255D18E2318D904B4
:10203C00A5218346390513063905A18AFDDAF33645
:10204C00048093F68608B6D40F100000930680FA2D
:10205C0023809D002380DD000F10000083460600C6
:10206C0093F6F60D2300D60023800D00A656F3A69A
:10207C0006800F1000008356090503462905D24738
:10208C00B376DA003306CA021305800C9355F64179
:10209C003696330DF6408257333CD6002E9C3336A1
:1020AC00A601330CFC40330CCC403308850392560C
:1020BC004E86B335A5033305A503C295EFA0C152D7
:1020CC0063468001631E0C16630C0D161306150077
:1020DC003335A6002E959356F5013696B335D600BA
:1020EC00AA959396F50105828585D18E6346B0003D
:1020FC00639D051A638B061A0356C90215823305B4
:10210C00D6003336C500B2956348B0006391052400
:10211C001306F00F637DA622894663F356159307C9
:10212C008008F3B7078093F78708BED60F1000001E
:10213C0037170040930770052300F704930780FAC4
:10214C002300F7040F1000008356C702896781171C
:10215C00D58FC207C1832316F70223000704B65795
:10216C00F3A707800F100000FA506A54DA544A594A
:10217C00BA592A5A9A5A0A5BFA4B6A4CDA4C4A4DAB
:10218C00BA4D296182801308F5FF3335A800FD157F
:10219C002E951356F5013298B336C800AA9651B154
:1021AC00F336048093F68608B6CA0F10000023801D
:1021BC009D002380AD000F10000083463905CD8EA5
:1021CC00A309D90423800D00D646F3A606800F1070
:1021DC00000035BBF336048093F68608B6CE0F109C
:1021EC00000023809D002380CD000F10000083464B
:1021FC00390593E60602A309D90423800D00F6469F
:10220C00F3A606800F10000095BBF336048093F6FE
:10221C008608B6D20F10000023809D002380CD00CD
:10222C000F1000008346390593E60602A309D90472
:10223C0023800D009656F3A606800F1000006DBB90
:10224C009306F5FF33B5A600FD152E959355F501B4
:10225C00AE96B3B5B600AA951396F501858269B50D
:10226C00F336048093F68608B6D80F100000930658
:10227C0080FA23809D002380DD000F100000835620
:10228C00C9020566011693F6F60FD18EC206C182FD
:10229C002316D90223800D00C656F3A606800F1014
:1022AC000000850A93FAFA0F51B233E6B60045C224
:1022BC000356C9023305D0403338A000B305B040F3
:1022CC00B385054115826345B000D1E16371A60861
:1022DC00894663F0560593078008F3B7078093F798
:1022EC008708BEDA0F100000B717004013077005FF
:1022FC002380E704130780FA2380E7040F10000003
:10230C0003D7C7027D8B2396E70223800704D65799
:10231C0081BDF336048093F68608B6DC0F100000FE
:10232C00930680FA23809D002380DD000F100000AF
:10233C008356C9020566011693F6F60FD18EC206B6
:10234C00C1822316D90223800D00E656B9B7930734
:10235C008008F3B7078093F78708BEDE0F100000E4
:10236C0037170040930770052300F704930780FA92
:10237C002300F7040F1000000356C7029397560072
:10238C00B297C207C1832316F70223000704F6573E
:10239C00C1BB914763EEB70217C70100130747D0C3
:1023AC008A05BA959C41BA978287B717004003A754
:1023BC00470B1345F5FF698F23AAE70A03A7070B01
:1023CC00698F23A8E70A03A7070A798D23A0A70A18
:1023DC008280B717004083A6470B1347F5FFF98E91
:1023EC0023AAD70A83A6070B558D23A8A70A83A671
:1023FC00070A758F23A0E70A8280B717004003A74E
:10240C00470B498F23AAE70A03A7070B1345F5FFD0
:10241C0045BFB717004083A6470B1347F5FF758FD1
:10242C0023AAE70A03A7070A598D4DB7B71700402F
:10243C0003A7470B498FEDB7B717004088474205F4
:10244C0041819377050491EB9377F5013755E801BA
:10245C00130505803345F50282809377050C13072D
:10246C0000046397E7009377F50137459C1CCDB7C3
:10247C002165130505D0828037E700E01C435443E7
:10248C00A183E206D58F1CC1FD572320F718232208
:10249C00F7180F100000828013178500B7E700E0D3
:1024AC0023A0E710618123A2A7108280B7F700E078
:1024BC008847CC478280814737370040A14663C4A8
:1024CC00C700328582800345B740E38EA6FE338574
:1024DC00F5000345050085072304A740CDB797F702
:1024EC00FF1F9387673B9C43171700201307C71EDA
:1024FC003E95636EE500174700201307E70F6368EE
:10250C00A70017F7FF1F2329A7383E858280FD57A8
:10251C00EDBF411122C406C62A84393F2947B307AF
:10252C00E502B2408D83B3D7870222449507B3D717
:10253C00E70237370040C207C1832316F740410139
:10254C008280716541111305052006C6D937B7374E
:10255C000040130770F82381E7400D47A381E74043
:10256C0013070004A380E74005472387E740B240E8
:10257C004101828011456FF02FD8411193962500AF
:10258C00AA852D4506C697E0FF1FE78080F2B24072
:10259C00014541018280011122CC06CE3714004046
:1025AC0026CA4AC84EC652C483447405034AB405AD
:1025BC008349840503499405EFF0EFAE8347A405E6
:1025CC0093F4F40F137AFA0F93E71700230DF40426
:1025DC0093F9F90F1379F90FB717004003C7A70543
:1025EC00058B6DFF03D5C705A38D4705238C3705D8
:1025FC00A38C2705A38B9704F2406244D244424932
:10260C00B249224A0561828041119397050122C487
:10261C0006C6C1872E8463DB0700C52D11C12D258D
:10262C002165218DB24022444101828093F715002F
:10263C0013C51500E5FB93F7250013C52500FDF325
:10264C009397250163D00702EFE05074253737F6D6
:10265C000200130606E0896503C5C183EF00704CC8
:10266C000965C1B7939715010145E3DD07FA17C555
:10267C0001001305A5A8EFA0710213060064916573
:10268C0003C5C183EF00F049116561BF2D71232A89
:10269C009110FD74E98C232C811023282111232601
:1026AC0031112A84AE893289930600100A86A685D8
:1026BC002D45232E111097E0FF1FE78080DF1315A7
:1026CC00440151810A0513962900CA850A9597E0A1
:1026DC00FF1FE780001DA68585660146254597E00E
:1026EC00FF1FE78000DD0A86A685930600102945AA
:1026FC0097E0FF1FE780E0DB8320C11103248111E9
:10270C0083244111032901118329C1101561828091
:10271C00B7F7070003C70701411106C622C426C23A
:10272C004AC0A547631AF7009537B2402244924439
:10273C00024901454101828013942500AA84328903
:10274C00A286AA850146254597E0FF1FE78060D643
:10275C00A2864A86A685294597E0FF1FE78060D5AB
:10276C00E9B71D71494697C501009385A59417C516
:10277C0001001305E5AB86CE97E0FF1FE780A01F95
:10278C0001E917C5010013052594EFA0217101A0E3
:10279C00B7F600E0795798CAFD57DCCA0567B7E76A
:1027AC0000E023A0E7101306F00290C223A0E71864
:1027BC000F10000017E7FF1F1307077623ACE18209
:1027CC004157A38AE740130600048145080897E0A7
:1027DC00FF1FE780201497F7FF1F938767223EC8DF
:1027EC00896793870780231AF1009D673ECCB70752
:1027FC000105938707103ECEED472310F102854764
:10280C002301F10297070000938767D7BEC2970791
:10281C000000938727F0BEC48567938757D1231296
:10282C00F102970700009387A7C83ED8B7F50700B9
:10283C0097070000938767D63EDC81469707000018
:10284C00938787D33000E10519453EDE97E0FF1FE3
:10285C00E78020C618088147994630003E9603460B
:10286C00060085070507A30BC700E398D7FEC247F0
:10287C0091C70357410185676373F70001A0830774
:10288C00410263D7070493078008F3B7078093F7D7
:10289C0087083EC40F100000B717004013077005DF
:1028AC002380E704130780FA2380E7040F1000004D
:1028BC00B847B706100013670718B8C79853558F59
:1028CC0098D323800704A247F3A707800F100000BA
:1028DC000808EF10A00FAA8501C917B50100130550
:1028EC00E57FEFA0614701A0F64025618280411190
:1028FC0017050000130585D106C622C4EF10400948
:10290C001384C1832300A400192803450400224426
:10291C00B24013060032896541016F009020797135
:10292C0006D613078008F337078093F787083EC253
:10293C000F100000B7170040930570052380B704F3
:10294C00130680FA2380C7040F10000083C6F70219
:10295C0093F6A60FA387D702238007049246F3A60B
:10296C0006800F10000073370780137787083AC46E
:10297C000F1000002380B7042380C7040F10000041
:10298C0003C7F70213672700A387E7022380070416
:10299C00A247F3A707800F1000000545EFE0FFF3F7
:1029AC00D13E814701478146054685451305407E4A
:1029BC00EFE09FF768005146814597E0FF1FE780E5
:1029CC0060F5B707C0A83EC8B787E803938707D060
:1029DC003ECA680097E7FF1F9387679E3EC6EF10BD
:1029EC00C02EB2504561828041119397050122C4DB
:1029FC0006C6C1872E8463DD070003C551843126CA
:102A0C0011C199242165218DB2402244410182805B
:102A1C0093F715000145EDDB17C50100130585D6AD
:102A2C00EF40214C13451400C5B783472500011115
:102A3C0022CC06CE26CA4AC84EC652C456C25AC06A
:102A4C0005472A846387E70A91CF35476380E704FB
:102A5C00F2406244D2444249B249224A924A024B61
:102A6C0005618280014685450D45EF40A1496244D0
:102A7C00F240D2444249B249224A924A024B17B51B
:102A8C0001001305E56705616FA0414103C741844F
:102A9C009D47E3EFE7FA83494500130955000144CC
:102AAC009384819203C541846366A4020E050905D3
:102ABC0026951946CA8597E0FF1FE78080DE83C7FD
:102ACC00418413973700BA948507A380340123827D
:102ADC00F184BDBF9315340089051946A6954A8526
:102AEC0097E0FF1FE78020E925F505041374F40F28
:102AFC0055BF17B501001305A561EFA0213A834717
:102B0C003400A5E3014685450D45EF40A13F6244E5
:102B1C00F240D2444249B249224A924A024B17B57A
:102B2C0001001305256005616FA00123A6854E8564
:102B3C00EFA08122139B340001495C405285DA9747
:102B4C00CA9783C527000509EFA00121E31759FF98
:102B5C002945EFA06124850483473400E3C8F4FCC5
:102B6C0055B7814497B901009389095D17BA0100E3
:102B7C00130A8A5D994ACDB7011117050000130598
:102B8C00E5E606CE22CCEF00B06013845184A14759
:102B9C001306F1002300A40085451305E030A307BC
:102BAC00F100EF40E15985659385052C0945EF202F
:102BBC00702D034504008545852BF2406244056168
:102BCC00828041111305800406C697D0FF1FE78051
:102BDC00404D371700408327870A8D451305002089
:102BEC0093E707202324F70AEFF0AFFA993A17B5C9
:102BFC0001001305E563EFA0612AA536CD39EF403E
:102C0C0011069D3F97D0FF1FE780407E23AC05FE49
:102C1C001C4191E7010001000CC18280BA8703A717
:102C2C0087FF6DFF23ACB7FE8280184183A785FF19
:102C3C006319B7001CC1FD5723AC05FE238FF5FEAD
:102C4C008280232CF6FEC5BF411122C437E400E07C
:102C5C0026C204403707200006C6F98C2320E4184E
:102C6C000F10000009E9232094101545B2402244AE
:102C7C009244410182800347E5FF9307F00F6306FE
:102C8C00F700232094101145D5B797F0FF1FE7806C
:102C9C00208E014523209410D1BF411126C2B7E4E8
:102CAC0000E04AC003A90400B707200006C622C4EE
:102CBC003379F90023A0F4180F10000009E923A0C0
:102CCC002411B2402244924402494101828095650C
:102CDC00938505D0C98D2A842105C2054205C18181
:102CEC00418197E0FF1FE780807901CDFD572320BC
:102CFC000500231285002303F50023A024112105D0
:102D0C00C9B723A0241101456DBF0111B7E700E03D
:102D1C004AC803A907004EC63707200006CE22CCAE
:102D2C0026CAAA893379E90023A0E7180F100000FE
:102D3C00970700209387875180438144014619E40B
:102D4C0099E8A1654E85EF00300805A08347E4FFA4
:102D5C006399370385CCA685170500201305054F0D
:102D6C00E93565D0A1654E85C126F2406244B7E7CE
:102D7C0000E023A0271126854249D244B2490561BF
:102D8C00828091E02286032484FF55BFA284E5BF94
:102D9C0041114AC037E900E022C403240900370777
:102DAC00200006C626C2798C2320E9180F100000DB
:102DBC0089E523208910154515A0AA8497070020C2
:102DCC0083C717492E8563F5F400894763EE970096
:102DDC00A53DB7E700E023A087100D45B240224483
:102DEC00924402494101828083A785FF99E703C77A
:102DFC00E5FF9307F00F6308F700B935B7E700E07C
:102E0C0023A087104DBF238F95FE170500201305B7
:102E1C00E543ED3BA1652685012E01452320891054
:102E2C0075BF9707002023A30742828097070020D5
:102E3C00938747479C4399E33E85828003D72700BD
:102E4C006316B70003C70700E308A7FEDC47E5B726
:102E5C00A5C1011106CE22CC26CA8147C14633D763
:102E6C00F540058B29C312053E9531473305E50224
:102E7C001707002013074747044305443314F40095
:102E8C002EC642044180AA949C40C8408297B24509
:102E9C0023A0040023A20400A18DF2406244D2447A
:102EAC002E85056182808507E39BD7FA0144EDB737
:102EBC002E858280C9C1797122D406D626D24AD0F9
:102ECC004ECE01444147B3D78540858BA5C312052F
:102EDC00314722953305E502970700209387C740B9
:102EEC0003A907008544B3948400C204C180BE8941
:102EFC002A990327090011C7032549002EC60297FA
:102F0C00B24531473304E40283A709003E941C44C4
:102F1C0089E72320090023220900B2502254A58DF1
:102F2C0002599254F2492E85456182800504E31CB6
:102F3C00E4F88144DDB72E8582804111B7E700E0CB
:102F4C0022C480433707200006C626C2798C23A0F2
:102F5C00E7180F100000970700209387E7349C5365
:102F6C009384418099C782979C403E9523A2A1806F
:102F7C0039A097070020938767329C43EDF7884070
:102F8C00B74703009387D73F3305F502B7A7260051
:102F9C00938737ECB24092443E9523A2A180B7E7C9
:102FAC0000E023A087102244410182800111B7E781
:102FBC0000E022CC80434AC83707200006CE26CA40
:102FCC002A892E86798C23A0E7180F100000131580
:102FDC0006019305F004418132C697E0FF1FE7809C
:102FEC00004AAA8419C53246CA8597E0FF1FE780BC
:102FFC00408BB7E700E023A08710F240624426859F
:10300C004249D244056182807971B7E700E022D44D
:10301C0080433708200006D626D24AD04ECE52CC5A
:10302C0056CA5AC85EC662C43374040123A0071979
:10303C000F10000005E123A087100945B25022545F
:10304C0092540259F249624AD24A424BB24B224C38
:10305C004561828097070020938747249C43BA8A56
:10306C00368AB28B2E8BAA8982979707002093877A
:10307C00A72798433E898144B146C147338CD4027B
:10308C0033068701104241EAC165938505F041453D
:10309C0097E0FF1FE780A03E05E19707002093878C
:1030AC00A7209C5B81C7814511458297B7E700E05B
:1030BC0023A087102D4559B7970700209387871EAB
:1030CC00984331E79707002023AEA71C2300050087
:1030DC00832709000547331797002326050023246F
:1030EC0075012311E50023225501E29723A0370136
:1030FC0023A2670123A4570163040A0023009A004A
:10310C00B7E700E023A0871001450DBF3E875C4761
:10311C00F5FF48C765BF8504E392F4F6B7E700E016
:10312C0023A08710214519BFB7E700E09843B706E5
:10313C00200023A0D718758F0F10000097060020D1
:10314C0083C616116373D5021706002013064615A5
:10315C00931615000842369583560500D58D23101D
:10316C00B50023A0E7100145828023A0E7100D4590
:10317C008280B7E700E09843B706200023A0D71859
:10318C00758F0F1000009706002083C6760C6375B0
:10319C00D502170600201306A61093161500084238
:1031AC0093C5F5FF369583560500F58D2310B500B4
:1031BC0023A0E7100145828023A0E7100D458280F3
:1031CC00011137E700E026CA0443B706200006CEFB
:1031DC0022CC4AC84EC652C4F58C2320D7180F10E7
:1031EC000000130705FF1377F70FFD4763E5E70AA8
:1031FC00B146B306D502970700209387E70E984394
:10320C0036971C43C9CB135A450005443D893315E9
:10321C00A4001314050141802E895285A2853931F1
:10322C00AA8929CDA2855285A937970700209387B3
:10323C00E7069C4382979707002083D7270C338798
:10324C0027032A84814613060064B3B727031305AA
:10325C000732B335E500BE95EF908176B307850054
:10326C0097060020938606093E87D44263E4A700A4
:10327C0063E4D7003387D74023A4E900B7E700E025
:10328C0023A097100145F2406244D2444249B2490E
:10329C00224A05618280B7E700E023A09710094518
:1032AC00DDB70111B7E700E026CA844337072000D9
:1032BC0006CE22CC4AC84EC6F98C23A0E7180F10B4
:1032CC000000BD4763E9A70431473307E5029707C0
:1032DC000020938767019C43BA979C438DCF05448C
:1032EC003314A400420441802E890145A2853D3E41
:1032FC00AA8911C5A2850145AD3D23A42901B7E7D3
:10330C0000E023A097100145F2406244D2444249A8
:10331C00B24905618280B7E700E023A09710094508
:10332C00E5B779714AD037E900E026D28324090049
:10333C00B707200006D622D44ECE52CC56CA5AC855
:10334C005EC6FD8C2320F9180F1000009707002093
:10335C0083C717F0637AF50097070020938707F46B
:10336C0083AB070063970B00B7E700E023A097102F
:10337C00A9A0170B0020130BEBF7832A4B00B747C0
:10338C0036FE938707C82E8A9705002083D505F74C
:10339C00BE9AB387C5022A84B2898146B3B5C502E9
:1033AC0013850732B337F50013060064BE95EF9012
:1033BC00216163F0AA02232099100145B2502254D6
:1033CC0092540259F249624AD24A424BB24B45617D
:1033DC008280829B9705002083D545F2B387350305
:1033EC002A89130600648146B3B535031385073269
:1033FC00B337F500BE95EF90A15CB30725013E896C
:10340C0003274B0063E4A70063E4E7003389E7403C
:10341C00D2852285213C09C923242501B7E700E088
:10342C0023A09710054559BF936504F0C205C181CF
:10343C00414597E0FF1FE780800419E997070020BA
:10344C00938787E69C5B8DD3A2851145829729BF14
:10345C0097070020938707E59C4385E79707002093
:10346C0023A2A7E485472326050023242501231145
:10347C00450123008500A300F5002322050079BF38
:10348C00BA87D84775FFC8C7F1BF7971B7E700E0B5
:10349C0026D284433707200006D622D44AD04ECEFB
:1034AC0052CC56CA5AC85EC662C466C26AC0F98C8F
:1034BC0023A0E7180F1000003DC14144B689B28A21
:1034CC002E8A2A89B14C170B0020130BEBE1054D0A
:1034DC00130C0003B30B940303270B005E971C43E0
:1034EC00A5E39375F400B315BD0013554440C20514
:1034FC005686C1811375F50F2D3539C183270B0005
:10350C00DE9723A0270123A24701638409002380AF
:10351C008900B7E700E023A09710014521A023A064
:10352C0097100945B250225492540259F249624AFA
:10353C00D24A424BB24B224C924C024D4561828096
:10354C000504E31984F9B7E700E023A0971021459F
:10355C00D1BF0111B7E700E026CA844322CC4AC888
:10356C004EC63707200006CE2A84AE893289F98CE4
:10357C0023A0E7180F1000006D332285CE85EFF0E5
:10358C00FF8A2A8405C59705002083D525D7B387E4
:10359C002503130600648146B3B525031385073252
:1035AC00B337F500BE95EF90A14148C01335140018
:1035BC00F2406244B7E700E023A097104249D2449E
:1035CC00B2490E05056182800111B7E700E04AC8D7
:1035DC0003A9070022CC4EC63707200006CE26CA08
:1035EC00AA892E843379E90023A0E7180F10000074
:1035FC00EFF0DF83AA8419C123110500A2854E8543
:10360C008D3E9707002083C7A7C4639B370197079C
:10361C00002083D767C85D8C97070020239E87C640
:10362C00B7E700E023A02711014591E01945F240CE
:10363C006244D2444249B2490561828001114AC8B0
:10364C0037E900E022CC03240900B707200006CE9E
:10365C0026CA4EC67D8C2320F9180F100000930744
:10366C00F00263E8A704B147B304F5029709002000
:10367C00938989C783A70900A6979C439DCB937711
:10368C00F5008545B395F500C205C18111812D3F2B
:10369C0083A709000145A69723A0070023A20700D2
:1036AC0023208910F2406244D2444249B249056158
:1036BC008280B7E700E023A087100945E5B74111E8
:1036CC00B7E700E026C2844306C622C437072000B1
:1036DC00F98C23A0E7180F100000EFF02FF519E973
:1036EC000145B2402244B7E700E023A09710924472
:1036FC004101828097070020938747BA9C4300457D
:10370C008297970700209387E7BE6368A402D8438B
:10371C00B74636FE938606C83305A4403697E37148
:10372C00E5FC13070064B335E50203D68700814638
:10373C003305E502EF90C1286DB7D8433A94C1BF69
:10374C00411122C426C2170400201304A4BA970402
:10375C0000209384E4AF9448584097070020938747
:10376C00E7B306C69C436393E60882975440B74779
:10377C0036FE938707C8B6973387A7003A856364EC
:10378C00F7006364D7003305D74097040020938477
:10379C0064CFDC5081CF97070020938767D6944382
:1037AC003707CDFF7D179C46F98F9CC611E1484029
:1037BC0097070020938747AFDC53829719E5DC50BD
:1037CC008DC3EFD0F073EFD04049DC5099CB970705
:1037DC0000209387E7D29843B70633001C47D58F58
:1037EC001CC7B24022449244410182808297944883
:1037FC005840B387A6003E8563E4D700E3E7E7F8BB
:10380C003385E74059B7411106C69707002023A11D
:10381C00A7AE0295B2409707002023A7A7A40145A5
:10382C0041018280994763E9B7008A059707002018
:10383C009387C7A4BE9588C182809707002023A7D1
:10384C00A7AA11C58547170700202308F7A4828073
:10385C0041117146814517050020130525A206C6A6
:10386C009707002023A007A49707002023A207A8EE
:10387C009707002023A407A297070020238F07A0F7
:10388C009707002023A407A697D0FF1FE780800886
:10389C00130680028145170500201305659B97D000
:1038AC00FF1FE7802007EF305145970700209387D3
:1038BC00A79F03C5C70383C7D70385453E958D478F
:1038CC003305F50239051375F50F97070020238290
:1038DC00A79899473305F5021305052497E0FF1FB8
:1038EC00E780E0B9170700202320A7A059CD9947FE
:1038FC00170600200346E6953306F60281451306AB
:10390C00062497D0FF1FE780E000970700209387DD
:10391C00A79D9C439387072417070020232EF79419
:10392C00170700200347E7920A07BA9717070020EA
:10393C002328F796EFF0EFCE5929970700209387AD
:10394C00A79394439707002083C79790139727005A
:10395C00369717F6FFFF1306265610C3138717006A
:10396C001377F70F0A07369717F6FFFF1306864EE5
:10397C0010C313873700890793F7F70F8A0797054A
:10398C000020A387E58CB69790C3B240410182809A
:10399C009707002083C7D78B170700200347678B37
:1039AC0063F3E702170700201307078D184393866C
:1039BC00170017060020A30DD6889396270036977C
:1039CC0008C33E8582809307F00FE5BF1C416384DA
:1039DC00071641777D8FB70600208947631ED714E1
:1039EC0003574500630A0714411122C419462A845F
:1039FC009305F00F610506C697D0FF1FE780000006
:103A0C0005478D476304E5121C4481CB58589947F0
:103A1C00630E0710185C630B071013060004814536
:103A2C00170500201305458897D0FF1FE78080EE0F
:103A3C0013060004A285170500201305E58697D010
:103A4C00FF1FE78000E69707002083D7A78617079C
:103A5C0000201307678599E793070010970600204D
:103A6C00239AF6849707002083C7E78491E785475C
:103A7C00970600202381F6849707002083D7C783FD
:103A8C0091E7ED47970600202398F68297070020D0
:103A9C0083C7778291E7954797060020A38DF68020
:103AAC009707002083C7678191E785479706002019
:103ABC002385F6809707002083C7378099E78347D3
:103ACC00F70097F6FF1FA38AF67E97F7FF1F83C7B1
:103ADC00F77E81CF93F637008983170600202303E6
:103AEC00D68097F6FF1FA38FF67E97F7FF1F83C72D
:103AFC00E77C91E7D54797F6FF1F2381F67C834738
:103B0C00640199E79307C00397F6FF1F2389F67AA0
:103B1C001C5791C7829797F7FF1F239FA772FD57DA
:103B2C0017070020A304F7A425338147B240224491
:103B3C003E854101828089473E85828001114EC6B7
:103B4C0097F9FF1F9389097B83A7090006CE22CC26
:103B5C0026CA4AC852C4829713090064B335250398
:103B6C0003DA89008146528633052503EF805165BF
:103B7C0097F7FF1F9387C76D804FAA840145630693
:103B8C00940233858440636E940003A549005286E9
:103B9C008146B335A9023305A902EF807162018D0C
:103BAC00269597F7FF1F23A1976CF2406244D244ED
:103BBC004249B249224A0561828097F7FF1F83D799
:103BCC00077451471D45637CF702794719456378A3
:103BDC00F7021307200315456373F7021307B004AC
:103BEC001145637EF700130740060D456379F70016
:103BFC001307600909456374F70013B5B70F82808A
:103C0C00011122CC06CE2A842EC6EFF00FB3B2459A
:103C1C00F240818D33A5A502229562441375F50FF0
:103C2C0005618280011122CC06CE2A842EC6EFF0CB
:103C3C00CFB0B245F240818D33A5A50222956244E6
:103C4C004205418105618280011122CC06CE2A8475
:103C5C002EC6EFF08FAEB245F240818D33B5A50282
:103C6C00229562440561828097F7FF1F9387C76393
:103C7C00985739CB411122C426C206C6BE8402977E
:103C8C0017F7FF1F0357475D2A8415CBBA87637359
:103C9C00A700AA87C207C183BA866373E400A28611
:103CAC00C206C182958F5147635BF700DC5491C308
:103CBC008297EFD0B00D97F7FF1F239F8758B24024
:103CCC002244924441018280828097F7FF1F23ADEA
:103CDC00076297F7FF1F9387275DDC57011106CE0C
:103CEC00AA8581C72AC68297B245C5C19C410545A4
:103CFC00D1CBDC41C1CB83D78500C9C783D7A50005
:103D0C00D1C3514617F5FF1F1305C55E97D0FF1F92
:103D1C00E78020B997F7FF1F2384075E97F7FF1FF3
:103D2C009387475D9C4317F7FF1F2329F75697F797
:103D3C00FF1F83C7D7588DE79307805717F5FF1FD1
:103D4C000355C55B3305F50237460F0013060624F1
:103D5C0081468145EF80D14697F7FF1FA381A75677
:103D6C0017F7FF1F0347B755A54763E7E700A947B8
:103D7C0017F7FF1FA305F75417050000130545DCC3
:103D8C0059340145F2400561828097F7FF1F23AF3C
:103D9C00074C97D7FF1F9387070517F7FF1F232B98
:103DAC00F7547D5797F7FF1F23A8E754B7873200C6
:103DBC00938727A197F6FF1F23A2F65497F7FF1FAF
:103DCC0023800754B7C7004023A4E72681BF011105
:103DDC0022CC17F4FF1F1304244D084406CE26CA28
:103DEC004AC801E90545F2406244D24442490561A2
:103DFC0082805C58E5DB185C75D77000854582972E
:103E0C001844B247E300F7FE9305E00417F5FF1FD3
:103E1C000355454A97D0FF1FE780606617F7FF1FD1
:103E2C002328A74461D117F6FF1F0356A648930514
:103E3C00F00F97D0FF1FE780E0AD814417F9FF1F0B
:103E4C001309094197F7FF1F83C7E74603260902A9
:103E5C0063C1F402328597D0FF1FE7806071014582
:103E6C0097F7FF1F23A6074097F7FF1F23A40740D0
:103E7C009DBF97F5FF1F83D5E543B3879502084493
:103E8C00185C898185043E9508C2029765BF0111B3
:103E9C0056C297FAFF1F938A2A4183A78A0022CC25
:103EAC004AC84EC606CE26CA52C45AC0AA892E8407
:103EBC0032896386072203A74A0363090714130791
:103ECC00F01F6367A71497F4FF1F9384643803AA49
:103EDC00040263170A0A9565938515E017F5FF1F11
:103EEC000355453D97D0FF1FE780605997F7FF1F9B
:103EFC0023A0A7382A86630B051083A74A0303A5C2
:103F0C008A0097F5FF1F83D5E53A8981829783A7AD
:103F1C008A0003AA040217F7FF1F232DF7348947E1
:103F2C00639CF908C1476313F40E97F5FF1F83D503
:103F3C006538938505FC9147B3C5F5028A05D29582
:103F4C0003C725009307A005631EF70A83D7050056
:103F5C00639A370B4A852286910597D0FF1FE7801D
:103F6C0040949C505285639347150145F24062443E
:103F7C00D2444249B249224A924A024B056182809C
:103F8C00D850E38EE7F89565938525E017F5FF1F6C
:103F9C000355453297D0FF1FE780604E2A8A3DC5F6
:103FAC002A8683A74A0303A58A0097F5FF1F83D5AA
:103FBC00653089818297A5B78D47639DF900C1470C
:103FCC006316F40497F5FF1F83D5C52E938545FD25
:103FDC00F199B5B79147639AF9006319340397F5D2
:103FEC00FF1F83D5252DA115E5B793070010639FFF
:103FFC00F900A14763EC870097F5FF1F83D5852B4C
:10400C00C115F9B79C5052856396470D2945B9BF28
:10401C001D6A568B6371450B130A05E01947334A29
:10402C00EA0217F7FF1F0357E72897FAFF1F938A37
:10403C002A22330AEA023E9A83A74A026395470171
:10404C0083A40A029DE49305E00417F5FF1F0355B2
:10405C00652697D0FF1FE7808042AA8445D9832725
:10406C004B0397F5FF1F83D5E5242A86898152855A
:10407C00829791451307A005898193972500A697F0
:10408C0083C627006393E60483D60700639C36033C
:10409C0085058A052286A6954A8597D0FF1FE7805D
:1040AC00408083A70A02E38297EC268597D0FF1FF6
:1040BC00E780004C5DBD21677917E369A7F4330AEB
:1040CC00454185B783C5370045BF83A70A02E38FF7
:1040DC0097F2268597D0FF1FE780804905BF97F799
:1040EC00FF1F9387E7168C5395D191479306A00534
:1040FC008983139727002E9703462700E318D6F0E1
:10410C0003560700631C360185078A072286BE9575
:10411C004A8597C0FF1FE780C07881BD8347370071
:10412C00C1BF97F7FF1F93872718984739C79C5F24
:10413C00A9C705476313E504411122C417F4FF1FF7
:10414C0013040411105006C60DC6485097F5FF1FF6
:10415C0083D5451689818297085097D0FF1FE78039
:10416C00204197F7FF1F23A5071097F7FF1F23A3E5
:10417C000710B2402244410182808280011117F75E
:10418C00FF1F130767124EC68329870022CC26CA4D
:10419C004AC806CE52C456C2AA842E843289638B76
:1041AC0009201C5FBA8A99EB2945F2406244D2443B
:1041BC004249B249224A924A056182805C5BEDD742
:1041CC009307F01F63EAA70E97F9FF1F938949081D
:1041DC0083A70902B1CB03A58A0083A74902639583
:1041EC00A70689476393F408C147E31FF4FA17F550
:1041FC00FF1F0355250C9147130505FC3345F502AC
:10420C009317250003A509022286CA853E959307BC
:10421C00A0052301F50023109500110597C0FF1F81
:10422C00E7802068014551B79305E00417F5FF1F9F
:10423C000355450897D0FF1FE780602497F7FF1FB1
:10424C0023A8A70249F98DB783A74A0303A609023D
:10425C0097F5FF1F83D505068981829783A78A006E
:10426C0017F7FF1F2328F700ADBF8D47639EF4009F
:10427C00C147E31BF4F217F5FF1F0355A503130504
:10428C0045FD9377C5FFBDBF9147639AF400E31DCD
:10429C0094F017F5FF1F0355E5012115DDB79307C2
:1042AC000010E393F4F0A147E3E087F017F5FF1F4C
:1042BC00035545004115F1B79D676379F5069307E2
:1042CC0005E01947B3C7E70217F7FF1F035787FE2F
:1042DC0017FAFF1F130ACAF7B387E702BE998327A1
:1042EC000A02A1CF83274A026399370703250A02E2
:1042FC0091461308A0059305F00F93D7260013974A
:10430C0027002A9703462700631F060783580700D8
:10431C000346370063959806B306D64063CF8604F0
:10432C0085078A072286CA853E95CDBD21677917F8
:10433C00E36CA7E6B307F54041BF9305E00417F51E
:10434C00FF1F035525F797D0FF1FE780401397F702
:10435C00FF1F23AFA7F059F581BD83A74A0303269E
:10436C000A0297F5FF1F83D5E5F489814E85829764
:10437C0097F7FF1F23A037F195BF2310B7009316B3
:10438C000601C1829DBFB385860017F6FF1F035639
:10439C0066F29105130606FCE368B6E013063400DA
:1043AC00719A1106B2962301070123109700A301FD
:1043BC00D700BDB797F7FF1F938787E99453BE8942
:1043CC00A9C203A5090291461308A0059305F00F95
:1043DC0093D72600139727002A97034627006318C4
:1043EC000605835807000346370063989800B30608
:1043FC00D640E3D786F22310B70093160601C1828C
:10440C00C1BF8357C70017F5FF1F0345C5EA9305C6
:10441C00E0043305F5024205418197D0FF1FE78088
:10442C00000697F7FF1F23A5A7E441FDB5BB17F6C0
:10443C00FF1F035626E897F5FF1F83C5C5E7B38515
:10444C00C502338686001106E3E0C5D681BF01455F
:10445C008280011106CE2EC6EF50E04B01C9B24549
:10446C00F2400355250005616F90D00CF240494590
:10447C0005618280A38801862388018623AC018490
:10448C0023AE018423A0018623A2018623AA0184E2
:10449C0023A8018497F7FF1F938747E993064038B9
:1044AC002391D702F1761307400B938606B823911C
:1044BC00E7002392D70211679D461306000593056A
:1044CC00000A1305007D2392E7002393D70241478E
:1044DC008546130810F82395E7002396E7002399E7
:1044EC00E700239AE700239BE700239CE700239433
:1044FC00E702239007002393B7002394B700239778
:10450C00C7002398C700239DA700239E0700239F65
:10451C000700239007022395D702239607032397BE
:10452C0007029308F007239807022392E7042393CA
:10453C00E704239FE7042390E7062391E7062392E1
:10454C00E706239917031307C01C239AD702239B52
:10455C00D702239C0702239D0702239E0702239F59
:10456C000702239007042391D7042394070423956F
:10457C0007042396D7042397C7042398C7042399C9
:10458C00A704239A0704239B0704239C0704239D59
:10459C00C704239EC7042393A706239407062395D9
:1045AC000706239607062397B7062398B706239981
:1045BC000706239AE7065147239DE7067D57239B61
:1045CC000706239C0706239ED706239F07062390E6
:1045DC0007092391E7088280011126CAAA84214584
:1045EC0022CC06CE2E8432C636C43AC2EFE0EFEAB5
:1045FC001DC9A24612473246930700FD2300F50061
:10460C009947A30095002301F5002303D500A303CC
:10461C00E5002312C500AA8522856244F240D244EB
:10462C0005616FE0EFF6F2406244D244056182808E
:10463C0023ACA184828023AEA184828023A0A18696
:10464C00828023A2A1868280011122CC4AC806CE88
:10465C0026CA2A890144B30489006368B400F24075
:10466C006244D2444249056182802EC6EFE0FF8C41
:10467C0093170501C183A183B2452380F4009307EE
:10468C00140093F7F70F850463F9B700CA97090470
:10469C002380A7001374F40F7DBF3E847DBFC167D8
:1046AC0017F5FF1F0355E5C6FD176304F50241110D
:1046BC0017F6FF1F034686DB9385818606C6EF50EF
:1046CC002003B240FD5717F7FF1F2314F7C4410115
:1046DC008280828009C925151375F50F1335850E57
:1046EC001345150082800145828023900500C9C6C0
:1046FC00797122D426D24ECE52CC5AC806D64AD084
:10470C0056CA5EC63684328AAE892A8B814463F3DC
:10471C004407B307940083C70700138914004209A8
:10472C00939A070193DA0A011359090163840A0465
:10473C00CA976341FA04B307240183CB07005E8553
:10474C00513F0DC99387FAFF2390F90063906B03D7
:10475C00130519002295B250225492540259F24971
:10476C00624AD24A424BB24B45618280D694C20413
:10477C00C18071BF0145C5B701458280411126C278
:10478C00AE8422C497F7FF1F23ACC7B897F7FF1F5F
:10479C0023A6B7B897F7FF1F23A0A7B82A844146D2
:1047AC009305F00F26854AC006C6054997C0FF1F22
:1047BC00E780C0246310250597F7FF1F938707B583
:1047CC00884BC145513541469305F00F228597C062
:1047DC00FF1FE780A022854463189502224497F7B7
:1047EC00FF1F9387A7B2B24092440249C847C14504
:1047FC00410199BD41468145268597C0FF1FE78041
:10480C00E01FE31225FD4DBF41468145228597C02F
:10481C00FF1FE780A01EE30395FCB24022449244A4
:10482C00024941018280411122C426C22E84AA84ED
:10483C0013060002814517F5FF1F130525AD06C6AB
:10484C0097C0FF1FE780000D97F7FF1FA38197AC60
:10485C0097F7FF1F238E87C0EF90C04F854719C174
:10486C0081474945B240224417F7FF1F2300F7AA9E
:10487C00924441018280814781CD19C98547631BD0
:10488C00F50083C7550093E707FCA382F500854725
:10489C003E85828089476317F50083C7550093F7DF
:1048AC00F703E5B70D478547E314E5FE03C755004D
:1048BC001377F70313670704A382E500D1BF814781
:1048CC008DC105C103C755009306000C85471377AE
:1048DC00070C6308D700930600048D476303D700C9
:1048EC0089473E858280411122C4005D06C626C2DE
:1048FC001DC8AA84085009C597D0FF1FE78040C780
:10490C00485009C597D0FF1FE78080C6085409C5D9
:10491C0097D0FF1FE780C0C5228597D0FF1FE78087
:10492C0020C523AC0402B24022449244410182804F
:10493C0009ED97F7FF1F83C7879D17F5FF1F130519
:10494C00659E81CB13858184828017F5FF1F13052B
:10495C00659D828017F5FF1F0345659B828097F745
:10496C00FF1F9387A79AC847828097F7FF1F9387EB
:10497C00E799884B828097F7FF1F93872799DC4B29
:10498C008843828097F7FF1F93874798D84B1C4327
:10499C0085071CC317F5FF1F034575979307F00F89
:1049AC006305F50091656FE02FF88280011122CC30
:1049BC0006CE2E8432C6EF50C0069147B245631F17
:1049CC00F500938741869C438DC303A30700630EB8
:1049DC00030022856244F240056102839387C185FE
:1049EC009C4381C703A34700DDB7F24062440545F1
:1049FC0005618280011122CC2A840355450006CE24
:104A0C0026CA4AC84EC6EF40F05F35C52A89834492
:104A1C0005008349C500C13D4A85EF50A03B0355B5
:104A2C004400EF40507B83C70187B1CB6399970457
:104A3C0083C511872685EFF0DFA119E12388018654
:104A4C0003554400EF40F07D9147631FF500035779
:104A5C00440097F7FF1F83D7C78B6317F700FD57E9
:104A6C0017F7FF1F2317F78AF2406244D2444249DA
:104A7C00B2490561828081499304F00F6DB79307A9
:104A8C00F00FE38FF4FA83466400035644000345A9
:104A9C0024004E87A685893665B779715EC6AA8BC8
:104AAC002E8552CC56CA5AC806D622D426D24AD003
:104ABC004ECEAE8A328B368AEF40D0547DC1045D27
:104ACC002A89E5C09C50614599C3130540039C5449
:104ADC0081C751054205418163050A0071054205F4
:104AEC004181DC5081C75D0542054181EFE0EF9AC1
:104AFC002A8445C96146814597C0FF1FE78080E144
:104B0C0097F9FF1F83C989856394090083490900BC
:104B1C00930700FD2300F400A947A30074012301AF
:104B2C00F400230364018C502312540113058401F7
:104B3C0091C908C47146930A440397C0FF1FE780CC
:104B4C0040D656858C5491C948C45146930A4501A8
:104B5C0097C0FF1FE780E0D45685630C0A0008C895
:104B6C007146D285930AC50197C0FF1FE78060D3B9
:104B7C005685CC5099C548C85D4697C0FF1FE78045
:104B8C0040D2A2854E85EFE0AFA02254B250925491
:104B9C00F249624AD24A424BB24B4A8502594561AC
:104BAC0099B3B250225492540259F249624AD24AF1
:104BBC00424BB24B4561828001114EC6AA892E85AB
:104BCC004AC806CE22CC26CA2E89EF40B04321C952
:104BDC0097E4FF1F83C4847899E08344050019454A
:104BEC00EFE0AF8B2A8405CD8145194697C0FF1F96
:104BFC00E78040D2930700FD2300F400B947A300DF
:104C0C0034012301F40023122401A2856244F240F2
:104C1C004249B2492685D24405616FE06F97F24054
:104C2C006244D2444249B2490561828039715ECEF8
:104C3C00AA8B2E8526DA4ED652D456D25AD006DE00
:104C4C0022DC4AD8AE84328BB68A3A8ABE8942C6F6
:104C5C00EF40503B21CD2A894145EFE00F842A8457
:104C6C0031C54146814597C0FF1FE780A0CA17E5B3
:104C7C00FF1F0345A56E19E103450900930700FDCD
:104C8C002300F400BD472301F400B247A3007401D4
:104C9C002312940023046401A3045401230544014A
:104CAC00A30534015CC4A285EFE08F8EF2506254F0
:104CBC00D2544259B259225A925A025BF24B216198
:104CCC008280797126D2AA8439454AD04ECE06D636
:104CDC0022D42EC6B2893689EFD03FFC21C1B24511
:104CEC009307000D2310F500B1472A842312B50059
:104CFC002301F500CE851905194697C0FF1FE780E3
:104D0C0040BA23062401A2852254B2500259F2491A
:104D1C0013F5F40F925445616FE08F87B250225413
:104D2C0092540259F2494561828017E7FF1F0347ED
:104D3C00175E9307F00F630DF706411126C2AA8484
:104D4C00394522C406C64AC0EFD03FF52A8439C97A
:104D5C00930700FD2300F500A30095002301050037
:104D6C0097E5FF1F9385055C0D05194697C0FF1F3E
:104D7C00E78020B317E9FF1F1309495983578900AE
:104D8C00A28517E5FF1F034595582315F4008347AB
:104D9C0019002306F4002244B24092440249410116
:104DAC006FD01FFFB24022449244024941018280DD
:104DBC00828001115AC02A8B314526CA4EC652C474
:104DCC0056C206CE22CC4AC8AE84B28A368ABA897A
:104DDC00EFD0BFEC35CD2A842685EF40B02211C52B
:104DEC000347C500A1476314F70417E9FF1F0349E4
:104DFC001952930700FD2300F4009D47A3006401A2
:104E0C002301F400231294002313540123144401AE
:104E1C0023153401A2856244F240D244B249224A9D
:104E2C00924A024B4A85424905616FD07FF617E9D9
:104E3C00FF1F0349F963E31E0BFA9387418E9C43D2
:104E4C009C47C5DBCE865286D6852685829755B77C
:104E5C00F2406244D2444249B249224A924A024B3D
:104E6C0005618280011122CC2A84214506CE2EC6F2
:104E7C00EFD0BFE221C1B245930700FD2300F5003E
:104E8C00C5472301F50083C73500A301F50083D77F
:104E9C0045002312F50083C765002303F50083C783
:104EAC007500AA85A303F50022856244F2400561D2
:104EBC006FD01FEEF240624405618280397162CC82
:104ECC002A8C594526DA4AD84ED652D456D25AD0C4
:104EDC005ECE06DE22DCAE8432C636C4BA8B3E8B86
:104EEC00C28A468A8359010403494104EFD0FFDA90
:104EFC0025C93246930700FDA2462300F5009547CD
:104F0C00A301C500A30085012301F5002A841946DD
:104F1C001105A9C2B68597C0FF1FE78080982306AC
:104F2C006401230A24012315740123175401231847
:104F3C00440123193401A2856254F2504259B259EA
:104F4C00225A925A025BF24B624C2685D254216152
:104F5C006FD01FE4814597C0FF1FE780A09BC1B7AE
:104F6C00F2506254D2544259B259225A925A025BAC
:104F7C00F24B624C2161828097E7FF1F83C7273970
:104F8C008DCB4111AA8519461385818406C697C01D
:104F9C00FF1FE78000919385818417E5FF1F034570
:104FAC000537EFF05F8DB2401385818441016F802E
:104FBC00F05A0145828017E7FF1F034757359307C7
:104FCC00F00F6305F708411126C2AA84294522C4B3
:104FDC0006C6EFD09FCC2A8429C1930700FD23007D
:104FEC00F500A1472301F500A300950097E7FF1FEB
:104FFC009387C73183C72700938581841105A30F3D
:10500C00F5FE194697C0FF1FE780A089A28517E51A
:10501C00FF1F0345D52FEFD0BFD717E7FF1F03475F
:10502C00072F8D47631FF700938701869C4391CB15
:10503C0003A38700630703002244B240924441015A
:10504C000283B240224492444101828017E7FF1F41
:10505C000347E72B8D47631AF700938701869C4320
:10506C0089C703A38700E31D03FC8280797122D4D6
:10507C0006D626D24AD04ECE52CC094455CD2A89DA
:10508C00035505002E8A5144EF40C077AA844DC5C4
:10509C0097E7FF1F83C7C73DFD1793F7F70F05472A
:1050AC004944637BF7080347C500A1476314F70025
:1050BC0063140A089C5C4544C1E391659385457172
:1050CC001305C00297C0FF1FE780603B88DCAA89EC
:1050DC004D443DC11306C002814597C0FF1FE780B8
:1050EC006083835709009386490036852391F90024
:1050FC0071469305490036C697B0FF1FE780607A6A
:10510C0089472380F90003C5C400B2460356090041
:10511C00611597E5FF1F83C5653513351500EF50F5
:10512C00D0112A8463060A00D2852685EF40707A56
:10513C0001C42685EFF02FFB2285B25022549254E5
:10514C000259F249624A4561828097E7FF1F83C783
:10515C002732FD1793F7F70F05476378F708894750
:10516C0051C6011122CC26CA4AC84EC652C406CE1C
:10517C00AA89368AB2842E89EF40C0682A84D14726
:10518C0029C9485509C597C0FF1FE780603EF14506
:10519C002685EFD0BFE148D4CD4705CD8346C4006A
:1051AC0021478147639FE600630D0A000347A50171
:1051BC000356050193062501AA854E85EF403079EB
:1051CC00AA8703474400630F090013676700230293
:1051DC00E400F2406244D2444249B249224A3E853C
:1051EC000561828013674700DDB7C9473E85828021
:1051FC009307000463EBA70097E7FF1F9387071340
:10520C0006053E9503550500828041657D1582801B
:10521C00011122CC2A842E8526CA06CEAE84EF40FC
:10522C00605E1DCDB7470F009387F723094563E4F4
:10523C00870281450A85414697B0FF1FE780806D44
:10524C00A685231081000A85418023018100A301DA
:10525C000100EF50206AF2406244D2440561828022
:10526C004945D5BF97E7FF1F2383A72082806F5046
:10527C00E076797152CC2A8A328522D426D24AD051
:10528C004ECE56CA5AC85EC606D662C4AE8BB28A19
:10529C00368BBA843E89C2894684EF40A05615C924
:1052AC002A8C63140A0213774B008347450015CFF1
:1052BC0093E727012302FC008DEC631C0902639A1F
:1052CC00090205E8ED9B2302FC00832B8C03639FF2
:1052DC000B06B250225492540259F249624AD24AF5
:1052EC00424BB24B224C45618280F59B93E7070100
:1052FC00D1B793E747002302FC0001CC1C48414680
:10530C00A2852324FC0213058C0197B0FF1FE780B4
:10531C00405963910B02D5D80325CC0209C597C01F
:10532C00FF1FE780E024F1452685EFD03FC82326F8
:10533C00AC0261BFE30B09F80325CC0209C597C089
:10534C00FF1FE780E022F1454A85C5B79DC483A7BE
:10535C000B0299EB916593853571714597C0FF1FD1
:10536C00E780E01123A0AB0203A50B0219C571461F
:10537C00A68597B0FF1FE780C0526388090283A7F8
:10538C004B0299EB9165938525715D4597C0FF1F85
:10539C00E780E00E23A2AB0203A54B0219C55D46C4
:1053AC00CE8597B0FF1FE780C04F1DC483A78B022B
:1053BC0099EB916593851571514597C0FF1FE78057
:1053CC00000C23A4AB0203A58B0219C55146A28580
:1053DC0097B0FF1FE780E04C2254B2509254F24930
:1053EC00B24B224CCA865A860259424BD6855285FC
:1053FC00D24A624A45616FF04FEA011126CA52C483
:10540C0006CE22CC4AC84EC62A8AAE84EF40803FD4
:10541C0025C5AA893945EFD05F882A8431CD17E993
:10542C00FF1F0349A9F36314090003C9090093077B
:10543C00000D2310F400AD472301F400938569009F
:10544C0013053400194697B0FF1FE780804593F78A
:10545C001400858085882306F400A3069400231588
:10546C004401A2856244F240D244B249224A4A85A0
:10547C00424905616FD0DF91F2406244D244424907
:10548C00B249224A0561828001114EC652C456C2ED
:10549C0006CE22CC26CA4AC8AA8A2E8AB289EF40E6
:1054AC0060362DCD2A891305C002EFD00FFF2A8458
:1054BC0035C597E4FF1F83C464EA99E0834409006F
:1054CC009307000D2310F400E9472301F400930522
:1054DC00690013053400194697B0FF1FE780603C44
:1054EC00D285231554011305C400414697B0FF1F04
:1054FC00E780203BCE851305C401414697B0FF1FC2
:10550C00E780203AA2856244F2404249B249224ADD
:10551C00924A2685D24405616FD09F87F24062443F
:10552C00D2444249B249224A924A05618280938709
:10553C000185884301CD411106C697C0FF1FE78046
:10554C002003B24023A80184410182808280011192
:10555C0006CE22CC26CA4AC82EC6EF40A02A39CD88
:10556C00B24517E9FF1F034969DFAA840CD5631400
:10557C000900034905004145EFD02FF22A841DCDC7
:10558C009307000D2310F500A5472301F50083C7F1
:10559C005400938564001105A30FF5FE194697B0CE
:1055AC00FF1FE78000309C54A285F2405CC462442B
:1055BC00D2444A85424905616FD08FFDF240624466
:1055CC00D244424905618280797122D406D62A845C
:1055DC002EC6EF40202301CDB2452285230EB1000B
:1055EC006C08EF40902BB25022544561828051459B
:1055FC00DDBF6F40C037C1671387E7FF6394E502D7
:10560C009387C1859C4391EB494582804945B240C3
:10561C002244924402494101828003A30700E3051E
:10562C0003FE0283411122C426C24AC006C6FD17DE
:10563C002A892E84B2846395F5029387C1859C4395
:10564C0091CB9C4381CB829711E523882187A3883A
:10565C00918675BFA6854A85EFE0BFDF4DF9F5B79A
:10566C002E85EF40201A5DD1834705000D45E39050
:10567C0027FB22852244B2400249A685924441016F
:10568C006F80406B9307000463E2A7064111C1676A
:10569C0022C406C626C2FD172A8409456382F50278
:1056AC00C547AE846313F4022E85EF80A06F17E517
:1056BC00FF1F1305A5C706042A9423109400014567
:1056CC00B24022449244410182809307A0036316A6
:1056DC00F4002E85EF808066D9BF9307B003E318E2
:1056EC00F4FC13F5F50FEF80A065D1B70945828066
:1056FC00411106C622C42A84EFE0DFD7EF20000256
:10570C00EF10A06FEF10B107814517E5FF1F1305D0
:10571C00E5BF1306000297B0FF1FE780A01F97E7B5
:10572C00FF1F9387A7BE130700F02391E700238286
:10573C0007007D5797E7FF1F938747D32381E70027
:10574C002380870022852244B240954541016F2079
:10575C00101E597193970501CAD086D6A2D4A6D231
:10576C00CECED2CCD6CADAC8DEC6E2C4E6C2EAC015
:10577C006EDEC1872E8963D1075A17E5FF1F0345DB
:10578C00E5CEEFD08FD88964416A856A797B2A840B
:10579C00938BD4007D1AA50A130CABFF1DE0216579
:1057AC003345A900B650265496540659F649664A14
:1057BC00D64A464BB64B264C964C064DF25D65616F
:1057CC008280834704001307200A639DE70003557A
:1057DC00240097E9FF1F83C999B32286D285EFF085
:1057EC00EF9C59A21307100997E9FF1F83C929C819
:1057FC006398E7188347140015476390E7022285E6
:10580C00EFF04F9F2285EFD02FC417E5FF1F034504
:10581C00E5C5EFD08FCF2A8451B73947639BE71882
:10582C0003554400631B55050C4483CC0500639D54
:10583C000C00850591C9194617E5FF1F130585AEA8
:10584C0097B0FF1FE780E00517E7FF1F034707AC82
:10585C0085476317F712638A0C0097E7FF1F2387AE
:10586C0007AA6685EFF06FCC71BF894717E7FF1F5A
:10587C00230EF7A8EF80404E71B793872400631A6C
:10588C00F506832C8400638D0C0E83C70C008DE30E
:10589C0083C72C0003C71C00A207D98F17E7FF1F73
:1058AC00231AF7A683C73C0017E7FF1FA300F7A630
:1058BC0017E7FF1F034787A589476313F70C83C7B7
:1058CC000C0081CB97E7FF1F238207A403C50C00B4
:1058DC0051BF8D4797E5FF1F83C555A317E5FF1FE4
:1058EC00035545A317E7FF1F2302F7A2EF2030074C
:1058FC00F1BF938754006318F5001C4403C50700DF
:10590C00EFF06FEB01B7B3078501C207C1831147F5
:10591C006372F7049307ABFCAA97139707014183B3
:10592C00F14763F1E7029387B4006312F5049387A0
:10593C0081859C43E38807EC9C43A285E38407ECB8
:10594C0082971DA0B70700189387F770B3D7E700AD
:10595C00858BB9CB938701869C43E38507EA9C43EF
:10596C00E38207EA22858297E31E05E811A8938754
:10597C00C4006310F5021C4483C70700E38407E8E6
:10598C009307F00FE380F9E8A2854E85EFD04FC066
:10599C00ADBD9387E4006319F5009387C1859C43E3
:1059AC00E38207E6DC4351BF93871404E301F5F867
:1059BC00C1BF3D476397E70403554400E30F75FDF2
:1059CC0093879401E30BF5FC93873401E31AF5FA02
:1059DC0097E7FF1F83D7E793639E47019387C185A2
:1059EC009C43E38107E2DC43E38E07E0A285138549
:1059FC003401B9B7938741869C43E38507E09C4308
:105A0C00E5B71307E003E39DE7F68347240005475A
:105A1C006397E70E83476400938D0185F1E383A7B9
:105A2C000D00D5CB83CC0700A14903457400130DA1
:105A3C008400EA85EFE0BFE883474401A303A40098
:105A4C00835804010358E400035744002A86034595
:105A5C0034003EC283572401EA86E6853EC0CE87D9
:105A6C00EFF0CFC58347340095E7DD478358040139
:105A7C000358E40083467400835544003EC28357A8
:105A8C0024016A8705463EC06685CE87EF40000C30
:105A9C00A301A40083A70D0081C71145EFF03FA916
:105AAC0003C50187E30005D683C51187EFE07F9A14
:105ABC00E30A05D48346340093071003638AF60087
:105ACC00035644004E8783C501873685EFE0DFB06F
