:040000006F10507CB1
:10000400000000000000000090000020C202002058
:10001400A9BDF9F5780300200000000000000000ED
:100024007803002090000020000000000000000081
:10003400900000200000000090000020000000005C
:1000440090000020900000209000002090000020EC
:1000540090000020240800209000002000000000F0
:1000640090000020900000209000002090000020CC
:10007400DE0300209000002090000020900000206B
:1000840090000020900000209000002090000020AC
:1000940001A04111B7170040985F3AC6945F3247F8
:1000A400E39CE6FE324541018280B7F70700011167
:1000B400944B13078008F337078093F787083EC2F1
:1000C4000F100000B71700401308700523800705C0
:1000D400930580FA2380B7040F10000003C6B70409
:1000E4001376F60DA385C7042380070412467326EE
:1000F40006800F1000001376050255CEF3360780F4
:1001040093F6860836C40F10000023800705238069
:10011400B7040F100000B70614007D89558D88C7F9
:10012400010001000100010023800704A246F3A698
:1001340006800F10000073370780137787083AC6CC
:100144000F100000238007052380B7040F10000060
:100154000F1000003727004093061005A303D78033
:1001640023800704B247F3A707800F10000093070A
:100174008008F3B7078093F787083ECE0F1000007E
:10018400B7170040130770052380E704130780FAAC
:100194002380E7040F10000003C7B70413670708A0
:1001A400A385E70423800704F247F3A707800F1011
:1001B4000000056182801376050459C273360780F6
:1001C4001376860832C80F100000238007052380A9
:1001D400B7040F10000037061400130606047D89C7
:1001E400518D88C70100010001000100238007042C
:1001F4004246732606800F1000007337078013777A
:1002040087083ACA0F100000238007052380B7042B
:100214000F100000A54793F6F60F639EF600B7276C
:10022400004013073005A383E780B71700402380FD
:100234000704D2470DBFB727004013072005E5B7D1
:1002440073370780137787083ACC0F100000238098
:1002540007052380B7040F10000098471367070CA5
:1002640098C723800704E247FDBD0111814601467A
:100274008145114506CE912493078008F3B7078082
:1002840093F787083EC60F100000B7170040130706
:1002940070052380E704130780FA2380E7040F1016
:1002A400000003C76704136717002383E704238050
:1002B4000704B247F3A707800F100000F24005615E
:1002C400828041118146014681451145FD22130773
:1002D4008008F337078093F787083EC40F100000A7
:1002E400B7170040130670052380C704930680FAED
:1002F4002380D7040F100000FD552396B7022380F6
:100304000704A245F3A505800F100000733707808A
:10031400137787083AC60F1000002380C704238090
:10032400D7040F10000003C7670413671700238363
:10033400E70423800704B247F3A707800F100000E7
:1003440001A0BD473305F50201007D1575FD8280CE
:10035400411122C426C206C6AA840144631794002C
:10036400B240224492444101828005041305803E38
:100374004204C13F4180DDB79305000273A045806C
:1003840082457390153492402242B2424243D24392
:100394006244F244025592552256B2564257D257FD
:1003A4006258F25806499649264AB64A464BD64BF5
:1003B400664CF64C065D965D265EB65E465FD65F7D
:1003C4000961730020304111B7170040985F3AC6A5
:1003D400945F3247E39CE6FE324541018280B717C1
:1003E4000040130700032388E702854723A2F1880E
:1003F40073002030411106C6EF00007FF5BF2303D0
:10040400048015472303E48001002302A480828032
:1004140083076480E3CE07FE23030480828083077E
:100424006480E3CE07FE03454480828083076480B2
:10043400E3CE07FE2302A4808280411126C44AC26F
:100444004EC006C61377F50BAD47AA892E8995448D
:100454006306F70019456537653F8D444E8545377A
:10046400FD59FD1463983401B240A24412498249F3
:1004740041018280135509011375F50F453F220987
:10048400CDB7011126CC06CEB70408005137154567
:10049400BD37713769372AC6A53F324593771500B2
:1004A40089EB136515001375F50FF240E2440561FD
:1004B4008280FD14E9FC0145CDBF397126DC4ADA9E
:1004C4004ED852D656D45AD25ED006DE62CE66CC10
:1004D400B7E700E07D5783AA070022C603AA4700B6
:1004E40023A0E71823A2E718B717004013077005E5
:1004F4002380E704130780FA2380E70483C74704B3
:10050400930B75FFB684E20793FBFB0F8546AA891C
:100514002E8B328937240040E187015763FA760134
:100524006308D5008946130700026313D5000157F9
:10053400D98F93F7F70FB71C00402382FC041147AF
:100544002303E4801305F00F5D3D094CD135636D41
:100554007C11B7050700DA9537870700795563F2F0
:10056400E504B3879500636EF702370B0800A947CB
:1005740033EB65016399F90689E48144513D26858D
:100584000DA0DA850945553D05090345F9FFFD141C
:10059400050B693D81C49377FB0FFDF7DD3569FDDC
:1005A4007D55B7170040130770052380E704130730
:1005B40080FA2380E70403C74704418B2382E704BE
:1005C400F250B7E700E023A0571123A24711E254E9
:1005D40032445259C259325AA25A125B825B724C4B
:1005E400E24C21618280A5476395F9068569130968
:1005F400F00FB3069900B3742B01B6941349F9FFB5
:10060400B3749900856B33796901416B9387F9FF62
:10061400B3F7270199E363FC340193D94900C14737
:10062400E3E637FF99BF0569C1697D19D9B7130599
:10063400800D638869011305000263847901130541
:100644001008CA85DD3B353D21DD4E99B384344124
:10065400D9B7DA852D45D533CA94E30099F2050953
:100664007D3BA30FA9FED5BF9387F9FF93F7F70F3F
:100674006361FC0C83C71C0413073008631FF70471
:1006840037070800636BEB04B3079B00B706100041
:1006940063F5D704334BEB0089476393F9068980EC
:1006A400D549E38C04ECDA850945413B110903275C
:1006B400C9FF91472320E48003076480E34E07FECB
:1006C40023033481FD17EDFBFD14110B81C49377D3
:1006D400FB0FE9FF7D3371F5E1B5B717004003C7A0
:1006E4005704B70708001377070219E3B787070011
:1006F4007955E378FBEA33079B00E3FFE7F855B548
:100704008547E382F9F2DA852D45053B9389F4FFA9
:10071400E38504E6293393F7390091EB83260480BB
:100724000327090093074900E39AE6E43E89CE844F
:10073400F1BFB5476396F9001305900BC93135BD78
:10074400B1471305B00AE38BF9FE99476391F904A5
:10075400B7050800B365BB002D45C53181448D4BF9
:10076400A149753963967401832704802320F90015
:100774008504E39834FF8327048013172B01635502
:1007840007002312F900D5BB2322F900FDB39D47CE
:100794006399F90281451305B0044531BD44232012
:1007A400090023220900FD599D3993F77400CA9763
:1007B40003C70700FD14398D2380A700E39634FF97
:1007C4006DBBA1476392F9046D398144630D0B003D
:1007D4008D479304C0036308FB009304000563047E
:1007E4008B01930440041375C507E30895D8194594
:1007F400393139390545213126850D3909453D31D0
:100804004931E31C05D669BB91476399F900130587
:100814006006F536F53E130590090DB7E38F09D44C
:10082400F154A9BB197106C212C416C61AC81ECA4D
:1008340022CC26CE2AD02ED232D436D63AD83EDA9C
:1008440042DC46DECAC0CEC2D2C4D6C6DAC8DECACC
:10085400E2CCE6CEEAD0EED2F2D4F6D6FAD8FEDA7C
:100864009385C1878841E700050092402242B24245
:100874004243D2436244F244025592552256B25640
:100884004257D2576258F25806499649264AB64A00
:10089400464BD64B664CF64C065D965D265EB65EC0
:1008A400465FD65F096173002030B7E700E09843E4
:1008B400B706200023A0D718758F0F10000001C5BC
:1008C40099C1814711E6B7E700E023A0E7108280D1
:1008D400B386F50003C80600B306F5008507238038
:1008E4000601E317F6FEC5B737E700E01C43B70679
:1008F40020002320D718F58F0F10000019C191C1D3
:1009040011E637E700E02320F7108280910503A762
:10091400C5FF11057D16232EE5FEDDB737E700E0A0
:100924001C43B70620002320D718F58F0F100000B2
:1009340001C53307C50011E637E700E02320F710AF
:1009440082800505A30FB5FEE31DE5FEF5B7B7E705
:1009540000E09843B706200023A0D718758F0F1026
:1009640000008147B306F5008386060099E6B7E6E2
:1009740000E023A0E6103E8582808507E5B737E7CF
:1009840000E01C43B70620002320D718F58F0F1072
:10099400000001C599C1014711EA37E700E02320AF
:1009A400F710054582800507E309E6FE3308E500F4
:1009B400B386E5000348080083C60600E305D8FEB5
:1009C40037E700E02320F7100145828037E700E095
:1009D4001C43B70620002320D718F58F0F10000002
:1009E4001307F6FFBA952A966317C50037E700E0A8
:1009F4002320F7108280FD1503C715000505A30FFA
:100A0400E5FEDDB737E700E01C43B70620002320EE
:100A1400D718F58F0F10000001C53307C50019E67C
:100A240037E700E02320F71001458280050583465F
:100A3400F5FFE397B6FEE31BE5FE37E700E023206E
:100A4400F7100545828079719737000093878737BF
:100A540022D4804306D626D24AD04ECE52CC56CA91
:100A64005AC85EC669C037C9C901014B973900002D
:100A74009389C9341309F937173A0000130ACA34A1
:100A8400973A0000938ACA2E9734000093848438DE
:100A94008357240095E35C44631D0B001737000063
:100AA4002322F732832BC4002285EF00F0225E84D8
:100AB400A9A82326FB00FDB783A7090082971C443D
:100AC4003307F5406375F500D8401D8F2A9763619D
:100AD400E9089737000023A5072A83552400034516
:100AE4000400973000E0E780606D5C405844B9C76B
:100AF4000C44D040AE97BE8663E4B70063E4C700FD
:100B0400B386C74014C4228B3A8459F09737000047
:100B1400938707269C4B09476373F708F917173720
:100B24000000232FF724B250225492540259F24960
:100B3400624AD24A424BB24B4561828063170B0032
:100B44009737000023A0E728B1BF2326EB0099BF05
:100B540003274A021DCF63E1A7043385A7408347D7
:100B6400040085E317370000034777275917B307B5
:100B7400A7003E85D44063E4E70063E4D7003385EF
:100B8400D74083A70A016376F5009737000023A9AD
:100B9400A71E228B404495BFD840BA977DBF973794
:100BA400000023AF071C41B797370000938707263F
:100BB4009C4385C3411106C682979737000083C7BB
:100BC400C71F89E79737000023A20724B2404101D9
:100BD40082809737000083C7471E91E7973700004C
:100BE40023A6072282808280411122C41734000088
:100BF4001304C41A1C4006C626C24AC091C7829771
:100C04009737000023AC07189737000083C7D739FC
:100C1400858B173900001309E93889CF8347790098
:100C240019476312F71097370000A38F07363D2347
:100C34005C4482971C4491C3829797340000938448
:100C44002418984017360000034696129737000080
:100C540083C7071293961700BA9683D60600E5C297
:100C64009737000083C7C71063E5C70E97370000A6
:100C7400238007101C40639E071497370000938756
:100C8400E7139C43638707149737000093878718FB
:100C9400DC43173700002325F70E75339737000020
:100CA40083C7F730639707129737000083C717305D
:100CB40091CF8347790093F7F70F89EB97370000BB
:100CC400A386072E974001E0E780C0B49737000061
:100CD4009387870FDC53638E070E97370000938743
:100CE40027099C4BFDC78347790015476363F70EBB
:100CF4009737000083C78730918BE1EF9737000067
:100D040083C7A70BF9E790409736000083C65606C1
:100D140063C7D70C2244B2409244024941011743AD
:100D240000E0670043AB834779001D47E314F7F005
:100D340097370000A38A072615211C48DDBD8507C7
:100D440093F7F70F973600002384F602E3E0C7F029
:100D540001BF86073E978355070023100700973786
:100D64000000239B0704973700009387E7029C4306
:100D7400173500000345C5FF13172500BA979C4398
:100D840082979737000083D727031737000003475C
:100D940027FE93C7F7FF7D8D9317170098403E9762
:100DA400835707005D8D2310A7009737000083C782
:100DB40027FC91C7850717370000230BF7FA17376D
:100DC40000000347E7FA9737000083C777FAE37F09
:100DD400F7E8B240224492440249410182801397C9
:100DE40017003297035707006DF7850715B737C704
:100DF40000408326C720B707FCFFFD17F58F232685
:100E0400F7200100010097370000938767F6C84F69
:100E1400832787262326D7206A0593C7F7FF99835C
:100E24005D8D82800111973700009387272922CC9A
:100E340003A4070C26CA06CE2AC42EC6854419E488
:100E44000145F2406244D2440561828083479100A7
:100E540003471400858B6304F7000044CDB719469B
:100E64009305A10013052400193EE31895FE0545DA
:100E7400C9BF0000EFF05FD3730000000000000062
:100E840097320000938262F30383020023800200FE
:100E9400630F0300F32510342EC0970500009385DB
:100EA400A5FD73901534EF00204E7300203086DCCE
:100EB400EF00804DE65082800000173700001307D2
:100EC400270E1443411122C49C5E4AC006C699836E
:100ED40026C2858B3A84173900001309290CD1CB1B
:100EE400930700069CDE173700000347070C93079F
:100EF4000008973400009384E40A631BF7008327F7
:100F040009009C4393F7070417370000230FF708E1
:100F140083C7040093F707049DC3973700009387A2
:100F2400E7E99C4382979737000023ABA70883C760
:100F3400040093F7F70B173700002305F70683C760
:100F4400440093F7070495E7854717370000A30D7E
:100F5400F70497370000938767079C43370702001D
:100F640098C7130700FC97360000238FE6029848C1
:100F7400F8D318401C5F9183858B8DC31C5F93E766
:100F840007011CDF97370000938747049C4323A283
:100F940007068547173700002308F7008327090051
:100FA400D8430583058B19C7D843759BD8C3D84349
:100FB400799BD8C3B24022449244024941018280C1
:100FC400ED3D730020309317D50063D307029737A4
:100FD40000009387A7FF9C437D57B8D7973700003D
:100FE400938707D9DC4F8507173700002320F7DAEA
:100FF400937785009DCB9737000083C7C7FA93E7A3
:101004001700173700002300F7FA930700F8173783
:101014000000230BF7F897370000938767F898438D
:101024005C57F19B93E717005CD7937715008DC746
:101034009737000083C717F793E7170017370000A7
:10104400A302F7F697370000938787F598435C5718
:10105400F19B93E717005CD79377650095CB937763
:101064004500173700001307E7F3CDCB834707008C
:1010740093E71700173700002306F7F297370000AD
:10108400938707F298435C57F19B93E717005CD76B
:101094009317F50063D40702173700000347870945
:1010A400418B973700009387670151C383C7870734
:1010B40093E7070217370000230EF7069317E5009E
:1010C40063D707029737000083C707EEE207E1877B
:1010D40063D707008547173700002307F7EC9737D6
:1010E40000009387A7EE9C433707020098C7931725
:1010F400C50063D40702173700000347B703058B05
:1011040097370000938787FB29C383C7970793E723
:10111400270017370000A30FF700828083473700AA
:1011240093E7170017370000A30FF7E681BF03C743
:10113400870789463D8B6308D70083C787070D4718
:10114400BD8BE39DE7F69147B5B703C79707118BAE
:1011540069D783C7970793E7870065BF9737000070
:101164009387C7E69443973700009387A7E303C7A1
:101174000700058B11CB97370000238707E29737C9
:101184000000A38307E2828003C71700058B65F77D
:10119400F85271FF83C75700DDB7173700001307F4
:1011A40027E003280700832788039583858BADEF09
:1011B40011C683270803BD832300F6009DC61C4384
:1011C400985B4607935767016356070093E707C088
:1011D400C207C18303970600C207C18709C7BA972C
:1011E4000947B3C7E7022390F6008DCD8345150068
:1011F40095C99737000083C747DB93F70704138724
:101204009500894585C33A95834705000547994567
:1012140093F6F7066398E600E207E187814563D316
:101224000700B9452E8582808545EDBF411126C250
:1012340006C622C497340000938444D93DED9440FB
:10124400AE87F8527DFF37F400E03E859737000003
:10125400238B07D4832704D1B285ED9B2328F4D0B4
:10126400832704D193E787022328F4D07300501016
:10127400973001E0E780604197370000938747D2B9
:101284009C43B70680009843558F98C3D857719BE9
:10129400D8D797370000A38907D097370000A383D6
:1012A40007D09C40094798C3832704D193E787005C
:1012B4002328F4D0730050100DA08D476315F50456
:1012C400973700009387C7CD9C43B70680009843A7
:1012D400558F98C3D857719BD8D7944017370000BF
:1012E400130747CC83472700858B89EB8347370057
:1012F400858BC1CB97370000238807CAB2402244AC
:101304009244410182808547E319F5FCB7F700E078
:1013140003A707D16D9B23A8E7D003A707D11367C1
:10132400870223A8E7D07300501098408177FD17F7
:101334005447F58F5CC70F1000009840B7070200B0
:101344001CC7930700F817360000230FF6C497371D
:1013540000009387E7C49C439C439D83858B639FD4
:10136400A700930760197CD354C737F700E083279D
:1013740007D193E787002328F7D02DBF9307E01BFD
:10138400DDB7FC52A5F39DBF97370000938707C4D0
:101394009C438847D847798D09C988C79387C192E8
:1013A40003A30700630303000283828097370000CE
:1013B4009387C7C198438967938707F47CD397378A
:1013C40000009387E7C59C4383A60709139656003C
:1013D4006358060083A60709139666006344060053
:1013E4007453FDF282804111B7E700E022C48043C8
:1013F4003707200006C6798C23A0E7180F100000D9
:1014040011C199E5B7E700E023A0871001457DA845
:1014140093073500C207C183F19BC207C183130739
:1014240040036369F702173700001307A7C808438E
:1014340017370000130787C714436392A6021737B0
:10144400000013076798185B55DFC207DD8D05455B
:1014540002974DBF17370000130787C5C9BF03574D
:1014640065002DEB035745006366F706B306F740A6
:101474002146637CD60203280500938687001D8FCE
:10148400AA966117173600000356E68E2392E600EB
:1014940023A006012393060014C12312F5001307A9
:1014A40086FF973600002398E68C2313B500973502
:1014B400000083D5458CB387F54017370000231C03
:1014C400F78AB7E700E023A087102105B240224441
:1014D40041018280084195B7B7E700E08C433707A4
:1014E400200023A0E718F98D0F10000001E523A0C8
:1014F400B7108280973700009387C7BB03A3070008
:1015040097370000938787BA83A8070081469A8794
:1015140063F2170D03A807006361F50C636FA80A53
:10152400138787006368E50A03D667002167050708
:101534006317E60003C7419205072382E19217353A
:1015440000001305E58203D6470003576500239383
:101554000700329742074183173E0000231DEE80A7
:10156400638C670217330000130383B4032303005F
:101574006304F30203D366006310030283D74600B7
:1015840023A0060121073E9621062392C600972731
:1015940000002392E77EB6879843630D17039736BE
:1015A40000009386E6B094426306D7028356670030
:1015B40095E283D64700035647001843A106B29626
:1015C4002392D70098C383576500A107172700000B
:1015D4002313F77AB7E700E019BFBE86C2870DBFB1
:1015E40003278511630407120346E5048546630057
:1015F4000612411122C406C68347C5002A8493F704
:10160400C70F2306F500834597000358C7001395B9
:1016140085016185637006096359050603458700E2
:1016240093F5F507A304B70093E527006314D500E9
:1016340093E517002306B4005C4389075CC3A30A3F
:10164400C400032504114C430905EFF00FA68327BA
:10165400841103465401D44303D7C700B296118FB3
:10166400D4C32396E7008947A30DF400034764031A
:101674009727000083C767766377F7048347C4001E
:1016840093E707012306F4003DA893E71700230618
:10169400F40075B71376F80F635D05020345870000
:1016A40093E527006314D50093E517002306B400DF
:1016B400A30AC400A30407008547A30DF4008327ED
:1016C40084119C43C5F7B2402244814636854101CA
:1016D400828093E717002306F400A30AC400A3043E
:1016E4000700032504114C4342860905EFF0EF9BE4
:1016F4008327841103465401D44303D7C700B29609
:10170400118FD4C32396E7008D4745BF85463685A0
:10171400828097370000938727AD9C43411122C4F0
:1017240006C6858B2A84C5EF4165130525F597F018
:1017340001E0E780C05D45C58347A5002315F5009A
:1017440083270412BDE72320A4122322A412854771
:101754002311F40423200500834764015441231614
:10176400F5000347D4002304E5000547A304E5007E
:101774001737000013070783585313851702158181
:101784001C437D151375F50F9CC25C43DCC21C47DA
:101794009CC65C47DCC61C4B9CCA5C4BDCCA1C4F19
:1017A4009CCE5C4FDCCE19CD93860602130707024C
:1017B400C1BF8327441288C3835724042322A4125D
:1017C400850779B79737000083D7C78F8507173701
:1017D40000002319F78EB2402244410182808347DE
:1017E400C40023090400054593C747002306F400F9
:1017F400DDB78347850193F7E70FD5EF834795015D
:10180400DDEB034625018346C50009CA834565030C
:10181400172700000347775C63E7E50013F7060129
:1018240041CF014709C6C18A0357651C81C6835647
:10183400A51C369751C31307C7121725000003557B
:10184400E55DB335A70237460F00411113060624A0
:10185400814622C426C206C67D543305A7029720BA
:1018640002E0E780E0269727000083C75757B38438
:10187400A700973700009387678403A78709832706
:10188400070963F387003E84184375FB972700001C
:101894009387C7529C43829781476364A400B3072C
:1018A400A440B2402244B3B7970093C717009244B0
:1018B4003E854101828081473E85828097270000D2
:1018C4009387C77098433C5BFDFF01000100828051
:1018D400011122CC4AC84EC606CE26CA52C456C2EC
:1018E4005AC00347B50085472A842E8983290509F0
:1018F4006311F72683570508835AC503172A000086
:10190400130A4A51172B0000035B4B5163FB572109
:10191400834605016397E620032785116313072097
:101924000327450A631F071E8346F5001D47639A74
:10193400E61E03471401B38AFA4013950A01418154
:1019440021CF9377170099CB8357E405835604047A
:10195400958F63D5A70013950701418193772700DD
:1019640099CB8357E41283560404958F63D5A7005B
:101974001395070141819377070199CB8357C414C9
:1019840083560404958F63D5A700139507014181FD
:10199400218B11E311E105450357A4039307204E5E
:1019A400832444093305A70237460F0081461306F2
:1019B40006243305F5029727000083C74742B35432
:1019C4009502B335AB02BE94C204C18023139408BC
:1019D4003305AB02972002E0E780800FB30735019F
:1019E40033B5A7002E953E8783264A0019E163E4A8
:1019F400D7003387D740B3846403B7460F00938777
:101A0400F623938606242320E900A697B3D7D702AA
:101A1400D6976362F7101D8F2320E90097290000F1
:101A24009389C93983A7090083240900829763E550
:101A3400A4123385A4406354050C83A7090082973C
:101A4400032709006361E512198D8357E4031727FF
:101A540000000357A73C8E07B387E7021307003241
:101A640093870719B3D7E70263E7A710374A0F0034
:101A7400130BFA23972A0000938ACA39130A0A24FB
:101A84008357040485072310F4048347041499E35B
:101A940022855922228597E001E0E780C01A75E982
:101AA400832604098327C40803A74A00B6973E8502
:101AB40063E4D70063E4E7003385E7408347F40138
:101AC400835464082328A4088507A30FF4009727E8
:101AD400000083D7A734B384F402DA94B3D4440364
:101AE4006368950CB304954083A7090023209900EB
:101AF400829763E3A40C3385A440E34305F8972756
:101B0400000083C7D72D63E7A7089727000023A702
:101B14008764014541A083264A00B387F6403E9777
:101B2400E5BD8354640837470F009307F723B38454
:101B34006403BE9493070724B3D7F40263E7F90060
:101B4400B387F9402320F900D1BD03274A00BA998D
:101B5400C5BF23A03501D9B5972700009387872BEC
:101B6400DC43BE94F9B5972700009387A72ADC438A
:101B7400998F3E95D9BDA145228597E001E0E78084
:101B84006005A305A402972700009387E7239C5BC5
:101B940081EF7D55F2406244D2444249B249224A1F
:101BA400924A024B05618280894515458297D5B7D3
:101BB400B3049740AA940DBF83A74A00BE9425BFDF
:101BC40039C901116C0022CC06CE2A8411331DCDF3
:101BD400FD576302F502B2479725000083C53520FF
:101BE40063EFB70003459402B385B7402EC6972030
:101BF40000E0E7804074F240624405618280172768
:101C04000000130727215843BA97E9BF97F001E072
:101C1400E780E0C0CDB78280797126D206D622D47F
:101C24004AD04ECE52CC56CA5AC85EC683475503D4
:101C340003447513AA843E941374F40F930740026B
:101C440063F687001304B4FD1374F40F03AA84131A
:101C540083AAC413A38B841222865285D685972027
:101C640002E0E780E0A3058915E503CBD41201491E
:101C74008149337B6403930B50024A865285D6858F
:101C8400972002E0E780C0A1058915C56391690327
:101C94001374F90F238B8412B250225492540259B4
:101CA400F249624AD24A424BB24B4561828085096D
:101CB400E20993D989410509E31179FDE1BF83273D
:101CC400850903560504797193D60701BD8EC206B2
:101CD400C182358E1357764093575640898B058BB6
:101CE4005D8F93573640918B5D8F93571640A18B30
:101CF4005D8F93171600C18B5D8F9317360093F792
:101D040007025D8F931756009355860093F70704D7
:101D14001E065D8F1376F60F518F93D7554013D659
:101D24003540118A898BD18F13D67540D18F13D644
:101D34001540218AD18F13961500418AD18F1396AD
:101D4400350013760602D18F1396550013760604D8
:101D54009E05D18F93F5F50FCD8FA20745465D8F74
:101D64003307C70222D42A8426D252CC56CA032A65
:101D74008413832AC4135AC806D63697420741836C
:101D840093577740135557400989858BC98F13554D
:101D940037401189C98F135517402189C98F1315ED
:101DA40017004189C98F1315370013750502C98FB0
:101DB4001315570093558700137505041E07C98F23
:101DC4001377F70FD98F13D5354013D755401189A1
:101DD400098B498F13D57540498F13D51540218937
:101DE400498F139515004189498F13953500137553
:101DF4000502498F13955500137505049E05498FF7
:101E040093F5F50F4D8F2207D98FB387C7024AD0B8
:101E14004ECE5EC662C4B697C207C18313D777405D
:101E240013D557400989058B498F13D5374011893C
:101E3400498F13D517402189498F1395170041897C
:101E4400498F1395370013750502498F1395570071
:101E540093D58700137505049E07498F93F7F70FF1
:101E6400D98F13D5354013D755401189098B498F24
:101E740013D57540498F13D515402189498F139582
:101E840015004189498F1395350013750502498F53
:101E940013955500137505049E05498F93F5F50FA9
:101EA4004D8F2207D98FB387C7021306500252857C
:101EB400D685B697BD8E93940601C18033F6C402CD
:101EC400137BF60F971002E0E780807D05890DED06
:101ED4008347D41201498149B3849702130C5002F9
:101EE400C1804A865285D685971002E0E780407B00
:101EF4000589937BF90F11C563863403850993F92A
:101F0400F90F0509E31F89FD230B6413B250225412
:101F140092540259F249624AD24A424BB24B224C81
:101F2400456182805E8BCDB70111972700009387AE
:101F3400E71822CC03A4870C26CA4AC84EC606CE8C
:101F4400AA8413092500854915C083C714000347D3
:101F54003400858B6304F700405CFDB71946930594
:101F640044004A85EFE0BFA1E31835FF2285F24023
:101F74006244D2444249B2490561828041119727A3
:101F840000009387A71322C403A4870C26C24AC067
:101F940006C693042500054901E82285B24022447F
:101FA4009244024941018280A6851305A402970048
:101FB40002E0E78080E5E30225FF405CF1BF00001A
:101FC400971100209381C1BA175100201301418356
:101FD4001305400097E5FF1F93858502170600202F
:101FE400130606FE63FAC5008322050023A05500EC
:101FF40011059105E3EAC5FE17450200130585ABFB
:10200400970500209385C5FB1386818563FAC50077
:102014008322050023A0550011059105E3EAC5FEBE
:1020240013858185972500209385451D6377B50029
:10203400232005001105E36DB5FEFD42739002BC3B
:102044008D4273904280930280087390023097E22D
:10205400FF1F9382E2FA93E2320073905230972288
:1020640000009382C2BE73901234730020303D434B
:102074002A876373C3029377F700BDEFADE59376C8
:1020840006FF3D8ABA960CC34CC30CC74CC7410724
:10209400E36BD7FE11E28280B306C3408A0697023F
:1020A400000096966780A6002307B700A306B70032
:1020B4002306B700A305B7002305B700A304B700A0
:1020C4002304B700A303B7002303B700A302B70098
:1020D4002302B700A301B7002301B700A300B70090
:1020E4002300B700828093F5F50F93968500D58D74
:1020F40093960501D58D61B793962700970200004A
:1021040096968682E78086FA9680C1171D8F3E9642
:10211400E374C3F8A5B7B717004003C7770513776F
:10212400E70FA38BE704130700F8A38DE7043D47EB
:10213400238CE70413075003A38CE70403C7A70504
:102144001377D70F238DE7048280B717004003C7A6
:10215400E7020D8941111377C70F498F9306800851
:10216400F3B6068093F6860836C60F100000930671
:1021740070052380D704930680FA2380D7040F10B8
:1021840000002387E70223800704B247F3A70780F0
:102194000F1000004101828041112A83014E930EE9
:1021A400407E130F0019930F400663E56E129308E7
:1021B400001913034006B3781503854E0D4FA14F44
:1021C400337365020D891335150063EFBE121308CE
:1021D400F6FF794672984208135808013307C7027C
:1021E40013D61700BE0732976146B3F6C60213062C
:1021F4008070B386C6023697A166F58F42075D8F5D
:10220400B716004083C7F60293F70708A303F1004B
:102214000346710083C7F60293F70708E394C7FEE9
:1022240083477100B716004093F7F70F63880712CE
:1022340093078008F3B7078093F787083EC40F100D
:102244000000B7170040930670052380D704930657
:1022540080FA2380D7040F10000023AA070383C643
:10226400170393E60608A388D70223800704A2472E
:10227400F3A707800F1000001166B71700407D1602
:10228400D45BC85F93854703A98EF18EF5FA930654
:102294008008F3B6068093F6860836C60F10000051
:1022A400930670052380D704930680FA2380D7040D
:1022B4000F10000098C103C7170313670704A3880E
:1022C400E70223800704B247F3A707800F1000003A
:1022D400410182807D133368E3039308E016630EA3
:1022E40008003368F3039308D01663080800937852
:1022F400330093B818009388D81633081E01131EB0
:102304000801135E0E0155B56393E5030548638622
:1023140008000148630303002A8871087298FD15B8
:10232400131E0801C205135E0E01C18179BD13F8A5
:10233400150063F4BF007908D5B713381800E5BF5A
:1023440083C7F60293F70708A303F100034671005D
:1023540083C7F60293F70708E394C7FE8347710027
:1023640093F7F70FF1DFE9B531714AD966CB06DF90
:1023740022DD26DB4ED752D556D35AD15ECF62CD5D
:102384006AC96EC7AA8C02D8EF0010122A89930773
:102394008008F3B7078093F787083EDA0F10000030
:1023A400B7170040130770052380E704130780FA6A
:1023B4002380E7040F10000003C7F7021377770F99
:1023C400A387E70203C7F70213678700A387E7021F
:1023D40023800704D257F3A707800F100000054598
:1023E400AD33130780C13347E902116A93070AE842
:1023F40093065002BD69930BA004814A014B130458
:102404008008930470057D1AB347F9023307D70295
:102414003EC0FD873ECC938709A69309803E33478F
:10242400F7023AC27D873AC4334739038549B399E1
:10243400990193D93940B306D702B30B7703B3C6D6
:10244400F602B3CBFB0236C6FD8636C893D6FB41F3
:1024540036CEB7460F00938606243349D9028566E3
:10246400938606FAB3969601B389E9021307605579
:102474003309D90293060010B389E9023349D9021A
:10248400B3C9F9029316390036CA37190040FD86DC
:1024940036D0930D090493D7F9413ED2F336048024
:1024A40093F6860836DC0F1000009307700523802E
:1024B400FD00930680FA2380DD000F1000008346A0
:1024C400390593F6860FA309D9048346390593E6A3
:1024D4001600A309D90423800D00E256F3A6068052
:1024E4000F100000130C80FA116DF336048093F67C
:1024F400860836DE0F100000930770052380FD0068
:1025040023808D010F10000083463905216693E670
:102514000602A309D90483560905B3E6A6012318C4
:10252400D90483560905D18E2318D90423800D00BC
:10253400F256F3A606800F1000008346390593F681
:1025440006026389061803463905218A6DDE0818D8
:10255400612F7336048013768608B2C20F10000010
:1025640023809D0023808D010F100000B7170040C9
:1025740003C637051376F60DA389C70403C63705CA
:1025840013660602A389C704835609052166B3E6C8
:10259400A6012318D90483560905D18E2318D9041A
:1025A40023800D009646F3A606800F100000834694
:1025B400390593F606026386061483463905A18A13
:1025C400EDFE97E0FF1FE780C0ACAA8636D497E003
:1025D400FF1FE78000ACA256E30AD5FE8356090527
:1025E4004255B3E6A6012318D904392F8346390589
:1025F400A18AEDDE03560905834629058247337611
:10260400CA00B306DA0293D5F641B296B388F6400F
:10261400E24733B8C6002E983308F840A247B3B651
:1026240016013308D84063C70701631DF8009247B9
:1026340063FA1701C247634DF80E63950701B24769
:1026440063E8F80E894663E7660FF24693151800AF
:1026540013D3F8015E8613951800B365B30042D610
:1026640046D4EF10E2083258050B137BFB0F634787
:10267400000163120838A258638F08361308150046
:10268400B336A800B69513D6F5013298B336C80010
:10269400AE9613581800FE06B3E60601733604809E
:1026A40013768608B2C60F10000023809D00238095
:1026B4008D010F1000000356C902B296C206C182F2
:1026C4002316D90223800D00B646F3A606800F1008
:1026D400000021BDF336048093F68608B6C00F10BF
:1026E400000023809D0023808D010F10000083468D
:1026F400390593E60602A309D90423800D00864612
:102704000DBDF336048093F68608B6C40F1000009E
:1027140023809D0023808D010F100000834639051E
:1027240093E60602A309D90423800D00A646A5BD9D
:10273400E30D0BF0F336048093F68608B6C80F1049
:102744000000930680FA23809D002380DD000F1093
:1027540000008346390593F5FC0F93F6860FA30911
:10276400D90483463905CD8EA309D90423800D00ED
:10277400C646F3A606800F100000130580FA034630
:102784003905930639051D8A631496297336048026
:1027940013768608B2CC0F100000130680FA23804B
:1027A4009D002380CD000F10000003C606001376A1
:1027B400F60D2380C60003C60600136606022380B6
:1027C400C600835609051166D18E2318D904835691
:1027D40009052166D18E2318D90423800D00E6460D
:1027E400F3A606800F100000130680FA834639050D
:1027F40093F606026388062483463905130C3905CB
:10280400A18AFDDA0818CD21F336048093F68608F0
:10281400B6D00F100000930680FA23809D00238019
:10282400DD000F10000083460C00116693F6F60DD0
:102834002300DC0083460C0093E606022300DC0040
:1028440083560905D18E2318D904835609052166B8
:10285400D18E2318D90423800D008656F3A6068052
:102864000F100000130680FA8346390593F606021A
:102874006385062083463905A18AEDFE97E0FF1F94
:10288400E78020812A8C97E0FF1FE7808080E30C9B
:1028940085FF8356090511664255D18E2318D90444
:1028A400A5218346390513063905A18AFDDAF336D5
:1028B400048093F68608B6D40F100000930680FABD
:1028C40023809D002380DD000F1000008346060056
:1028D40093F6F60D2300D60023800D00A656F3A62A
:1028E40006800F1000008356090503462905D247C8
:1028F400B376DA003306CA021305800C9355F64109
:102904003696330DF6408257333CD6002E9C333630
:10291400A601330CFC40330CCC403308850392569B
:102924004E86B335A5033305A503C295EF00525C6B
:1029340063468001631E0C16630C0D161306150006
:102944003335A6002E959356F5013696B335D60049
:10295400AA959396F50105828585D18E6346B000CC
:10296400639D051A638B061A0356C9021582330543
:10297400D6003336C500B2956348B0006391052490
:102984001306F00F637DA622894663F35615930759
:102994008008F3B7078093F78708BED60F100000AE
:1029A40037170040930770052300F704930780FA54
:1029B4002300F7040F1000008356C70289678117AC
:1029C400D58FC207C1832316F70223000704B65725
:1029D400F3A707800F100000FA506A54DA544A59DA
:1029E400BA592A5A9A5A0A5BFA4B6A4CDA4C4A4D3B
:1029F400BA4D296182801308F5FF3335A800FD150F
:102A04002E951356F5013298B336C800AA9651B1E3
:102A1400F336048093F68608B6CA0F1000002380AC
:102A24009D002380AD000F10000083463905CD8E34
:102A3400A309D90423800D00D646F3A606800F10FF
:102A4400000035BBF336048093F68608B6CE0F102B
:102A5400000023809D002380CD000F1000008346DA
:102A6400390593E60602A309D90423800D00F6462E
:102A7400F3A606800F10000095BBF336048093F68E
:102A84008608B6D20F10000023809D002380CD005D
:102A94000F1000008346390593E60602A309D90402
:102AA40023800D009656F3A606800F1000006DBB20
:102AB4009306F5FF33B5A600FD152E959355F50144
:102AC400AE96B3B5B600AA951396F501858269B59D
:102AD400F336048093F68608B6D80F1000009306E8
:102AE40080FA23809D002380DD000F1000008356B0
:102AF400C9020566011693F6F60FD18EC206C1828D
:102B04002316D90223800D00C656F3A606800F10A3
:102B14000000850A93FAFA0F51B233E6B60045C2B3
:102B24000356C9023305D0403338A000B305B04082
:102B3400B385054115826345B000D1E16371A608F0
:102B4400894663F0560593078008F3B7078093F727
:102B54008708BEDA0F100000B7170040130770058E
:102B64002380E704130780FA2380E7040F10000092
:102B740003D7C7027D8B2396E70223800704D65729
:102B840081BDF336048093F68608B6DC0F1000008E
:102B9400930680FA23809D002380DD000F1000003F
:102BA4008356C9020566011693F6F60FD18EC20646
:102BB400C1822316D90223800D00E656B9B79307C4
:102BC4008008F3B7078093F78708BEDE0F10000074
:102BD40037170040930770052300F704930780FA22
:102BE4002300F7040F1000000356C7029397560002
:102BF400B297C207C1832316F70223000704F657CE
:102C0400C1BB914763EEB702172702001307C75AE7
:102C14008A05BA959C41BA978287B717004003A7E3
:102C2400470B1345F5FF698F23AAE70A03A7070B90
:102C3400698F23A8E70A03A7070A798D23A0A70AA7
:102C44008280B717004083A6470B1347F5FFF98E20
:102C540023AAD70A83A6070B558D23A8A70A83A600
:102C6400070A758F23A0E70A8280B717004003A7DD
:102C7400470B498F23AAE70A03A7070B1345F5FF60
:102C840045BFB717004083A6470B1347F5FF758F61
:102C940023AAE70A03A7070A598D4DB7B7170040BF
:102CA40003A7470B498FEDB7B71700408847420584
:102CB40041819377050491EB9377F5013755E8014A
:102CC400130505803345F50282809377050C1307BD
:102CD40000046397E7009377F50137459C1CCDB753
:102CE4002165130505D0828037E700E01C43544377
:102CF400A183E206D58F1CC1FD572320F718232298
:102D0400F7180F100000828013178500B7E700E062
:102D140023A0E710618123A2A7108280B7F700E007
:102D24008847CC478280814737370040A14663C437
:102D3400C700328582800345B740E38EA6FE338503
:102D4400F5000345050085072304A740CDB797F791
:102D5400FF1F9387E7619C43171700201307074A57
:102D64003E95636EE5001747002013076789636883
:102D7400A70017F7FF1F232DA75E3E858280FD570E
:102D8400EDBF411122C406C62A84393F2947B3073F
:102D9400E502B2408D83B3D7870222449507B3D7A7
:102DA400E70237370040C207C1832316F7404101C9
:102DB4008280716541111305052006C6D937B737DE
:102DC4000040130770F82381E7400D47A381E740D3
:102DD40013070004A380E74005472387E740B24078
:102DE40041018280938741869C43411106C691C369
:102DF4008297938781869C4391C3829703D761808E
:102E04009307C01263F7E70403D581809306B012D9
:102E140063E4A6049386018603A306006307030004
:102E2400B2401305C012410102830507098F33859F
:102E3400A740E5473305F502420741830983930719
:102E4400F7FF3E953345E5021375F50FB240410196
:102E5400828013054006DDBF0145CDBF03A84500B0
:102E6400411126C206C622C483471800034808003D
:102E7400A944A207B3E70701C2070D68C187130875
:102E840028906396070385473284EF609055AA849F
:102E940019ED9387C1859C4399CB034514000347DF
:102EA40004002205598D1335150005058297B2409B
:102EB400224426859244410182802D453DE7D84134
:102EC400411122C426C206C68347170003470700E0
:102ED400B684A207D98F0D67930697A132846396AF
:102EE400D702093783C741806374F5002382A18028
:102EF40085472390F40083C741802300F4000145F3
:102F0400B2402244924441018280130787902945AC
:102F1400E398E7FECC4589472390F40009462285CF
:102F240097E0FF1FE7806098D9BF82808347450000
:102F3400858BADC7011122CC2A84035525009385C6
:102F4400019806CEEF60B044058929C503552400D5
:102F5400014781460546ED45EF60607D2AC61DC9DF
:102F640097F7FF1F9387C70583D7A70201462C0055
:102F74002314F10085472315F10083C74180230002
:102F8400F50003552400EF70101D09C5ED45280018
:102F9400EF60B011F2406244056182808280416535
:102FA4004111938501987D1506C6EF80500AB24001
:102FB40097F6FF1F9386C6054146954517F5FF1FF3
:102FC4001305050041016F80A07D23AEA18482809A
:102FD400411122C406C6854709446311F50283479B
:102FE40006000144238CF18403C741806378F70011
:102FF400170500001305C5F3EFA010472285B24062
:10300400224441018280411106C6E93B83C74180C5
:10301400637AF5002382A18017050000130545F1AA
:10302400EFA09044B2400145410182804167791785
:10303400630CE502411122C406C685472A84639ABB
:10304400F50022852244B2409385019841016F80A6
:10305400100089476396F5008545EFA0703B75D154
:10306400B2402244410182808280CC41411106C693
:10307400328503C6150083C5050022064D8E42061F
:103084008D654186138875A2630C060F6348C804D6
:10309400138845A26306060B634AC800938535A2CC
:1030A4006309B60623900600294679A0138855A221
:1030B4006308060B938565A2E316B6FEC1451D465B
:1030C40063ECE5064546198E63F3C7003E862390FC
:1030D400C600972502009385651089A8138895A2D8
:1030E4006300060F634E060B1388A5A2630A060F3E
:1030F400938505A5E318B6FA99451D4663EEE502E6
:10310400198E63F3C7003E862390C60093854181E0
:1031140031A89D451D4663E1E5022146198E63F3FE
:10312400C7003E862390C6009385C186BA9597D082
:10313400FF1FE78080770146B240328541018280DB
:10314400AD451D46E3EAE5FE3146198E63F3C7003B
:103154003E862390C600972502009385E50BF9B7B8
:10316400B1451D46E3EAE5FC3546198E63F3C70015
:103174003E862390C600972502009385E50A7DB715
:10318400C1451D46E3EAE5FA4546198E63F3C700D7
:103194003E862390C600972502009385650579B77E
:1031A400C1451D46E3EAE5F84546198E63F3C700B9
:1031B4003E862390C600972502009385E507BDB798
:1031C400C1451D46E3EAE5F64546198E63F3C7009B
:1031D4003E862390C600972502009385A502B9B7C1
:1031E400B5451D46E3EAE5F43946198E63F3C70095
:1031F4003E862390C60097250200938525FD3DB7A2
:1032040097F6FF1F938686F44146CD4517F5FF1FB9
:103214001305C5E06F80C05805E1B28741112E86C1
:103224001385C186BE8506C697D0FF1FE780E06779
:10323400B24001454101828009458280C8418347EB
:10324400150003450500A207C98FC207C1872D4594
:1032540005E30D67130787A32945639BE7008547AB
:103264002390F600DC45014583C707002300F600E0
:10327400828003A84500411126C206C622C48347A2
:10328400180003480800B284A207B3E70701C20785
:103294000D68C187930E28906382D705130898A3FD
:1032A4002944639707032D4405E785473544639113
:1032B400F6028347060013040008639BD700D84531
:1032C4000D4501442300F700938781879C4382972F
:1032D4002285B24022449244410182808547EF60B6
:1032E40050102A8475F503C5140003C7040093879E
:1032F40081872205598D9C43133515000505829756
:10330400C1BF411122C42A844165938501997D1569
:10331400058806C6EF80A05305C02244B24097F644
:10332400FF1F938666EB4146A14517F5FF1F130562
:10333400A5E241016F80C046B240224401454101EB
:10334400828023ACA186828085476309F500894782
:103354006317F50083470600238BF18681473E857A
:103364008280411122C42E849385019926C206C607
:10337400AA84EF60D001058915C197F7FF1F9387D1
:10338400A7DD83D7A702A285B2402310F40022440C
:1033940026859244014641016F70E05BB2402244AD
:1033A400924449454101828041677917630CE502E3
:1033B400411122C406C685472A84639AF5002285F2
:1033C4002244B2409385019941016F804048894766
:1033D4006396F5008545EFA0B00375D1B240224451
:1033E40041018280828011456FE01FF8411193965C
:1033F4002500AA852D4506C697D0FF1FE780E00B60
:10340400B240014541018280011122CC06CE37141D
:10341400004026CA4AC84EC652C483447405034AAF
:10342400B4058349840503499405EFE0DFCE83475F
:10343400A40593F4F40F137AFA0F93E71700230DFE
:10344400F40493F9F90F1379F90FB717004003C780
:10345400A705058B6DFF03D5C705A38D4705238CF1
:103464003705A38C2705A38B9704F2406244D2440A
:103474004249B249224A056182804111939705016C
:1034840022C406C6C1872E8463DD0700EF00B01096
:1034940019C1EF0030042165218DB240224441015D
:1034A400828093F7150013C51500E5FB93F72500FB
:1034B40013C52500FDF39397250163D00702EF1090
:1034C4005119153737F60200130606E0896503C55E
:1034D4000188EF00D06D0965C1B7939715010145C7
:1034E400E3DD07FA172502001305C5DAEF005234AD
:1034F40013060064916503C50188EF00506B1165E4
:1035040061BF2D71232A9110FD74E98C232C811045
:1035140023282111232631112A84AE893289930666
:1035240000100A86A6852D45232E111097D0FF1F63
:10353400E780A0F81315440151810A051396290068
:10354400CA850A9597D0FF1FE7802036A685856631
:103554000146254597D0FF1FE78020F60A86A685F9
:1035640093060010294597D0FF1FE78000F58320BC
:10357400C1110324811183244111032901118329D9
:10358400C11015618280B7F7070003C70701411115
:1035940006C622C426C24AC0A547631AF700953757
:1035A400B24022449244024901454101828013946D
:1035B4002500AA843289A286AA850146254597D08A
:1035C400FF1FE78080EFA2864A86A685294597D00B
:1035D400FF1FE78080EEE9B71D7149469725020079
:1035E4009385C5C617250200130545EF86CE97D0EF
:1035F400FF1FE780C03801E917250200130545C6FF
:10360400EF00122301A0B7F600E0795798CAFD57DE
:10361400DCCA0567B7E700E023A0E7101306F00251
:1036240090C223A0E7180F10000017E7FF1F13072D
:10363400278523AEE1864157A38AE7401306000499
:103644008145080897D0FF1FE780402D97F7FF1F9B
:103654009387C7EC3EC8896793870780231AF100D4
:103664009D673ECCB7070105938707103ECEED4713
:103674002310F10285472301F10297070000938785
:1036840027D7BEC297070000938727F0BEC485677B
:10369400938757D12312F10297F7FFFF9387476867
:1036A4003ED8B7F5070097070000938727D63EDC7E
:1036B400814697070000938747D33000E1051945F9
:1036C4003EDE97D0FF1FE78040DF18088147994608
:1036D40030003E960346060085070507A30BC70086
:1036E400E398D7FEC24791C70357410185676373C7
:1036F400F70001A08307410263D7070493078008FA
:10370400F3B7078093F787083EC40F100000B7177C
:103714000040130770052380E704130780FA238011
:10372400E7040F100000B847B70610001367071826
:10373400B8C79853558F98D323800704A247F3A79B
:1037440007800F1000000808EF102031AA8501C976
:1037540017250200130505B2EF00E27B01A0F64035
:1037640025618280411117050000130545D106C665
:1037740022C4EF10C02A138401882300A40019284E
:10378400034504002244B240130600328965410116
:103794006F00F041797106D613078008F33707806C
:1037A40093F787083EC20F100000B7170040930537
:1037B40070052380B704130680FA2380C7040F1012
:1037C400000083C6F70293F6A60FA387D7022380CF
:1037D40007049246F3A606800F1000007337078093
:1037E400137787083AC40F1000002380B70423809E
:1037F400C7040F10000003C7F70213672700A3874D
:10380400E70223800704A247F3A707800F100000F4
:103814000545EFE09F93C13E814701478146054638
:1038240085451305407EEFE03F976800514681458A
:1038340097D0FF1FE780800EB707C0A83EC8B787A0
:10384400E803938707D03ECA680097D7FF1F938782
:1038540087B73EC6EF104054B250456182800111D3
:1038640022CC06CE11472A846318E50203C725003B
:103874009547631DF70083D7A50013060064A1458F
:1038840003C5C1892394F188EF00703223A681888F
:10389400F2406244056182809387C1889C43639AA5
:1038A400E7048547894503C5C1892304F100EF0076
:1038B400905A854503D58188C53C854503D58188C3
:1038C400EFF0CFF6930500020D45EF20F07393055A
:1038D40000021145EF2050739D6593850553014502
:1038E400EF2090723000854513055030EF708178D9
:1038F40071BF09476390E7048D47631DF50283C7D1
:10390400018981C72388018851B7EF20701B930771
:103914000002E31DF5F68547930500640D45230475
:10392400F100EF20706E930500641145EF20D06D17
:10393400814575B78547E31BF4F42C00130540302B
:10394400EF70815F8347D1003000A145A307F100E8
:103954008347C1000145230601002307F100834783
:10396400B100A3050100A306F100EFF0FF8A39BFFF
:1039740085476310F5029387C18898439147631282
:10398400F7021966130606DC914503C5C1896F0069
:10399400102289476317F500914503C5C1896F005B
:1039A400904B82808547631FF5009387C1889843B5
:1039B40091476316F7021306007D894503C5C18943
:1039C4006F00F01E89476317F500894503C5C18957
:1039D4006F0070488D476314F50023990188828035
:1039E40041119397050122C406C626C24AC0C18765
:1039F4002E8463DF070003C5C189712E11C1D92C40
:103A04002165218DB24022449244024941018280C1
:103A140093F7150091CF17E6FF1F1306E67E9385F3
:103A2400019A03C5C189EF70413113451400D9BF10
:103A340093F72500C5C79387C188984391476319B5
:103A4400F708014781462546ED4503D58188EF50A7
:103A5400104E23ACA1881389418925C59384218202
:103A640083C70400230005000905A30FF5FE83277F
:103A74004900CA851D8D1375F50F239BA18803D5B5
:103A84008188EFF01F8E09C5ED454A85EF50F0613E
:103A940083D72189A9072399F18883C704001307D1
:103AA4000005850793F7F70F6387E7022381F18207
:103AB40003C72182BD67B3C7E7022393F182239230
:103AC400F1821306007D894503C5C189EF00300EDC
:103AD4001345240005BF93079004C9BF93F745001D
:103AE40085C79387C18898439147631CF700EFF01B
:103AF4008FD11966130606DC914503C5C189EF0011
:103B0400100B13454400FDBD93F785000145E38B7D
:103B140007EE83C7C1891307803E85461306000A52
:103B2400D14503D58188EF70A11C13458400D9BD0C
:103B34000111170500001305E5EA06CE22CC26CABA
:103B4400EF00F06D9384C18905442380A4007000C4
:103B540085451305503023068100EF70A15117E607
:103B6400FF1F1306266BCD4513057030EF7081508F
:103B740017E6FF1F13060667A54513056030EF70AF
:103B8400614F700091451305704023048100A30523
:103B9400810002C6A304010023050100EF600106B1
:103BA4003000854513050040EF6041051306910080
:103BB400854513051040EF6061041306A100854597
:103BC40013052040EF6081031306B10085451305FA
:103BD4005040EF60A10289477000854509452306DE
:103BE400F100EFF06FF6994770008545054523060F
:103BF400F100EFF0EFBD7D55EF50C07B7D55EF70C8
:103C0400F0417D55EFF0EFEFEFF08FDFEFF02FB9DC
:103C140017E6FF1F1306C65DD5450145EF50206822
:103C240017050000130545D8EFF0AFF117050000A4
:103C3400130545D4EFF06FB903C5040085459D2BEA
:103C4400F2406244D244056182804111130580042C
:103C540006C697C0FF1FE7804045371700408327FB
:103C6400870A8D451305002093E707202324F70ACC
:103C7400EFE03FF9EFF0EF931725020013050586F7
:103C8400EF00023BEFF05F95F13CEF7081704D3532
:103C940097C0FF1FE780007623AC05FE1C4191E727
:103CA400010001000CC18280BA8703A787FF6DFF62
:103CB40023ACB7FE8280184183A785FF6319B70040
:103CC4001CC1FD5723AC05FE238FF5FE8280232CF7
:103CD400F6FEC5BF411122C437E400E026C2044009
:103CE4003707200006C6F98C2320E4180F100000C3
:103CF40009E9232094101545B2402244924441011D
:103D040082800347E5FF9307F00F6306F700232043
:103D140094101145D5B797D0FF1FE780E07B01458C
:103D240023209410D1BF411126C2B7E400E04AC059
:103D340003A90400B707200006C622C43379F9009A
:103D440023A0F4180F10000009E923A02411B240A5
:103D5400224492440249410182809565938505D0AD
:103D6400C98D2A842105C2054205C181418197D0AC
:103D7400FF1FE780406701CDFD5723200500231274
:103D840085002303F50023A024112105C9B723A02E
:103D9400241101456DBF0111B7E700E04AC803A92A
:103DA40007004EC63707200006CE22CC26CAAA89B1
:103DB4003379E90023A0E7180F10000097070020CB
:103DC400938787FA80438144014619E499E8A16501
:103DD4004E85EF00500805A08347E4FF639937033D
:103DE40085CCA68517050020130505F8E93565D0AF
:103DF400A1654E85C126F2406244B7E700E023A0E6
:103E0400271126854249D244B2490561828091E056
:103E14002286032484FF55BFA284E5BF41114AC012
:103E240037E900E022C4032409003707200006C64E
:103E340026C2798C2320E9180F10000089E523207D
:103E44008910154515A0AA849707002083C717F287
:103E54002E8563F5F400894763EE9700A53DB7E727
:103E640000E023A087100D45B24022449244024949
:103E74004101828083A785FF99E703C7E5FF930784
:103E8400F00F6308F700B935B7E700E023A0871007
:103E94004DBF238F95FE170500201305E5ECED3B80
:103EA400A1652685012E01452320891075BF97073A
:103EB400002023AB07EA828097070020938747F00E
:103EC4009C4399E33E85828003D727006316B7009D
:103ED40003C70700E308A7FEDC47E5B7A5C1011146
:103EE40006CE22CC26CA8147C14633D7F540058B7E
:103EF40029C312053E9531473305E5021707002013
:103F0400130747F0044305443314F4002EC6420457
:103F14004180AA949C40C8408297B24523A00400E3
:103F240023A20400A18DF2406244D2442E8505618F
:103F340082808507E39BD7FA0144EDB72E85828002
:103F4400C9C1797122D406D626D24AD04ECE0144B4
:103F54004147B3D78540858BA5C3120531472295C8
:103F64003305E502970700209387C7E903A90700F3
:103F74008544B3948400C204C180BE892A9903276E
:103F8400090011C7032549002EC60297B2453147DF
:103F94003304E40283A709003E941C4489E72320E8
:103FA400090023220900B2502254A58D02599254CB
:103FB400F2492E85456182800504E31CE4F88144BE
:103FC400DDB72E8582804111B7E700E022C480432B
:103FD4003707200006C626C2798C23A0E7180F10E5
:103FE4000000970700209387E7DD9C539384818228
:103FF40099C782979C403E9523A4A18239A0970734
:104004000020938767DB9C43EDF78840B7470300A4
:104014009387D73F3305F502B7A72600938737EC7C
:10402400B24092443E9523A4A182B7E700E023A0C6
:1040340087102244410182800111B7E700E022CCBD
:1040440080434AC83707200006CE26CA2A892E860E
:10405400798C23A0E7180F100000131506019305AF
:10406400F004418132C697D0FF1FE780C037AA848D
:1040740019C53246CA8597D0FF1FE7800083B7E78A
:1040840000E023A08710F240624426854249D244CE
:10409400056182807971B7E700E022D48043370854
:1040A400200006D626D24AD04ECE52CC56CA5AC882
:1040B4005EC662C43374040123A007190F10000004
:1040C40005E123A087100945B250225492540259A5
:1040D400F249624AD24A424BB24B224C4561828039
:1040E40097070020938747CD9C43BA8A368AB28BC0
:1040F4002E8BAA898297970700209387A7D098438D
:104104003E898144B146C147338CD40233068701CA
:10411400104241EAC165938505F0414597D0FF1FE0
:10412400E780602C05E1970700209387A7C99C5B73
:1041340081C7814511458297B7E700E023A0871026
:104144002D4559B797070020938787C7984331E7D0
:104154009707002023A6A7C623000500832709008C
:1041640005473317970023260500232475012311DF
:10417400E50023225501E29723A0370123A267011A
:1041840023A4570163040A0023009A00B7E700E060
:1041940023A0871001450DBF3E875C47F5FF48C744
:1041A40065BF8504E392F4F6B7E700E023A0871027
:1041B400214519BFB7E700E09843B706200023A0C4
:1041C400D718758F0F1000009706002083C616BA03
:1041D4006373D50217060020130646BE9316150016
:1041E4000842369583560500D58D2310B50023A0CB
:1041F400E7100145828023A0E7100D458280B7E7D0
:1042040000E09843B706200023A0D718758F0F103D
:1042140000009706002083C676B56375D50217069D
:1042240000201306A6B993161500084293C5F5FF9E
:10423400369583560500F58D2310B50023A0E710AD
:104244000145828023A0E7100D458280011137E7E4
:1042540000E026CA0443B706200006CE22CC4AC892
:104264004EC652C4F58C2320D7180F100000130734
:1042740005FF1377F70FFD4763E5E70AB146B30679
:10428400D502970700209387E7B7984336971C43D6
:10429400C9CB135A450005443D893315A4001314B2
:1042A400050141802E895285A2853931AA8929CDFB
:1042B400A2855285A937970700209387E7AF9C43CF
:1042C40082979707002083D727B5338727032A844B
:1042D400814613060064B3B7270313050732B335C9
:1042E400E500BE95EFF0417EB307850097060020F8
:1042F400938606B23E87D44263E4A70063E4D70002
:104304003387D74023A4E900B7E700E023A0971040
:104314000145F2406244D2444249B249224A05610D
:104324008280B7E700E023A097100945DDB70111AB
:10433400B7E700E026CA84433707200006CE22CC24
:104344004AC84EC6F98C23A0E7180F100000BD47D9
:1043540063E9A70431473307E502970700209387F1
:1043640067AA9C43BA979C438DCF05443314A40099
:10437400420441802E890145A2853D3EAA8911C58A
:10438400A2850145AD3D23A42901B7E700E023A0A0
:1043940097100145F2406244D2444249B249056152
:1043A4008280B7E700E023A097100945E5B779714B
:1043B4004AD037E900E026D283240900B707200059
:1043C40006D622D44ECE52CC56CA5AC85EC6FD8CEE
:1043D4002320F9180F1000009707002083C71799AE
:1043E400637AF500970700209387079D83AB070046
:1043F40063970B00B7E700E023A09710A9A0170B61
:104404000020130BEBA0832A4B00B74736FE93879B
:1044140007C82E8A9705002083D505A0BE9AB387C6
:10442400C5022A84B2898146B3B5C5021385073211
:10443400B337F50013060064BE95EFF0E16863F04E
:10444400AA02232099100145B250225492540259D1
:10445400F249624AD24A424BB24B45618280829B06
:104464009705002083D5459BB38735032A89130616
:1044740000648146B3B5350313850732B337F500BD
:10448400BE95EFF06164B30725013E8903274B0015
:1044940063E4A70063E4E7003389E740D28522851B
:1044A400EFF09FA109C923242501B7E700E023A069
:1044B4009710054551BF936504F0C205C18141457C
:1044C40097D0FF1FE78020F219E997070020938710
:1044D400678F9C5B85D3A2851145829721BF97077F
:1044E40000209387E78D9C4385E79707002023A945
:1044F400A78C854723260500232425012311450184
:1045040023008500A300F5002322050079BFBA87A4
:10451400D84775FFC8C7F1BF7971B7E700E026D265
:1045240084433707200006D622D44AD04ECE52CC3C
:1045340056CA5AC85EC662C466C26AC0F98C23A051
:10454400E7180F1000003DC14144B689B28A2E8A93
:104554002A89B14C170B0020130BCB8A054D130C81
:104564000003B30B940303270B005E971C43A5E3DE
:104574009375F400B315BD0013554440C205568627
:10458400C1811375F50F253539C183270B00DE97DB
:1045940023A0270123A24701638409002380890003
:1045A400B7E700E023A09710014521A023A09710AE
:1045B4000945B250225492540259F249624AD24AED
:1045C400424BB24B224C924C024D45618280050411
:1045D400E31984F9B7E700E023A097102145D1BF80
:1045E4000111B7E700E026CA844322CC4AC84EC66C
:1045F4003707200006CE2A84AE893289F98C23A09D
:10460400E7180F10000065332285CE85EFF0DF8AAE
:104614002A8405C59705002083D50580B387250323
:10462400130600648146B3B5250313850732B337F7
:10463400F500BE95EFF0414948C013351400F2402F
:104644006244B7E700E023A097104249D244B2493C
:104654000E05056182800111B7E700E04AC803A98D
:10466400070022CC4EC63707200006CE26CAAA89E8
:104674002E843379E90023A0E7180F100000EFF02F
:10468400BF83AA8419C123110500A2854E85853EE6
:1046940097F7FF1F83C7876D639B370197F7FF1F4A
:1046A40083D747715D8C97F7FF1F23958770B7E712
:1046B40000E023A02711014591E01945F24062442E
:1046C400D2444249B2490561828001114AC837E99E
:1046D40000E022CC03240900B707200006CE26CA36
:1046E4004EC67D8C2320F9180F1000009307F002AA
:1046F40063E8A704B147B304F50297F9FF1F938950
:10470400697083A70900A6979C439DCB9377F50016
:104714008545B395F500C205C18111812D3F83A75D
:1047240009000145A69723A0070023A20700232020
:104734008910F2406244D2444249B2490561828000
:10474400B7E700E023A087100945E5B74111B7E7B3
:1047540000E026C2844306C622C437072000F98C31
:1047640023A0E7180F100000EFF00FF519E9014539
:10477400B2402244B7E700E023A0971092444101DD
:10478400828097F7FF1F938727639C430045829796
:1047940097F7FF1F9387C7676368A402D843B74698
:1047A40036FE938606C83305A4403697E371E5FCCC
:1047B40013070064B335E50203D687008146330549
:1047C400E502EFF061306DB7D8433A94C1BF4111AF
:1047D40022C426C217F4FF1F1304846397F4FF1F37
:1047E4009384C4589448584097F7FF1F9387C75C35
:1047F40006C69C436393E60882975440B74736FE47
:10480400938707C8B6973387A7003A856364F70090
:104814006364D7003305D74097F4FF1F938444782B
:10482400DC5081CF97F7FF1F9387477F9443370767
:10483400CDFF7D179C46F98F9CC611E1484097F740
:10484400FF1F93872758DC53829719E5DC508DC3EB
:10485400EF006177EFF07047DC5099CB97F7FF1FBB
:104864009387C77B9843B70633001C47D58F1CC773
:10487400B240224492444101828082979448584035
:10488400B387A6003E8563E4D700E3E7E7F8338502
:10489400E74059B7411106C697F7FF1F23A8A7564B
:1048A4000295B24097F7FF1F23AEA74C0145410183
:1048B4008280994763E9B7008A0597F7FF1F9387BA
:1048C400A74DBE9588C1828097F7FF1F23AEA752DC
:1048D40011C5854717F7FF1F230FF74C828041113D
:1048E4007146814517F5FF1F1305054B06C697F75B
:1048F400FF1F23A7074C97F7FF1F23A9075097F71C
:10490400FF1F23AB074A97F7FF1F2386074A97F732
:10491400FF1F23AB074E97C0FF1FE780200013063D
:104924008002814517F5FF1F1305454497C0FF1FFB
:10493400E780C0FEEF60B12F97F7FF1F938787488A
:1049440003C5C70383C7D70385453E958D47330504
:10495400F50239051375F50F97F7FF1F2389A74053
:1049640099473305F5021305052497D0FF1FE78007
:1049740080A717F7FF1F2327A74859CD994717F694
:10498400FF1F0346C63E3306F6028145130606247E
:1049940097C0FF1FE78080F897F7FF1F938787462C
:1049A4009C439387072417F7FF1F2325F73E17F728
:1049B400FF1F0347C73B0A07BA9717F7FF1F232FA9
:1049C400F73EEFF0CFCEE12997F7FF1F9387873C9F
:1049D400944397F7FF1F83C77739139727003697B8
:1049E40017F6FFFF1306065610C313871700137735
:1049F400F70F0A07369717F6FFFF1306664E10C324
:104A040013873700890793F7F70F8A0797F5FF1F76
:104A1400A38EE534B69790C3B2404101828097F7E4
:104A2400FF1F83C7B73417F7FF1F0347473463F3E8
:104A3400E70217F7FF1F1307E7351843938617009C
:104A440017F6FF1FA304D63293962700369708C3A0
:104A54003E8582809307F00FE5BF1C4163840716EF
:104A640041777D8FB70600208947631ED71403570B
:104A74004500630A0714411122C419462A84930588
:104A8400F00F610506C697C0FF1FE780A0F7054732
:104A94008D476304E5121C4481CB58589947630E33
:104AA4000710185C630B071013060004814517F503
:104AB400FF1F1305253197C0FF1FE78020E613066B
:104AC4000004A28517F5FF1F1305C52F97C0FF1F0C
:104AD400E780A0DD97F7FF1F83D7872F17F7FF1F06
:104AE4001307472E99E79307001097F6FF1F2391AA
:104AF400F62E97F7FF1F83C7C72D91E7854797F6D3
:104B0400FF1F2388F62C97F7FF1F83D7A72C91E765
:104B1400ED4797F6FF1F239FF62A97F7FF1F83C7DA
:104B2400572B91E7954797F6FF1FA384F62A97F72B
:104B3400FF1F83C7472A91E7854797F6FF1F238CFA
:104B4400F62897F7FF1F83C7172999E78347F700CC
:104B540097F6FF1FA381F62897F7FF1F83C7D72770
:104B640081CF93F63700898317F6FF1F230AD628CF
:104B740097F6FF1FA386F62897F7FF1F83C7C7255D
:104B840091E7D54797F6FF1F2388F62483476401EE
:104B940099E79307C00397F6FF1F2380F6241C5759
:104BA40091C7829797F7FF1F2396A71CFD5717F706
:104BB400FF1FA30BF74C25338147B24022443E85A7
:104BC4004101828089473E85828001114EC697F952
:104BD400FF1F9389E92383A7090006CE22CC26CAA6
:104BE4004AC852C4829713090064B335250303DA13
:104BF40089008146528633052503EFE0F16C97F76F
:104C0400FF1F9387A716804FAA8401456306940269
:104C140033858440636E940003A54900528681461F
:104C2400B335A9023305A902EFE0116A018D269577
:104C340097F7FF1F23A89714F2406244D2444249D5
:104C4400B249224A05618280011122CC0A852E8450
:104C54004146970502009385255506CEEFF0412085
:104C6400180806043A94035504FF97F7FF1F83D7E7
:104C7400C71AF2406244AA9737450F00130505246A
:104C84003355F5020561828097F7FF1F83D7E71834
:104C940051471D45637CF702794719456378F7024C
:104CA4001307200315456373F7021307B004114576
:104CB400637EF700130740060D456379F700130779
:104CC400600909456374F70013B5B70F82800111B9
:104CD40022CC06CE2A842EC6EFF0EFAEB245F240C7
:104CE400818D33A5A502229562441375F50F0561E4
:104CF4008280011122CC06CE2A842EC6EFF0AFACFE
:104D0400B245F240818D33A5A50222956244420545
:104D1400418105618280011122CC06CE2A842EC6EF
:104D2400EFF06FAAB245F240818D33B5A50222950A
:104D340062440561828097F7FF1F9387A7089857FD
:104D440039CB411122C426C206C6BE84029717F786
:104D5400FF1F035727022A8415CBBA876373A70062
:104D6400AA87C207C183BA866373E400A286C20617
:104D7400C182958F5147635BF700DC5491C38297DE
:104D8400EF00210D97F7FF1F239687FEB2402244C0
:104D9400924441018280828097F7FF1F23A4070871
:104DA40097F7FF1F93870702DC57011106CEAA85E8
:104DB40081C72AC68297B245CDC19C410545D9CB4E
:104DC400DC41C9CB83D78500D1C783D7A500D9C31C
:104DD400514617F5FF1F1305A50397C0FF1FE78072
:104DE400C0AC97F7FF1F238B070297F7FF1F93872A
:104DF40027029C4317F7FF1F2320F7FC97F7FF1F99
:104E040083C7B7FD8DE79307805717F5FF1F035539
:104E1400A5003305F50237460F0013060624814624
:104E24008145EFE0714A97F7FF1FA388A7FA17F7A8
:104E3400FF1F034797FAA54763E7E700A94717F75A
:104E4400FF1FA30CF7F817050000130545D8EFF072
:104E54007FA40145F2400561828097F7FF1F23A5D7
:104E640007F297C7FF1F938787F817F7FF1F2321C0
:104E7400F7FA7D5797F7FF1F23AEE7F8B78732009D
:104E8400938727A197F6FF1F23A8F6F897F7FF1F2C
:104E9400238607F8B7C7004023A4E726B9B7011152
:104EA40022CC17F4FF1F1304E4F1084406CE26CAEB
:104EB4004AC801E90545F2406244D24442490561C9
:104EC40082805C58E5DB185C75D770008545829755
:104ED4001844B247E300F7FE9305E00417F5FF1FFB
:104EE400035505EF97C0FF1FE780E04F17F7FF1F3B
:104EF400232EA7E861D117F6FF1F035666ED93052D
:104F0400F00F97C0FF1FE78060A1814417F9FF1FCE
:104F14001309C9E597F7FF1F83C7A7EB0326090207
:104F240063C1F402328597C0FF1FE780E05A014550
:104F340097F7FF1F23AC07E497F7FF1F23AA07E4A3
:104F44009DBF97F5FF1F83D5A5E8B3879502084455
:104F5400185C898185043E9508C2029765BF0111DA
:104F640056C297FAFF1F938AEAE583A78A0022CCE8
:104F74004AC84EC606CE26CA52C45AC0AA892E842E
:104F840032896386072203A74A03630907141307B8
:104F9400F01F6367A71497F4FF1F938424DD03AA0B
:104FA400040263170A0A9565938515E017F5FF1F38
:104FB400035505E297C0FF1FE780E04297F7FF1F04
:104FC40023A6A7DC2A86630B051083A74A0303A53F
:104FD4008A0097F5FF1F83D5A5DF8981829783A770
:104FE4008A0003AA040217F7FF1F2323F7DA89476D
:104FF400639CF908C1476313F40E97F5FF1F83D52B
:1050040025DD938505FC9147B3C5F5028A05D29544
:1050140003C725009307A005631EF70A83D705007D
:10502400639A370B4A852286910597C0FF1FE78054
:10503400C0879C505285639347150145F2406244F2
:10504400D2444249B249224A924A024B05618280C3
:10505400D850E38EE7F89565938525E017F5FF1F93
:10506400035505D797C0FF1FE780E0372A8A3DC55F
:105074002A8683A74A0303A58A0097F5FF1F83D5D1
:1050840025D589818297A5B78D47639DF900C147CE
:105094006316F40497F5FF1F83D585D3938545FDE7
:1050A400F199B5B79147639AF9006319340397F5F9
:1050B400FF1F83D5E5D1A115E5B793070010639FC2
:1050C400F900A14763EC870097F5FF1F83D545D00E
:1050D400C115F9B79C5052856396470D2945B9BF50
:1050E4001D6A568B6371450B130A05E01947334A51
:1050F400EA0217F7FF1F0357A7CD97FAFF1F938AFA
:10510400EAC6330AEA023E9A83A74A026395470134
:1051140083A40A029DE49305E00417F5FF1F0355D9
:1051240025CB97C0FF1FE780002CAA8445D983278D
:105134004B0397F5FF1F83D5A5C92A86898152851C
:10514400829791451307A005898193972500A69717
:1051540083C627006393E60483D60700639C360363
:1051640085058A052286A6954A8597B0FF1FE780A4
:10517400C07383A70A02E38297EC268597C0FF1FBA
:10518400E78080355DBD21677917E369A7F4330AA9
:10519400454185B783C5370045BF83A70A02E38F1E
:1051A40097F2268597C0FF1FE780003305BF97F766
:1051B400FF1F9387A7BB8C5395D191479306A005F6
:1051C4008983139727002E9703462700E318D6F008
:1051D40003560700631C360185078A072286BE959D
:1051E4004A8597B0FF1FE780406C81BD8347370035
:1051F400C1BF97F7FF1F9387E7BC984739C79C5FE8
:10520400A9C705476313E504411122C417F4FF1F1E
:105214001304C4B5105006C60DC6485097F5FF1FB9
:1052240083D505BB89818297085097C0FF1FE7800B
:10523400A02A97F7FF1F23AB07B497F7FF1F23A9F3
:1052440007B4B2402244410182808280011117F7E1
:10525400FF1F130727B74EC68329870022CC26CA0F
:105264004AC806CE52C456C2AA842E843289638B9D
:1052740009201C5FBA8A99EB2945F2406244D24462
:105284004249B249224A924A056182805C5BEDD769
:105294009307F01F63EAA70E97F9FF1F938909ADDF
:1052A40083A70902B1CB03A58A0083A749026395AA
:1052B400A70689476393F408C147E31FF4FA17F577
:1052C400FF1F0355E5B09147130505FC3345F5026F
:1052D4009317250003A509022286CA853E959307E4
:1052E400A0052301F50023109500110597B0FF1FB9
:1052F400E780A05B014551B79305E00417F5FF1F54
:10530400035505AD97C0FF1FE780E00D97F7FF1F1A
:1053140023AEA7A649F98DB783A74A0303A60902BA
:1053240097F5FF1F83D5C5AA8981829783A78A0031
:1053340017F7FF1F232EF7A4ADBF8D47639EF4001C
:10534400C147E31BF4F217F5FF1F035565A81305C6
:1053540045FD9377C5FFBDBF9147639AF400E31DF4
:1053640094F017F5FF1F0355A5A62115DDB7930784
:105374000010E393F4F0A147E3E087F017F5FF1F73
:10538400035505A54115F1B79D676379F5069307A4
:1053940005E01947B3C7E70217F7FF1F035747A3F1
:1053A40017FAFF1F130A8A9CB387E702BE99832763
:1053B4000A02A1CF83274A026399370703250A0209
:1053C40091461308A0059305F00F93D72600139771
:1053D40027002A9703462700631F06078358070000
:1053E4000346370063959806B306D64063CF860418
:1053F40085078A072286CA853E95CDBD2167791720
:10540400E36CA7E6B307F54041BF9305E00417F545
:10541400FF1F0355E59B97C0FF1FE780C0FC97F76C
:10542400FF1F23A5A79659F581BD83A74A03032629
:105434000A0297F5FF1F83D5A59989814E85829726
:1054440097F7FF1F23A6379595BF2310B700931630
:105454000601C1829DBFB385860017F6FF1F035660
:1054640026979105130606FCE368B6E0130634009C
:10547400719A1106B2962301070123109700A30124
:10548400D700BDB797F7FF1F9387478E9453BE8904
:10549400A9C203A5090291461308A0059305F00FBC
:1054A40093D72600139727002A97034627006318EB
:1054B4000605835807000346370063989800B3062F
:1054C400D640E3D786F22310B70093160601C182B3
:1054D400C1BF8357C70017F5FF1F0345858F930589
:1054E400E0043305F5024205418197C0FF1FE780C0
:1054F40080EF97F7FF1F23ABA78841FDB5BB17F6D5
:10550400FF1F0356E68C97F5FF1F83C5858CB38573
:10551400C502338686001106E3E0C5D681BF014586
:105524008280011106CE2EC6EF80405C01C9B245CF
:10553400F2400355250005616FC0A079F24049454A
:1055440005618280A384018C2384018C23A8018AB1
:1055540023AA018A23AC018A23AE018A23A6018AE5
:1055640023A4018A97F7FF1F9387078E9306403879
:105574002391D702F1761307400B938606B8239143
:10558400E7002392D70211679D4613060005930591
:10559400000A1305007D2392E7002393D7024147B5
:1055A4008546130810F82395E7002396E70023990E
:1055B400E700239AE700239BE700239CE70023945A
:1055C400E702239007002393B7002394B70023979F
:1055D400C7002398C700239DA700239E0700239F8D
:1055E4000700239007022395D702239607032397E6
:1055F40007029308F007239807022392E7042393F2
:10560400E704239FE7042390E7062391E706239208
:10561400E706239917031307C01C239AD702239B79
:10562400D702239C0702239D0702239E0702239F80
:105634000702239007042391D70423940704239596
:1056440007042396D7042397C7042398C7042399F0
:10565400A704239A0704239B0704239C0704239D80
:10566400C704239EC7042393A70623940706239500
:105674000706239607062397B7062398B7062399A8
:105684000706239AE7065147239DE7067D57239B88
:105694000706239C0706239ED706239F070623900D
:1056A40007092391E7088280011126CAAA842145AB
:1056B40022CC06CE2E8432C636C43AC2EFE0AFE620
:1056C4001DC9A24612473246930700FD2300F50088
:1056D4009947A30095002301F5002303D500A303F4
:1056E400E5002312C500AA8522856244F240D24413
:1056F40005616FE0AFF2F2406244D24405618280FA
:1057040023A8A18A828023AAA18A828023ACA18AA9
:10571400828023AEA18A8280011122CC4AC806CE9F
:1057240026CA2A890144B30489006368B400F2409C
:105734006244D2444249056182802EC6EFE0BF88AC
:1057440093170501C183A183B2452380F400930715
:10575400140093F7F70F850463F9B700CA97090497
:105764002380A7001374F40F7DBF3E847DBFC167FF
:1057740017E5FF1F0355A56BFD176304F5024111DF
:1057840017F6FF1F034646809385018C06C6EF80FB
:105794008013B240FD5717E7FF1F231AF768410132
:1057A4008280828009C925151375F50F1335850E7E
:1057B4001345150082800145828023900500C9C6E7
:1057C400797122D426D24ECE52CC5AC806D64AD0AB
:1057D40056CA5EC63684328AAE892A8B814463F304
:1057E4004407B307940083C70700138914004209D0
:1057F400939A070193DA0A011359090163840A048D
:10580400CA976341FA04B307240183CB07005E857A
:10581400513F0DC99387FAFF2390F90063906B03FE
:10582400130519002295B250225492540259F24998
:10583400624AD24A424BB24B45618280D694C2043A
:10584400C18071BF0145C5B701458280411126C29F
:10585400AE8422C497E7FF1F23A2C75E97E7FF1F0A
:1058640023ACB75C97E7FF1F23A6A75C2A844146B5
:105874009305F00F26854AC006C6054997B0FF1F59
:10588400E78040186310250597E7FF1F9387C759E2
:10589400884BC145513541469305F00F228597B099
:1058A400FF1FE7802016854463189502224497E77A
:1058B400FF1F93876757B24092440249C847C145C6
:1058C400410199BD41468145268597B0FF1FE78078
:1058D4006013E31225FD4DBF41468145228597B0F3
:1058E400FF1FE7802012E30395FCB2402244924458
:1058F400024941018280411122C426C22E84AA8415
:1059040013060002814517E5FF1F1305E55106C67E
:1059140097B0FF1FE780800097E7FF1FA38797508A
:1059240097E7FF1F23848766EFC0A03C854719C112
:1059340081474945B240224417E7FF1F2306F74E2B
:10594400924441018280814781CD19C98547631BF7
:10595400F50083C7550093E707FCA382F50085474C
:105964003E85828089476317F50083C7550093F706
:10597400F703E5B70D478547E314E5FE03C7550074
:105984001377F70313670704A382E500D1BF8147A8
:105994008DC105C103C755009306000C85471377D5
:1059A400070C6308D700930600048D476303D700F0
:1059B40089473E858280411122C4005D06C626C205
:1059C4001DC8AA84085009C597C0FF1FE780C0B04E
:1059D400485009C597C0FF1FE78000B0085409C5A7
:1059E40097C0FF1FE78040AF228597C0FF1FE78065
:1059F400A0AE23AC0402B24022449244410182800E
:105A040009ED97E7FF1F83C7474217E5FF1F1305FB
:105A1400254381CB1385018A828017E5FF1F130577
:105A24002542828017E5FF1F03452540828097E7C2
:105A3400FF1F9387673FC847828097E7FF1F9387BD
:105A4400A73E884B828097E7FF1F9387E73DDC4B97
:105A54008843828097E7FF1F9387073DD84B1C43F9
:105A640085071CC317E5FF1F0345353C9307F00F5B
:105A74006305F50091656FE0EFF38280011122CC9C
:105A840006CE2E8432C6EF8020179147B245631F9D
:105A9400F5009387C18B9C438DC303A30700630E5A
:105AA400030022856244F240056102839387418B9F
:105AB4009C4381C703A34700DDB7F2406244054518
:105AC40005618280011122CC2A840355450006CE4B
:105AD40026CA4AC84EC6EF70507035C52A89834419
