:040000006F20C008A5
:10000400000000000000000090000020AA02002070
:10001400A9BDF9F560030020000000000000000005
:100024006003002090000020000000000000000099
:10003400900000200000000090000020000000005C
:1000440090000020900000209000002090000020EC
:10005400900000200C080020900000200000000008
:1000640090000020900000209000002090000020CC
:10007400C603002090000020900000209000002083
:1000840090000020900000209000002090000020AC
:1000940001A0B7F707000111944B13078008F33749
:1000A400078093F787083EC20F100000B71700407F
:1000B4001308700523800705930580FA2380B7048D
:1000C4000F10000003C6B7041376F60DA385C7040A
:1000D400238007041246732606800F10000013764F
:1000E400050255CEF336078093F6860836C40F1002
:1000F4000000238007052380B7040F100000B70613
:1001040014007D89558D88C701000100010001009C
:1001140023800704A246F3A606800F10000073375D
:100124000780137787083AC60F100000238007055D
:100134002380B7040F1000000F1000003727004081
:1001440093061005A303D78023800704B247F3A7BF
:1001540007800F10000093078008F3B7078093F718
:1001640087083ECE0F100000B71700401307700534
:100174002380E704130780FA2380E7040F100000AC
:1001840003C7B70413670708A385E704238007049C
:10019400F247F3A707800F100000056182801376F1
:1001A400050459C2733607801376860832C80F10C7
:1001B4000000238007052380B7040F1000003706D2
:1001C4001400130606047D89518D88C701000100BF
:1001D40001000100238007044246732606800F10A5
:1001E400000073370780137787083ACA0F1000009E
:1001F400238007052380B7040F100000A54793F65A
:10020400F60F639EF600B727004013073005A3835B
:10021400E780B717004023800704D2470DBFB727F4
:10022400004013072005E5B7733707801377870865
:100234003ACC0F100000238007052380B7040F1069
:10024400000098471367070C98C723800704E24708
:10025400FDBD0111814601468145114506CE91241B
:1002640093078008F3B7078093F787083EC60F10FB
:100274000000B7170040130770052380E704130735
:1002840080FA2380E7040F10000003C76704136794
:1002940017002383E70423800704B247F3A70780EA
:1002A4000F100000F2400561828041118146014631
:1002B40081451145FD2213078008F337078093F722
:1002C40087083EC40F100000B717004013067005DE
:1002D4002380C704930680FA2380D7040F100000FC
:1002E400FD552396B70223800704A245F3A5058094
:1002F4000F10000073370780137787083AC60F1072
:1003040000002380C7042380D7040F10000003C714
:100314006704136717002383E70423800704B247A5
:10032400F3A707800F10000001A0BD473305F502B5
:1003340001007D1575FD8280411122C426C206C6C6
:10034400AA84014463179400B240224492444101B8
:10035400828005041305803E4204C13F4180DDB71D
:100364009305000273A04580824573901534924032
:100374002242B2424243D2436244F244025592556D
:100384002256B2564257D2576258F25806499649F5
:10039400264AB64A464BD64B664CF64C065D965DED
:1003A400265EB65E465FD65F096173002030411158
:1003B400B7170040985F3AC6945F3247E39CE6FE65
:1003C400324541018280B717004013070003238898
:1003D400E702854723A0F18A73002030411106C645
:1003E400EF00007FF5BF2303048015472303E48057
:1003F40001002302A480828083076480E3CE07FE89
:1004040023030480828083076480E3CE07FE0345D0
:100414004480828083076480E3CE07FE2302A480A5
:100424008280411126C44AC24EC006C61377F50B1A
:10043400AD47AA892E8995446306F70019456537A7
:10044400653F8D444E854537FD59FD14639834014D
:10045400B240A244124982494101828013550901E4
:100464001375F50F453F2209CDB7011126CC06CEF1
:10047400B704080051371545BD37713769372AC6A7
:10048400A53F32459377150089EB13651500137565
:10049400F50FF240E24405618280FD14E9FC014558
:1004A400CDBF397126DC4ADA4ED852D656D45AD248
:1004B4005ED006DE62CE66CCB7E700E07D5783AA45
:1004C400070022C603AA470023A0E71823A2E718BF
:1004D400B7170040130770052380E704130780FA59
:1004E4002380E70483C74704930B75FFB684E207B0
:1004F40093FBFB0F8546AA892E8B32893724004053
:10050400E187015763FA76016308D500894613072A
:1005140000026313D5000157D98F93F7F70FB71C67
:1005240000402382FC0411472303E4801305F00FE9
:100534005D3D094CD135636D7C11B7050700DA9533
:1005440037870700795563F2E504B3879500636E36
:10055400F702370B0800A94733EB65016399F906E5
:1005640089E48144513D26850DA0DA850945553D30
:1005740005090345F9FFFD14050B693D81C4937713
:10058400FB0FFDF7DD3569FD7D55B71700401307F7
:1005940070052380E704130780FA2380E70403C768
:1005A4004704418B2382E704F250B7E700E023A01D
:1005B400571123A24711E25432445259C259325AB4
:1005C400A25A125B825B724CE24C21618280A54785
:1005D4006395F90685691309F00FB3069900B3749E
:1005E4002B01B6941349F9FFB3749900856B3379E1
:1005F4006901416B9387F9FFB3F7270199E363FC22
:10060400340193D94900C147E3E637FF99BF05692F
:10061400C1697D19D9B71305800D63886901130574
:1006240000026384790113051008CA85DD3B353D5A
:1006340021DD4E99B3843441D9B7DA852D45D533BC
:10064400CA94E30099F205097D3BA30FA9FED5BF27
:100654009387F9FF93F7F70F6361FC0C83C71C04BE
:1006640013073008631FF70437070800636BEB04B4
:10067400B3079B00B706100063F5D704334BEB00B8
:1006840089476393F9068980D549E38C04ECDA85BC
:100694000945413B11090327C9FF91472320E48001
:1006A40003076480E34E07FE23033481FD17EDFB4B
:1006B400FD14110B81C49377FB0FE9FF7D3371F5B2
:1006C400E1B5B717004003C75704B707080013770D
:1006D400070219E3B78707007955E378FBEA330784
:1006E4009B00E3FFE7F855B58547E382F9F2DA8525
:1006F4002D45053B9389F4FFE38504E6293393F7FD
:10070400390091EB832604800327090093074900ED
:10071400E39AE6E43E89CE84F1BFB5476396F900D7
:100724001305900BC93135BDB1471305B00AE38BEE
:10073400F9FE99476391F904B7050800B365BB0056
:100744002D45C53181448D4BA1497539639674019A
:10075400832704802320F9008504E39834FF83274A
:10076400048013172B01635507002312F900D5BB2E
:100774002322F900FDB39D476399F90281451305CE
:10078400B0044531BD442320090023220900FD594A
:100794009D3993F77400CA9703C70700FD14398D78
:1007A4002380A700E39634FF6DBBA1476392F9044D
:1007B4006D398144630D0B008D479304C0036308B6
:1007C400FB009304000563048B0193044004137538
:1007D400C507E30895D8194539313939054521311B
:1007E40026850D3909453D314931E31C05D669BBE0
:1007F40091476399F90013056006F536F53E130534
:1008040090090DB7E38F09D4F154A9BB197106C23D
:1008140012C416C61AC81ECA22CC26CE2AD02ED27C
:1008240032D436D63AD83EDA42DC46DECAC0CEC22C
:10083400D2C4D6C6DAC8DECAE2CCE6CEEAD0EED25C
:10084400F2D4F6D6FAD8FEDA938581898841E70096
:10085400050092402242B2424243D2436244F244EF
:10086400025592552256B2564257D2576258F25800
:1008740006499649264AB64A464BD64B664CF64C30
:10088400065D965D265EB65E465FD65F09617300BF
:100894002030B7E700E09843B706200023A0D7181C
:1008A400758F0F10000001C599C1814711E6B7E7A4
:1008B40000E023A0E7108280B386F50003C8060099
:1008C400B306F500850723800601E317F6FEC5B7D6
:1008D40037E700E01C43B70620002320D718F58F24
:1008E4000F10000019C191C111E637E700E0232081
:1008F400F7108280910503A7C5FF11057D16232EED
:10090400E5FEDDB737E700E01C43B70620002320EF
:10091400D718F58F0F10000001C53307C50011E685
:1009240037E700E02320F71082800505A30FB5FE0A
:10093400E31DE5FEF5B7B7E700E09843B7062000EE
:1009440023A0D718758F0F1000008147B306F50058
:100954008386060099E6B7E600E023A0E6103E850C
:1009640082808507E5B737E700E01C43B70620001F
:100974002320D718F58F0F10000001C599C1014736
:1009840011EA37E700E02320F710054582800507C8
:10099400E309E6FE3308E500B386E50003480800F2
:1009A40083C60600E305D8FE37E700E02320F710EE
:1009B4000145828037E700E01C43B706200023206E
:1009C400D718F58F0F1000001307F6FFBA952A9673
:1009D4006317C50037E700E02320F7108280FD1578
:1009E40003C715000505A30FE5FEDDB737E700E0F3
:1009F4001C43B70620002320D718F58F0F100000E2
:100A040001C53307C50019E637E700E02320F710D6
:100A14000145828005058346F5FFE397B6FEE31B97
:100A2400E5FE37E700E02320F71005458280797161
:100A3400973700009387875522D4804306D626D261
:100A44004AD04ECE52CC56CA5AC85EC669C037C9BF
:100A5400C901014B973900009389C9521309F93729
:100A6400173A0000130ACA52973A0000938ACA4CF4
:100A740097340000938484568357240095E35C44A0
:100A8400631D0B00173700002322F750832BC4008B
:100A94002285EF00F02C5E84A9A82326FB00FDB775
:100AA40083A7090082971C443307F5406375F5005A
:100AB400D8401D8F2A976361E9089737000023A562
:100AC40007488355240003450400973000E0E7807D
:100AD40080565C405844B9C70C44D040AE97BE869B
:100AE40063E4B70063E4C700B386C74014C4228B31
:100AF4003A8459F097370000938707449C4B094781
:100B04006373F708F91717370000232FF742B25021
:100B1400225492540259F249624AD24A424BB24B8D
:100B24004561828063170B009737000023A0E746D6
:100B3400B1BF2326EB0099BF03274A021DCF63E10F
:100B4400A7043385A7408347040085E317370000D3
:100B5400034777455917B307A7003E85D44063E49C
:100B6400E70063E4D7003385D74083A70A0163769F
:100B7400F5009737000023A9A73C228B404495BF7A
:100B8400D840BA977DBF9737000023AF073A41B7E3
:100B940097370000938707449C4385C3411106C6D9
:100BA40082979737000083C7C73D89E797370000CE
:100BB40023A20742B240410182809737000083C7D5
:100BC400473C91E79737000023A607408280828044
:100BD400411122C4173400001304C4381C4006C653
:100BE40026C24AC091C782979737000023AC0736C4
:100BF4009737000083C71758858B173900001309EE
:100C0400295789CF8347790019476312F71097371B
:100C14000000A3810756F9235C4482971C4491C3C6
:100C24008297973400009384243698401736000046
:100C3400034696309737000083C707309396170012
:100C4400BA9683D60600E5C29737000083C7C72E3D
:100C540063E5C70E973700002380072E1C40639E70
:100C64000714973700009387E7319C436387071481
:100C74009737000093878736DC4317370000232516
:100C8400F72C75339737000083C7374F63970712E4
:100C94009737000083C7574E91CF8347790093F766
:100CA400F70F89EB97370000A388074C979001E072
:100CB400E78040E3973700009387872DDC53638EEA
:100CC400070E97370000938727279C4BFDC7834760
:100CD400790015476363F70E9737000083C7C74E43
:100CE400918BE1EF9737000083C7A729F9E790407C
:100CF4009736000083C6562463C7D70C2244B240FB
:100D0400924402494101174300E06700639483471A
:100D140079001D47E314F7F097370000A38C0744CC
:100D2400D1211C48DDBD850793F7F70F97360000E6
:100D34002384F620E3E0C7F001BF86073E9783557E
:100D440007002310070097370000239B07229737DB
:100D540000009387E7209C43173500000345C51D19
:100D640013172500BA979C4382979737000083D7BF
:100D74002721173700000347271C93C7F7FF7D8DF2
:100D84009317170098403E97835707005D8D2310F3
:100D9400A7009737000083C7271A91C7850717371D
:100DA4000000230BF718173700000347E71897379D
:100DB400000083C77718E37FF7E8B24022449244E7
:100DC40002494101828013971700329703570700A5
:100DD4006DF7850715B737C700408326C720B707C7
:100DE400FCFFFD17F58F2326F7200100010097373C
:100DF400000093876714C84F832787262326D720AC
:100E04006A0593C7F7FF99835D8D8280011122CC17
:100E1400604126CA4AC84EC652C406CEAA841D4A98
:100E2400130965058549BC446364F4000545B9A00C
:100E340003C7D40083474400631A470503C78402E9
:100E44006304F7000040C5B70347540083C7540543
:100E5400E31AF7FE1946CA85130564002936E3131D
:100E640035FF0347C40083C79402E31DF7FC03570F
:100E7400E40083D7A402E317F7FC0145F24062447F
:100E8400D2444249B249224A05618280E31CF7FAFE
:100E94000347540083C75405E316F7FA1946CA8575
:100EA40013056400C934E31F35F9C1BF0111973735
:100EB40000009387273D22CC03A4070C26CA06CE44
:100EC4002AC42EC6854419E40145F2406244D24442
:100ED400056182808347910003471400858B630476
:100EE400F7000044CDB719469305A100130524006B
:100EF4009D3CE31895FE0545C9BF0000EFF05FC9AE
:100F04007300000000000000973200009382620723
:100F14000383020023800200630F0300F3251034CF
:100F24002EC0970500009385A5FD73901534EF003E
:100F3400204E7300203086DCEF00804DE650828026
:100F4400000017370000130767221443411122C41D
:100F54009C5E4AC006C6998326C2858B3A8417399B
:100F6400000013096920D1CB930700069CDE1737D4
:100F74000000034747209307000897340000938438
:100F8400241F631BF700832709009C4393F707047E
:100F9400173700002301F71E83C7040093F70704E3
:100FA4009DC3973700009387E7FD9C43829797374B
:100FB400000023ADA71C83C7040093F7F70B173772
:100FC40000002307F71A83C7440093F7070495E743
:100FD400854717370000A30FF7189737000093874A
:100FE400A71B9C433707020098C7130700FC9736DA
:100FF40000002381E6189848F8D318401C5F9183B9
:10100400858B8DC31C5F93E707011CDF97370000B6
:10101400938787189C4323A2070685471737000048
:10102400230AF71483270900D8430583058B19C7BE
:10103400D843759BD8C3D843799BD8C3B2402244C4
:101044009244024941018280ED3D730020309317A0
:10105400D50063D30702973700009387E7139C43B7
:101064007D57B8D797370000938707EDDC4F850786
:10107400173700002320F7EE937785009DCB973731
:10108400000083C7070F93E71700173700002302F8
:10109400F70E930700F817370000230DF70C973766
:1010A40000009387A70C98435C57F19B93E71700C4
:1010B4005CD7937715008DC79737000083C7570B0C
:1010C40093E7170017370000A304F70A97370000C7
:1010D4009387C70998435C57F19B93E717005CD744
:1010E4009377650095CB9377450017370000130776
:1010F4002708CDCB8347070093E717001737000075
:101104002308F706973700009387470698435C57F0
:10111400F19B93E717005CD79317F50063D407029C
:10112400173700000347871D418B973700009387CB
:10113400671551C383C7870793E707021737000072
:10114400230EF71A9317E50063D7070297370000B9
:1011540083C74702E207E18763D70700854717374C
:1011640000002309F700973700009387E7029C43A8
:101174003707020098C79317C50063D407021737CF
:1011840000000347B717058B973700009387870F35
:1011940029C383C7970793E7270017370000A30FD6
:1011A400F71482808347370093E71700173700004E
:1011B400A301F7FC81BF03C7870789463D8B6308FA
:1011C400D70083C787070D47BD8BE39DE7F691479B
:1011D400B5B703C79707118B69D783C7970793E7F9
:1011E400870065BF97370000938707FB94439737C1
:1011F40000009387E7F703C70700058B11CB9737E8
:101204000000238907F697370000A38507F682803C
:1012140003C71700058B65F7F85271FF83C75700A2
:10122400DDB717370000130767F403280700832787
:1012340088039583858BADEF11C683270803BD838F
:101244002300F6009DC61C43985B4607935767012D
:101254006356070093E707C0C207C18303970600DC
:10126400C207C18709C7BA970947B3C7E7022390E2
:10127400F6008DCD8345150095C99737000083C7C7
:1012840087EF93F7070413879500894585C33A953B
:10129400834705000547994593F6F7066398E600EA
:1012A400E207E187814563D30700B9452E85828033
:1012B4008545EDBF411126C206C622C497340000FD
:1012C400938484ED3DED9440AE87F8527DFF37F46E
:1012D40000E03E8597370000238D07E8832704D17B
:1012E400B285ED9B2328F4D0832704D193E78702AA
:1012F4002328F4D073005010978001E0E780E06564
:1013040097370000938787E69C43B706800098438D
:10131400558F98C3D857719BD8D797370000A38BA4
:1013240007E497370000A38507E49C40094798C366
:10133400832704D193E787002328F4D07300501047
:101344000DA08D476315F50497370000938707E2D6
:101354009C43B70680009843558F98C3D857719B18
:10136400D8D7944017370000130787E08347270036
:10137400858B89EB83473700858BC1CB973700007A
:10138400238A07DEB2402244924441018280854789
:10139400E319F5FCB7F700E003A707D16D9B23A879
:1013A400E7D003A707D11367870223A8E7D0730008
:1013B400501098408177FD175447F58F5CC70F1084
:1013C40000009840B70702001CC7930700F81736BF
:1013D40000002301F6DA97370000938727D99C434E
:1013E4009C439D83858B639FA700930760197CD3DF
:1013F40054C737F700E0832707D193E787002328F2
:10140400F7D02DBF9307E01BDDB7FC52A5F39DBFBA
:1014140097370000938747D89C438847D847798DEE
:1014240009C988C79387819403A307006303030052
:101434000283828097370000938707D69843896791
:10144400938707F47CD397370000938727DA9C436C
:1014540083A60709139656006358060083A6070956
:1014640013966600634406007453FDF282804111B2
:10147400B7E700E022C480433707200006C6798C12
:1014840023A0E7180F10000011C199E5B7E700E0A9
:1014940023A0871001457DA893073500C207C183A7
:1014A400F19BC207C183130740036369F70217372F
:1014B40000001307E7DC0843173700001307C7DBF6
:1014C40014436392A60217370000130767AC185B36
:1014D40055DFC207DD8D054502974DBF1737000064
:1014E4001307C7D9C9BF035765002DEB0357450040
:1014F4006366F706B306F7402146637CD6020328E9
:101504000500938687001D8FAA9661171736000081
:101514000356E6A22392E60023A0060123930600C5
:1015240014C12312F500130786FF97360000239891
:10153400E6A02313B5009735000083D545A0B387F3
:10154400F54017370000231CF79EB7E700E023A0FF
:1015540087102105B240224441018280084195B799
:10156400B7E700E08C433707200023A0E718F98D84
:101574000F10000001E523A0B71082809737000008
:10158400938707D003A30700973700009387C7CE3C
:1015940083A8070081469A8763F2170D03A8070002
:1015A4006361F50C636FA80A138787006368E50A13
:1015B40003D66700216705076317E60003C7019494
:1015C40005072380E194173500001305E59603D63B
:1015D400470003576500239307003297420741836E
:1015E400173E0000231DEE94638C6702173300003E
:1015F4001303C3C8032303006304F30203D3660085
:101604006310030283D7460023A0060121073E96F8
:1016140021062392C600973700002392E792B687EB
:101624009843630D170397360000938626C59442AA
:101634006306D7028356670095E283D647000356B4
:1016440047001843A106B2962392D70098C3835744
:101654006500A107173700002313F78EB7E700E0F2
:1016640019BFBE86C2870DBF032785116304071205
:101674000346E504854663000612411122C406C6EA
:101684008347C5002A8493F7C70F2306F5008345D3
:1016940097000358C7001395850161856370060997
:1016A400635905060345870093F5F507A304B700BE
:1016B40093E527006314D50093E517002306B400CF
:1016C4005C4389075CC3A30AC400032504114C438B
:1016D4000905EFF00F9C8327841103465401D4437A
:1016E40003D7C700B296118FD4C32396E700894766
:1016F400A30DF400034764039737000083C7678A88
:101704006377F7048347C40093E707012306F400D3
:101714003DA893E717002306F40075B71376F80F76
:10172400635D05020345870093E527006314D50034
:1017340093E517002306B400A30AC400A30407001A
:101744008547A30DF400832784119C43C5F7B24059
:101754002244814636854101828093E7170023069F
:10176400F400A30AC400A3040700032504114C4396
:1017740042860905EFF0EF91832784110346540153
:10178400D44303D7C700B296118FD4C32396E7007E
:101794008D4745BF854636858280973700009387FD
:1017A40027C19C43411122C406C6858B2A84C5EFF8
:1017B4004165130525F5976002E0E780E0A145C582
:1017C4008347A5002315F50083270412BDE72320D2
:1017D400A4122322A41285472311F4042320050014
:1017E4008347640154412316F5000347D4002304BE
:1017F400E5000547A304E5001737000013074797E2
:1018040058531385170215811C437D151375F50F65
:101814009CC25C43DCC21C479CC65C47DCC61C4BB8
:101824009CCA5C4BDCCA1C4F9CCE5C4FDCCE19CDF1
:101834009386060213070702C1BF8327441288C395
:10184400835724042322A412850779B7973700000D
:1018540083D7C7A38507173700002319F7A2B2401F
:101864002244410182808347C400230904000545C2
:1018740093C747002306F400DDB78347850193F738
:10188400E70FD5EF83479501DDEB0346250183463A
:10189400C50009CA8345650317270000034777700D
:1018A40063E7E50013F7060141CF014709C6C18A82
:1018B4000357651C81C68356A51C369751C313076D
:1018C400C712172500000355E571B335A702374643
:1018D4000F00411113060624814622C426C206C6FF
:1018E4007D543305A702979002E0E780607C972738
:1018F400000083C7576BB384A70097370000938712
:10190400679803A787098327070963F387003E8441
:10191400184375FB972700009387C7669C438297FB
:1019240081476364A400B307A440B2402244B3B720
:10193400970093C7170092443E85410182808147F6
:101944003E858280973700009387078598433C5BE8
:10195400FDFF010001008280011122CC4AC84EC65D
:1019640006CE26CA52C456C25AC00347B50085479C
:101974002A842E89832905096311F72683570508CC
:10198400835AC503172A0000130A4A65172B00005F
:10199400035B4B6563FB5721834605016397E62090
:1019A40003278511631307200327450A631F071EB6
:1019B4008346F5001D47639AE61E03471401B38A64
:1019C400FA4013950A01418121CF9377170099CBEF
:1019D4008357E40583560404958F63D5A7001395B4
:1019E400070141819377270099CB8357E4128356EB
:1019F4000404958F63D5A70013950701418193775C
:101A0400070199CB8357C41483560404958F63D577
:101A1400A700139507014181218B11E311E10545CD
:101A24000357A4039307204E832444093305A702D4
:101A340037460F008146130606243305F50297271F
:101A4400000083C74756B3549502B335AB02BE9426
:101A5400C204C180231394083305AB02979002E0BB
:101A6400E7800065B307350133B5A7002E953E879F
:101A740083264A0019E163E4D7003387D740B3844F
:101A84006403B7460F009387F62393860624232026
:101A9400E900A697B3D7D702D6976362F7101D8FD4
:101AA4002320E900972900009389C94D83A70900E1
:101AB40083240900829763E5A4123385A440635408
:101AC400050C83A709008297032709006361E512C7
:101AD400198D8357E403172700000357A7508E0777
:101AE400B387E7021307003293870719B3D7E702D6
:101AF40063E7A710374A0F00130BFA23972A000055
:101B0400938ACA4D130A0A248357040485072310B1
:101B1400F4048347041499E32285592222859740CB
:101B240002E0E780E05E75E9832604098327C408A0
:101B340003A74A00B6973E8563E4D70063E4E70051
:101B44003385E7408347F401835464082328A408B9
:101B54008507A30FF4009727000083D7A748B38411
:101B6400F402DA94B3D444036368950CB304954047
:101B740083A7090023209900829763E3A40C33858B
:101B8400A440E34305F89727000083C7D74163E7E0
:101B9400A7089727000023A78778014541A083263B
:101BA4004A00B387F6403E97E5BD8354640837473F
:101BB4000F009307F723B3846403BE9493070724A9
:101BC400B3D7F40263E7F900B387F9402320F9009F
:101BD400D1BD03274A00BA99C5BF23A03501D9B5A1
:101BE400972700009387873FDC43BE94F9B5972776
:101BF40000009387A73EDC43998F3E95D9BDA1454C
:101C04002285974002E0E7808049A305A402972734
:101C140000009387E7379C5B81EF7D55F240624477
:101C2400D2444249B249224A924A024B0561828017
:101C3400894515458297D5B7B3049740AA940DBF3B
:101C440083A74A00BE9425BF39C901116C0022CC78
:101C540006CE2A8411331DCDFD576302F502B24727
:101C64009725000083C5353463EFB700034594021C
:101C7400B385B7402EC6972000E0E7806053F2405A
:101C840062440561828017270000130727355843F3
:101C9400BA97E9BF975002E0E7800005CDB782808C
:101CA400797126D206D622D44AD04ECE52CC56CA08
:101CB4005AC85EC68347550303447513AA843E94E9
:101CC4001374F40F9307400263F687001304B4FD02
:101CD4001374F40F03AA841383AAC413A38B84126A
:101CE40022865285D685979002E0E780E036058902
:101CF40015E503CBD41201498149337B6403930B6B
:101D040050024A865285D685979002E0E780C03417
:101D1400058915C5639169031374F90F238B841224
:101D2400B250225492540259F249624AD24A424B66
:101D3400B24B456182808509E20993D9894105093D
:101D4400E31179FDE1BF8327850903560504797101
:101D540093D60701BD8EC206C182358E13577640D5
:101D640093575640898B058B5D8F93573640918BE3
:101D74005D8F93571640A18B5D8F93171600C18B0F
:101D84005D8F9317360093F707025D8F9317560004
:101D94009355860093F707041E065D8F1376F60F9E
:101DA400518F93D7554013D63540118A898BD18FE3
:101DB40013D67540D18F13D61540218AD18F13962F
:101DC4001500418AD18F1396350013760602D18F00
:101DD40013965500137606049E05D18F93F5F50FDF
:101DE400CD8FA20745465D8F3307C70222D42A84CC
:101DF40026D252CC56CA032A8413832AC4135AC83F
:101E040006D6369742074183935777401355574078
:101E14000989858BC98F135537401189C98F13558B
:101E240017402189C98F131517004189C98F1315CC
:101E3400370013750502C98F131557009355870092
:101E4400137505041E07C98F1377F70FD98F13D5A0
:101E5400354013D755401189098B498F13D57540E7
:101E6400498F13D515402189498F13951500418950
:101E7400498F1395350013750502498F1395550045
:101E8400137505049E05498F93F5F50F4D8F2207B1
:101E9400D98FB387C7024AD04ECE5EC662C4B69706
:101EA400C207C18313D7774013D557400989058BDF
:101EB400498F13D537401189498F13D5174021898C
:101EC400498F139517004189498F1395370013756E
:101ED4000502498F1395570093D5870013750504A0
:101EE4009E07498F93F7F70FD98F13D5354013D732
:101EF40055401189098B498F13D57540498F13D5E6
:101F040015402189498F139515004189498F1395EF
:101F1400350013750502498F139555001375050493
:101F24009E05498F93F5F50F4D8F2207D98FB387FF
:101F3400C702130650025285D685B697BD8E939478
:101F44000601C18033F6C402137BF60F979002E0BA
:101F5400E780801005890DED8347D412014981493A
:101F6400B3849702130C5002C1804A865285D685E9
:101F7400979002E0E780400E0589937BF90F11C525
:101F840063863403850993F9F90F0509E31F89FD75
:101F9400230B6413B250225492540259F249624AF8
:101FA400D24A424BB24B224C456182805E8BCDB704
:101FB4000111972700009387E72C22CC03A4870CF8
:101FC40026CA4AC84EC606CEAA84130925008549E6
:101FD40015C083C7140003473400858B6304F700DE
:101FE400405CFDB71946930544004A85EFE0BF976E
:101FF400E31835FF2285F2406244D2444249B24993
:10200400056182804111972700009387A72722C486
:1020140003A4870C26C24AC006C6930425000549BA
:1020240001E82285B240224492440249410182805F
:10203400A6851305A402977002E0E7808078E30286
:1020440025FF405CF1BF4111972700009387872348
:1020540022C403A4870C26C24AC006C693042500E2
:10206400054901E82285B2402244924402494101D3
:102074008280A6851305A401977002E0E78060744E
:08208400E30225FF405CF1BFFF
:10208C00971100209381C1C5174100201301C1761F
:10209C001305400097E5FF1F938505F617060020F2
:1020AC00130606FE63FAC5008322050023A0550023
:1020BC0011059105E3EAC5FE17B502001305853C31
:1020CC00970500209385C5FB1386018763FAC5002D
:1020DC008322050023A0550011059105E3EAC5FEF6
:1020EC0013850187972500209385452D6377B500CF
:1020FC00232005001105E36DB5FEFD42739002BC73
:10210C008D4273904280930280087390023097E264
:10211C00FF1F938262EE93E232007390523097125B
:10212C000000938222DB73901234730020303D4305
:10213C002A876373C3029377F700BDEFADE59376FF
:10214C0006FF3D8ABA960CC34CC30CC74CC741075B
:10215C00E36BD7FE11E28280B306C3408A06970276
:10216C00000096966780A6002307B700A306B70069
:10217C002306B700A305B7002305B700A304B700D7
:10218C002304B700A303B7002303B700A302B700CF
:10219C002302B700A301B7002301B700A300B700C7
:1021AC002300B700828093F5F50F93968500D58DAB
:1021BC0093960501D58D61B7939627009702000081
:1021CC0096968682E78086FA9680C1171D8F3E967A
:1021DC00E374C3F8A5B7B717004003C777051377A7
:1021EC00E70FA38BE704130700F8A38DE7043D4723
:1021FC00238CE70413075003A38CE70403C7A7053C
:10220C001377D70F238DE704828041112A83014E67
:10221C00930E407E130F0019930F400663E56E1268
:10222C009308001913034006B3781503854E0D4F20
:10223C00A14F337365020D891335150063EFBE1280
:10224C001308F6FF794672984208135808013307B1
:10225C00C70213D61700BE0732976146B3F6C60203
:10226C0013068070B386C6023697A166F58F4207B7
:10227C005D8FB716004083C7F60293F70708A303D8
:10228C00F1000346710083C7F60293F70708E39445
:10229C00C7FE83477100B716004093F7F70F6388AA
:1022AC00071293078008F3B7078093F787083EC49B
:1022BC000F100000B7170040930670052380D70459
:1022CC00930680FA2380D7040F10000023AA07037B
:1022DC0083C6170393E60608A388D7022380070456
:1022EC00A247F3A707800F1000001166B717004034
:1022FC007D16D45BC85F93854703A98EF18EF5FAE2
:10230C0093068008F3B6068093F6860836C60F103F
:10231C000000930670052380D704930680FA23806F
:10232C00D7040F10000098C103C7170313670704E5
:10233C00A388E70223800704B247F3A707800F1096
:10234C000000410182807D133368E3039308E0169B
:10235C00630E08003368F3039308D0166308080073
:10236C009378330093B818009388D81633081E015D
:10237C00131E0801135E0E0155B56393E503054862
:10238C00638608000148630303002A887108729869
:10239C00FD15131E0801C205135E0E01C18179BD26
:1023AC0013F8150063F4BF007908D5B7133818007B
:1023BC00E5BF83C7F60293F70708A303F1000346B2
:1023CC00710083C7F60293F70708E394C7FE8347AF
:1023DC00710093F7F70FF1DFE9B5914763EEB702A0
:1023EC0017A702001307C73A8A05BA959C41BA97FA
:1023FC008287B717004003A7470B1345F5FF698F7A
:10240C0023AAE70A03A7070B698F23A8E70A03A7E8
:10241C00070A798D23A0A70A8280B717004083A6EC
:10242C00470B1347F5FFF98E23AAD70A83A6070B90
:10243C00558D23A8A70A83A6070A758F23A0E70A40
:10244C008280B717004003A7470B498F23AAE70ADE
:10245C0003A7070B1345F5FF45BFB717004083A62D
:10246C00470B1347F5FF758F23AAE70A03A7070A43
:10247C00598D4DB7B717004003A7470B498FEDB7E0
:10248C00B71700408847420541819377050491EBCB
:10249C009377F5013755E801130505803345F502AF
:1024AC0082809377050C130700046397E7009377FA
:1024BC00F50137459C1CCDB72165130505D08280ED
:1024CC00B7F700E08847CC47828081473737004018
:1024DC00A14663C4C700328582800345B740E38EB2
:1024EC00A6FE3385F5000345050085072304A740A8
:1024FC00CDB7970700209387A7FE9C431727002092
:10250C001307C7EB3E95636EE500174700201307D2
:10251C00A70E6368A700170700202323A7FC3E859E
:10252C008280FD57EDBF411122C406C62A84893F23
:10253C002947B307E502B2408D83B3D78702224403
:10254C009507B3D7E70237370040C207C18323167C
:10255C00F74041018280716541111305052006C6C3
:10256C00D937B7370040130770F82381E7400D4780
:10257C00A381E74013070004A380E74005472387A6
:10258C00E740B24041018280CC41411106C6328500
:10259C0003C6150083C5050022064D8E42068D65C7
:1025AC004186138875A2630C060F6348C804138810
:1025BC0045A26306060B634AC800938535A26309DE
:1025CC00B60623900600294679A0138855A2630805
:1025DC00060B938565A2E316B6FEC1451D4663EC5A
:1025EC00E5064546198E63F3C7003E862390C60068
:1025FC0097A502009385051C89A8138895A26300F2
:10260C00060F634E060B1388A5A2630A060F93856B
:10261C0005A5E318B6FA99451D4663EEE502198E39
:10262C0063F3C7003E862390C6009385C18031A812
:10263C009D451D4663E1E5022146198E63F3C700F3
:10264C003E862390C60093850187BA9597E0FF1FBD
:10265C00E780A0230146B240328541018280AD451E
:10266C001D46E3EAE5FE3146198E63F3C7003E864C
:10267C002390C60097A5020093858517F9B7B1453D
:10268C001D46E3EAE5FC3546198E63F3C7003E862A
:10269C002390C60097A50200938585167DB7C1458A
:1026AC001D46E3EAE5FA4546198E63F3C7003E86FC
:1026BC002390C60097A502009385051179B7C145F3
:1026CC001D46E3EAE5F84546198E63F3C7003E86DE
:1026DC002390C60097A5020093858513BDB7C1450D
:1026EC001D46E3EAE5F64546198E63F3C7003E86C0
:1026FC002390C60097A502009385450EB9B7B54542
:10270C001D46E3EAE5F43946198E63F3C7003E86AD
:10271C002390C60097A502009385C5083DB7970680
:10272C0000209386E6A84146CD45170500201305E9
:10273C0025956FA0C0062D453DEF03C50500094743
:10274C006317E5063285D041411106C603471600D2
:10275C000346060041682207518F130628FE6308C2
:10276C00C7026369E600051863030703239006009C
:10277C0029451DA8130648FE630BC7001518E3175F
:10278C0007FF15473E866377F700154621A03E8666
:10279C0091C30546CC452390C6004206418297E082
:1027AC00FF1FE780800E0145B240410182802390DB
:1027BC00060005458280828083C7850093F7070257
:1027CC00DDE7411106C622C403C40500894E2E88DC
:1027DC008547631AD40383AE4500B28883C71E00B5
:1027EC0083CE0E00A207B3E7D701C16E138F1EFE76
:1027FC006380E7038D1E6387D7050D681308289047
:10280C0063810707A947B24022443E85410182807B
:10281C00AD4775FB0547B547E367D7FE0325C800F1
:10282C000546C68597E0FF1FE78020060144938785
:10283C0041899843814761DB184371D72285029700
:10284C008147D1B7AD4761F30547B547E36DD7FA7B
:10285C000325C8000546C68597E0FF1FE780E00208
:10286C00F9B72244B240854741016F800037A14738
:10287C003E85828041677917630CE502411122C4C1
:10288C0006C685472A84639AF50022852244B24005
:10289C009385818841016F90707B89476396F50021
:1028AC008545EFC0C03675D1B240224441018280CB
:1028BC008280411122C42A844165938581887D15CB
:1028CC0006C6EF90B078170500001305E5FA0588E9
:1028DC00EFC0202B05C02244B240970600209386FF
:1028EC00E69E4146C545170500201305258D41017F
:1028FC006F90F06AB240224401454101828009C5C3
:10290C0023AAA18801458280454582801147636EC8
:10291C00A70697A602009386E6F00A05369518419D
:10292C00411106C63697AE87B285028705476145C9
:10293C00639AE70005461385818797E0FF1FE780C0
:10294C00C0F40145B2404101828005476145E39BDB
:10295C00E7FE05461385C187CDB705476145E3936F
:10296C00E7FE054613850188C9BF05476145E39B12
:10297C00E7FC054613854188C9B715476145E393C4
:10298C00E7FC15461385C1884DBF09458280114768
:10299C00636AA704AA8717A702001307E7E98A0747
:1029AC00BA979C43411106C6BA972E858287054675
:1029BC009385818797E0FF1FE78020EDB2400145AA
:1029CC004101828005469385C187EDB70546938505
:1029DC000188CDB7054693854188E9BF1546938597
:1029EC00C188C9BF09458280411122C42E849385B8
:1029FC00818826C206C6AA84EF80E018058915C115
:102A0C0097F7FF1F9387877B83D7A70BA285B240CD
:102A1C002310F400224426859244014641016F8024
:102A2C007073B24022449244494541018280411165
:102A3C0093962500AA852D4506C697E0FF1FE780D3
:102A4C00C0A5B240014541018280011122CC06CEC5
:102A5C003714004026CA4AC84EC652C48344740573
:102A6C00034AB4058349840503499405EFF0AFF696
:102A7C008347A40593F4F40F137AFA0F93E7170026
:102A8C00230DF40493F9F90F1379F90FB7170040DC
:102A9C0003C7A705058B6DFF03D5C705A38D470598
:102AAC00238C3705A38C2705A38B9704F240624433
:102ABC00D2444249B249224A05618280011193975E
:102ACC00050122CC06CEC1872E8463DD0700EF10F2
:102ADC00A01319C1EF1020072165218DF24062442B
:102AEC000561828093F7150013C51500E5FB93F77C
:102AFC00250013C52500FDF39397250163D3070625
:102B0C00EF70A161B717004003C7E7029306800876
:102B1C001377C70F13671700F3B6068093F6860872
:102B2C0036C60F100000930670052380D704930659
:102B3C0080FA2380D7040F1000002387E70223803C
:102B4C000704B247F3A707800F10000037F6020006
:102B5C00130606E0896503C5C189EF10606C096531
:102B6C00ADBF939715010145E3DA07F617A50200EF
:102B7C00130545D2EF80522913060064916503C5F5
:102B8C00C189EF10E069116589BF2D71232A91105D
:102B9C00FD74E98C232C811023282111232631115B
:102BAC002A84AE893289930600100A86A6852D45A3
:102BBC00232E111097E0FF1FE780208E1315440180
:102BCC0051810A0513962900CA850A9597E0FF1FC3
:102BDC00E780A0CBA68585660146254597E0FF1FBB
:102BEC00E780A08B0A86A68593060010294597E0FE
:102BFC00FF1FE780808A8320C11103248111832465
:102C0C004111032901118329C11015618280B7F785
:102C1C00070003C70701411106C622C426C24AC0D9
:102C2C00A547631AF7009537B240224492440249F3
:102C3C0001454101828013942500AA843289A28621
:102C4C00AA850146254597E0FF1FE7800085A286EF
:102C5C004A86A685294597E0FF1FE7800084E9B7DF
:102C6C001D71494697A50200938545BE17A5020024
:102C7C001305052486CE97E0FF1FE78040CE01E9BF
:102C8C0017A502001305C5BDEF80121801A0B7F6F9
:102C9C0000E0795798CAFD57DCCA0567B7E700E032
:102CAC0023A0E7101306F00290C223A0E7180F1020
:102CBC00000017E7FF1F1307A72423ACE188415737
:102CCC00A38AE740130600048145080897E0FF1F1C
:102CDC00E780C0C2970700209387879A3EC8896710
:102CEC0093870780231AF1009D673ECCB707010537
:102CFC00938707103ECEED472310F1028547230141
:102D0C00F102970700009387C7D2BEC29707000055
:102D1C00938727F0BEC48567938757D12312F1029E
:102D2C00B7F5070097F7FFFF9387C7793ED8814621
:102D3C00970700009387A7D13000E10519453EDCC9
:102D4C0097D0FF1FE78060751808814799463000BF
:102D5C003E960346060085070507A30BC700E398BC
:102D6C00D7FEC24791C70357410185676373F700CC
:102D7C0001A08307410263D7070493078008F3B7C8
:102D8C00078093F787083EC40F100000B717004068
:102D9C00130770052380E704130780FA2380E704E8
:102DAC000F100000B847B706100013670718B8C714
:102DBC009853558F98D323800704A247F3A7078015
:102DCC000F1000000808EF107030AA8501C917A574
:102DDC000200130525AAEF80827101A0F64025613F
:102DEC008280411117050000130585CD06C622C44B
:102DFC00EF10102A1384C1892300A400192803455D
:102E0C0004002244B24013060032896541016F1060
:102E1C002041797106D613078008F337078093F7A2
:102E2C0087083EC20F100000B717004093057005CD
:102E3C002380B704130680FA2380C7040F10000008
:102E4C0083C6F70293F6D60FA387D7022380070415
:102E5C009246F3A606800F10000073370780137795
:102E6C0087083AC40F1000002380B7042380C704DE
:102E7C000F10000003C7F70213675700A387E70280
:102E8C0023800704A247F3A707800F100000814797
:102E9C0001478146054685451305407EEFF0EFB6A8
:102EAC0068005146814597E0FF1FE78020A5B707D2
:102EBC00C0A83EC8B78732003ECA680097D7FF1F2C
:102ECC009387674E3EC6EF105054B25045618280D6
:102EDC0041111305800406C697D0FF1FE780E01A46
:102EEC00371700408327870A8D451305002093E789
:102EFC0007202324F70AEFF04FCEEFF0CFE517A50C
:102F0C0002001305E5FAEF802270993BD93DEFE002
:102F1C008131EFE04138EF009027EF00A06997D0A6
:102F2C00FF1FE780204B411117A50200130505B5C3
:102F3C0006C6EF80C25BB2408547A383F18A41018C
:102F4C008280B305B04017A502001305E5BD6F8064
:102F5C00025A834725003547636CF72417A70200F4
:102F6C00130787938A07BA979C43797122D406D6A4
:102F7C0026D24AD04ECEBA972A84828703C7818A3A
:102F8C00A54763EAE70603494500930955008144C8
:102F9C00171400201304C4EE03C5818A63E4A4064D
:102FAC000E0509051946CE85229597E0FF1FE7808F
:102FBC00C08D83C5818A93973500850593F5F50FF0
:102FCC001386F5FFA2970E062296A3802701238471
:102FDC00B18A83487600034866008347560003474E
:102FEC004600834636000346260017A5020013054B
:102FFC00A59DEF80C24FB250225492540259F2490F
:10300C00456182809395340089051946A2954E85B9
:10301C0097E0FF1FE780A09479FD850493F4F40FEB
:10302C00A5BF05041374F40F83C7818A637DF40074
:10303C009315340089051946A6954A8597E0FF1F1C
:10304C00E780E09179DD83C7818A639E870217A5AB
:10305C0002001305E599EF80225B014685450D457D
:10306C002384018AEFB0015717A502001305C594FC
:10307C00EF80825949B7014497140020938444E0AF
:10308C001389C18155B717A502001305A597EF80C9
:10309C00A257971700209387A7DE0E0493062400EF
:1030AC003E9403461400BE9681450145EFB0214F76
:1030BC000566130606C89305000803C5E18AEF10E0
:1030CC00201617A502001305E5945DB793050008BB
:1030DC0003C5E18AEF10403F83451400B9ED035559
:1030EC00A4008947A384F18A2391A1828547A383F5
:1030FC00F18A03C6E18ADD476C002316F100EF600C
:10310C00207B13060064A14503C5E18AEF10401132
:10311C000564130604C8C14503C5E18AEF104010CD
:10312C00130604969305000403C5E18AEF10400FC3
:10313C0017A502001305058F25BF17A5020013055F
:10314C00658FEF80C23A17A502001305E586EF8064
:10315C00A24B2384018A014685450D45EFB081477A
:10316C0059BDA384018AF9579305000403C5E18A6C
:10317C002391F1822383018A2392018A2384018A79
:10318C00A383018AEF1040348345640017A5020025
:10319C001305058CEF80A23517A502001305C58118
:1031AC00EF8082464DBF17A502001305258CC9B5CB
:1031BC008280011122CC36C606CE2E84EF00D04779
:1031CC00B24637460F00130606243376C50291CA61
:1031DC00B28517A502001305259432C6EF80223163
:1031EC00324622856244F240814505616FC0E15F41
:1031FC0081E9B28517A502001305058B6F80222F7C
:10320C008547639DF50017A502001305258B09C69C
:10321C0017A502001305858B6F80023F89476398C1
:10322C00F50017A502001305658B7DD682808D47AE
:10323C00E39EF5FE17A502001305458B71DEB285E2
:10324C0017A502001305C58B55BF7971939705011E
:10325C0026D206D622D44AD0C187AE8463DE071E9E
:10326C0003C5E18AEF00501A2A8415C503470500EF
:10327C009307000B631EF70083C7918A09478345A8
:10328C004500130985006380E7024A85EF60D03B57
:10329C002285EF00500B2165258DB250225492549B
:1032AC000259456182800D476381E50205476390B1
:1032BC00E50203478500631AF7028345C50017959D
:1032CC0002001305E560EF808222A383018A034785
:1032DC0044009307F007631AF70083558400179591
:1032EC00020013056560EF808220834744002D4760
:1032FC006387E7020547639CE70203478400A946FE
:10330C006311D7048345C400179502001305855E2D
:10331C00EF80E21DA383018A83454400BDB75C4462
:10332C00179502001305055E83C50700D5B74D47F9
:10333C006393E7029305A005179502001305C55E7C
:10334C00C1BFC9466316D7028345C4001795020056
:10335C001305455C75BF6D47639CE7005C4417958E
:10336C0002001305655D83C50700EF8042186DB739
:10337C0003C7618A55D385466319D7081D47639CDB
:10338C00E7028357840085CB5C4417950200130534
:10339C00E55B83C5170003C6370003C7070083C767
:1033AC002700A2052206D98D5D8E2396B18A23951E
:1033BC00C18AEF80C213834744001D476395E7041D
:1033CC0003471400E947E399E7F483D7C18AA9D7E7
:1033DC002314F1009387A18A83D70700094703C6FA
:1033EC00E18A2315F100F977938727102316F10052
:1033FC002C00FD5703D521822383E18A2307F1009A
:10340C00EF60605511BF05477DBF8946E316D7F0C5
:10341C0025476390E7048357840085CF5844930570
:10342C00000213060064834717000347070003C517
:10343C00E18AA207D98F2392F18AA383018AEF0034
:10344C00305E83D5418A179502001305E552EF8053
:10345C00020A2383018AC9B593F7150085C317F6B1
:10346C00FF1F130666EE97F5FF1F938525ED03C529
:10347C00E18AEFB0210D13C5140005B593F70508CB
:10348C0081CB41657D15EFD0D15713C5040831B5FB
:10349C0093F7850085CB81572314F1002392018A81
:1034AC002395018A2396018A854783C6E18A0946BA
:1034BC002C0003D521822383F18AEF60006813C5A9
:1034CC008400E1BB93F7050191CF1307802581465A
:1034DC0013064006D14503D52182EFD0115213C5F6
:1034EC00040165BB93F70502CDC383C7718AA5E7B9
:1034FC0003C7418283D7418A03D521822DC7231468
:10350C00F1000147854781460546C945231801004E
:10351C002315F100EF60204C2AC615CD9307A005AA
:10352C002300F50003C6E18A2C0003D52182EF604D
:10353C0000430DE58547A383F18A83C7418293B786
:10354C001700130600649305000203C5E18A238269
:10355C00F182EF00F04C13C5040281B3C945280079
:10356C00EF60900ECDBF03C6E18A2C002314F1004E
:10357C00EF60203E6DF18547A383F18A83C74182BA
:10358C0093B717002382F182F9B793F7050401452D
:10359C00E38507D003D52182EFD0F14505661306EC
:1035AC0006969305000403C5E18AEF00704713C526
:1035BC000404E5B1011117050000130545C906CE39
:1035CC0022CCEF10E02C1384E18A85652300A40043
:1035DC00938505960945EF30600AD1451D45EF30BE
:1035EC00E009930540062145EF304009930540065C
:1035FC003545EF30A00885470D4770009145130500
:10360C00F0402304F100A304F1002305E100A3051D
:10361C00F10002C6EFC0C14430008545130580405F
:10362C00EFC0014413069100854513059040EFC08F
:10363C0021431306A10085451305A040EFC041426C
:10364C001306B10085451305D040EFC06141EF7002
:10365C00E03003450400EF60D05C7D55EF50B06660
:10366C007D55EF90801B1796020013066633D545E7
:10367C000145EF50F053034504008545EF00B01AA7
:10368C00F2406244056182802A86B305B0401795EA
:10369C0002001305E54D6F709265011106CE19C538
:1036AC000947630FE500F240056182806C00EFF082
:1036BC000FAE179502001305E557EF70F274E5B7DE
:1036CC006C00EFF0CFAC1795020013056558F5B7F9
:1036DC0083D7018B6390A7022399B18A239AC18A5D
:1036EC00239BD18A2E861795020013056546BE854D
:1036FC006F70F25F17950200130505476F70D2705B
:10370C0003574500011106CE83D7018B631FF702C7
:10371C00C167F917894503C5C18223A8F18A23AA79
:10372C00018AEF00705A914503C5C182EF00D05950
:10373C0085471306F100854513055030A307F100AA
:10374C00EFD08179F2400561828017950200130554
:10375C00A541EF70726BFDB73D897D15954763ED03
:10376C00A712179702001307273D0A053A951C412B
:10377C00411122C406C6BA972E848287179502007F
:10378C00130585402244B24041016F70F26703C7B4
:10379C0025009947631CF7002E859D3783456400EF
:1037AC00179502001305453FEF70725417950200F0
:1037BC0013054540C1BF03C7250095476312F702A7
:1037CC00C16703D7018BF91703D5A500630FF70069
:1037DC00EFD03123179502001305C53EEF70D2626E
:1037EC00179502001305854071BF2398A18A83D7D2
:1037FC00E5001306006403C5C1822399F18A83D7BF
:10380C000501239AF18A83D725018945239BF18AE7
:10381C00EF001021096613060690A14503C5C1826D
:10382C00EF0010200566130606C8914503C5C1823A
:10383C00EF00101F0356E4008355A40017950200F7
:10384C0013058539EF70B24A61BF17950200130555
:10385C00A53A0DBF83C72500114717950200130524
:10386C00253BE381E7F219476394E7022E85493D36
:10387C00834564002244B240179502001305C531FC
:10388C0041016F70D246179502001305253ADDBD34
:10389C00B24022444101828082800111939705013C
:1038AC0022CC06CEC1872E8463DD070003C5C182FE
:1038BC00A12E11C1492C2165218DF2406244056174
:1038CC00828093F7150085C317F6FF1F130686A891
:1038DC00970500209385C55F03C5C182EFD0212CCD
:1038EC0013451400D9BF93F72500A9CF1306006424
:1038FC00894503C5C182EF00B012930780F82302FB
:10390C00F1000147854781460546ED4503D5018BFE
:10391C002315F100EF60200C2AC615C10356A10037
:10392C004C0097D0FF1FE78040F62C0003D5018B8D
:10393C00EFF08F8B09C5ED452800EF60E050134583
:10394C002400A5BF93F7850085C383C7C1821307E5
:10395C004006814613064006D14503D5018BEFD0B6
:10396C00611F1345840091BF93F745000145B1D702
:10397C0003D5018BEFD031080566130606C89145B7
:10398C0003C5C182EF00D009134544003DB77971DE
:10399C00170500001305A5F006D622D426D2EF0099
:1039AC00306F9384C182D14705442380A400231A2D
:1039BC00F100100893074006854513055030231C71
:1039CC00F10023088100EFD0215117F6FF1F1306D9
:1039DC00A69AF14513057030EFD001501386018380
:1039EC009D4513056030EFD0214F500889451305D4
:1039FC001031EFD0614E3008894513052031EFD0DE
:103A0C00A14D930500050D45EF205047930500058A
:103A1C001145EF20B0463008914513057040230442
:103A2C008100230681002308810002CC230A0100B7
:103A3C00EFC001033000854513050040EFC0410283
:103A4C007000854513051040EFC081015008854575
:103A5C0013052040EFC0C1001008854513055040E8
:103A6C00EFC001007D55EF5010267D55EF80F05AC8
:103A7C00EFE0FFCA7D55EFE0DFE317F6FF1F1306FB
:103A8C00268ED5450145EF50B01289472306F1002B
:103A9C008D472308F1009147230AF1009387818613
:103AAC00984383C747003000854501453ACC230E27
:103ABC00F10023048100EFE07FE5700085450545AA
:103ACC00EFE0DFE4100885450945EFE03FE45008DE
:103ADC0085450D45EFE09FE3300895451145EFE036
:103AEC00FFE2C1671387018BF9171CC32322070060
:103AFC0013858182EFE0BFE003C5040085452523D3
:103B0C00B250225492544561828023AC05FE1C4174
:103B1C0091E7010001000CC18280BA8703A787FFDF
:103B2C006DFF23ACB7FE8280184183A785FF631914
:103B3C00B7001CC1FD5723AC05FE238FF5FE828018
:103B4C00232CF6FEC5BF411122C437E400E026C287
:103B5C0004403707200006C6F98C2320E4180F1008
:103B6C00000009E9232094101545B24022449244E8
:103B7C00410182800347E5FF9307F00F6306F700CE
:103B8C00232094101145D5B797E0FF1FE780C09C08
:103B9C00014523209410D1BF411126C2B7E400E0A7
:103BAC004AC003A90400B707200006C622C4337913
:103BBC00F90023A0F4180F10000009E923A0241128
:103BCC00B24022449244024941018280956593851A
:103BDC0005D0C98D2A842105C2054205C1814181C8
:103BEC0097E0FF1FE780208801CDFD5723200500BB
:103BFC00231285002303F50023A024112105C9B746
:103C0C0023A0241101456DBF0111B7E700E04AC89C
:103C1C0003A907004EC63707200006CE22CC26CAC1
:103C2C00AA893379E90023A0E7180F100000970741
:103C3C0000209387672F80438144014619E499E85B
:103C4C00A1654E85EF00500805A08347E4FF6399FA
:103C5C00370385CCA685170500201305E52CE9351F
:103C6C0065D0A1654E85C126F2406244B7E700E0FD
:103C7C0023A0271126854249D244B249056182808E
:103C8C0091E02286032484FF55BFA284E5BF411135
:103C9C004AC037E900E022C403240900370720009A
:103CAC0006C626C2798C2320E9180F10000089E57E
:103CBC0023208910154515A0AA849707002083C7D7
:103CCC00F7262E8563F5F400894763EE9700A53D32
:103CDC00B7E700E023A087100D45B2402244924480
:103CEC0002494101828083A785FF99E703C7E5FF5D
:103CFC009307F00F6308F700B935B7E700E023A08E
:103D0C0087104DBF238F95FE170500201305C52185
:103D1C00ED3BA1652685012E01452320891075BF39
:103D2C009707002023A20720828097070020938703
:103D3C0027259C4399E33E85828003D72700631691
:103D4C00B70003C70700E308A7FEDC47E5B7A5C12A
:103D5C00011106CE22CC26CA8147C14633D7F54085
:103D6C00058B29C312053E9531473305E50217072C
:103D7C00002013072725044305443314F4002EC6F2
:103D8C0042044180AA949C40C8408297B24523A02B
:103D9C00040023A20400A18DF2406244D2442E857B
:103DAC00056182808507E39BD7FA0144EDB72E8528
:103DBC008280C9C1797122D406D626D24AD04ECE81
:103DCC0001444147B3D78540858BA5C312053147C4
:103DDC0022953305E502970700209387A71E03A9B8
:103DEC0007008544B3948400C204C180BE892A991B
:103DFC000327090011C7032549002EC60297B245B7
:103E0C0031473304E40283A709003E941C4489E73C
:103E1C002320090023220900B2502254A58D0259F7
:103E2C009254F2492E85456182800504E31CE4F826
:103E3C008144DDB72E8582804111B7E700E022C4B2
:103E4C0080433707200006C626C2798C23A0E718CA
:103E5C000F100000970700209387C7129C53938480
:103E6C00818399C782979C403E9523ACA18239A04F
:103E7C0097070020938747109C43EDF78840B7477E
:103E8C0003009387D73F3305F502B7A72600938726
:103E9C0037ECB24092443E9523ACA182B7E700E0E8
:103EAC0023A087102244410182800111B7E700E072
:103EBC0022CC80434AC83707200006CE26CA2A895E
:103ECC002E86798C23A0E7180F100000131506011D
:103EDC009305F004418132C697D0FF1FE780A058AC
:103EEC00AA8419C53246CA8597D0FF1FE780E0998E
:103EFC00B7E700E023A08710F240624426854249D0
:103F0C00D244056182807971B7E700E022D4804306
:103F1C003708200006D626D24AD04ECE52CC56CAEE
:103F2C005AC85EC662C43374040123A007190F106B
:103F3C00000005E123A087100945B2502254925489
:103F4C000259F249624AD24A424BB24B224C456169
:103F5C00828097070020938727029C43BA8A368A6F
:103F6C00B28B2E8BAA89829797070020938787059F
:103F7C0098433E898144B146C147338CD402330601
:103F8C008701104241EAC165938505F0414597D000
:103F9C00FF1FE780404D05E197070020938787FEC0
:103FAC009C5B81C7814511458297B7E700E023A050
:103FBC0087102D4559B797070020938767FC9843C6
:103FCC0031E79707002023ADA7FA230005008327CC
:103FDC000900054733179700232605002324750194
:103FEC002311E50023225501E29723A0370123A2D8
:103FFC00670123A4570163040A0023009A00B7E762
:10400C0000E023A0871001450DBF3E875C47F5FFFC
:10401C0048C765BF8504E392F4F6B7E700E023A038
:10402C008710214519BFB7E700E09843B706200079
:10403C0023A0D718758F0F1000009706002083C699
:10404C00F6EE6373D50217060020130626F39316BB
:10405C0015000842369583560500D58D2310B50002
:10406C0023A0E7100145828023A0E7100D45828034
:10407C00B7E700E09843B706200023A0D718758F48
:10408C000F1000009706002083C656EA6375D50210
:10409C0017060020130686EE93161500084293C5EA
:1040AC00F5FF369583560500F58D2310B50023A03A
:1040BC00E7100145828023A0E7100D458280011195
:1040CC0037E700E026CA0443B706200006CE22CC10
:1040DC004AC84EC652C4F58C2320D7180F100000C6
:1040EC00130705FF1377F70FFD4763E5E70AB146A2
:1040FC00B306D502970700209387C7EC98433697F1
:10410C001C43C9CB135A450005443D893315A40003
:10411C001314050141802E895285A2853931AA8953
:10412C0029CDA2855285A937970700209387C7E42C
:10413C009C4382979707002083D707EA338727038E
:10414C002A84814613060064B3B72703130507328C
:10415C00B335E500BE95EF60B274B30785009706E2
:10416C0000209386E6E63E87D44263E4A70063E42E
:10417C00D7003387D74023A4E900B7E700E023A09A
:10418C0097100145F2406244D2444249B249224A56
:10419C0005618280B7E700E023A097100945DDB7E1
:1041AC000111B7E700E026CA84433707200006CE8A
:1041BC0022CC4AC84EC6F98C23A0E7180F10000079
:1041CC00BD4763E9A70431473307E5029707002091
:1041DC00938747DF9C43BA979C438DCF0544331498
:1041EC00A400420441802E890145A2853D3EAA8946
:1041FC0011C5A2850145AD3D23A42901B7E700E017
:10420C0023A097100145F2406244D2444249B2497E
:10421C0005618280B7E700E023A097100945E5B758
:10422C0079714AD037E900E026D283240900B70718
:10423C00200006D622D44ECE52CC56CA5AC85EC6E0
:10424C00FD8C2320F9180F1000009707002083C75E
:10425C00F7CD637AF500970700209387E7D183ABFE
:10426C00070063970B00B7E700E023A09710A9A005
:10427C00170B0020130BCBD5832A4B00B74736FE08
:10428C00938707C82E8A9705002083D5E5D4BE9A5C
:10429C00B387C5022A84B2898146B3B5C50213859A
:1042AC000732B337F50013060064BE95EF60525F1A
:1042BC0063F0AA02232099100145B2502254925463
:1042CC000259F249624AD24A424BB24B4561828052
:1042DC00829B9705002083D525D0B38735032A8987
:1042EC00130600648146B3B5350313850732B33723
:1042FC00F500BE95EF60D25AB30725013E8903271E
:10430C004B0063E4A70063E4E7003389E740D28500
:10431C002285EFF09FA109C923242501B7E700E00E
:10432C0023A09710054551BF936504F0C205C181C8
:10433C00414597D0FF1FE780001319E9970700202C
:10434C00938747C49C5B85D3A2851145829721BF77
:10435C00970700209387C7C29C4385E797070020E7
:10436C0023A0A7C28547232605002324250123115A
:10437C00450123008500A300F5002322050079BF29
:10438C00BA87D84775FFC8C7F1BF7971B7E700E0A6
:10439C0026D284433707200006D622D44AD04ECEEC
:1043AC0052CC56CA5AC85EC662C466C26AC0F98C80
:1043BC0023A0E7180F1000003DC14144B689B28A12
:1043CC002E8A2A89B14C170B0020130BABBF054D5D
:1043DC00130C0003B30B940303270B005E971C43D1
:1043EC00A5E39375F400B315BD0013554440C20505
:1043FC005686C1811375F50F253539C183270B00FE
:10440C00DE9723A0270123A24701638409002380A0
:10441C008900B7E700E023A09710014521A023A055
:10442C0097100945B250225492540259F249624AEB
:10443C00D24A424BB24B224C924C024D4561828087
:10444C000504E31984F9B7E700E023A09710214590
:10445C00D1BF0111B7E700E026CA844322CC4AC879
:10446C004EC63707200006CE2A84AE893289F98CD5
:10447C0023A0E7180F10000065332285CE85EFF0DE
:10448C00DF8A2A8405C59705002083D5E5B4B38758
:10449C002503130600648146B3B525031385073243
:1044AC00B337F500BE95EF60B23F48C0133514002A
:1044BC00F2406244B7E700E023A097104249D2448F
:1044CC00B2490E05056182800111B7E700E04AC8C8
:1044DC0003A9070022CC4EC63707200006CE26CAF9
:1044EC00AA892E843379E90023A0E7180F10000065
:1044FC00EFF0BF83AA8419C123110500A2854E8554
:10450C00853E9707002083C767A2639B37019707F7
:10451C00002083D727A65D8C97070020239C87A4B7
:10452C00B7E700E023A02711014591E01945F240BF
:10453C006244D2444249B2490561828001114AC8A1
:10454C0037E900E022CC03240900B707200006CE8F
:10455C0026CA4EC67D8C2320F9180F100000930735
:10456C00F00263E8A704B147B304F50297090020F1
:10457C00938949A583A70900A6979C439DCB937764
:10458C00F5008545B395F500C205C18111812D3F1C
:10459C0083A709000145A69723A0070023A20700C3
:1045AC0023208910F2406244D2444249B249056149
:1045BC008280B7E700E023A087100945E5B74111D9
:1045CC00B7E700E026C2844306C622C437072000A2
:1045DC00F98C23A0E7180F100000EFF00FF519E984
:1045EC000145B2402244B7E700E023A09710924463
:1045FC004101828097070020938707989C430045D0
:10460C008297970700209387A79C6368A402D843DE
:10461C00B74636FE938606C83305A4403697E37139
:10462C00E5FC13070064B335E50203D68700814629
:10463C003305E502EF60D2266DB7D8433A94C1BF7B
:10464C00411122C426C21704002013046498970455
:10465C0000209384A48D944858409707002093879A
:10466C00A79106C69C436393E60882975440B747CC
:10467C0036FE938707C8B6973387A7003A856364DD
:10468C00F7006364D7003305D74097040020938468
:10469C0064ADDC5081CF97070020938767B49443B7
:1046AC003707CDFF7D179C46F98F9CC611E148401A
:1046BC00970700209387078DDC53829719E5DC5010
:1046CC008DC3EF50D13CEF40B17EDC5099CB9707B6
:1046DC0000209387E7B09843B70633001C47D58F6B
:1046EC001CC7B24022449244410182808297944874
:1046FC005840B387A6003E8563E4D700E3E7E7F8AC
:10470C003385E74059B7411106C69707002023AF00
:10471C00A78A0295B2409707002023A5A7820145DE
:10472C0041018280994763E9B7008A059707002009
:10473C0093878782BE9588C182809707002023A526
:10474C00A78811C58547170700202306F7828280AA
:10475C0041117146814517F5FF1F1305E57F06C60C
:10476C009707002023AE07809707002023A0078619
:10477C009707002023A2078097F7FF1F238D077E42
:10478C009707002023A2078497C0FF1FE78000171C
:10479C0013068002814517F5FF1F1305257997C075
:1047AC00FF1FE780A015EFC0313A97F7FF1F9387E3
:1047BC00677D03C5C70383C7D70385453E958D47E2
:1047CC003305F50239051375F50F97F7FF1F238095
:1047DC00A77699473305F5021305052497D0FF1FDB
:1047EC00E78060C817F7FF1F232EA77C59CD994788
:1047FC0017F6FF1F0346A6733306F6028145130610
:10480C00062497C0FF1FE780600F97F7FF1F938761
:10481C00677B9C439387072417F7FF1F232CF772A2
:10482C0017F7FF1F0347A7700A07BA9717F7FF1F61
:10483C002326F774EFF0CFCEE12997F7FF1F93876C
:10484C006771944397F7FF1F83C7576E1397270021
:10485C00369717F6FFFF1306065610C3138717007B
:10486C001377F70F0A07369717F6FFFF1306664EF6
:10487C0010C313873700890793F7F70F8A0797F54B
:10488C00FF1FA385E56AB69790C3B24041018280B1
:10489C0097F7FF1F83C7976917F7FF1F0347276910
:1048AC0063F3E70217F7FF1F1307C76A18439386D2
:1048BC00170017F6FF1FA30BD666939627003697A3
:1048CC0008C33E8582809307F00FE5BF1C416384CB
:1048DC00071641777D8FB70600208947631ED714D2
:1048EC0003574500630A0714411122C419462A8450
:1048FC009305F00F610506C697C0FF1FE780800E79
:10490C0005478D476304E5121C4481CB58589947E1
:10491C00630E0710185C630B071013060004814527
:10492C0017F5FF1F1305056697C0FF1FE78000FDF5
:10493C0013060004A28517F5FF1F1305A56497C085
:10494C00FF1FE78080F497F7FF1F83D7676417F783
:10495C00FF1F1307276399E79307001097F6FF1FB4
:10496C002398F66297F7FF1F83C7A76291E78547E5
:10497C0097F6FF1F238FF66097F7FF1F83D787618A
:10498C0091E7ED4797F6FF1F2396F66097F7FF1F09
:10499C0083C7376091E7954797F6FF1FA38BF65EA9
:1049AC0097F7FF1F83C7275F91E7854797F6FF1F90
:1049BC002383F65E97F7FF1F83C7F75D99E783475D
:1049CC00F70097F6FF1FA388F65C97F7FF1F83C7C6
:1049DC00B75C81CF93F63700898317F6FF1F23014D
:1049EC00D65E97F6FF1FA38DF65C97F7FF1F83C764
:1049FC00A75A91E7D54797F6FF1F238FF6588347A1
:104A0C00640199E79307C00397F6FF1F2387F658B5
:104A1C001C5791C7829797F7FF1F239DA750FD57EF
:104A2C0017070020A304F78225338147B2402244A4
:104A3C003E854101828089473E85828001114EC6A8
:104A4C0097F9FF1F9389C95883A7090006CE22CC7A
:104A5C0026CA4AC852C4829713090064B335250389
:104A6C0003DA89008146528633052503EF604263E1
:104A7C0097F7FF1F9387874B804FAA8401456306E6
:104A8C00940233858440636E940003A549005286DA
:104A9C008146B335A9023305A902EF606260018D2E
:104AAC00269597F7FF1F23AF9748F2406244D244F4
:104ABC004249B249224A05618280011122CC0A8501
:104ACC002E84414697850200938585CB06CEEF60F8
:104ADC00B216180806043A94035504FF97F7FF1F03
:104AEC0083D7A74FF2406244AA9737450F001305AE
:104AFC0005243355F5020561828097F7FF1F83D794
:104B0C00C74D51471D45637CF702794719456378BA
:104B1C00F7021307200315456373F7021307B0045C
:104B2C001145637EF700130740060D456379F700C6
:104B3C001307600909456374F70013B5B70F82803A
:104B4C00011122CC06CE2A842EC6EFF0EFAEB24570
:104B5C00F240818D33A5A502229562441375F50FA1
:104B6C0005618280011122CC06CE2A842EC6EFF07C
:104B7C00AFACB245F240818D33A5A50222956244BB
:104B8C004205418105618280011122CC06CE2A8426
:104B9C002EC6EFF06FAAB245F240818D33B5A50257
:104BAC00229562440561828097F7FF1F9387873DAA
:104BBC00985739CB411122C426C206C6BE8402972F
:104BCC0017F7FF1F035707372A8415CBBA87637370
:104BDC00A700AA87C207C183BA866373E400A286C2
:104BEC00C206C182958F5147635BF700DC5491C3B9
:104BFC008297EF50815297F7FF1F239D8732B24067
:104C0C002244924441018280828097F7FF1F23AB9C
:104C1C00073C97F7FF1F9387E736DC57011106CE49
:104C2C00AA8581C72AC68297B245CDC19C4105454C
:104C3C00D9CBDC41C9CB83D78500D1C783D7A5009D
:104C4C00D9C3514617F5FF1F1305853897C0FF1FB1
:104C5C00E780A0C397F7FF1F2382073897F7FF1F42
:104C6C00938707379C4317F7FF1F2327F73097F7D6
:104C7C00FF1F83C797328DE79307805717F5FF1FE8
:104C8C00035585353305F50237460F001306062408
:104C9C0081468145EF60C24097F7FF1FA38FA72E77
:104CAC0017F7FF1F0347772FA54763E7E700A947CF
:104CBC0017F7FF1FA303F72E17050000130545D8A0
:104CCC00EFF07FA40145F2400561828097F7FF1F4A
:104CDC0023AC072697C7FF1F9387670F17F7FF1F94
:104CEC002328F72E7D5797F7FF1F23A5E72EB787AD
:104CFC003200938727A197F6FF1F23AFF62C97F767
:104D0C00FF1F238D072CB7C7004023A4E726B9B794
:104D1C00011122CC17F4FF1F1304C426084406CE3D
:104D2C0026CA4AC801E90545F2406244D2444249C8
:104D3C00056182805C58E5DB185C75D77000854591
:104D4C0082971844B247E300F7FE9305E00417F589
:104D5C00FF1F0355E52397C0FF1FE780C07017F7AF
:104D6C00FF1F2325A71E61D117F6FF1F03564622EE
:104D7C009305F00F97C0FF1FE78040B8814417F9E7
:104D8C00FF1F1309A91A97F7FF1F83C78720032654
:104D9C00090263C1F402328597C0FF1FE780C07B14
:104DAC00014597F7FF1F23A3071A97F7FF1F23A1AE
:104DBC00071A9DBF97F5FF1F83D5851DB3879502F5
:104DCC000844185C898185043E9508C2029765BF2A
:104DDC00011156C297FAFF1F938ACA1A83A78A0039
:104DEC0022CC4AC84EC606CE26CA52C45AC0AA897C
:104DFC002E8432896386072203A74A0363090714AA
:104E0C001307F01F6367A71497F4FF1F9384041212
:104E1C0003AA040263170A0A9565938515E017F532
:104E2C00FF1F0355E51697C0FF1FE780C06397F778
:104E3C00FF1F23ADA7102A86630B051083A74A0317
:104E4C0003A58A0097F5FF1F83D585148981829766
:104E5C0083A78A0003AA040217F7FF1F232AF70E61
:104E6C008947639CF908C1476313F40E97F5FF1F3C
:104E7C0083D50512938505FC9147B3C5F5028A05C8
:104E8C00D29503C725009307A005631EF70A83D7A5
:104E9C000500639A370B4A852286910597C0FF1F40
:104EAC00E780A09E9C505285639347150145F240C4
:104EBC006244D2444249B249224A924A024B0561A9
:104ECC008280D850E38EE7F89565938525E017F539
:104EDC00FF1F0355E50B97C0FF1FE780C0582A8AB8
:104EEC003DC52A8683A74A0303A58A0097F5FF1FB1
:104EFC0083D5050A89818297A5B78D47639DF900F3
:104F0C00C1476316F40497F5FF1F83D56508938595
:104F1C0045FDF199B5B79147639AF90063193403CC
:104F2C0097F5FF1F83D5C506A115E5B793070010AC
:104F3C00639FF900A14763EC870097F5FF1F83D5AA
:104F4C002505C115F9B79C5052856396470D294527
:104F5C00B9BF1D6A568B6371450B130A05E01947DF
:104F6C00334AEA0217F7FF1F0357870297FAFF1F0E
:104F7C00938ACAFB330AEA023E9A83A74A026395D4
:104F8C00470183A40A029DE49305E00417F5FF1F73
:104F9C000355050097C0FF1FE780E04CAA8445D954
:104FAC0083274B0397F5FF1F83D585FE2A868981BE
:104FBC005285829791451307A00589819397250007
:104FCC00A69783C627006393E60483D60700639CE9
:104FDC00360385058A052286A6954A8597C0FF1F4C
:104FEC00E780A08A83A70A02E38297EC268597C004
:104FFC00FF1FE78060565DBD21677917E369A7F451
:10500C00330A454185B783C5370045BF83A70A02DC
:10501C00E38F97F2268597C0FF1FE780E05305BF0B
:10502C0097F7FF1F938787F08C5395D19147930681
:10503C00A0058983139727002E9703462700E318B2
:10504C00D6F003560700631C360185078A072286B3
:10505C00BE954A8597C0FF1FE780208381BD83479B
:10506C003700C1BF97F7FF1F9387C7F1984739C720
:10507C009C5FA9C705476313E504411122C417F4CB
:10508C00FF1F1304A4EA105006C60DC6485097F52E
:10509C00FF1F83D5E5EF89818297085097C0FF1FCA
:1050AC00E780804B97F7FF1F23A207EA97F7FF1FB4
:1050BC0023A007EAB2402244410182808280011180
:1050CC0017F7FF1F130707EC4EC68329870022CC66
:1050DC0026CA4AC806CE52C456C2AA842E84328925
:1050EC00638B09201C5FBA8A99EB2945F240624414
:1050FC00D2444249B249224A924A056182805C5BA1
:10510C00EDD79307F01F63EAA70E97F9FF1F93895A
:10511C00E9E183A70902B1CB03A58A0083A7490261
:10512C006395A70689476393F408C147E31FF4FA14
:10513C0017F5FF1F0355C5E59147130505FC3345CE
:10514C00F5029317250003A509022286CA853E9510
:10515C009307A0052301F50023109500110597B0C6
:10516C00FF1FE7808072014551B79305E00417F5E6
:10517C00FF1F0355E5E197C0FF1FE780C02E97F78F
:10518C00FF1F23A5A7DC49F98DB783A74A0303A604
:10519C00090297F5FF1F83D5A5DF8981829783A725
:1051AC008A0017F7FF1F2325F7DAADBF8D47639EE3
:1051BC00F400C147E31BF4F217F5FF1F035545DD5F
:1051CC00130545FD9377C5FFBDBF9147639AF40066
:1051DC00E31D94F017F5FF1F035585DB2115DDB793
:1051EC0093070010E393F4F0A147E3E087F017F581
:1051FC00FF1F0355E5D94115F1B79D676379F50696
:10520C00930705E01947B3C7E70217F7FF1F0357CA
:10521C0027D817FAFF1F130A6AD1B387E702BE9982
:10522C0083270A02A1CF83274A02639937070325F4
:10523C000A0291461308A0059305F00F93D7260098
:10524C00139727002A9703462700631F06078358E6
:10525C0007000346370063959806B306D64063CF24
:10526C00860485078A072286CA853E95CDBD2167AF
:10527C007917E36CA7E6B307F54041BF9305E0044B
:10528C0017F5FF1F0355C5D097C0FF1FE780A01D62
:10529C0097F7FF1F23ACA7CA59F581BD83A74A0313
:1052AC0003260A0297F5FF1F83D585CE89814E858B
:1052BC00829797F7FF1F23AD37C995BF2310B7000F
:1052CC0093160601C1829DBFB385860017F6FF1F9A
:1052DC00035606CC9105130606FCE368B6E01306EC
:1052EC003400719A1106B29623010701231097001E
:1052FC00A301D700BDB797F7FF1F938727C394531C
:10530C00BE89A9C203A5090291461308A0059305FD
:10531C00F00F93D72600139727002A9703462700F0
:10532C0063180605835807000346370063989800F6
:10533C00B306D640E3D786F22310B70093160601C6
:10534C00C182C1BF8357C70017F5FF1F034565C452
:10535C009305E0043305F5024205418197C0FF1F18
:10536C00E780601097F7FF1F23A2A7BE41FDB5BBD6
:10537C0017F6FF1F0356C6C197F5FF1F83C565C1FE
:10538C00B385C502338686001106E3E0C5D681BF1E
:10539C0001458280011106CE2EC6EF90007501C921
:1053AC00B245F2400355250005616FD0B042F24082
:1053BC00494505618280A380018E2380018E23A440
:1053CC00018C23A6018C23A8018C23AA018C23A277
:1053DC00018C23A0018C97F7FF1F9387E7C29306DC
:1053EC0040382391D702F1761307400B938606B809
:1053FC002391E7002392D70211679D4613060005FF
:10540C009305000A1305007D2392E7002393D7022E
:10541C0041478546130810F82395E7002396E700CB
:10542C002399E700239AE700239BE700239CE700DE
:10543C002394E702239007002393B7002394B7002B
:10544C002397C7002398C700239DA700239E07001E
:10545C00239F0700239007022395D7022396070367
:10546C00239707029308F007239807022392E70477
:10547C002393E704239FE7042390E7062391E70691
:10548C002392E706239917031307C01C239AD7020C
:10549C00239BD702239C0702239D0702239E07020E
:1054AC00239F0702239007042391D7042394070416
:1054BC00239507042396D7042397C7042398C7047E
:1054CC002399A704239A0704239B0704239C07040E
:1054DC00239DC704239EC7042393A7062394070682
:1054EC0023950706239607062397B7062398B70636
:1054FC0023990706239AE7065147239DE7067D5714
:10550C00239B0706239C0706239ED706239F07068B
:10551C00239007092391E7088280011126CAAA84E7
:10552C00214522CC06CE2E8432C636C43AC2EFE0D8
:10553C00AFE61DC9A24612473246930700FD230071
:10554C00F5009947A30095002301F5002303D5002E
:10555C00A303E5002312C500AA8522856244F2400C
:10556C00D24405616FE0AFF2F2406244D24405616F
:10557C00828023A4A18C828023A6A18C828023A864
:10558C00A18C828023AAA18C8280011122CC4AC8D2
:10559C0006CE26CA2A890144B30489006368B40084
:1055AC00F2406244D2444249056182802EC6EFE04B
:1055BC00BF8893170501C183A183B2452380F400F2
:1055CC009307140093F7F70F850463F9B700CA9794
:1055DC0009042380A7001374F40F7DBF3E847DBFA4
:1055EC00C16717F5FF1F035585A0FD176304F5026E
:1055FC00411117F6FF1F034626B59385818D06C60C
:10560C00EF90402CB240FD5717F7FF1F2311F79E68
:10561C0041018280828009C925151375F50F133558
:10562C00850E13451500828001458280239005006C
:10563C00C9C6797122D426D24ECE52CC5AC806D6BF
:10564C004AD056CA5EC63684328AAE892A8B8144C9
:10565C0063F34407B307940083C70700138914004E
:10566C004209939A070193DA0A01135909016384D9
:10567C000A04CA976341FA04B307240183CB0700D9
:10568C005E85513F0DC99387FAFF2390F900639013
:10569C006B03130519002295B250225492540259EF
:1056AC00F249624AD24A424BB24B45618280D6944F
:1056BC00C204C18071BF0145C5B70145828041114B
:1056CC0026C2AE8422C497F7FF1F23A9C79297F76F
:1056DC00FF1F23A3B79297F7FF1F23ADA7902A8430
:1056EC0041469305F00F26854AC006C6054997B07A
:1056FC00FF1FE780202F6310250597F7FF1F938767
:10570C00A78E884BC145513541469305F00F228534
:10571C0097B0FF1FE780002D854463189502224443
:10572C0097F7FF1F9387478CB24092440249C847B2
:10573C00C145410199BD41468145268597B0FF1F62
:10574C00E780402AE31225FD4DBF41468145228565
:10575C0097B0FF1FE7800029E30395FCB240224479
:10576C009244024941018280411122C426C22E84F6
:10577C00AA8413060002814517F5FF1F1305C58681
:10578C0006C697B0FF1FE780601797F7FF1FA38E21
:10579C00978497F7FF1F238B879AEFD0F0058547E7
:1057AC0019C181474945B240224417F7FF1F230D09
:1057BC00F782924441018280814781CD19C9854786
:1057CC00631BF50083C7550093E707FCA382F50024
:1057DC0085473E85828089476317F50083C755004E
:1057EC0093F7F703E5B70D478547E314E5FE03C7C9
:1057FC0055001377F70313670704A382E500D1BFA5
:10580C0081478DC105C103C755009306000C854720
:10581C001377070C6308D700930600048D476303C6
:10582C00D70089473E858280411122C4005D06C69F
:10583C0026C21DC8AA84085009C597C0FF1FE7805F
:10584C00A0D1485009C597C0FF1FE780E0D008548D
:10585C0009C597C0FF1FE78020D0228597C0FF1F86
:10586C00E78080CF23AC0402B24022449244410131
:10587C00828009ED97E7FF1F83C7277717E5FF1F86
:10588C001305057881CB1385818B828017E5FF1F6B
:10589C0013050577828017E5FF1F03450575828088
:1058AC0097E7FF1F93874774C847828097E7FF1FCE
:1058BC0093878773884B828097E7FF1F9387C77204
:1058CC00DC4B8843828097E7FF1F9387E771D84BA7
:1058DC001C4385071CC317E5FF1F03451571930770
:1058EC00F00F6305F50091656FE0EFF38280011115
:1058FC0022CC06CE2E8432C6EF90E02F9147B245D3
:10590C00631FF5009387418D9C438DC303A3070050
:10591C00630E030022856244F24005610283938783
:10592C00C18C9C4381C703A34700DDB7F24062449E
:10593C00054505618280011122CC2A84035545005E
:10594C0006CE26CA4AC84EC6EF90000935C52A892C
:10595C00834405008349C500C13D4A85EF90206909
:10596C0003554400EF90602483C7018EB1CB63993B
:10597C00970483C5118E2685EFF0DFA119E12380F2
:10598C00018E03554400EF9000279147631FF500EB
:10599C000357440097E7FF1F83D767656317F7002A
:1059AC00FD5717E7FF1F2314F764F2406244D244FB
:1059BC004249B2490561828081499304F00F6DB769
:1059CC009307F00FE38FF4FA834664000356440008
:1059DC00034524004E87A685EFF03FB45DB779717F
:1059EC005EC6AA8B2E8552CC56CA5AC806D622D46D
:1059FC0026D24AD04ECEAE8A328B368AEF80D07DFC
:105A0C007DC1045D2A89E5C09C50614599C313058D
:105A1C0040039C5481C751054205418163050A002E
:105A2C00710542054181DC5081C75D05420541810C
:105A3C00EFE08F962A8445C96146814597B0FF1FD8
:105A4C00E780C0EB97E9FF1F83C9095F63940900E6
:105A5C0083490900930700FD2300F400A947A30024
:105A6C0074012301F400230364018C5023125401AC
:105A7C001305840191C908C47146930A440397B075
:105A8C00FF1FE78080E056858C5491C948C451466D
:105A9C00930A450197B0FF1FE78020DF5685630C02
:105AAC000A0008C87146D285930AC50197B0FF1F3A
:105ABC00E780A0DD5685CC5099C548C85D4697B0A7
:105ACC00FF1FE78080DCA2854E85EFE04F9C2254BF
