:040000006F20C008A5
:10000400000000000000000090000020AA02002070
:10001400A9BDF9F560030020000000000000000005
:100024006003002090000020000000000000000099
:10003400900000200000000090000020000000005C
:1000440090000020900000209000002090000020EC
:10005400900000200C080020900000200000000008
:1000640090000020900000209000002090000020CC
:10007400C603002090000020900000209000002083
:1000840090000020900000209000002090000020AC
:1000940001A0B7F707000111944B13078008F33749
:1000A400078093F787083EC20F100000B71700407F
:1000B4001308700523800705930580FA2380B7048D
:1000C4000F10000003C6B7041376F60DA385C7040A
:1000D400238007041246732606800F10000013764F
:1000E400050255CEF336078093F6860836C40F1002
:1000F4000000238007052380B7040F100000B70613
:1001040014007D89558D88C701000100010001009C
:1001140023800704A246F3A606800F10000073375D
:100124000780137787083AC60F100000238007055D
:100134002380B7040F1000000F1000003727004081
:1001440093061005A303D78023800704B247F3A7BF
:1001540007800F10000093078008F3B7078093F718
:1001640087083ECE0F100000B71700401307700534
:100174002380E704130780FA2380E7040F100000AC
:1001840003C7B70413670708A385E704238007049C
:10019400F247F3A707800F100000056182801376F1
:1001A400050459C2733607801376860832C80F10C7
:1001B4000000238007052380B7040F1000003706D2
:1001C4001400130606047D89518D88C701000100BF
:1001D40001000100238007044246732606800F10A5
:1001E400000073370780137787083ACA0F1000009E
:1001F400238007052380B7040F100000A54793F65A
:10020400F60F639EF600B727004013073005A3835B
:10021400E780B717004023800704D2470DBFB727F4
:10022400004013072005E5B7733707801377870865
:100234003ACC0F100000238007052380B7040F1069
:10024400000098471367070C98C723800704E24708
:10025400FDBD0111814601468145114506CE91241B
:1002640093078008F3B7078093F787083EC60F10FB
:100274000000B7170040130770052380E704130735
:1002840080FA2380E7040F10000003C76704136794
:1002940017002383E70423800704B247F3A70780EA
:1002A4000F100000F2400561828041118146014631
:1002B40081451145FD2213078008F337078093F722
:1002C40087083EC40F100000B717004013067005DE
:1002D4002380C704930680FA2380D7040F100000FC
:1002E400FD552396B70223800704A245F3A5058094
:1002F4000F10000073370780137787083AC60F1072
:1003040000002380C7042380D7040F10000003C714
:100314006704136717002383E70423800704B247A5
:10032400F3A707800F10000001A0BD473305F502B5
:1003340001007D1575FD8280411122C426C206C6C6
:10034400AA84014463179400B240224492444101B8
:10035400828005041305803E4204C13F4180DDB71D
:100364009305000273A04580824573901534924032
:100374002242B2424243D2436244F244025592556D
:100384002256B2564257D2576258F25806499649F5
:10039400264AB64A464BD64B664CF64C065D965DED
:1003A400265EB65E465FD65F096173002030411158
:1003B400B7170040985F3AC6945F3247E39CE6FE65
:1003C400324541018280B717004013070003238898
:1003D400E702854723AEF18873002030411106C639
:1003E400EF00007FF5BF2303048015472303E48057
:1003F40001002302A480828083076480E3CE07FE89
:1004040023030480828083076480E3CE07FE0345D0
:100414004480828083076480E3CE07FE2302A480A5
:100424008280411126C44AC24EC006C61377F50B1A
:10043400AD47AA892E8995446306F70019456537A7
:10044400653F8D444E854537FD59FD14639834014D
:10045400B240A244124982494101828013550901E4
:100464001375F50F453F2209CDB7011126CC06CEF1
:10047400B704080051371545BD37713769372AC6A7
:10048400A53F32459377150089EB13651500137565
:10049400F50FF240E24405618280FD14E9FC014558
:1004A400CDBF397126DC4ADA4ED852D656D45AD248
:1004B4005ED006DE62CE66CCB7E700E07D5783AA45
:1004C400070022C603AA470023A0E71823A2E718BF
:1004D400B7170040130770052380E704130780FA59
:1004E4002380E70483C74704930B75FFB684E207B0
:1004F40093FBFB0F8546AA892E8B32893724004053
:10050400E187015763FA76016308D500894613072A
:1005140000026313D5000157D98F93F7F70FB71C67
:1005240000402382FC0411472303E4801305F00FE9
:100534005D3D094CD135636D7C11B7050700DA9533
:1005440037870700795563F2E504B3879500636E36
:10055400F702370B0800A94733EB65016399F906E5
:1005640089E48144513D26850DA0DA850945553D30
:1005740005090345F9FFFD14050B693D81C4937713
:10058400FB0FFDF7DD3569FD7D55B71700401307F7
:1005940070052380E704130780FA2380E70403C768
:1005A4004704418B2382E704F250B7E700E023A01D
:1005B400571123A24711E25432445259C259325AB4
:1005C400A25A125B825B724CE24C21618280A54785
:1005D4006395F90685691309F00FB3069900B3749E
:1005E4002B01B6941349F9FFB3749900856B3379E1
:1005F4006901416B9387F9FFB3F7270199E363FC22
:10060400340193D94900C147E3E637FF99BF05692F
:10061400C1697D19D9B71305800D63886901130574
:1006240000026384790113051008CA85DD3B353D5A
:1006340021DD4E99B3843441D9B7DA852D45D533BC
:10064400CA94E30099F205097D3BA30FA9FED5BF27
:100654009387F9FF93F7F70F6361FC0C83C71C04BE
:1006640013073008631FF70437070800636BEB04B4
:10067400B3079B00B706100063F5D704334BEB00B8
:1006840089476393F9068980D549E38C04ECDA85BC
:100694000945413B11090327C9FF91472320E48001
:1006A40003076480E34E07FE23033481FD17EDFB4B
:1006B400FD14110B81C49377FB0FE9FF7D3371F5B2
:1006C400E1B5B717004003C75704B707080013770D
:1006D400070219E3B78707007955E378FBEA330784
:1006E4009B00E3FFE7F855B58547E382F9F2DA8525
:1006F4002D45053B9389F4FFE38504E6293393F7FD
:10070400390091EB832604800327090093074900ED
:10071400E39AE6E43E89CE84F1BFB5476396F900D7
:100724001305900BC93135BDB1471305B00AE38BEE
:10073400F9FE99476391F904B7050800B365BB0056
:100744002D45C53181448D4BA1497539639674019A
:10075400832704802320F9008504E39834FF83274A
:10076400048013172B01635507002312F900D5BB2E
:100774002322F900FDB39D476399F90281451305CE
:10078400B0044531BD442320090023220900FD594A
:100794009D3993F77400CA9703C70700FD14398D78
:1007A4002380A700E39634FF6DBBA1476392F9044D
:1007B4006D398144630D0B008D479304C0036308B6
:1007C400FB009304000563048B0193044004137538
:1007D400C507E30895D8194539313939054521311B
:1007E40026850D3909453D314931E31C05D669BBE0
:1007F40091476399F90013056006F536F53E130534
:1008040090090DB7E38F09D4F154A9BB197106C23D
:1008140012C416C61AC81ECA22CC26CE2AD02ED27C
:1008240032D436D63AD83EDA42DC46DECAC0CEC22C
:10083400D2C4D6C6DAC8DECAE2CCE6CEEAD0EED25C
:10084400F2D4F6D6FAD8FEDA938541898841E700D6
:10085400050092402242B2424243D2436244F244EF
:10086400025592552256B2564257D2576258F25800
:1008740006499649264AB64A464BD64B664CF64C30
:10088400065D965D265EB65E465FD65F09617300BF
:100894002030B7E700E09843B706200023A0D7181C
:1008A400758F0F10000001C599C1814711E6B7E7A4
:1008B40000E023A0E7108280B386F50003C8060099
:1008C400B306F500850723800601E317F6FEC5B7D6
:1008D40037E700E01C43B70620002320D718F58F24
:1008E4000F10000019C191C111E637E700E0232081
:1008F400F7108280910503A7C5FF11057D16232EED
:10090400E5FEDDB737E700E01C43B70620002320EF
:10091400D718F58F0F10000001C53307C50011E685
:1009240037E700E02320F71082800505A30FB5FE0A
:10093400E31DE5FEF5B7B7E700E09843B7062000EE
:1009440023A0D718758F0F1000008147B306F50058
:100954008386060099E6B7E600E023A0E6103E850C
:1009640082808507E5B737E700E01C43B70620001F
:100974002320D718F58F0F10000001C599C1014736
:1009840011EA37E700E02320F710054582800507C8
:10099400E309E6FE3308E500B386E50003480800F2
:1009A40083C60600E305D8FE37E700E02320F710EE
:1009B4000145828037E700E01C43B706200023206E
:1009C400D718F58F0F1000001307F6FFBA952A9673
:1009D4006317C50037E700E02320F7108280FD1578
:1009E40003C715000505A30FE5FEDDB737E700E0F3
:1009F4001C43B70620002320D718F58F0F100000E2
:100A040001C53307C50019E637E700E02320F710D6
:100A14000145828005058346F5FFE397B6FEE31B97
:100A2400E5FE37E700E02320F71005458280797161
:100A3400974700009387075D22D4804306D626D2C9
:100A44004AD04ECE52CC56CA5AC85EC669C037C9BF
:100A5400C901014B974900009389495A1309F93791
:100A6400174A0000130A4A5A974A0000938A4A54C4
:100A7400974400009384045E8357240095E35C4408
:100A8400631D0B0017470000232EF756832BC40069
:100A94002285EF00F02C5E84A9A82326FB00FDB775
:100AA40083A7090082971C443307F5406375F5005A
:100AB400D8401D8F2A976361E9089747000023A156
:100AC40007508355240003450400974000E0E78065
:100AD40000CC5C405844B9C70C44D040AE97BE86A5
:100AE40063E4B70063E4C700B386C74014C4228B31
:100AF4003A8459F0974700009387874B9C4B0947EA
:100B04006373F708F91717470000232BF74AB2500D
:100B1400225492540259F249624AD24A424BB24B8D
:100B24004561828063170B009747000023ACE74CB4
:100B3400B1BF2326EB0099BF03274A021DCF63E10F
:100B4400A7043385A7408347040085E317470000C3
:100B54000347F74C5917B307A7003E85D44063E415
:100B6400E70063E4D7003385D74083A70A0163769F
:100B7400F5009747000023A5A744228B404495BF66
:100B8400D840BA977DBF9747000023AB074241B7CF
:100B9400974700009387874B9C4385C3411106C642
:100BA40082979747000083C7474589E79747000026
:100BB40023AE0748B240410182809747000083C7B3
:100BC400C74391E79747000023A2074882808280A9
:100BD400411122C417440000130444401C4006C6BB
:100BE40026C24AC091C782979747000023A8073EB0
:100BF4009747000083C7975F858B17490000130947
:100C0400A95E89CF8347790019476312F710974784
:100C14000000A38D075CF9235C4482971C4491C3B4
:100C24008297974400009384A43D9840174600009F
:100C3400034616389747000083C7873793961700F3
:100C4400BA9683D60600E5C29747000083C74736A5
:100C540063E5C70E97470000238C07341C40639E4E
:100C6400071497470000938767399C4363870714E9
:100C7400974700009387073EDC4317470000232172
:100C8400F73475339747000083C7B7566397071245
:100C94009747000083C7D75591CF8347790093F7CF
:100CA400F70F89EB97470000A3840754979001E05E
:100CB400E78040549747000093870735DC53638EE1
:100CC400070E974700009387A72E9C4BFDC78347C9
:100CD400790015476363F70E9747000083C74756AB
:100CE400918BE1EF9747000083C72731F9E79040E4
:100CF4009746000083C6D62B63C7D70C2244B24064
:100D0400924402494101174300E06700E309834725
:100D140079001D47E314F7F097470000A388074CB8
:100D2400D1211C48DDBD850793F7F70F97460000D6
:100D34002380F628E3E0C7F001BF86073E9783557A
:100D4400070023100700974700002397072A9747B7
:100D54000000938767289C431745000003454525F9
:100D640013172500BA979C4382979747000083D7AF
:100D7400A728174700000347A72393C7F7FF7D8DD4
:100D84009317170098403E97835707005D8D2310F3
:100D9400A7009747000083C7A72191C78507174776
:100DA40000002307F72017470000034767209747F1
:100DB400000083C7F71FE37FF7E8B2402244924460
:100DC40002494101828013971700329703570700A5
:100DD4006DF7850715B737C700408326C720B707C7
:100DE400FCFFFD17F58F2326F7200100010097472C
:100DF40000009387E71BC84F832787262326D72025
:100E04006A0593C7F7FF99835D8D8280011122CC17
:100E1400604126CA4AC84EC652C406CEAA841D4A98
:100E2400130965058549BC446364F4000545B9A00C
:100E340003C7D40083474400631A470503C78402E9
:100E44006304F7000040C5B70347540083C7540543
:100E5400E31AF7FE1946CA85130564002936E3131D
:100E640035FF0347C40083C79402E31DF7FC03570F
:100E7400E40083D7A402E317F7FC0145F24062447F
:100E8400D2444249B249224A05618280E31CF7FAFE
:100E94000347540083C75405E316F7FA1946CA8575
:100EA40013056400C934E31F35F9C1BF0111974725
:100EB40000009387A74422CC03A4070C26CA06CEBD
:100EC4002AC42EC6854419E40145F2406244D24442
:100ED400056182808347910003471400858B630476
:100EE400F7000044CDB719469305A100130524006B
:100EF4009D3CE31895FE0545C9BF0000EFF05FC9AE
:100F04007300000000000000974200009382E20E8C
:100F14000383020023800200630F0300F3251034CF
:100F24002EC0970500009385A5FD73901534EF003E
:100F3400204E7300203086DCEF00804DE650828026
:100F44000000174700001307E7291443411122C486
:100F54009C5E4AC006C6998326C2858B3A8417498B
:100F640000001309E927D1CB930700069CDE17473D
:100F740000000347C72793070008974400009384A1
:100F8400A426631BF700832709009C4393F70704F7
:100F940017470000230DF72483C7040093F70704C1
:100FA4009DC397470000938767059C4382979747A3
:100FB400000023A9A72483C7040093F7F70B17475E
:100FC40000002303F72283C7440093F7070495E73F
:100FD400854717470000A30BF72097470000938726
:100FE40027239C433707020098C7130700FC974642
:100FF4000000238DE61E9848F8D318401C5F9183A7
:10100400858B8DC31C5F93E707011CDF97470000A6
:10101400938707209C4323A20706854717470000B0
:101024002306F71C83270900D8430583058B19C7BA
:10103400D843759BD8C3D843799BD8C3B2402244C4
:101044009244024941018280ED3D730020309317A0
:10105400D50063D30702974700009387671B9C431F
:101064007D57B8D797470000938787F4DC4F8507EF
:1010740017470000232CF7F4937785009DCB9747FF
:10108400000083C7871693E7170017470000230E55
:10109400F714930700F8174700002309F71497473C
:1010A40000009387271498435C57F19B93E717003C
:1010B4005CD7937715008DC79747000083C7D71275
:1010C40093E7170017470000A300F71297470000A3
:1010D4009387471198435C57F19B93E717005CD7BC
:1010E4009377650095CB9377450017470000130766
:1010F400A70FCDCB8347070093E7170017470000DE
:101104002304F70E974700009387C70D98435C5755
:10111400F19B93E717005CD79317F50063D407029C
:101124001747000003470725418B97470000938723
:10113400E71C51C383C7870793E7070217470000DB
:10114400230AF7229317E50063D7070297470000A5
:1011540083C7C709E207E18763D7070085471747B5
:1011640000002305F708974700009387670A9C430C
:101174003707020098C79317C50063D407021747BF
:1011840000000347371F058B974700009387071715
:1011940029C383C7970793E7270017470000A30BCA
:1011A400F71C82808347370093E717001747000036
:1011B400A30DF70281BF03C7870789463D8B6308E8
:1011C400D70083C787070D47BD8BE39DE7F691479B
:1011D400B5B703C79707118B69D783C7970793E7F9
:1011E400870065BF9747000093878702944397471A
:1011F4000000938767FF03C70700058B11CB974750
:101204000000238507FE97470000A38107FE828024
:1012140003C71700058B65F7F85271FF83C75700A2
:10122400DDB7174700001307E7FB032807008327F0
:1012340088039583858BADEF11C683270803BD838F
:101244002300F6009DC61C43985B4607935767012D
:101254006356070093E707C0C207C18303970600DC
:10126400C207C18709C7BA970947B3C7E7022390E2
:10127400F6008DCD8345150095C99747000083C7B7
:1012840007F793F7070413879500894585C33A95B3
:10129400834705000547994593F6F7066398E600EA
:1012A400E207E187814563D30700B9452E85828033
:1012B4008545EDBF411126C206C622C497440000ED
:1012C400938404F53DED9440AE87F8527DFF37F4E6
:1012D40000E03E8597470000238907F0832704D167
:1012E400B285ED9B2328F4D0832704D193E78702AA
:1012F4002328F4D073005010979001E0E780E0D6E3
:1013040097470000938707EE9C43B70680009843F5
:10131400558F98C3D857719BD8D797470000A38798
:1013240007EC97470000A38107EC9C40094798C34A
:10133400832704D193E787002328F4D07300501047
:101344000DA08D476315F50497470000938787E93F
:101354009C43B70680009843558F98C3D857719B18
:10136400D8D7944017470000130707E8834727009E
:10137400858B89EB83473700858BC1CB974700006A
:10138400238607E6B2402244924441018280854785
:10139400E319F5FCB7F700E003A707D16D9B23A879
:1013A400E7D003A707D11367870223A8E7D0730008
:1013B400501098408177FD175447F58F5CC70F1084
:1013C40000009840B70702001CC7930700F81746AF
:1013D4000000230DF6E0974700009387A7E09C43A5
:1013E4009C439D83858B639FA700930760197CD3DF
:1013F40054C737F700E0832707D193E787002328F2
:10140400F7D02DBF9307E01BDDB7FC52A5F39DBFBA
:10141400974700009387C7DF9C438847D847798D57
:1014240009C988C79387C19303A307006303030013
:101434000283828097470000938787DD98438967FA
:10144400938707F47CD3974700009387A7E19C43D5
:1014540083A60709139656006358060083A6070956
:1014640013966600634406007453FDF282804111B2
:10147400B7E700E022C480433707200006C6798C12
:1014840023A0E7180F10000011C199E5B7E700E0A9
:1014940023A0871001457DA893073500C207C183A7
:1014A400F19BC207C183130740036369F70217471F
:1014B4000000130767E4084317470000130747E3D6
:1014C40014436392A602174700001307E7B3185B9F
:1014D40055DFC207DD8D054502974DBF1747000054
:1014E400130747E1C9BF035765002DEB03574500B8
:1014F4006366F706B306F7402146637CD6020328E9
:101504000500938687001D8FAA9661171746000071
:10151400035666AA2392E60023A00601239306003D
:1015240014C12312F500130786FF97460000239485
:10153400E6A82313B5009745000083D5C5A7B38754
:10154400F540174700002318F7A6B7E700E023A0EB
:1015540087102105B240224441018280084195B799
:10156400B7E700E08C433707200023A0E718F98D84
:101574000F10000001E523A0B710828097470000F8
:10158400938787D703A3070097470000938747D61D
:1015940083A8070081469A8763F2170D03A8070002
:1015A4006361F50C636FA80A138787006368E50A13
:1015B40003D66700216705076317E60003C7419355
:1015C4000507238AE192174500001305659E03D69B
:1015D400470003576500239307003297420741836E
:1015E400174E00002319EE9C638C6702174300001A
:1015F400130343D0032303006304F30203D36600FD
:101604006310030283D7460023A0060121073E96F8
:1016140021062392C60097470000239EE798B687C9
:101624009843630D1703974600009386A6CC944213
:101634006306D7028356670095E283D647000356B4
:1016440047001843A106B2962392D70098C3835744
:101654006500A10717470000231FF794B7E700E0D0
:1016640019BFBE86C2870DBF032785116304071205
:101674000346E504854663000612411122C406C6EA
:101684008347C5002A8493F7C70F2306F5008345D3
:1016940097000358C7001395850161856370060997
:1016A400635905060345870093F5F507A304B700BE
:1016B40093E527006314D50093E517002306B400CF
:1016C4005C4389075CC3A30AC400032504114C438B
:1016D4000905EFF00F9C8327841103465401D4437A
:1016E40003D7C700B296118FD4C32396E700894766
:1016F400A30DF400034764039747000083C7E791F1
:101704006377F7048347C40093E707012306F400D3
:101714003DA893E717002306F40075B71376F80F76
:10172400635D05020345870093E527006314D50034
:1017340093E517002306B400A30AC400A30407001A
:101744008547A30DF400832784119C43C5F7B24059
:101754002244814636854101828093E7170023069F
:10176400F400A30AC400A3040700032504114C4396
:1017740042860905EFF0EF91832784110346540153
:10178400D44303D7C700B296118FD4C32396E7007E
:101794008D4745BF854636858280974700009387ED
:1017A400A7C89C43411122C406C6858B2A84C5EF71
:1017B4004165130525F5976002E0E780401545C5AE
:1017C4008347A5002315F50083270412BDE72320D2
:1017D400A4122322A41285472311F4042320050014
:1017E4008347640154412316F5000347D4002304BE
:1017F400E5000547A304E500174700001307C79E4B
:1018040058531385170215811C437D151375F50F65
:101814009CC25C43DCC21C479CC65C47DCC61C4BB8
:101824009CCA5C4BDCCA1C4F9CCE5C4FDCCE19CDF1
:101834009386060213070702C1BF8327441288C395
:10184400835724042322A412850779B797470000FD
:1018540083D747AB8507174700002315F7AAB24083
:101864002244410182808347C400230904000545C2
:1018740093C747002306F400DDB78347850193F738
:10188400E70FD5EF83479501DDEB0346250183463A
:10189400C50009CA83456503173700000347F77776
:1018A40063E7E50013F7060141CF014709C6C18A82
:1018B4000357651C81C68356A51C369751C313076D
:1018C400C7121735000003556579B335A7023746AB
:1018D4000F00411113060624814622C426C206C6FF
:1018E4007D543305A70297A002E0E780C0EF973745
:1018F400000083C7D772B384A7009747000093877B
:10190400E79F03A787098327070963F387003E84BA
:10191400184375FB973700009387476E9C43829763
:1019240081476364A400B307A440B2402244B3B720
:10193400970093C7170092443E85410182808147F6
:101944003E858280974700009387878C98433C5B51
:10195400FDFF010001008280011122CC4AC84EC65D
:1019640006CE26CA52C456C25AC00347B50085479C
:101974002A842E89832905096311F72683570508CC
:10198400835AC503173A0000130ACA6C173B0000B8
:10199400035BCB6C63FB5721834605016397E62009
:1019A40003278511631307200327450A631F071EB6
:1019B4008346F5001D47639AE61E03471401B38A64
:1019C400FA4013950A01418121CF9377170099CBEF
:1019D4008357E40583560404958F63D5A7001395B4
:1019E400070141819377270099CB8357E4128356EB
:1019F4000404958F63D5A70013950701418193775C
:101A0400070199CB8357C41483560404958F63D577
:101A1400A700139507014181218B11E311E10545CD
:101A24000357A4039307204E832444093305A702D4
:101A340037460F008146130606243305F50297370F
:101A4400000083C7C75DB3549502B335AB02BE949F
:101A5400C204C180231394083305AB0297A002E0AB
:101A6400E78060D8B307350133B5A7002E953E87CC
:101A740083264A0019E163E4D7003387D740B3844F
:101A84006403B7460F009387F62393860624232026
:101A9400E900A697B3D7D702D6976362F7101D8FD4
:101AA4002320E900973900009389495583A7090049
:101AB40083240900829763E5A4123385A440635408
:101AC400050C83A709008297032709006361E512C7
:101AD400198D8357E40317370000035727588E07DF
:101AE400B387E7021307003293870719B3D7E702D6
:101AF40063E7A710374A0F00130BFA23973A000045
:101B0400938A4A55130A0A24835704048507231029
:101B1400F4048347041499E32285592222859750BB
:101B240002E0E78040D275E9832604098327C408CC
:101B340003A74A00B6973E8563E4D70063E4E70051
:101B44003385E7408347F401835464082328A408B9
:101B54008507A30FF4009737000083D72750B38479
:101B6400F402DA94B3D444036368950CB304954047
:101B740083A7090023209900829763E3A40C33858B
:101B8400A440E34305F89737000083C7574963E748
:101B9400A7089747000023A38780014541A0832617
:101BA4004A00B387F6403E97E5BD8354640837473F
:101BB4000F009307F723B3846403BE9493070724A9
:101BC400B3D7F40263E7F900B387F9402320F9009F
:101BD400D1BD03274A00BA99C5BF23A03501D9B5A1
:101BE4009737000093870747DC43BE94F9B59737CE
:101BF400000093872746DC43998F3E95D9BDA145C4
:101C04002285975002E0E780E0BCA305A402973741
:101C140000009387673F9C5B81EF7D55F2406244EF
:101C2400D2444249B249224A924A024B0561828017
:101C3400894515458297D5B7B3049740AA940DBF3B
:101C440083A74A00BE9425BF39C901116C0022CC78
:101C540006CE2A8411331DCDFD576302F502B24727
:101C64009735000083C5B53B63EFB7000345940285
:101C7400B385B7402EC6973000E0E780E0C8F24055
:101C8400624405618280173700001307A73C58435C
:101C9400BA97E9BF975002E0E7806078CDB78280B9
:101CA400797126D206D622D44AD04ECE52CC56CA08
:101CB4005AC85EC68347550303447513AA843E94E9
:101CC4001374F40F9307400263F687001304B4FD02
:101CD4001374F40F03AA841383AAC413A38B84126A
:101CE40022865285D68597A002E0E78040AA05891E
:101CF40015E503CBD41201498149337B6403930B6B
:101D040050024A865285D68597A002E0E78020A833
:101D1400058915C5639169031374F90F238B841224
:101D2400B250225492540259F249624AD24A424B66
:101D3400B24B456182808509E20993D9894105093D
:101D4400E31179FDE1BF8327850903560504797101
:101D540093D60701BD8EC206C182358E13577640D5
:101D640093575640898B058B5D8F93573640918BE3
:101D74005D8F93571640A18B5D8F93171600C18B0F
:101D84005D8F9317360093F707025D8F9317560004
:101D94009355860093F707041E065D8F1376F60F9E
:101DA400518F93D7554013D63540118A898BD18FE3
:101DB40013D67540D18F13D61540218AD18F13962F
:101DC4001500418AD18F1396350013760602D18F00
:101DD40013965500137606049E05D18F93F5F50FDF
:101DE400CD8FA20745465D8F3307C70222D42A84CC
:101DF40026D252CC56CA032A8413832AC4135AC83F
:101E040006D6369742074183935777401355574078
:101E14000989858BC98F135537401189C98F13558B
:101E240017402189C98F131517004189C98F1315CC
:101E3400370013750502C98F131557009355870092
:101E4400137505041E07C98F1377F70FD98F13D5A0
:101E5400354013D755401189098B498F13D57540E7
:101E6400498F13D515402189498F13951500418950
:101E7400498F1395350013750502498F1395550045
:101E8400137505049E05498F93F5F50F4D8F2207B1
:101E9400D98FB387C7024AD04ECE5EC662C4B69706
:101EA400C207C18313D7774013D557400989058BDF
:101EB400498F13D537401189498F13D5174021898C
:101EC400498F139517004189498F1395370013756E
:101ED4000502498F1395570093D5870013750504A0
:101EE4009E07498F93F7F70FD98F13D5354013D732
:101EF40055401189098B498F13D57540498F13D5E6
:101F040015402189498F139515004189498F1395EF
:101F1400350013750502498F139555001375050493
:101F24009E05498F93F5F50F4D8F2207D98FB387FF
:101F3400C702130650025285D685B697BD8E939478
:101F44000601C18033F6C402137BF60F97A002E0AA
:101F5400E780E08305890DED8347D4120149814967
:101F6400B3849702130C5002C1804A865285D685E9
:101F740097A002E0E780A0810589937BF90F11C542
:101F840063863403850993F9F90F0509E31F89FD75
:101F9400230B6413B250225492540259F249624AF8
:101FA400D24A424BB24B224C456182805E8BCDB704
:101FB4000111973700009387673422CC03A4870C60
:101FC40026CA4AC84EC606CEAA84130925008549E6
:101FD40015C083C7140003473400858B6304F700DE
:101FE400405CFDB71946930544004A85EFE0BF976E
:101FF400E31835FF2285F2406244D2444249B24993
:10200400056182804111973700009387272F22C4EE
:1020140003A4870C26C24AC006C6930425000549BA
:1020240001E82285B240224492440249410182805F
:10203400A6851305A402978002E0E780E0EBE302A3
:1020440025FF405CF1BF4111973700009387072BB0
:1020540022C403A4870C26C24AC006C693042500E2
:10206400054901E82285B2402244924402494101D3
:102074008280A6851305A401978002E0E780C0E76B
:08208400E30225FF405CF1BFFF
:10208C00971100209381C1C6174100201301C1761E
:10209C001305400097E5FF1F938505F617060020F2
:1020AC00130606FE63FAC5008322050023A0550023
:1020BC0011059105E3EAC5FE17C50200130545C4D9
:1020CC00970500209385C5FB1386018763FAC5002D
:1020DC008322050023A0550011059105E3EAC5FEF6
:1020EC0013850187973500209385C5346377B50038
:1020FC00232005001105E36DB5FEFD42739002BC73
:10210C008D4273904280930280087390023097E264
:10211C00FF1F938262EE93E232007390523097125B
:10212C0000009382A2D673901234730020303D438A
:10213C002A876373C3029377F700BDEFADE59376FF
:10214C0006FF3D8ABA960CC34CC30CC74CC741075B
:10215C00E36BD7FE11E28280B306C3408A06970276
:10216C00000096966780A6002307B700A306B70069
:10217C002306B700A305B7002305B700A304B700D7
:10218C002304B700A303B7002303B700A302B700CF
:10219C002302B700A301B7002301B700A300B700C7
:1021AC002300B700828093F5F50F93968500D58DAB
:1021BC0093960501D58D61B7939627009702000081
:1021CC0096968682E78086FA9680C1171D8F3E967A
:1021DC00E374C3F8A5B7B717004003C777051377A7
:1021EC00E70FA38BE704130700F8A38DE7043D4723
:1021FC00238CE70413075003A38CE70403C7A7053C
:10220C001377D70F238DE704828041112A83014E67
:10221C00930E407E130F0019930F400663E56E1268
:10222C009308001913034006B3781503854E0D4F20
:10223C00A14F337365020D891335150063EFBE1280
:10224C001308F6FF794672984208135808013307B1
:10225C00C70213D61700BE0732976146B3F6C60203
:10226C0013068070B386C6023697A166F58F4207B7
:10227C005D8FB716004083C7F60293F70708A303D8
:10228C00F1000346710083C7F60293F70708E39445
:10229C00C7FE83477100B716004093F7F70F6388AA
:1022AC00071293078008F3B7078093F787083EC49B
:1022BC000F100000B7170040930670052380D70459
:1022CC00930680FA2380D7040F10000023AA07037B
:1022DC0083C6170393E60608A388D7022380070456
:1022EC00A247F3A707800F1000001166B717004034
:1022FC007D16D45BC85F93854703A98EF18EF5FAE2
:10230C0093068008F3B6068093F6860836C60F103F
:10231C000000930670052380D704930680FA23806F
:10232C00D7040F10000098C103C7170313670704E5
:10233C00A388E70223800704B247F3A707800F1096
:10234C000000410182807D133368E3039308E0169B
:10235C00630E08003368F3039308D0166308080073
:10236C009378330093B818009388D81633081E015D
:10237C00131E0801135E0E0155B56393E503054862
:10238C00638608000148630303002A887108729869
:10239C00FD15131E0801C205135E0E01C18179BD26
:1023AC0013F8150063F4BF007908D5B7133818007B
:1023BC00E5BF83C7F60293F70708A303F1000346B2
:1023CC00710083C7F60293F70708E394C7FE8347AF
:1023DC00710093F7F70FF1DFE9B5914763EEB702A0
:1023EC0017B70200130747AE8A05BA959C41BA97F6
:1023FC008287B717004003A7470B1345F5FF698F7A
:10240C0023AAE70A03A7070B698F23A8E70A03A7E8
:10241C00070A798D23A0A70A8280B717004083A6EC
:10242C00470B1347F5FFF98E23AAD70A83A6070B90
:10243C00558D23A8A70A83A6070A758F23A0E70A40
:10244C008280B717004003A7470B498F23AAE70ADE
:10245C0003A7070B1345F5FF45BFB717004083A62D
:10246C00470B1347F5FF758F23AAE70A03A7070A43
:10247C00598D4DB7B717004003A7470B498FEDB7E0
:10248C00B71700408847420541819377050491EBCB
:10249C009377F5013755E801130505803345F502AF
:1024AC0082809377050C130700046397E7009377FA
:1024BC00F50137459C1CCDB72165130505D08280ED
:1024CC00B7F700E08847CC47828081473737004018
:1024DC00A14663C4C700328582800345B740E38EB2
:1024EC00A6FE3385F5000345050085072304A740A8
:1024FC00CDB7970700209387A7FF9C431737002081
:10250C00130747F33E95636EE5001747002013074A
:10251C00A70E6368A70017070020232BA7FC3E8596
:10252C008280FD57EDBF411122C406C62A84893F23
:10253C002947B307E502B2408D83B3D78702224403
:10254C009507B3D7E70237370040C207C18323167C
:10255C00F74041018280716541111305052006C6C3
:10256C00D937B7370040130770F82381E7400D4780
:10257C00A381E74013070004A380E74005472387A6
:10258C00E740B24041018280CC41411106C6328500
:10259C0003C6150083C5050022064D8E42068D65C7
:1025AC004186138875A2630C060F6348C804138810
:1025BC0045A26306060B634AC800938535A26309DE
:1025CC00B60623900600294679A0138855A2630805
:1025DC00060B938565A2E316B6FEC1451D4663EC5A
:1025EC00E5064546198E63F3C7003E862390C60068
:1025FC0097B502009385858F89A8138895A26300EF
:10260C00060F634E060B1388A5A2630A060F93856B
:10261C0005A5E318B6FA99451D4663EEE502198E39
:10262C0063F3C7003E862390C6009385C18031A812
:10263C009D451D4663E1E5022146198E63F3C700F3
:10264C003E862390C60093850187BA9597E0FF1FBD
:10265C00E780A0230146B240328541018280AD451E
:10266C001D46E3EAE5FE3146198E63F3C7003E864C
:10267C002390C60097B502009385058BF9B7B14539
:10268C001D46E3EAE5FC3546198E63F3C7003E862A
:10269C002390C60097B502009385058A7DB7C14586
:1026AC001D46E3EAE5FA4546198E63F3C7003E86FC
:1026BC002390C60097B502009385858479B7C145F0
:1026CC001D46E3EAE5F84546198E63F3C7003E86DE
:1026DC002390C60097B5020093850587BDB7C14509
:1026EC001D46E3EAE5F64546198E63F3C7003E86C0
:1026FC002390C60097B502009385C581B9B7B5453F
:10270C001D46E3EAE5F43946198E63F3C7003E86AD
:10271C002390C60097A502009385457C3DB797068C
:10272C0000209386E6A84146CD45170500201305E9
:10273C0025956FA080772D453DEF03C50500094712
:10274C006317E5063285D041411106C603471600D2
:10275C000346060041682207518F130628FE6308C2
:10276C00C7026369E600051863030703239006009C
:10277C0029451DA8130648FE630BC7001518E3175F
:10278C0007FF15473E866377F700154621A03E8666
:10279C0091C30546CC452390C6004206418297E082
:1027AC00FF1FE780800E0145B240410182802390DB
:1027BC00060005458280828083C7850093F7070257
:1027CC00E1E3411106C622C426C24AC003C9050072
:1027DC0009432E888547631B690203A34500328495
:1027EC00B6848347130003430300A207B3E76700D3
:1027FC004163130E13FE6382C7030D13638B6704CF
:10280C000D681308289063850707A947B240224436
:10281C00924402493E8541018280AD4765FB0547E4
:10282C00B547E365D7FE0325C8000546A28597E0AA
:10283C00FF1FE780800501499387018998438147F1
:10284C0071D7184361D72686A2854A85029781479E
:10285C0075BFAD4745FF0547B547E369D7FA032573
:10286C00C8000546A28597E0FF1FE7800002E9B784
:10287C002244B24092440249854741016F80B02600
:10288C00A1473E85828041677917630CE5024111AF
:10289C0022C406C685472A84639AF5002285224401
:1028AC00B2409385819941016FA0006B8947639673
:1028BC00F5008545EFC0702675D1B2402244410128
:1028CC0082808280411122C42A844165938581993A
:1028DC007D1506C6EFA04068170500001305E5FA44
:1028EC000588EFC0D01A05C02244B24097060020DC
:1028FC009386C69D4146C545170500201305058CDA
:10290C0041016FA0805AB2402244014541018280AE
:10291C0009C523A8A18801458280454582801147BD
:10292C00636EA70697A60200938646630A05369542
:10293C001841411106C63697AE87B2850287054706
:10294C006145639AE70005461385818797E0FF1F71
:10295C00E780A0F30145B240410182800547614503
:10296C00E39BE7FE05461385C187CDB70547614557
:10297C00E393E7FE054613850188C9BF054761450A
:10298C00E39BE7FC054613854188C9B715476145AC
:10299C00E393E7FC1546138581884DBF094582807A
:1029AC00411122C42E849385819926C206C6AA841D
:1029BC00EF80300E058915C197070020938707809B
:1029CC0083D7A70BA285B2402310F400224426859E
:1029DC009244014641016F90A068B2402244924457
:1029EC00494541018280411193962500AA852D45C8
:1029FC0006C697E0FF1FE78040AAB240014541019F
:102A0C008280011122CC06CE3714004026CA4AC857
:102A1C004EC652C483447405034AB40583498405E5
:102A2C0003499405EFF02FFB8347A40593F4F40FAF
:102A3C00137AFA0F93E71700230DF40493F9F90FA7
:102A4C001379F90FB717004003C7A705058B6DFF66
:102A5C0003D5C705A38D4705238C3705A38C270504
:102A6C00A38B9704F2406244D2444249B249224AB1
:102A7C000561828001119397050122CC06CEC18796
:102A8C002E8463DD0700EF10B00D19C1EF1030017B
:102A9C002165218DF24062440561828093F7150017
:102AAC0013C51500E5FB93F7250013C52500FDF3B1
:102ABC009397250163D30706EF703157B717004082
:102ACC0003C7E702930680081377C70F1367170035
:102ADC00F3B6068093F6860836C60F1000009306F0
:102AEC0070052380D704930680FA2380D7040F1037
:102AFC0000002387E70223800704B247F3A707806F
:102B0C000F10000037F60200130606E0896503C5B6
:102B1C008189EF1070660965ADBF9397150101456A
:102B2C00E3DA07F617A5020013050549EF902221F9
:102B3C0013060064916503C58189EF10F06311657C
:102B4C0089BF2D71232A9110FD74E98C232C8110DF
:102B5C0023282111232631112A84AE893289930628
:102B6C0000100A86A6852D45232E111097E0FF1F15
:102B7C00E780A0921315440151810A051396290090
:102B8C00CA850A9597E0FF1FE78020D0A685856649
:102B9C000146254597E0FF1FE78020900A86A68511
:102BAC0093060010294597E0FF1FE780008F8320D4
:102BBC00C11103248111832441110329011183299B
:102BCC00C11015618280B7F7070003C707014111D7
:102BDC0006C622C426C24AC0A547631AF700953719
:102BEC00B24022449244024901454101828013942F
:102BFC002500AA843289A286AA850146254597E03C
:102C0C00FF1FE7808089A2864A86A685294597E022
:102C1C00FF1FE7808088E9B71D71494697A5020020
:102C2C009385053517B50200130545B086CE97E0A0
:102C3C00FF1FE780C0D201E917A5020013058534F8
:102C4C00EF90E20F01A0B7F600E0795798CAFD5754
:102C5C00DCCA0567B7E700E023A0E7101306F00213
:102C6C0090C223A0E7180F10000017E7FF1F1307EF
:102C7C00272923AAE1884157A38AE74013060004B9
:102C8C008145080897E0FF1FE78040C797070020A1
:102C9C00938747A03EC88D6793870780231AF1005E
:102CAC009D673ECCB7070105938707103ECEED47D5
:102CBC002310F10285472301F10297070000938747
:102CCC00C7D2BEC297070000938727F0BEC48567A2
:102CDC00938757F12312F102B7F5070097F7FFFF1F
:102CEC009387477E3ED88146970700009387A7D1EC
:102CFC003000E10519453EDC97D0FF1FE780E079F5
:102D0C0018088147994630003E9603460600850711
:102D1C000507A30BC700E398D7FEC24791C703571B
:102D2C00410185676373F70001A08307410263D7F4
:102D3C00070493078008F3B7078093F787083EC40E
:102D4C000F100000B7170040130770052380E7042D
:102D5C00130780FA2380E7040F100000B847B7066A
:102D6C00100013670718B8C79853558F98D3238052
:102D7C000704A247F3A707800F1000000808EF20F4
:102D8C00602AAA8501C917A502001305E520EF806A
:102D9C00726901A0F640256182804111170500007F
:102DAC00130585CD06C622C4EF2000241384818927
:102DBC002300A4001928034504002244B240130642
:102DCC000032896541016F10303B797106D61307CB
:102DDC008008F337078093F787083EC20F10000076
:102DEC00B7170040930570052380B704130680FACB
:102DFC002380C7040F10000083C6F70293F6D60F8A
:102E0C00A387D702238007049246F3A606800F10EF
:102E1C00000073370780137787083AC40F1000003F
:102E2C002380B7042380C7040F10000003C7F702E8
:102E3C0013675700A387E70223800704A247F3A771
:102E4C0007800F10000081470147814605468545E4
:102E5C001305407EEFF06FBB68005146814597E04B
:102E6C00FF1FE780A0A9B707C0A83EC8B7873200EC
:102E7C003ECA680097D7FF1F9387E7523EC6EF20E4
:102E8C00404EB2504561828041111305800406C644
:102E9C0097D0FF1FE780601F371700408327870AF2
:102EAC008D451305002093E707202324F70AEFF044
:102EBC00CFD2EFF04FEA17B5020013052587EF804C
:102ECC001268993BD93DEFE03131EFE0F137EF106B
:102EDC00801DEF00902297D0FF1FE780A04F8280CB
:102EEC002A86B305B04017A502001305A53F6F80D5
:102EFC007253011122CC36C606CE2E84EF104069D7
:102F0C00B24637460F00130606243376C50291CA23
:102F1C00B28517A502001305E53B32C6EF8092502F
:102F2C00324622856244F240814505616FD0C1066C
:102F3C00011122CC26CA06CE4AC817270020034707
:102F4C0067F5AE84172400201304C4F48147630191
:102F5C00A70217270020034747F58547630AA700F8
:102F6C00172700200347C7F589476303A7008D4740
:102F7C0013F7840029C301572312E1005947B38783
:102F8C00E70283C6118A09464C003E94035524007F
:102F9C008547231904002318040023170400A305F4
:102FAC00F400EF70402A13C58400F2406244D2440E
:102FBC0042490561828013F7040245C75947B3871C
:102FCC00E7023E948347C400BDE303C7C181835726
:102FDC0024010355240025C70549014781460546B0
:102FEC00C945231601002312F10023132101EF70B0
:102FFC00400F2AC40DCD9307A0052300F5000355FF
:10300C00240003C6118A4C00EF70200605E5034529
:10301C00040083C7C18193B717002306240113064C
:10302C00006493050002238EF180EF10F01413C599
:10303C000402A5BFC9454800EF70C051CDBF03C6FF
:10304C00118A4C002312F100EF7060016DF185477D
:10305C002306F40083C7C18193B71700238EF18038
:10306C00F9B713F704103DC35947B387E7023E94F1
:10307C008347C400A1E7835744010355240001474B
:10308C002312F100814689470946C94523160100E0
:10309C002313F100EF70E0042AC40DC1054923008D
:1030AC002501A24703C6118A4C00A38007000355D3
:1030BC002400EF60907B11E52306240113C5041056
:1030CC00EDB5C9454800EF70E048CDBF13F70401DA
:1030DC0015C35947B387E7028146130780251306AA
:1030EC004006D1453E9403552400EFE0F10B13C587
:1030FC00040165BD13F704040145E30807EA5947C9
:10310C00B387E7023E9403552400EFE0B109034571
:10311C00040005661306069693050004EF10D0050F
:10312C0013C5040459B581E9AA8517A50200130536
:10313C00650C6F80322F0547639EE500AA8517A5A5
:10314C0002001305A50D09C617A502001305450FAE
:10315C006F80522D09476399E5000DE6AA8517A5E6
:10316C0002001305E50FEDB70D47639DE500AA8539
:10317C0017A502001305051161DE17A50200130542
:10318C00E51245BF828039711397050126DA06DEF8
:10319C0022DC4AD84ED652D456D24187AE84635FD5
:1031AC000724EF10E01B2A84630D05360347050046
:1031BC009307000B6314F73683572500172700205D
:1031CC00035767CD172900201309C9CC6303F72ACD
:1031DC0017270020035787CD6300F73617270020E9
:1031EC00035727CE631CF732894A894969A45C448A
:1031FC0017A50200130545E383C5070019A64D4723
:10320C006393E7029305A00517A50200130505E4D7
:10321C00CDACC9466316D7028345C40017A502007E
:10322C00130585E1F9AC6D47639CE7005C4417A579
:10323C0002001305A5E283C50700EF80B21ED1ACD6
:10324C005947B389E902CA9903C7B9006303072C2C
:10325C0063910A2C17270020034777C48546631215
:10326C00D70A1D476390E7048357840085CF5C44DD
:10327C0017A502001305C5DF83C5170003C7070098
:10328C00A205D98D17270020231DB7C003C6370010
:10329C0083C7270022065D8E972700202394C7C082
:1032AC00EF805218834744001D47639AE704034795
:1032BC001400E947639FE7249727002083D767BE54
:1032CC00638907242314F1008357090109479726C2
:1032DC000020A386E6BC2315F100F977938727100D
:1032EC002316F100FD5703C6118A2C001725002068
:1032FC00035565BA2307F100EF60B05619AC0547CA
:10330C0055BF8946631BD70825476398E704835745
:10331C008400A1C758449305000213060064834738
:10332C00170003470700172500200345A5B6A20781
:10333C00D98F172700202318F7B697270020238151
:10334C0007B6EF1060639725002083D5C5B517A588
:10335C0002001305A5D4EF80F20C834744002547E7
:10336C00639BE70203471400E9476394E71A8D4710
:10337C0017270020A305F7B28357E9002314F100A7
:10338C00835709012315F100930720202316F10020
:10339C009307900289BF0547C9BF8D46631BD7169B
:1033AC0025476398E70483578400A1C758449305C5
:1033BC000010130600648347170003470700172506
:1033CC000020034525ADA207D98F17270020231D08
:1033DC00F7AC97270020238507ACEF10E059972511
:1033EC00002083D565AC17A502001305A5CDEF8091
:1033FC00720397270020A38407AA21AA13F71500AC
:10340C0005C317F6FF1F130666F597F5FF1F938587
:10341C0025F403C5118AEFB0D10D13C5140021A2F8
:10342C0013F7050801CB41657D15EFE0615813C515
:10343C000408D5A8172700200347C7A5AA87631639
:10344C00A700A6853E85ED34F9A817270020034771
:10345C00C7A5E308A7FE17270020034767A6E302CA
:10346C00A7FE17270020034707A70145631DF70A8E
:10347C00C9BF814A8149D947B387F90209478345B6
:10348C004400130A8400CA9783C747006395E70872
:10349C000D476381E50205476394E5020347840009
:1034AC00631EF7028345C40017A50200130585B4FB
:1034BC00EF804277D947B387F902CA972386070072
:1034CC00034744009307F007631AF7008355840001
:1034DC0017A50200130585B3EF80C274834744001F
:1034EC002D47E386E7D00547E39BE7D003478400ED
:1034FC00A946E310D7D28345C40017A502001305D3
:10350C00A5B1EF802272D947B389F9024E992306EF
:10351C000900834544005285EF70C0032285EF00FB
:10352C0010582165258DF2506254D2544259B2592B
:10353C00225A925A21618280854A85492DBF834740
:10354C0025003547636AF73A17A70200130707A748
:10355C008A07BA979C43011122CC06CE26CA4AC8C8
:10356C004EC652C456C2BA972A84828703C7018AB0
:10357C00A54763EAE73603494500930955008144A2
:10358C00172400201304449503C5018A63E5A4069F
:10359C000E050905CE852295194697D0FF1FE780A9
:1035AC00C02E83C5018A93973500850593F5F50FD9
:1035BC00A2971386F5FFA38027010E06229623807F
:1035CC00B18A6244834876000348660083475600FC
:1035DC000347460083463600F240D2444249B24982
:1035EC00224A924A0346260017A50200130505B28B
:1035FC0005616F8022639395340089051946A29565
:10360C004E8597D0FF1FE7808035631E052C8504FF
:10361C0093F4F40F95BF0144172900201309C98BAB
:10362C0097F9FF1F938989D117FAFF1F130A6AD1E3
:10363C0097FAFF1F938A4AD183C7018A637FF402EA
:10364C00931434008904CA941946A6854E8597D0E4
:10365C00FF1FE780C03015E11946A685528597D02B
:10366C00FF1FE780C02F11E91946A685568597D014
:10367C00FF1FE780C02E6304052683C7018A639D64
:10368C00870217A502001305E5AAEF80426B0146DD
:10369C0085450D452380018AEFB0A16E17A5020068
:1036AC001305C5A56244F240D2444249B249224AAC
:1036BC00924A05616F80A26817A502001305C5A880
:1036CC00EF80E26797270020938707810E0493060B
:1036DC0024003E9403461400BE9681450145EFB08C
:1036EC00E1660566130606C89305000803C5118A32
:1036FC00EF10802817A50200130505A665B79305E2
:10370C00000803C5118AEF10A05183441400639A7A
:10371C000410C167171700200357E777F917835573
:10372C00A4006307F70217170020035727786300DC
:10373C00F702171700200357C7786302F70E2E8580
:10374C00EFE0012717A50200130505A2A1BF8544D0
:10375C00D9473387F402971700209387A77317A5CF
:10376C0002001305A5A1BA9709472382E700035667
:10377C00E4002391B700EF80E24AB9E085471306D5
:10378C000064A145171500200345C57017170020CC
:10379C002308F7700564EF10201E130604C8C145FA
:1037AC00171500200345056FEF10001D1306049636
:1037BC0093050004171500200345C56DEF10C01BC1
:1037CC0017A502001305C59CEF806257C167171738
:1037DC0000200357476CF917630EF70017170020EA
:1037EC000357C76C6308F700171700200357676D62
:1037FC00631BF70E17A5020013054590EF802254AA
:10380C002380018A6244F240D2444249B249224A9E
:10381C00924A014685450D4505616FB08156894434
:10382C0005BFA68517A5020013058597EF80823F7B
:10383C00D1B783574500171700200357C76581443C
:10384C006301F70217170020035747668544630A84
:10385C00F700171700200357C7668D446313F70052
:10386C008944D947B387F402971400209384846267
:10387C000346640017A5020013054594BE9483D536
:10388C002400EF80223A03C50400F9572391F40079
:10389C0023820400A38504002399040023860400DA
:1038AC00930500042380018AEF10803717A50200CE
:1038BC001305C584EF80A248B1B762440356650076
:1038CC0083554500F240D2444249B249224A924AB9
:1038DC0017A502001305859005616F80A2340504BD
:1038EC001374F40F91BBF2406244D2444249B24982
:1038FC00224A924A05618280828079711705000004
:10390C001305A58806D622D426D24AD04ECEEF1067
:10391C00A06D8565A380A18A938505960945EF3036
:10392C00604BD1451D45EF30E04A930540062145DB
:10393C00EF30404A930540063545EF30A0498547A6
:10394C000D47700091451305F0402304F100A304CA
:10395C00F1002305E100A305F10002C6EFC0310B15
:10396C003000854513058040EFC0710A13069100A5
:10397C00854513059040EFC091091306A1008545BC
:10398C001305A040EFC0B1081306B100854513051F
:10399C00D040EFC0D107171400201304A44F971484
:1039AC0000209384445397F9FFFF9389097E79593A
:1039BC004E85EF1060632300A40023112401230221
:1039CC000400A30504002306040023190400231A91
:1039DC00040023170400231804005904E31A94FC70
:1039EC00EF70806803C5118AEF706014854503C5BC
:1039FC00118AEF00D058B250225492540259F24915
:103A0C00456182802A86B305B04017A502001305D4
:103A1C00259B6F802221411106C622C426C297170E
:103A2C00002083D747516380A7029717002083D7C4
:103A3C0027516385A7069717002083D707516391F9
:103A4C00A706894411A08144A947B387F4029714AF
:103A5C0000209384244E2E84AA8517A502001305FA
:103A6C00A594BE94239284002393C4002394D40081
:103A7C0022863114EF80021B42044180930700051B
:103A8C0063F08702224403C50400B24092440966E5
:103A9C0013060690A14541016F00106E85446DB769
:103AAC00B240224492444101828083574500011167
:103ABC0022CC06CE171700200357E74701446301B9
:103ACC00F702171700200357A7470544630AF700AE
:103ADC0017170020035767470D446313F700094479
:103AEC00A947B307F402171400201304A444894512
:103AFC003E9403450400F9572311F40023120400EB
:103B0C002313040023140400EF1080110345040058
:103B1C009145EF10E010179502001305A57FEF807B
:103B2C00022285471306F100854513055030A30783
:103B3C00F100EFD05135F2406244056182803D893D
:103B4C007D15954763E7A722179702001307077B9C
:103B5C000A053A951C41797122D406D626D24AD050
:103B6C004ECE52CC56CABA972E84828717A5020025
:103B7C0013058586EF80A21C05A883C7250019476D
:103B8C006391E7022E8515378345640017A5020063
:103B9C0013058585EF80020917A50200130585869C
:103BAC00D1BF0D47E38AE7FEB2502254925402591A
:103BBC00F249624AD24A4561828003C72500954783
:103BCC00E314F7FEC167171700200357C736F91720
:103BDC00630DF70217170020035787366304F7109D
:103BEC0017170020035767366300F71003D5A5009D
:103BFC00EFD0115C1795020013050557EF802214C6
:103C0C0017A502001305C584B5B78144A68517A571
:103C1C00020013052580EF80E200A947B387F40268
:103C2C0097140020938404311306006489450569B8
:103C3C00179A0200130A0A7F97AA0200938A0A8035
:103C4C008D49BE948357A40003C504002391F4004E
:103C5C008357E4002392F400835704012393F40068
:103C6C00835724012394F400DD472398F182EF005D
:103C7C00B05003C50400096613060690A145EF0079
:103C8C00B04F03C50400130609C8C145EF00D04E60
:103C9C0003C50400130609C89145EF00F04D035607
:103CAC00E4008355A400179502001305254D4169C6
:103CBC00EF705277971400209384C427014479192C
:103CCC00A2855285EF70127683D524005685EF704D
:103CDC00727583D72400638D27070504A904E311AB
:103CEC0034FF39BF85441DB789440DB703C7250080
:103CFC008D471795020013056576E317F7EA9DBD0E
:103D0C0083C5250091476397F500179502001305AD
:103D1C0065768DB59947639DF5002285793383458A
:103D2C006400179502001305256CEF70B26FADBDE2
:103D3C009547639AF50083471400E1FB1795020041
:103D4C001305057505BD179502001305E574F1BF44
:103D5C00179502001305055CEF70727E85471306FC
:103D6C00F100854513055030A307F100EFD0B111D8
:103D7C0041BD8280011106CE22CC01C98947630462
:103D8C00F502F2406244056182806800328497D06B
:103D9C00FF1FE78080AFA285179502001305857081
:103DAC00EF705268F9BF680097D0FF1FE780E0AD55
:103DBC001795020013058571EF707278D9B7011150
:103DCC00930780F82302F10006CE22CC03D701839F
:103DDC008D4763ECE700179502001305E55BEF7068
:103DEC001276F24062440561828085470147814624
:103DFC000546ED452A842315F100EF60802E03560D
:103E0C00A1004C002AC697D0FF1FE78000A82C0009
:103E1C002285EFE0FFB871D5ED452800EF60807387
:103E2C00C9B741119397050122C406C626C2C187A2
:103E3C002E8463DF07082D23AA8439C58347050028
:103E4C001307000B6385E7061307000D639CE7025D
:103E5C008347250045476381E70465476394E70280
:103E6C000348A500834795000347850083467500EA
:103E7C000346650083455500179502001305854AD6
:103E8C00EF70525A268521292167218FB240224496
:103E9C0092443A8541018280034665008345750052
:103EAC00179502001305054BEF70D257E1BF03477E
:103EBC0045009307F007E317F7FC8355850017952A
:103ECC0002001305E54A2398B182EF70B2555DBF2D
:103EDC0093F7150085C317E6FF1F1306E6489715E1
:103EEC0000209385650403C54182EFD0214613471A
:103EFC00140069BF9717002083C7C7036393A70AF1
:103F0C0013F7250011CF130600648945EF00D02666
:103F1C0017150020035525025D3513472400BDB746
:103F2C0013F7850005C313074006814613064006A8
:103F3C00D1451715002003550500EFD0813C1347E0
:103F4C008400A9B793F705018DC701478946094637
:103F5C00814517150020035505FEEFD0B127AA8522
:103F6C001795020013050542EF70D24B134704015D
:103F7C0031BF93F745000147E38A07F0171500207E
:103F8C00035565FBEFD011220566130606C8914553
:103F9C0017150020034505FAEF00101E13474400C7
:103FAC00F5B59717002083C787F9639DA70613F70C
:103FBC00250019CB130600648945EF00F01B17157B
:103FCC0000200355E5F789BF13F7850001CF1307D0
:103FDC004006814613064006D145171500200355AF
:103FEC0025F6A1BF93F7050191CB014789460946F8
:103FFC008145171500200355A5F485B793F74500A7
:10400C000147E38507E817150020035565F3EFD04A
:10401C0071190566130606C891451715002003454E
:10402C0005F29DBF9717002083C707F20147E39F56
:10403C00A7E493F6250099CA130600648945EF009E
:10404C00B01317150020035545F0F9B593F685000C
:10405C0081CE13074006814613064006D14517153D
:10406C000020035585EED1BD93F7050191CB014797
:10407C0089460946814517150020035505EDF1BD0C
:10408C0093F74500E38407E0171500200355E5EB93
:10409C00EFD051110566130606C89145171500207F
:1040AC00034585EAD5BD3971170500001305A5D761
:1040BC0006DE22DC26DA4AD84ED6EF00F0722382D6
:1040CC00A182D1470544231AF1001008930740063A
:1040DC00854513055030231CF10023088100EFD0D7
:1040EC00815A17E6FF1F1306662AF1451305703037
:1040FC00EFD06159138681829D4513056030EFD056
:10410C0081585008894513051031EFD0C15730083C
:10411C00894513052031EFD00157930500050D4556
:10412C00EF20504B930500051145EF20B04A854513
:10413C007945EF20304A300891451305704023042F
:10414C008100230681002308810002CC230A010090
:10415C00EFC0E10B3000854513050040EFC0210B8B
:10416C007000854513051040EFC0610A5008854565
:10417C0013052040EFC0A1091008854513055040D8
:10418C00EFC0E1087D55EF5090297D55EF80B05977
:10419C00EFE0EFD87D55EFE0EFF217E6FF1F1306C7
:1041AC00661DD5450145EF50301689472306F100B1
:1041BC008D472308F1009147230AF10093878186EC
:1041CC00984383C747003000854501453ACC230E00
:1041DC00F10023048100EFE08FF470008545054564
:1041EC00EFE0EFF3100885450945EFE04FF3500879
:1041FC0085450D45EFE0AFF2300895451145EFE0F0
:10420C000FF2171400201304E4D2971400209384A7
:10421C0044D497090000938909C179594E85EF0060
:10422C00B05C2300A40023112401231204002313E7
:10423C000400231404002904E31294FE1385018264
:10424C00EFE00FED1385418AEFA0B10D854503C555
:10425C0041823523F2506254D2544259B2592161F1
:10426C00828023AC05FE1C4191E7010001000CC1CA
:10427C008280BA8703A787FF6DFF23ACB7FE8280CD
:10428C00184183A785FF6319B7001CC1FD5723ACE8
:10429C0005FE238FF5FE8280232CF6FEC5BF41114F
:1042AC0022C437E400E026C204403707200006C6CB
:1042BC00F98C2320E4180F10000009E92320941036
:1042CC001545B24022449244410182800347E5FFE8
:1042DC009307F00F6306F700232094101145D5B710
:1042EC0097D0FF1FE7804027014523209410D1BFB2
:1042FC00411126C2B7E400E04AC003A90400B70785
:10430C00200006C622C43379F90023A0F4180F103C
:10431C00000009E923A02411B2402244924402492E
:10432C00410182809565938505D0C98D2A8421052C
:10433C00C2054205C181418197D0FF1FE780A012C1
:10434C0001CDFD5723200500231285002303F50022
:10435C0023A024112105C9B723A0241101456DBF49
:10436C000111B7E700E04AC803A907004EC637079A
:10437C00200006CE22CC26CAAA893379E90023A0D4
:10438C00E7180F10000097170020938767C1804330
:10439C008144014619E499E8A1654E85EF00500867
:1043AC0005A08347E4FF6399370385CCA6851715D1
:1043BC0000201305E5BEE93565D0A1654E85C12603
:1043CC00F2406244B7E700E023A02711268542495A
:1043DC00D244B2490561828091E02286032484FF95
:1043EC0055BFA284E5BF41114AC037E900E022C4A1
:1043FC00032409003707200006C626C2798C232027
:10440C00E9180F10000089E523208910154515A027
:10441C00AA849717002083C7F7B82E8563F5F4009C
:10442C00894763EE9700A53DB7E700E023A087100E
:10443C000D45B2402244924402494101828083A737
:10444C0085FF99E703C7E5FF9307F00F6308F700B3
:10445C00B935B7E700E023A087104DBF238F95FE39
:10446C00171500201305C5B3ED3BA1652685012E5C
:10447C0001452320891075BF9717002023A207B28E
:10448C00828097170020938727B79C4399E33E853A
:10449C00828003D727006316B70003C70700E30821
:1044AC00A7FEDC47E5B7A5C1011106CE22CC26CA72
:1044BC008147C14633D7F540058B29C312053E957C
:1044CC0031473305E50217170020130727B70443BC
:1044DC0005443314F4002EC642044180AA949C4037
:1044EC00C8408297B24523A0040023A20400A18DEA
:1044FC00F2406244D2442E85056182808507E39B9D
:10450C00D7FA0144EDB72E858280C9C1797122D4C6
:10451C0006D626D24AD04ECE01444147B3D7854069
:10452C00858BA5C31205314722953305E5029717F4
:10453C0000209387A7B003A907008544B394840097
:10454C00C204C180BE892A990327090011C703251B
:10455C0049002EC60297B24531473304E40283A7C3
:10456C0009003E941C4489E72320090023220900FA
:10457C00B2502254A58D02599254F2492E854561B0
:10458C0082800504E31CE4F88144DDB72E8582802B
:10459C004111B7E700E022C480433707200006C66C
:1045AC0026C2798C23A0E7180F1000009717002063
:1045BC009387C7A49C539384418399C782979C404B
:1045CC003E9523AAA18239A097170020938747A272
:1045DC009C43EDF78840B74703009387D73F3305DB
:1045EC00F502B7A72600938737ECB24092443E956C
:1045FC0023AAA182B7E700E023A08710224441013F
:10460C0082800111B7E700E022CC80434AC837070B
:10461C00200006CE26CA2A892E86798C23A0E7187C
:10462C000F100000131506019305F004418132C6EA
:10463C0097D0FF1FE78020E3AA8419C53246CA85AC
:10464C0097C0FF1FE7806024B7E700E023A0871026
:10465C00F240624426854249D244056182807971D8
:10466C00B7E700E022D480433708200006D626D2D4
:10467C004AD04ECE52CC56CA5AC85EC662C43374A7
:10468C00040123A007190F10000005E123A08710D7
:10469C000945B250225492540259F249624AD24A04
:1046AC00424BB24B224C4561828097170020938776
:1046BC0027949C43BA8A368AB28B2E8BAA8982970E
:1046CC00971700209387879798433E898144B1467A
:1046DC00C147338CD40233068701104241EAC165CD
:1046EC00938505F0414597D0FF1FE780C0D705E1C2
:1046FC0097170020938787909C5B81C78145114554
:10470C008297B7E700E023A087102D4559B797177C
:10471C0000209387678E984331E79717002023ADCD
:10472C00A78C230005008327090005473317970042
:10473C0023260500232475012311E50023225501AE
:10474C00E29723A0370123A2670123A45701630436
:10475C000A0023009A00B7E700E023A08710014568
:10476C000DBF3E875C47F5FF48C765BF8504E392E4
:10477C00F4F6B7E700E023A08710214519BFB7E78F
:10478C0000E09843B706200023A0D718758F0F10B0
:10479C0000009716002083C6F6806373D5021716A7
:1047AC00002013062685931615000842369583566D
:1047BC000500D58D2310B50023A0E710014582809C
:1047CC0023A0E7100D458280B7E700E09843B706B9
:1047DC00200023A0D718758F0F100000970600201B
:1047EC0083C6567C6375D502171600201306868087
:1047FC0093161500084293C5F5FF369583560500B0
:10480C00F58D2310B50023A0E7100145828023A06D
:10481C00E7100D458280011137E700E026CA0443FA
:10482C00B706200006CE22CC4AC84EC652C4F58C20
:10483C002320D7180F100000130705FF1377F70F6D
:10484C00FD4763E5E70AB146B306D502970700209A
:10485C009387C77E984336971C43C9CB135A4500A0
:10486C0005443D893315A4001314050141802E899C
:10487C005285A2853931AA8929CDA2855285A937BD
:10488C00970700209387C7769C4382979707002051
:10489C0083D7077C338727032A8481461306006459
:1048AC00B3B7270313050732B335E500BE95EF60A8
:1048BC009272B3078500970600209386E6783E87B0
:1048CC00D44263E4A70063E4D7003387D74023A422
:1048DC00E900B7E700E023A097100145F2406244DD
:1048EC00D2444249B249224A05618280B7E700E0CE
:1048FC0023A097100945DDB70111B7E700E026CAE0
:10490C0084433707200006CE22CC4AC84EC6F98C09
:10491C0023A0E7180F100000BD4763E9A704314737
:10492C003307E50297070020938747719C43BA979A
:10493C009C438DCF05443314A400420441802E893E
:10494C000145A2853D3EAA8911C5A2850145AD3D13
:10495C0023A42901B7E700E023A097100145F240FA
:10496C006244D2444249B24905618280B7E700E013
:10497C0023A097100945E5B779714AD037E900E0D3
:10498C0026D283240900B707200006D622D44ECEA7
:10499C0052CC56CA5AC85EC6FD8C2320F9180F108B
:1049AC0000009707002083C7F75F637AF50097072D
:1049BC0000209387E76383AB070063970B00B7E78F
:1049CC0000E023A09710A9A0170B0020130BCB67B6
:1049DC00832A4B00B74736FE938707C82E8A970564
:1049EC00002083D5E566BE9AB387C5022A84B289B6
:1049FC008146B3B5C50213850732B337F5001306EC
:104A0C000064BE95EF60325D63F0AA02232099101A
:104A1C000145B250225492540259F249624AD24A88
:104A2C00424BB24B45618280829B9705002083D517
:104A3C002562B38735032A89130600648146B3B512
:104A4C00350313850732B337F500BE95EF60B258C6
:104A5C00B30725013E8903274B0063E4A70063E4F9
:104A6C00E7003389E740D2852285EFF09FA109C981
:104A7C0023242501B7E700E023A09710054551BF7B
:104A8C00936504F0C205C181414597D0FF1FE780B3
:104A9C00809D19E997070020938747569C5B85D327
:104AAC00A2851145829721BF970700209387C75491
:104ABC009C4385E79707002023A0A754854723260E
:104ACC000500232425012311450123008500A300A3
:104ADC00F5002322050079BFBA87D84775FFC8C7F0
:104AEC00F1BF7971B7E700E026D284433707200085
:104AFC0006D622D44AD04ECE52CC56CA5AC85EC61E
:104B0C0062C466C26AC0F98C23A0E7180F100000BB
:104B1C003DC14144B689B28A2E8A2A89B14C170B01
:104B2C000020130BAB51054D130C0003B30B940376
:104B3C0003270B005E971C43A5E39375F400B31594
:104B4C00BD0013554440C2055686C1811375F50F3F
:104B5C00253539C183270B00DE9723A0270123A21B
:104B6C0047016384090023808900B7E700E023A094
:104B7C009710014521A023A097100945B25022544B
:104B8C0092540259F249624AD24A424BB24B224CDD
:104B9C00924C024D456182800504E31984F9B7E714
:104BAC0000E023A097102145D1BF0111B7E700E029
:104BBC0026CA844322CC4AC84EC63707200006CEEC
:104BCC002A84AE893289F98C23A0E7180F100000D3
:104BDC0065332285CE85EFF0DF8A2A8405C59705DB
:104BEC00002083D5E546B387250313060064814670
:104BFC00B3B5250313850732B337F500BE95EF60C7
:104C0C00923D48C013351400F2406244B7E700E00F
:104C1C0023A097104249D244B2490E050561828007
:104C2C000111B7E700E04AC803A9070022CC4EC621
:104C3C003707200006CE26CAAA892E843379E900CC
:104C4C0023A0E7180F100000EFF0BF83AA8419C14E
:104C5C0023110500A2854E85853E9707002083C74A
:104C6C006734639B37019707002083D727385D8C07
:104C7C0097070020239C8736B7E700E023A0271175
:104C8C00014591E01945F2406244D2444249B2498F
:104C9C000561828001114AC837E900E022CC032467
:104CAC000900B707200006CE26CA4EC67D8C2320ED
:104CBC00F9180F1000009307F00263E8A704B1473E
:104CCC00B304F502970900209389493783A709009B
:104CDC00A6979C439DCB9377F5008545B395F5003E
:104CEC00C205C18111812D3F83A709000145A697FB
:104CFC0023A0070023A2070023208910F24062445E
:104D0C00D2444249B24905618280B7E700E023A052
:104D1C0087100945E5B74111B7E700E026C2844387
:104D2C0006C622C437072000F98C23A0E7180F1001
:104D3C000000EFF00FF519E90145B2402244B7E746
:104D4C0000E023A097109244410182809707002035
:104D5C009387072A9C4300458297970700209387E7
:104D6C00A72E6368A402D843B74636FE938606C8BE
:104D7C003305A4403697E371E5FC13070064B335A3
:104D8C00E50203D6870081463305E502EF60B224C5
:104D9C006DB7D8433A94C1BF411122C426C217043F
:104DAC0000201304642A970400209384A41F9448C1
:104DBC005840970700209387A72306C69C4363930C
:104DCC00E60882975440B74736FE938707C8B697D4
:104DDC003387A7003A856364F7006364D700330513
:104DEC00D740970400209384643FDC5081CF970711
:104DFC0000209387674694433707CDFF7D179C4669
:104E0C00F98F9CC611E14840970700209387071F34
:104E1C00DC53829719E5DC508DC3EF505138EF40CD
:104E2C00317ADC5099CB970700209387E74298435F
:104E3C00B70633001C47D58F1CC7B240224492449E
:104E4C0041018280829794485840B387A6003E85E2
:104E5C0063E4D700E3E7E7F83385E74059B741113E
:104E6C0006C69707002023AFA71C0295B2409707F0
:104E7C00002023A5A714014541018280994763E9CD
:104E8C00B7008A059707002093878714BE9588C1C1
:104E9C0082809707002023A5A71A11C585471707FD
:104EAC0000202306F71482804111714681451705B5
:104EBC0000201305E51106C69707002023AE071244
:104ECC009707002023A007189707002023A207129A
:104EDC0097070020238D07109707002023A20716A1
:104EEC0097C0FF1FE78080A113068002814517053C
:104EFC0000201305250B97C0FF1FE78020A0EFC0F3
:104F0C00D13F970700209387670F03C5C70383C75B
:104F1C00D70385453E958D473305F5023905137545
:104F2C00F50F970700202380A70899473305F50252
:104F3C001305052497C0FF1FE780E05217070020D8
:104F4C00232EA70E59CD9947170600200346A60518
:104F5C003306F60281451306062497C0FF1FE7802F
:104F6C00E099970700209387670D9C43938707244C
:104F7C0017070020232CF704170700200347A7026C
:104F8C000A07BA97170700202326F706EFF0CFCEB3
:104F9C00E129970700209387670394439707002024
:104FAC0083C7570013972700369717F6FFFF130692
:104FBC00065610C3138717001377F70F0A07369797
:104FCC0017F6FFFF1306664E10C3138737008907C9
:104FDC0093F7F70F8A0797050020A385E5FCB69792
:104FEC0090C3B240410182809707002083C797FB92
:104FFC0017070020034727FB63F3E702170700207E
:10500C001307C7FC18439386170017060020A30B41
:10501C00D6F893962700369708C33E85828093076F
:10502C00F00FE5BF1C416384071641777D8FB706EF
:10503C0000208947631ED71403574500630A0714E1
:10504C00411122C419462A849305F00F610506C646
:10505C0097C0FF1FE780009905478D476304E51251
:10506C001C4481CB58589947630E0710185C630B8E
:10507C00071013060004814517050020130505F8D9
:10508C0097C0FF1FE780808713060004A2851705D1
:10509C0000201305A5F697B0FF1FE780007F970748
:1050AC00002083D767F617070020130727F599E729
:1050BC0093070010970600202398F6F4970700201A
:1050CC0083C7A7F491E7854797060020238FF6F254
:1050DC009707002083D787F391E7ED4797060020C9
:1050EC002396F6F29707002083C737F291E795478E
:1050FC0097060020A38BF6F09707002083C727F1B3
:10510C0091E78547970600202383F6F09707002048
:10511C0083C7F7EF99E78347F70097060020A3882A
:10512C00F6EE9707002083C7B7EE81CF93F63700D2
:10513C008983170600202301D6F097060020A38D43
:10514C00F6EE9707002083C7A7EC91E7D5479706A3
:10515C000020238FF6EA8347640199E79307C00385
:10516C00970600202387F6EA1C5791C7829797076A
:10517C000020239DA7E2FD5717070020A304F71476
:10518C0025338147B24022443E85410182808947C4
:10519C003E85828001114EC6970900209389C9EA89
:1051AC0083A7090006CE22CC26CA4AC852C48297CD
:1051BC0013090064B335250303DA8900814652864E
:1051CC0033052503EF60226197070020938787DD65
:1051DC00804FAA8401456306940233858440636E34
:1051EC00940003A5490052868146B335A9023305C4
:1051FC00A902EF60425E018D26959707002023AF30
:10520C0097DAF2406244D2444249B249224A0561DB
:10521C008280011122CC0A852E844146978502009A
:10522C00938585C906CEEF609214180806043A944B
:10523C00035504FF9707002083D7A7E1F24062448F
:10524C00AA9737450F00130505243355F502056160
:10525C0082809707002083D7C7DF51471D45637CA9
:10526C00F702794719456378F702130720031545B0
:10527C006373F7021307B0041145637EF70013073D
:10528C0040060D456379F7001307600909456374FF
:10529C00F70013B5B70F8280011122CC06CE2A84F9
:1052AC002EC6EFF0EFAEB245F240818D33A5A502CC
:1052BC00229562441375F50F05618280011122CC91
:1052CC0006CE2A842EC6EFF0AFACB245F240818DEB
:1052DC0033A5A50222956244420541810561828075
:1052EC00011122CC06CE2A842EC6EFF06FAAB2454D
:1052FC00F240818D33B5A50222956244056182800E
:10530C0097070020938787CF985739CB411122C438
:10531C0026C206C6BE84029717070020035707C98A
:10532C002A8415CBBA876373A700AA87C207C183E7
:10533C00BA866373E400A286C206C182958F514778
:10534C00635BF700DC5491C38297EF50014E9707D3
:10535C000020239D87C4B2402244924441018280A4
:10536C0082809707002023AB07CE970700209387F6
:10537C00E7C8DC57011106CEAA8581C72AC68297D9
:10538C00B245CDC19C410545D9CBDC41C9CB83D7B6
:10539C008500D1C783D7A500D9C351461705002076
:1053AC00130585CA97B0FF1FE780204E9707002092
:1053BC00238207CA97070020938707C99C431707C6
:1053CC0000202327F7C29707002083C797C48DE7D7
:1053DC009307805717050020035585C73305F50241
:1053EC0037460F001306062481468145EF60A23E26
:1053FC0097070020A38FA7C017070020034777C18A
:10540C00A54763E7E700A94717070020A303F7C0E8
:10541C0017050000130545D8EFF07FA40145F240B5
:10542C00056182809707002023AC07B897C7FF1F40
:10543C009387E799170700202328F7C07D57970714
:10544C00002023A5E7C0B7873200938727A19706D2
:10545C00002023AFF6BE97070020238D07BEB7C7E9
:10546C00004023A4E726B9B7011122CC1704002071
:10547C001304C4B8084406CE26CA4AC801E9054537
:10548C00F2406244D2444249056182805C58E5DBBB
:10549C00185C75D77000854582971844B247E300B5
:1054AC00F7FE9305E004170500200355E5B597C0FA
:1054BC00FF1FE78040FB170700202325A7B061D111
:1054CC0017060020035646B49305F00F97B0FF1F44
:1054DC00E780C0428144170900201309A9AC970743
:1054EC00002083C787B20326090263C1F402328508
:1054FC0097C0FF1FE780400601459707002023A3B4
:10550C0007AC9707002023A107AC9DBF970500208F
:10551C0083D585AFB38795020844185C89818504CF
:10552C003E9508C2029765BF011156C2970A00202A
:10553C00938ACAAC83A78A0022CC4AC84EC606CE30
:10554C0026CA52C45AC0AA892E843289638607227D
:10555C0003A74A03630907141307F01F6367A71413
:10556C0097040020938404A403AA040263170A0A74
:10557C009565938515E0170500200355E5A897C0A0
:10558C00FF1FE78040EE9707002023ADA7A22A86D5
:10559C00630B051083A74A0303A58A009705002017
:1055AC0083D585A68981829783A78A0003AA0402E2
:1055BC0017070020232AF7A08947639CF908C147E5
:1055CC006313F40E9705002083D505A4938505FC81
:1055DC009147B3C5F5028A05D29503C725009307F9
:1055EC00A005631EF70A83D70500639A370B4A851B
:1055FC002286910597B0FF1FE78020299C50528589
:10560C00639347150145F2406244D2444249B24982
:10561C00224A924A024B05618280D850E38EE7F809
:10562C009565938525E0170500200355E59D97C0EA
:10563C00FF1FE78040E32A8A3DC52A8683A74A03D9
:10564C0003A58A009705002083D5059C8981829744
:10565C00A5B78D47639DF900C1476316F404970500
:10566C00002083D5659A938545FDF199B5B791478F
:10567C00639AF900631934039705002083D5C59804
:10568C00A115E5B793070010639FF900A14763ECE0
:10569C0087009705002083D52597C115F9B79C5035
:1056AC0052856396470D2945B9BF1D6A568B6371A8
:1056BC00450B130A05E01947334AEA021707002085
:1056CC0003578794970A0020938ACA8D330AEA02FB
:1056DC003E9A83A74A026395470183A40A029DE47C
:1056EC009305E004170500200355059297C0FF1F92
:1056FC00E78060D7AA8445D983274B039705002000
:10570C0083D585902A868981528582979145130786
:10571C00A005898193972500A69783C627006393DC
:10572C00E60483D60700639C360385058A0522862A
:10573C00A6954A8597B0FF1FE780201583A70A021C
:10574C00E38297EC268597C0FF1FE780E0E05DBD04
:10575C0021677917E369A7F4330A454185B783C5F7
:10576C00370045BF83A70A02E38F97F2268597C0BF
:10577C00FF1FE78060DE05BF9707002093878782B5
:10578C008C5395D191479306A005898313972700D5
:10579C002E9703462700E318D6F003560700631C28
:1057AC00360185078A072286BE954A8597B0FF1F6A
:1057BC00E780A00D81BD83473700C1BF970700204C
:1057CC009387C783984739C79C5FA9C7054763135D
:1057DC00E504411122C417F4FF1F1304A47C1050DC
:1057EC0006C60DC648509705002083D5E5818981F2
:1057FC008297085097C0FF1FE78000D697F7FF1FCE
:10580C0023A2077C97F7FF1F23A0077CB2402244FA
:10581C00410182808280011117F7FF1F1307077E59
:10582C004EC68329870022CC26CA4AC806CE52C44B
:10583C0056C2AA842E843289638B09201C5FBA8AD3
:10584C0099EB2945F2406244D2444249B249224A7A
:10585C00924A056182805C5BEDD79307F01F63EA87
:10586C00A70E97F9FF1F9389E97383A70902B1CBA0
:10587C0003A58A0083A749026395A706894763930A
:10588C00F408C147E31FF4FA17F5FF1F0355C5775A
:10589C009147130505FC3345F5029317250003A525
:1058AC0009022286CA853E959307A0052301F500BF
:1058BC0023109500110597B0FF1FE78000FD0145EF
:1058CC0051B79305E00417F5FF1F0355E57397C017
:1058DC00FF1FE78040B997F7FF1F23A5A76E49F973
:1058EC008DB783A74A0303A6090297F5FF1F83D53B
:1058FC00A5718981829783A78A0017F7FF1F23253B
:10590C00F76CADBF8D47639EF400C147E31BF4F207
:10591C0017F5FF1F0355456F130545FD9377C5FF1D
:10592C00BDBF9147639AF400E31D94F017F5FF1F78
:10593C000355856D2115DDB793070010E393F4F043
:10594C00A147E3E087F017F5FF1F0355E56B411501
:10595C00F1B79D676379F506930705E01947B3C75F
:10596C00E70217F7FF1F0357276A17FAFF1F130ADF
:10597C006A63B387E702BE9983270A02A1CF832704
:10598C004A026399370703250A0291461308A005BA
:10599C009305F00F93D72600139727002A970346F9
:1059AC002700631F060783580700034637006395DB
:1059BC009806B306D64063CF860485078A072286ED
:1059CC00CA853E95CDBD21677917E36CA7E6B30771
:1059DC00F54041BF9305E00417F5FF1F0355C56261
:1059EC0097C0FF1FE78020A897F7FF1F23ACA75C89
:1059FC0059F581BD83A74A0303260A0297F5FF1FB9
:105A0C0083D5856089814E85829797F7FF1F23ADDB
:105A1C00375B95BF2310B70093160601C1829DBF5B
:105A2C00B385860017F6FF1F0356065E9105130615
:105A3C0006FCE368B6E013063400719A1106B296C0
:105A4C002301070123109700A301D700BDB797F7D7
:105A5C00FF1F938727559453BE89A9C203A509023A
:105A6C0091461308A0059305F00F93D726001397C2
:105A7C0027002A970346270063180605835807005A
:105A8C000346370063989800B306D640E3D786F2F6
:105A9C002310B70093160601C182C1BF8357C700FC
:105AAC0017F5FF1F034565569305E0043305F50212
:105ABC004205418197C0FF1FE780E09A97F7FF1FCF
:105ACC0023A2A75041FDB5BB17F6FF1F0356C653C3
