:040000006F10501914
:10000400000000000000000090000020C202002058
:10001400A9BDF9F5780300200000000000000000ED
:100024007803002090000020000000000000000081
:10003400900000200000000090000020000000005C
:1000440090000020900000209000002090000020EC
:1000540090000020700B00209000002000000000A1
:1000640090000020900000209000002090000020CC
:10007400DE0300209000002090000020900000206B
:1000840090000020900000209000002090000020AC
:1000940001A04111B7170040985F3AC6945F3247F8
:1000A400E39CE6FE324541018280B7F70700011167
:1000B400944B13078008F337078093F787083EC2F1
:1000C4000F100000B71700401308700523800705C0
:1000D400930580FA2380B7040F10000003C6B70409
:1000E4001376F60DA385C7042380070412467326EE
:1000F40006800F1000001376050255CEF3360780F4
:1001040093F6860836C40F10000023800705238069
:10011400B7040F100000B70614007D89558D88C7F9
:10012400010001000100010023800704A246F3A698
:1001340006800F10000073370780137787083AC6CC
:100144000F100000238007052380B7040F10000060
:100154000F1000003727004093061005A303D78033
:1001640023800704B247F3A707800F10000093070A
:100174008008F3B7078093F787083ECE0F1000007E
:10018400B7170040130770052380E704130780FAAC
:100194002380E7040F10000003C7B70413670708A0
:1001A400A385E70423800704F247F3A707800F1011
:1001B4000000056182801376050459C273360780F6
:1001C4001376860832C80F100000238007052380A9
:1001D400B7040F10000037061400130606047D89C7
:1001E400518D88C70100010001000100238007042C
:1001F4004246732606800F1000007337078013777A
:1002040087083ACA0F100000238007052380B7042B
:100214000F100000A54793F6F60F639EF600B7276C
:10022400004013073005A383E780B71700402380FD
:100234000704D2470DBFB727004013072005E5B7D1
:1002440073370780137787083ACC0F100000238098
:1002540007052380B7040F10000098471367070CA5
:1002640098C723800704E247FDBD0111814601467A
:100274008145114506CE912493078008F3B7078082
:1002840093F787083EC60F100000B7170040130706
:1002940070052380E704130780FA2380E7040F1016
:1002A400000003C76704136717002383E704238050
:1002B4000704B247F3A707800F100000F24005615E
:1002C400828041118146014681451145FD22130773
:1002D4008008F337078093F787083EC40F100000A7
:1002E400B7170040130670052380C704930680FAED
:1002F4002380D7040F100000FD552396B7022380F6
:100304000704A245F3A505800F100000733707808A
:10031400137787083AC60F1000002380C704238090
:10032400D7040F10000003C7670413671700238363
:10033400E70423800704B247F3A707800F100000E7
:1003440001A0BD473305F50201007D1575FD8280CE
:10035400411122C426C206C6AA840144631794002C
:10036400B240224492444101828005041305803E38
:100374004204C13F4180DDB79305000273A045806C
:1003840082457390153492402242B2424243D24392
:100394006244F244025592552256B2564257D257FD
:1003A4006258F25806499649264AB64A464BD64BF5
:1003B400664CF64C065D965D265EB65E465FD65F7D
:1003C4000961730020304111B7170040985F3AC6A5
:1003D400945F3247E39CE6FE324541018280B717C1
:1003E4000040130700032388E702854723A8F1820E
:1003F40073002030411106C6EF00902DF5BF230392
:10040400048015472303E48001002302A480828032
:1004140083076480E3CE07FE23030480828083077E
:100424006480E3CE07FE03454480828083076480B2
:10043400E3CE07FE2302A4808280411126C44AC26F
:100444004EC006C61377F50BAD47AA892E8995448D
:100454006306F70019456537653F8D444E8545377A
:10046400FD59FD1463983401B240A24412498249F3
:1004740041018280135509011375F50F453F220987
:10048400CDB7011126CC06CEB70408005137154567
:10049400BD37713769372AC6A53F324593771500B2
:1004A40089EB136515001375F50FF240E2440561FD
:1004B4008280FD14E9FC0145CDBF397126DC4ADA9E
:1004C4004ED852D656D45AD25ED006DE62CE66CC10
:1004D400B7E700E07D5783AA070022C603AA4700B6
:1004E40023A0E71823A2E718B717004013077005E5
:1004F4002380E704130780FA2380E70483C74704B3
:10050400930B75FFB684E20793FBFB0F8546AA891C
:100514002E8B328937240040E187015763FA760134
:100524006308D5008946130700026313D5000157F9
:10053400D98F93F7F70FB71C00402382FC041147AF
:100544002303E4801305F00F5D3D094CD135636D41
:100554007C11B7050700DA9537870700795563F2F0
:10056400E504B3879500636EF702370B0800A947CB
:1005740033EB65016399F90689E48144513D26858D
:100584000DA0DA850945553D05090345F9FFFD141C
:10059400050B693D81C49377FB0FFDF7DD3569FDDC
:1005A4007D55B7170040130770052380E704130730
:1005B40080FA2380E70403C74704418B2382E704BE
:1005C400F250B7E700E023A0571123A24711E254E9
:1005D40032445259C259325AA25A125B825B724C4B
:1005E400E24C21618280A5476395F9068569130968
:1005F400F00FB3069900B3742B01B6941349F9FFB5
:10060400B3749900856B33796901416B9387F9FF62
:10061400B3F7270199E363FC340193D94900C14737
:10062400E3E637FF99BF0569C1697D19D9B7130599
:10063400800D638869011305000263847901130541
:100644001008CA85DD3B353D21DD4E99B384344124
:10065400D9B7DA852D45D533CA94E30099F2050953
:100664007D3BA30FA9FED5BF9387F9FF93F7F70F3F
:100674006361FC0C83C71C0413073008631FF70471
:1006840037070800636BEB04B3079B00B706100041
:1006940063F5D704334BEB0089476393F9068980EC
:1006A400D549E38C04ECDA850945413B110903275C
:1006B400C9FF91472320E48003076480E34E07FECB
:1006C40023033481FD17EDFBFD14110B81C49377D3
:1006D400FB0FE9FF7D3371F5E1B5B717004003C7A0
:1006E4005704B70708001377070219E3B787070011
:1006F4007955E378FBEA33079B00E3FFE7F855B548
:100704008547E382F9F2DA852D45053B9389F4FFA9
:10071400E38504E6293393F7390091EB83260480BB
:100724000327090093074900E39AE6E43E89CE844F
:10073400F1BFB5476396F9001305900BC93135BD78
:10074400B1471305B00AE38BF9FE99476391F904A5
:10075400B7050800B365BB002D45C53181448D4BF9
:10076400A149753963967401832704802320F90015
:100774008504E39834FF8327048013172B01635502
:1007840007002312F900D5BB2322F900FDB39D47CE
:100794006399F90281451305B0044531BD44232012
:1007A400090023220900FD599D3993F77400CA9763
:1007B40003C70700FD14398D2380A700E39634FF97
:1007C4006DBBA1476392F9046D398144630D0B003D
:1007D4008D479304C0036308FB009304000563047E
:1007E4008B01930440041375C507E30895D8194594
:1007F400393139390545213126850D3909453D31D0
:100804004931E31C05D669BB91476399F900130587
:100814006006F536F53E130590090DB7E38F09D44C
:10082400F154A9BBBD660147173600001306C6097B
:10083400938606A685458347060093F7F70F91C371
:1008440082800507E3F9E6FE97370000238EB7069A
:10085400DDB77D166206618693178601E18763D44E
:10086400070001458280931726003307F500AE97F1
:1008740018439C4363E7E7007D16E37FF7FC7D554F
:10088400828005458280FD15E205E1851397850187
:10089400618793F7F50F63480700FD15139725004B
:1008A4002A97584365D713851700620561858280AE
:1008B4003308B5021C4283A80600B335B502C297BB
:1008C40033B50701AE98469585486367B5006394D0
:1008D400A50063E3070181480C43C6950CC388C295
:1008E4001CC2828081471397870161876343B700E5
:1008F4008280139727002A97232007008507E5B7EE
:100904008147014793968701E18663C5B600133595
:100914001700828093962700AA9694428507558FE4
:10092400D5B793D755408A07AA979C4305453315F5
:10093400B5007D8D8280171300E0E702C3132A847B
:10094400993705C5931725003E940327C4FF8147B3
:1009540011EB7D1516053E9542054185171300E000
:100964006700A31305838507E5B70145C5BF814724
:100974001397870161876343C70082801397270019
:10098400B386E50094422A97850714C3D5B77D162C
:1009940062066186014793178601E18763D50700E4
:1009A40013351700828093172600B306F500AE971F
:1009B40094429C437D16B58F5D8FF1BF8A05AA953D
:1009C40001476363B500828083A6C5FFF11593D701
:1009D4001600D98F9CC11397F601E5B72A83014805
:1009E400014701456343D7008280B387050183A88B
:1009F4000700B30706019C43C697AA976384F800CF
:100A040033B517010507B3080301620723A0F800F3
:100A140061871108C1BF2A8301478147014563C328
:100A2400D70082803388E50083280800330EE6006F
:100A3400032E0E003388A8403308C841638408019C
:100A440033B508018507B308E300E20723A00801D2
:100A5400E1871107E9B7171300E0E702C3010111A9
:100A6400B286B2842E86AA850A8575372A84A6851D
:100A74000A85793533348000060413351500018D59
:100A84000561171300E067004301171300E0E70254
:100A940003FC4111AA89AE8A328BB68402C202C415
:100AA40002C60144131C8401135C8C4163499C02FB
:100AB400939B1400FD1B0549138CF4FFF15C330474
:100AC400890162046184634D740592478E04CE9457
:100AD40023AEF4FE4101171300E06700C3FA1319B3
:100AE4002400B30B2B01014A93172A00D69783A540
:100AF4000B0088437800340050005D3B050A9317CF
:100B04008A01E187F11BE351FCFE92474E990504EB
:100B14002320F900A2473EC2B24702C63EC459B7D9
:100B2400131A8901135A8A41131D240093178A0149
:100B3400E18763CF970092470A044E941CC0A247F2
:100B440005091379F90F3EC2B24702C63EC485BFF8
:100B5400B3079A0313152A00569508417800340008
:100B64005000050AEA97DA978C439933C1B700001D
:100B7400197106C212C416C61AC81ECA22CC26CEC1
:100B84002AD02ED232D436D63AD83EDA42DC46DEE9
:100B9400CAC0CEC2D2C4D6C6DAC8DECAE2CCE6CE59
:100BA400EAD0EED2F2D4F6D6FAD8FEDA9385818270
:100BB4008841E700050092402242B2424243D243B8
:100BC4006244F244025592552256B2564257D257C5
:100BD4006258F25806499649264AB64A464BD64BBD
:100BE400664CF64C065D965D265EB65E465FD65F45
:100BF400096173002030B7E700E09843B70620008E
:100C040023A0D718758F0F10000001C599C1814723
:100C140011E6B7E700E023A0E7108280B386F50071
:100C240003C80600B306F500850723800601E31711
:100C3400F6FEC5B737E700E01C43B70620002320C3
:100C4400D718F58F0F10000001C53307C50011E652
:100C540037E700E02320F71082800505A30FB5FED7
:100C6400E31DE5FEF5B737E700E01C43B7062000B7
:100C74002320D718F58F0F10000001C599C1014733
:100C840011EA37E700E02320F710054582800507C5
:100C9400E309E6FE3308E500B386E50003480800EF
:100CA40083C60600E305D8FE37E700E02320F710EB
:100CB4000145828037E700E01C43B706200023206B
:100CC400D718F58F0F1000001307F6FFBA952A9670
:100CD4006317C50037E700E02320F7108280FD1575
:100CE40003C715000505A30FE5FEDDB737E700E0F0
:100CF4001C43B70620002320D718F58F0F100000DF
:100D040001C53307C50019E637E700E02320F710D3
:100D14000145828005058346F5FFE397B6FEE31B94
:100D2400E5FE37E700E02320F7100545828079715E
:100D3400973700009387C70A22D4804306D626D269
:100D44004AD04ECE52CC56CA5AC85EC669C037C9BC
:100D5400C901014B97390000938909081309F93730
:100D6400173A0000130A0A08973A0000938A0A0205
:100D7400973400009384C40B8357240095E35C44A8
:100D8400631D0B0017370000232CF704832BC400CA
:100D94002285EF00502F5E84A9A82326FB00FDB70F
:100DA40083A7090082971C443307F5406375F50057
:100DB400D8401D8F2A976361E9089737000023AF55
:100DC40007FC8355240003450400975001E0E780A5
:100DD40080C65C405844B9C70C44D040AE97BE8628
:100DE40063E4B70063E4C700B386C74014C4228B2E
:100DF4003A8459F097370000938747F99C4B094789
:100E04006373F708F917173700002329F7F8B2506E
:100E1400225492540259F249624AD24A424BB24B8A
:100E24004561828063170B009737000023AAE7FA15
:100E3400B1BF2326EB0099BF03274A021DCF63E10C
:100E4400A7043385A7408347040085E317370000D0
:100E54000347B7FA5917B307A7003E85D44063E4A4
:100E6400E70063E4D7003385D74083A70A0163769C
:100E7400F5009737000023A3A7F2228B404495BFC7
:100E8400D840BA977DBF9737000023A907F041B730
:100E940097370000938747F99C4385C3411106C6E1
:100EA40082979737000083C707F389E797370000D5
:100EB40023AC07F6B240410182809737000083C714
:100EC40087F191E79737000023A007F6828082809C
:100ED400411122C417340000130404EE1C4006C65A
:100EE40026C24AC091C782979737000023A607EC11
:100EF4009737000083C79708858B173900001309BB
:100F0400A90789CF8347790019476312F7109737E8
:100F14000000A3850706F9295C4482971C4491C309
:100F2400829797340000938464EB9840173600004E
:100F34000346D6E59737000083C747E59396170025
:100F4400BA9683D60600E5C29737000083C707E444
:100F540063E5C70E97370000238A07E21C40639EAF
:100F6400071497370000938727E79C436387071488
:100F7400973700009387C7EBDC4317370000232F14
:100F8400F7E075339737000083C7B7FF63970712FD
:100F94009737000083C7D7FE91CF8347790093F733
:100FA400F70F89EB97370000A38C07FC976001E0EB
:100FB400E780A05D973700009387C7E2DC53638E18
:100FC400070E97370000938767DC9C4BFDC7834768
:100FD400790015476363F70E9737000083C747FF0F
:100FE400918BE1EF9737000083C7E7DEF9E7904084
:100FF4009736000083C696D963C7D70C2244B24003
:10100400924402494101175301E0670063D28347C8
:1010140079001D47E314F7F097370000A38007F623
:10102400D12E1C48DDBD850793F7F70F97360000D6
:10103400238EF6D4E3E0C7F001BF86073E978355BD
:1010440007002310070097370000239507D8973728
:101054000000938727D69C4317350000034505D32A
:1010640013172500BA979C4382979737000083D7BC
:1010740067D617370000034767D193C7F7FF7D8D05
:101084009317170098403E97835707005D8D2310F0
:10109400A7009737000083C767CF91C78507173725
:1010A40000002305F7CE17370000034727CE9737F4
:1010B400000083C7B7CDE37FF7E8B24022449244EF
:1010C40002494101828013971700329703570700A2
:1010D4006DF7850715B737C700408326C720B707C4
:1010E400FCFFFD17F58F2326F72001000100973739
:1010F40000009387A7C9C84F832787262326D720B4
:101104006A0593C7F7FF99835D8D8280EFF05FD8FE
:101114007300000000000000973200009382A2CB0D
:101124000383020023800200630F0300F3251034BD
:101134002EC0970500009385A5FD73901534EF002C
:10114400204E7300203086DCEF00804DE650828014
:101154000000173700001307E7E11443411122C4CC
:101164009C5E4AC006C6998326C2858B3A84173989
:1011740000001309E9DFD1CB930700069CDE173783
:1011840000000347C7DF93070008973400009384E7
:10119400A4DE631BF700832709009C4393F707042D
:1011A40017370000230DF7DC83C7040093F7070407
:1011B4009DC397370000938727C29C438297973734
:1011C400000023A9A7DC83C7040093F7F70B1737A4
:1011D40000002303F7DA83C7440093F7070495E775
:1011E400854717370000A30BF7D89737000093877C
:1011F40027DB9C433707020098C7130700FC973688
:101204000000238DE6D69848F8D318401C5F9183DC
:10121400858B8DC31C5F93E707011CDF97370000A4
:10122400938707D89C4323A20706854717370000F6
:101234002306F7D483270900D8430583058B19C7F0
:10124400D843759BD8C3D843799BD8C3B2402244B2
:101254009244024941018280ED3D7300203093178E
:10126400D50063D3070297370000938767D39C4365
:101274007D57B8D797370000938747B1DC4F850770
:10128400173700002322F7B2937785009DCB973759
:10129400000083C787CE93E7170017370000230E9B
:1012A400F7CC930700F8173700002309F7CC9737DA
:1012B4000000938727CC98435C57F19B93E7170072
:1012C4005CD7937715008DC79737000083C7D7CABB
:1012D40093E7170017370000A300F7CA97370000F9
:1012E400938747C998435C57F19B93E717005CD7F2
:1012F4009377650095CB9377450017370000130764
:10130400A7C7CDCB8347070093E717001737000023
:101314002304F7C6973700009387C7C598435C57E3
:10132400F19B93E717005CD79317F50063D407028A
:1013340017370000034787DB418B973700009387FB
:1013440067D351C383C7870793E7070217370000A2
:10135400230EF7D89317E50063D7070297370000E9
:1013640083C7C7C1E207E18763D7070085471737FB
:1013740000002305F7C097370000938767C29C439A
:101384003707020098C79317C50063D407021737BD
:1013940000000347B7D5058B97370000938787CDA7
:1013A40029C383C7970793E7270017370000A30FC4
:1013B400F7D282808347370093E71700173700007E
:1013C400A30DF7BA81BF03C7870789463D8B63081E
:1013D400D70083C787070D47BD8BE39DE7F6914789
:1013E400B5B703C79707118B69D783C7970793E7E7
:1013F400870065BF97370000938787BA9443973770
:101404000000938767B703C70700058B11CB973795
:101414000000238507B697370000A38107B68280B2
:1014240003C71700058B65F7F85271FF83C7570090
:10143400DDB7173700001307E7B303280700832736
:1014440088039583858BADEF11C683270803BD837D
:101454002300F6009DC61C43985B4607935767011B
:101464006356070093E707C0C207C18303970600CA
:10147400C207C18709C7BA970947B3C7E7022390D0
:10148400F6008DCD8345150095C99737000083C7B5
:1014940007AF93F7070413879500894585C33A95E9
:1014A400834705000547994593F6F7066398E600D8
:1014B400E207E187814563D30700B9452E85828021
:1014C4008545EDBF411126C206C622C497340000EB
:1014D400938404AD3DED9440AE87F8527DFF37F41C
:1014E40000E03E8597370000238907A8832704D1AD
:1014F400B285ED9B2328F4D0832704D193E7870298
:101504002328F4D073005010976001E0E780A0F422
:1015140097370000938707A69C43B706800098433B
:10152400558F98C3D857719BD8D797370000A38796
:1015340007A497370000A38107A49C40094798C3D8
:10154400832704D193E787002328F4D07300501035
:101554000DA08D476315F50497370000938787A185
:101564009C43B70680009843558F98C3D857719B06
:10157400D8D7944017370000130707A083472700E4
:10158400858B89EB83473700858BC1CB9737000068
:101594002386079EB24022449244410182808547BB
:1015A400E319F5FCB7F700E003A707D16D9B23A867
:1015B400E7D003A707D11367870223A8E7D07300F6
:1015C400501098408177FD175447F58F5CC70F1072
:1015D40000009840B70702001CC7930700F81736AD
:1015E4000000230DF698973700009387A7989C4333
:1015F4009C439D83858B639FA700930760197CD3CD
:1016040054C737F700E0832707D193E787002328DF
:10161400F7D02DBF9307E01BDDB7FC52A5F39DBFA8
:10162400973700009387C7979C438847D847798D9D
:1016340009C988C79387818603A30700630303004E
:1016440002838280173700001307C7958346B701CA
:101654009737000083C7D7974C4BB697FD8B33D78A
:10166400F50097360000A38FF69297360000A38109
:10167400F696058B15EF173700000347B795B3F7B8
:10168400E702814601471305000233D6E500058AC7
:101694001378F70F19CA6397D70097370000A3830D
:1016A40007918280850693F6F60F0507E31FA7FCD2
:1016B400828097270000938727729C43011122CCD4
:1016C4004AC806CE26CA4EC682979737000093872B
:1016D400678F804701496301A406BE84636685065B
:1016E400018D135455009737000083C7478D137934
:1016F400F5016360F40497290000938969739937AD
:1017040003A884009736000083C6668B139756009F
:101714004297158C3A8683A5490063640701636484
:10172400B7003306B7409737000023A1C78AE37890
:10173400D4FC160433692401F24062444A85D2443D
:101744004249B24905618280972700009387476E1A
:10175400DC4333848740229569B797370000938729
:10176400278498438967938707F47CD397370000CD
:10177400938747889C4383A60709139656006358AA
:10178400060083A607091396660063440600745393
:10179400FDF282804111B7E700E022C4804337079D
:1017A400200006C6798C23A0E7180F10000011C191
:1017B40099E5B7E700E023A0871001457DA89307CA
:1017C4003500C207C183F19BC207C18313074003DD
:1017D4006369F7021737000013078789084317372F
:1017E40000001307678814436392A60217270000BA
:1017F4001307475F185B55DFC207DD8D0545029768
:101804004DBF1737000013076786C9BF035765002C
:101814002DEB035745006366F706B306F7402146F0
:10182400637CD60203280500938687001D8FAA9641
:101834006117172600000356C6552392E60023A01D
:1018440006012393060014C12312F500130786FF33
:1018540097260000239FE6522313B5009725000026
:1018640083D52553B387F540172700002313F75278
:10187400B7E700E023A087102105B24022444101CC
:101884008280084195B7B7E700E08C433707200012
:1018940023A0E718F98D0F10000001E523A0B7106D
:1018A4008280972700009387A77C03A307009727CC
:1018B40000009387677B83A8070081469A8763F2B9
:1018C400170D03A807006361F50C636FA80A13875B
:1018D40087006368E50A03D6670021670507631775
:1018E400E60003C731860507A381E18617250000BA
:1018F4001305C54903D64700035765002393070022
:10190400329742074183172E00002314EE48638C5C
:1019140067021723000013036375032303006304A2
:10192400F30203D366006310030283D7460023A0A7
:10193400060121073E9621062392C6009727000040
:101944002399E744B6879843630D1703972600004D
:101954009386C67194426306D7028356670095E264
:1019640083D64700035647001843A106B296239234
:10197400D70098C383576500A10717270000231ACF
:10198400F740B7E700E019BFBE86C2870DBF00006D
:10199400971100209381C1BA17510020130141E629
:1019A4001305400097E5FF1F938585651706002002
:1019B400130606FE63FAC5008322050023A0550022
:1019C40011059105E3EAC5FE17C50100130505904D
:1019D400970500209385C5FB1386018263FAC50031
:1019E4008322050023A0550011059105E3EAC5FEF5
:1019F40013850182972500209385857A6377B50046
:101A0400232005001105E36DB5FEFD42739002BC71
:101A14008D4273904280930280087390023097E263
:101A2400FF1F9382E25D93E232007390523097225B
:101A340000009382A2C8739012347300203039716D
:101A440001436EC619A0397141536AC866CA62CC93
:101A54005ECE19A0397101535AD056D252D44ED603
:101A64004AD826DA22DC06DE330161408282411143
:101A74004AC026C222C406C68282B24D4101024D2A
:101A8400924C224CB24B4101024B924A224AB24937
:101A94004101024992442244B240410182803D43C3
:101AA4002A876373C3029377F700BDEFADE593769E
:101AB40006FF3D8ABA960CC34CC30CC74CC74107FA
:101AC400E36BD7FE11E28280B306C3408A06970215
:101AD400000096966780A6002307B700A306B70008
:101AE4002306B700A305B7002305B700A304B70076
:101AF4002304B700A303B7002303B700A302B7006E
:101B04002302B700A301B7002301B700A300B70065
:101B14002300B700828093F5F50F93968500D58D49
:101B240093960501D58D61B793962700970200001F
:101B340096968682E78086FA9680C1171D8F3E9618
:101B4400E374C3F8A5B73367B500FD530D8B79E78C
:101B5400B7877F7F9387F7F710419441B372F600FC
:101B64003363F600BE92B3E262006397720C6318AB
:101B7400D6065041D441B372F6003363F600BE92E8
:101B8400B3E262006398720A631BD604104594455D
:101B9400B372F6003363F600BE92B3E2620063915F
:101BA400720A631ED6025045D445B372F6003363FD
:101BB400F600BE92B3E26200639A72086311D60221
:101BC40010499449B372F6003363F600BE92B3E24F
:101BD4006200639372085105D105E30FD6F613171B
:101BE400060193970601631CF7001357060193D768
:101BF40006013305F7409375F50F91E9828041831F
:101C0400C1833305F7409375F50F91E18280137713
:101C1400F70F93F7F70F3305F7408280034605006B
:101C240083C60500050585056313D60065FA3305EB
:101C3400D640828011059105E312D6FE01458280CB
:101C44002105A105E31CD6FC014582803105B105BF
:101C5400E316D6FC014582804105C105E310D6FC9C
:101C640001458280B717004003C777051377E70F54
:101C7400A38BE704130700F8A38DE7043D47238CE7
:101C8400E70413075003A38CE70403C7A7051377DE
:101C9400D70F238DE7048280B717004003C7E702FC
:101CA4000D8941111377C70F498F93068008F3B646
:101CB400068093F6860836C60F100000930670055A
:101CC4002380D704930680FA2380D7040F100000E2
:101CD4002387E70223800704B247F3A707800F1086
:101CE40000004101828041112A83014E930E407EFF
:101CF400130F0019930F400663E56E129308001941
:101D040013034006B3781503854E0D4FA14F33736B
:101D140065020D891335150063EFBE121308F6FF33
:101D2400794672984208135808013307C70213D63C
:101D34001700BE0732976146B3F6C60213068070D9
:101D4400B386C6023697A166F58F42075D8FB71634
:101D5400004083C7F60293F70708A303F100034684
:101D6400710083C7F60293F70708E394C7FE83471D
:101D74007100B716004093F7F70F638807129307B3
:101D84008008F3B7078093F787083EC40F1000005C
:101D9400B7170040930670052380D704930680FA92
:101DA4002380D7040F10000023AA070383C6170358
:101DB40093E60608A388D70223800704A247F3A763
:101DC40007800F1000001166B71700407D16D45B22
:101DD400C85F93854703A98EF18EF5FA93068008B0
:101DE400F3B6068093F6860836C60F1000009306F5
:101DF40070052380D704930680FA2380D7040F103C
:101E0400000098C103C7170313670704A388E702F8
:101E140023800704B247F3A707800F100000410195
:101E240082807D133368E3039308E016630E080091
:101E34003368F3039308D0166308080093783300DB
:101E440093B818009388D81633081E01131E08018E
:101E5400135E0E0155B56393E503054863860800D8
:101E64000148630303002A8871087298FD15131E44
:101E74000801C205135E0E01C18179BD13F8150076
:101E840063F4BF007908D5B713381800E5BF83C7DA
:101E9400F60293F70708A303F1000346710083C712
:101EA400F60293F70708E394C7FE8347710093F79C
:101EB400F70FF1DFE9B531714AD966CB06DF22DDD0
:101EC40026DB4ED752D556D35AD15ECF62CD6AC9DE
:101ED4006EC7AA8C02D8EF0010122A8993078008D3
:101EE400F3B7078093F787083EDA0F100000B7179F
:101EF4000040130770052380E704130780FA23804A
:101F0400E7040F10000003C7F7021377770FA387C6
:101F1400E70203C7F70213678700A387E70223805A
:101F24000704D257F3A707800F1000000545AD330F
:101F3400130780C13347E902116A93070AE893063D
:101F44005002BD69930BA004814A014B130480081D
:101F5400930470057D1AB347F9023307D7023EC0D4
:101F6400FD873ECC938709A69309803E3347F70249
:101F74003AC27D873AC4334739038549B3999901F5
:101F840093D93940B306D702B30B7703B3C6F6022D
:101F9400B3CBFB0236C6FD8636C893D6FB4136CE9C
:101FA400B7460F00938606243349D9028566938683
:101FB40006FAB3969601B389E9021307605533090B
:101FC400D90293060010B389E9023349D902B3C98F
:101FD400F9029316390036CA37190040FD8636D007
:101FE400930D090493D7F9413ED2F336048093F656
:101FF400860836DC0F100000930770052380FD006F
:10200400930680FA2380DD000F1000008346390513
:1020140093F6860FA309D9048346390593E616007F
:10202400A309D90423800D00E256F3A606800F10FD
:102034000000130C80FA116DF336048093F68608C1
:1020440036DE0F100000930770052380FD00238007
:102054008D010F10000083463905216693E60602C0
:10206400A309D90483560905B3E6A6012318D904A4
:1020740083560905D18E2318D90423800D00F25606
:10208400F3A606800F1000008346390593F6060276
:102094006389061803463905218A6DDE0818612F05
:1020A4007336048013768608B2C20F1000002380B2
:1020B4009D0023808D010F100000B717004003C658
:1020C40037051376F60DA389C70403C637051366CF
:1020D4000602A389C704835609052166B3E6A6014F
:1020E4002318D90483560905D18E2318D9042380D3
:1020F4000D009646F3A606800F10000083463905AE
:1021040093F606026386061483463905A18AEDFE1A
:1021140097E0FF1FE780E0F7AA8636D497E0FF1F19
:10212400E78020F7A256E30AD5FE835609054255F7
:10213400B3E6A6012318D904392F83463905A18AA9
:10214400EDDE035609058346290582473376CA0026
:10215400B306DA0293D5F641B296B388F640E24765
:1021640033B8C6002E983308F840A247B3B6160118
:102174003308D84063C70701631DF800924763FA28
:102184001701C247634DF80E63950701B24763E830
:10219400F80E894663E7660FF2469315180013D3C9
:1021A400F8015E8613951800B365B30042D646D491
:1021B400EF80A1493258050B137BFB0F63470001E5
:1021C40063120838A258638F083613081500B33613
:1021D400A800B69513D6F5013298B336C800AE966A
:1021E40013581800FE06B3E606017336048013760E
:1021F4008608B2C60F10000023809D0023808D0145
:102204000F1000000356C902B296C206C1822316FB
:10221400D90223800D00B646F3A606800F100000F5
:1022240021BDF336048093F68608B6C00F10000073
:1022340023809D0023808D010F1000008346390503
:1022440093E60602A309D90423800D0086460DBD3A
:10225400F336048093F68608B6C40F10000023807A
:102264009D0023808D010F1000008346390593E6FD
:102274000602A309D90423800D00A646A5BDE30DDB
:102284000BF0F336048093F68608B6C80F100000EE
:10229400930680FA23809D002380DD000F10000048
:1022A4008346390593F5FC0F93F6860FA309D904E9
:1022B40083463905CD8EA309D90423800D00C64673
:1022C400F3A606800F100000130580FA03463905B3
:1022D400930639051D8A6314962973360480137690
:1022E4008608B2CC0F100000130680FA23809D00EC
:1022F4002380CD000F10000003C606001376F60DF0
:102304002380C60003C60600136606022380C600A7
:10231400835609051166D18E2318D90483560905FD
:102324002166D18E2318D90423800D00E646F3A636
:1023340006800F100000130680FA8346390593F6D1
:1023440006026388062483463905130C3905A18ADD
:10235400FDDA0818CD21F336048093F68608B6D04A
:102364000F100000930680FA23809D002380DD0077
:102374000F10000083460C00116693F6F60D23003F
:10238400DC0083460C0093E606022300DC0083563F
:102394000905D18E2318D904835609052166D18EE7
:1023A4002318D90423800D008656F3A606800F1047
:1023B4000000130680FA8346390593F60602638506
:1023C400062083463905A18AEDFE97E0FF1FE780CA
:1023D40040CC2A8C97E0FF1FE780A0CBE30C85FF5D
:1023E4008356090511664255D18E2318D904A521B7
:1023F4008346390513063905A18AFDDAF3360480CC
:1024040093F68608B6D40F100000930680FA238052
:102414009D002380DD000F1000008346060093F624
:10242400F60D2300D60023800D00A656F3A60680E1
:102434000F1000008356090503462905D247B376D9
:10244400DA003306CA021305800C9355F64136961A
:10245400330DF6408257333CD6002E9C3336A6010A
:10246400330CFC40330CCC403308850392564E8623
:10247400B335A5033305A503C295EF80011D63465B
:102484008001631E0C16630C0D16130615003335FC
:10249400A6002E959356F5013696B335D600AA9527
:1024A4009396F50105828585D18E6346B000639DC0
:1024B400051A638B061A0356C90215823305D60022
:1024C4003336C500B2956348B00063910524130602
:1024D400F00F637DA622894663F35615930780089F
:1024E400F3B7078093F78708BED60F10000037179D
:1024F4000040930770052300F704930780FA230034
:10250400F7040F1000008356C70289678117D58F1F
:10251400C207C1832316F70223000704B657F3A7A3
:1025240007800F100000FA506A54DA544A59BA5915
:102534002A5A9A5A0A5BFA4B6A4CDA4C4A4DBA4DFB
:10254400296182801308F5FF3335A800FD152E9507
:102554001356F5013298B336C800AA9651B1F33632
:10256400048093F68608B6CA0F10000023809D00ED
:102574002380AD000F10000083463905CD8EA309DA
:10258400D90423800D00D646F3A606800F10000060
:1025940035BBF336048093F68608B6CE0F100000E0
:1025A40023809D002380CD000F1000008346390551
:1025B40093E60602A309D90423800D00F646F3A688
:1025C40006800F10000095BBF336048093F686084E
:1025D400B6D20F10000023809D002380CD000F1081
:1025E40000008346390593E60602A309D904238033
:1025F4000D009656F3A606800F1000006DBB9306DF
:10260400F5FF33B5A600FD152E959355F501AE964D
:10261400B3B5B600AA951396F501858269B5F3366C
:10262400048093F68608B6D80F100000930680FA4B
:1026340023809D002380DD000F1000008356C90213
:102644000566011693F6F60FD18EC206C1822316D3
:10265400D90223800D00C656F3A606800F10000091
:10266400850A93FAFA0F51B233E6B60045C203560F
:10267400C9023305D0403338A000B305B040B38558
:10268400054115826345B000D1E16371A60889460E
:1026940063F0560593078008F3B7078093F787081C
:1026A400BEDA0F100000B71700401307700523802F
:1026B400E704130780FA2380E7040F10000003D710
:1026C400C7027D8B2396E70223800704D65781BD7A
:1026D400F336048093F68608B6DC0F1000009306E8
:1026E40080FA23809D002380DD000F1000008356B4
:1026F400C9020566011693F6F60FD18EC206C18291
:102704002316D90223800D00E656B9B79307800833
:10271400F3B7078093F78708BEDE0F100000371762
:102724000040930770052300F704930780FA230001
:10273400F7040F1000000356C70293975600B29790
:10274400C207C1832316F70223000704F657C1BB4F
:10275400914763EEB70217A701001307E7AC8A0598
:10276400BA959C41BA978287B717004003A7470BD5
:102774001345F5FF698F23AAE70A03A7070B698F9F
:1027840023A8E70A03A7070A798D23A0A70A828052
:10279400B717004083A6470B1347F5FFF98E23AA0A
:1027A400D70A83A6070B558D23A8A70A83A6070A71
:1027B400758F23A0E70A8280B717004003A7470B51
:1027C400498F23AAE70A03A7070B1345F5FF45BF63
:1027D400B717004083A6470B1347F5FF758F23AA4D
:1027E400E70A03A7070A598D4DB7B717004003A797
:1027F400470B498FEDB7B717004088474205418121
:102804009377050491EB9377F5013755E8011305A8
:1028140005803345F50282809377050C1307000485
:102824006397E7009377F50137459C1CCDB7216585
:10283400130505D0828037E700E01C435443A1838D
:10284400E206D58F1CC1FD572320F7182322F71861
:102854000F100000828013178500B7E700E023A063
:10286400E710618123A2A7108280B7F700E08847B0
:10287400CC478280814737370040A14663C4C700F4
:10288400328582800345B740E38EA6FE3385F5008A
:102894000345050085072304A740CDB797F7FF1F1D
:1028A4009387074A9C43172700201307678F3E9599
:1028B400636EE50017470020130787D46368A700F9
:1028C40017F7FF1F232EA7463E858280FD57EDBFD5
:1028D400411122C406C62A84393F2947B307E502B9
:1028E400B2408D83B3D7870222449507B3D7E7025A
:1028F40037370040C207C1832316F7404101828065
:10290400716541111305052006C6D937B737004054
:10291400130770F82381E7400D47A381E7401307AD
:102924000004A380E74005472387E740B240410104
:1029340082802380018223A20182B717004003A76B
:10294400070CB706C0FFFD16758F23A0E70C03A77D
:10295400070DB7064000558F23A8E70C03A7070C03
:102964003D9B23A0E70C03A7070D1367070123A8CA
:10297400E70C828023A2A18213064006894503C581
:10298400C1826F304114B717004003A5470C83A7D9
:10299400470C598113451500C18B058999E31365CB
:1029A400250083C70182638CA7002380A18201C90B
:1029B4009387418203A30700630303000283828099
:1029C40011456FF04FCF411193962500AA852D45EF
:1029D40006C697E0FF1FE78040AEB24001454101C3
:1029E4008280011122CC06CE3714004026CA4AC880
:1029F4004EC652C483447405034AB405834984050E
:102A040003499405EFF00FA68347A40593F4F40F4C
:102A1400137AFA0F93E71700230DF40493F9F90FCF
:102A24001379F90FB717004003C7A705058B6DFF8E
:102A340003D5C705A38D4705238C3705A38C27052C
:102A4400A38B9704F2406244D2444249B249224AD9
:102A54000561828041119397050122C406C6C1878E
:102A64002E8463DA0700EF20F14E19C1EF20714282
:102A74002165218D1DA093F7150013C5150091EF55
:102A840093F7250099CF01371306000A894503C53A
:102A9400C182EF30410313452400B2402244410176
:102AA40082809397250163D00702EF409151093F3B
:102AB40037F60200130606E0896503C5C182EF30CC
:102AC400810009657DB7939715010145E3D707FC9C
:102AD400179501001305057BEF8021501306006450
:102AE400916503C5C182EF20117E116559B72D711F
:102AF400232A9110FD74E98C232C811023282111A1
:102B0400232631112A84AE893289930600100A865D
:102B1400A6852D45232E111097E0FF1FE780E0992D
:102B24001315440151810A0513962900CA850A9593
:102B340097E0FF1FE780200CA685856601462545A2
:102B440097E0FF1FE78060970A86A685930600102A
:102B5400294597E0FF1FE78040968320C111032495
:102B6400811183244111032901118329C1101561A5
:102B74008280B7F7070003C70701411106C622C4C4
:102B840026C24AC0A547631AF7009537B2402244CB
:102B94009244024901454101828013942500AA848C
:102BA4003289A286AA850146254597E0FF1FE78062
:102BB400C090A2864A86A685294597E0FF1FE78034
:102BC400C08FE9B71D714946979501009385056744
:102BD40017A501001305C55286CEA2CC97E0FF1FAE
:102BE400E780600801E91795010013056566EF8029
:102BF400C13E01A037F700E0795610CBFD5654CB07
:102C0400B7E700E0056423A087109306F00214C31D
:102C140023A087180F10000017E7FF1F1307C74FE3
:102C240023A4E1824157A38AE740130600048145A7
:102C3400080897E0FF1FE780E0FF970700209387CD
:102C4400E7AD3EC89D673ECCB707010593870710E3
:102C54003ECEED472310F10285472301F102970789
:102C64000000938787D6BEC2970700009387A7F01A
:102C7400BEC48567938757D12312F10297070000DA
:102C84009387E7BE3ED8B7F5070097070000938700
:102C940087D53EDC8146970700009387A7D2300092
:102CA400E10519453EDE231A810097E0FF1FE78006
:102CB400C08018088147994630003E9603460600B6
:102CC40085070507A30BC700E398D7FEC24791C742
:102CD4000357410185676373F70001A0830741022D
:102CE40063D7070493078008F3B7078093F787082F
:102CF4003EC40F100000B71700401307700523806F
:102D0400E704130780FA2380E7040F100000B84794
:102D1400B706100013670718B8C79853558F98D390
:102D240023800704A247F3A707800F1000000808B8
:102D3400EF304128AA8501C9179501001305855272
:102D4400EF80611501A0F64066442561828041113F
:102D540017050000130545D006C622C4EF30C12173
:102D64001384C1822300A4002128E1360345040012
:102D74002244B24013060032896541016F20B154E8
:102D8400797106D613078008F337078093F787080D
:102D94003EC20F100000B717004093057005238052
:102DA400B704130680FA2380C7040F10000083C6FB
:102DB400F70293F6A60FA387D7022380070492464F
:102DC400F3A606800F100000733707801377870877
:102DD4003AC40F1000002380B7042380C7040F10E7
:102DE400000003C7F70213672700A387E7022380C5
:102DF4000704A247F3A707800F1000000545EFE082
:102E0400BFE97D3E81470147814605468545130557
:102E1400407EEFE05FED68005146814597E0FF1F7B
:102E2400E78040E1B707C0A83EC8B787E8039387A7
:102E340007D03ECA680097D7FF1F9387C7583EC67E
:102E4400EF30613CB2504561828041119795010099
:102E540093850547179501001305455906C6EF806C
:102E640081031795010013056559EF80C102B24033
:102E7400294541016F8021064111979501009385F1
:102E84006545179501001305655606C6EF80A10038
:102E94001795010013054554EF70F17FB2402945A1
:102EA40041016F8041034111979501009385C5430A
:102EB400179501001305855306C6EF70D17DB24006
:102EC400294541016F802101797122D426D24AD04B
:102ED4002E842A89B28481457146480006D6EFE0E3
:102EE4001FBC97F7FF1F938767BDDC4783D7070095
:102EF400231421012313F100EF00503E8547A3055D
:102F0400F100930700192305A1003EC62686FD574C
:102F1400A2854800230AF100EF00B03EB2502254CB
:102F24009254025945618280411122C406C68347E6
:102F340005002A849DC3979501009385653F1795E5
:102F440001001305A54AEF7011754C401795010057
:102F54001305C560EF70317471A85841B707CF00ED
:102F64009387777D631AF71A979501009385453CFB
:102F74001795010013058547EF70F1711C448356C2
:102F8400E4008355C40003C6070017950100130528
:102F9400655EEF7051702945EF70F1730356C400FC
:102FA4000C441385810797E0FF1FE780C0C483C7E3
:102FB40081071307200A638AE7001307300A638036
:102FC400E712B2402244410182800357C4008D4776
:102FD400979501009385C5351795010013050541A3
:102FE4006300F702EF70316B179501001305855AE2
:102FF400EF70716A2244B240294541016F70B16D8E
:10300400EF707169179501001305455AEF70B168A7
:103014002945EF70516C0355E400930720F80546E9
:1030240093858107238CF10645359377F50F2A8420
:1030340095C7979501009385A52F17950100130552
:10304400E53AEF7051659375F40F17950100130578
:10305400A559EF7051642945EF70F1679795010008
:103064009385052D1795010013054538EF70B1625E
:103074001795010013058558EF70F1612945EF702C
:1030840091654165930730FA0546938581077D155F
:10309400238CF106153D9377F50F2A8495C79795F0
:1030A40001009385E5281795010013052534EF7079
:1030B400915E9375F40F179501001305E552EF70B7
:1030C400915D2945EF7031610566130606C889458F
:1030D4002244B24003C5418341016F20D11E0357EE
:1030E400C40085476301F702979501009385452441
:1030F400179501001305852FEF70F15917950100FD
:1031040013050553F5B58357E4000566130606C891
:10311400239FF18291456DBFB707CC009387777DDC
:10312400631AF7029795010093858520179501008E
:103134001305C52BEF7031561C448356E4008355A8
:10314400C40003C60700179501001305A542EF70DC
:1031540091544DB5B707CE009387777DE303F7E627
:10316400979501009385C51C179501001305052843
:10317400EF7071524C40179501001305254DD9BBD2
:10318400011122CC979501009385851C2A841795FB
:1031940001001305A52506CEEF70F14FA285179502
:1031A40001001305A567EF70114F2945EF70B15267
:1031B400938781819843DC4321462C0005453AC41A
:1031C4003EC6193315C52A84979501009385451881
:1031D4001795010013058521EF70F14BA285179512
:1031E40001001305A534EF70114B2945EF70B14E62
:1031F400F240624405618280411122C406C68347BD
:1032040005002A8485CB9795010093852511179590
:1032140001001305A51DEF7011484C4017950100DE
:1032240013058529EF7031472244B24029454101F5
:103234006F70714A58411DEF979501009385050EF3
:10324400179501001305851AEF70F14417950100D5
:1032540013050528EF7031442945EF70D147224406
:10326400B240116603C54183130606E8894541014E
:103274006F207105A1679386D7036311D7029795D1
:1032840001009385A5091795010013052516EF7014
:103294009140179501001305A5246DBFED0797957F
:1032A40001009385A50717950100130525146315DF
:1032B400F702EF70513E179501001305A523EF7037
:1032C400913D2945EF7031412244B24003C5418309
:1032D400894541016F20D115EF70F13B4C401795A2
:1032E40001001305A5363DBF411106C6EF90600DE0
:1032F40019E5EF10F02FB24041016F202069B24070
:1033040041018280411197950100938565001795CD
:1033140001001305A50D06C6EF70F1372945EF70BE
:10332400913BB2404101C9B7411122C41795010034
:103334001305C50B2E84979501009385A5FB06C63E
:10334400EF7071352945EF70113905C89795010063
:10335400938545FA1795010013054509EF70B133BC
:10336400A285179501001305651DEF70D132224423
:10337400B240294541016F701136B24022444101E7
:103384008280011122CC2EC62A8497950100938550
:1033940025F7179501001305650506CEEF70B12FCB
:1033A4003246A285179501001305051AEF70B12E58
:1033B4002945EF70513283C7018481EF97E7FF1FDE
:1033C4009387C76FDC4703D70700C167FD17631DE9
:1033D400F7006244F240116603C54183130606E810
:1033E400894505616F20216EF24062440561828047
:1033F400411122C406C693F715002E8499CF0566A1
:1034040013060696854503C54183EF20C16B13451A
:103414001400B24022444101828093F725008DCBF1
:1034240097950100938585F417950100130505FC14
:10343400EF70712617950100130505E5EF70B125AE
:103444002945EF705129EF10907813452400D1B726
:1034540093F745000145D5DF854503D5E183EFE0CA
:10346400C03D97950100938565F0179501001305FC
:10347400E5F7EF70512217950100130525E2EF706F
:1034840091212945EF7031251345440059B70111A5
:103494003546979501009385A5F717950100130507
:1034A400E54406CE22CC97D0FF1FE780C07B01E91C
:1034B400179501001305C5D9EF70313201A097F7B4
:1034C400FF1F9387678F3EC4B7F50700856793870F
:1034D4000780814613868183E10519453EC697D04E
:1034E400FF1FE78080FD194693858183138541166C
:1034F40097D0FF1FE780207034001386818397954F
:1035040001009385A517179501001305A518EF1061
:1035140010382A840DC997950100938525E41795E1
:1035240001001305A5ECEF701117A2851795010092
:10353400130505EFEF7031162945EF70D119F240EC
:10354400624405618280EF70F04317950100130512
:1035540025E3EF00B059EF40B03AEFE0C05617E56D
:10356400FF1F13056553EFE0A043179501001305F2
:1035740025E2EFE000572A84EF102033EF90F07437
:10358400EF000175EF200048EF10B00DEFC00059B7
:1035940097950100938585DC17950100130505E5D2
:1035A40009C8EF70510FA28517950100130585E92D
:1035B40051B7EF70510E179501001305E5EAEF704E
:1035C400910D2945EF703111EFC0A03B8547238051
:1035D400F184EF80105F29C597950100938505D884
:1035E40017950100130585E0EF70F10A17950100A6
:1035F400130505E9EF70310A2945EF70D10D979550
:1036040001009385A5D517950100130525DEEF70FC
:103614009108179501001305E5E8EF70D10729BF5C
:10362400E131F1BF4111170500001305A5DC06C601
:1036340022C4EF207114138441832300A40017E5EE
:10364400FF1F1305A547EF0030039135EFF06FAE70
:1036540017050000130505B3EFF0CFB103450400CF
:103664002244B24013060064854541016F20A14500
:103674000111354697950100938585D91795010069
:103684001305C52606CE97D0FF1FE780C05D01E96C
:1036940017950100130505FDEF70311401A0EF50DB
:1036A400913E2AC6EF00D124EF001104EF60506868
:1036B400F24032450561828041111305800406C63B
:1036C40097D0FF1FE780609E371700408327870A43
:1036D4008D451305002093E707202324F70AEFF014
:1036E4002F87EFF0EFA117A50100130565A1EF7077
:1036F400D10E179501001305651FEF70110EEFF041
:103704006FCCEFF0CFE4AD37313F97D0FF1FE780A8
:1037140060CE01458280B7F7070003C70701A547BC
:10372400AE866316F7009397450191C301A0AA855D
:103734000146254517D3FF1F670023D84111B286E0
:103744002E86AA852D4506C697D0FF1FE780E0D6B2
:10375400B2400145410182809307000463E6C70239
:103764001D71A2CC2A84080886CE32C6EF70416748
:10377400B2461008A285294597D0FF1FE780E0D301
:10378400F64066442561828039558280938741845E
:1037940018429C4383D645000345070083C5C700F0
:1037A400035646006396A50083D5E700638DD502D2
:1037B400011106CE2386A7002397D700B705CF00B3
:1037C400DC4B9385757D05077D162EC22300010011
:1037D4003AC42316C1002317D10099C30A858297DE
:1037E400F2400561828082806D713C083EC6B70755
:1037F400E500232291103EC8AA843C083285232682
:1038040011103ECA23248110232021112E89EF2078
:10381400003F2A8497950100938505ED17950100D3
:103824001305C5BCEF702167A28517950100130528
:10383400A5FBEF7041662945EF70E169B705CB0040
:103844009385757D6800EF001024A2856800EF2041
:10385400A030014781467000CA852685EF00F042FA
:1038640015C52A8497950100938505E817950100ED
:103874001305C5B7EF702162A285179501001305E2
:1038840065F7EF7041612945EF70E1648320C11051
:103894000324811083244110032901105161828083
:1038A4009387418418429C43797122D406D60348F5
:1038B400070083C807012A8483D6450003554600C0
:1038C4006396080183D82701638DD80223880701F2
:1038D40005072399D7003708CC00DC4B1308787D03
:1038E4003ACC1307F5FF42CA23080100231EE10066
:1038F400231FD10099C7080832C62EC482973246C6
:10390400A2452285D535B2502254456182806D711D
:103914003C083EC0B707E5003EC23C083EC423262F
:10392400111023248110232291102317010023183E
:10393400010023190100231A0100231B010097E74A
:10394400FF1F83D7A71B99E3C167FD172316F10057
:1039540097E7FF1F83D7A71A81EB938741849C4382
:103964009C43DC4783D7070017E4FF1F13040419A3
:10397400584C2317F10083574400484B2318F10097
:1039840005ED97950100938525DD17950100130535
:10399400E5A5EF70415017950100130525DDEF7083
:1039A400814F2945EF7021538320C11003248110D6
:1039B400832441105161828097E7FF1F83C77714E6
:1039C40099E7EF10114D5C4C23AA0700F1BFFD17D6
:1039D40097E6FF1FA387F6120356070183470401E6
:1039E4004C470A85230BF100EF202015938741846F
:1039F4009C430147814688430A866C00EF00F02807
:103A0400AA8405C997950100938505D517950100EA
:103A14001305C59DEF702148A68517950100130570
:103A2400A5D5EF7041472945EF70E14A5C4CC84B7E
:103A340049BF97E7FF1F83C7D70CEDDB10448545CB
:103A440003C58184EF20210885B7DC4DDC4B99C781
:103A5400904503C5818491456F20E10682805C4EC8
:103A6400DC4BA1C7B9C1411122C41795010013054C
:103A7400E5972E8497950100938545CC06C6EF7093
:103A84008141A28517950100130545D1EF70A1402E
:103A94002945EF7041442244B24003C58184130692
:103AA4004006914541016F2001028280411122C4E8
:103AB40017E4FF1F130484021C4C06C689C7DC43A9
:103AC40099C34C4882975C4CC84BEF10913C5C4CBA
:103AD400B240224423AA0700410182801387E18077
:103AE400834707009306F00B850793F7F70F63E707
:103AF400F6002387F180034507008280930700F8CE
:103B0400CDBF83574500638D070C01114AC817E9DF
:103B1400FF1F1309A9FE52C4032AC90106CE22CCF1
:103B240003274A0126CA4EC6F15729EB1307D00DC5
:103B3400FD576365C7042A84130586004205418145
:103B4400B284AE89EF10113A232AAA000325C901D1
:103B54005C4995EF97950100938545BC1795010045
:103B64001305C588EF70213317950100130545CB64
:103B7400EF7061322945EF700136DD57F24062443F
:103B8400D2444249B249224A3E85056182809387E4
:103B94004400B705CF002319F5009385757D3105E1
:103BA400EF00606E0325C901834564003105EF1001
:103BB400B07A0325C9012686CE853105EF10F0774A
:103BC4007146A2854A85EF70A121504401CA8545FA
:103BD40003C58184EF10316F81474DB70D3BEDBFB5
:103BE400FD573E858280411122C417E4FF1F130450
:103BF400E4F05C4C06C6C84BEF10B1295C4C22447F
:103C0400B24023AA070003C58184854541016F2082
:103C14002102411126C2938441849C4006C622C4D9
:103C2400BDCFDC43ADCF5CC12300B5002A8497959A
:103C340001009385E5A9178501001305257BEF7025
:103C440081252945EF7021299C4023A4070023A244
:103C5400070097E7FF1F938767E8DC4FDC4B99C3A6
:103C64002955A93597E7FF1F938747E9DC4FDC4BBC
:103C740091C3953F894503C58184EF10717B9145BC
:103C840003C58184EF10D17A9C4003A347016308E4
:103C9400030022852244B240924441010283B2408F
:103CA40022449244410182800111328506CE22CC05
:103CB40026CA2E84EF10B074AA84979501009385C8
:103CC40065A41785010013056572EF70C11C030715
:103CD40084000356640083554400A68617950100AA
:103CE4001305C5ADEF70211B2945EF70C11E97E781
:103CF400FF1F83C707DF639797000145453B814555
:103D04000A85013FF2406244D244056182806D71AC
:103D140023248110232611102322911093F74500A8
:103D24002E84638F07103C083EC0B707E5003EC2EF
:103D34003C083EC423170100231801002319010085
:103D4400231A0100231B010097E7FF1F83D707D91C
:103D540099E3C167FD172316F10097E7FF1F83D787
:103D640007D881EB938741849C439C43DC4783D7EA
:103D7400070017E7FF1F130767D62317F100544FF7
:103D8400835747002318F100DC4A95EF979501000B
:103D94009385859B1785010013054565EF70A10F79
:103DA400179501001305859CEF70E10E2945EF700E
:103DB4008112134544008320C110032481108324FD
:103DC40041105161828097E7FF1F83C797D1255522
:103DD400B5C7FD1717E6FF1FA305F6D003D60601E6
:103DE40083470701CC460A85230BF100EF10F054FA
:103DF400938741849C4317E7FF1F130727CE9796A9
:103E040001009386264B88430A866C00BD2DAA8444
:103E14004DD19795010093852593178501001305CE
:103E2400E55CEF704107A685179501001305C5945D
:103E3400EF7061062945EF70010A2685853995BF23
:103E440093F725008DC341468145280897D0FF1F6D
:103E5400E78040DE2555993928089305F00F553B36
:103E64001345240089BF93F715000145A9D7EFF046
:103E74001FAA1345140081B75C4D411106C688C3BF
:103E8400170500001305E5E823A2F184EF20C10E15
:103E9400B2402384A184014541018280EFD29FBBBB
:103EA4002A8408452E89B28909C900C197050000F2
:103EB4009385C5736105EFF0907481447D5AEF10CA
:103EC400800363C3A4048144EF10E00363C6A40425
:103ED40097070020938707889C43DC47B307F94082
:103EE40091872302F400638109048327C900B3077F
:103EF400F4409587A302F4001C4C89C79C4799C3DE
:103F0400228582976FD05FB85C44139714008504B0
:103F1400BA972390470165B71C481397140085048A
:103F2400BA97239007004DB7832789000547B30745
:103F3400F4409587A302F40083570400638EE702DC
:103F44008DC309476384E7040D47E397E7FA97971E
:103F54000100938767E81CCC979701009387C7E813
:103F640011A8979701009387A7AE1CCC97970100DF
:103F7400938707AF5CC849B7979701009387479A1F
:103F84001CCC979701009387A79AEDB797970100E8
:103F9400938747E91CCC979701009387A7E9D9BF7A
:103FA40085E1EFD2DFAC0046184483479400758363
:103FB4009D8B6315F700EF00701948C46FD07FAD77
:103FC4008280EFD23FA913893500C16442094111AF
:103FD400AA890144F11413590901054A2EC6EF00B8
:103FE4009071B2456346A400014541016FD0DFA939
:103FF40083A7090013171400BA9783D707006388AF
:10400400B7006394970063742A010504C1BF054592
:10401400E9BFEFD25FA3AA892E89328BB6843A8A8C
:10402400BE8AEF80003A4DC12685EF10F02C8D47F3
:1040340063E5A7007D556FD09FA483DB4400EF00A8
:1040440090712A84EF007072930774003144330531
:10405400850263C5A702EF001070EF00D06F2A84B9
:10406400EF00B0709307740031443305850263CDCB
:10407400A702EF00506E9307450019A8EF00F06EF9
:10408400330585021307F0179307C017E357A7FCFE
:104094002D55E3C277FB63000B02D6865286A685B4
:1040A4004A85EFE0705741BFEF00306C330585025D
:1040B4009307C5FFF1BF832749001385C90083D542
:1040C4002700013779F9BDB76955B5B797F7FF1FD1
:1040D4002394A76897F7FF1F9387C7679043814787
:1040E4000C463307F500420741836393B70082808F
:1040F4005446139847008507C2962390E600D5B727
:1041040097F7FF1F938707659C4303C58700828049
:1041140017F5FF1F035545648280EFD25F95C16791
:104124001387D7FF6307E5026368A700F117630EDF
:10413400F50001456FD0FF951387E7FF630EE50097
:10414400FD171D8D13351500F5B7EF40E0337D15D0
:10415400D5BFEF406011E5BFEF40C00FCDBFEFD238
:104164001F914111AA8401442EC6EF00D059B245D3
:104174006346A400014541016FD0BF919C481315CB
:1041840014003E9583570500E387B7FE0504E9BF95
:1041940003485500814693F7F60F63E5070181470D
:1041A4003E858280584593975600BA9703D72700D7
:1041B4006316B70003D70700E304C7FE8506E1BF13
:1041C4008346450001479377F70F63E4D70081479F
:1041D40011A81C45131657000507B29703D607000C
:1041E400E313B6FE3E858280EFD2DF869317050186
:1041F400C18797FAFF1F938AEA556353F00883A790
:104204000A00C0479C4703570400198D42054181A9
:104214006366F500014422856FD01F8712052A9436
:10422400DDBFDC4713944900014A3E9483474400B0
:104234006341FA02014A834754006346FA0285093E
:10424400C20993D9090183A70A009847E3EBE9FC63
:10425400D1B71C4413195A00A6853E994A850137E3
:1042640009ED050AE1B75C4413195A00A6853E9985
:104274004A85F53519E1050A7DBFE30209FC61BFF2
:10428400AA848149C9B7EFD28FFE1C452A8481E7ED
:104294009307C5001CC51C44231204001CC09307CB
:1042A400F00F63E9B70093F5F50F2285EF10D00AFC
:1042B4006FD02FFE93940501C167C18063F7F500A9
:1042C400A6852285EF10F00CE5B7C18193F5F50FB3
:1042D4002285EF107008A6852285EF103009C9BF2A
:1042E40097F7FF1F93870747884382801C4599C728
:1042F40097F7FF1F23A0A746014582807D55828042
:1043040097F7FF1F9387074598438347450048471E
:1043140092073E958280EFD28FF5617100451C189B
:104324003EC6B70780013EC81C183ECA83574400E6
:1043340002CE02D002CC231EF100834784002A89D6
:1043440002D22301F1023C083ED402D6553F8357E2
:1043540005002316F102EF30B0622307A1025C408E
:1043640003556400F18313F717008347F1025205E4
:104374005181F99BD98FA307F102EFE0501B39C596
:10438400AA8403550500EF80A00483D704002AD231
:104394006800231CF10083D72400231DF1001C486E
:1043A40003D647008C43EF1040798347B400CA8694
:1043B40017860100130646508117A305F4006C000C
:1043C4004810EFE070255D616FD0AFEC2155E5BF7B
:1043D4001C45B1CF03C5A700894613576500630B7D
:1043E400D7028D46630ED70285466300D7021307B2
:1043F40040063305E50203C7B700418B15CB83C7DD
:10440400B700BD8B3355F54082801375F503130750
:10441400803EC5B709671375F50313070771D1BF4C
:10442400372709001375F5031307077CD9B701452E
:104434008280EFD2CFE303A9850063040904834794
:10444400B900AE8493F7070E91CF03459900930505
:1044540020030D810505B305B50288446105EFF01D
:10446400F02505A02E85AD372A8401CDC5218325ED
:10447400C900B307B54063F887002E94B305A44080
:10448400E9FD6FD00FE18545C9BFEFD24FDE2A8425
:1044940003D50500011132C636C43AC22EC002CA81
:1044A40002CC02CEEF70D07282452ACA22852ECC6D
:1044B400813D03570500231EE100EF30704CA246F6
:1044C40032469247230FA10036874C08B2862285D4
:1044D4000146EFF01FB405616FD0AFDBEFD22FD9E7
:1044E40061711C183EC6B70780013EC81C183ECA3D
:1044F4003C0800453ED4AA8402CC02CE02D002D2AB
:1045040002D6FD3B8357050035592316F102EF30DF
:1045140030472307A10209C48357440091E7215976
:104524004A855D616FD0EFD6035564005205518111
:10453400EFE0E07F2A8965D58347B40093F7070E3F
:1045440089C713058401EFF0F01883574400231E34
:10455400F100834784002301F1025C400355090004
:10456400D98313F7070883471102231CA10093F78B
:10457400F707D98FA300F10283572900231DF10007
:104584005C40F18313F717008347F102F99BD98F3D
:10459400A307F102EF70D0632AD251D1834794006C
:1045A4006800139757008347B400FD8BD98FA30588
:1045B400F4001C4803D647008C43EF100058A6872C
:1045C400178701001307472F740005464C102685F2
:1045D400EFF03FA42A8929D58347B400A685FD8B33
:1045E400A305F400B9352DBFEFD26FC8832485FE2F
:1045F4002A8441112685E93B834734FF93F7070E4C
:1046040095C32AC62685013B19C9834734FFB245A1
:10461400FD8BA309F4FE81C52285EFF0300A410128
:104624006FD02FC76DDD8327C4FF2685829765F978
:10463400834734FF93F7070E81C72285EFF0900973
:10464400032584FE613DE1BFEFD26FBF9C41411160
:104654002A8903C7070089472E8493566700638C11
:10466400F6020D466382C6049307F0076302F7025D
:104674002E85EF10C058AA848149C16B130C4900E0
:1046840097F7FF1F9387070D9C43984763ECE90254
:1046940041016FD08FBE03D745008547E3FAE7FE9B
:1046A4002E85EF10A059C1BF03D74500E3F2E7FE02
:1046B4002E85EF10C054AA842285EF10A055C204A1
:1046C400C98C5DBFDC470355A900139A49003E9A83
:1046D40093170501C187635DF00083570A00639552
:1046E400A70263E574038327CA00034D5A001DA083
:1046F400A1672167A98F1307F7EFE374F7FE6395AA
:104704000900EFF09FA171FD85099DBF83278A00F1
:10471400034D4A00835DA90003576900216A138B86
:10472400C7003AC6814A33CA4D01631E5D0197F73B
:10473400FF1F9387A7029C43E1DBA2866286814523
:1047440026858297D1B7A1679387F7EF930C4BFF28
:1047540063F04703B2455A85EFF0BF8619CD0327AE
:104764008B00104719CA10436380C4023107D5BFB8
:10477400EE856685EFF0BF9E71FD93861A0093FA6D
:10478400F60F130B0B0255B7835644005C43E3ED5D
:10479400F6F622853AC6EF108035A1679387D704D1
:1047A4002A8A035D4400324763E897008347D900AF
:1047B40093E707F8A306F9001C4766852286E2857D
:1047C4008297C1670844FD17337AFA00529508C0EE
:1047D4002312A40115BF97F7FF1F9387A7F79843E8
:1047E400814715C31447814763FFD500939745005C
:1047F4004C47BE9519C903C7550081476375E60048
:10480400DC451606B2973E85828003C74500814782
:10481400E37BE6FE16069C45F5B7EFD2AFA3AA8963
:104824002E8A814497FAFF1F938ACAF283A70A004B
:10483400984763E4E4006FD02FA5DC471394440049
:1048440001493E9413BB140083474400634BF900B1
:10485400014913BB140083475400634FF9008504D6
:10486400F1B70844931759005287DA860146A285A6
:104874003E9582990509C9BF484493175900528748
:10488400DA860546A2853E9582990509E9B7EFD2F5
:104894000F9E814517F5FFFF1305856097F7FF1FEE
:1048A400239C07EA9D3F6FD0CF9E97F7FF1F938706
:1048B40067EA9C4399CBEFD28F9B814517F5FFFFA5
:1048C4001305055E993F6FD0CF9C8280EFD28F98FD
:1048D40041112315E1002E89B284B6893A868146B6
:1048E4000147ED452A84EF1031522AC61DCD0356E7
:1048F400A100CE85EF60C14ECA852285EF103165D7
:10490400058915C1228501462C0023149100EF105E
:10491400117B2A8409C5ED452800EF10515D2285DD
:1049240041016FD06F964944FDB76554CDBF5C41DA
:10493400FD175CC18280EFD28F93EF10210C954755
:104944003305F50281450D816FD0AF94EFD22F92DC
:10495400EF10C10A95473305F5020D816FD06F93AF
:10496400EFD2EF9003550500EF1051266FD06F92F0
:10497400EFD2EF8F035505003287AE8617D6FF1F9F
:104984000356A61E97F5FF1F938585DD81376FD0EB
:104994004F90EFD2CF8DEF5091146FD08F8FEFD215
:1049A4000F8D97F5FF1F9385A5DBEF103178014537
:1049B4006FD02F8EEFD2AF8B814517D5FF1F0355D4
:1049C400C516EF10F1626FD0CF8CEFD24F8A97F5F6
:1049D400FF1F9385E5D9EF10717501456FD06F8B7B
:1049E400EFD2EF88814517D5FF1F0355051AEF1045
:1049F40031606FD00F8AEFD28F872E85EF60A04B86
:104A0400EF60F0006FD0EF88EFD26F86EF60D00ACE
:104A14006FD02F885C49E1175CC95CC583572501B9
:104A2400A1072319F50083570501A1072318F500F1
:104A34008280F1473305F50297F7FF1F938747D527
:104A44009C433E9582808D476317F60603D7460044
:104A5400854763F2E706EFD28F81368536842E8947
:104A6400EF10E01939C18357440093140501C18044
:104A740063ED97022285EF108018FD142312940031
:104A84009307A002630EF5009307B0026301F502D9
:104A940093079002631BF5002285EFC0907831A044
:104AA4000146CA852285EF8060026FC09FFE228581
:104AB400EF00D055DDBF828097F6FF1F938686CD29
:104AC4009C42014599CF9843D44217F6FF1F2323F4
:104AD400E6CC6396D70097F6FF1F23AFE6CA13858B
:104AE400C7FE8280EFC2BFF87D2E71443305850274
:104AF4009145EF70C05501E565556FC09FF997F773
:104B0400FF1F23A5A7C84526330585029145EF70ED
:104B140000547DD197F7FF1F23ACA7C6692697F7EA
:104B2400FF1F239FA7C4412697F7FF1F239BA7C4FA
:104B340097870100938787DD17F7FF1F2326F7C4A4
:104B440097070000938747ED17F7FF1F232CF7C241
:104B5400014565B7EFC2BFF1AA8517F5FF1F13051D
:104B640025C2EF10A01D6FC0DFF2EFC25FF0DD378A
:104B7400EF10401E97F7FF1F9387C7C19C4381CF57
:104B84001387C7FE09CB83D5C7FF17F5FF1F13058E
:104B9400E5C0EFF0A0326FC0DFEFEFC25FED293F59
:104BA40011C9834785002A8493F7070491E70355C5
:104BB400E500653F6FC0FFED8347C50093044501E1
:104BC40017F9FF1F130909BD85E3832709005CC991
:104BD40097F7FF1F23A097BC83274900E1FF97F7AE
:104BE400FF1F23AB97BAF9B7FD172306F50061053C
:104BF400EF6000728307840063C90704834784005D
:104C040093E707F82304F400EF0031584205A9475D
:104C140041813375F5028347840093F707FCC98FFC
:104C24002304F4008347D4003E951C402318A400B9
:104C340089CF984319CB8347C400504081458507E9
:104C44003305F502420541810297832709005CC8B8
:104C540097F7FF1F23A097B48327490089E797F7A5
:104C6400FF1F23AB97B28347C400A9D78355040120
:104C740017F5FF1F130585B2EFF0402425BFEFC2DF
:104C84001FDF97F7FF1F9387A7D69C4701448583AF
:104C9400858B81EFAE84B2853A86EF1000112A84A9
:104CA40009C5EF100008829408CC22856FC07FDE0E
:104CB400EFC25FDA41112E8932C6AA89692C3247C4
:104CC40013060502CA86970500009385C5D617F515
:104CD400FF1F1305E5AA65372A8429CD9304C5006F
:104CE4004D261946AA852685EF003065854526851B
:104CF400EF00106217850100130505BF4E9583452B
:104D040005002685EF0050655C4831468145A107C2
:104D14005CC85CC483572401E1172319F40083574A
:104D24000401E1172318F4001C4C3E85EFC03FD763
:104D3400A3042501228541016FC01FD5EFC23FD3D3
:104D44004111AA842EC632C4EF100000004DB245B2
:104D54002246834784000CC050C093F7F70393E7BF
:104D640007042304F400231804002685EF00707B55
:104D740083479400A9462317A40013D737000507D7
:104D84003307D7029D8B85072306F400A306E400AE
:104D940083C70401D8488507230FF7FE17F7FF1FC1
:104DA4001307479F5843232A0400930744011DEB2C
:104DB40017F7FF1F2322F79E17F7FF1F232CF79CDB
:104DC40017F4FF1F1304849D2285EFF0E0041C44B4
:104DD400858B5D8D09E581452285EFF0200E41012B
:104DE4006FC03FCB1CC317F7FF1F2327F79AC9BF18
:104DF400EFC2FFC797050000938525C50145EFF075
:104E04009FBF01456FC0FFC8EFC27FC6EFF0DFBF91
:104E14006FC03FC88347C500A1E7EFC25FC52A84BE
:104E24000355E500EFF01FD315C98347840093F7BA
:104E3400F7FB2304F4001C4091C7DC4381C74C40BA
:104E440001458297EFF05FC717F5FF1F130505951E
:104E5400EFF040080355E400EFF03FD16FC07FC38B
:104E64008280EFC2DFC097F7FF1F9387A792970551
:104E740000009385C5D217F5FF1F1305259223A0C3
:104E8400070023A20700EFE090776FC09FC01C4D7E
:104E940091CBDC4381CBEFC29FBD83450700829752
:104EA4006FC03FBF828097F7FF1F938767919C4332
:104EB40003C50700828097F7FF1F938767909C4381
:104EC40003C51700828097F7FF1F9387678F9C4362
:104ED40003C52700828097F7FF1F9387678E9C4343
:104EE40003C54700828097F7FF1F9387678D9C4314
:104EF40003C53700828097F7FF1F9387678C9C4315
:104F040003C55700828097F7FF1F9387678B9C43E5
:104F140003C56700828097F7FF1F9387678A9C43C6
:104F240003C57700828097F7FF1F938767899C43A7
:104F340003C58700828097F7FF1F938767889C4388
:104F440003C59700828097F7FF1F938767879C4369
:104F540003C5A700828097F7FF1F938767869C434A
:104F640003C5B70011E11D45828097F7FF1F9387A2
:104F740027859C4303C5C700828097F7FF1F93874B
:104F840027849C4303C5D700828097F7FF1F93872C
:104F940027839C4303C5E700828097F7FF1F93870D
:104FA40027829C4303D50701828097F7FF1F9387CD
:104FB40027819C4303C52701828097F7FF1F9387AE
:104FC40027809C4303D54701828097E7FF1F93877F
:104FD400277F9C4303D56701828097E7FF1F938750
:104FE400277E9C4303D58701828097E7FF1F938721
:104FF400277D9C4303C5A701828097E7FF1F938702
:10500400277C9C4303C5B701828097E7FF1F9387E2
:10501400277B9C4303C5C701828097E7FF1F9387C3
:10502400277A9C4303C5D701828097E7FF1F9387A4
:1050340027799C438857828097E7FF1F9387477897
:105044009C4303D5C702828097E7FF1F9387477766
:105054009C4303D5E702828097E7FF1F9387477637
:105064009C4303C50703828097E7FF1F9387477517
:105074009C43C85B828097E7FF1F9387E77388434D
:10508400828097E7FF1F938767738843828019E1C3
:105094007D558280F5DE984265DFFDD917F7FF1F45
:1050A400130707951847AA877155058B63160722BE
:1050B40003C507001547E37DA7FC03C737001305A5
:1050C400F0057D171377F70FE364E5FC03C357007E
:1050D400E30003FC83C86700E38C08FA03C7770086
:1050E400494579171377F70FE364E5FA03C7A70077
:1050F40011481305F7FF1375F50FE36BA8F803CEFA
:1051040097000D481305FEFF1375F50FE362A8F829
:1051140003C8B7006309080065181378F80F13056E
:10512400600DE36705F703C5C70079487915137562
:10513400F50FE36FA8F403C8D7000D457D18137865
:10514400F80FE36705F503D80701930E40175118CC
:10515400420813580801E3ED0EF303C8E7007D1875
:105164001378F80FE36605F303C827017D18137855
:10517400F80FE36F05F103C88700C54E751813785F
:10518400F80FE3E70EF103D86701856E938EBEE056
:105194006D18420813580801E3EC0EEF03D84701D9
:1051A4006D18420813580801E3E40EEF03D8870191
:1051B4007918420813580801E36C05ED03C8A701E8
:1051C4007D181378F80FE36505ED03C5B7011D4895
:1051D4007D151375F50FE36DA8EA03C5D701714872
:1051E40079151375F50FE365A8EA03D5E7011308EC
:1051F400E00F7D1542054181E36CA8E803C5070271
:10520400494879151375F50FE364A8E883AE47029E
:1052140037C534001308F5BFE36CD8E703A8870249
:10522400130555BF5918E36505E717E5FF1F232745
:10523400C55803C6050117E5FF1F2323F558054587
:10524400E378C5E403D82501D04933760603E31196
:1052540006E403C61501E30D06E217E6FF1F232D3E
:10526400B65483C5270001466387A50003C617000B
:10527400F1453306B60283C707039305C00272974C
:105284001A071307C70516031A9796084697B38794
:10529400B70241553E97329742074183636EE80255
:1052A400EFC2EFFC3685EF60B064EFD0101D2A84A6
:1052B400EF80D0112A94EFC0F0202A94EF60307C64
:1052C4002A94EFF03F822A94EF2010612A94EF5041
:1052D400A06122956FC0EFFB8280EFC24FF94111AC
:1052E400A307A100EF80A0129305F10017050000A9
:1052F400130525BAEFF06FD2014541016FC06FF974
:10530400EFC26FF417E4FF1F1304846E03288400B4
:1053140079599368180097E4FF1F23AF146D13782D
:105324001800631E0800BA84BE89368B328A2E891F
:10533400AA8AEFE0FFDC7D15269509E531594A85F7
:105344006FC0EFF3EFE0DFDB7D152695A167E35730
:10535400F5FE97F7FF1F9387A7A098433E8C814BD8
:1053640011C70145EFC0103A933B15004A85DA8610
:105374005686D285EF70902B2A8911CD1C44F99B57
:1053840017E7FF1F232AF76683270C00CDDBE3888A
:105394000BFA82976DB7268597E7FF1F23AC076446
:1053A400EFE0DFD24146CE8517E5FF1F1305C56D3B
:1053B400EF501123EFA0D0030325040BEFA0D00579
:1053C4000545EFA0D00B0545EFF03FF18DBF97E702
:1053D400FF1F9387E7619C47858BD5C7EFC22FE9F1
:1053E40017E5FF1F1305856897E7FF1F23A20760D2
:1053F40097E7FF1F23A0076097E7FF1F23AE075E11
:10540400EFE0502DEF30D07FEFE0F004EFE07009D3
:1054140097E7FF1F9387475C9C4381C70545EF606F
:10542400902897E7FF1F9387E7449C4389C741650A
:105434007D15EF500067EFC0D035EFA0407C97E7B3
:10544400FF1F9387E76F9C4313971701635407006B
:10545400EFC0004197E7FF1F23A8076297E7FF1FEC
:1054640023A6076297E7FF1F23A4076297E7FF1F9E
:1054740023A20762EFF05F999D23EFF04FC1EFC0C5
:10548400E0626FC00FE18280EFC2CFDC2A84930414
:10549400140201112E85B289A685214636C63A89A1
:1054A400EF50B1111DE1B24638082686CE851305AA
:1054B4009404EF40804021462C084A85EF50F10FB8
:1054C4001335150005616FC02FDC0145E5BFEFC240
:1054D4000FDA9305450617E5FF1F1305A52EEFE028
:1054E400F01D6FC00FDBEFC28FD841112EC6EFF055
:1054F400EFC5B24588C141016FC0AFD9EFC28FD5A6
:10550400AA842E84EF60F06EAA8985452285A92598
:1055140083C7E4011389940899E313890403CE85AE
:1055240022851D2D2146930519022285392597E7E9
:10553400FF1F9387E74B8C432285EF006068214669
:10554400938584022285D52B6FC00FD4EFC2AFCFD1
:105554003971EFC0004C9305400645EDEF6070666D
:10556400630E051097E7FF1F83C7872713B717003C
:1055740097E6FF1F2386E626014489CFC16417E915
:10558400FF1F1309E9469309400EFD14EFF0BF9A7B
:105594006348A408EFF08FBB4169B7290900096A81
:1055A400FD7A2A8B81447D199389F97B130A0A7148
:1055B400938A8AC7EFF03F9863D5A4041304400E7E
:1055C400B387840217E7FF1F130787420324070BDF
:1055D4003E948357C4016386270918403307EB4080
:1055E40063EAE900834744008507B3874703D697F6
:1055F4006369F706014681450945EFF06FEBAA8B15
:1056040029E1EF2090598547631FF5048965938547
:10561400057117E5FF1F1305E51AEFE0300AA1A88D
:10562400B30734030327090BBA9703D7C7016308E9
:10563400970003C75700A38207002382E7000504ED
:10564400B1B79305C5002285EFF05FEB5E85228636
:10565400977501009385852AEFF04FEE5E85EF0084
:10566400606F850481BF97E7FF1F938767389C4766
:105674008D83858BC1FF21616FC06FC00146854555
:10568400094502D002D202D402D6EFF06FE2AA8416
:105694007DD1EFC040371389C4002A8481454A85EF
:1056A40065290C4041464A85492983294400638879
:1056B40009084E8502D802DA02DC02DEEF50B1128C
:1056C4002ACE141005462C0808184ECCEF4080163C
:1056D4001375F50F2DE58355840093E525004A8560
:1056E4004D2911460C104A858929014697750100F8
:1056F400938545212685EFF06FE42685EF008065CC
:105704005C40B5DB014685450D45EFF06FDAAA84B0
:105714003DD148401389C400EF50F10C2AC64A8594
:10572400E12E3246636AC5004C404A853921014660
:1057340081452685EFF08FE02685292D2DBF8355E1
:10574400840071BFEFC2AFB297E7FF1F9387472A68
:105754009C4719CD93E7870017E5FF1F13058506BE
:1057640017E7FF1F232AF728EFE0E0736FC06FB23B
:10577400DD9B17E7FF1F2321F728EF2010427DF55B
:1057840017E5FF1F13050504EFE0C074C5B7EFC2AA
:105794008FAB4169AA892E8AB28A368BBA8B81442F
:1057A40017ECFF1F130CCC24930C400E7D19EFF063
:1057B4008FF863C4A40001442DA033849403832789
:1057C4000C0B3E948357C401638027055A87D68601
:1057D4005286CE8513050403EFF01FCB11C5238039
:1057E4000B0022856FC0AFA98347F40191CF5A877C
:1057F400D6865286CE8513059408EFF0FFC809C5F6
:1058040085472380FB00F1BF850455B783574500C6
:10581400638D0716EFC20FA401112A84CD2619C582
:105824008547630AF50405616FC00FA6EFC0601ECB
:105834007DF9835744004947ED9BE396E7FEC14554
:105844002285612CAA842285D52E0357440002CEDA
:1058540091472A896317F700228519293C082ACC25
:105864003ECEEFC0401A5C55DDDF74084A86A6853B
:10587400054582974DBF03574400D147E3F5E7FA46
:10588400032A0400C169014997EAFF1F938A4A1653
:10589400130B400EFD19EFF00FEA6344A90C2285A7
:1058A400032A0400A92EA1452A8922853D24AA841D
:1058B40022857D2E14402A86AA8978082685CA85E1
:1058C400EFF0FFECAA8425D103C7F40189476315DF
:1058D400F7008347C101A1DB5546D28513856400D7
:1058E400EF5001500145EF60B02E01C583D7C401CC
:1058F400B1EB97E7FF1F9387A70F9C4793551900B8
:10590400858913D73700058B11CB8983858B6397E2
:10591400B70001452EC6EFF0FFE2B2454E85EF60B9
:1059240010330346C1012A84937519002685EF704C
:10593400502731C92685EF60102E268511C00145F8
:10594400EF607058EF2070258547E31EF5EC83C7A0
:1059540054001307F00FE388E7EC8507A382F400F3
:10596400D9B5B304690383A70A0BBE9483D7C401D2
:10597400638937015546D28513856400EF50E143AE
:1059840071D1050909BF5DDC5DBF8280EFC28F8CD8
:10599400EF60302311CDC164014417E9FF1F1309DF
:1059A40029059309400EFD14EFF0EFD8634AA400D3
:1059B40017E5FF1F130505E1EFE0E04E6FC0CF8C44
:1059C400330534038327090B3E958357C50163864A
:1059D400970023120500EF6010240504F1B797E740
:1059E400FF1F9387E7009C478D83858B99EBEFC25C
:1059F4000F8817E5FF1F1305E5DCEFE0A04D6FC02E
:105A04004F898280EFC2AF8697050000938545B425
:105A140017E5FF1F130505DBEFE0603E6FC06F87DE
:105A240083C7F5FF2E858507A38FF5FE828083C784
:105A3400F5FFFD1793F7F70FA38FF5FE89EBEFC280
:105A44000F831385F5FFEFF0D0446FC08F848280FD
:105A5400EFC2EF818841050542054181EFF090488E
:105A640009C585472300F50005056FC08F821C41D9
:105A7400035745008D8FBA951CC12312B5003E858E
:105A8400828093D78500A2051441DD8D835745009C
:105A94001387E6FF18C189072312F50013D6850082
:105AA4004111238FB6FEA38FC6FE410182801841A7
:105AB4009307F7FF1CC18357450085072312F500A0
:105AC400A30FB7FE8280835745008D8F2312F50004
:105AD4001C41BE950CC12E858280AA8703D747003E
