:020000021000EC
:100000006FC0A25700000000001801180028012846
:100010000228032800290129022903290429052986
:10002000062907290829002A012A022A032A042A64
:10003000052AA62AACCD0300921F0100F002002081
:1000400076030020C00200208E0200201C02002047
:100050009A210100E22101008823010014260100F9
:1000600002270100F01D0100AE1C0100701D0100FF
:10007000001D0100F22C0100260500207021010066
:10008000BE290100706B0300686D0300E06D030082
:10009000021C0300361C0300186A0200C25D020045
:1000A00000650300F4290100FA260300DCE30100E7
:1000B0006AE40100C2E4010092350100DE3501006E
:1000C00048340100D49F01008E9A010072A90100FA
:1000D00042AD0100EEB00100AA8C0100488C010085
:1000E00032900100F68C01001E8C0100A28C0100F0
:1000F000D08B01007A8D0100D28D0100828D01002C
:10010000868D0100208E0100DA8D01000C8E010029
:100110002E93010036930100768D01007E8D010043
:100120001E8E010032930100CE8E0100A4940100C6
:1001300036BF0100B4BF0100F2BF010038A20100C8
:1001400050A201008CA2010002860100208701005C
:100150009687010090540100364F01000C7B01008E
:10016000B44F0100387601004EA9030098A10300A6
:1001700082A60300B2BF030078BE0300FCC20300E6
:10018000B4C20300F4C20300A4C30300628F0300DF
:1001900034C30300DAB5030000B6030028B6030039
:1001A00014C4030074BC03002ABC030084C403000D
:1001B000FE9103009A920300C2920300649203002E
:1001C000C84803009232030032360300F0330300C4
:1001D0007A3E0300D06503009E640300968F0300FF
:1001E000902E0100721D0300DA260300D2270300BF
:1001F000425B0300D45B0300885D03003CA6010062
:10020000A0470300223F03005830030006420300CA
:1002100042320300360700205E1E030020C30300A5
:10022000B8C20300F0C20300ECC20300A025010025
:100230008AA3010028C30300BE4903008C4A0300BF
:10024000064B0300E8A6030024C303002CC30300ED
:100250004E5D020030C303006E12002034120020F5
:10026000C8A603006EA803006E480300000000004B
:10027000000000000000000000000000000000007E
:100280006373B60082801C419105110523AEF5FE13
:10029000C5BFB727002037270020938787A1130702
:1002A00007FE6373F700828023A007009107D5BF84
:1002B0004111B7E700E022C480433707200006C69B
:1002C000798C23A0E7180F10000011C199E5B7E75A
:1002D00000E023A08710014545A893073500C20719
:1002E000C183F19BC207C183130740036366F70212
:1002F00037270020032547B5372700208326C7B4BA
:100300006391A60237270020032747BE69D3C2079F
:10031000DD8D0545029765BF37270020032507B50A
:10032000E1BF035765002DE7035745006362F706F9
:10033000B72600203306F74021489386C6B5637878
:10034000C8028328050003D86600138687001D8F26
:100350002A9661172312E6002320160123130600B4
:1003600010C12312F500130788FF2393E60023131F
:10037000B50083D566002105B387F5402393F600C9
:10038000B7E700E023A08710B240224441018280F9
:100390000841BDB7B7E700E003A807003707200012
:1003A00023A0E7183378E8000F10000001E523A030
:1003B00007118280B727002003AE47B5B72700207A
:1003C00003A3C7B48146F28763FC670A83A80700CA
:1003D000636BF50A63E9A80A138787006362E50A7D
:1003E00003D66700216705076319E600372600205A
:1003F000034786AA05072304E6AA3726002013052B
:10040000C6B583D54700035765002393070013063D
:10041000C6B52E97420741832313E5006387C703C0
:1004200037250020032505B56301F50203D56600D5
:1004300009ED83D7460023A016012107BE95A1052B
:100440002392B6002313E600B6879843630A670237
:10045000B726002083A606B56304D702835667003B
:1004600085E283D64700835547001843A106AE9620
:100470002392D70098C383576600A1072313F60081
:10048000B7E700E02DB7BE86C6873DBFB7E700E0FF
:100490009843B706200023A0D718758F0F100000CF
:1004A00001C599C1814711E6B7E700E023A0E71035
:1004B0008280B386F50003C80600B306F500850701
:1004C00023800601E317F6FEC5B737E700E01C43BB
:1004D000B70620002320D718F58F0F10000019C190
:1004E00091C111E637E700E02320F71082809105E3
:1004F00003A7C5FF11057D16232EE5FEDDB737E7FF
:1005000000E01C43B70620002320D718F58F0F10FA
:10051000000001C53307C50011E637E700E02320DE
:10052000F71082800505A30FB5FEE31DE5FEF5B7C4
:10053000B7E700E09843B706200023A0D718758FCF
:100540000F1000008147B306F5008386060099E688
:10055000B7E600E023A0E6103E8582808507E5B778
:1005600037E700E01C43B70620002320D718F58F9B
:100570000F10000001C599C1014711EA37E700E0FB
:100580002320F710054582800507E309E6FE3308BE
:10059000E500B386E5000348080083C60600E305CE
:1005A000D8FE37E700E02320F7100145828037E7C7
:1005B00000E01C43B70620002320D718F58F0F104A
:1005C00000001307F6FFBA952A966317C50037E7B0
:1005D00000E02320F7108280FD1503C715000505F4
:1005E000A30FE5FEDDB737E700E01C43B7062000A8
:1005F0002320D718F58F0F10000001C53307C50061
:1006000019E637E700E02320F71001458280050551
:100610008346F5FFE397B6FEE31BE5FE37E700E010
:100620002320F7100545828079714AD037290020B0
:1006300022D4032409BB06D626D24ECE52CC56CAAB
:100640005AC85EC662C45DC4372A0020B72900209C
:10065000B7240020814BB72A002037CBC901130AE9
:100660004ABB9389C9B5938404C08357240099EF8A
:100670005C44639A0B002328F9BA032CC40022853A
:10068000113B6284A9A823A6FB00C5BF83A78ABA31
:1006900082971C443307F5406375F500D8401D8FE1
:1006A0002A979306FB3763EBE60623A809008355D8
:1006B000240003450400972001E0E78040D55C401A
:1006C0005844A9C70C44D040AE97BE8663E4B70037
:1006D00063E4C700B386C74014C4A28B3A8451F4C4
:1006E000B72700209387C7B5984B894663FBE6067A
:1006F000791798CBB250225492540259F249624A67
:10070000D24A424BB24B224C4561828063950B002A
:100710002328E9BA9DB723A6EB0085B703274A0231
:100720001DCB63EDA7023385A7408347040091EFFB
:1007300003477A01D4405917B307A7003E8563E405
:10074000E70063E4D7003385D74083A709016374CA
:10075000F50023A8A900A28B404451B7D840BA970E
:10076000D9B723A8070079B7B727002003A787BF09
:10077000411122C406C63E8411C30297B727002048
:1007800083C767BA93F7F70F99E3232C04BEB240EF
:1007900022444101828001114EC6B729002083A75F
:1007A00089B806CE22CC26CA4AC852C456C281C7CE
:1007B000829723A409B8B7240020938784ED83C7C8
:1007C000570037240020938484ED858B130484B86C
:1007D00081CF83C7740019476316F70EA382040004
:1007E000EF0050765C4482971C4491C38297372473
:1007F0000020372900209307C4B50327C9BA03C6D0
:100800001700130AC4B58347C4B593961700BA9668
:1008100083D60600F9C28347C4B563E8C70C83A733
:1008200089B8230E04B463940712B727002083A766
:1008300087BA638E0710B727002083A747C02328F5
:10084000FA00DD3383C7B4006393071083C79400B5
:1008500081CF83C7740093F7F70F99E7A38404004F
:10086000972003E0E78080BCB727002083A787BDDF
:10087000F9CF83270A01E1CF83C774001547636866
:10088000F70CB7270020938747F283C7C700918BE7
:10089000DDEFB727002083C767BA93F7F70FC5EBE3
:1008A00083461A000326C9BA63CCD70A6244F240D1
:1008B000D2444249B249224A924A0561172301E0D3
:1008C0006700631383C774001D47E31FF7F0A3821B
:1008D0000400EF0030671C4839B7850793F7F70F1E
:1008E000230EF4B4E3E1C7F23DB786073E97835584
:1008F0000700231007000345C4B5B727002083A7CE
:1009000047B813172500B72A0020BA979C432392B3
:100910000ABA829783D74ABA0347C4B593C7F7FF89
:100920007D8D931717000327C9BA3E978357070099
:100930005D8D2310A7008347C4B581C78507230EAB
:10094000F4B40347C4B583471A00E37AF7ECF240E6
:100950006244D2444249B249224A924A05618280A5
:100960001397170032970357070075F385072DBFBC
:1009700037C700408326C720B707FCFFFD17F58F58
:100980002326F72001000100B72700209387C7B571
:10099000C84F832787262326D7206A0593C7F7FFEA
:1009A00099835D8D8280B727002003A347C163032D
:1009B000030002831305F00F828003278511630271
:1009C00007120346E5048546630E0610411122C452
:1009D00006C68347C5002A8493F7C70F2306F50090
:1009E000834597000358C700139585016185637F90
:1009F0000607635805060345870093F5F507A3042A
:100A0000B70093E527006314D50093E5170023068C
:100A1000B4005C4389075CC3A30AC4000325041126
:100A20004C430905A5348327841103465401D4435C
:100A300003D7C700B296118FD4C32396E700894726
:100A4000A30DF400B72700200347640383C767BCE6
:100A50006377F7048347C40093E707012306F40094
:100A60003DA893E717002306F4007DB71376F80F2F
:100A7000635D05020345870093E527006314D500F5
:100A800093E517002306B400A30AC400A3040700DB
:100A90008547A30DF400832784119C43C5F7B2401A
:100AA0002244814636854101828093E71700230660
:100AB000F400A30AC400A3040700032504114C4357
:100AC00042860905E1328327841103465401D44349
:100AD00003D7C700B296118FD4C32396E7008D4782
:100AE0004DBF854636858280B727002083A747EB18
:100AF000411122C406C6858B2A84DDEB41651305AE
:100B000025F5977002E0E780602A5DC18347A50064
:100B10002315F50083270412B5E72320A41223220E
:100B2000A41285472311F4042320050083476401A0
:100B300054412316F5000347D4002304E50005477C
:100B4000A304E500372700200327C7EF138517020A
:100B500015811C437D151375F50F9CC25C43DCC2E7
:100B60001C479CC65C47DCC61C4B9CCA5C4BDCCA61
:100B70001C4F9CCE5C4FDCCE19CD9386060213072A
:100B80000702C1BF8327441288C38357240423224A
:100B9000A412850741BFB7270020938787D803D7C2
:100BA000870005072394E700B24022444101828078
:100BB0008347C40023090400054593C74700230663
:100BC000F400DDB78347850193F7E70FDDEB83473B
:100BD0009501C5EB034625018346C50009CA3727A1
:100BE000002083456503034777BC63E7E50013F7FF
:100BF000060149CB014709C6C18A0357651C81C656
:100C00008356A51C36973DCFB727002003D587C054
:100C10001307C71237460F00B335A7024111130659
:100C20000624814622C426C206C67D543305A70287
:100C300097C003E0E78060C5B727002083C7B7BC33
:100C4000B384A700B727002003A707E2832707097B
:100C500063F387003E84184375FBB727002083A702
:100C600087BA829781476364A400B307A440B24067
:100C70002244B3B7970093C7170092443E854101C1
:100C8000828081473E858280B727002003A707F036
:100C90003C5BFDFF010001008280011122CC4AC8AB
:100CA0004EC606CE26CA52C456C25AC00347B50025
:100CB00085472A842E8983290509631BF7248357D6
:100CC0000508835AC503372A0020130A0AC063F7B0
:100CD0005721834605016393E62003278511631F8F
:100CE000071E0327450A631B071E8346F5001D47A1
:100CF0006396E61E03471401B38AFA4013950A016E
:100D0000418121CF9377170099CB8357E405835610
:100D10000404958F63D5A70013950701418193774C
:100D2000270099CB8357E41283560404958F63D52B
:100D3000A7001395070141819377070199CB83574A
:100D4000C41483560404958F63D5A7001395070137
:100D50004181218B11E311E105450357A40393075A
:100D6000204E832444093305A702035B8A003746DB
:100D70000F008146130606243305F502B72700202D
:100D800083C7A7BCB3549502B335AB02BE94C2046B
:100D9000C180231394083305AB0297C003E0E780BA
:100DA000C0AEB307350133B5A7002E953E87832625
:100DB0004A0019E163E4D7003387D740B384640362
:100DC000B7460F009387F623938606242320E90075
:100DD000A697B3D7D702D697636CF70E1D8F232043
:100DE000E900B729002083A789BA832409008297E4
:100DF00063E3A4123385A4406350050C83A789BA2A
:100E0000372B0020130B0BC0829703270900636A5E
:100E1000E510198D8357E40303578B008E07B387C2
:100E2000E7021307003293870719B3D7E70263EF8E
:100E3000A70E374A0F00930AFA23130A0A2483578E
:100E4000040485072310F4048347041499E32285DE
:100E5000AD2A2285976002E0E78040EC6DE58326AD
:100E600004098327C40803274B00B6973E8563E433
:100E7000D70063E4E7003385E7408347F4018354F8
:100E800064082328A4088507A30FF40083578B0068
:100E9000B384F402D694B3D444036365950CB304CD
:100EA000954083A789BA23209900829763E0A40C18
:100EB0003385A440E34505F8B727002083C7B7BCB6
:100EC00063E4A708B727002023A487E20145ADA863
:100ED00083264A00B387F6403E9711B783578A00AE
:100EE00003576408B7460F003307F7029387F623CA
:100EF0003E9793870624B357F70263E7F900B38759
:100F0000F9402320F900F1BD03274A00BA99C5BF73
:100F100023A03501F9B5B727002083A747C0BE94A9
:100F2000D1BD83274B00998F3E95EDB5A145228514
:100F3000976002E0E780A0D7A305A402B7270020AE
:100F400083A747BE81EF7D55F2406244D2444249B7
:100F5000B249224A924A024B056182808945154571
:100F60008297D5B7B3049740AA9425BF83274B0037
:100F7000BE943DBF31C901116C0022CC06CE2A843B
:100F8000293B15CDFD576302F50237270020B247F4
:100F90008345B7BC63EFB70003459402B385B74000
:100FA0002EC6971001E0E780805DF2406244056143
:100FB000828037270020032747C0BA97F1BF977078
:100FC00002E0E780E091D5B78280797126D206D61B
:100FD00022D44AD04ECE52CC56CA5AC85EC6834797
:100FE000550303447513AA843E941374F40F9307B6
:100FF000400263F687001304B4FD1374F40F03AAD0
:10100000841383AAC413A38B841222865285D685A7
:1010100097C003E0E780E081058915E503CBD41292
:1010200001498149337B6403930B50024A86528500
:10103000D68597B003E0E780C07F058915C5639129
:1010400069031374F90F238B8412B2502254925403
:101050000259F249624AD24A424BB24B4561828000
:101060008509E20993D989410509E31179FDE1BFB9
:101070008327850903560504797193D60701BD8E30
:10108000C206C182358E1357764093575640898BDE
:10109000058B5D8F93573640918B5D8F935716402C
:1010A000A18B5D8F93171600C18B5D8F9317360050
:1010B00093F707025D8F931756009355860093F7B9
:1010C00007041E065D8F1376F60F518F93D7554098
:1010D00013D63540118A898BD18F13D67540D18FA5
:1010E00013D61540218AD18F13961500418AD18FCE
:1010F0001396350013760602D18F1396550013769A
:1011000006049E05D18F93F5F50FCD8FA2074546B6
:101110005D8F3307C70222D42A8426D252CC56CA06
:10112000032A8413832AC4135AC806D63697420763
:10113000418393577740135557400989858BC98F51
:10114000135537401189C98F135517402189C98F0D
:10115000131517004189C98F131537001375050240
:10116000C98F1315570093558700137505041E0783
:10117000C98F1377F70FD98F13D5354013D7554043
:101180001189098B498F13D57540498F13D51540A7
:101190002189498F139515004189498F1395350091
:1011A00013750502498F13955500137505049E05A7
:1011B000498F93F5F50F4D8F2207D98FB387C7025B
:1011C0004AD04ECE5EC662C4B697C207C18313D75B
:1011D000774013D557400989058B498F13D5374080
:1011E0001189498F13D517402189498F139517000D
:1011F0004189498F1395370013750502498F13955F
:10120000570093D58700137505049E07498F93F700
:10121000F70FD98F13D5354013D755401189098B56
:10122000498F13D57540498F13D515402189498FB2
:10123000139515004189498F1395350013750502E3
:10124000498F13955500137505049E05498F93F535
:10125000F50F4D8F2207D98FB387C70213065002AF
:101260005285D685B697BD8E93940601C18033F61C
:10127000C402137BF60F97B003E0E780805B05891B
:101280000DED8347D41201498149B3849702130CB1
:101290005002C1804A865285D68597B003E0E78028
:1012A00040590589937BF90F11C56386340385097D
:1012B00093F9F90F0509E31F89FD230B6413B2505D
:1012C000225492540259F249624AD24A424BB24BDA
:1012D000224C456182805E8BCDB70111B72700207B
:1012E00022CC03A407E526CA4AC84EC606CEAA8465
:1012F00013092500854915C083C71400034734002E
:10130000858B6304F700405CFDB7194693054400E4
:101310004A85EFF0EFA4E31835FF2285F2406244DE
:10132000D2444249B249056182804111B727002069
:1013300022C403A407E526C24AC006C693042500BA
:10134000054901E82285B240224492440249410104
:101350008280A6851305A40297C002E0E780005BA7
:10136000E30225FF405CF1BF4111B727002022C4F2
:1013700003A407E526C24AC006C693042500054912
:1013800001E82285B2402244924402494101828010
:10139000A6851305A40197C002E0E7802057E30269
:1013A00025FF405CF1BF011122CC604126CA4AC82A
:1013B0004EC652C406CEAA841D4A13096505854946
:1013C000BC446364F400054581A803C7D400834787
:1013D0004400631B470503C784026304F700004011
:1013E000C5B70347540083C75405E31AF7FE1946EF
:1013F000CA8513056400EFF0AF96E31235FF03478B
:10140000C40083C79402E31CF7FC0357E40083D7AE
:10141000A402E316F7FC0145F2406244D24442497B
:10142000B249224A05618280E31BF7FA0347540060
:1014300083C75405E315F7FA1946CA8513056400F6
:10144000EFF00F92E31D35F9F9B70111B72700202E
:1014500022CC03A487E426CA06CE2AC42EC685441D
:1014600019E40145F2406244D24405618280834719
:10147000910003471400858B6304F7000044CDB747
:1014800019469305A10013052400EFF06F8DE317B3
:1014900095FE0545C1BF0000EFF00FAD73000000E1
:1014A000000000009712000093822297038302003D
:1014B00023800200630F0300F32510342EC097052C
:1014C00000009385A5FD73901534EF00E04973008B
:1014D000203086DCEF004049E65082800000B726CD
:1014E000002003A746ED01114AC81C5F4EC606CE78
:1014F000998322CC26CA858B3689B7290020ADCFA7
:1015000093070006372400201CDF930784ED83C770
:10151000670013070008930484ED6319F70083A79D
:1015200009ED9C4393F707042383F400834784ED7C
:1015300093F7070489CFB727002083A787BA82973C
:10154000C8CC834784ED93F7F70B230CF4EC83C7E7
:10155000440093F707048DE38547A382F400B7277F
:10156000002083A707F03707020098C7130700FC85
:101570002382E4009848F8D3032749ED1C5F918348
:10158000858B95C31C5F93E707011CDFB7270020FD
:1015900083A707F0054723A20706B72700209387F4
:1015A00087ED2382E70083A709EDD8430583058BE8
:1015B00019C7D843759BD8C3D843799BD8C3F24089
:1015C0006244D2444249B24905618280093F7300B6
:1015D00020309317D50063DF0700B727002083A7CB
:1015E00007F07D57B8D7B72700209387C7B5D84FE6
:1015F0000507D8CF9377850085CBB7270020938741
:1016000087ED03C72700136717002381E70013073F
:1016100000F82382E700B727002003A747ED5C57B7
:10162000F19B93E717005CD79377150085C7B72721
:101630000020938787ED03C7170013671700A38067
:10164000E700B727002003A747ED5C57F19B93E71E
:1016500017005CD7937765008DC713774500B727D0
:10166000002059CF03C787ED13671700238CE7ECE1
:10167000B727002003A747ED5C57F19B93E71700BE
:101680005CD79317F50063D20702B72700201387B2
:1016900087D883468707938787D8C18ABDCA83477F
:1016A000870793E70702230CF7069317E50063D635
:1016B0000702B7270020938787ED03C7470062071B
:1016C00061876355070005472382E700B72700209D
:1016D00083A707F03707020098C79317C50063D0A8
:1016E0000702B7270020938787D803C79707058B82
:1016F00029C303C7970713672700A38CE7068280D7
:10170000938787ED03C7370013671700A381E700AE
:1017100085B703C7870789463D8B6308D70003C792
:1017200087078D463D8BE312D7F81147238CE706D8
:10173000ADBF03C79707118B79D303C7970713670B
:10174000870065BFB7270020B726002003A607F053
:10175000938786ED03C786ED058B11C723820700AB
:10176000A3820700828003C71700058B65FB7852B0
:1017700075F303C75700EDB737270020032847ED5F
:10178000832788039583858BC1E311C683270803CC
:10179000BD832300F60085CA832747ED985B460783
:1017A000935767016356070093E707C0C207C183D9
:1017B00003970600C207C18709C7BA970947B3C78D
:1017C000E7022390F6009DCD8345150085CDB72710
:1017D0000020938787ED83C76700138795008945AD
:1017E00093F7070485C33A95834705000547994554
:1017F00093F6F7066398E600E207E187814563D335
:101800000700B9452E8582808545EDBF411126C26E
:1018100006C622C44AC0B724002035ED83A604F0D2
:10182000AE87F8527DFF37290020130989ED230187
:10183000090037F400E03E85832704D1B285ED9B93
:101840002328F4D0832704D193E787022328F4D0F8
:1018500073005010971003E0E78020A5B727002001
:1018600083A747EDB70680009843558F98C3D85794
:10187000719BD8D783A704F0A3020900A300090035
:10188000094798C3832704D193E787002328F4D01E
:101890007300501005A08D476314F504B72700208E
:1018A00083A747EDB70680009843558F98C3D85754
:1018B000719BD8D783A604F0B7270020938787EDC4
:1018C00003C72700058B19E703C73700058B51CBEA
:1018D00023820700B240224492440249410182809F
:1018E0008547E319F5FCB7F700E003A707D16D9B27
:1018F00023A8E7D003A707D11367870223A8E7D05F
:101900007300501003A704F08177FD175447F58F3B
:101910005CC70F10000003A704F0B707020013060E
:1019200000F81CC7B7270020938787ED2382C700E4
:10193000B727002083A747ED9C439D83858B639F3A
:10194000A700930760197CD354C737F700E08327BB
:1019500007D193E787002328F7D01DBF9307E01B2B
:10196000DDB7F85231FFBDB7B727002083A707F0D6
:101970008847D847798D09C988C7B727002003A3AE
:1019800007AB630303000283828037270020B7265A
:101990000020138646F0130747F28347D70083459C
:1019A000B601484AAE97FD8BB355F500A300F6008B
:1019B000A306F700858995E90347170181461308B7
:1019C0000002B3F7E7020147B355E5008589937834
:1019D000F70F89C96395D700A30016018280850699
:1019E00093F6F60F0507E31107FF8280B727002063
:1019F000938787ED83C7570093F7F70FD1EBB7278E
:101A0000002083A787BA411122C44AC006C626C255
:101A1000829737290020930749F28047130949F23A
:101A20006302A40663688504018DB72400209387B0
:101A300044F083C7A70113545500938444F06363B3
:101A4000F404A13783C7A4010327890093965700A4
:101A500036971D8C2324E900E375F4FE224403C568
:101A60001400B2409244024981454101171303E03A
:101A70006700831AB727002083A747C033848740B5
:101A8000229565B7B24022449244024941018280C6
:101A90008280B727002083A787BA011122CC26CAEB
:101AA00052C406CE4AC84EC68297B72400209387F8
:101AB00044F28047014A6301A406938444F26366BA
:101AC0008506018D37270020930747F083C7A701BC
:101AD00013545500137AF501130947F0636BF402B0
:101AE000B7290020938909C04D358346A90103A871
:101AF000840083A54900139756004297158C3A86B7
:101B0000636407016364B7003306B74090C4E37DA4
:101B1000D4FC1604336A4401F24062445285D24434
:101B20004249B249224A05618280B727002083A733
:101B300047C033848740229571B7B727002003A799
:101B400007F08967938707F47CD3B727002083A722
:101B500047F583A60709139656006358060083A627
:101B6000070913966600634406007453FDF28280F1
:101B7000B72700203727002083A747B50327C7B41E
:101B800001456313F700828083D6670081E683D620
:101B9000470036959C43F5B7B727002083A547BB80
:101BA00037270020938747BB13860522232AC7B413
:101BB00003D74700938785FFB72600204111BA97C6
:101BC000056523A6F6B406C61D0593563700637453
:101BD000E500930600203307D60037250020232890
:101BE000E5B423A0E522E1162312D6002313060054
:101BF0001CC3998FE1172312F700231307008D3FB1
:101C0000B240B72700202391A7B641018280B727B1
:101C100000203727002083A747B58326C7B4014596
:101C20006393F600828003D7670011E703D747006C
:101C30006373E5003A859C43E5B7B7270020B726D4
:101C4000002083A747B503A6C6B42A87B305B540CD
:101C50006314F6003A8529A8938687009C43E369BC
:101C6000D7FEE377F7FE2E85E3E4D5FEE3F2F5FE3B
:101C7000828023AC05FE1C4191E7010001000CC1EC
:101C80008280BA8703A787FF6DFF23ACB7FE8280EF
:101C9000184183A785FF6319B7001CC1FD5723AC0A
:101CA00005FE238FF5FE8280232CF6FEC5BF411171
:101CB00022C437E400E026C204403707200006C6ED
:101CC000F98C2320E4180F10000009E92320941058
:101CD0001545B24022449244410182800347E5FF0A
:101CE0009307F00F6306F700232094101145D5B732
:101CF00097E0FE1FE7804043014523209410D1BFA9
:101D0000411126C2B7E400E04AC003A90400B707A6
:101D1000200006C622C43379F90023A0F4180F105E
:101D2000000009E923A02411B24022449244024950
:101D3000410182809565938505D0C98D2A8421054E
:101D4000C2054205C181418197E0FE1FE780802FD7
:101D500001CDFD5723200500231285002303F50044
:101D600023A024112105C9B723A0241101456DBF6B
:101D70000111B7E700E04AC803A907004EC63707BC
:101D8000200006CE22CC26CAAA893379E90023A0F6
:101D9000E7180F10000037250020032485B5814483
:101DA000014619E499E8A1654E85EF00B00631A817
:101DB0008347E4FF6397370395C8A685130585B568
:101DC000C13D75D0A1654E85C92EF2406244B7E78A
:101DD00000E023A0271126854249D244B24905617B
:101DE000828091E02286032484FF65BFA284E5BF40
:101DF00041114AC037E900E022C403240900370733
:101E0000200006C626C2798C2320E9180F10000096
:101E100089E523208910154515A0B727002083C721
:101E2000D7B5AA842E8563F5F400894763EE970041
:101E3000BD3DB7E700E023A087100D45B240224426
:101E4000924402494101828083A785FF99E703C735
:101E5000E5FF9307F00F6308F700913DB7E700E057
:101E600023A087104DBF37250020238F95FE130533
:101E700085B50135A16526850D26014523208910EC
:101E800075BFB727002023AC07B48280B727002096
:101E900083A707BB99E33E85828003D7270063169B
:101EA000B70003C70700E308A7FEDC47E5B7B9CDD5
:101EB000011106CE22CC26CA8147C14633D7F54050
:101EC000058B21C312053E9531473305E5023727BF
:101ED0000020832447BF05443314F4002EC6420477
:101EE0004180AA949C40C8408297B24523A0040038
:101EF00023A20400A18DF2406244D2442E850561E4
:101F000082808507E39CD7FA0144EDB72E85828055
:101F1000BDCD797122D406D626D24AD04ECE014408
:101F20004147B3D78540858BB1CF12053147229504
:101F30003305E502B727002003A947BF8544B394C2
:101F40008400C204C180BE892A990327090011C7F1
:101F5000032549002EC60297B24531473304E402F7
:101F600083A749BF3E941C4489E72320090023220C
:101F70000900B2502254A58D02599254F2492E857F
:101F8000456182800504E31EE4F88144DDB72E85B7
:101F900082804111B7E700E026C284433707200062
:101FA00006C622C4F98C23A0E7180F100000B7273B
:101FB000002083A747BD372400201304849E91C7C7
:101FC00082971C403E9508C031A0B727002083A708
:101FD00087BAFDF70840B74703009387D73F33051B
:101FE000F502B7A72600938737ECB2403E9508C0AC
:101FF0002244B7E700E023A0971092444101828079
:102000000111B7E700E022CC80434AC8370720001F
:1020100006CE26CA2A892E86798C23A0E7180F10AF
:102020000000131506019305F004418132C697E0C4
:10203000FE1FE7802001AA8419C53246CA8597E0B1
:10204000FE1FE780E01DB7E700E023A08710F24005
:10205000624426854249D244056182807971B7E79E
:1020600000E022D480433708200006D626D24AD08A
:102070004ECE52CC56CA5AC85EC662C433740401EE
:1020800023A007190F10000005E123A087100945C0
:10209000B250225492540259F249624AD24A424BF7
:1020A000B24B224C45618280B727002083A787BAB4
:1020B000BA8A368AB28B2E8BAA898297B7270020DC
:1020C00003A747BF3E898144B146C147338CD40240
:1020D00033068701104241E6C165938505F041450D
:1020E00097E0FE1FE78000F619EDB727002083A7D1
:1020F00047BE81C7814511458297B7E700E023A01D
:1021000087102D4571B7B727002003A707BB21E72C
:1021100023A8A7BA23000500832749BF0547331723
:10212000970023260500232475012311E5002322AF
:102130005501E29723A0370123A2670123A4570189
:1021400063040A0023009A00B7E700E023A0871089
:1021500001453DBF3E875C47F5FF48C765BF850425
:10216000E396F4F6B7E700E023A0871021450DB70A
:10217000B727002083A7C7BF411122C406C6372452
:1021800000201304C4B589C782975C483E9548C8AF
:102190004848B240224441018280B7E700E09843BA
:1021A000B706200023A0D718758F0F100000B726A0
:1021B000002083C6D6B56372D50237260020931659
:1021C00015000325C6BA369583560500D58D231014
:1021D000B50023A0E7100145828023A0E7100D453C
:1021E0008280B7E700E09843B706200023A0D71805
:1021F000758F0F100000B726002083C6D6B5637414
:10220000D50237260020931615000325C6BA93C5BC
:10221000F5FF369583560500F58D2310B50023A0F4
:10222000E7100145828023A0E7100D45828001114F
:1022300037E700E026CA0443B706200006CE22CCCA
:102240004AC84EC652C4F58C2320D7180F10000080
:10225000130705FF1377F70FFD4763E2E70AB1465F
:10226000B306D502B727002003A747BF36971C4304
:10227000D9C71359450005443D893315A4001314EB
:1022800005014180AE894A85A28509312A8A39C96A
:10229000A2854A85B937B727002083A787BA37298F
:1022A0000020130909C08297835789002A84814638
:1022B000B385370313060064B3B7370313850532BC
:1022C000B335B500BE95EFA00235B30785003E8754
:1022D0008326490063E4A70063E4D7003387D7402F
:1022E0002324EA00B7E700E023A097100145F2405D
:1022F0006244D2444249B249224A05618280B7E72A
:1023000000E023A097100945DDB70111B7E700E011
:1023100026CA84433707200006CE22CC4AC84EC6C0
:10232000F98C23A0E7180F100000BD4763E8A7044D
:1023300031473307E502B727002083A747BFBA9785
:102340009C438DCF05443314A400420441802E8960
:102350000145A285253EAA8911C5A28501455135B1
:1023600023A42901B7E700E023A097100145F2401C
:102370006244D2444249B24905618280B7E700E035
:1023800023A097100945E5B779714AD037E900E0F5
:1023900026D283240900B707200006D622D44ECEC9
:1023A00052CC56CA5AC85EC6FD8C2320F9180F10AD
:1023B0000000B727002083C7D7B56378F500B7279B
:1023C000002083AB87BA63970B00B7E700E023A038
:1023D000971099A0B7290020938909C0AE8A03AB52
:1023E000490083D58900B74736FE938707C83E9BCF
:1023F000B387C5022A84328A8146B3B5C5021385E4
:102400000732B337F50013060064BE95EFA0A22093
:102410006370AB02232099100145B25022549254AC
:102420000259F249624AD24A424BB24B456182801C
:10243000829B83D589002A8913060064B3874503EC
:102440008146B3B5450313850732B337F500BE9512
:10245000EFA0621CB30725013E8903A7490063E48E
:10246000A70063E4E7003389E740D6852285393C3D
:1024700009C923242501B7E700E023A097100545EB
:1024800069BF936504F0C205C181414597E0FE1F15
:10249000E78040BB11E9B727002083A747BE95D747
:1024A000A2851145829715B737270020832707BBE0
:1024B00095E32328A7BA8547232605002324250171
:1024C0002311550123008500A300F50023220500F8
:1024D0005DB7BA87D84775FFC8C7F1BF7971B7E74D
:1024E00000E026D284433707200006D622D44AD003
:1024F0004ECE52CC56CA5AC85EC662C466C26AC0C4
:10250000F98C23A0E7180F1000002DC14144B689B3
:10251000B28A2E8A2A89B14C372B0020054D130C24
:102520000003B30B940303274BBF5E971C43A5E343
:102530009375F400B315BD0013554440C20556868B
:10254000C1811375F50F893539C183274BBFDE97DC
:1025500023A0270123A24701638409002380890067
:10256000B7E700E023A09710014521A023A0971012
:102570000945B250225492540259F249624AD24A51
:10258000424BB24B224C924C024D45618280050475
:10259000E31984F9B7E700E023A097102145D1BFE4
:1025A0000111B7E700E026CA844322CC4AC84EC6D0
:1025B0003707200006CE2A84AE893289F98C23A001
:1025C000E7180F100000C9332285CE85C1302A8458
:1025D00005C5B727002083D587C013060064814650
:1025E000B3872503B3B5250313850732B337F50049
:1025F000BE95EFA0420248C013351400F240624479
:10260000B7E700E023A097104249D244B2490E0533
:10261000056182800111B7E700E04AC803A90700FD
:1026200022CC4EC63707200006CE26CAAA892E84A1
:102630003379E90023A0E7180F100000EFF01F85A1
:10264000AA8419C123110500A2854E85593EB727DA
:10265000002083C7C7B563993701B727002003D788
:1026600047BA598C239287BAB7E700E023A0271115
:10267000014591E01945F2406244D2444249B249D1
:102680000561828001114AC837E900E022CC0324A9
:102690000900B707200006CE26CA4EC67D8C23202F
:1026A000F9180F1000009307F00263E6A704B14782
:1026B000B304F502B729002083A749BFA6979C431E
:1026C0009DCB9377F5008545B395F500C205C18193
:1026D0001181893783A749BF0145A69723A0070029
:1026E00023A2070023208910F2406244D2444249C9
:1026F000B24905618280B7E700E023A08710094551
:10270000E5B74111B7E700E026C2844306C622C4FC
:1027100037072000F98C23A0E7180F100000EFF016
:10272000EFF619E90145B2402244B7E700E023A0E3
:102730009710924441018280B727002083A787BA6F
:1027400000458297B7270020938707C06368A402DB
:10275000D843B74636FE938606C83305A44036975D
:10276000E372E5FC13070064B335E50203D6870086
:1027700081463305E502EF90126A75B7D8433A9463
:10278000C1BF411122C426C237240020B724002033
:10279000130704C09384C4B594485843B727002056
:1027A00006C683A787BA130404C06392E60882971B
:1027B0005440B74736FE938707C8B6973387A700BC
:1027C0003A856364F7006364D7003305D740B724C4
:1027D0000020938784EDDC53938484ED99CBB72755
:1027E000002083A647F53707CDFF7D179C46F98F5C
:1027F0009CC611E14840B727002083A787BD829778
:1028000019E5DC5085C3EF00A213EFF0A157DC50AF
:1028100091CBB727002003A747F5B70633001C4725
:10282000D58F1CC7B24022449244410182808297D6
:1028300094485840B387A6003E8563E4D700E3E898
:10284000E7F83385E74061B74111B727002006C696
:1028500023AEA7BE0295B240B727002023AAA7B691
:10286000014541018280994763E9B700B7270020FD
:102870008A05938787B8BE9588C18280B7270020D4
:1028800023ACA7BE11C5B727002005472383E7BAAD
:102890008280B727002023A807BAB727002023AEDD
:1028A00007BEB727002023A407BA37250020B72783
:1028B00000204111238307BA7146B72700208145C4
:1028C000130585B806C623AC07BE22C426C237242A
:1028D000002097E0FE1FE780C09B1305C4B51306D8
:1028E0008002814597E0FE1FE780A09AEFF0CFAA13
:1028F000B7270020938747BB03C5C70383C7D70308
:102900001304C4B585453E958D473305F5029947B7
:10291000B724002039051375F50F2301A4003305F2
:10292000F5021305052497D0FE1FE780A07123AAA6
:10293000A4BE49C103462400994781453306F602E7
:102940001306062497E0FE1FE780A09483A744BFE8
:1029500003472400B7240020938707240A0723A2F3
:10296000F4B8BA97372700202326F7BAEFF06FD1D3
:10297000A5298347140083A644B83726010013977E
:1029800027003697130606F110C313871700137735
:10299000F70F0A073726010036971306E6EA10C339
:1029A00013873700890793F7F70F8A07A300E4001E
:1029B000B69790C3B24022449244410182803727A7
:1029C00000201307C7B5834717008346270063F02D
:1029D000D702B726002083A646B813861700A300A7
:1029E000C70013972700369708C33E858280930758
:1029F000F00FE5BF1C41638C071041777D8FB70650
:102A0000002089476316D71003574500630207105B
:102A1000411126C21946AA849305F00F610506C626
:102A200022C497E0FE1FE780409505478D47630A63
:102A3000E50C9C4491C7D858994761C7985C71C30D
:102A400037240020130600048145130544BB97E09A
:102A5000FE1FE780008413060004A685130544BB0F
:102A600097D0FE1FE780C07B930744BB03D7C70006
:102A700009E7130700102396E70003C7E70001E703
:102A800005472387E70003D7070101E76D47239830
:102A9000E70003C7F70001E71547A387E70003C76F
:102AA000270101E705472389E70003C7370109E745
:102AB00003C7F700A389E70003C7570101CB93764B
:102AC00037000983238ED702A38EE70203C747018D
:102AD00001E75547238AE70003C7640109E71307A5
:102AE000C003238BE7009C5791C78297B72700202C
:102AF0002392A7B6B72700207D57A380E7FC513B60
:102B00008147B240224492443E85410182808947F8
:102B10003E85828001114AC837290020832709C0D9
:102B200006CE22CC26CA52C456C24EC68297130A7B
:102B30000064B3354503130909C0835A89008146EF
:102B4000568633054503EF90122DB72700201387D3
:102B5000C7B5004FAA840145630694029389C7B59F
:102B600033858440636E9400032549005686814670
:102B7000B335AA023305AA02EF90F229018D2695FA
:102B800023AC9900F2406244D2444249B249224AFD
:102B9000924A05618280011122CC2E84B7D50300B0
:102BA0000A854146938545A606CEEF9052601808E7
:102BB00006043A94B7270020035504FF83D7A7C023
:102BC000F2406244AA9737450F0013050524335598
:102BD000F50205618280B727002083D7A7C051473F
:102BE0001D45637CF702794719456378F70213079F
:102BF000200315456373F7021307B0041145637E84
:102C0000F700130740060D456379F70013076009C5
:102C100009456374F70013B5B70F8280011122CC08
:102C200006CE2A842EC6EFF0CFB6B245F240818D93
:102C300033A5A502229562441375F50F05618280C4
:102C4000011122CC06CE2A842EC6EFF08FB4B245F5
:102C5000F240818D33A5A50222956244420541814F
:102C600005618280011122CC06CE2A842EC6EFF0A7
:102C70004FB2B245F240818D33B5A5022295624430
:102C800005618280B7270020138747BB18572DC3E3
:102C9000411122C426C24AC006C6138947BB029707
:102CA000B72700201387C7B5035787002A8493846A
:102CB000C7B50DCBBA876373A700AA87C207C183C4
:102CC000BA866373E400A286C206C182958F51471B
:102CD000635AF7008327C90291C38297EFF0712FDF
:102CE00023948400B24022449244024941018280EC
:102CF00082800111B727002022CC3724002023AA8C
:102D000007C0930744BBDC5706CE26CAAA85130426
:102D100044BB81C72AC68297B245C9C99C410545B3
:102D2000C9C3DC41BDCF83D78500A5CF83D7A5001C
:102D3000ADCBB7240020138504C05146938404C052
:102D400097D0FE1FE780C04D23860400B7270020E0
:102D500083A607C0372700202324D7BA034774016E
:102D60001DE3938707C003D5870093078057374635
:102D70000F003305F5021306062481468145EF90C6
:102D80009209A30BA40003477401A54763E5E7007C
:102D9000A947A30BF40037350100130545B16D3485
:102DA0000145F2406244D24405618280B727002089
:102DB0009387C7B53707002023AE070013070770B6
:102DC000B727002023A0E7C037873200938707C0CA
:102DD000FD56130727A1D4C398C723860700B7C79A
:102DE000004023A4D7269DB7011122CC3724002010
:102DF000930744BB884706CE26CA4AC801E9054561
:102E0000F2406244D244424905618280130444BBCB
:102E10005C58F5D7185C65D77000854582971844D3
:102E2000B247E30EF7FC0355C4009305E004B72452
:102E3000002097D0FE1FE780E0201387C4B508D399
:102E40009384C4B54DDD0356C4009305F00F0149CA
:102E500097D0FE1FE780E0438347E4009050634D26
:102E6000F900328597D0FE1FE780002C014523A092
:102E7000040223A2040269B78355C4000844185C05
:102E8000B3872503898105093E9508C20297E9B7F2
:102E900001114EC6B7290020938749BB9C4726CA1B
:102EA0004AC852C406CE22CC56C25AC02A8AAE8420
:102EB0003289638D071E938949BB03A749036304C5
:102EC00007121307F01F6362A712372400201307AD
:102ED000C4B5832A07021304C4B5639A0A0803D54C
:102EE000C9009565938515E097D0FE1FE780801592
:102EF00008D02A866DC983D5C90083A7490303A5D5
:102F000089008981829783A78900832A04025CD083
:102F100089476316FA08C1476397F40C83D5C90043
:102F20009147938505FCB3C5F5028A05D69503C77D
:102F300025009307A0056314F70A83D70500639063
:102F4000470B4A852686910597D0FE1FE780402DC6
:102F50001C505685639357130145F2406244D24496
:102F60004249B249224A924A024B05618280585036
:102F7000E380E7FA03D5C9009565938525E097D0EE
:102F8000FE1FE780200CAA8A39CD83D5C9002A8686
:102F900083A7490303A589008981829795BF8D473F
:102FA000631BFA00C1476390F40483D5C90093857D
:102FB00045FDF199A5BF91476318FA006395440355
:102FC00083D5C900A115F5B793070010631DFA005A
:102FD000A14763EA970083D5C900C115D9BF1C502A
:102FE00056856390570D29458DBF9D6A637C5509B1
:102FF000930A05E01947B3CAEA0203D7C900372B81
:103000000020B38AEA02BE9A9307CBB5DC53130BB8
:10301000CBB56395570103240B021DE003D5C9000E
:103020009305E00497D0FE1FE780C0012A8445DDA8
:1030300083D5C90083A749032A868981568582974B
:1030400091451307A005898193972500A29783C610
:1030500027006393E60483D60700639C4603850537
:103060008A052686A2954A8597D0FE1FE780401BD9
:1030700083270B02E38287EE228597D0FE1FE7802D
:10308000A00AD9BD21677917E36FA7F4B30A5541A8
:10309000ADB783C5370045BF83270B02E38587F4AF
:1030A000228597D0FE1FE780200835BFB727002074
:1030B00083A5C7B78DD991479306A0058983139738
:1030C00027002E9703462700E31FD6F0035607007C
:1030D000631C460185078A072686BE954A8597D0D8
:1030E000FE1FE780E0138DBD83473700C1BFB727C0
:1030F0000020938747BB984729C3985F1DCF85461B
:10310000631DD502411122C4372400201304C4B525
:10311000105006C619CE83D5C70048508981029742
:10312000085097D0FE1FE7802000232004022322AE
:103130000402B2402244410182808280011122CCEB
:1031400037240020930744BB56C283AA870026CAAF
:103150004AC84EC606CE52C42A89AE84B289130428
:1031600044BB638C0A1C1C5C99EB2945F240624409
:10317000D2444249B249224A924A056182805C584F
:10318000EDD79307F01F63E8A70C372A00209307B9
:10319000CAB59C53130ACAB5B9C7084483274A0263
:1031A000639FA70489476317F906C147E39FF4FAB1
:1031B0000355C4009147130505FC3345F5029317E9
:1031C000250003250A022686CE853E959307A00595
:1031D0002301F50023102501110597D0FE1FE7807C
:1031E0002004014561B70355C4009305E00497D05E
:1031F000FE1FE78020E52320AA0245F1BDB78355D5
:10320000C4005C5803260A02898182971C44232249
:10321000FA0249BF8D47631CF900C147E397F4F4F4
:103220000355C400130545FD9377C5FF59BF91476A
:103230006318F900E39B24F30355C4002115EDB78F
:1032400093070010E313F9F2A147E3E097F2035567
:10325000C4004115D1BF9D676378F506930705E06B
:103260001947B3C7E7020357C400372A0020B387C2
:10327000E702BE9A9307CAB59C53130ACAB5A1CFF9
:1032800083274A026395570703250A0291461308CC
:10329000A0059305F00F93D72600139727002A97D0
:1032A00003462700631606078358070003463700C6
:1032B000639C2805B306D64063C6960485078A0733
:1032C0002686CE853E9511BF21677917E36FA7E863
:1032D000B307F54049BF0355C4009305E00497D0F8
:1032E000FE1FE78020D62320AA0259F9BDBD8355D1
:1032F000C4005C5803260A028981568582972322DE
:103300005A0359B72310B70093160601C18261B75B
:103310000356C400B38596009105130606FCE366C8
:10332000B6E413863400719A1106B29623010701A0
:1033300023102701A301D70051B7372A0020930794
:10334000CAB59C53130ACAB5A9C303250A029146FC
:103350001308A0059305F00F93D7260013972700B5
:103360002A9703462700631406058358070003467F
:10337000370063982801B306D640E3D196F42310B2
:10338000B70093160601C182C1BF0345E40083570D
:10339000C4009305E0043305F5024205418197D04E
:1033A000FE1FE78020CA2320AA0245F17DBB0356F9
:1033B000C4008345E400B385C50233869600110638
:1033C000E3E5C5DAB9BF0145828083C70500230064
:1033D000F50083D72500A300F50083D72500A1833E
:1033E0002301F50083C74500A301F5001145828044
:1033F000B727002023AE07A0B727002023AC07A0E3
:10340000828029C1411126C206C622C4AA84014570
:103410008DC52E84B7D5030022854146938545A7E7
:1034200097D0FE1FE780C0DF83C704000545230651
:10343000F40083C71400A306F400B240224492446F
:103440004101828001458280011122CC26CA06CE2C
:103450000947AA8432846381E50441468147639B1E
:10346000C500638FE6006397B6000DA8414781470A
:10347000638EE600F2406244D2443E85056182805C
:103480008A852285BD3F41468A8519A88A85953F50
:1034900041468A85228531A0E39AB6FC2E86A28514
:1034A000268597D0FE1FE780E0E4AA87E1B7B7271B
:1034B000002023ACA7A08280B727002023AEA7A0BE
:1034C0008280011122CC0354650006CE26CA4AC868
:1034D0004EC641C083298500AE842A8803C90900ED
:1034E000814713178901618763550702B147054575
:1034F00063FA87045114420403552800418033873E
:103500008900A2864E868545EFC06011B337A000C2
:1035100085077D1413556900420405891379F90361
:1035200041802380F400A380A400238124012392FE
:103530008400014719C01387190098C409476383A1
:10354000E7000145F2406244D2444249B249056174
:1035500082800545C5BFC167F917630AF502D947DF
:1035600063F7B702011122CC2EC606CE2A84EF9053
:10357000604BB2456368B50022856244F240056144
:103580006FA0B071F2406244054505618280054537
:103590008280C167F9176314F5006F90A04841114C
:1035A00006C6EFA0505E11E15D45B2404101828048
:1035B00091476394F502834705002300F600834793
:1035C000250003471500A207D98F2311F600834772
:1035D000350001452302F6008280114582804111A9
:1035E000814522C426C206C6AA8405252A8409E983
:1035F000B727002083A787A181C7F9452685829731
:103600002285B240224492444101828039714ED6D3
:1036100056D25AD006DE22DC26DA4AD852D4AA8AFA
:103620002E8BB28941EF36C6AD379145EF904051B0
:10363000AA844D492DC9B246054A23803401054468
:10364000630A0B00B68513851400029B050513144D
:1036500005014180E20993D9894163D30902C1453B
:103660005685EFA09060654905E933868400A28500
:103670002685EFB0D03F2A8905E13104420441801C
:1036800091472C085685231CF10026CE231D81006E
:10369000EFA040662A8901C963070A00268597D0F2
:1036A000FE1FE78060A8F25062544A85D254425906
:1036B000B259225A925A025B21618280BA84014A2D
:1036C000ADBF011122CC26CA4AC84EC606CE2A89F1
:1036D0003284B689253FAA840DE1B727002083A74D
:1036E000C7A181CF05476317E40003C4090005049F
:1036F0001374F40FA2854A858297F24062442685AE
:103700004249D244B24905618280AE86B735010094
:10371000014705469385A53C6DB783D70500230077
:10372000F50083D70500A183A300F5000945828039
:1037300083D705002300F50083D70500A183A300EC
:10374000F50083D725002301F50083D72500A18349
:10375000A301F5001145828083D705002300F50001
:1037600083D70500A183A300F50083D7250023019B
:10377000F50083D72500A183A301F50083C7550079
:103780002302F50083C76500A302F50003D5850079
:10379000190542054181828083D705002300F50089
:1037A00083D70500A183A300F5000945828083D754
:1037B00005002300F50083D70500A183A300F500D1
:1037C00083D725002301F50083D72500A183A3011A
:1037D000F5001145828003D545000605420541816B
:1037E000828083D705002300F50083D70500A183DD
:1037F000A300F50003D5250009054205418182801B
:1038000083D705002300F50083D70500A183A3001B
:10381000F50083D725002301F50083D72500A18378
:10382000A301F50003D545001105420541818280C1
:1038300083C705002300F5000545828083D7050076
:10384000411122C406C62300F50083D705002E844B
:103850001105A183A30EF5FE83D725009505230F3F
:10386000F5FE83D7D5FFA183A30FF5FE03C6F5FFB1
:1038700097D0FE1FE780C09A03454400B24022441F
:103880001105410182808947639CF500834715003B
:10389000034705000145A207D98F2310F600828057
:1038A0001145828003D70500D94763FEE702011165
:1038B00022CC06CE2EC62A84EF90C016B24683D7FD
:1038C0000600636DF50022856244F240B7350100C1
:1038D000014709469385A57105610DBBF24062441D
:1038E0000945056182800945828091479DC58346CF
:1038F0000500FD15C2058547C1816392F60213D705
:1039000025008D89914791E9914701CB0505230158
:10391000D6002310E60048C281473E8582800947D1
:103920009147E39CE6FEC94733D7F502B3F5F502AC
:10393000D1BFAE86B73501000147114693850573A7
:10394000F1B193F7350091EB8981914789C5231037
:10395000B60048C281473E8582809147EDBF03C7CC
:1039600045008947631AF702011122CC2A84C84511
:1039700006CEAE86014719C52EC69D45EFE0EFABDA
:10398000B2462A8722856244F240B73501001946C3
:103990009385857505619DB90945828099E1114539
:1039A00082808347050005472311F600E379F7FE7F
:1039B000FD1593F5F50F33D7F502B387E702E390D2
:1039C000F5FE050548C22310E6000145828083C745
:1039D00045000947AE866385E70041476399E700E4
:1039E000B7450100014721469385C58305B10945C7
:1039F00082802310B60091E1014548C201458280D2
:103A0000AE86B73501000147294693858579FDBE0D
:103A10002310B60091E1014548C201458280AE867F
:103A2000B7350100014731469385E57AC5B62310C5
:103A3000B60091E1014548C20145828003D74500A7
:103A4000854763FDE702011122CC2A84884106CE16
:103A50000DC12EC68545EFE04F9E2A872285624420
:103A6000B246F240B735010039469385657D056160
:103A700071BEF24062440945056182800945828039
:103A800091479DC5034705008D46914763F2E602C5
:103A9000FD15C205C181B3C6E5023308D70263999B
:103AA000050105052310D6002311E60048C2814711
:103AB0003E85828083C745000947AE866385E7005F
:103AC00041476399E700B7450100014741469385A7
:103AD000C5832DBE09458280B335B00013952500FE
:103AE0008280011122CC26CA06CE03C785008547F5
:103AF000AA842E8449466310F702613C8357240050
:103B000049151306200963C8A700F2406244D24455
:103B10000945056182800347940085476314F700D7
:103B200013660604484011C58D4532C6EFE0EF909C
:103B30003246A2866244F2402A872685D244B735AF
:103B400001009385257E0561D1B48D4763FFB702DF
:103B50008347150003470500F115A207D98F2310ED
:103B6000F6008347350003472500C205A207C1813F
:103B7000D98F2311F6002312B60089C5110508C696
:103B80000145828023240600E5BF11458280011192
:103B900022CC2A84884506CEAE8611C52EC6954510
:103BA000EFE0AF89B2462A8722856244F240B745EA
:103BB0000100594693850580056189BCB335B00085
:103BC000139525008280AE86B74501000147614606
:103BD0009385058325BC8547114563F4D702834748
:103BE000160083450600A207CD8F2310F7009387A8
:103BF000E6FF2311F70089476386F600090650C3E4
:103C00000145828023220700E5BF014781467946AE
:103C10008145EDBA83D705002300F50083D7050061
:103C2000A183A300F5000945828083C725000547CD
:103C30002300F50003D505006397E7000A05050595
:103C4000420541818280C9473305F502CDBF03D5C6
:103C500005000A0542054181828083D725002300A3
:103C6000F50003D5050083D725003305F5020505CA
:103C700042054181828003D50500828003D505007D
:103C8000828003D50500828083D725002300F500BC
:103C900003D5050083D725003305F5020505420548
:103CA0004181828083D705002300F50083D705007A
:103CB000A183A300F50083D725002301F50083D756
:103CC0002500A183A301F50003D545001105420598
:103CD0004181828083D705002300F50083D705004A
:103CE000A183A300F50003D5250009054205418104
:103CF000828089471145639BF600834716008346FF
:103D000006000145A207D58F2310F700828003D754
:103D10000500D947AE8663F9E700B74501000147C2
:103D20000D46938545C171BA09458280114563935B
:103D3000A60283471600834606000145A207D58FD9
:103D40002310F7008347360083462600A207D58F4D
:103D50002311F700828083C725000547FD1793F7DD
:103D6000F70F6361F70483D705008DCF011122CCD3
:103D70002A84C84106CE15C12EC68945EFD0FFEB77
:103D80002A8722856244B246F240B74501001546B3
:103D90009385A5C205616FF0DF92F2406244094548
:103DA00005618280094582809547114563F9D706F0
:103DB000411122C426C24AC006C683471600BA84EF
:103DC00003470600A2073284D98F2390F40083476B
:103DD00036000347260093054400A207D98F23919C
:103DE000F40089472382F40009461385540036897C
:103DF00097C0FE1FE780C0429307A9FF2394F400F9
:103E00009947631BF90023A60400B2402244924460
:103E100002490145410182801904C0C4FDB7828076
:103E200083D705008DCF011122CC2A84C84106CE4C
:103E300015C12EC68545EFD05FE02A8722856244F2
:103E4000B246F240B74501001D469385E5C40561C1
:103E50006FF03F87F2406244094505618280094561
:103E6000828099476395F6048947411106C623026B
:103E7000F7008347160083460600B285A207D58F58
:103E80002310F70083473600834626000346470089
:103E9000A207D58F130557002311F700910597C08E
:103EA000FE1FE780E037B240014541018280D147E3
:103EB00011456394F600C1474DBF828083D705004A
:103EC0008DCF011122CC2A84C84106CE15C12EC641
:103ED0008945EFD09FD62A8722856244B246F240B8
:103EE000B745010025469385A5C505616FF06FFDB7
:103EF000F240624409450561828009458280894714
:103F00001145639BF6008347160083460600014572
:103F1000A207D58F2310F7008280011122CC2A84BA
:103F2000C84106CEAE86014719C52EC68545EFD0DD
:103F3000DFD0B2462A8722856244F240B7450100AD
:103F40002D46938565C705616FF0AFF71145639303
:103F5000A60283471600834606000145A207D58FB7
:103F60002310F7008347360083462600A207D58F2B
:103F70002311F7008280011122CC2A84C84106CE89
:103F8000AE8611C52EC68545EFD03FCBB2462A87F7
:103F900022856244F240B745010035469385C5C786
:103FA00005616FF00FF293F71600114589EB894711
:103FB0006387F60085822312D70010C301458280F3
:103FC000011122CC2A84C84106CE15C12EC68545D2
:103FD000EFD0BFC62A8722856244B246F240B74579
:103FE00001003D46938525C805616FF08FEDF240D5
:103FF000624409450561828083D705008DCF011198
:1040000022CC2A84C84106CE15C12EC68945EFD0E0
:10401000DFC22A8722856244B246F240B7450100DA
:104020004546938585C805616FF0AFE9F24062446B
:1040300009450561828009458280854763FCD70276
:104040002304A700A304B700834716008345060096
:10405000A207CD8F2310F7009387E6FF2311F70007
:1040600089476386F600090650C3014582802322F2
:104070000700E5BF11458280014781464D468145D5
:104080006FF02FE48D47114563FBD702834716007D
:1040900083450600A207CD8F2310F7008347360023
:1040A00083452600A207CD8F2311F7009387C6FF13
:1040B0002312F7006386A600110610C7014582800F
:1040C00023240700E5BF011122CC2A84884506CEAF
:1040D000AE8611C52EC69545EFD03FB6B2462A87AB
:1040E00022856244F240B74501005D46938545CA8A
:1040F00005616FF00FDD854711456397F600834733
:10410000060001452300F70082800147814665468D
:1041100081456FF00FDB011122CC2A84C84106CE05
:10412000AE86014719C52EC68D45EFD01FB1B246E8
:104130002A8722856244F240B74501006D46938587
:1041400045CD05616FF08FCC011122CC2A84C84186
:1041500006CEAE86014719C52EC68D45EFD0FFAD00
:10416000B2462A8722856244F240B745010075466F
:10417000938545CD05616FF06FC9011106CE2EC63E
:10418000EFA0801C01C9B245F2400355250005612E
:104190006FE06073F240494505618280B7270020D7
:1041A000A38407A4B7270020238407A4B7270020EF
:1041B00023A807A2B727002023AA07A2B727002019
:1041C00023AC07A2B727002023AE07A2B727002001
:1041D00023A607A2B727002023A407A2B727002001
:1041E000239C07C293064038938787C32391D70245
:1041F000F1761307400B938606B82391E7002392CC
:10420000D70211679D46130600059305000A1305A2
:10421000007D2392E7002393D70241478546130888
:1042200010F82395E7002396E7002399E700239AE7
:10423000E700239BE700239CE7002394E7022393F6
:10424000B7002394B7002397C7002398C700239D86
:10425000A700239E0700239F0700239007022395B2
:10426000D70223960703239707029308F0072398A2
:1042700007022392E7042393E704239FE704239094
:10428000E7062391E7062392E7062399170313070E
:10429000C01C239AD702239BD702239C0702239D8D
:1042A0000702239E0702239F0702239007042391FE
:1042B000D70423940704239507042396D704239750
:1042C000C7042398C7042399A704239A0704239BB0
:1042D0000704239C0704239DC704239EC70423933C
:1042E000A706239407062395070623960706239718
:1042F000B7062398B70623990706239AE70651477E
:10430000239DE7067D57239B0706239C0706239ED4
:10431000D706239F0706239007092391E708828089
:10432000011126CAAA84214522CC06CE2E8432C68B
:1043300036C43AC2EFD0DF9C1DC9A24612473246AE
:10434000930700FD2300F5009947A3009500230182
:10435000F5002303D500A303E5002312C500AA85B9
:1043600022856244F240D24405616FD07FA8F240BA
:104370006244D24405618280B727002023A8A7A207
:104380008280B727002023AAA7A28280B727002017
:1043900023ACA7A28280B727002023AEA7A28280E9
:1043A000011122CC4AC806CE26CA2A890144B30488
:1043B00089006368B400F2406244D2444249056116
:1043C00082802EC6EFD0FFBC93170501C183A18365
:1043D000B2452380F4009307140093F7F70F850488
:1043E00063F9B700CA9709042380A7001374F40F78
:1043F0007DBF3E847DBF411122C4372400201304B9
:1044000084C103556400C16706C6FD17630FF5003C
:10441000B727002003C687D7B7250020938505A4BA
:10442000EF903050FD572313F400B2402244410175
:10443000828009C925151375F50F1335850E1345AF
:10444000150082800145828023900500C9C67971DC
:1044500022D426D24ECE52CC5AC806D64AD056CAFC
:104460005EC63684328AAE892A8B814463F3440760
:10447000B307940083C70700138914004209939A75
:10448000070193DA0A011359090163840A04CA97E0
:104490006341FA04B307240183CB07005E85513FD3
:1044A0000DC99387FAFF2390F90063906B031305FE
:1044B00019002295B250225492540259F249624A8C
:1044C000D24A424BB24B45618280D694C204C1802D
:1044D00071BF0145C5B701458280011122CC372447
:1044E000002026CA4AC84EC6930784C106CE2E892C
:1044F000D0CB8CCBC8C7AA8441469305F00F4A8520
:1045000097C0FE1FE78060E78549130484C16319E3
:1045100035030848C145693541469305F00F2685A6
:1045200097C0FE1FE78060E50549631525034844F1
:104530006244F240D2444249B249C14505618DB559
:10454000414681454A8597C0FE1FE78000E3E31599
:1045500035FDC1B741468145268597C0FE1FE780DE
:10456000C0E1E30625FDF2406244D2444249B2492B
:1045700005618280411122C43724002026C24AC02E
:10458000AE842A89130600028145130584C106C63C
:1045900097C0FE1FE780E0CF930784C1A381270166
:1045A000B7270020238E97D6EFE02034854719C126
:1045B00081474945230CF4C0B24022449244024949
:1045C00041018280814781CD19C98547631BF50070
:1045D00083C7550093E707FCA382F50085473E8516
:1045E000828089476317F50083C7550093F7F70367
:1045F000E5B70D478547E314E5FE03C7550013777C
:10460000F70313670704A382E500D1BF81478DC17B
:1046100005C103C755009306000C85471377070CA7
:104620006308D700930600048D476303D7008947CA
:104630003E858280411122C4005D06C626C21DC887
:10464000AA84085009C597C0FE1FE780E0AD485016
:1046500009C597C0FE1FE78020AD085409C597C063
:10466000FE1FE78060AC228597C0FE1FE780C0ABCD
:1046700023AC0402B240224492444101828019E9F1
:10468000B727002083C7A7C191C73725002013058E
:1046900005A2828037250020130505C38280B72735
:1046A000002003C5A7C18280B727002003A547C209
:1046B0008280B727002003A587C28280B727002009
:1046C00083A7C7C288438280B7270020938787C10A
:1046D000D44B9842050798C203C537009307F00FE3
:1046E0006305F50091656FD05FAB8280011122CC2C
:1046F00006CE2E8432C6EF90D0559147B245631056
:10470000F502B727002083A7C7A395C303A307001B
:10471000630F030022856244F24005610283B727DC
:10472000002083A747A381C703A34700D5B7F24062
:104730006244054505618280011122CC2A8403551B
:10474000450006CE26CA4AC84EC6EF90B02E25CDEB
:104750002A89834405008349C500E93D4A85EFA0C5
:10476000600E03554400EF90104A372900201309CA
:1047700089A483470900A1CF639B9704B727002032
:1047800083C597A42685EFF05F9F19E123000900F8
:1047900003554400EF90F04B9147631FF500B72796
:1047A0000020938787C18356440003D76700639531
:1047B000E6007D572393E700F2406244D244424929
:1047C000B2490561828081499304F00F79BF930754
:1047D000F00FE38FF4FA8346640003564400034568
:1047E00024004E87A6852D3E65B779715EC6AA8BDB
:1047F0002E8552CC56CA5AC806D622D426D24AD0C2
:104800004ECEAE8A328B368AEF90D0227DC1045DC7
:104810002A89E5C09C50614599C3130540039C5407
:1048200081C751054205418163050A0071054205B2
:104830004181DC5081C75D0542054181EFD04FCCFD
:104840002A8445C96146814597C0FE1FE78060A460
:10485000B727002083C987C66394090083490900EC
:10486000930700FD2300F400A947A300740123016E
:10487000F400230364018C502312540113058401B6
:1048800091C908C47146930A440397C0FE1FE7808C
:10489000209956858C5491C948C45146930A4501C4
:1048A00097C0FE1FE780C0975685630C0A0008C8B2
:1048B0007146D285930AC50197C0FE1FE7804096D6
:1048C0005685CC5099C548C85D4697C0FE1FE78005
:1048D0002095A2854E85EFD0AFD12254B25092548C
:1048E000F249624AD24A424BB24B4A85025945616B
:1048F00091B3B250225492540259F249624AD24AB8
:10490000424BB24B4561828001114EC6AA892E8569
:104910004AC806CE22CC26CA2E89EF90B01121C9F2
:10492000B727002083C487C699E083440500194552
:10493000EFD00FBD2A8405CD8145194697C0FE1FD3
:10494000E7802095930700FD2300F400B947A300FA
:1049500034012301F40023122401A2856244F240B1
:104960004249B2492685D24405616FD06FC8F240F2
:104970006244D2444249B2490561828039715ECEB7
:10498000AA8B2E8526DA4ED652D456D25AD006DEBF
:1049900022DC4AD8AE84328BB68A3A8ABE8942C6B5
:1049A000EF90500921CD2A894145EFD06FB52A8477
:1049B00031C54146814597C0FE1FE780808DB727EE
:1049C000002003C587C619E103450900930700FDD0
:1049D0002300F400BD472301F400B247A300740193
:1049E0002312940023046401A30454012305440109
:1049F000A30534015CC4A285EFD08FBFF25062548E
:104A0000D2544259B259225A925A025BF24B216156
:104A10008280797126D2AA8439454AD04ECE06D6F4
:104A200022D42EC6B2893689EFD08FAD21C1B245CE
:104A30009307000D2310F500B1472A842312B50017
:104A40002301F500CE851905194697B0FE1FE780B2
:104A5000207D23062401A2852254B2500259F24936
:104A600013F5F40F925445616FD08FB8B2502254B1
:104A700092540259F24945618280411126C2B724FD
:104A80000020938484C103C7340006C622C44AC0F0
:104A90009307F00F630CF7042A893945EFD04FA62E
:104AA0002A8429C5930700FDB72500202300F500BF
:104AB000A300250123010500938505C30D051946B3
:104AC00097B0FE1FE780C07583D78400A28503C519
:104AD00034002315F40083C714002306F400224495
:104AE000B2409244024941016FD08FB0B24022449B
:104AF000924402494101828001115AC02A8B3145FA
:104B000026CA4EC652C456C206CE22CC4AC8AE846D
:104B1000B28A368ABA89EFD0AF9E3DCD2A842685E7
:104B2000EF90407111C50347C500A1476314F70416
:104B3000B727002003C9B7C1930700FD2300F40085
:104B40009D47A30064012301F40023129400231362
:104B500054012314440123153401A2856244F24018
:104B6000D244B249224A924A024B4A8542490561DF
:104B70006FD00FA8B727002003C9D7D7E31E0BFAC1
:104B8000B727002083A787AF9C47DDD7CE86528604
:104B9000D685268582974DB7F2406244D244424979
:104BA000B249224A924A024B05618280011122CC0D
:104BB0002A84214506CE2EC6EFD08F9421C1B2455E
:104BC000930700FD2300F500C5472301F50083C7C7
:104BD0003500A301F50083D745002312F50083C7F4
:104BE00065002303F50083C77500AA85A303F500BC
:104BF00022856244F24005616FD08F9FF24062448B
:104C000005618280397162CC2A8C594526DA4AD8EE
:104C10004ED652D456D25AD05ECE06DE22DCAE84B8
:104C200032C636C4BA8B3E8BC28A468A8359010487
:104C300003494104EFD0CF8C25C93246930700FDCC
:104C4000A2462300F5009547A301C500A3008501F6
:104C50002301F5002A8419461105A9C2B68597B02B
:104C6000FE1FE780E05B23066401230A240123156D
:104C70007401231754012318440123193401A28518
:104C80006254F2504259B259225A925A025BF24B84
:104C9000624C2685D25421616FD08F95814597B0A3
:104CA000FE1FE780005FC1B7F2506254D2544259F0
:104CB000B259225A925A025BF24B624C21618280B5
:104CC000411122C437240020130484C183472400E7
:104CD00006C626C28DCBB7240020AA8519461385A7
:104CE00004A297B0FE1FE780A053034524009385DC
:104CF00004A2EFF03F8D2244B240138504A29244F7
:104D000041016FD0503FB2402244924401454101DD
:104D10008280411126C2B7240020938784C106C631
:104D200022C44AC003C737009307F00F938484C19D
:104D30006304F7042A892945EFC09FFC2A840DCD1E
:104D4000930700FD2300F500A147A30025012301DF
:104D5000F50083C72400B7250020938505A2A30191
:104D6000F5001946110597B0FE1FE780604B03C59B
:104D70003400A285EFD0CF8703C724008D4763118D
:104D8000F702B727002083A787A399CB03A3870047
:104D9000630803002244B240924402494101028365
:104DA000B24022449244024941018280797122D466
:104DB00006D626D24AD04ECE52CC56CA09445DCD34
:104DC0002A8903550500AE895144EF90A046AA8474
:104DD00055C537270020930787D783C747008546E7
:104DE000BA8AFD1793F7F70F494463F9F6080347AA
:104DF000C500A1476314F700639209089C5C454411
:104E0000B5EF9165938545711305C00297B0FE1FFC
:104E1000E780402388DC2A8A4D442DC11306C00256
:104E2000814597B0FE1FE780C0468357090093066F
:104E30004A0036852311FA0071469305490036C6AB
:104E400097B0FE1FE780C03D89472300FA0003C5E5
:104E5000C400B2460356090083C58AD761151335CD
:104E60001500EFA0A06F2A8463860900CE852685F1
:104E7000EF90F04C01C42685EFF0CFFB2285B250B5
:104E8000225492540259F249624AD24A45618280C0
:104E9000B727002083C7C7D70547FD1793F7F70F3C
:104EA0006378F708894751C6011122CC26CA4AC83F
:104EB0004EC652C406CEAA89368AB2842E89EF9095
:104EC00060372A84D14729C9485509C597B0FE1FC4
:104ED000E7808025F1452685EFD08F9248D4CD47D5
:104EE00005CD8346C40021478147639FE600630DDB
:104EF0000A000347A5010356050193062501AA856B
:104F00004E85EF90704BAA8703474400630F09005A
:104F1000136767002302E400F2406244D24442492E
:104F2000B249224A3E850561828013674700DDB79A
:104F3000C9473E8582809307000463EBA700B7272B
:104F40000020938787C306053E95035505008280A0
:104F500041657D158280011122CC2A842E8526CAC6
:104F600006CEAE84EF90002D1DCDB7470F0093877E
:104F7000F723094563E4870281450A85414697B0D6
:104F8000FE1FE7800031A685231081000A8541803D
:104F900023018100A3010100EFA0C03BF240624465
:104FA000D244056182804945D5BFB7270020238DB3
:104FB000A7D682806FA0A054797152CC2A8A3285FC
:104FC00022D426D24AD04ECE56CA5AC85EC606D67B
:104FD00062C4AE8BB28A368BBA843E89C28946845B
:104FE000EF90402515C92A8C63140A0213774B00F1
:104FF0008347450015CF93E727012302FC008DEC82
:10500000631C0902639A090205E8ED9B2302FC0078
:10501000832B8C03639F0B06B25022549254025987
:10502000F249624AD24A424BB24B224C45618280DD
:10503000F59B93E70701D1B793E747002302FC00F4
:1050400001CC1C484146A2852324FC0213058C0197
:1050500097B0FE1FE780C01C63910B02D5D80325D3
:10506000CC0209C597B0FE1FE780000CF1452685EC
:10507000EFC01FF92326AC0261BFE30B09F803253B
:10508000CC0209C597B0FE1FE780000AF1454A85AA
:10509000C5B79DC483A70B0299EB916593853571C4
:1050A000714597B0FE1FE780E0F923A0AB0203A58E
:1050B0000B0219C57146A68597B0FE1FE780401602
:1050C0006388090283A74B0299EB9165938525714B
:1050D0005D4597B0FE1FE780E0F623A2AB0203A573
:1050E0004B0219C55D46CE8597B0FE1FE780401381
:1050F0001DC483A78B0299EB91659385157151456A
:1051000097B0FE1FE78000F423A4AB0203A58B0237
:1051100019C55146A28597B0FE1FE7806010225442
:10512000B2509254F249B24B224CCA865A86025966
:10513000424BD6855285D24A624A45616FF0EFEA0A
:10514000011126CA52C406CE22CC4AC84EC62A8AAB
:10515000AE84EF90200E25C5AA893945EFC05FBA0D
:105160002A8431CDB727002003C987C663140900FC
:1051700003C909009307000D2310F400AD47230174
:10518000F4009385690013053400194697B0FE1F9B
:10519000E780000993F71400858085882306F400D2
:1051A000A306940023154401A2856244F240D24430
:1051B000B249224A4A85424905616FC07FC3F24025
:1051C0006244D2444249B249224A056182800111B7
:1051D0004EC652C456C206CE22CC26CA4AC8AA8A95
:1051E0002E8AB289EF9000052DCD2A891305C002C1
:1051F000EFC01FB12A8435C5B727002083C487C6F6
:1052000099E0834409009307000D2310F400E94757
:105210002301F4009305690013053400194697B083
:10522000FE1FE780E0FFD285231554011305C4005B
:10523000414697B0FE1FE780A0FECE851305C4014E
:10524000414697B0FE1FE780A0FDA2856244F24070
:105250004249B249224A924A2685D24405616FC02A
:105260003FB9F2406244D2444249B249224A924A8A
:1052700005618280411122C437240020130484A2D6
:10528000084006C619C597B0FE1FE780E0E9232055
:105290000400B240224441018280011106CE22CC9A
:1052A00026CA4AC82EC6EF80F07839CDB245B72756
:1052B000002003C987C60CD5AA84631409000349DA
:1052C00005004145EFC0DFA32A841DCD9307000DE3
:1052D0002310F500A5472301F50083C754009385EB
:1052E00064001105A30FF5FE194697B0FE1FE78075
:1052F00020F39C54A285F2405CC46244D2444A85A7
:10530000424905616FC0DFAEF2406244D244424977
:10531000056182801D71A2CC86CE2A842EC6EF80C4
:10532000707105CD8346C5001147AA874945639230
:10533000E6029C5FB24599C383C56701B7060200C8
:105340002308B10093864653100889452285EF90C3
:10535000C075F6406644256182805145DDBFB727A0
:10536000002083C7C7D70547FD1793F7F70F637A68
:10537000F704894721CA411122C426C24AC006C681
:10538000B2842E89EF80106B2A84D14705C563084B
:1053900009008347450093E727002302F5004146B3
:1053A000A6851305840197B0FE1FE78060E79C483F
:1053B0001CD48147B2402244924402493E854101B7
:1053C0008280C9473E858280797122D406D62A849C
:1053D0002EC6EF80306601CDB2452285230EB10086
:1053E0006C08EF904072B250225445618280514562
:1053F000DDBF6F80D07AC1671387E7FF6395E50251
:10540000B727002083A747A391EB494582804945F0
:10541000B2402244924402494101828003A3070022
:10542000E30503FE0283411122C426C24AC006C618
:10543000FD172A892E84B284639AF502B7270020CB
:1054400083A747A391CF9C4381CF829711E9B727C8
:105450000020238427A5B7270020A38497A44DBF4D
:10546000A6854A85EFE07FD145F5D5B72E85EF803B
:10547000705C51DD834705000D45E39B27F92285CC
:105480002244B2400249A685924441016FD0A04314
:105490009307000463E2A7064111C16722C406C650
:1054A00026C2FD172A8409456382F502C547AE84EA
:1054B0006313F4022E85EFD0C04837250020130572
:1054C00085C306042A94231094000145B240224467
:1054D0009244410182809307A0036316F4002E8555
:1054E000EFD0203FD9BF9307B003E318F4FC13F5C6
:1054F000F50FEFD0403ED1B709458280411106C675
:1055000022C426C237240020AA84EFE03FC9EF203E
:105510004075EF103016EF60920D130584C1814580
:105520001306000297B0FE1FE780A0D6130484C1C3
:10553000930700F02311F400B7270020138787D7C3
:10554000FD562301D700230204002244238C97D662
:10555000B24026859244954541016F70C0585971FB
:1055600093970501CAD086D6A2D4A6D2CECED2CCED
:10557000D6CADAC8DEC6E2C4E6C2EAC06EDEC187B9
:105580002E8963D40756B724002003C584D7B729D2
:105590000020372B0020EFC0AFFD2A8426CCB72A8D
:1055A0000020372C0020938489C1B72C00201DE0F7
:1055B00021653345A900B650265496540659F6493C
:1055C000664AD64A464BB64B264C964C064DF25D83
:1055D00065618280834704001307200A639CE7000B
:1055E00003CA340003552400C1652286FD15EFF07F
:1055F000EF8F8DA26247130787D7034A270013074F
:1056000010096395E716834714001547639FE70069
:105610002285EFF06F922285EFC06FE9E24703C564
:1056200087D7EFC0EFF42A8459B739476398E71654
:10563000035544008567A5076315F5040C4483CB27
:105640000500639D0B00850591C93725002019468B
:10565000130505C397B0FE1FE78080BC03C789C14F
:1056600085476315F71063880B00238C09C05E859E
:10567000EFF0AFC04DB78947238CF9C0EFD060275A
:1056800059BF896713872700631CE504832B8400B7
:10569000638E0B0C83C70B0089EF83C72B0003C7F6
:1056A0001B00A207D98F2394F40083C73B00A3807B
:1056B000F40003C789C18947631AF70A83C70B003F
:1056C00091C7238C09C003C50B005DB783C51400C7
:1056D00003D584008D47238CF9C0EF70C043E5B734
:1056E00095076318F5001C4403C50700EFF06FE24F
:1056F0001DB7F9771387A7FF2A9742074183914681
:1057000063F1E6049387A7FCAA97C207C183714798
:105710006371F70289671387B7006310E50483A7F5
:105720000AA3E38A07EE9C43A285E38607EE8297ED
:1057300015A0370700181307F770B357F700858BCC
:10574000A1CB83278BA3E38807EC9C43E38507EC7D
:1057500022858297E31105EC11A81387C700631017
:10576000E5021C4483C70700E38707EA9307F00FAD
:10577000E303FAEAA2855285EFC08FE745B5B90782
:105780006318F50083A74CA3E38707E8DC4369BFF0
:10579000896793871704E304F5F8C9BF3D47639908
:1057A000E7040355440089671387D700E30CE5FC41
:1057B00013879701E308E5FCCD07E319F5FA03D752
:1057C0006400C167FD17631DF70083A74CA3E38442
:1057D00007E4DC43E38107E40965A2854D0581BF49
:1057E000B727002083A7C7A3E38707E29C43DDB761
:1057F0001307E003E39CE7F683472400054763981B
:10580000E70E8347640037270020930D87A2E1E766
:1058100083A70D00D5CF83CB0700214A0345740031
:10582000130D8400EA85EFE07FDE83474401A30384
:10583000A400835804010358E400035744002A8657
:10584000034534003EC283572401EA86DE853EC00C
:10585000D287EFF02FBB8347340095E7DD478358AD
:1058600004010358E40083467400835544003EC29B
:10587000835724016A873EC0D28705465E85EF8044
:105880005054A301A40083A70D0081C71145EFF078
:105890007F9E930B8CA403C50B00E30E05D6B727A0
:1058A000002083C597A4EFE05F8DE30605D683460D
:1058B000340093071003638AF6000356440083C53F
:1058C0000B0052873685EFE0BFA523040CA4A1B3DB
:1058D00083CB340099B783278BA383CB3400114A41
:1058E00095DFDC4385DF81450145829705BF294768
:1058F0006398E70A8347640037270020930D87A247
:10590000A5EF83A70D00B5C783CB0700214A034548
:1059100074009306840093772500BDCB13761500A1
:1059200013034401834704028358C4010358A401AC
:1059300003574400034534003EC28357E401DE852B
:105940001ACE3EC0D287EFF0EFAB834734007243EC
:105950009DFBDD478358C4010358A40183467400AE
:10596000835544003EC28357E4011A873EC0D28764
:1059700029B783CB340059BF83278BA383CB340053
:10598000114AD1D7DC43C1D781450145829741B740
:10599000B68536CEEFE09FC7F2462A86368359B7E2
:1059A0000947639CE70083A70AA3E38607C6DC4395
:1059B000E38307C622858297B9B92D476398E7002C
:1059C00083A70AA3E38907C49C47DDB70D47639704
:1059D000E70022868D450355440011B919476395A8
:1059E000E7069305610213051031EF60E2482C10C1
:1059F00013052031EF60424803566400835781024B
:105A00000355440063E8C7008356840003576102CE
:105A100063F7E60093050002EFC0B071EDBE63745A
:105A2000E6002313E40063F4D7002314F4000357C3
:105A3000C4008356A40003568400835564000148C3
:105A40008147EFC0D06EC1BE1D47E381E7D2314729
:105A50006395E7002286B145BDBF35476398E700EF
:105A600083A70AA3E38907BADC4799B73947639646
:105A7000E7002285EF00F00779BE3D476398E70015
:105A800083A70AA3E38907B89C4B1DB741476396D8
:105A9000E7002285EF001011BDBE45476396E70081
:105AA0000145EF00902085BE4947639DE7008327AD
:105AB0008BA3E38D07CADC43E38A07CA814505450A
:105AC00082976DB14D47639CE70083278BA3E38FDB
:105AD00007C8DC43E38C07C8A2850945D5B76147F1
