:041000006F009040AD
:10100400000000000000000090200020C222002008
:10101400A9BDF9F5782300200000000000000000BD
:101024007823002090200020000000000000000031
:10103400902000200000000090200020000000000C
:10104400902000209020002090200020902000205C
:1010540090200020782B0020902000200000000029
:10106400902000209020002090200020902000203C
:10107400DE230020902000209020002090200020DB
:10108400902000209020002090200020902000201C
:1010940001A04111B7170040985F3AC6945F3247E8
:1010A400E39CE6FE324541018280B7F70700011157
:1010B400944B13078008F337078093F787083EC2E1
:1010C4000F100000B71700401308700523800705B0
:1010D400930580FA2380B7040F10000003C6B704F9
:1010E4001376F60DA385C7042380070412467326DE
:1010F40006800F1000001376050255CEF3360780E4
:1011040093F6860836C40F10000023800705238059
:10111400B7040F100000B70614007D89558D88C7E9
:10112400010001000100010023800704A246F3A688
:1011340006800F10000073370780137787083AC6BC
:101144000F100000238007052380B7040F10000050
:101154000F1000003727004093061005A303D78023
:1011640023800704B247F3A707800F1000009307FA
:101174008008F3B7078093F787083ECE0F1000006E
:10118400B7170040130770052380E704130780FA9C
:101194002380E7040F10000003C7B7041367070890
:1011A400A385E70423800704F247F3A707800F1001
:1011B4000000056182801376050459C273360780E6
:1011C4001376860832C80F10000023800705238099
:1011D400B7040F10000037061400130606047D89B7
:1011E400518D88C70100010001000100238007041C
:1011F4004246732606800F1000007337078013776A
:1012040087083ACA0F100000238007052380B7041B
:101214000F100000A54793F6F60F639EF600B7275C
:10122400004013073005A383E780B71700402380ED
:101234000704D2470DBFB727004013072005E5B7C1
:1012440073370780137787083ACC0F100000238088
:1012540007052380B7040F10000098471367070C95
:1012640098C723800704E247FDBD0111814601466A
:101274008145114506CEB92493078008F3B707804A
:1012840093F787083EC60F100000B71700401307F6
:1012940070052380E704130780FA2380E7040F1006
:1012A400000003C76704136717002383E704238040
:1012B4000704B247F3A707800F100000F24005614E
:1012C400828041118146014681451145E52A130773
:1012D4008008F337078093F787083EC40F10000097
:1012E400B7170040130670052380C704930680FADD
:1012F4002380D7040F100000FD552396B7022380E6
:101304000704A245F3A505800F100000733707807A
:10131400137787083AC60F1000002380C704238080
:10132400D7040F10000003C7670413671700238353
:10133400E70423800704B247F3A707800F100000D7
:1013440001A0BD473305F50201007D1575FD8280BE
:10135400411122C426C206C6AA840144631794001C
:10136400B240224492444101828005041305803E28
:101374004204C13F4180DDB79305000273A045805C
:1013840082457390153492402242B2424243D24382
:101394006244F244025592552256B2564257D257ED
:1013A4006258F25806499649264AB64A464BD64BE5
:1013B400664CF64C065D965D265EB65E465FD65F6D
:1013C4000961730020304111B7170040985F3AC695
:1013D400945F3247E39CE6FE324541018280B717B1
:1013E4000040130700032388E7028547171700000E
:1013F4002320F7E473002030411122C406C63704C9
:1014040000201C408297F5BF230304801547230363
:10141400E48001002302A480828083076480E3CEF9
:1014240007FE23030480828083076480E3CE07FEE3
:1014340003454480828083076480E3CE07FE230251
:10144400A4808280411126C44AC24EC006C61377C6
:10145400F50BAD47AA892E8995446306F700194513
:101464006537653F8D444E854537FD59FD146398B6
:101474003401B240A2441249824941018280135589
:1014840009011375F50F453F2209CDB7011126CC8B
:1014940006CEB704080051371545BD377137693793
:1014A4002AC6A53F32459377150089EB13651500CD
:1014B4001375F50FF240E24405618280FD14E9FCE6
:1014C4000145CDBF397126DC4ADA4ED852D656D4FE
:1014D4005AD25ED006DE62CE66CCB7E700E07D5716
:1014E40083AA070022C603AA470023A0E71823A261
:1014F400E718B7170040130770052380E7041307A4
:1015040080FA2380E70483C74704930B75FFB684EE
:10151400E20793FBFB0F8546AA892E8B3289372479
:101524000040E187015763FA76016308D5008946D4
:10153400130700026313D5000157D98F93F7F70FF0
:10154400B71C00402382FC0411472303E4801305E5
:10155400F00F5D3D094CD135636D7C11B705070073
:10156400DA9537870700795563F2E504B387950068
:10157400636EF702370B0800A94733EB65016399E3
:10158400F90689E48144513D26850DA0DA85094593
:10159400553D05090345F9FFFD14050B693D81C45B
:1015A4009377FB0FFDF7DD3569FD7D55B7170040D7
:1015B400130770052380E704130780FA2380E704E8
:1015C40003C74704418B2382E704F250B7E700E0E6
:1015D40023A0571123A24711E25432445259C2594D
:1015E400325AA25A125B825B724CE24C21618280B5
:1015F400A5476395F90685691309F00FB3069900A9
:10160400B3742B01B6941349F9FFB3749900856B35
:1016140033796901416B9387F9FFB3F7270199E3A4
:1016240063FC340193D94900C147E3E637FF99BF0E
:101634000569C1697D19D9B71305800D63886901EE
:10164400130500026384790113051008CA85DD3B84
:10165400353D21DD4E99B3843441D9B7DA852D4522
:10166400D533CA94E30099F205097D3BA30FA9FE83
:10167400D5BF9387F9FF93F7F70F6361FC0C83C71A
:101684001C0413073008631FF70437070800636B53
:10169400EB04B3079B00B706100063F5D704334B84
:1016A400EB0089476393F9068980D549E38C04EC00
:1016B400DA850945413B11090327C9FF91472320D6
:1016C400E48003076480E34E07FE23033481FD179F
:1016D400EDFBFD14110B81C49377FB0FE9FF7D3300
:1016E40071F5E1B5B717004003C75704B707080001
:1016F4001377070219E3B78707007955E378FBEA04
:1017040033079B00E3FFE7F855B58547E382F9F219
:10171400DA852D45053B9389F4FFE38504E62933F7
:1017240093F7390091EB832604800327090093077C
:101734004900E39AE6E43E89CE84F1BFB547639657
:10174400F9001305900BC93135BDB1471305B00A33
:10175400E38BF9FE99476391F904B7050800B36573
:10176400BB002D45C53181448D4BA1497539639624
:101774007401832704802320F9008504E39834FF4F
:101784008327048013172B01635507002312F900E4
:10179400D5BB2322F900FDB39D476399F902814526
:1017A4001305B0044531BD44232009002322090058
:1017B400FD599D3993F77400CA9703C70700FD14B8
:1017C400398D2380A700E39634FF6DBBA147639254
:1017D400F9046D398144630D0B008D479304C003F4
:1017E4006308FB009304000563048B019304400425
:1017F4001375C507E30895D81945393139390545B5
:10180400213126850D3909453D314931E31C05D681
:1018140069BB91476399F90013056006F536F53EF7
:10182400130590090DB7E38F09D4F154A9BBBD6624
:1018340001471736000013062619938606A6854528
:101844008347060093F7F70F91C382800507E3F9F6
:10185400E6FE973700002389B716DDB77D166206CA
:10186400618693178601E18763D40700014582806E
:10187400931726003307F500AE9718439C4363E79C
:10188400E7007D16E37FF7FC7D5582800545828065
:10189400FD15E205E18513978501618793F7F50F3F
:1018A40063480700FD15139725002A97584365D709
:1018B400138517006205618582803308B5021C42D6
:1018C40083A80600B335B502C29733B50701AE98B5
:1018D400469585486367B5006394A50063E30701F3
:1018E40081480C43C6950CC388C21CC282808147C0
:1018F4001397870161876343B7008280139727009A
:101904002A97232007008507E5B781470147939667
:101914008701E18663C5B60013351700828093966C
:101924002700AA9694428507558FD5B793D755407B
:101934008A07AA979C4305453315B5007D8D82809F
:1019440017F3FFDFE702A33B2A84993705C59317F2
:1019540025003E940327C4FF814711EB7D1516052E
:101964003E954205418517F3FFDF6700833B0583FE
:101974008507E5B70145C5BF81471397870161878F
:101984006343C700828013972700B386E50094421F
:101994002A97850714C3D5B77D1662066186014769
:1019A40093178601E18763D50700133517008280FA
:1019B40093172600B306F500AE9794429C437D1618
:1019C400B58F5D8FF1BF8A05AA9501476363B500A2
:1019D400828083A6C5FFF11593D71600D98F9CC1C9
:1019E4001397F601E5B72A8301480147014563438C
:1019F400D7008280B387050183A80700B3070601D7
:101A04009C43C697AA976384F80033B5170105076A
:101A1400B3080301620723A0F80061871108C1BF5E
:101A24002A8301478147014563C3D70082803388F5
:101A3400E50083280800330EE600032E0E003388E9
:101A4400A8403308C8416384080133B508018507F9
:101A5400B308E300E20723A00801E1871107E9B70F
:101A640017F3FFDFE702A3290111B286B2842E86A1
:101A7400AA850A8575372A84A6850A85793533347B
:101A84008000060413351500018D056117F3FFDF8F
:101A94006700232917F3FFDFE702E3234111AA8933
:101AA400AE8A328BB68402C202C402C60144131C3D
:101AB4008401135C8C4163499C02939B1400FD1BBD
:101AC4000549138CF4FFF15C3304890162046184D9
:101AD400634D740592478E04CE9423AEF4FE410107
:101AE40017F3FFDF6700A32213192400B30B2B01A4
:101AF400014A93172A00D69783A50B0088437800E0
:101B0400340050005D3B050A93178A01E187F11BFD
:101B1400E351FCFE92474E9905042320F900A247A5
:101B24003EC2B24702C63EC459B7131A8901135ABA
:101B34008A41131D240093178A01E18763CF97001C
:101B440092470A044E941CC0A24705091379F90F61
:101B54003EC2B24702C63EC485BFB3079A031315FB
:101B64002A0056950841780034005000050AEA9787
:101B7400DA978C439933C1B7197106C212C416C6D9
:101B84001AC81ECA22CC26CE2AD02ED232D436D699
:101B94003AD83EDA42DC46DECAC0CEC2D2C4D6C689
:101BA400DAC8DECAE2CCE6CEEAD0EED2F2D4F6D679
:101BB400FAD8FEDA97050000938505678841E700A7
:101BC400050092402242B2424243D2436244F2446C
:101BD400025592552256B2564257D2576258F2587D
:101BE40006499649264AB64A464BD64B664CF64CAD
:101BF400065D965D265EB65E465FD65F096173003C
:041C0400203000008C
:101C0800972100209381813F17510020130101BFC4
:101C180017F5FFFF1305C53E970500209385053E80
:101C2800171600201306C6FD63FAC50083220500B7
:101C380023A0550011059105E3EAC5FE179501009B
:101C4800130545D7971500209385C5FB1716002067
:101C58001306465B63FAC5008322050023A05500DE
:101C680011059105E3EAC5FE1715002013058559EE
:101C780097450020938505216377B500232005004B
:101C88001105E36DB5FEFD42739002BC8D42739061
:101C98004280B722000093828288739002309702B4
:101CA80000209382A23593E232007390523097322B
:101CB800000093820231739012346FC0E4337300D2
:101CC8002030397101436EC619A0397141536AC871
:101CD80066CA62CC5ECE19A0397101535AD056D269
:101CE80052D44ED64AD826DA22DC06DE33016140C9
:101CF800828241114AC026C222C406C68282B24DDF
:101D08004101024D924C224CB24B4101024B924A86
:101D1800224AB2494101024992442244B240410157
:101D280082803D432A876373C3029377F700BDEF30
:101D3800ADE5937606FF3D8ABA960CC34CC30CC733
:101D48004CC74107E36BD7FE11E28280B306C3405C
:101D58008A069702000096966780A6002307B700B8
:101D6800A306B7002306B700A305B7002305B700ED
:101D7800A304B7002304B700A303B7002303B700E5
:101D8800A302B7002302B700A301B7002301B700DD
:101D9800A300B7002300B700828093F5F50F939650
:101DA8008500D58D93960501D58D61B7939627004B
:101DB8009702000096968682E78086FA9680C11779
:101DC8001D8F3E96E374C3F8A5B73367B500FD537E
:101DD8000D8B79E7B7877F7F9387F7F71041944199
:101DE800B372F6003363F600BE92B3E26200639703
:101DF800720C6318D6065041D441B372F6003363AF
:101E0800F600BE92B3E262006398720A631BD604BE
:101E180010459445B372F6003363F600BE92B3E200
:101E280062006391720A631ED6025045D445B372AC
:101E3800F6003363F600BE92B3E26200639A72085A
:101E48006311D60210499449B372F6003363F60061
:101E5800BE92B3E26200639372085105D105E30FA5
:101E6800D6F61317060193970601631CF70013575C
:101E7800060193D706013305F7409375F50F91E9ED
:101E880082804183C1833305F7409375F50F91E153
:101E980082801377F70F93F7F70F3305F7408280A7
:101EA8000346050083C60500050585056313D600AE
:101EB80065FA3305D640828011059105E312D6FEF6
:101EC800014582802105A105E31CD6FC01458280DD
:101ED8003105B105E316D6FC014582804105C105EF
:101EE800E310D6FC01458280B717004003C7770589
:101EF8001377E70FA38BE704130700F8A38DE70414
:101F08003D47238CE70413075003A38CE70403C75A
:101F1800A7051377D70F238DE7048280B7170040F2
:101F280003C7E7020D8941111377C70F498F93063D
:101F38008008F3B6068093F6860836C60F100000B0
:101F4800930670052380D704930680FA2380D7046C
:101F58000F1000002387E70223800704B247F3A786
:101F680007800F1000004101828041112A83014E31
:101F7800930E407E130F0019930F400663E56E120F
:101F88009308001913034006B3781503854E0D4FC7
:101F9800A14F337365020D891335150063EFBE1227
:101FA8001308F6FF79467298420813580801330758
:101FB800C70213D61700BE0732976146B3F6C602AA
:101FC80013068070B386C6023697A166F58F42075E
:101FD8005D8FB716004083C7F60293F70708A3037F
:101FE800F1000346710083C7F60293F70708E394EC
:101FF800C7FE83477100B716004093F7F70F638851
:10200800071293078008F3B7078093F787083EC441
:102018000F100000B7170040930670052380D704FF
:10202800930680FA2380D7040F10000023AA070321
:1020380083C6170393E60608A388D70223800704FC
:10204800A247F3A707800F1000001166B7170040DA
:102058007D16D45BC85F93854703A98EF18EF5FA88
:1020680093068008F3B6068093F6860836C60F10E6
:102078000000930670052380D704930680FA238016
:10208800D7040F10000098C103C71703136707048C
:10209800A388E70223800704B247F3A707800F103D
:1020A8000000410182807D133368E3039308E01642
:1020B800630E08003368F3039308D016630808001A
:1020C8009378330093B818009388D81633081E0104
:1020D800131E0801135E0E0155B56393E503054809
:1020E800638608000148630303002A887108729810
:1020F800FD15131E0801C205135E0E01C18179BDCD
:1021080013F8150063F4BF007908D5B71338180021
:10211800E5BF83C7F60293F70708A303F100034658
:10212800710083C7F60293F70708E394C7FE834755
:10213800710093F7F70FF1DFE9B531714AD966CB32
:1021480006DF22DD26DB4ED752D556D35AD15ECFD5
:1021580062CD6AC96EC7AA8C02D8EF00901C2A8982
:1021680093078008F3B7078093F787083EDA0F10C4
:102178000000B7170040130770052380E704130712
:1021880080FA2380E7040F10000003C7F7021377D3
:10219800770FA387E70203C7F70213678700A387B0
:1021A800E70223800704D257F3A707800F10000027
:1021B8000545AD33130780C13347E902116A930718
:1021C8000AE893065002BD69930BA004814A014BAB
:1021D80013048008930470057D1AB347F902330786
:1021E800D7023EC0FD873ECC938709A69309803E5F
:1021F8003347F7023AC27D873AC4334739038549E2
:10220800B399990193D93940B306D702B30B770331
:10221800B3C6F602B3CBFB0236C6FD8636C893D6E4
:10222800FB4136CEB7460F00938606243349D902C0
:102238008566938606FAB3969601B389E902130771
:1022480060553309D90293060010B389E90233496E
:10225800D902B3C9F9029316390036CA37190040B2
:10226800FD8636D0930D090493D7F9413ED2F33653
:10227800048093F6860836DC0F100000930770057B
:102288002380FD00930680FA2380DD000F100000F4
:102298008346390593F6860FA309D9048346390581
:1022A80093E61600A309D90423800D00E256F3A68D
:1022B80006800F100000130C80FA116DF3360480AD
:1022C80093F6860836DE0F1000009307700523800A
:1022D800FD0023808D010F1000008346390521661B
:1022E80093E60602A309D90483560905B3E6A601B5
:1022F8002318D90483560905D18E2318D9042380BD
:102308000D00F256F3A606800F100000834639052B
:1023180093F60602638A061803463905218A6DDE9C
:102328000818EF0010047336048013768608B2C2CA
:102338000F10000023809D0023808D010F100000E6
:10234800B717004003C637051376F60DA389C704EF
:1023580003C6370513660602A389C7048356090511
:102368002166B3E6A6012318D90483560905D18E40
:102378002318D90423800D009646F3A606800F1073
:1023880000008346390593F60602638606148346E1
:102398003905A18AEDFE97000020E78040CFAA8684
:1023A80036D497000020E78080CEA256E30AD5FEF7
:1023B800835609054255B3E6A6012318D904D12747
:1023C80083463905A18AEDDE0356090583462905AA
:1023D80082473376CA00B306DA0293D5F641B2963D
:1023E800B388F640E24733B8C6002E983308F84061
:1023F800A247B3B616013308D84063C70701631D67
:10240800F800924763FA1701C247634DF80E6395C7
:102418000701B24763E8F80E894663E7660FF2469C
:102428009315180013D3F8015E8613951800B36549
:10243800B30042D646D4EF50E1453258050B137B22
:10244800FB0F6347000163120838A258638F0836F0
:1024580013081500B336A800B69513D6F5013298BF
:10246800B336C800AE9613581800FE06B3E6060148
:102478007336048013768608B2C60F1000002380D6
:102488009D0023808D010F1000000356C902B296EB
:10249800C206C1822316D90223800D00B646F3A6D0
:1024A80006800F10000019BDF336048093F68608E5
:1024B800B6C00F10000023809D0023808D010F10EF
:1024C80000008346390593E60602A309D904238050
:1024D8000D00864605BDF336048093F68608B6C41B
:1024E8000F10000023809D0023808D010F10000035
:1024F8008346390593E60602A309D90423800D0013
:10250800A646A5BDE30D0BF0F336048093F68608C6
:10251800B6C80F100000930680FA23809D00238020
:10252800DD000F1000008346390593F5FC0F93F684
:10253800860FA309D90483463905CD8EA309D9048A
:1025480023800D00C646F3A606800F100000130571
:1025580080FA03463905930639051D8A63149629BE
:102568007336048013768608B2CC0F100000130669
:1025780080FA23809D002380CD000F10000003C641
:1025880006001376F60D2380C60003C60600136600
:1025980006022380C600835609051166D18E2318CA
:1025A800D904835609052166D18E2318D9042380BE
:1025B8000D00E646F3A606800F100000130680FA09
:1025C8008346390593F6060263880624834639054F
:1025D800130C3905A18AFDDA08186123F336048043
:1025E80093F68608B6D00F100000930680FA238071
:1025F8009D002380DD000F10000083460C0011664B
:1026080093F6F60D2300DC0083460C0093E60602E1
:102618002300DC0083560905D18E2318D90483567C
:1026280009052166D18E2318D90423800D0086560A
:10263800F3A606800F100000130680FA83463905BA
:1026480093F606026385062083463905A18AEDFEC6
:1026580097000020E780A0A32A8C97000020E7803D
:1026680000A3E30C85FF8356090511664255D18EF8
:102678002318D90439238346390513063905A18A55
:10268800FDDAF336048093F68608B6D40F100000FE
:10269800930680FA23809D002380DD000F10000040
:1026A8008346060093F6F60D2300D60023800D001E
:1026B800A656F3A606800F100000835609050346A8
:1026C8002905D247B376DA003306CA021305800C0F
:1026D8009355F6413696330DF6408257333CD60073
:1026E8002E9C3336A601330CFC40330CCC40330807
:1026F800850392564E86B335A5033305A503C295C7
:10270800EF50411963468001631E0C16630C0D16C9
:10271800130615003335A6002E959356F501369607
:10272800B335D600AA959396F50105828585D18E95
:102738006346B000639D051A638B061A0356C902E7
:1027480015823305D6003336C500B2956348B0000C
:10275800639105241306F00F637DA622894663F36F
:10276800561593078008F3B7078093F78708BED6F6
:102778000F10000037170040930770052300F70477
:10278800930780FA2300F7040F1000008356C7024E
:1027980089678117D58FC207C1832316F7022300E3
:1027A8000704B657F3A707800F100000FA506A54C1
:1027B800DA544A59BA592A5A9A5A0A5BFA4B6A4C55
:1027C800DA4C4A4DBA4D296182801308F5FF33353A
:1027D800A800FD152E951356F5013298B336C8009A
:1027E800AA9651B1F336048093F68608B6CA0F103C
:1027F800000023809D002380AD000F100000834659
:102808003905CD8EA309D90423800D00D646F3A639
:1028180006800F10000035BBF336048093F6860857
:10282800B6CE0F10000023809D002380CD000F102E
:1028380000008346390593E60602A309D9042380DC
:102848000D00F646F3A606800F10000095BBF33680
:10285800048093F68608B6D20F10000023809D00EE
:102868002380CD000F1000008346390593E6060249
:10287800A309D90423800D009656F3A606800F10ED
:1028880000006DBB9306F5FF33B5A600FD152E9528
:102898009355F501AE96B3B5B600AA951396F50112
:1028A800858269B5F336048093F68608B6D80F108A
:1028B8000000930680FA23809D002380DD000F101E
:1028C80000008356C9020566011693F6F60FD18EED
:1028D800C206C1822316D90223800D00C656F3A66C
:1028E80006800F100000850A93FAFA0F49B233E602
:1028F800B60045C20356C9023305D0403338A0009C
:10290800B305B040B385054115826345B000D1E1F8
:102918006371A608894663F0560593078008F3B7E4
:10292800078093F78708BEDA0F100000B71700403A
:10293800130770052380E704130780FA2380E70450
:102948000F10000003D7C7027D8B2396E702238070
:102958000704D65781BDF336048093F68608B6DCA3
:102968000F100000930680FA23809D002380DD006D
:102978000F1000008356C9020566011693F6F60F7C
:10298800D18EC206C1822316D90223800D00E656D5
:10299800B9B793078008F3B7078093F78708BEDEB7
:1029A8000F10000037170040930770052300F70445
:1029B800930780FA2300F7040F1000000356C7029C
:1029C80093975600B297C207C1832316F7022300D4
:1029D8000704F657C1BB914763EEB70217670100BA
:1029E800130747728A05BA959C41BA978287B71729
:1029F800004003A7470B1345F5FF698F23AAE70A91
:102A080003A7070B698F23A8E70A03A7070A798D8D
:102A180023A0A70A8280B717004083A6470B134755
:102A2800F5FFF98E23AAD70A83A6070B558D23A88D
:102A3800A70A83A6070A758F23A0E70A8280B7171B
:102A4800004003A7470B498F23AAE70A03A7070BF0
:102A58001345F5FF45BFB717004083A6470B13473B
:102A6800F5FF758F23AAE70A03A7070A598D4DB703
:102A7800B717004003A7470B498FEDB7914763EE9F
:102A8800B70217670100130727698A05BA959C41A1
:102A9800BA978287B717004003A7470D1345F5FF7C
:102AA800698F23AAE70C03A7070D698F23A8E70CF2
:102AB80003A7070C798D23A0A70C8280B7170040C5
:102AC80083A6470D1347F5FFF98E23AAD70C83A6D3
:102AD800070D558D23A8A70C83A6070C758F23A077
:102AE800E70C8280B717004003A7470D498F23AA38
:102AF800E70C03A7070D1345F5FF45BFB7170040BF
:102B080083A6470D1347F5FF758F23AAE70C03A784
:102B1800070C598D4DB7B717004003A7470D498FCC
:102B2800EDB7B71700408847420541819377050400
:102B380091EB9377F5013755E80113050580334587
:102B4800F50282809377050C130700046397E7006A
:102B58009377F50137459C1CCDB72165130505D042
:102B6800828037E700E01C435443A183E206D58FF7
:102B78001CC1FD572320F7182322F7180F10000057
:102B8800828013178500B7E700E023A0E710618172
:102B980023A2A7108280B7F700E08847CC4782803D
:102BA800814737370040A14663C4C7003285828019
:102BB8000345B740E38EA6FE3385F50003450500BF
:102BC80085072304A740CDB79707002093870760A0
:102BD8009C43173700201307E72A3E95636EE500EC
:102BE80017470020130787A16368A700170700206D
:102BF800232EA75C3E858280FD57EDBF411122C47C
:102C080006C62A84393F2947B307E502B2408D83B7
:102C1800B3D7870222449507B3D7E7023737004076
:102C2800C207C1832316F7404101828071654111B3
:102C38001305052006C6D937B7370040130770F8C3
:102C48002381E7400D47A381E74013070004A380D1
:102C5800E74005472387E740B240410182802D4580
:102C680059EF03C5050009476317E50803A84500A0
:102C7800411106C60347180032850346080022079B
:102C88004168518F930828FE6308170363E9E80039
:102C98000518630307052390060029451DA8130698
:102CA80048FE630BC7021518E31707FF15463E8752
:102CB800637BF602154705A83E8691C30546B7E72C
:102CC8000400FC472390C6004206CC454182829707
:102CD8000145B240410182801306700F3E8763743C
:102CE800F6001307700FB7E704002390E600FC47CF
:102CF80013160701D9BF23900600054582808280FC
:102D0800416779176304E504411122C406C6854763
:102D18002A84639FF500B7E7040022852244B24065
:102D280003A38713970500209385054E410102836D
:102D380089476399F500B7E7040083A7070B854522
:102D4800829771D9B2402244410182808280797190
:102D580022D452CC2E842A8A976501009385453E59
:102D6800176501001305853F06D63AC626D24AD014
:102D7800B68432894ECEEF40317DA68517650100B5
:102D88001305C53EEF40517C2945EF50210083478C
:102D9800840093F70702F1E3834904008947054556
:102DA80032476396F908544083C7160083C6060065
:102DB800A207D58FC166138616FE638CC7028D16CF
:102DC800638FD7068D669386269029456391D7062B
:102DD800B7E70400A285225403A34714B250F2496E
:102DE800A6864A86925402595285624A85474561A9
:102DF80002832D450DEF9307700F354563E9970260
:102E0800B7E70400FC4748441306700FCA85829749
:102E18008149970700209387E73F9C43014581CB71
:102E28009C4391C74E852686CA8582970145B25034
:102E3800225492540259F249624A456182802D45D2
:102E48007DF7D5473545E3E497FEB7E70400FC472F
:102E580048445546CA8582976DBF2145C9BF41116F
:102E680022C437E404008327841326C2AA84416558
:102E780006C697050020938525397D1582978327F7
:102E8800C40A170500001305E5E78588829795C0F1
:102E9800032304132244B2409244970600209386E9
:102EA80066E74146C545170500201305A5D541012C
:102EB8000283B2402244924401454101828019C5EF
:102EC8009707002023A8A7340145828045458280C2
:102ED80011476368A70A97660100938626250A05A5
:102EE80036951841411106C63697AE87B2850287D6
:102EF8001307700F6145639DE700B7E70400FC47BF
:102F08001306700F170500201305C5368297014573
:102F1800B2404101828005476145E39BE7FEB7E780
:102F28000400FC470546170500201305A52DF9BF29
:102F380055476145E39EE7FCB7E70400FC47554663
:102F48001705002013058542D1B71307700F614597
:102F5800E390E7FCB7E70400FC471306700F17057A
:102F68000020130525425DB715476145E392E7FA4E
:102F7800B7E70400FC471546170500201305052987
:102F880071B709458280411126C2B7E4040083A7BE
:102F9800C41322C44AC006C62E8497050020938510
:102FA800A5262A898297058905C597070020938752
:102FB80067C583D7A70BA28503A3440D2310F4008C
:102FC8002244B24092444A850249014641010283A3
:102FD800B240224492440249494541018280970700
:102FE8000020238B07229707002023A90722B71761
:102FF800004003A7070CB706C0FFFD16758F23A076
:10300800E70C03A7070DB7064000558F23A8E70C68
:1030180003A7070C3D9B23A0E70C03A7070D136725
:10302800070123A8E70C82809707002023A8A71E82
:10303800B7E7040003A3870513064006894517056B
:1030480000200345251E0283B717004003A5470C3F
:1030580083A7470C598113451500C18B058999E34E
:10306800136525009707002083C7071B6380A70205
:10307800970700202382A71A11C997070020938772
:10308800E71903A307006303030002838280114545
:103098006FF0AF8A411193962500AA852D4506C683
:1030A80097F0FF1FE780C041B2400145410182808F
:1030B800011122CC06CE3714004026CA4AC84EC693
:1030C80052C483447405034AB405834984050349FB
:1030D8009405EFE07FE18347A40593F4F40F137A96
:1030E800FA0F93E71700230DF40493F9F90F1379F6
:1030F800F90FB717004003C7A705058B6DFF03D568
:10310800C705A38D4705238C3705A38C2705A38BFB
:103118009704F2406244D2444249B249224A0561C6
:10312800828041119397050122C406C626C2C18731
:103138002E8463DC0700B7E40400FC54829719C1AD
:10314800BC5482972165218D3DA093F7150013C5C6
:10315800150095E393F7250085C7FD35B7E704000B
:10316800BC4F1306000A8945170500200345850B47
:10317800829713452400B240224492444101828040
:103188009397250163D50702B7E4040083A7C41EFB
:103198008297F53DBC4C37F60200130606E08965B8
:1031A80017050020034505088297096569BF9397AD
:1031B80015010145E3D107FC176501001305C50199
:1031C800EF40514DB7E70400BC4F1306006491650A
:1031D800170500200345050582971165ADB72D71C8
:1031E800232A9110FD74E98C232C811023282111A6
:1031F800232631112A84AE893289930600100A8663
:10320800A6852D45232E111097F0FF1FE780402B30
:1032180013154401B7E70400FC4751810A051396CA
:103228002900CA850A958297A6858566014625459F
:1032380097F0FF1FE780C0280A86A685930600102E
:10324800294597F0FF1FE780A0278320C111032499
:10325800811183244111032901118329C1101561AA
:103268008280B7F7070003C70701411106C622C4C9
:1032780026C24AC0A547631AF7009537B2402244D0
:103288009244024901454101828013942500AA8491
:103298003289A286AA850146254597F0FF1FE78057
:1032A8002022A2864A86A685294597F0FF1FE78037
:1032B8002021E9B71D71A2CC37E404005C5C4858B2
:1032C80086CE494697650100938585EC829701E98A
:1032D80017650100130505EDEF40D13B01A0B7F6D6
:1032E80000E0795798CAFD57DCCA0567B7E700E0E0
:1032F80023A0E7101306F00290C223A0E7180F10CE
:103308000000370700201847130600048145970678
:10331800002023A7E6F04157A38AE7403C44080869
:10332800829797170020938767EE3EC885671387B3
:103338000760231AE1001D673ACC37070105130718
:1033480007103ACE938757D11307B00F2310E10225
:103358002312F1020547970700009387078423018A
:10336800E1023ED817070000130707D397070000AC
:10337800938747D4B7F50700BAC23EDC17070000A9
:10338800130767EE970700009387A7D081463000A0
:10339800E1051945BAC43EDE97F0FF1FE7804012E9
:1033A80018088147994630003E960346060085076F
:1033B8000507A30BC700E398D7FEC24791C7035779
:1033C800410185676373F70001A08307410263D752
:1033D800070493078008F3B7078093F787083EC46C
:1033E8000F100000B7170040130770052380E7048B
:1033F800130780FA2380E7040F100000B847B706C8
:10340800100013670718B8C79853558F98D32380AF
:103418000704A247F3A707800F100000B7E70400CE
:1034280083A7470A08088297AA8501C9176501007A
:10343800130585D8EF40511101A0F6406644256177
:103448008280411126C2B7E4040083A7040806C697
:1034580022C417050000130505CD82971704002024
:10346800130444DC2300A4003128953E03450400DE
:10347800224403A38405B2409244130600328965AE
:1034880041010283797106D622D413078008F337E5
:10349800078093F787083EC20F100000B717004057
:1034A800930570052380B704130680FA2380C704A8
:1034B8000F10000083C6F70293F6A60FA387D70262
:1034C800238007049246F3A606800F100000733786
:1034D8000780137787083AC40F1000002380B704C9
:1034E8002380C7040F10000003C7F70213672700E3
:1034F800A387E70223800704A247F3A707800F10DA
:1035080000000545EFE09FA15936014781468147F4
:10351800054685451305407EEFE03FA537E40400E6
:103528003C446800514681458297B707C0A83EC809
:10353800B787E803938707D03ECA97F7FF1F93879B
:1035480047E83EC67C5868008297B25022544561CD
:103558008280411197650100938505341765010044
:103568001305C5BF06C6EF40217E17650100130588
:10357800254BEF40617DB240294541016F40110163
:1035880041119765010093856532176501001305A0
:10359800E5BC06C6EF40417B1765010013050547EA
:1035A800EF40817AB240294541016F40217E4111A7
:1035B80022C406C6834705002A849DC39765010077
:1035C8009385853417650100130545B9EF40C17728
:1035D8004C40176501001305E552EF40E1761DA048
:1035E80058411DE79765010093850532176501006D
:1035F8001305C5B6EF40417517650100130505525F
:10360800EF4081742244B240294541016F4001785E
:10361800A1679386D7036311D70297650100938545
:10362800A52E17650100130565B3EF40E171176515
:1036380001001305A54FE9B7ED07976501009385CC
:10364800A52C17650100130565B16319F700EF4054
:10365800A16F176501001305A54E5DB7EF40C16E58
:103668004C40176501001305A54F85BF41119765AB
:1036780001009385E52417650100130525AE06C6EC
:10368800EF40816CB240294541016F40217079714A
:1036980022D426D24AD02E842A898145B284480071
:1036A800714606D6EFE0EFE7970700209387C785B6
:1036B800DC4783D70700231421012313F100EF10FF
:1036C800D05B9547A305F1009307401F3EC6FD5701
:1036D8002305A100230AF100EF10706C2686A2854D
:1036E8004800EF10705CB250225492540259456160
:1036F8008280011122CC97650100938565252A8473
:1037080017650100130585A506CEEF40E163A28584
:10371800176501001305856BEF4001632945EF40EC
:10372800E166970700209387E7AC9843DC4341653F
:1037380021462C007D153EC63AC4913F9377F50F7C
:103748009DC72A8497650100938585201765010028
:103758001305C5A0EF40415F9375F40F176501008D
:1037680013050543EF40415E2945EF402162F240D1
:10377800624405618280411106C603C701089307A8
:10378800F00A631BF7009307F008894513850108C1
:103798002390F108EF20C069EF20A0798145370513
:1037A80004009707002023A307AA97070020239C5B
:1037B80007A897070020238907A8970700202392C6
:1037C80007A897070020239D07A697070020239B9B
:1037D80007A697070020239D07A6EF10900B014529
:1037E800EF20C06B976501009385051017650100F0
:1037F8001305C596EF404155176501001305053BB4
:10380800EF408154B240294541016F402158411190
:1038180022C406C626C293F715002E84638D070CB2
:10382800814617F6FF1F1306A66B8545170500206E
:103838000355C5A0EF70B03005C5976501009385A5
:10384800650B1765010013056591EF40E14F17659A
:1038580001001305E5A6EF40214F2945EF4001532C
:103868009765010093850509176501001305058F04
:10387800EF40814D176501001305C5A5EF40C14C08
:103888002945EF40A15017F5FF1F1305E5675C4573
:1038980005472390E700EFE04049976501009385CD
:1038A8006505176501001305658BEF40E14917654C
:1038B8000100130565A3EF4021492945EF40014D5B
:1038C800930710F82380F1089707002083D7C7963D
:1038D800A380F10813850108A18391452381F1088C
:1038E800A3810108EF20C05413451400B2402244BC
:1038F80092444101828093F72500D1CB170700201D
:103908000357679451C397060020938626949442E0
:10391800976701009387872B170600200346C692F6
:1039280081451385411FEF30D02EAA8431CD97658C
:1039380001009385A5031765010013052582EF4053
:10394800A140A685176501001305859BEF40C13F7F
:103958002945EF40A143970700202396078E930738
:1039680010F82380F1089707002083D7E78CA380FD
:10397800F108A1832381F10891458D47138501083A
:10398800A381F108EF20C04A1345240085B793F7B7
:103998004500B1CF97650100938545FD1755010096
:1039A8001305C57BEF40413A1765010013050597DC
:1039B800EF4081392945EF40613D930720F8238086
:1039C800F1089707002083D7C787A380F108A18350
:1039D8002381F1088547A381F108EF10503C138536
:1039E80001089145EF20C0441345440001B793F7FF
:1039F80085008DCF97650100938545F71755010020
:103A08001305C575EF40413417650100130545924C
:103A1800EF4081332945EF40613797070020239411
:103A28000782EF30F02B13458400C9B593F70501E1
:103A3800A5C38545170500200355A580EFF0107E26
:103A480097650100938585F21755010013050571E7
:103A5800EF40812F176501001305C58EEF40C12E79
:103A68002945EF40A132930730F82380F10897F7F2
:103A7800FF1F83D7077DA380F10813850108A18361
:103A88008D452381F108EF20A03A13450401B9BD03
:103A980093F70502B5C397650100938525ED175582
:103AA80001001305A56BEF40212A176501001305D6
:103AB800A58BEF4061292945EF40412D930740F838
:103AC8002380F10897F7FF1F83D78777A380F10832
:103AD800A1832381F1088547A381F10897F7FF1F88
:103AE80023900776EF10B02B138501089145EF203E
:103AF800203413450402DDBB93F70504CDC7976551
:103B080001009385A5E61755010013052565EF40CB
:103B1800A123176501001305A586EF40E122294579
:103B2800EF40C12683C701081307700A6388E704BA
:103B38001307800A6386E7061307600A6397E7029C
:103B4800930760F82380F10897F7FF1F83D7876FE3
:103B5800A380F108A1832381F1088547A385F10893
:103B6800B14513850108EF20A02CEF105023134511
:103B7800040497F7FF1F2397076C8DBB930770F812
:103B88002380F10897F7FF1F83D7C76BA380F1083D
:103B9800A1832381F1088547A382F1089945D1B70C
:103BA800930780F8F1BF93F705080145E38007D430
:103BB80097650100938585DB175501001305055AA4
:103BC800EF408118175501001305057DEF40C11717
:103BD8002945EF40A11B9307A0F82380F10897F728
:103BE800FF1F83D7E766A380F108A1832381F1082B
:103BF8008547A381F10897F7FF1F239B0764EF1000
:103C0800101A138501089145EF20802213450408F6
:103C1800F1B9411122C497650100938525D02A8402
:103C2800175501001305855306C6EF40E1114C40B6
:103C380017650100130585EAEF4001112945EF409A
:103C4800E114034704009307F00F6319F70297651F
:103C580001009385A5CC1755010013052550EF40A9
:103C6800A10E4C4017650100130545E8EF40C10D52
:103C78002244B240294541016F404111B2402244DB
:103C88004101828085CD411122C4175501001305D9
:103C9800E54C2E8497650100938545C306C6EF4021
:103CA800A10AA28517650100130585EFEF40C10938
:103CB8002244B240294541016F40410D82804111A3
:103CC80022C426C22E84AA84976501009385C5C0A4
:103CD800175501001305854806C6EF40E10629453A
:103CE800EF40C10A97F7FF1F239A975497F7FF1FD2
:103CF80023948754854785453705040017F7FF1F28
:103D0800231DF752EF10E0380545EF20201997F7EB
:103D1800FF1F9387671FDC4703D70700C167FD179D
:103D28006312F7022244B7E70400B240924403A3A7
:103D3800870517F5FF1F0345654F1306000A8545DC
:103D480041010283B2402244924441018280011120
:103D580022CC37E404005C5C06CE3546976501004A
:103D6800938545CD1765010013050528829701E95C
:103D78001755010013050543EF40C11101A097F73E
:103D8800FF1F9387A76F3EC4B7F507008567938722
:103D980007C0814617F6FF1F13068649E105194536
:103DA8003EC697E0FF1FE780A0717C44194697F54F
:103DB800FF1F9385E547138581188297340017F60E
:103DC800FF1F1306E64697650100938525E61765EC
:103DD8000100130525E7EF30403C2A840DC997659B
:103DE80001009385A5B71755010013052537EF3056
:103DF800B175A285176501001305C5C4EF30D174EC
:103E08002945EF30B178F240624405618280EF9035
:103E18004053176501001305E5B9EF204058EF60DE
:103E28008041EFF0706817F5FF1F1305A50AEFF042
:103E38005055176501001305E5B8EFF0B0682A84FE
:103E4800EF20B032EFB05006EF200108EF30704E8F
:103E5800EF30E011EFD0B06A97650100938505B0A7
:103E6800175501001305852F09C8EF30F16DA2859C
:103E780017650100130545BF51B7EF30F16C1765A1
:103E880001001305A5C0EF30316C2945EF301170E2
:103E9800EFD0504DEFA0007031C9854537050400BB
:103EA800EF10201F97650100938545AB175501005A
:103EB8001305C52AEF30516917650100130585BE42
:103EC800EF3091682945EF30716C97650100938553
:103ED800E5A81755010013056528EF30F166176549
:103EE8000100130565BEEF30316619BF81453705FE
:103EF8000400EF10001A97650100938525A6175551
:103F080001001305A525EF3031641765010013057D
:103F1800E5C9EF3071632945EF3051670145EF106E
:103F2800F07765B7411122C437E404008327041AE7
:103F380006C68297EF10D04F8327040817050000A4
:103F48001305258D829797F7FF1F2381A72E17F555
:103F5800FF1F130565FBEF105011D53BEFF02F88BD
:103F68002244B24017F5FFFF1305E57841016FF0D1
:103F7800AF8B411122C491462A84138601169D6590
:103F88002D4506C697E0FF1FE7808053B7F7070067
:103F980003C70701A5476313F70001A093060010A4
:103FA80001469D65254597E0FF1FE7806051238006
:103FB80081162244B2409146138601169D65294513
:103FC800410117E3FF1F6700A34FB7E70400117112
:103FD800FC47CED793890108A2DDCAD986DFA6DBC4
:103FE8002E8432892E86AA854E85829783C709003A
:103FF800130780029387E70793F7F70F6364F77453
:10400800175701001307871D8A07BA979C43BA9769
:1040180082878D479765010093858596175501001E
:104028001305C513630BF400EF3011521755010047
:1040380013050553EF305151FDA2EF30F1501755DC
:10404800010013056553EF3031502945EF30115405
:10405800930720F81146938501084A852380F108C3
:10406800A3810108EFF0AFE22A840DC5976501002E
:1040780093850591175501001305450EEF30D14C76
:10408800A285175501001305E552EF30F14B29457C
:10409800EF30D14F976501009385858E1755010044
:1040A8001305C50BEF30514A175501001305C551CB
:1040B800EF3091492945EF30714D4165930730FA4A
:1040C8000546938501087D152380F108EFF02FDC64
:1040D8002A840DC5976501009385858A17550100C7
:1040E8001305C507EF305146A28517550100130582
:1040F800654CEF3071452945EF305149B7E7040069
:10410800BC4F0566130606C8A14517F5FF1F0345F2
:10411800E5118297FE506E54DE544E59BE59116116
:10412800828091476301F402976501009385458574
:104138001755010013058502EF301141175501008D
:104148001305C54BC5BDB7E70400FC4F914517F5EE
:10415800FF1F0345A50D829797650100938545824A
:1041680017550100130585FFEF30113E1755010063
:104178001305854AEF30513D2945EF303141EF10A5
:1041880000429145E1A285476301F4029755010079
:104198009385057F17550100130545FCEF30D13A8B
:1041A800175501001305C54871B597F7FF1F239AE6
:1041B8002709B7E704000566BC4F130606C8C145C2
:1041C800A9B78D476301F402975501009385457B94
:1041D80017550100130585F8EF3011371755010001
:1041E8001305C54681BD930740F81146938501081C
:1041F8004A852380F108A3810108EFF04FC92A847A
:10420800E30A05F097550100938585771755010056
:104218001305C5F4EF305133A28517550100130576
:104228006539EF3071322945EF305136E5B59147A0
:10423800E31CF4F8B7E70400FC4F9305000217F5F8
:10424800FF1F0345A5FE8297975501009385457387
:1042580017550100130585F0EF30112F1755010090
:104268001305454001BF894763E18702975501005F
:104278009385057117550100130545EEEF30D12CD4
:10428800175501001305453F75B383C4210883C73B
:104298001108975501009385A56EA20417550100D2
:1042A8001305C5EBDD8CEF30312AA28517550100C7
:1042B8001305C53DEF305129C2042945EF30112DB2
:1042C800C1849305D4FF93960401C1824A8693F56D
:1042D800F50F13853108EF00505FE35D90E2930717
:1042E80050F82380F10883C7390022869385010896
:1042F80085074A85A381F108EFF06FB92A84E30B9B
:1043080005E0975501009385A5671755010013052A
:10431800E5E4EF307123A285176501001305458791
:1043280009B7894763E18702975501009385456579
:1043380017550100130585E2EF30112117550100CB
:1043480013058536C5B9EF108025A28513850108A8
:10435800EF10102EC1B38D476301F4029755010089
:104368009385056217550100130545DFEF30D11D10
:10437800175501001305053575B9B76602000146E2
:10438800B7750200054597E0FF1FE78060139307A4
:1043980060F82380F108A38101089307002623A26F
:1043A800F108E577938707212394F1083146A3851F
:1043B800A108938501084A8523850108EFF02FADF0
:1043C8002A84E30905D4975501009385655B175541
:1043D80001001305A5D8EF303117A2851755010044
:1043E8001305C52F3DBDB1476301F4029755010080
:1043F8009385055917550100130545D6EF30D1149B
:10440800175501001305452F35B1B7E70400FC4FD8
:104418009305000417F5FF1F034545E18297EF1048
:104428000018B14525B7914763E187029755010008
:104438009385055517550100130545D2EF30D11066
:10444800175501001305052DF5B683C4410883C728
:104458003108A204DD8C8E04B76702006D14BE9487
:104468002286A685175501001305052CEF30D10DBE
:10447800B7E70400FC4722869385510828008297F5
:1044880093160401C1823000A685094597E0FF1FF5
:10449800E78000032A8419C5175501001305852AEA
:1044A800EF30511F930770F81946938501084A8524
:1044B8002380F108A3828108EFF06F9D2A84E30B23
:1044C80005C4975501009385A54B175501001305A1
:1044D800E5C8EF307107A285175501001305852738
:1044E80089B399476301F4109755010093854549AD
:1044F80017550100130585C6EF3011051755010042
:104508001305C52605BE914763E18702975501004B
:104518009385054717550100130545C4EF30D102AF
:10452800175501001305052631B683C4410883C712
:104538003108A204DD8C8E04B76702006D14BE94A6
:104548002286A6851755010013050525EF30C17F82
:10455800B7E70400FC472286938551082800829714
:1045680093160401C1823000A6850D4597E0FF1F10
:10457800E78000F52A8419C517550100130585231E
:10458800EF305111930780F81946938501084A8541
:104598002380F108A3828108EFF06F8F2A84E30B50
:1045A80005B6975501009385A53D175501001305DC
:1045B800E5BAEF306179A285175501001305C520CA
:1045C8008DB199476301F402975501009385453BE6
:1045D80017550100130585B8EF300177175501000D
:1045E8001305052081BCB7E70400FC4F93050004C0
:1045F80017F5FF1F034585C38297EF00507A994549
:10460800B1B38D476301F40297550100938545378F
:1046180017550100130585B4EF30017317550100D4
:104628001305851D01BC175501001305E51DEF3065
:1046380071060145EFE0EFD20D45EFF09F93294554
:1046480097E0FF1FE78080D097E0FF1FE780A0C1B9
:10465800D1B499476301F402975501009385453217
:1046680017550100130585AFEF30016E175501008E
:104678001305451AC1B203C7510883C74108220769
:104688005D8F9166BA96C2061166C1821306F6EF6F
:104698008D476363D60297F7FF1F9387E7869C4B86
:1046A80003C631089386C70039C603D607005DCA1A
:1046B8008907E39CD7FE89471307A0F8114693851D
:1046C80001084A852380E108A381F108EFE03FFC57
:1046D8002A84E30105A4975501009385652A175597
:1046E80001001305A5A7EF302166A2851755010023
:1046F800130585133DB603D607006302E60A89074A
:10470800E39BF6FE8D474DBF91476302F402975530
:1047180001009385E52617550100130525A4EF3000
:10472800A162175501001305A5116FF0BF90B7E7F7
:104738000400FC4F9305000817F5FF1F034505AF5C
:10474800829735BC9755010093858523175501003D
:104758001305C5A0EF30415F175501001305C50FBC
:104768006FF05F8D2390E70017E5FF1F1305C579EC
:10477800EFD0405D975501009385852017550100BE
:104788001305C59DEF30415C175501001305C50D94
:10479800EF30815B2945EF30615F814731BF23905E
:1047A800070017E5FF1F13052576EFD0A059975589
:1047B80001009385E51C175501001305259AEF3074
:1047C800A158175501001305A50BD9B7411122C4EB
:1047D80006C6834705002A849DC397550100938523
:1047E80025151755010013056597EF30E1554C4025
:1047F800175501001305853EEF30015549A858416A
:10480800B707CF009387777D6316F70497550100A4
:10481800938505121755010013054594EF30C152D1
:104828001C448355C4008356E40003C6070017558B
:1048380001001305253CEF3021512945EF30015582
:104848000356E4008355C40008442244B2404101A1
:104858006FF0AFF7B707CC009387777D631FF70238
:10486800975501009385C50C175501001305058F51
:10487800EF30814D1C448356E4008355C40003C6C1
:104888000700175501001305E536EF30E14B2244C8
:10489800B240294541016F30614FB707CE00938779
:1048A800777D6302F70297550100938565081755D0
:1048B80001001305A58AEF3021494C401755010026
:1048C8001305052A15BFB240224441018280B7E78B
:1048D80004004111FC4726C2938401082E8606C6AF
:1048E80022C42E84AA852685829797550100938530
:1048F800E50A1755010013056586EF30E14483C5C5
:104908000108175501001305A5AAEF30E143294511
:10491800EF30C14783C704003D479387070693F7E5
:10492800F70F6360F76217570100130767958A0747
:10493800BA979C43BA9782879D476303F4029755B9
:1049480001009385A5051755010013052581EF3052
:10495800A13F17550100130525A6EF30E13E5DAADA
:1049680083C71108A5CF83D7410803D72108C207F9
:10497800D98F17F7FF1F232BF78C83C76400975530
:1049880001009385A501174501001305257D17F73B
:10499800FF1F230BF78AEF30213B97F7FF1F938701
:1049A800E78A8C4317F6FF1F0346068A175501004E
:1049B800130545A2EF3041392945EF30213DA38049
:1049C80001082244B2409244930700F82380F1087A
:1049D8009D451385010841016F108045EF20F03B8C
:1049E8002391A108935705012A842382F10893573C
:1049F80085010145A382F108EF20F03A2383A1083D
:104A080097550100938585F917450100130505752C
:104A1800EF30813303C66108A285175501001305DD
:104A2800E59C49BFCD476301F40297550100938582
:104A3800E5F61745010013056572EF30E1301755AB
:104A480001001305259C11BF37E404007C4441464E
:104A5800938511081385411F829783C7210903C7CE
:104A68001109A20703238405D98F17E7FF1F231C09
:104A7800F77C1306000A89452244B240924417E5A0
:104A8800FF1F0345A57A410102838D476301F402A4
:104A980097550100938585F0174501001305056CAE
:104AA800EF30812A17550100130585AB7DB503C486
:104AB800210883C7110897550100938525EE220424
:104AC80017450100130585695D8CEF30E127A28544
:104AD8001755010013058594EF3001272945EF305C
:104AE800E12A0D46938501082285EFE05FBAAA8482
:104AF8000DC997550100938565EA1745010013050F
:104B0800E565EF306124A685175501001305459228
:104B1800EF3081232244B2409244294541016F304D
:104B2800E12697E7FF1F239E8770B7E70400116609
:104B380003A38705130606E891453DBF8D4763012A
:104B4800F40297550100938565E5174501001305A3
:104B5800E560EF30611F17550100130525AFF5BB60
:104B680003C4210883C7110897550100938505E3FD
:104B78002204174501001305655E5D8CEF30C11CEA
:104B8800A285175501001305E58BEF30E11B294578
:104B9800EF30C11F0D46938501082285EFE03FAF36
:104BA800AA840DC197550100938545DF174501007B
:104BB8001305C55AEF304119A6851755010013058D
:104BC800A589B9B797E7FF1F239C8766B7E7040055
:104BD800116603A38705130606E89305000269BD5D
:104BE800894763E1870297550100938525DB1745BF
:104BF80001001305A556EF302115175501001305BF
:104C0800A5A7A1BB83C4210883C711089755010034
:104C18009385C5D8A2041745010013052554DD8CDA
:104C2800EF308112A6851755010013056584EF3012
:104C3800A1112945EF308115228693850108268523
:104C4800EFE0FFA42A84630D053097550100938592
:104C5800E5D41745010013056550EF30E10EA28534
:104C6800175501001305058265B58D476301F402E8
:104C780097550100938585D2174501001305054E08
:104C8800EF30810C175501001305C5A3F9B103C412
:104C9800210883C7110897550100938525D0220460
:104CA800174501001305854B5D8CEF30E109A2859E
:104CB800174501001305457EEF3001092945EF30FE
:104CC800E10C0D46938501082285EFE05F9CAA84DC
:104CD8000DC197550100938565CC17450100130553
:104CE800E547EF306106A685174501001305057CE9
:104CF80005B597E7FF1F23978754B7E704001166A8
:104D080003A38705130606E893050004B5B3914786
:104D180097550100938585C817450100130505447B
:104D280063E98700EF304102175501001305859E9E
:104D38002DB1EF306101A285174501001305857873
:104D4800EF3081002945EF30610483C4210883C70F
:104D58001108A204DD8C2286938501082685EFE0E0
:104D68001F932A8449C197550100938525C3174588
:104D780001001305A53EEF20317DA28517450100EE
:104D88001305857571B3914763E187029755010053
:104D98009385C5C0174501001305453CEF20D17A1E
:104DA800175501001305059E4DBE83C4210883C70E
:104DB8001108A204DD8C2286938501082685EFE080
:104DC8001F8D2A840DC197550100938525BD174570
:104DD80001001305A538EF203177A285174501009A
:104DE8001305C57035B397E7FF1F239D974431B767
:104DF8008D476301F40297550100938525BA17453D
:104E080001001305A535EF2031741755010013056E
:104E1800A59EA1B683C72108A20703C511080D46A0
:104E2800938501085D8DEFE09F862A84630A051249
:104E380097550100938585B617450100130505327E
:104E4800EF209170A285174501001305656BC9B164
:104E580099476301F40297550100938525B41745D6
:104E680001001305A52FEF20316E1755010013051A
:104E7800659AE5B403C4210883C711089755010052
:104E88009385C5B12204174501001305252D5D8CB6
:104E9800EF20916BA2851745010013056567EF2088
:104EA800B16A2945EF20916E19469385010822853C
:104EB800EFE0EFFDAA840DC197550100938505AE7B
:104EC8001745010013058529EF201168A6851745A8
:104ED80001001305E5642DB997E7FF1F239A87366C
:104EE800B7E70400116603A38705130606E89305D0
:104EF800000859B6854797550100938525AA174597
:104F080001001305A5256309F400EF20F163174597
:104F180001001305256291B4EF20116317450100C4
:104F28001305C562EF2051622945EF2031662244FE
:104F3800B240924497E7FF1F2397073041016F2043
:104F4800205A97550100938565A51745010013055B
:104F5800E520EF20715F175501001305E58FF5BABD
:104F6800B2402244924441018280411122C437E474
:104F780004005C5C06C6354697550100938585ABF1
:104F88001755010013054506829701E917550100D9
:104F9800130545C8EF20117001A08327041C8297D0
:104FA8002A840545EF804039EF104135EF10811311
:104FB800EF70C06D2285B2402244410182804111C8
:104FC8001305800406C697D0FF1FE780C00D37176A
:104FD80000408327870A8D451305002093E70720A3
:104FE8002324F70AEFD03F9FEFD05FC4B7E7040050
:104FF800C85BEF20316A175501001305E5FEEF2065
:105008007169EFE02FABEFE0CFC38537EFE09FF199
:1050180097D0FF1FE780003E01458280B7F7070061
:1050280003C70701A547AE866316F70093974501A6
:1050380091C301A0AA850146254517D3FF1F670024
:1050480023484111B2862E86AA852D4506C697D0DB
:10505800FF1FE780E046B240014541018280930787
:10506800000463E6C7021D71A2CC2A84080886CE14
:1050780032C6EF201142B2461008A285294597D0C2
:10508800FF1FE780E043F64066442561828039557A
:105098008280411126C2AE848D4522C406C62A8468
:1050A800EFD0DF9DB717004099C803A5C70C418D05
:1050B80023A6A70CB240224492444101828003A552
:1050C800870C418D23A4A70CF5B783470500034738
:1050D8001500A207D98FC2076177C1871307272058
:1050E8006397E70083452500370504005DB7828094
:1050F80097E7FF1F9387071618429C4383D64500FE
:105108000345070083C5C700035646006396A500FC
:1051180083D5E700638DD502011106CE2386A7004B
:105128002397D700B705CF00DC4B9385757D05071E
:105138007D162EC2230001003AC42316C10023178E
:10514800D10099C30A858297F240056182808280E6
:10515800DC4DDC4B81CFB7E70400904503A38705FE
:10516800914517E5FF1F0345250F028382806D7166
:105178003C083EC6B707E500232291103EC8AA8422
:105188003C083285232611103ECA2324811023208F
:1051980021112E89EF20103A2A8497550100938512
:1051A800A5AF17450100130565FBEF20F139A2856E
:1051B80017550100130545BEEF2011392945EF2089
:1051C800F13CB705CB009385757D6800EF10C016DC
:1051D800A2856800EF20B02B014781467000CA8580
:1051E8002685EF10A03515C52A84975501009385AB
:1051F800A5AA17450100130565F6EF20F134A2852D
:1052080017550100130505BAEF2011342945EF2081
:10521800F1378320C110032481108324411003290E
:1052280001105161828097E7FF1F9387A7021842F8
:105238009C43797122D406D60348070083C8070126
:105248002A8483D64500035546006396080183D80F
:105258002701638DD8022388070105072399D70002
:105268003708CC00DC4B1308787D3ACC1307F5FFE0
:1052780042CA23080100231EE100231FD10099C759
:10528800080832C62EC482973246A2452285C53503
:10529800B2502254456182806D713C083EC0B70708
:1052A800E5003EC23C083EC4232611102324811089
:1052B800232291102317010023180100231901004C
:1052C800231A0100231B010097E7FF1F83D7C7C7D5
:1052D80099E3C167FD172316F10097E7FF1F83D7EE
:1052E800C7C691EB97E7FF1F9387C7F69C439C437C
:1052F800DC4783D7070017E4FF1F1304E4C4584CA6
:105308002317F10083574400484B2318F10005ED9B
:10531800975501009385459F17450100130505E43E
:10532800EF209122175501001305459FEF20D12149
:105338002945EF20B1258320C1100324811083243F
:1053480041105161828097E7FF1F83C757C089EBDF
:10535800B7E70400BC5782975C4C23AA0700E1BF5B
:10536800FD1797E6FF1FA384F6BE03560701834780
:1053780004014C470A85230BF100EF20700F97E7D3
:10538800FF1F938727ED9C430147814688430A8680
:105398006C00EF10A01AAA841DC9975501009385C7
:1053A800A59617450100130565DBEF20F119A685C1
:1053B8001755010013054597EF2011192945EF20CE
:1053C800F11C584CB7E70400BC57484B69B797E73E
:1053D800FF1F83C7D7B7F5D7B7E70400BC4F104402
:1053E800854517E5FF1F034525E78297A9B75C4E5A
:1053F800DC4BA9CBA1C9411122C4174501001305F3
:10540800E5D52E84975501009385458E06C6EF2075
:10541800B113A2851755010013054593EF20D1124A
:105428002945EF20B116B7E704002244B24003A390
:10543800870517E5FF1F034525E21306400691453A
:10544800410102838280411122C417E4FF1F130423
:10545800A4AD1C4C06C689C7DC4399C34C48829747
:10546800584CB7E70400BC57484B82975C4CB24095
:10547800224423AA07004101828017E7FF1F130770
:1054880087D6834707009306F00B850793F7F70F36
:1054980063E9F60097E6FF1F2387F6D40345070064
:1054A8008280930700F8FDB7835745006386070E8F
:1054B80001114AC817E9FF1F130909A952C4032A91
:1054C800C90106CE22CC03274A0126CA4EC656C2B7
:1054D800F15721EF1307D00DFD576368C704B7E9EB
:1054E800040083A709072A84130586004205418121
:1054F800B284AE8A8297232AAA000325C9015C498F
:105508009DEF974501009385657C174501001305BC
:10551800E5C4EF207103175501001305658BEF20D3
:10552800B1022945EF209106DD57F2406244D2448A
:105538004249B249224A924A3E8505618280938750
:105548004400B705CF002319F5009385757D310513
:10555800EF00905E0325C901834564003105EF2003
:1055680000730325C9012686D6853105EF204070D2
:105578007146A2854A85EF20C171504419CA83A794
:105588008905854517E5FF1F034505CD82978147A6
:1055980069BFEFF07FD0E5BFFD573E85828041119E
:1055A80026C297E4FF1F9384249AD84C22C437E478
:1055B80004003C54484B06C68297DC4C0323C405C0
:1055C8002244B240924423AA070017E5FF1F03456F
:1055D800A5C8854541010283411126C297E4FF1FF2
:1055E800938444C79C4006C622C44AC0C1CBDC434E
:1055F800D1C75CC12300B5002A8497450100938573
:10560800256817450100130565B5EF20E1732945A5
:10561800EF20C1779C4023A4070023A2070097E747
:10562800FF1F93876790DC4FDC4B99C32955213DB9
:1056380097E7FF1F93874791DC4FDC4B91C3853772
:1056480037E904008327C905894517E5FF1F034586
:10565800A5C082978327C905914517E5FF1F034514
:10566800A5BF82979C4003A34701630903002285D5
:105678002244B2409244024941010283B24022448A
:1056880092440249410182800111328506CE22CC22
:1056980026CA2E84EF20006AAA84974501009385C4
:1056A800656117450100130565ABEF20E169030744
:1056B80084000356640083554400A68617450100FC
:1056C8001305C56AEF2041682945EF20216C97E74B
:1056D800FF1F83C7C785639897000145EFF0BFD6C2
:1056E80081450A85D53DF2406244D24405618280F5
:1056F8006D7123248110232611102322911093F712
:1057080045002E84638507123C083EC0B707E500B4
:105718003EC23C083EC42317010023180100231988
:105728000100231A0100231B010097D7FF1F83D70D
:10573800A77F99E3C167FD172316F10097D7FF1FCD
:1057480083D7A77E91EB97E7FF1F9387A7B09C436A
:105758009C43DC4783D7070017D7FF1F1307C77C75
:105768002317F100544F835747002318F100DC4AF0
:1057780095EF9745010093852558174501001305B6
:10578800E59DEF20615C1745010013052559EF20C1
:10579800A15B2945EF20815F134544008320C11098
:1057A80003248110832441105161828097D7FF1F01
:1057B80083C7F7772555ADCBFD1717D6FF1FA3086D
:1057C800F67603D6060183470701CC460A85230BE4
:1057D800F100EF20E04997E7FF1F9387A7A79C43B5
:1057E80017D7FF1F13074774975601009386C61BE8
:1057F80088430A866C00EF007054AA8451DD9745EF
:1058080001009385654F1745010013052595EF2085
:10581800A153A6851745010013050551EF20C15274
:105828002945EF20A1562685EFF0FFC1B5B793F7BC
:1058380025009DC3B7E70400BC47414681452808B9
:1058480082972555EFF03FC028089305F00FEFF039
:10585800BFD81345240099B793F7150001459DDF7C
:10586800EFF09FA31345140015BF5C4D411106C608
:1058780088C317E7FF1F232FF79CB7E7040083A708
:105888000708170500001305E5E68297B24097E779
:10589800FF1F2383A79C0145410182802A86B30507
:1058A800B04017450100130565606F20E1494111BB
:1058B8009397050122C406C626C2C1872E8463D4E5
:1058C8000702B7E40400FC5417E5FF1F03450592DF
:1058D800829719C1BC5482972165218DB240224418
:1058E80092444101828093F715008DC7B7E7040001
:1058F80083A7471A17D6FF1F1306066797050020C8
:10590800938545F417E5FF1F0345458E8297134598
:105918001400E9B793F7250099CFB7E70400BC4F07
:1059280013060064894517E5FF1F0345258C8297F8
:105938001345240065B793F785009DC7B7E70400B2
:1059480003A8871A1307401F97E7FF1F83C7078A13
:10595800814613064006994517E5FF1F03558590B4
:105968000298134584009DBF93F745000145BDD7B4
:10597800B7E4040083A7041817E5FF1F0355858EB5
:105988008297BC4C0566130606C8914517E5FF1FAC
:105998000345C58582971345440089B703574500D9
:1059A800011106CE22CC97E7FF1F83D7A78B631B75
:1059B800F704C167F91717E7FF1F2325F78A37E4AC
:1059C800040097E7FF1F23A1078A7C4C894517E548
:1059D800FF1F0345A58182977C4C914517E5FF1F62
:1059E8000345C58082978547A307F100832744179D
:1059F8001306F1008545130550308297F240624442
:105A0800056182801745010013058547EF2081480D
:105A1800F5B77D15954763E6A718174701001307E3
:105A2800A7440A053A951C41011122CC06CE26CA84
:105A3800BA972E848287174501001305A548EF20E1
:105A4800614501AA03C725009947631CF7002E8505
:105A5800B13783456400174501001305A547EF20BA
:105A6800A12E174501001305A548D1BF03C725007E
:105A780095476317F702C16717D7FF1F0357877E3C
:105A8800F91703D5A5006302F702B7E7040083A757
:105A9800C71782971745010013058546EF20813FF8
:105AA800174501001305454859BF97D7FF1F239B8A
:105AB800A77A83D7E500B7E40400096617D7FF1F64
:105AC8002313F77A83D705011306069017D5FF1F0E
:105AD8000345C57117D7FF1F2318F77883D725010A
:105AE800A14517D7FF1F2312F778BC4C8297BC4CEF
:105AF8000566130606C8914517D5FF1F0345056FB0
:105B080082970356E4008355A40017450100130546
:105B18006540EF20612369B71745010013058541EA
:105B280039BF83C525009147639AF5028547174514
:105B380001001305A541A307F100EF20A135B7E740
:105B4800040083A747171306F10085451305503055
:105B58008297F2406244D244056182809947639DEE
:105B6800F5002285253D834564001745010013058E
:105B78006536EF20611DF1BF9547639FF5008347A8
:105B88001400174501001305653CE39A07EA174519
:105B980001001305653D65B5174501001305453D31
:105BA800C9BF8280797106D622D426D209C989470D
:105BB8006304F502B250225492544561828017451D
:105BC80001001305A53B2E84B284EF20A12CA685E5
:105BD8002285EFE0DFCFF9BFB7E70400FC472800D4
:105BE8008297174501001305253BEF20A12AD9B755
:105BF80097D7FF1F83D707676396A70217D7FF1F9B
:105C08002313B76617D7FF1F2310C76617D7FF1FC1
:105C1800231DD7642E86174501001305A527BE85C9
:105C28006F20811217450100130585256F208126F5
:105C3800130101DD2324812237E4040083270408AB
:105C48002326112223229122232021231705000035
:105C5800130525C68297854417D9FF1F13090959CB
:105C680099472300A900230C91002318F1029307F8
:105C780040062314F112832744173008854513057D
:105C8800503082978327441717D6FF1F1306063113
:105C9800B1451305703082978327441717D6FF1F25
:105CA8001306462DB54513056030829783274417A0
:105CB800101889451305103182978327441730122D
:105CC80089451305203182978327441593050005DC
:105CD8000D45829783274415930500051145829742
:105CE8002306910023089100230C9100232401121C
:105CF800230801028327841630129145130570404A
:105D08008297832784167000854513050040829783
:105D1800832784161008854513051040829783272A
:105D2800841610188545130520408297832784160A
:105D380030088545130550408297832704157D5503
:105D48008297832744137D5582977D55EFD02F91F5
:105D58008327841417D6FF1F1306C622D54501458D
:105D680082971306700F81450818EFB09FFB89478B
:105D7800554681452808230891022306F100EFB013
:105D88005FFA8D471306700F81452812230CF10026
:105D9800EFB03FF991472304F11297D7FF1F93877C
:105DA800E745984383C7470010189305700F0145CE
:105DB8003AC8230AF100EFD0AF9170008545054538
:105DC800EFD00F913008D5450945EFD06F903012CC
:105DD8009305700F0D45EFD0AF8F1008954511450D
:105DE800EFD00F8FC16717D7FF1F1307A747F91702
:105DF8001CC32322070017D5FF1F1305E53EEFD06C
:105E08000F8C8327C41D17D5FF1F130525458297BF
:105E18003C4803450900854582978320C122032415
:105E28008122832441220329012213010123828034
:105E38000111C16726CA06CEAA8422CC17D5FF1F36
:105E480003554542F9176306F50437E40400832730
:105E580084122E862315B10001478146ED458297AD
:105E68007C440356A1002AC6A68582972C0017D524
:105E7800FF1F0355253FEFD00F9101CD17450100B6
:105E880013058500EF2001018327C412ED45280082
:105E98008297F2406244D24405618280011106CEA5
:105EA80022CC2DC9854717D7FF1FA30AF70C97D710
:105EB800FF1F2387070C37E4040083278417930503
:105EC800F1001305503082978347F100A9CBA3074F
:105ED8000100832744171306F10085451305503048
:105EE80082978327441717D6FF1F1306A608B545C0
:105EF8001305603082978547A307F100832744176D
:105F08001306F1008545130550308297F24062442C
:105F18000561828097D7FF1FA383070649BF8327A0
:105F2800441717D6FF1F1306E604B545130560305E
:105F3800E9BFC16717D5FF1F0355C532F9176307B6
:105F4800F500B7E7040003A3C71702838280EFB206
:105F5800BFD82A8408452E89B28909C900C1970586
:105F68000000938525746105EF00E10881447D5A9E
:105F7800EF10200963C3A4048144EF10800963C6AD
:105F8800A404970700209387A78C9C43DC47B3079A
:105F9800F94091872302F400638109048327C9002B
:105FA800B307F4409587A302F4001C4C89C79C47AB
:105FB80099C3228582976FB07FD55C4413971400EC
:105FC8008504BA972390470165B71C4813971400B6
:105FD8008504BA97239007004DB7832789000547A2
:105FE800B307F4409587A302F40083570400638E37
:105FF800E7028DC309476384E7040D47E397E7FA8F
:10600800974701009387074D1CCC9747010093875A
:10601800674D11A897470100938747131CCC9747F2
:1060280001009387A7135CC849B797470100938776
:10603800E7FE1CCC97470100938747FFEDB79747CA
:1060480001009387E74D1CCC974701009387474E83
:10605800D9BF85E1EFB2FFC90046184483479400D1
:1060680075839D8B6315F700EF00B01B48C46FB0B4
:106078009FCA8280EFB25FC613893500C1644209A6
:106088004111AA890144F11413590901054A2EC680
:10609800EF003077B2456346A400014541016FB077
:1060A800FFC683A7090013171400BA9783D7070000
:1060B8006388B7006394970063742A010504C1BF1D
:1060C8000545E9BFEFB27FC0AA892E89328BB68415
:1060D8003A8ABE8AEF80004C4DC12685EF103035D4
:1060E8008D4763E5A7007D556FB0BFC183DB4400D2
:1060F800EF0030772A84EF0010789307740031445A
:106108003305850263C5A702EF00B075EF0070750F
:106118002A84EF00507693077400314433058502D2
:1061280063CDA702EF00F0739307450019A8EF00AD
:106138009074330585021307F0179307C017E357C8
:10614800A7FC2D55E3C277FB63000B02D686528667
:10615800A6854A85EFE0706A41BFEF00D07133052C
:1061680085029307C5FFF1BF832749001385C9003E
:1061780083D52700013779F9BDB76955B5B797F7C2
:10618800FF1F2399A76C97F7FF1F9387676C9043AE
:1061980081470C463307F500420741836393B700F4
:1061A80082805446139847008507C2962390E600DC
:1061B800D5B797F7FF1F9387A7699C4303C5870047
:1061C800828017F5FF1F0355E5688280EFB27FB222
:1061D800C1671387D7FF6307E5026368A700F11754
:1061E800630EF50001456FB01FB31387E7FF630E19
:1061F800E500FD171D8D13351500F5B7EF40203C60
:106208007D15D5BFEF40A019E5BFEF400018CDBF01
:10621800EFB23FAE4111AA8401442EC6EF00705F71
:10622800B2456346A400014541016FB0DFAE9C480A
:10623800131514003E9583570500E387B7FE050440
:10624800E9BF03485500814693F7F60F63E5070158
:1062580081473E858280584593975600BA9703D761
:1062680027006316B70003D70700E304C7FE8506B7
:10627800E1BF8346450001479377F70F63E4D700F2
:10628800814711A81C45131657000507B29703D676
:106298000700E313B6FE3E858280EFB2FFA3931793
:1062A8000501C18797FAFF1F938A8A5A6353F0083A
:1062B80083A70A00C0479C4703570400198D42056D
:1062C80041816366F500014422856FB03FA4120541
:1062D8002A94DDBFDC4713944900014A3E94834762
:1062E80044006341FA02014A834754006346FA02B4
:1062F8008509C20993D9090183A70A009847E3EBE6
:10630800E9FCD1B71C4413195A00A6853E994A8561
:10631800013709ED050AE1B75C4413195A00A6854F
:106328003E994A85F53519E1050A7DBFE30209FC66
:1063380061BFAA848149C9B7EFB2BF9B1C452A84B3
:1063480081E79307C5001CC51C44231204001CC028
:106358009307F00F63E9B70093F5F50F2285EF1067
:1063680010136FB05F9B93940501C167C18063F7F9
:10637800F500A6852285EF103015E5B7C18193F5A4
:10638800F50F2285EF10B010A6852285EF10701149
:10639800C9BF97F7FF1F9387A74B884382801C4587
:1063A80099C797F7FF1F23A5A74A014582807D5506
:1063B800828097F7FF1F9387A74998438347450033
:1063C800484792073E958280EFB2BF9261710045BF
:1063D8001C183EC6B70780013EC81C183ECA835722
:1063E800440002CE02D002CC231EF1008347840071
:1063F8002A8902D22301F1023C083ED402D6553F35
:10640800835705002316F102EF30F06A2307A10233
:106418005C4003556400F18313F717008347F102CA
:1064280052055181F99BD98FA307F102EFE0502E55
:1064380039C5AA8403550500EF80A01683D7040048
:106448002AD26800231CF10083D72400231DF10001
:106458001C4803D647008C43EF1090018347B400D3
:10646800CA86174601001306E6B48117A305F4008F
:106478006C004810EFE070385D616FB0DF8921551E
:10648800E5BF1C45B1CF03C5A70089461357650072
:10649800630BD7028D46630ED70285466300D70289
:1064A800130740063305E50203C7B700418B15CB38
:1064B80083C7B700BD8B3355F54082801375F5034C
:1064C8001307803EC5B709671375F50313070771EE
:1064D800D1BF372709001375F5031307077CD9B710
:1064E80001458280EFB2FF8003A985006304090497
:1064F8008347B900AE8493F7070E91CF03459900FF
:10650800930520030D810505B305B502884461058F
:10651800EFF0903A05A02E85AD372A8401CD1123DE
:106528008325C900B307B54063F887002E94B305E7
:10653800A440E9FD6FB02FFE8545C9BFEFB26FFBE0
:106548002A8403D50500011132C636C43AC22EC0CA
:1065580002CA02CC02CEEF80C00482452ACA228534
:106568002ECCEFF01FE503570500231EE100EF30A6
:106578009054A24632469247230FA10036874C0812
:10658800B28622850146EFF0FFB305616FB0AFF820
:10659800EFB22FF661711C183EC6B70780013EC8DE
:1065A8001C183ECA3C0800453ED4AA8402CC02CE40
:1065B80002D002D202D6EFF0DFDF8357050035594B
:1065C8002316F102EF30304F2307A10209C4835785
:1065D800440091E721594A855D616FB0CFF30355B7
:1065E800640052055181EFE0B0122A8965D58347CE
:1065F800B40093F7070E89C713058401EFF0502DF7
:1066080083574400231EF100834784002301F102CD
:106618005C4003550900D98313F707088347110223
:10662800231CA10093F7F707D98FA300F102835722
:106638002900231DF1005C40F18313F717008347FD
:10664800F102F99BD98FA307F102EF7090752AD256
:1066580051D1834794006800139757008347B400CB
:10666800FD8BD98FA305F4001C4803D647008C4343
:10667800EF100060A687174701001307A79374005F
:1066880005464C102685EFF0FFA32A8929D58347B4
:10669800B400A685FD8BA305F400EFF0BFE425BF89
:1066A800EFB22FE5832485FE2A8441112685EFF079
:1066B8005FDD834734FF93F7070E9DC32AC62685FF
:1066C800EFF09FD019C9834734FFB245FD8BA3096A
:1066D800F4FE81C52285EFF0301E41016FB0AFE3B3
:1066E8006DDD8327C4FF2685829765F9834734FFCC
:1066F80093F7070E81C72285EFF0901D032584FECE
:10670800EFF01FE9D9BFEFB2CFDB9C4141112A89D5
:1067180003C7070089472E8493566700638CF602E7
:106728000D466382C6049307F0076302F7022E85BD
:10673800EF104060AA848149C16B130C490097F798
:10674800FF1F9387E7109C43984763ECE9024101D8
:106758006FB0EFDA03D745008547E3FAE7FE2E85E9
:10676800EF102061C1BF03D74500E3F2E7FE2E8595
:10677800EF10405CAA842285EF10205DC204C98C0A
:106788005DBFDC470355A900139A49003E9A931749
:106798000501C187635DF00083570A006395A7026E
:1067A80063E574038327CA00034D5A001DA0A1673F
:1067B8002167A98F1307F7EFE374F7FE63950900C4
:1067C800EFF0DFA071FD85099DBF83278A00034D87
:1067D8004A00835DA90003576900216A138BC7002B
:1067E8003AC6814A33CA4D01631E5D0197F7FF1F00
:1067F800938787069C43E1DBA286628681452685CE
:106808008297D1B7A1679387F7EF930C4BFF63F09B
:106818004703B2455A85EFF0FF8519CD03278B0052
:10682800104719CA10436380C4023107D5BFEE85EB
:106838006685EFF0FF9D71FD93861A0093FAF60FB7
:10684800130B0B0255B7835644005C43E3EDF6F691
:1068580022853AC6EF10003DA1679387D7042A8A9C
:10686800035D4400324763E897008347D90093E704
:1068780007F8A306F9001C4766852286E2858297F9
:10688800C1670844FD17337AFA00529508C02312ED
:10689800A40115BF97F7FF1F938787FB984381478C
:1068A80015C31447814763FFD500939745004C47AC
:1068B800BE9519C903C7550081476375E600DC45D5
:1068C8001606B2973E85828003C745008147E37B61
:1068D800E6FE16069C45F5B7EFB20FC0AA892E8AC8
:1068E800814497FAFF1F938AAAF683A70A0098475C
:1068F80063E4E4006FB08FC1DC471394440001499E
:106908003E9413BB140083474400634BF9000149CC
:1069180013BB140083475400634FF9008504F1B793
:106928000844931759005287DA860146A2853E9596
:1069380082990509C9BF4844931759005287DA86D6
:106948000546A2853E9582990509E9B7EFB26FBA67
:10695800814517F5FFFF1305C55F97F7FF1F239BB9
:1069680007EEEFF07FF76FB00FBB97F7FF1F938726
:1069780027EE9C4381CFEFB2CFB7814517F5FFFFD4
:106988001305255DEFF05FF56FB0EFB88280EFB2C9
:10699800AFB437E404008327841241112315E100C2
:1069A800AE893289368A3A8681460147ED45AA84FE
:1069B80082972AC621C50356A100D285EF10612D02
:1069C8008327C413CE8526858297058915C5832715
:1069D800440D2314210101462C00268582972A8420
:1069E80001C9B7E7040083A7C712ED4528008297BD
:1069F800228541016FB08FB14944E5B76554CDBFD9
:106A08005C41FD175CC18280EFB2AFAEB7E704000E
:106A1800FC5F829795473305F50281450D816FB07C
:106A28008FAFEFB20FADB7E70400FC5F82979547D1
:106A38003305F5020D816FB00FAEEFB28FABB7E73C
:106A4800040083A7870B0355050082976FB0AFAC8E
:106A5800EFB22FAA035505003287AE8617C6FF1F6F
:106A68000356665997F5FF1F938545DFEFF03FF210
:106A78006FB06FAAEFB2EFA7B7E7040083A7C717F5
:106A880082976FB04FA9EFB2CFA6B7E7040083A7EC
:106A9800871397F5FF1F938565DC829701456FB0D3
:106AA8008FA7EFB20FA5B7E7040083A7C71F8145DB
:106AB80017C5FF1F0355255082976FB0CFA5EFB2BA
:106AC8004FA3B7E7040083A7871397F5FF1F9385A4
