:040000006F00C07855
:10000400000000000000000090000020AA02002070
:10001400A9BDF9F5900000200000000000000000D8
:10002400900000209000002000000000000000006C
:10003400900000200000000090000020000000005C
:1000440090000020900000209000002090000020EC
:10005400900000209000002090000020000000008C
:1000640090000020900000209000002090000020CC
:1000740090000020900000209000002090000020BC
:1000840090000020900000209000002090000020AC
:1000940001A0B7F707000111944B13078008F33749
:1000A400078093F787083EC20F100000B71700407F
:1000B4001308700523800705930580FA2380B7048D
:1000C4000F10000003C6B7041376F60DA385C7040A
:1000D400238007041246732606800F10000013764F
:1000E400050255CEF336078093F6860836C40F1002
:1000F4000000238007052380B7040F100000B70613
:1001040014007D89558D88C701000100010001009C
:1001140023800704A246F3A606800F10000073375D
:100124000780137787083AC60F100000238007055D
:100134002380B7040F1000000F1000003727004081
:1001440093061005A303D78023800704B247F3A7BF
:1001540007800F10000093078008F3B7078093F718
:1001640087083ECE0F100000B71700401307700534
:100174002380E704130780FA2380E7040F100000AC
:1001840003C7B70413670708A385E704238007049C
:10019400F247F3A707800F100000056182801376F1
:1001A400050459C2733607801376860832C80F10C7
:1001B4000000238007052380B7040F1000003706D2
:1001C4001400130606047D89518D88C701000100BF
:1001D40001000100238007044246732606800F10A5
:1001E400000073370780137787083ACA0F1000009E
:1001F400238007052380B7040F100000A54793F65A
:10020400F60F639EF600B727004013073005A3835B
:10021400E780B717004023800704D2470DBFB727F4
:10022400004013072005E5B7733707801377870865
:100234003ACC0F100000238007052380B7040F1069
:10024400000098471367070C98C723800704E24708
:10025400FDBD0111814601468145114506CE7D2A29
:1002640093078008F3B7078093F787083EC60F10FB
:100274000000B7170040130770052380E704130735
:1002840080FA2380E7040F10000003C76704136794
:1002940017002383E70423800704B247F3A70780EA
:1002A4000F100000F2400561828041118146014631
:1002B40081451145A52213078008F337078093F77A
:1002C40087083EC40F100000B717004013067005DE
:1002D4002380C704930680FA2380D7040F100000FC
:1002E400FD552396B70223800704A245F3A5058094
:1002F4000F10000073370780137787083AC60F1072
:1003040000002380C7042380D7040F10000003C714
:100314006704136717002383E70423800704B247A5
:10032400F3A707800F10000001A0BD473305F502B5
:1003340001007D1575FD8280411122C426C206C6C6
:10034400AA84014463179400B240224492444101B8
:10035400828005041305803E4204C13F4180DDB71D
:100364002303048015472303E48001002302A480AF
:10037400828083076480E3CE07FE230304808280A7
:1003840083076480E3CE07FE0345448082808307AD
:100394006480E3CE07FE2302A4808280411126C438
:1003A4004AC24EC006C61377F50BAD47AA892E89FB
:1003B40095446306F70019456537653F8D444E85BE
:1003C4004537FD59FD1463983401B240A2441249E3
:1003D400824941018280135509011375F50F453F88
:1003E4002209CDB7011126CC06CEB7040800513737
:1003F4001545BD37713769372AC6A53F324593770E
:10040400150089EB136515001375F50FF240E244EE
:1004140005618280FD14E9FC0145CDBF397126DCFC
:100424004ADA4ED852D656D45AD25ED006DE62CEBE
:1004340066CCB7E700E07D5783AA070022C603AA6B
:10044400470023A0E71823A2E718B71700401307B3
:1004540070052380E704130780FA2380E70483C729
:100464004704930B75FFB684E20793FBFB0F8546A5
:10047400AA892E8B328937240040E187015763FA19
:1004840076016308D5008946130700026313D5007B
:100494000157D98F93F7F70FB71C00402382FC0450
:1004A40011472303E4801305F00F5D3D094CD1355A
:1004B400636D7C11B7050700DA9537870700795516
:1004C40063F2E504B3879500636EF702370B080007
:1004D400A94733EB65016399F90689E48144513DE9
:1004E40026850DA0DA850945553D05090345F9FF23
:1004F400FD14050B693D81C49377FB0FFDF7DD35D2
:1005040069FD7D55B7170040130770052380E70484
:10051400130780FA2380E70403C74704418B23822F
:10052400E704F250B7E700E023A0571123A24711D4
:10053400E25432445259C259325AA25A125B825B73
:10054400724CE24C21618280A5476395F906856966
:100554001309F00FB3069900B3742B01B694134931
:10056400F9FFB3749900856B33796901416B938703
:10057400F9FFB3F7270199E363FC340193D94900E8
:10058400C147E3E637FF99BF0569C1697D19D9B74A
:100594001305800D638869011305000263847901E2
:1005A40013051008CA85DD3B353D21DD4E99B38422
:1005B4003441D9B7DA852D45D533CA94E30099F28D
:1005C40005097D3BA30FA9FED5BF9387F9FF93F7D8
:1005D400F70F6361FC0C83C71C0413073008631F07
:1005E400F70437070800636BEB04B3079B00B706F7
:1005F400100063F5D704334BEB0089476393F90686
:100604008980D549E38C04ECDA850945413B11091D
:100614000327C9FF91472320E48003076480E34E46
:1006240007FE23033481FD17EDFBFD14110B81C478
:100634009377FB0FE9FF7D3371F5E1B5B717004000
:1006440003C75704B70708001377070219E3B787EE
:1006540007007955E378FBEA33079B00E3FFE7F8EB
:1006640055B58547E382F9F2DA852D45053B938933
:10067400F4FFE38504E6293393F7390091EB8326ED
:1006840004800327090093074900E39AE6E43E89BE
:10069400CE84F1BFB5476396F9001305900BC931B9
:1006A40035BDB1471305B00AE38BF9FE9947639151
:1006B400F904B7050800B365BB002D45C531814475
:1006C4008D4BA149753963967401832704802320D7
:1006D400F9008504E39834FF8327048013172B0162
:1006E400635507002312F900D5BB2322F900FDB39B
:1006F4009D476399F90281451305B0044531BD4412
:100704002320090023220900FD599D3993F7740021
:10071400CA9703C70700FD14398D2380A700E39609
:1007240034FF6DBBA1476392F9046D398144630DB5
:100734000B008D479304C0036308FB00930400057A
:1007440063048B01930440041375C507E30895D82B
:100754001945393139390545213126850D39094580
:100764003D314931E31C05D669BB91476399F900D2
:1007740013056006F536F53E130590090DB7E38FB2
:0807840009D4F154A9BB0000E7
:10078C00971100209381C185176100201301C106C8
:10079C001305400097050020938505861706002059
:1007AC00130606FE63FAC5008322050023A055003C
:1007BC0011059105E3EAC5FE17450000130545E850
:1007CC00970500209385C5FB1386818063FAC500CD
:1007DC008322050023A0550011059105E3EAC5FE0F
:1007EC0013858180938501C06377B50023200500B4
:1007FC001105E36DB5FEFD42739002BC8D42739002
:10080C004280930280087390023097F2FF1F93820C
:10081C00A27E93E2320073905230970200009382D2
:10082C00020D73901234730020303D432A8763739A
:10083C00C3029377F700BDEFADE5937606FF3D8AD3
:10084C00BA960CC34CC30CC74CC74107E36BD7FE1D
:10085C0011E28280B306C3408A0697020000969686
:10086C006780A6002307B700A306B7002306B700CE
:10087C00A305B7002305B700A304B7002304B700F2
:10088C00A303B7002303B700A302B7002302B700EA
:10089C00A301B7002301B700A300B7002300B700E2
:1008AC00828093F5F50F93968500D58D939605016F
:1008BC00D58D61B793962700970200009696868295
:1008CC00E78086FA9680C1171D8F3E96E374C3F8B5
:1008DC00A5B719C94111AA8517450000130585AAAA
:1008EC0006C6EF20007801A082805D71130580049C
:1008FC0086C6A2C4CAC03714004052DC56DA5AD895
:10090C005ED662D4A6C24EDE66D26AD06ECE97F0A8
:10091C00FF1FE78080778327840A85451305001025
:10092C0093E707202324F40AB5298D4513050020ED
:10093C009529C5238345140417450000130505A606
:10094C000969EF2000729387C18123A6F1809387F8
:10095C00C18523A8F180EF009040CD2617450000FB
:10096C00130545A597070020238007E8174A0000C8
:10097C00130A8AA7EF20B003938A81BA174B0000A1
:10098C00130B4BA1974B0000938BCBAB1309097145
:10099C00174C0000130C4CA03787004083476700AE
:1009AC000145858B81CF0544230387004523D5471B
:1009BC006316F50097070020238887E2970700202D
:1009CC0083C787E281E7D5476318F5101305800CC0
:1009DC0097070020238A07E097000020E7804095C6
:1009EC00EF00703E63130510174500001305859D3D
:1009FC00EF20E07B91472384F1BA29445285EF2004
:100A0C00007BEF10207DAA8509CD2AC67D14130525
:100A1C00200397000020E780A0911374F40FB245D7
:100A2C0071FC83C70A0011476372F70A174500006F
:100A3C001305859CEF20A077974500009385459C76
:100A4C001385C1A9EF208077EF10D0799307300B75
:100A5C00DA896319F500174500001305659BEF2033
:100A6C000075E289CE85174500001305A59CEF2083
:100A7C00405F01449384C1A9FD5C130D2004930DC8
:100A8C003004CE852685EF2060732685EF202074F8
:100A9C0026952300950123AC81BAEF10B074630C3A
:100AAC00A5016313B503A28526865E850504EF2098
:100ABC00405BE31824FDEF200045174500001305AB
:100ACC00E599EF20C06E09A82935F5B71745000048
:100ADC0013058599EF20E058130540069700002078
:100AEC00E78000850545DD2145BD17450000130550
:100AFC006599C1BF6F001014797122D426D24AD0E7
:100B0C004ECE52CC56CA5AC85EC662C466C206D60F
:100B1C00AA842E8C0144930900F8138A81BDA94A3A
:100B2C00130B8002938B41BA938C01BB0D4983C785
:100B3C00D1BEB397F4002382F18613D78700A3822A
:100B4C00E18613D70701E1832383E186A383F18632
:100B5C002384318783470A006285A384F186238529
:100B6C005187A38561872386018683A70B0013D742
:100B7C008701A386E18613D707012387E18613D764
:100B8C008700A387E1862388F186A38801862389C1
:100B9C000186A3899186238A0186EF00F05983C7C9
:100BAC000C0093F7F70FB1C72285EF10602523884F
:100BBC00A1BA83C70C0093F7F70F95C303C50C00BC
:100BCC001375F50FB250225492540259F249624AED
:100BDC00D24A424BB24B224C924C45618280050466
:100BEC001374F40FE31524F5FD472388F1BA7D4502
:100BFC00D1BF0145C1BF797122D426D24AD04ECE85
:100C0C0052CC56CA5AC85EC662C406D6AA84AE8BEB
:100C1C000144938981BD294A930AA002138B41BADE
:100C2C00138C01BB0D4983C7D1BEB397F40023824B
:100C3C00F18613D78700A382E18613D70701E183DE
:100C4C002383E186A383F1862384018683C709006D
:100C5C005E85A384F18623854187A38551872386EE
:100C6C00018683270B0013D78701A386E18613D750
:100C7C0007012387E18613D78700A387E1862388A2
:100C8C00F186A388018623890186A3899186238A0C
:100C9C000186EF00704A83470C0093F7F70F85E746
:100CAC001305800C97F0FF1FE780A0670145B25039
:100CBC00225492540259F249624AD24A424BB24BE4
:100CCC00224C456182802285EF1080132388A1BAC3
:100CDC0083470C0093F7F70F91C703450C0013756E
:100CEC00F50FF1B705041374F40FE31E24F3FD475D
:100CFC002388F1BA7D4565BF3787004083473700AD
:100D0C00894693F7F707A301F7008347570003477A
:100D1C00370093F7F70F1377F70F631BD70093F692
:100D2C00170099C6918B014581CB2384E1BA82804F
:100D3C0085472384F1BA594582808280411106C6C9
:100D4C00EF00503F3D479307F00F6379A70493875B
:100D5C00C18923A8F1B823ACF1B6238401BAA54705
:100D6C00A386F1BE93070020239EF1BA23A601BCF3
:100D7C00930700042399F1BCB78700401387C70180
:100D8C0023A6E1B81387870123AAE1BE1387C70204
:100D9C00A10723A6E1B623ACF1B88147B2403E854A
:100DAC0041018280914763EEB702173700001307A9
:100DBC00676F8A05BA959C41BA978287B71700402E
:100DCC0003A7470B1345F5FF698F23AAE70A03A76F
:100DDC00070B698F23A8E70A03A7070A798D23A0BD
:100DEC00A70A8280B717004083A6470B1347F5FF6D
:100DFC00F98E23AAD70A83A6070B558D23A8A70A19
:100E0C0083A6070A758F23A0E70A8280B7170040D4
:100E1C0003A7470B498F23AAE70A03A7070B134520
:100E2C00F5FF45BFB717004083A6470B1347F5FFE7
:100E3C00758F23AAE70A03A7070A598D4DB7B71771
:100E4C00004003A7470B498FEDB7B7170040884701
:100E5C00420541819377050491EB9377F501375562
:100E6C00E801130505803345F50282809377050C64
:100E7C00130700046397E7009377F50137459C1C33
:100E8C00CDB72165130505D08280814737370040E7
:100E9C00A14663C4C700328582800345B740E38E08
:100EAC00A6FE3385F5000345050085072304A740FE
:100EBC00CDB7970700209387A7929C43138701C057
:100ECC003E95636EE500175700201307E7726368C1
:100EDC00A700170700202325A7903E858280FD5789
:100EEC00EDBF411122C406C62A8485372947B307B2
:100EFC00E502B2408D83B3D7870222449507B3D75E
:100F0C00E70237370040C207C1832316F74041017F
:100F1C008280716541111305052006C6D937B73794
:100F2C000040130770F82381E7400D47A381E74089
:100F3C0013070004A380E74005472387E740B2402E
:100F4C004101828085472384F1BA8280411106C613
:100F5C00B786004083C75600138781BA858B9DCB1B
:100F6C008347070005476307F70083C71600014551
:100F7C00858B91EF85472384F1BA17350000130553
:100F8C00A55389472384F1BAEF2060225545B2401E
:100F9C00410182800347070085470145E3F9E7FEDD
:100FAC0017350000130505522384F1BAEF202020D9
:100FBC005945F1BF37870040834737001375F50754
:100FCC0093F70708C98FA301F70082808280411133
:100FDC00A147014506C622C4A384F1803784004092
:100FEC00D13F834714003D4593F7E70FA300F4006E
:100FFC008347140093F7970F93E72700A300F4009F
:10100C0097F0FF1FE780C032834714001305A00F31
:10101C0093F7D70FA300F40097F0FF1FE780603021
:10102C0085472303F400B24022444101828003C768
:10103C0081BA854763E5E70089472384F1BAB7870E
:10104C00004003C757005945058B01CB03C7170058
:10105C00014513671700A380E70082805D71A2C46D
:10106C00A6C2CAC04EDE52DC56DA5AD85ED662D45C
:10107C0066D26AD06ECE86C6B78700402387B70289
:10108C00B7840040AA8A32892385B7029359450058
:10109C000144938D6400094C054BD54C938B81BA5C
:1010AC00094A7D5D2384540323808D019307803E80
:1010BC0003C70D00098B01EF05453EC697F0FF1FD6
:1010CC00E7802026B247FD17C207C183F5F32384BE
:1010DC00040283C70D00898B81E71305E00F55A02F
:1010EC0083C70D00858B9DC723806D0185356314E7
:1010FC0095012384618183C70B000547630AF70AB6
:10110C0083C70B006308FA0A1305800C97F0FF1FC6
:10111C00E780202183C70D00898BC1CB83C7740066
:10112C0093F70704D1EB83C77400394793F7F70F94
:10113C0013F5F7006304E50829476318E502630219
:10114C000908FD576303F9007D197D141374F40F1E
:10115C0005043D451374F40F97F0FF1FE780601CE6
:10116C00E3728AF41305000229A82547638AE90271
:10117C00B5476385F9008547E391F9F671D9136595
:10118C000502B640264496440649F259625AD25A90
:10119C00425BB25B225C925C025DF24D61618280CB
:1011AC009D8B0D47E39CE7FC65B72380AD014DB7E4
:1011BC005945C1BF5545F1B70145E1B71305E002EB
:1011CC00C9B71305A00275BF011126CA4AC8AE845F
:1011DC002A891305800C06CE22CC4EC652C456C2A8
:1011EC005AC097F0FF1FE780C01399C023800400FA
:1011FC0037840040A14789692306F40213860971DC
:10120C0081451305000D993D63130518930700FDE7
:10121C002307F4022305F40285472306F402138AFC
:10122C00018183270A00173500001305652AD28A2D
:10123C0003C4770003C767002204598CA285EF1002
:10124C005062630204106300091083270A001735EB
:10125C0000001305E5289389097183C50700EF1079
:10126C00506083270A00378A00408387070063C3D6
:10127C0007061305800C97F0FF1FE780800A83C7D1
:10128C0091806374F4009377F40F2306FA0281477C
:10129C000347CA026392E7128345EA024E86414530
:1012AC00753B6316050E8347CA021D8C42044180B0
:1012BC0081C88347CA0203C70400BA972380F4008D
:1012CC004DF883C50400173500001305A522EF1057
:1012DC00505995A8938AC1801305800C97F0FF1F75
:1012EC00E78020048345AA024E8613050009BD330E
:1012FC0059ED03478A009377F40F63768700834791
:10130C008A0093F7F70F1D8C4204418091C403C7E8
:10131C0004003E972380E40001479376F70F639215
:10132C00D7083E9983478A0093F7F70F89CB034779
:10133C008A0083C79180FD17F98F91E351FCB78721
:10134C000040238607021305800C97F0FF1FE780EF
:10135C0040FDB787004083C7C7021305000993F708
:10136C00F70F91E341450966130606719305000CCE
:10137C00F53111ED378700408347C70293F7F70F1C
:10138C0099C78347870093F7F70F91C35D45F240E8
:10139C006244D2444249B249224A924A024B056104
:1013AC00828083A60A00BA9603C60600B306E9003B
:1013BC0005072380C60095B703A70A0083460900DA
:1013CC0005093E9785072300D70093F7F70FC9B59A
:1013DC00814793850181A1463307F5000346070039
:1013EC0098413E972300C7008507E397D7FE82807C
:1013FC000111A147173500001305C52206CEA384A1
:10140C00F180F9379305F1001385C1AE753B05E109
:10141C009387C1AE83C77700A384F1800347F100A3
:10142C009737000083D767206373F7005D45F24060
:10143C00056182800111173500001305251E06CEAB
:10144C0022CC79379305F1001385C1AEB53B2A84C4
:10145C003DE10347F1009737000083D7871C5D44BB
:10146C00636BF70483C7E1AE173500001305051B4A
:10147C00A307F100B13F938701819C430347F1001F
:10148C009305F100A38307002383E7001385C1AE06
:10149C00253B2A840DE10347F1009307000463F414
:1014AC00E700A307F1000346F1009385C1AE138555
:1014BC00C185EF10B02F2285F24062440561828015
:1014CC00411126C2AA84173500001305251606C63D
:1014DC0022C4FD3D938701819C43814501452381B5
:1014EC009700A3810700CD312A8401E92685D934E0
:1014FC00294597F0FF1FE780A0E32285B2402244E4
:10150C00924441018280411122C42A841735000083
:10151C001305451206C66D3D938701819C43B2406D
:10152C008145238187002244A381070001454101A5
:10153C0061B9411122C42A84173500001305850DA9
:10154C0006C67935938701819C43B240814523823D
:10155C0087002244A382070001454101B5B1B7873A
:10156C000040130700F82380E70003C70700620759
:10157C006187E35C07FEA3800700A38107001307C4
:10158C008004A386E70003D7C180239CE70003D720
:10159C000181239EE7002385070223870702130797
:1015AC0090F82380E700130700042383E7027D579C
:1015BC002383E70005472384E1BA0D472381E70025
:1015CC00238401808280011117350000130545F337
:1015DC0006CE22CC26CA4AC84EC6EF10503DC53A9C
:1015EC008144014413094006054597F0FF1FE7802D
:1015FC0020D4353C19E5850493F4F40F636C990EF3
:10160C00014405041374F40FE31024FFEFF09F93CF
:10161C00173500001305C5F2EF1070395944D9A0E5
:10162C00B307890083C507004E850504EF107023AE
:10163C001374F40F93170401C183E3E397FE294558
:10164C00EF107026835789009734000083C424FE62
:10165C0026852390F1AE8357A90083C901AF23914E
:10166C00F1AEB93D2A8405E1173500001305C5EA32
:10167C00A38E91ACEF10F01E753B2A8497340000BA
:10168C00938404E90DC9A285173500001305C5E93B
:10169C00EF10301D894705452384F1BAEFF01F93F5
:1016AC0091A0B307890083C5070026850504EF10B8
:1016BC00501B1374F40F9317040103D7E1AEC183CD
:1016CC00E3E1E7FE2945EF10101E1304B00F639BF6
:1016DC00090003C7A1AFA1476316F7009147238404
:1016EC00F1BA01442285F2406244D2444249B249E3
:1016FC000561828003C5E1ADEFF05F8D1735000009
:10170C00130585E6EF10F015E5312A842DFD97348D
:10171C00000083C494F1A2049737000083C7E7F05C
:10172C00DD8C1389C1AE97390000938969DE19B736
:10173C004111094506C622C426C297F0FF1FE78057
:10174C0020BF83C701BBA38DF1BEEFF0EFDAAA87F0
:10175C003DE503C781BA8D469307300863F1E60671
:10176C0083C681BF13061002238EC1847D569387D6
:10177C00C185A38EC18423810700A3810700238226
:10178C00D700A382070023830700A38307008145AA
:10179C00253C2388A1BA5947AA876302E50203C5F1
:1017AC00C1B93D89793303C5C1BE3D8913650508AF
:1017BC00493383C7B1BFA38D01BE2388F1BAB240B0
:1017CC00224492443E85410182804111054706C660
:1017DC002384E1BAEFF04FD219E113053008B2407F
:1017EC0041018280411122C483A741BA03A701BEE3
:1017FC0006C601456384E70283A581B703A701B937
:10180C0023A0F1BE6308B7020545EFF0EFAE2388C5
:10181C00A1BA09E903C501BB1375F50FB240224407
:10182C00410182807D5723A8E1BE23A0E1BE238E17
:10183C0001B6CDB7054523A8F1BEEFF0EFAB238879
:10184C00A1BA69D9C5B7411122C483A741BA03A76C
:10185C0001BF06C601456384E70283A501B903A74E
:10186C0081B723A8F1BE6308B7020545EFF0CFA8F6
:10187C002388A1BA09E903C501BB1375F50FB24062
:10188C002244410182807D5723A8E1BE23A0E1BE02
:10189C00238E01B6CDB7054523A0F1BEEFF0CFA541
:1018AC002388A1BA69D9C5B783A741BA83A581B7E3
:1018BC00411103A701B922C406C623A0F1BE6305DA
:1018CC00B7020545EFF02FB32388A1BA01C97D57A4
:1018DC0023A8E1BE23A0E1BE238E01B6B240224470
:1018EC0003C501BB4101828023A8F1BED9BF83A7E8
:1018FC0041BA83A501B9411103A781B722C406C619
:10190C0023A8F1BE6305B7020545EFF0CFAE2388DF
:10191C00A1BA01C97D5723A8E1BE23A0E1BE238E45
:10192C0001B6B240224403C501BB4101828023A011
:10193C00F1BED9BF41458280797126D2130750057B
:10194C0056CA238EE18413073005A38EE18483A746
:10195C00C1B613072004238FE1841307300422D46B
:10196C004AD04ECE52CCA38FE18406D67D475AC8BE
:10197C005EC662C42390E7002A8483C5B1BF03C549
:10198C00C1B937060200EFF06FED2388A1BA5947B1
:10199C006301E516938BC18515CD9387C18593841F
:1019AC00C18798439107D8CFE39D97FE5133DE87CB
:1019BC009853910723AEE7FEE39C97FE83C5B1BF16
:1019CC0003C5C1B937060200EFF04FE92388A1BA6D
:1019DC00631F051683C49B0003C68B0083C7AB0033
:1019EC0003C7B1BF83C6BB00A204D18CC207C58F8D
:1019FC001347070493948601A38DE1BEDD8C6386A7
:101A0C0004108386CB0083D721BD63D60608371B11
:101A1C000020130B4B8091A000C383C5B1BF03C53D
:101A2C00C1BE37060200EFF06FE32388A1BA631042
:101A3C00051603C7B1BF83A681B983D721BD134750
:101A4C000708A38DE1BE83D6060063E3F4189D8CD2
:101A5C006390D7163E94638D041403A741BFE3FD36
:101A6C00F4FA2320670155BF23A088002390F600C9
:101A7C0083D721BD9D8C3E94EFF04FDE2388A1BA15
:101A8C002DE103C7B1BF13470704A38DE1BE6388E3
:101A9C00040E83D721BD03C8C1B9BA85370602002D
:101AAC0083A8C1B883A6C1B64285E3FFF4FA23A08C
:101ABC00780123909600814703460400B386770192
:101ACC008507C2072380C600C1830504E39697FEF1
:101ADC0037060200BA854285EFF04FD82388A1BAA9
:101AEC0069CD03A7C1B89307E002232077016301F6
:101AFC00F508B250225492540259F249624AD24A21
:101B0C00424BB24B224C4561828003C5C1BE3706A5
:101B1C000200BA85EFF08FD42388A1BA79F983C774
:101B2C00B1BF03A781B993C707F8A38DF1BEFD47D9
:101B3C002388F1BA03570700B5476316F702B717A6
:101B4C00002003C5078129C1854763FEA7002254E5
:101B5C00B25092540259F249624AD24A424BB24BA9
:101B6C00224C4561F1B603C501BB1375F50F51B796
:101B7C0003C5C1B93D89EFF0DF9B03C7B1BF83A794
:101B8C00C1B823A0770151B7238801BA9DB783A6AA
:101B9C0041BF1307E00223A06601E31CE5F403C573
:101BAC00C1BE3D8913650508EFF0BF9803C7B1BFEF
:101BBC0083A741BF23A0670189BF03C7B1BF83A718
:101BCC00C1B813470704A38DE1BE23A0770135BF2D
:101BDC0063E5D402F1DE9387F6FFC207C183850764
:101BEC00A2975A878346070005040507A30FD4FE66
:101BFC00E39A87FE03C7B1BF65BF93960401C18208
:101C0C00D9BF4111294506C697E0FF1FE7804072F6
:101C1C0003C781BD9387C185A386E700C9461947D1
:101C2C002384D7002387E700930600F80D47A3878A
:101C3C00E700A3840700494723850700A385070015
:101C4C002386D7001385C187A389E7002388070063
:101C5C00A388070023890700238A0700A38A0700AB
:101C6C00238B0700A38B0700238C0700F13115454C
:101C7C0097E0FF1FE780C06B83C701BB014593F75B
:101C8C00F70F81CF03C501BBD9471375F50F630956
:101C9C00F500D547630CF5000145B2404101828047
:101CAC0005472384E1BA23A601BCC5BF0947238499
:101CBC00E1BAE5B73971A54722DCA386F1BEBD4771
:101CCC002384F1B826DA4AD84ED652D456D25AD0FA
:101CDC005ECE62CC66CA6AC86EC606DE938DC185BE
:101CEC00938481B8214B930A00F8130A5002A94936
:101CFC00854C4D4D81A063FADC0A6308A70BA380C9
:101D0C00E400013703C581B803C7140072057D8553
:101D1C00137585F71305850C2388E1BA97E0FF1F2F
:101D2C00E780006103C781B87D171377F70F238411
:101D3C00E1B825CF03C781BD1385C18723846D010D
:101D4C00A386ED00A3840D0023850D00A3850D0053
:101D5C0023865D01A3874D0123880D00A3880D0008
:101D6C0023890D00238A0D00A38A0D00238B0D00FF
:101D7C00A38B0D00238C0D0023873D01A3890D003F
:101D8C00653E03C701BB1377F70F9306B7FE93F6B7
:101D9C00F60F35F383C76D0211476382E7042147C1
:101DAC006384E70441476388E70403C7D1BE8547D2
:101DBC00B397E700C207C183F2506254239EF1BA75
:101DCC0003C514004259D254B259225A925A025B9A
:101DDC00F24B624CD24C424DB24D21618280A386B3
:101DEC0031BF93070040C9BFAD47A386F1BE8567DD
:101DFC0093870780D1B7B147A386F1BE85676DBFC6
:101E0C00411126C2AA84054506C622C497E0FF1FCD
:101E1C00E7800052854763F3970683C781BAC946AA
:101E2C0093F7F70F6388D700C14663F8F600238455
:101E3C00D1BA21A095472384F1BA83C701BB93F78C
:101E4C00F70FAD1793F7F70F05476374F700553B82
:101E5C0005C1094597E0FF1FE780804D03C501BB15
:101E6C00D9471375F50F630CF502D5476303F504D9
:101E7C00B2402244924401454101828083C701BB98
:101E8C0093F7F70FDDFC094597E0FF1FE780404A09
:101E9C0003C501BBD9471375F50FE318F5FCB24028
:101EAC00224405472384E1BA23A601BC9244410194
:101EBC008280B240224409472384E1BA9244410112
:101ECC00828039716EC606DE22DC26DA4AD84ED6FE
:101EDC0052D456D25AD05ECE62CC66CA6AC8EFE0F3
:101EEC00BFE1AA8D71E983C781BA0D476376F70EFE
:101EFC0091472384F1BAEFE0FFBF2388A1BAAA8DE2
:101F0C0045ED938CC18583C6EC002147639DE60C9F
:101F1C0003C6FC00238001BC99466315D600854698
:101F2C002380D1BC03C77C0183C5BC0003C66C01F4
:101F3C0083C6EC0103C8DC0103D321BD2207A20632
:101F4C00238CB1BE518F238401B8B3E6060103C6BE
:101F5C004C0183C5BC0103C8C1B903CEC1BE63101B
:101F6C006708620661861373F600634606081368F9
:101F7C000301014605436390E620139785016187B1
:101F8C009376F700138B81B86346070809472384BF
:101F9C00E1B8A300BB0013E806016311061A238EF7
:101FAC0001B961A083C601BB1306E0026300D6220F
:101FBC0003C701BB937DF70FF25062546E85D25468
:101FCC004259B259225A925A025BF24B624CD24C91
:101FDC00424DB24D21618280930D3008F1BF1389BF
:101FEC0081B8A300C900FD472388F1BA03C701BB20
:101FFC00937DF70FD1B7136E030905460143E38EAA
:10200C00E6F6938781B82384C1B8A380B7002386F2
:10201C00C1BFD1BF93E606F909472384E1B8A300F9
:10202C00BB002386D1BEE31C03F603C55C00EFF0B6
:10203C008FCD2388A1BAAA8D41F183C681BF130627
:10204C0010FA03A501B9238EC1847956A38EC184DD
:10205C00854A938591B8238401B823810C00A38110
:10206C000C002382DC00A3820C0023835C01A3837D
:10207C000C00EFF06F952388A1BA0DF583461B0079
:10208C006398560183A601B983C606002384D1B890
:10209C00154597E0FF1FE780A029FD5623A8D1BE68
:1020AC0023A0D1BE03A501B9238E01B6A38D01BE19
:1020BC00238C01BC0146130C4002930B00F8194B06
:1020CC00C94A130A4002A386CC0023848C01A38442
:1020DC000C0023850C00A3850C0023867C01238730
:1020EC006C01A3875C0123880C00A3880C00238956
:1020FC000C00A3894C01238A0C00A38A0C00238BAF
:10210C000C00A38B0C00238C0C00EFF0FF8283C619
:10211C0001BB054693F6F60F8DE683C681B8B9C2AE
:10212C0083C681BDA1E203A501B99547834605008D
:10213C00639AF6028547238CF1BC71B72386C1BF25
:10214C00B9BD83C681B8A9C283C681BD8947138630
:10215C0016001376F60F63E9D702238CC1BC03A5D6
:10216C0001B995B783C781BA8D4663F1F6049547DB
:10217C002384F1BA91B5938781B8238461B8A38085
:10218C00B700238E01B985B56254238C01BCF25083
:10219C00D2544259B259225A925A025BF24B624CB7
:1021AC00D24C424DB24D0545216199B96254F25061
:1021BC00D2544259B259225A925A025BF24B624C97
:1021CC00D24C424DB24D21616FF02FE00145EFF042
:1021DC004FB67DBD411126C222C406C623AE01A84E
:1021EC00EFE09FB12A8441E183C781BA1147637242
:1021FC00F7089387C18503C781BD23840700A38695
:10220C00E7001947A384070023850700A38507006F
:10221C00238607002387E7001385C187A387070060
:10222C0023880700A388070023890700A3890700D8
:10223C00238A0700A38A0700238B0700A38B0700C0
:10224C00238C0700EFF04FEF83C701BB93F7F70F19
:10225C0099CB83C701BB2384F1B8EFF09F9A03C4D9
:10226C0081B8238881BA2285B2402244924441012C
:10227C008280813919C91305000497E0FF1FE7809C
:10228C00200B813119C12A84F9BFEFF0BFA205E5FB
:10229C009387C18503C6170283C5070283C627022D
:1022AC0003C7370222064D8EC206D18E6207558FA8
:1022BC0023AEE1A889B703C401BB1374F40F65B74F
:1022CC0083C781BA397106DE22DC26DA4AD84ED6AB
:1022DC0052D456D25AD05ECE62CC66CA6AC86EC68A
:1022EC0011476374F73803A7C1BCFD5723A8F1BE8F
:1022FC0023A0F1BE238E01B6B7573412937607FF95
:10230C0093870767638AF6369384C1BAA380040067
:10231C00238801BCA38C01BE23AC01BA2D6A130A1D
:10232C005AA5138D81B823A201BA930B900E930D6D
:10233C000004EFF04FD16314051283C6140003A6FA
:10234C0001B999E68347060093F7D70F638B77178C
:10235C008357E61F6398473183CE01BD2386D1BBDB
:10236C00638FBE2F9387EE1BB29783C5A70003C75D
:10237C00B70003C8870003C59700A301ED002384B1
:10238C0001B9A300AD002301BD0083A581B883C7AB
:10239C004700154723A2B1BA2384F1B86387E72A13
:1023AC003D476384E72A7687014F01433545054E47
:1023BC001548BD489DA083C781B8FD1793F7F70F4B
:1023CC00930F07019382F6FF6367F500637EDE0EC1
:1023DC0093F6F20F054F13F7FF0F9307E71BB29716
:1023EC006306B70B03C3A70083C5B70083CF970061
:1023FC0023016D00A301BD00A300FD0183C587006F
:10240C0083C7470005432384B1B883A581B82384CF
:10241C00F1B8638F0701638D1701939F870193DFD9
:10242C008F4193F7F703E3D80FF82384F1B871B712
:10243C0023A2B1BA63040F00A380D4002386E1BAAF
:10244C0083A781BB83C691BFBE9523A2B1BAE39289
:10245C0006EE4107A38CE1BE23ACB1BAF9B5EFF09F
:10246C002FADEFF03F85EFF00FBEE30805ECF25017
:10247C006254D2544259B259225A925A025BF24BCC
:10248C00624CD24C424DB24D2161828063040300F8
:10249C0023A2B1BA63040F00A380D40083C791BFF9
:1024AC00130700042386E1BA638B071A63990E1A8B
:1024BC0003C714002388F1BC23AC01BABD47E31455
:1024CC00F7E683A541BA05A06302031E23A2B1BAA5
:1024DC0063040F00A380D4002386E1BA83A701BF55
:1024EC00BE9523A2B1BA23A6B1BCEFF0CFB541F192
:1024FC0083A501B91307900E83C7050093F7D70F77
:10250C006390E71A83C7D500139787012388F1BC22
:10251C0061876342071819478607238AE1B693F748
:10252C00F70F0145194793968701E1861306F7FFCC
:10253C00860763C706101377F60F93F7F70F054559
:10254C007DF38547238A01B62388F1BC03D5650149
:10255C0023AAA1BA01E5C85123AAA1BA83C7450190
:10256C0003C63501A207D18F23AAF1B881E79C518C
:10257C0023AAF1B803C6250183C8150183D6C1BBB4
:10258C0003C3D1BE220633661601958283D8E500BB
:10259C00B296FD161306B3FFB3D6C64033861601AA
:1025AC0003CF05012A9623A0D1B823A011BB23A4E5
:1025BC00C1B88946630DDF0823AA01BA83A641BAC4
:1025CC00918F33D7E700369623A2C1BE23AEE1BC70
:1025DC00C167D11763EBE704239B01BC8567D11757
:1025EC0063EBE7060547A38EE1B66383080283A776
:1025FC0001B899CF85476305FF0083A741BB89CB01
:10260C0003C5B50011E503C7C500854763E5E70AB7
:10261C0083C71400C9EB8547A380F400238801BC51
:10262C00A38C01BE23AC01BAD5B9DC5503D6050386
:10263C0023A0F1B8239BC1BC0D47A38EE1B675B79F
:10264C00E30605F0238AE1B611B77687D5BB2A9647
:10265C0023A4C1B8A5B70947A38EE1B679B7130572
:10266C00200931B51305100919B5EFF09F85E3105A
:10267C0005E0EFF02FE485B93D8B9384C1BAA380BC
:10268C00E400238801BCA38C01BE23AC01BABD4776
:10269C00E316F7C83DB51D47238AE1B61D477DB546
:1026AC001305100AE9B31305300AD1B3E3080FE29E
:1026BC00A380D40025B583C781BAB69823A011BBDB
:1026CC0011476376F700C1472384F1BA4DB36254C6
:1026DC00F250D2544259B259225A925A025BF24BDE
:1026EC00624CD24C424DB24D21616FF00F8E0111F4
:1026FC004AC883A701BE26CA22CC06CE4EC623A248
:10270C00F1BAEFF06F9A2A8411E583A741BB99EBDC
:10271C00238E01B62285F2406244D2444249B2492A
:10272C000561828003A741BA83A581B7BA97054595
:10273C0023A2F1BAEFE02FCC03A741BA2388A1BAA8
:10274C0003A641BB83C701BB118F23A2E1BA93F748
:10275C00F70FDDDF03C401BBFD5723A8F1BE23A097
:10276C00F1BE238E01B61374F40F6DB7797152CC90
:10277C0003C8D1B722D426D24AD006D64ECE56CADA
:10278C005AC85EC689472A89014403A701B763006A
:10279C00F8128D47630BF81093571700137417003A
:1027AC003E9783D6C1BB83C7D1BE83A581B703A691
:1027BC0001BAFD16F98EB357F70003A701BEAE960A
:1027CC00B29723A6D1BA23A8F1B66382E70203C756
:1027DC00C1B709C7293F5DED83A701B723A2F1BAA1
:1027EC00EFF04F8045E903C8D1B783A6C1BA630F98
:1027FC00090091476308F9168547630FF90E83A703
:10280C0041BC23A8F1B60547238EE1B6238A01BC4F
:10281C0089476300F80A0D4783A701B76301E80EE7
:10282C0003C5060013F8F70F83D5C1BB1377F5006A
:10283C009318480003A681B733671701938481B8B6
:10284C0091831377F70FFD15A380F4002381A40067
:10285C002384E1B8B307B600638AF61083C7160069
:10286C00A381F400631009086309040E83D72400C4
:10287C00918305672391F4005917636CF70A03C71A
:10288C0041BD23A4F1B83369E900631B090423A2F9
:10289C00F1BC0145B250225492540259F249624A99
:1028AC00D24A424BB24B456182800A07DDBD060716
:1028BC00CDBD03D7060023A4E1B8C167D91763FDCA
:1028CC00E7008547238AF1BC630C090083A701B795
:1028DC0001452390F6007DBFE31A09FE23A2E1BC5B
:1028EC0001454DBF31CC2380E60083A7C1BA03C795
:1028FC001400A380E7009DBF23A801B629B7984216
:10290C00370600101305F6FFB70500F0F98DE98FB7
:10291C00CD8F698F23A8F1B623A4E1B85916637C37
:10292C00E6060547238AE1BCE30C09FA9CC2014583
:10293C0095B70547238AE1BC23A4F1B8014599BF9B
:10294C002380060183C7340003C7140083A6C1BAD1
:10295C00C19B1183D98FA380F60083D72400D207A3
:10296C00D18301BFFD5723A8F1B671BD63180902CD
:10297C0083C7C1B785EB83A701BE850723A2F1BA34
:10298C00EFE05FE6E31805F083A781B783C7070084
:10299C00A381F400D1BDE31B09F889B711E042878C
:1029AC002380E600A933E31705EE83A701BE850754
:1029BC0023A2F1BAEFE01FE3E31E05EC83A681B777
:1029CC0003C70600A381E400E30009EA83C71400EF
:1029DC0001E4419B9183D98F2380F6000547238E18
:1029EC00E1B659B55D7156DA83C781BA86C6A2C401
:1029FC00A6C2CAC04EDE52DC5AD85ED662D466D2AB
:102A0C006AD06ECE3D47637CF72C83C781BA3D47B5
:102A1C00637DF710C1472384F1BA83C6C1A9238D06
:102A2C0001BE638606301307C0056387E6301307C3
:102A3C00F0026383E6301387C1A90346170093079E
:102A4C00A0036306F62A3EC483A641B883A741BE01
:102A5C0032C623A4E1BE138481B8638D061C83C5E2
:102A6C0041B703C601BD1387E6FF3317B700BA970A
:102A7C00A38CC1BE23A4F1BC6302062423A2F1BA29
:102A8C00EFE07FDC5DE583D7C1BB239F01BA638494
:102A9C00072083A501B923A6B1BA83C70500B9CB1A
:102AAC00930D500E2D45930BC0056381B70315474D
:102ABC006394E7009307500E03A881BE8346080079
:102ACC006388F6081307A0026384E60883D7E1BB8A
:102ADC0003D7C1BB93870702C207C183239FF1BAF7
:102AEC0063FBE71A83A501B9BE9523A6B1BA83C7C8
:102AFC000500C5FF83A681BE81471306A00293057E
:102B0C00C0051305F00239A0630EC7006303B7229A
:102B1C006301A7223387F60003470700850793F765
:102B2C00F70F7DF31305200429A0EFE01FCAE3067D
:102B3C0005EEB640264496440649F259625AD25ADA
:102B4C00425BB25B225C925C025DF24D6161828001
:102B5C009D8E93B6160036872301D4003386D5009C
:102B6C00B307E80083C70700034606009308F0028A
:102B7C001303E002214E930E0002130F1700638E15
:102B8C00C702F9C76386770D6384170D639D670CC5
:102B9C006304C701631AD6152301E401A146034758
:102BAC0024003386D50003460600B307E80083C72C
:102BBC000700130F1700E396C7FC0507850613776C
:102BCC00F70F2301E40093F6F60FE39AA6FC429765
:102BDC0083470700A301F40083C7B500A18BE397DB
:102BEC0007EE238A01BC83A7C1BAA24583D6A701ED
:102BFC0003C6D1B70D4723A2D1B86318E60003D79B
:102C0C0047014207D98E23A2D1B803473400630B86
:102C1C00072403C741BD631707240347240083A778
:102C2C0081BE0507BA9723A4F1BEB24783A741BE64
:102C3C00E39706E203A701B89376F70F958F137706
:102C4C00F70FA38CE1BE23A4F1BCE31907E25DB539
:102C5C0013070002631EE6021D47E36DD7F603C798
:102C6C008500E309C7F6A301F4001307A002E39F54
:102C7C00E7E483C7B500A18BE39A07E483A781BB84
:102C8C006389071463C10712FD1723ACF1BA3DBD6C
:102C9C00A301F40025BD03C791BF83A781BC7D1799
:102CAC0085071377F70F23A4F1BCA38CE1BEE317C0
:102CBC0007DCA24783A641B8E38E06E2014523A8B0
:102CCC00D1B6EFF0BFAAE31605E683C741BDE39387
:102CDC0007E283A681B8A24723A2D1B8B9B7EFF017
:102CEC002FDEE30405D2B1B5A3016400C5B393078D
:102CFC002004E3FAD7D41387F1A923A4E1BE938768
:102D0C00F1A989A0D84F23ACE1BA91E67D57A38CE9
:102D1C00E1BE23AC01BA83C781BA3D476378F7188B
:102D2C00D1472384F1BA83C741BD63990716014586
:102D3C0009B51305300BF5BB1387D1A923A4E1BE4C
:102D4C009387D1A983C6D1B70D476384E60603C721
:102D5C0007003EC436C623A201B883A741BE8146F4
:102D6C00E31B07CE83A601B803C6D1BEA24513F759
:102D7C00F60F998F3317C700094623A2C1B82388D1
:102D8C00D1BCB24623A2F1BE23ACE1BA894623A240
:102D9C00D1BC23AA01B8A38C01BEC9472384F1BAC4
:102DAC001305100479B3EFD05FF983A781BB2D45D0
:102DBC00E1BD83A601B883C707003AC423A2D1B8EA
:102DCC0089C73EC683A741BE79B17D5723ACE1BA12
:102DDC007DBF238401B883A781BE01471305000280
:102DEC002148154E15539308E002AD451DA823004C
:102DFC00D60083C781B883A681BE99EB03C60600B3
:102E0C006318C6012380660083C781B883A681BE80
:102E1C00850793F7F70F2384F1B8B6970507630D71
:102E2C00B70283A6C1BA3E86BA9683C60600E3876C
:102E3C00A6FEE31E07FB2380170183C781B883A678
:102E4C00C1BA03A681BE850793F7F70F2384F1B8A7
:102E5C0083C686003E9661BF238007008547238A80
:102E6C00F1BC51B303C7B70023A2D1BC23AA01B84C
:102E7C00A38C01BE418BE30707E883C781BAFD56DB
:102E8C0023ACD1BA3D47637EF700CD472384F1BA1A
:102E9C0083C741BD13051004E38D07C81305300427
:102EAC0049B9EFE09F92E31605C8DDB7EFE0FF915B
:102EBC00E31105C88DBD83C781BA238D01BE4D4773
:102ECC006364F7000145828003A781BC411106C6EB
:102EDC0023A2E1BAEFE03F9709ED03D7E1BB83A74B
:102EEC0001B90145BA9703C7B70023A6F1BA418BC4
:102EFC0001C7B2404101828003A781BBB240D8CF49
:102F0C0041016FE0DF9E411122C483C781BA06C61E
:102F1C00454793F7F70F6371F7084947638AE7044E
:102F2C0083C781BA4D4793F7F70F6361F702238D7F
:102F3C0001BE83C781BA3D476377F702C14723843B
:102F4C00F1BA0145B2402244410182805147638B62
:102F5C00E70483C7A1BFF1DFB93F6DF583C781BA21
:102F6C003D47E36DF7FC2244B24041016FE0FF8521
:102F7C0003C7D1B78D47E305F7FA83C541B703A65D
:102F8C0041BE83C701B805473317B700B2972388F2
:102F9C00E1BC23A2F1BE69B7B24022441305400B39
:102FAC004101828083C7C1A9CDF751B7B3C7A50032
:102FBC008D8B3307C50081E78D4763EEC700AA8769
:102FCC006370E50A83C6050085078505A38FD7FEC8
:102FDC00E3EAE7FE828093763500AA8791CA83C61E
:102FEC00050085078505A38FD7FE93F63700FDB73F
:102FFC009376C7FF138606FE63F0C70683A305000E
:10300C0083A2450083AF850003AFC50083AE0501E5
:10301C0003AE450103A3850183A8C5019385450231
:10302C0023A0770003A8C5FF23A2570023A4F70110
:10303C0023A6E70123A8D70123AAC70123AC670065
:10304C0023AE17019387470223AE07FF75B7904154
:10305C009107910523AEC7FEE3EBD7FEE3E4E7F659
:10306C00828039713EDA2ED232D436D63AD842DC4E
:10307C0046DE97D7FF1F9387E77622CC804326CA7C
:10308C0006CEAA8409C41C4C99E3228541230C4426
:10309C0054102686228536C6EF00101DF24062447D
:1030AC00D24421618280011197D7FF1F93878773C8
:1030BC0022CC804306CEAA8519C41C4C89E72AC6AB
:1030CC002285A923B245104422856244F240056151
:1030DC006F00D07E011126CA4AC806CE22CC4EC63D
:1030EC0052C4AA842E8901C51C4D91E305239C4C26
:1030FC00804499E32685192B971700009387C749BD
:10310C00631CF402C0408357C400A18BB1C71C4898
:10311C00A1C7FD59294A1C4483450900FD17B1E993
:10312C001CC463DE07062286A94526855528FD5753
:10313C006308F502294535A0971700009387C74708
:10314C006314F4008044C1B7971700009387C742FB
:10315C00E31BF4FAC04445BFA2852685912255D9BC
:10316C007D55F2406244D2444249B249224A05613B
:10317C0082801CC4050963D70700184C63CBE70099
:10318C00638945011C401387170018C02380B700C2
:10319C0059B722862685A920E31F35F7D1B71C40E5
:1031AC001387170018C029472380E70061B797D70A
:1031BC00FF1F93872763AA85884329BFAA8703C764
:1031CC00050085078505A38FE7FE75FB8280AA871E
:1031DC00850703C7F7FF6DFF3385A7407D158280F8
:1031EC00011122CC26CA4AC806CE4EC6AA842E8904
:1031FC00328401C51C4D91E3112997170000938768
:10320C00A7396319F406C0401C4C1CC48357C40076
:10321C00A18BC9C31C48BDCF1C4808409379F90F3A
:10322C001379F90F1D8D5C486346F500A285268540
:10323C00752C2DE51C440505FD171CC41C4013877B
:10324C00170018C0238037015C486389A700835797
:10325C00C400858B81CBA9476316F900A28526850E
:10326C0071240DEDF24062444A85D2444249B24980
:10327C000561828097170000938707346314F4006C
:10328C00804459B7971700009387072FE31EF4F675
:10329C00C0449DBFA285268521203DDD7D59D9B72F
:1032AC00411197D7FF1F9387E75326C2844322C44B
:1032BC004AC006C62A892E8489C49C4C99E326856B
:1032CC00B126971700009387272D631CF402C0408A
:1032DC000317C40093170701C18393F68700B5EE5B
:1032EC0093F607019DEEA5472320F9001367070409
:1032FC002316E4007D55B240224492440249410118
:10330C008280971700009387272B6314F400804466
:10331C00C1B79717000093872726E31BF4FAC04424
:10332C0045BF918B8DC74C5889C99307440463845E
:10333C00F5004A85A123232A04028357C4002322C3
:10334C00040093F7B7FD2316F4001C481CC08357E8
:10335C00C40093E787002316F4001C4881EF8357C1
:10336C00C4001307002093F707286385E700A285A4
:10337C004A85B5218357C40013F7170005C75C486D
:10338C0023240400B307F0401CCC1C480145A5F7CE
:10339C008317C40013F7070839DF93E707042316D4
:1033AC00F40089BF898B014791E3584818C4F1BFD9
:1033BC0083D7C500011122CC26CA06CE4AC84EC6F8
:1033CC0013F78700AA842E8471EFD841634DE00077
:1033DC00B841634AE0000145F2406244D24442499C
:1033EC00B2490561828058547DD703A90400939695
:1033FC00370123A0040063DD060670488357C40020
:10340C00918B99C75C401D8E5C5899C33C401D8EB6
:10341C005C540C50814626858297FD570357C40097
:10342C00631DF5009440F54763E8D706B7074020C5
:10343C008507B3D7D700858BA5C31C48232204006E
:10344C001CC09317370163D80700FD576314F500B0
:10345C009C4091E368C84C5823A02401ADDD930730
:10346C0044046384F50026851129232A0402A5B798
:10347C000C500146854626850297FD572A86E31F88
:10348C00F5F69C40A5DF75476385E70059476394C3
:10349C00E70423A0240181B7136707042316E40073
:1034AC007D551DBF83A90501E38709F203A905001A
:1034BC008D8B23A0350133093941014791E3D8495C
:1034CC0018C4E35A20F11C540C50CA864E8626852B
:1034DC0082976349A0008357C40093E7070423161F
:1034EC00F4007DBFAA993309A940E1BF9C49A5C34B
:1034FC00011122CC06CE2A8411C51C4D81E72EC6A3
:10350C003122B2459717000093870709639CF50099
:10351C004C408397C5009DC722856244F2400561EB
:10352C006FF01FE997170000938707096394F50064
:10353C000C44C5B79717000093870704E39BF5FC71
:10354C004C44C1BFF2406244014505618280014593
:10355C008280411122C406C62A842316B500231783
:10356C00C500232005002322050023240500232267
:10357C00050623280500232A0500232C05002146D7
:10358C0081451305C505EFD04FAA97170000938707
:10359C0027BE5CD097170000938787C01CD4971761
:1035AC0000009387C7C45CD497170000938787C724
:1035BC0000D01CD8B2402244410182809705000003
:1035CC00938505F391AA411126C2130680069384B4
:1035DC00F5FFB384C4024AC02E8922C406C6938563
:1035EC00440789262A8401CD2320050023222501A6
:1035FC00310508C4138684068145EFD00FA32285BC
:10360C00B240224492440249410182801C4DBDE3E8
:10361C00411106C622C497070000938767FA1CD590
:10362C0097170000938787019C43232405042326C6
:10363C000504232805046314F50085471CCD2A8452
:10364C001D2848C02285052808C422852D2048C481
:10365C00484001469145F53D08440546A545D53DF4
:10366C0048440946C945F53585471CCCB24022442F
:10367C00410182808280411197170000938707FCDB
:10368C0026C284434AC006C69C4C22C42A8999E3AC
:10369C002685AD3F938484048044DC40FD1763D6BB
:1036AC0007009C40B9CF8440C5BF0317C40039E75D
:1036BC00C17785072322040623200400232204005B
:1036CC00232404005CC423280400232A0400232C94
:1036DC000400214681451305C405EFD00F95232A1C
:1036EC000402232C0402232404042326040422852C
:1036FC00B240224492440249410182801304840660
:10370C0071BF91454A85EFF01FEC88C049FDB14768
:10371C002320F9000144E1BF797122D44AD052CC64
:10372C0056CA5AC85EC606D626D24ECE2A8AAE8A4B
:10373C00130485040149054BFD5B09ECB25022547E
:10374C004A8592540259F249624AD24A424BB24BD0
:10375C0045618280044483294400FD1963D4090027
:10376C000040E1BF83D7C400637BFB008397E40078
:10377C0063877701A6855285829A3369A900938461
:10378C008406E1BF1971A6DAAE848395E500A2DC4C
:10379C0086DE328463DC050083D7C40023A00600D8
:1037AC0093F7070885E7930700401DA0300836C63D
:1037BC00EF00D02CB246E34105FE7247BD67F98F8E
:1037CC007977BA9793B717009CC2F1BF930700049F
:1037DC001CC0F6506654D65401450961828083D7CB
:1037EC00C500011122CC06CE26CA4AC8898B2E846C
:1037FC0089CF930774041CC01CC885475CC8F24071
:10380C006244D24442490561828074003000AA842B
:10381C00953FA2452A892685312201ED8317C400E4
:10382C0013F7072069FFF19B93E727002316F40099
:10383C00C9B7970700009387A7D89CD48357C400B7
:10384C0008C008C893E707082316F400A2475CC811
:10385C00B24791CF8315E4002685EF00D02401C92F
:10386C008357C400F19B93E717002316F40083578A
:10387C00C4003369F9002316240151B7DDC183A7B5
:10388C00C5FF411122C406C626C21384C5FF63D3EB
:10389C0007003E94AA84EF00F027938741819C4354
:1038AC0081EF2322040023AA81802244B240268582
:1038BC00924441016F003026637EF40014403307BC
:1038CC00D4006396E7009843DC43369718C05CC07D
:1038DC00D9BFBA87D84319C3E37DE4FE944333863A
:1038EC00D700631F86001040B29694C33386D7006E
:1038FC00E31DC7FA10435843B29694C3D8C375B7A7
:10390C006375C400B1479CC04DB71040B306C400EA
:10391C006316D70014435843B29614C058C0C0C3A2
:10392C0069B78280011126CA93843500F19806CEBE
:10393C0022CC4AC84EC6A104B14763F5F404B14485
:10394C0063E4B4042A89EF00F01C93874181984307
:10395C003A8429E4938781819C4399E781454A8580
:10396C00EF00207E23ACA180A6854A85EF00607D08
:10397C00FD5963193507B1472320F9004A85EF003B
:10398C00901929A0E3DE04FAB1471CC10145F240AD
:10399C006244D2444249B249056182801C40858F01
:1039AC0063CF0702AD4663F6F6001CC03E9404C01C
:1039BC0031A05C406313870223AAF1804A85EF0093
:1039CC0090151305B4009307440061993307F54033
:1039DC005DDF3A94898F1CC05DBF5CC3C5B722877D
:1039EC00404085BF130435007198E30285FCB30594
:1039FC00A4404A85B927E31C35FBB5BF1C46FD170F
:103A0C001CC663DA0700184E63C5E700A947639428
:103A1C00F5006FF0EFFC1C422E851387170018C2BF
:103A2C002380B7008280011122CC26CA4AC84EC618
:103A3C0052C406CE2A89AE893284B304D6007D5A8C
:103A4C0063149400014509A8834504004E864A85F9
:103A5C0075370504E31645FFF2406244D2444249EF
:103A6C00B249224A05618280357122CD26CB4AC9E2
:103A7C004EC706CF52C556C35AC1DEDEE2DCE6DACB
:103A8C00AA89AE843289368409C51C4D99E3EFF0BE
:103A9C00FFB797170000938727B0639DF40C83A49E
:103AAC00490083D7C400A18BE5CB9C48F5C793078D
:103ABC000002A304F1029307000302D22305F102D2
:103ACC0022C6930B5002971A0000938AEAB0054C59
:103ADC00294B4A848347040099C36392770FB30C34
:103AEC002441638E0C00E6864A86A6854E85EFF04F
:103AFC009FF3FD576307F51E9256E69636D2834721
:103B0C0004006380071EFD571309140002C802CE7F
:103B1C003ECA02CCA309010482D483450900154690
:103B2C005685EF00807D13041900C24759E913F73D
:103B3C00070109C713070002A309E10413F7870063
:103B4C0009C71307B002A309E10483460900130750
:103B5C00A0026380E608F2474A8481462546034763
:103B6C00040093051400130707FD6379E60AB5CA30
:103B7C003ECE85A897170000938707A46395F400A1
:103B8C0083A4890039BF971700009387E79EE39AB7
:103B9C00F4F083A4C90031B7A6854E85EFF04FF041
:103BAC0019D57D55FA406A44DA444A49BA492A4A39
:103BBC009A4A0A4BF65B665CD65C0D618280050402
:103BCC0011BF330555413315AC00C98F3EC822894E
:103BDC00A9B7324793064700184336C66349070214
:103BEC003ACE034704009307E002631FF704034730
:103BFC0014009307A002631BF702B2470904138752
:103C0C0047009C433AC663C107023ECA35A8330736
:103C1C00E04093E727003ACE3EC8E1B7B38767038D
:103C2C0085462E84BA9725BFFD57C5B7050402CA31
:103C3C00814681472546034704009305140013076A
:103C4C0007FD6376E606F1F2834504000D46171571
:103C5C0000001305E598552511CD971700009387A3
:103C6C0027981D8D93070004B397A70042450504C0
:103C7C005D8D2AC8834504001946171500001305ED
:103C8C006596130914002304B102852D3DC197C715
:103C9C00FFFF9387673695E74247B24713770710C4
:103CAC0009CF91073EC69257D2973ED21DB5B38726
:103CBC00670385462E84BA97BDBF9D07E19BA1077C
:103CCC00D5B7780097060000938626D626860C0872
:103CDC004E8597000000E7000000FD572A8AE31488
:103CEC00F5FC83D7C40093F70704E39C07EA12554D
:103CFC0055BD780097060000938626D326860C08BF
:103D0C004E85012AD9BF797156CA9C49BA8A984501
:103D1C0022D426D24ECE52CC06D64AD05AC85EC633
:103D2C00AA892E84B284368A63D3E700BA879CC0F2
:103D3C000347340419C385079CC01C4093F7070242
:103D4C0081C79C4089079CC0032904001379690032
:103D5C00631A0900130B9401FD5B5C449840998F26
:103D6C00634CF9041C408346340493F70702B336C2
:103D7C00D000A5EB13063404D2854E85829AFD57EC
:103D8C006303F5041C4011469840998B54448144BC
:103D9C006397C700B384E64063D3040081441C449A
:103DAC0018486354F700998FBE94014969047D5BF0
:103DBC0063982405014509A885465A86D2854E8507
:103DCC00829A631E75017D55B25022549254025949
:103DDC00F249624AD24A424BB24B45618280050994
:103DEC00ADBF3307D40013060003A301C704034778
:103DFC00540493871600A2978906A381E7049DBFFC
:103E0C0085462286D2854E85829AE30E65FB05098E
:103E1C0045B7797122D426D24AD04ECE06D652CC92
:103E2C0056CA5AC8B68983C685019307900632894B
:103E3C00AA842E8413863504638DF60263E2D706BA
:103E4C00930780056388F61863EDD700638106221B
:103E5C0093073004638EF60A930A24042301D404D6
:103E6C00C9A0930730066385F60A93074006E395CD
:103E7C00F6FE1C40084393F6070893054500C5C69B
:103E8C001C410CC363D807001307D002B307F040E2
:103E9C00A301E404970600009386467529476DA894
:103EAC00930700076384F61663E5D7029307E006D1
:103EBC00638BF6189307F006E390F6FA0C401C435C
:103ECC0013F80508138547006307080608C39C43CD
:103EDC008DA893075007E383F6FE93078007638B47
:103EEC00F61293073007E399F6F61C43D04181454F
:103EFC009386470014C383AA07005685FD2E01C57F
:103F0C003305554148C05C401CC8A301040471A88A
:103F1C001C43930A2404938647009C4314C3230137
:103F2C00F4048547D5B793F607041C410CC3B9DAE2
:103F3C00C207C18781BF93F5050408C3C9D983D7CC
:103F4C0007001307F0066388E60E970600009386B9
:103F5C00E6692947A30104044C400CC463C5050061
:103F6C0008406D9908C099E3B28A91CDB28AB3F535
:103F7C00E702FD1AB69583C505002380BA00B3D5B8
:103F8C00E70263F0E70CA147631EF7001C40858B2A
:103F9C0091CB58401C4863C7E70093070003A38FDD
:103FAC00FAFEFD1A3306564110C84E87CA867000B9
:103FBC00A2852685EFF03FD57D5A631E450B7D55B6
:103FCC00B250225492540259F249624AD24A424B9C
:103FDC0045618280A382D504970600009386066112
:103FEC000C40084313F805081C411105630D080229
:103FFC0008C313F7150001C793E505020CC0414730
:10400C00B1FB0C4093F5F5FD0CC0A9B79C4193E7AF
:10401C0007029CC193078007A302F40497060000D3
:10402C009386065E75BF13F8050408C3E30308FC0A
:10403C00C207C1837DBF970600009386265B21478C
:10404C0011BFAE872DB794411C43CC4913F8060819
:10405C00138547006306080008C39C438CC301A862
:10406C0008C393F606049C43F5DA2390B700232883
:10407C000400B28A1DBF14485686CA8526858299CB
:10408C00E30F45F31C40898B8DE7B2474844E35955
:10409C00F5F23E8535B785465686CA8526858299C2
:1040AC00E30F65F1050A5C443247998FE345FAFE4C
:1040BC00E9BF014A930A94017D5BF5B7011122CC4B
:1040CC0006CE2A8409C91C4D99E732C62EC4EFF0DE
:1040DC00EFD33246A245970700009387E74B631650
:1040EC00F60250401C46FD171CC663D00704184E40
:1040FC0063C7E70093F7F50F29476398E70222851A
:10410C006244F24005616FF0AF8D97070000938712
:10411C00A74A6314F6001044F1B797070000938781
:10412C00A745E311F6FC504475BF1C4213F5F50F7F
:10413C001387170018C22380B700F2406244056150
:10414C008280411122C42A842E8523AE01BE06C66C
:10415C00EFC03FD6FD576317F5009387C1BF9C4353
:10416C0091C31CC0B240224441018280411122C43F
:10417C002E848395E50006C64522634905007C48DC
:10418C00AA977CC8B2402244410182808357C40064
:10419C007D777D17F98F2316F400EDB783D7C50013
:1041AC00011122CC26CA4AC84EC606CE93F7071078
:1041BC00AA842E843289B68991C78395E5008946F5
:1041CC00014631228357C4007D777D17F98F231662
:1041DC00F4008315E4006244F240CE864A86B2496C
:1041EC0042492685D24405613DA8411122C42E8442
:1041FC008395E50006C6E128FD570357C400631BF1
:10420C00F500FD77FD17F98F2316F400B240224418
:10421C00410182808567D98F2316F40068C8FDB7E9
:10422C008395E50005A8411122C42A842E85B28508
:10423C00368623AE01BE06C6EFC03FC5FD576317D9
:10424C00F5009387C1BF9C4391C31CC0B24022446C
:10425C0041018280411122C42A842E8523AE01BEE5
:10426C0006C6CD20FD576317F5009387C1BF9C434D
:10427C0091C31CC0B240224441018280411122C42E
:10428C002A842E85B28523AE01BE06C6D120FD57E9
:10429C006317F5009387C1BF9C4391C31CC0B24008
:1042AC00224441018280411122C42A842E8523AEEE
:1042BC0001BE06C66520FD576317F5009387C1BF85
:1042CC009C4391C31CC0B2402244410182804111E5
:1042DC0022C42A842E85B285368623AE01BE06C63C
:1042EC006120FD576317F5009387C1BF9C4391C3B1
:1042FC001CC0B24022444101828093F5F50F2A96EE
:10430C006314C5000145828083470500E38DB7FE29
:10431C000505FDB782808280411122C42A842E8536
:10432C00B285368623AE01BE06C6A920FD5763179B
:10433C00F5009387C1BF9C4391C31CC0B24022447B
:10434C00410182809307800523AEF1BE7D558280AA
:10435C009307800523AEF1BE7D55828093078005BF
:10436C0023AEF1BE014582809307800523AEF1BEDA
:10437C007D5582809307800523AEF1BE7D558280EA
:10438C004572726F723A20253032580A00000000D4
:10439C002F4335312F2A000053746172742040432F
:1043AC0068697049443D25303258200A00000000ED
:1043BC00576169742044657669636520496E000015
:1043CC00537461727420554449534B5F64656D6F2F
:1043DC0020404348525633554649206C69627261FD
:1043EC007279000057616974204469736B5265617E
:1043FC00647900004F70656E000000002F4335316A
:10440C002F43485256334846542E4300B2BBB4E6B1
:10441C00D4DAB8C3CEC4BCFEBCD0D4F2C1D0B3F68F
:10442C00B8F9C4BFC2BCCBF9D3D0CEC4BCFE00001B
:10443C004C6973742066696C652025730A00000052
:10444C0020206D617463682066696C6520253034AA
:10445C0064233A2025730A0055C5CCD1DDCABECDE4
:10446C00EAB3C90055C5CCC3BBD3D0D7BCB1B8BA1D
:10447C00C320455252203D253032580A000000001E
:10448C00B3F5CABCBBAF55C5CCCAA7B0DCA3ACC78F
:10449C00EBB0CECFC255C5CCD6D8CAD400000000E4
:1044AC001CC9FFFF44C9FFFF6CC9FFFF84C9FFFF94
:1044BC009EC9FFFF5553422064657620696E00004B
:1044CC0055534220646576206F757400774C656E89
:1044DC006774683A2025780A000000006252657102
:1044EC0075657374547970653A2025780A0000005C
:1044FC0053656E643A2025640A00000052657365AA
:10450C007420686F737420706F7274007825303269
:10451C005820000047657443666744657363723ABC
:10452C0020000000496E6974526F6F7444657620E8
:10453C00457272203D20253032580A00446973615F
:10454C00626C6520686F737420706F727420626582
:10455C006361757365206F6620646973636F6E6E3B
:10456C006563740047657444657644657363723A99
:10457C00200000000000000000000000000000000F
:10458C00000000000000000000000000000000001F
:10459C00000000000000000000000000000000000F
:1045AC0000000000000000000000000000000000FF
:1045BC0000000000000000000000000000000000EF
:1045CC0000000000000000000000000000000000DF
:1045DC0000000000232D302B20000000686C4C00E4
:1045EC00656667454647000030313233343536371F
:1045FC0038394142434445460000000030313233E3
:10460C003435363738396162636465660000000002
:10461C0002010000000000008006000200000400FF
:10462C0080060001000012000005020000000000DE
:0C463C00000900000000000088070020BA
:1046480000000000A0450000C045000080450000B3
:104658000000000000000000000000000000000052
:104668000000000000000000000000000000000042
:104678000000000000000000000000000000000032
:104688000000000000000000000000000000000022
:104698000000000000000000000000000000000012
:0846A800E80B00208807002048
:00000001FF
