:040000006F10107DF0
:10000400000000000000000090000020C202002058
:10001400A9BDF9F5780300200000000000000000ED
:100024007803002090000020000000000000000081
:10003400900000200000000090000020000000005C
:1000440090000020900000209000002090000020EC
:100054009000002030080020F4030020000000007D
:1000640090000020900000209000002090000020CC
:10007400DE0300209000002090000020900000206B
:1000840090000020900000209000002090000020AC
:1000940001A04111B7170040985F3AC6945F3247F8
:1000A400E39CE6FE324541018280B7F70700011167
:1000B400944B13078008F337078093F787083EC2F1
:1000C4000F100000B71700401308700523800705C0
:1000D400930580FA2380B7040F10000003C6B70409
:1000E4001376F60DA385C7042380070412467326EE
:1000F40006800F1000001376050255CEF3360780F4
:1001040093F6860836C40F10000023800705238069
:10011400B7040F100000B70614007D89558D88C7F9
:10012400010001000100010023800704A246F3A698
:1001340006800F10000073370780137787083AC6CC
:100144000F100000238007052380B7040F10000060
:100154000F1000003727004093061005A303D78033
:1001640023800704B247F3A707800F10000093070A
:100174008008F3B7078093F787083ECE0F1000007E
:10018400B7170040130770052380E704130780FAAC
:100194002380E7040F10000003C7B70413670708A0
:1001A400A385E70423800704F247F3A707800F1011
:1001B4000000056182801376050459C273360780F6
:1001C4001376860832C80F100000238007052380A9
:1001D400B7040F10000037061400130606047D89C7
:1001E400518D88C70100010001000100238007042C
:1001F4004246732606800F1000007337078013777A
:1002040087083ACA0F100000238007052380B7042B
:100214000F100000A54793F6F60F639EF600B7276C
:10022400004013073005A383E780B71700402380FD
:100234000704D2470DBFB727004013072005E5B7D1
:1002440073370780137787083ACC0F100000238098
:1002540007052380B7040F10000098471367070CA5
:1002640098C723800704E247FDBD0111814601467A
:100274008145114506CE812C93078008F3B707808A
:1002840093F787083EC60F100000B7170040130706
:1002940070052380E704130780FA2380E7040F1016
:1002A400000003C76704136717002383E704238050
:1002B4000704B247F3A707800F100000F24005615E
:1002C400828041118146014681451145ED2A13077B
:1002D4008008F337078093F787083EC40F100000A7
:1002E400B7170040130670052380C704930680FAED
:1002F4002380D7040F100000FD552396B7022380F6
:100304000704A245F3A505800F100000733707808A
:10031400137787083AC60F1000002380C704238090
:10032400D7040F10000003C7670413671700238363
:10033400E70423800704B247F3A707800F100000E7
:1003440001A0BD473305F50201007D1575FD8280CE
:10035400411122C426C206C6AA840144631794002C
:10036400B240224492444101828005041305803E38
:100374004204C13F4180DDB79305000273A045806C
:1003840082457390153492402242B2424243D24392
:100394006244F244025592552256B2564257D257FD
:1003A4006258F25806499649264AB64A464BD64BF5
:1003B400664CF64C065D965D265EB65E465FD65F7D
:1003C4000961730020304111B7170040985F3AC6A5
:1003D400945F3247E39CE6FE324541018280B717C1
:1003E4000040130700032388E702854723A8F18A06
:1003F40073002030974000E0E7804089730020308C
:10040400411106C6EF00007FF5BF230304801547A2
:100414002303E48001002302A48082808307648094
:10042400E3CE07FE23030480828083076480E3CE47
:1004340007FE03454480828083076480E3CE07FE81
:100444002302A4808280411126C44AC24EC006C63B
:100454001377F50BAD47AA892E8995446306F700F7
:1004640019456537653F8D444E854537FD59FD1463
:1004740063983401B240A244124982494101828006
:10048400135509011375F50F453F2209CDB7011125
:1004940026CC06CEB704080051371545BD37713751
:1004A40069372AC6A53F32459377150089EB136552
:1004B40015001375F50FF240E24405618280FD14C6
:1004C400E9FC0145CDBF397126DC4ADA4ED852D653
:1004D40056D45AD25ED006DE62CE66CCB7E700E0D0
:1004E4007D5783AA070022C603AA470023A0E71862
:1004F40023A2E718B7170040130770052380E70409
:10050400130780FA2380E70483C74704930B75FF1E
:10051400B684E20793FBFB0F8546AA892E8B3289AA
:1005240037240040E187015763FA76016308D50058
:100534008946130700026313D5000157D98F93F737
:10054400F70FB71C00402382FC0411472303E48007
:100554001305F00F5D3D094CD135636D7C11B70572
:100564000700DA9537870700795563F2E504B38706
:100574009500636EF702370B0800A94733EB65015A
:100584006399F90689E48144513D26850DA0DA85F5
:100594000945553D05090345F9FFFD14050B693D62
:1005A40081C49377FB0FFDF7DD3569FD7D55B717E2
:1005B4000040130770052380E704130780FA2380A3
:1005C400E70403C74704418B2382E704F250B7E7EB
:1005D40000E023A0571123A24711E2543244525998
:1005E400C259325AA25A125B825B724CE24C2161AC
:1005F4008280A5476395F90685691309F00FB30650
:100604009900B3742B01B6941349F9FFB37499009C
:10061400856B33796901416B9387F9FFB3F7270140
:1006240099E363FC340193D94900C147E3E637FFFA
:1006340099BF0569C1697D19D9B71305800D638810
:100644006901130500026384790113051008CA8542
:10065400DD3B353D21DD4E99B3843441D9B7DA858C
:100664002D45D533CA94E30099F205097D3BA30FC8
:10067400A9FED5BF9387F9FF93F7F70F6361FC0CCD
:1006840083C71C0413073008631FF70437070800E7
:10069400636BEB04B3079B00B706100063F5D70444
:1006A400334BEB0089476393F9068980D549E38C82
:1006B40004ECDA850945413B11090327C9FF914739
:1006C4002320E48003076480E34E07FE2303348180
:1006D400FD17EDFBFD14110B81C49377FB0FE9FFAC
:1006E4007D3371F5E1B5B717004003C75704B70769
:1006F40008001377070219E3B78707007955E378F1
:10070400FBEA33079B00E3FFE7F855B58547E3822F
:10071400F9F2DA852D45053B9389F4FFE38504E678
:10072400293393F7390091EB8326048003270900CA
:1007340093074900E39AE6E43E89CE84F1BFB547C6
:100744006396F9001305900BC93135BDB147130504
:10075400B00AE38BF9FE99476391F904B7050800E1
:10076400B365BB002D45C53181448D4BA149753915
:1007740063967401832704802320F9008504E39899
:1007840034FF8327048013172B01635507002312BA
:10079400F900D5BB2322F900FDB39D476399F90203
:1007A40081451305B0044531BD44232009002322AB
:1007B4000900FD599D3993F77400CA9703C70700D0
:1007C400FD14398D2380A700E39634FF6DBBA14748
:1007D4006392F9046D398144630D0B008D479304D2
:1007E400C0036308FB009304000563048B019304B6
:1007F40040041375C507E30895D8194539313939CB
:100804000545213126850D3909453D314931E31C22
:1008140005D669BB91476399F90013056006F5365F
:10082400F53E130590090DB7E38F09D4F154A9BB24
:10083400197106C212C416C61AC81ECA22CC26CE04
:100844002AD02ED232D436D63AD83EDA42DC46DE2C
:10085400CAC0CEC2D2C4D6C6DAC8DECAE2CCE6CE9C
:10086400EAD0EED2F2D4F6D6FAD8FEDA9385818AAB
:100874008841E700050092402242B2424243D243FB
:100884006244F244025592552256B2564257D25708
:100894006258F25806499649264AB64A464BD64B00
:1008A400664CF64C065D965D265EB65E465FD65F88
:1008B400096173002030B7E700E09843B7062000D1
:1008C40023A0D718758F0F10000001C599C1814767
:1008D40011E6B7E700E023A0E7108280B386F500B5
:1008E40003C80600B306F500850723800601E31755
:1008F400F6FEC5B737E700E01C43B7062000232007
:10090400D718F58F0F10000019C191C111E637E710
:1009140000E02320F7108280910503A7C5FF11058D
:100924007D16232EE5FEDDB737E700E01C43B7064E
:1009340020002320D718F58F0F10000001C53307BE
:10094400C50011E637E700E02320F7108280050593
:10095400A30FB5FEE31DE5FEF5B7B7E700E0984346
:10096400B706200023A0D718758F0F100000814709
:10097400B306F5008386060099E6B7E600E023A0F7
:10098400E6103E8582808507E5B737E700E01C4323
:10099400B70620002320D718F58F0F10000001C5DB
:1009A40099C1014711EA37E700E02320F710054514
:1009B40082800507E309E6FE3308E500B386E50017
:1009C4000348080083C60600E305D8FE37E700E0C5
:1009D4002320F7100145828037E700E01C43B70667
:1009E40020002320D718F58F0F1000001307F6FFFF
:1009F400BA952A966317C50037E700E02320F7105D
:100A04008280FD1503C715000505A30FE5FEDDB7BC
:100A140037E700E01C43B70620002320D718F58FE2
:100A24000F10000001C53307C50019E637E700E0E1
:100A34002320F7100145828005058346F5FFE397DF
:100A4400B6FEE31BE5FE37E700E02320F71005457B
:100A540082807971974700009387477122D480433D
:100A640006D626D24AD04ECE52CC56CA5AC85EC6F4
:100A740069C037C9C901014B974900009389896E40
:100A84001309F937174A0000130A8A6E974A0000BF
:100A9400938A8A689744000093844472835724009D
:100AA40095E35C44631D0B00174700002320F76C9B
:100AB400832BC4002285EF00F0225E84A9A823269C
:100AC400FB00FDB783A7090082971C443307F54058
:100AD4006375F500D8401D8F2A976361E90897472D
:100AE400000023A3076483552400034504009740B2
:100AF40000E0E780C0365C405844B9C70C44D0409D
:100B0400AE97BE8663E4B70063E4C700B386C7400C
:100B140014C4228B3A8459F0974700009387C75F27
:100B24009C4B09476373F708F91717470000232DF7
:100B3400F75EB250225492540259F249624AD24AA0
:100B4400424BB24B4561828063170B00974700000C
:100B540023AEE760B1BF2326EB0099BF03274A0207
:100B64001DCF63E1A7043385A7408347040085E3D1
:100B740017470000034737615917B307A7003E859D
:100B8400D44063E4E70063E4D7003385D74083A708
:100B94000A016376F5009747000023A7A758228B24
:100BA400404495BFD840BA977DBF9747000023AD16
:100BB400075641B7974700009387C75F9C4385C397
:100BC400411106C682979747000083C7875989E772
:100BD4009747000023A0075EB240410182809747F7
:100BE400000083C7075891E79747000023A4075CD8
:100BF40082808280411122C417440000130484546B
:100C04001C4006C626C24AC091C782979747000077
:100C140023AA07529747000083C79773858B174908
:100C240000001309A97289CF834779001947631219
:100C3400F71097470000A38D07703D235C4482970B
:100C44001C4491C38297974400009384E4519840D4
:100C5400174600000346564C9747000083C7C74B0E
:100C640093961700BA9683D60600E5C2974700000C
:100C740083C7874A63E5C70E97470000238E07485A
:100C84001C40639E0714974700009387A74D9C431D
:100C9400638707149747000093874752DC4317473D
:100CA40000002323F74875339747000083C7B76ACA
:100CB400639707129747000083C7D76991CF83478B
:100CC400790093F7F70F89EB97470000A38407682F
:100CD400974001E0E780807F97470000938747496A
:100CE400DC53638E070E974700009387E7429C4BC3
:100CF400FDC78347790015476363F70E97470000E4
:100D040083C7476A918BE1EF9747000083C7674524
:100D1400F9E790409746000083C6164063C7D70C96
:100D24002244B240924402494101174300E0670063
:100D3400A374834779001D47E314F7F09747000035
:100D4400A388076015211C48DDBD850793F7F70FBD
:100D5400974600002382F63CE3E0C7F001BF860714
:100D64003E978355070023100700974700002399F7
:100D7400073E974700009387A73C9C431745000014
:100D84000345853913172500BA979C4382979747E3
:100D9400000083D7E73C174700000347E73793C7B2
:100DA400F7FF7D8D9317170098403E9783570700F0
:100DB4005D8D2310A7009747000083C7E73591C7CF
:100DC4008507174700002309F73417470000034736
:100DD400A7349747000083C73734E37FF7E8B2406E
:100DE40022449244024941018280139717003297AA
:100DF400035707006DF7850715B737C700408326EB
:100E0400C720B707FCFFFD17F58F2326F720010045
:100E140001009747000093872730C84F8327872610
:100E24002326D7206A0593C7F7FF99835D8D8280B7
:100E34000111974700009387E76222CC03A4070CB3
:100E440026CA06CE2AC42EC6854419E40145F240BA
:100E54006244D244056182808347910003471400B1
:100E6400858B6304F7000044CDB719469305A100B0
:100E740013052400193EE31895FE0545C9BF00007B
:100E8400EFF05FD373000000000000009742000001
:100E94009382222D0383020023800200630F030048
:100EA400F32510342EC0970500009385A5FD73909B
:100EB4001534EF00204E7300203086DCEF00804DA7
:100EC400E65082800000174700001307E7471443E9
:100ED400411122C49C5E4AC006C6998326C2858BF2
:100EE4003A84174900001309E945D1CB930700065A
:100EF4009CDE174700000347C74593070008974443
:100F040000009384A444631BF700832709009C43D7
:100F140093F7070417470000230DF74283C7040023
:100F240093F707049DC3974700009387A7239C4327
:100F340082979747000023A9A74283C7040093F729
:100F4400F70B174700002303F74083C7440093F7C8
:100F5400070495E7854717470000A30BF73E97471B
:100F64000000938727419C433707020098C7130763
:100F740000FC97460000238DE63C9848F8D31840BF
:100F84001C5F9183858B8DC31C5F93E707011CDF76
:100F9400974700009387073E9C4323A20706854793
:100FA400174700002306F73A83270900D84305832F
:100FB400058B19C7D843759BD8C3D843799BD8C32D
:100FC400B24022449244024941018280ED3D7300C3
:100FD40020309317D50063D3070297470000938707
:100FE40067399C437D57B8D7974700009387C7124A
:100FF400DC4F850717470000232EF71293778500EF
:101004009DCB9747000083C7873493E717001747A2
:101014000000230EF732930700F817470000230956
:10102400F732974700009387273298435C57F19B28
:1010340093E717005CD7937715008DC79747000097
:1010440083C7D73093E7170017470000A300F73092
:10105400974700009387472F98435C57F19B93E78A
:1010640017005CD79377650095CB937745001747B6
:1010740000001307A72DCDCB8347070093E7170084
:10108400174700002304F72C974700009387C72BCA
:1010940098435C57F19B93E717005CD79317F500CF
:1010A40063D407021747000003474743418B974720
:1010B40000009387273B51C383C7870793E7070241
:1010C40017470000230CF7409317E50063D7070286
:1010D4009747000083C7C727E207E18763D7070064
:1010E4008547174700002305F72697470000938795
:1010F40067289C433707020098C79317C50063D439
:101104000702174700000347773D058B9747000008
:101114009387473529C383C7970793E72700174762
:101124000000A30DF73A82808347370093E7170046
:1011340017470000A30DF72081BF03C7870789461F
:101144003D8B6308D70083C787070D47BD8BE39D9D
:10115400E7F69147B5B703C79707118B69D783C7DC
:10116400970793E7870065BF974700009387872019
:101174009443974700009387671D03C70700058BB7
:1011840011CB974700002385071C97470000A381D4
:10119400071C828003C71700058B65F7F85271FF9F
:1011A40083C75700DDB7174700001307E719032863
:1011B4000700832788039583858BADEF11C68327AA
:1011C4000803BD832300F6009DC61C43985B4607B5
:1011D400935767016356070093E707C0C207C183AB
:1011E40003970600C207C18709C7BA970947B3C75F
:1011F400E7022390F6008DCD8345150095C99747E6
:10120400000083C7071593F70704138795008945E2
:1012140085C33A95834705000547994593F6F70634
:101224006398E600E207E187814563D30700B94587
:101234002E8582808545EDBF411126C206C622C493
:1012440097440000938404133DED9440AE87F85214
:101254007DFF37F400E03E85974700002389070EA1
:10126400832704D1B285ED9B2328F4D0832704D1AE
:1012740093E787022328F4D073005010974001E0CD
:10128400E780200C974700009387070C9C43B70620
:1012940080009843558F98C3D857719BD8D79747E8
:1012A4000000A387070A97470000A381070A9C4010
:1012B400094798C3832704D193E787002328F4D0F0
:1012C400730050100DA08D476315F5049747000077
:1012D400938787079C43B70680009843558F98C32C
:1012E400D857719BD8D794401747000013070706B7
:1012F40083472700858B89EB83473700858BC1CBD8
:101304009747000023860704B240224492444101D7
:1013140082808547E319F5FCB7F700E003A707D1FE
:101324006D9B23A8E7D003A707D11367870223A8DF
:10133400E7D07300501098408177FD175447F58F1C
:101344005CC70F1000009840B70702001CC7930742
:1013540000F817460000230DF6FE97470000938718
:10136400A7FE9C439C439D83858B639FA7009307A3
:1013740060197CD354C737F700E0832707D193E77C
:1013840087002328F7D02DBF9307E01BDDB7FC525D
:10139400A5F39DBF974700009387C7FD9C438847EB
:1013A400D847798D09C988C79387419603A3070055
:1013B400630303000283828097470000938787FBBF
:1013C40098438967938707F47CD3974700009387F2
:1013D400A7FF9C4383A6070913965600635806008B
:1013E40083A6070913966600634406007453FDF24E
:1013F40082804111B7E700E022C480433707200010
:1014040006C6798C23A0E7180F10000011C199E5D6
:10141400B7E700E023A0871001457DA893073500B6
:10142400C207C183F19BC207C183130740036369E9
:10143400F702174700001307670208431747000025
:101444001307470114436392A602174700001307CA
:1014540027D2185B55DFC207DD8D054502974DBFC6
:1014640017470000130747FFC9BF035765002DEB5B
:10147400035745006366F706B306F7402146637CCD
:10148400D60203280500938687001D8FAA9661174C
:10149400174600000356A6C82392E60023A00601BF
:1014A4002393060014C12312F500130786FF974601
:1014B40000002396E6C62313B5009745000083D5A4
:1014C40005C6B387F54017470000231AF7C4B7E7EA
:1014D40000E023A087102105B2402244410182800C
:1014E400084195B7B7E700E08C433707200023A0F5
:1014F400E718F98D0F10000001E523A0B7108280D2
:1015040097470000938787F503A3070097470000D8
:10151400938747F483A8070081469A8763F2170DDF
:1015240003A807006361F50C636FA80A138787009B
:101534006368E50A03D66700216705076317E600B9
:1015440003C7C1950507238EE194174500001305D1
:10155400A5BC03D6470003576500239307003297C1
:1015640042074183174E0000231BEEBA638C6702C7
:1015740017430000130343EE032303006304F30241
:1015840003D366006310030283D7460023A0060139
:1015940021073E9621062392C60097470000239018
:1015A400E7B8B6879843630D170397460000938600
:1015B400A6EA94426306D7028356670095E283D66F
:1015C4004700035647001843A106B2962392D7005A
:1015D40098C383576500A107174700002311F7B488
:1015E400B7E700E019BFBE86C2870DBF0327851188
:1015F400630407120346E50485466300061241119D
:1016040022C406C68347C5002A8493F7C70F23065E
:10161400F500834597000358C7001395850161853C
:1016240063700609635905060345870093F5F507BA
:10163400A304B70093E527006314D50093E51700CE
:101644002306B4005C4389075CC3A30AC4000325D2
:1016540004114C430905EFF00FA6832784110346B8
:101664005401D44303D7C700B296118FD4C3239631
:10167400E7008947A30DF40003476403974700007C
:1016840083C727B06377F7048347C40093E7070150
:101694002306F4003DA893E717002306F40075B76A
:1016A4001376F80F635D05020345870093E5270071
:1016B4006314D50093E517002306B400A30AC400FD
:1016C400A30407008547A30DF400832784119C43DA
:1016D400C5F7B2402244814636854101828093E7B2
:1016E40017002306F400A30AC400A304070003257B
:1016F40004114C4342860905EFF0EF9B83278411C4
:1017040003465401D44303D7C700B296118FD4C300
:101714002396E7008D4745BF8546368582809747E7
:1017240000009387E7E69C43411122C406C6858BDB
:101734002A84C5EF4165130525F5970002E0E7808B
:10174400603B45C58347A5002315F5008327041294
:10175400BDE72320A4122322A41285472311F404F5
:10176400232005008347640154412316F5000347F1
:10177400D4002304E5000547A304E500174700004F
:101784001307C7BC58531385170215811C437D15D5
:101794001375F50F9CC25C43DCC21C479CC65C47B6
:1017A400DCC61C4B9CCA5C4BDCCA1C4F9CCE5C4FF9
:1017B400DCCE19CD9386060213070702C1BF832727
:1017C400441288C3835724042322A412850779B7BB
:1017D4009747000083D787C9850717470000231759
:1017E400F7C8B2402244410182808347C4002309E0
:1017F4000400054593C747002306F400DDB783477B
:10180400850193F7E70FD5EF83479501DDEB034699
:1018140025018346C50009CA8345650317470000AF
:101824000347379663E7E50013F7060141CF014705
:1018340009C6C18A0357651C81C68356A51C369701
:1018440051C31307C712174500000355A597B335B5
:10185400A70237460F00411113060624814622C40D
:1018640026C206C67D543305A702973002E0E780FE
:1018740080049747000083C71791B384A700974754
:101884000000938727BE03A787098327070963F30B
:1018940087003E84184375FB974700009387878C25
:1018A4009C43829781476364A400B307A440B24079
:1018B4002244B3B7970093C7170092443E85410171
:1018C400828081473E85828097470000938787AA5C
:1018D40098433C5BFDFF010001008280011122CC92
:1018E4004AC84EC606CE26CA52C456C25AC0034778
:1018F400B50085472A842E89832905096311F726B3
:1019040083570508835AC503174A0000130A0A8B34
:10191400174B0000035B0B8B63FB572183460501C8
:101924006397E62003278511631307200327450ADD
:10193400631F071E8346F5001D47639AE61E03478F
:101944001401B38AFA4013950A01418121CF937798
:10195400170099CB8357E40583560404958F63D508
:10196400A7001395070141819377270099CB8357EB
:10197400E41283560404958F63D5A70013950701D9
:1019840041819377070199CB8357C4148356040488
:10199400958F63D5A700139507014181218B11E32E
:1019A40011E105450357A4039307204E83244409FA
:1019B4003305A70237460F00814613060624330574
:1019C400F5029737000083C7077CB3549502B335FB
:1019D400AB02BE94C204C180231394083305AB0246
:1019E400973002E0E78020EDB307350133B5A70057
:1019F4002E953E8783264A0019E163E4D700338796
:101A0400D740B3846403B7460F009387F6239386C5
:101A140006242320E900A697B3D7D702D69763629A
:101A2400F7101D8F2320E9009739000093898973EB
:101A340083A7090083240900829763E5A4123385F0
:101A4400A4406354050C83A7090082970327090067
:101A54006361E512198D8357E403173700000357B8
:101A640067768E07B387E702130700329387071957
:101A7400B3D7E70263E7A710374A0F00130BFA2323
:101A8400973A0000938A8A73130A0A24835704043A
:101A940085072310F4048347041499E3228559220B
:101AA400228597F001E0E78060F875E98326040950
:101AB4008327C40803A74A00B6973E8563E4D7008A
:101AC40063E4E7003385E7408347F4018354640803
:101AD4002328A4088507A30FF4009737000083D7B1
:101AE400676EB384F402DA94B3D444036368950C48
:101AF400B304954083A7090023209900829763E3E8
:101B0400A40C3385A440E34305F89737000083C74A
:101B1400976763E7A7089747000023A5879E0145B9
:101B240041A083264A00B387F6403E97E5BD83541F
:101B3400640837470F009307F723B3846403BE9404
:101B440093070724B3D7F40263E7F900B387F94096
:101B54002320F900D1BD03274A00BA99C5BF23A0A9
:101B64003501D9B59737000093874765DC43BE94A8
:101B7400F9B59737000093876764DC43998F3E95E6
:101B8400D9BDA145228597F001E0E78000E3A305D4
:101B9400A402973700009387A75D9C5B81EF7D5576
:101BA400F2406244D2444249B249224A924A024B28
:101BB40005618280894515458297D5B7B30497405E
:101BC400AA940DBF83A74A00BE9425BF39C9011149
:101BD4006C0022CC06CE2A8411331DCDFD5763023E
:101BE400F502B2479735000083C5F55963EFB70096
:101BF40003459402B385B7402EC6973000E0E780D2
:101C0400A03DF2406244056182801737000013074B
:101C1400E75A5843BA97E9BF970002E0E780809EED
:101C2400CDB78280797126D206D622D44AD04ECE40
:101C340052CC56CA5AC85EC683475503034475132B
:101C4400AA843E941374F40F9307400263F687004A
:101C54001304B4FD1374F40F03AA841383AAC413E6
:101C6400A38B841222865285D685973002E0E780C2
:101C74008081058915E503CBD41201498149337B61
:101C84006403930B50024A865285D685972002E05E
:101C9400E780607F058915C5639169031374F90FA3
:101CA400238B8412B250225492540259F249624A4C
:101CB400D24A424BB24B456182808509E20993D9ED
:101CC40089410509E31179FDE1BF8327850903569D
:101CD4000504797193D60701BD8EC206C182358E83
:101CE4001357764093575640898B058B5D8F9357D6
:101CF4003640918B5D8F93571640A18B5D8F931760
:101D04001600C18B5D8F9317360093F707025D8F22
:101D1400931756009355860093F707041E065D8FAC
:101D24001376F60F518F93D7554013D63540118A49
:101D3400898BD18F13D67540D18F13D61540218A44
:101D4400D18F13961500418AD18F139635001376DF
:101D54000602D18F13965500137606049E05D18F83
:101D640093F5F50FCD8FA20745465D8F3307C70264
:101D740022D42A8426D252CC56CA032A8413832A14
:101D8400C4135AC806D636974207418393577740FF
:101D9400135557400989858BC98F135537401189CD
:101DA400C98F135517402189C98F1315170041890D
:101DB400C98F1315370013750502C98F1315570002
:101DC40093558700137505041E07C98F1377F70F02
:101DD400D98F13D5354013D755401189098B498FB5
:101DE40013D57540498F13D515402189498F139513
:101DF40015004189498F1395350013750502498FE4
:101E040013955500137505049E05498F93F5F50F39
:101E14004D8F2207D98FB387C7024AD04ECE5EC6F4
:101E240062C4B697C207C18313D7774013D557400E
:101E34000989058B498F13D537401189498F13D5EB
:101E440017402189498F139517004189498F1395AC
:101E5400370013750502498F1395570093D58700F2
:101E6400137505049E07498F93F7F70FD98F13D580
:101E7400354013D755401189098B498F13D57540C7
:101E8400498F13D515402189498F13951500418930
:101E9400498F1395350013750502498F1395550025
:101EA400137505049E05498F93F5F50F4D8F220791
:101EB400D98FB387C702130650025285D685B697C9
:101EC400BD8E93940601C18033F6C402137BF60FD2
:101ED400972002E0E780205B05890DED8347D4124B
:101EE40001498149B3849702130C5002C1804A8688
:101EF4005285D685972002E0E780E0580589937BD8
:101F0400F90F11C563863403850993F9F90F05099F
:101F1400E31F89FD230B6413B250225492540259D7
:101F2400F249624AD24A424BB24B224C456182800A
:101F34005E8BCDB70111973700009387A75222CC4F
:101F440003A4870C26CA4AC84EC606CEAA8413091F
:101F54002500854915C083C7140003473400858BC9
:101F64006304F700405CFDB71946930544004A85B5
:101F7400EFE0BFA1E31835FF2285F2406244D2446A
:101F84004249B24905618280411197370000938725
:101F9400674D22C403A4870C26C24AC006C6930414
:101FA4002500054901E82285B240224492440249B1
:101FB40041018280A6851305A402971002E0E78000
:0C1FC40020C3E30225FF405CF1BF0000D9
:101FD00097110020938181CA17510020130181823B
:101FE0001305400097E5FF1F9385C50117060020E4
:101FF000130606FE63FAC5008322050023A05500E0
:1020000011059105E3EAC5FE175502001305C5BD8C
:10201000970500209385C5FB1386818663FAC5006A
:102020008322050023A0550011059105E3EAC5FEB2
:102030001385818697350020938505576377B50012
:10204000232005001105E36DB5FEFD42739002BC2F
:102050008D4273904280930280087390023097E221
:10206000FF1F938222FA93E232007390523097322C
:1020700000009382A28773901234730020303D4396
:102080002A876373C3029377F700BDEFADE59376BC
:1020900006FF3D8ABA960CC34CC30CC74CC7410718
:1020A000E36BD7FE11E28280B306C3408A06970233
:1020B000000096966780A6002307B700A306B70026
:1020C0002306B700A305B7002305B700A304B70094
:1020D0002304B700A303B7002303B700A302B7008C
:1020E0002302B700A301B7002301B700A300B70084
:1020F0002300B700828093F5F50F93968500D58D68
:1021000093960501D58D61B793962700970200003D
:1021100096968682E78086FA9680C1171D8F3E9636
:10212000E374C3F8A5B7B717004003C77705137763
:10213000E70FA38BE704130700F8A38DE7043D47DF
:10214000238CE70413075003A38CE70403C7A705F8
:102150001377D70F238DE7048280B717004003C79A
:10216000E7020D8941111377C70F498F9306800845
:10217000F3B6068093F6860836C60F100000930665
:1021800070052380D704930680FA2380D7040F10AC
:1021900000002387E70223800704B247F3A70780E4
:1021A0000F1000004101828041112A83014E930EDD
:1021B000407E130F0019930F400663E56E129308DB
:1021C000001913034006B3781503854E0D4FA14F38
:1021D000337365020D891335150063EFBE121308C2
:1021E000F6FF794672984208135808013307C70270
:1021F00013D61700BE0732976146B3F6C602130620
:102200008070B386C6023697A166F58F42075D8F50
:10221000B716004083C7F60293F70708A303F1003F
:102220000346710083C7F60293F70708E394C7FEDD
:1022300083477100B716004093F7F70F63880712C2
:1022400093078008F3B7078093F787083EC40F1001
:102250000000B7170040930670052380D70493064B
:1022600080FA2380D7040F10000023AA070383C637
:10227000170393E60608A388D70223800704A24722
:10228000F3A707800F1000001166B71700407D16F6
:10229000D45BC85F93854703A98EF18EF5FA930648
:1022A0008008F3B6068093F6860836C60F10000045
:1022B000930670052380D704930680FA2380D70401
:1022C0000F10000098C103C7170313670704A38802
:1022D000E70223800704B247F3A707800F1000002E
:1022E000410182807D133368E3039308E016630E97
:1022F00008003368F3039308D01663080800937846
:10230000330093B818009388D81633081E01131EA3
:102310000801135E0E0155B56393E5030548638616
:1023200008000148630303002A8871087298FD15AC
:10233000131E0801C205135E0E01C18179BD13F899
:10234000150063F4BF007908D5B713381800E5BF4E
:1023500083C7F60293F70708A303F1000346710051
:1023600083C7F60293F70708E394C7FE834771001B
:1023700093F7F70FF1DFE9B531714AD966CB06DF84
:1023800022DD26DB4ED752D556D35AD15ECF62CD51
:102390006AC96EC7AA8C02D8EF0010122A89930767
:1023A0008008F3B7078093F787083EDA0F10000024
:1023B000B7170040130770052380E704130780FA5E
:1023C0002380E7040F10000003C7F7021377770F8D
:1023D000A387E70203C7F70213678700A387E70213
:1023E00023800704D257F3A707800F10000005458C
:1023F000AD33130780C13347E902116A93070AE836
:1024000093065002BD69930BA004814A014B13044B
:102410008008930470057D1AB347F9023307D70289
:102420003EC0FD873ECC938709A69309803E334783
:10243000F7023AC27D873AC4334739038549B399D5
:10244000990193D93940B306D702B30B7703B3C6CA
:10245000F602B3CBFB0236C6FD8636C893D6FB41E7
:1024600036CEB7460F00938606243349D9028566D7
:10247000938606FAB3969601B389E902130760556D
:102480003309D90293060010B389E9023349D9020E
:10249000B3C9F9029316390036CA37190040FD86D0
:1024A00036D0930D090493D7F9413ED2F336048018
:1024B00093F6860836DC0F10000093077005238022
:1024C000FD00930680FA2380DD000F100000834694
:1024D000390593F6860FA309D9048346390593E697
:1024E0001600A309D90423800D00E256F3A6068046
:1024F0000F100000130C80FA116DF336048093F670
:10250000860836DE0F100000930770052380FD005B
:1025100023808D010F10000083463905216693E664
:102520000602A309D90483560905B3E6A6012318B8
:10253000D90483560905D18E2318D90423800D00B0
:10254000F256F3A606800F1000008346390593F675
:1025500006026389061803463905218A6DDE0818CC
:10256000612F7336048013768608B2C20F10000004
:1025700023809D0023808D010F100000B7170040BD
:1025800003C637051376F60DA389C70403C63705BE
:1025900013660602A389C704835609052166B3E6BC
:1025A000A6012318D90483560905D18E2318D9040E
:1025B00023800D009646F3A606800F100000834688
:1025C000390593F606026386061483463905A18A07
:1025D000EDFE97E0FF1FE78000ACAA8636D497E0B7
:1025E000FF1FE78040ABA256E30AD5FE83560905DC
:1025F0004255B3E6A6012318D904392F834639057D
:10260000A18AEDDE03560905834629058247337604
:10261000CA00B306DA0293D5F641B296B388F64003
:10262000E24733B8C6002E983308F840A247B3B645
:1026300016013308D84063C70701631DF8009247AD
:1026400063FA1701C247634DF80E63950701B2475D
:1026500063E8F80E894663E7660FF24693151800A3
:1026600013D3F8015E8613951800B365B30042D604
:1026700046D4EF1092663258050B137BFB0F63476D
:10268000000163120838A258638F0836130815003A
:10269000B336A800B69513D6F5013298B336C80004
:1026A000AE9613581800FE06B3E606017336048092
:1026B00013768608B2C60F10000023809D00238089
:1026C0008D010F1000000356C902B296C206C182E6
:1026D0002316D90223800D00B646F3A606800F10FC
:1026E000000021BDF336048093F68608B6C00F10B3
:1026F000000023809D0023808D010F100000834681
:10270000390593E60602A309D90423800D00864605
:102710000DBDF336048093F68608B6C40F10000092
:1027200023809D0023808D010F1000008346390512
:1027300093E60602A309D90423800D00A646A5BD91
:10274000E30D0BF0F336048093F68608B6C80F103D
:102750000000930680FA23809D002380DD000F1087
:1027600000008346390593F5FC0F93F6860FA30905
:10277000D90483463905CD8EA309D90423800D00E1
:10278000C646F3A606800F100000130580FA034624
:102790003905930639051D8A63149629733604801A
:1027A00013768608B2CC0F100000130680FA23803F
:1027B0009D002380CD000F10000003C60600137695
:1027C000F60D2380C60003C60600136606022380AA
:1027D000C600835609051166D18E2318D904835685
:1027E00009052166D18E2318D90423800D00E64601
:1027F000F3A606800F100000130680FA8346390501
:1028000093F606026388062483463905130C3905BE
:10281000A18AFDDA0818CD21F336048093F68608E4
:10282000B6D00F100000930680FA23809D0023800D
:10283000DD000F10000083460C00116693F6F60DC4
:102840002300DC0083460C0093E606022300DC0034
:1028500083560905D18E2318D904835609052166AC
:10286000D18E2318D90423800D008656F3A6068046
:102870000F100000130680FA8346390593F606020E
:102880006385062083463905A18AEDFE97E0FF1F88
:10289000E78060802A8C97D0FF1FE780C07FE30C21
:1028A00085FF8356090511664255D18E2318D90438
:1028B000A5218346390513063905A18AFDDAF336C9
:1028C000048093F68608B6D40F100000930680FAB1
:1028D00023809D002380DD000F100000834606004A
:1028E00093F6F60D2300D60023800D00A656F3A61E
:1028F00006800F1000008356090503462905D247BC
:10290000B376DA003306CA021305800C9355F641FC
:102910003696330DF6408257333CD6002E9C333624
:10292000A601330CFC40330CCC403308850392568F
:102930004E86B335A5033305A503C295EF10F239D2
:1029400063468001631E0C16630C0D1613061500FA
:102950003335A6002E959356F5013696B335D6003D
:10296000AA959396F50105828585D18E6346B000C0
:10297000639D051A638B061A0356C9021582330537
:10298000D6003336C500B2956348B0006391052484
:102990001306F00F637DA622894663F3561593074D
:1029A0008008F3B7078093F78708BED60F100000A2
:1029B00037170040930770052300F704930780FA48
:1029C0002300F7040F1000008356C70289678117A0
:1029D000D58FC207C1832316F70223000704B65719
:1029E000F3A707800F100000FA506A54DA544A59CE
:1029F000BA592A5A9A5A0A5BFA4B6A4CDA4C4A4D2F
:102A0000BA4D296182801308F5FF3335A800FD1502
:102A10002E951356F5013298B336C800AA9651B1D7
:102A2000F336048093F68608B6CA0F1000002380A0
:102A30009D002380AD000F10000083463905CD8E28
:102A4000A309D90423800D00D646F3A606800F10F3
:102A5000000035BBF336048093F68608B6CE0F101F
:102A6000000023809D002380CD000F1000008346CE
:102A7000390593E60602A309D90423800D00F64622
:102A8000F3A606800F10000095BBF336048093F682
:102A90008608B6D20F10000023809D002380CD0051
:102AA0000F1000008346390593E60602A309D904F6
:102AB00023800D009656F3A606800F1000006DBB14
:102AC0009306F5FF33B5A600FD152E959355F50138
:102AD000AE96B3B5B600AA951396F501858269B591
:102AE000F336048093F68608B6D80F1000009306DC
:102AF00080FA23809D002380DD000F1000008356A4
:102B0000C9020566011693F6F60FD18EC206C18280
:102B10002316D90223800D00C656F3A606800F1097
:102B20000000850A93FAFA0F51B233E6B60045C2A7
:102B30000356C9023305D0403338A000B305B04076
:102B4000B385054115826345B000D1E16371A608E4
:102B5000894663F0560593078008F3B7078093F71B
:102B60008708BEDA0F100000B71700401307700582
:102B70002380E704130780FA2380E7040F10000086
:102B800003D7C7027D8B2396E70223800704D6571D
:102B900081BDF336048093F68608B6DC0F10000082
:102BA000930680FA23809D002380DD000F10000033
:102BB0008356C9020566011693F6F60FD18EC2063A
:102BC000C1822316D90223800D00E656B9B79307B8
:102BD0008008F3B7078093F78708BEDE0F10000068
:102BE00037170040930770052300F704930780FA16
:102BF0002300F7040F1000000356C70293975600F6
:102C0000B297C207C1832316F70223000704F657C1
:102C1000C1BB914763EEB70217370200130787382D
:102C20008A05BA959C41BA978287B717004003A7D7
:102C3000470B1345F5FF698F23AAE70A03A7070B84
:102C4000698F23A8E70A03A7070A798D23A0A70A9B
:102C50008280B717004083A6470B1347F5FFF98E14
:102C600023AAD70A83A6070B558D23A8A70A83A6F4
:102C7000070A758F23A0E70A8280B717004003A7D1
:102C8000470B498F23AAE70A03A7070B1345F5FF54
:102C900045BFB717004083A6470B1347F5FF758F55
:102CA00023AAE70A03A7070A598D4DB7B7170040B3
:102CB00003A7470B498FEDB7B71700408847420578
:102CC00041819377050491EB9377F5013755E8013E
:102CD000130505803345F50282809377050C1307B1
:102CE00000046397E7009377F50137459C1CCDB747
:102CF0002165130505D0828037E700E01C4354436B
:102D0000A183E206D58F1CC1FD572320F71823228B
:102D1000F7180F100000828013178500B7E700E056
:102D200023A0E710618123A2A7108280B7F700E0FB
:102D30008847CC478280814737370040A14663C42B
:102D4000C700328582800345B740E38EA6FE3385F7
:102D5000F5000345050085072304A740CDB797F785
:102D6000FF1F9387A7719C43173700201307C78362
:102D70003E95636EE500174700201307A788636838
:102D8000A70017F7FF1F232BA76E3E858280FD57F4
:102D9000EDBF411122C406C62A84393F2947B30733
:102DA000E502B2408D83B3D7870222449507B3D79B
:102DB000E70237370040C207C1832316F7404101BD
:102DC0008280716541111305052006C6D937B737D2
:102DD0000040130770F82381E7400D47A381E740C7
:102DE00013070004A380E74005472387E740B2406C
:102DF00041018280B7870040238007001307C0FC91
:102E00002386E700A386E70003D781862398E7009F
:102E100003D7C186239AE70003D70187239CE700E5
:102E200003D74187239EE70089462381D70249477C
:102E30002383E7022385E7022387E7022389D7025A
:102E4000A3810700130790022380E700B716004014
:102E500003D7A6011367070C239DE6007D57238344
:102E6000E700130710F8A380E7001D472381E70060
:102E70008280B78700402384A70203C7A702137785
:102E8000C70F2385E7028280797126D206D622D425
:102E90004AD04ECE52CC03C88500A1441378080214
:102EA0006311080683C8050009482E848144639A8B
:102EB000080503A84500AA89328A834718000348F9
:102EC00008003689A207B3E70701C2070D68C1876A
:102ED000130828906380070581440357A40097F7DF
:102EE000FF1F83D78714631EF700938781879C4356
:102EF00089CB0D473AC22316210152C44C004E859E
:102F00008297B2502254268502599254F249624A5D
:102F1000456182808547EF70B017AA845DFD938775
:102F20008187984355DB83471A0083460A004C008B
:102F3000A207D58FB337F00085073EC24E850297B2
:102F400069BF0111173502001305050722CC2EC6F3
:102F5000328436C406CEEF10526CB2458947A24681
:102F600003C605006319F602D841834717000347DB
:102F70000700A207D98FC2070D67C18713072790E3
:102F8000639BE700CC452390C6002285094697E065
:102F9000FF1FE7808092F240624401450561828014
:102FA00041677917630CE502411122C406C68547C3
:102FB0002A84639AF50022852244B2409385819B3E
:102FC00041016F90005489476396F5008545EFB045
:102FD000700F75D1B240224441018280828041113C
:102FE00026C2AA8441659385819B7D1506C622C4AD
:102FF000EF902051170500001305C5FAEFB0D0037C
:1030000097F6FF1F9386C6024146994517F5FF1FA5
:10301000130505FCEF9000442A8419C517350200FA
:10302000130545FAEF10725F2285B240224423ACAB
:103030009186924441018280411122C42E8493855D
:10304000819B26C206C6AA84EF70407F058915C100
:1030500097F7FF1F9387C7F783D7A702A285B240D0
:103060002310F400224426859244014641016F80DA
:10307000C059B24022449244494541018280CC412A
:10308000411106C6328503C6150083C50500220618
:103090004D8E42068D654186138875A2630C060F1E
:1030A0006348C804138845A26306060B634AC80038
:1030B000938535A26309B60623900600294679A0B8
:1030C000138855A26308060B938565A2E316B6FE26
:1030D000C1451D4663ECE5064546198E63F3C700FE
:1030E0003E862390C60097350200938565F089A837
:1030F000138895A26300060F634E060B1388A5A2E2
:10310000630A060F938505A5E318B6FA99451D468F
:1031100063EEE502198E63F3C7003E862390C60076
:103120009385C18031A89D451D4663E1E502214696
:10313000198E63F3C7003E862390C60093850188ED
:10314000BA9597D0FF1FE78040770146B24032859D
:1031500041018280AD451D46E3EAE5FE3146198E08
:1031600063F3C7003E862390C6009735020093851F
:10317000E5EBF9B7B1451D46E3EAE5FC3546198EA6
:1031800063F3C7003E862390C600973502009385FF
:10319000E5EA7DB7C1451D46E3EAE5FA4546198EE5
:1031A00063F3C7003E862390C600973502009385DF
:1031B00065E579B7C1451D46E3EAE5F84546198E50
:1031C00063F3C7003E862390C600973502009385BF
:1031D000E5E7BDB7C1451D46E3EAE5F64546198E6C
:1031E00063F3C7003E862390C6009735020093859F
:1031F000A5E2B9B7B5451D46E3EAE5F43946198EAF
:1032000063F3C7003E862390C6009735020093857E
:1032100025DD3DB797F6FF1F938646F54146CD4520
:1032200017F5FF1F130585E16F90C0222D453DEF77
:1032300003C5050009476317E5063285D0414111F2
:1032400006C6034716000346060041682207518F51
:10325000130628FE6308C7026369E60005186303C6
:1032600007032390060029451DA8130648FE630B9B
:10327000C7001518E31707FF15473E866377F70069
:10328000154621A03E8691C30546CC452390C60035
:103290004206418297D0FF1FE78020620145B2407D
:1032A000410182802390060005458280828083C789
:1032B000850093F70702E1E3411106C622C426C246
:1032C0004AC003C9050009432E888547631B69026C
:1032D00003A345003284B6848347130003430300ED
:1032E000A207B3E767004163130E13FE6382C703AF
:1032F0000D13638B67040D68130828906385070717
:10330000A947B2402244924402493E85410182804D
:10331000AD4765FB0547B547E365D7FE0325C80004
:103320000546A28597D0FF1FE78020590149938762
:10333000418A9843814771D7184361D72686A28571
:103340004A850297814775BFAD4745FF0547B54799
:10335000E369D7FA0325C8000546A28597D0FF1F69
:10336000E780A055E9B72244B2409244024985471C
:1033700041016F70E051A1473E8582804167791716
:10338000630CE502411122C406C685472A84639A6C
:10339000F50022852244B2409385818941016F90D6
:1033A000401689476396F5008545EFB0A05175D169
:1033B000B2402244410182808280411122C42A8489
:1033C0004165938581897D1506C6EF9080131705A9
:1033D00000001305E5FA0588EFB0004605C0224459
:1033E000B24097F6FF1F938626EA4146C54517F57A
:1033F000FF1F130565D841016F90C005B2402244FC
:1034000001454101828009C523A2A18A014582802C
:10341000454582801147636EA70697360200938662
:1034200026C40A0536951841411106C63697AE875F
:10343000B285028705476145639AE7000546138513
:10344000818897D0FF1FE78040470145B240410186
:10345000828005476145E39BE7FE05461385C188E9
:10346000CDB705476145E393E7FE0546138501891E
:10347000C9BF05476145E39BE7FC054613854189C4
:10348000C9B715476145E393E7FC15461385C18924
:103490004DBF09458280411122C42E8493858189C4
:1034A00026C206C6AA84EF706039058915C197F750
:1034B000FF1F938767CC83D7A70BA285B240231049
:1034C000F400224426859244014641016F80E013B6
:1034D000B2402244924449454101828011456FE047
:1034E000BFE9411193962500AA852D4506C697D0C0
:1034F000FF1FE78080FDB24001454101828001113C
:1035000022CC06CE3714004026CA4AC84EC652C442
:1035100083447405034AB40583498405034994052B
:10352000EFE07FC08347A40593F4F40F137AFA0FFA
:1035300093E71700230DF40493F9F90F1379F90FAA
:10354000B717004003C7A705058B6DFF03D5C70557
:10355000A38D4705238C3705A38C2705A38B9704E0
:10356000F2406244D2444249B249224A0561828013
:1035700041119397050122C406C6C1872E8463DDDD
:103580000700EF10A04B19C1EF10203F2165218DDE
:10359000B24022444101828093F7150013C5150003
:1035A000E5FB93F7250013C52500FDF3939725014F
:1035B00063D00702EF20A155153737F60200130636
:1035C00006E0896503C5C18AEF10D0280965C1B737
:1035D000939715010145E3DD07FA1735020013053E
:1035E000E5ADEF10920313060064916503C5C18A2F
:1035F000EF105026116561BF2D71232A9110FD74C3
:10360000E98C232C811023282111232631112A84AF
:10361000AE893289930600100A86A6852D45232E91
:10362000111097D0FF1FE78040EA13154401518124
:103630000A0513962900CA850A9597D0FF1FE780CF
:10364000C027A68585660146254597D0FF1FE780E0
:10365000C0E70A86A68593060010294597D0FF1F6C
:10366000E780A0E68320C111032481118324411146
:10367000032901118329C11015618280B7F7070062
:1036800003C70701411106C622C426C24AC0A54786
:10369000631AF7009537B24022449244024901452B
:1036A0004101828013942500AA843289A286AA85CA
:1036B0000146254597D0FF1FE78020E1A2864A8674
:1036C000A685294597D0FF1FE78020E0E9B71D7147
:1036D0004946973502009385E59917350200130591
:1036E00065F186CE97D0FF1FE780602A01E9173584
:1036F000020013056599EF10427201A0B7F600E0D1
:10370000795798CAFD57DCCA0567B7E700E023A0E0
:10371000E7101306F00290C223A0E7180F10000074
:1037200017D7FF1F1307C77623A4E18A4157A38A3F
:10373000E740130600048145080897D0FF1FE78083
:10374000E01E97070020938727183EC88967938754
:103750000780231AF1009D673ECCB70701059387C8
:1037600007103ECEED472310F10285472301F102F9
:1037700097070000938727D7BEC29707000093875B
:1037800027F0BEC48567938757D12312F10297F7BC
:10379000FFFF9387E7593ED8B7F50700970700006A
:1037A000938727D63EDC814697070000938747D34F
:1037B0003000E10519453EDE97D0FF1FE780E0D0DD
:1037C00018088147994630003E9603460600850753
:1037D0000507A30BC700E398D7FEC24791C703575D
:1037E000410185676373F70001A08307410263D736
:1037F000070493078008F3B7078093F787083EC450
:103800000F100000B7170040130770052380E7046E
:10381000130780FA2380E7040F100000B847B706AB
:10382000100013670718B8C79853558F98D3238093
:103830000704A247F3A707800F1000000808EF1045
:10384000306CAA8501C91735020013052585EF10D4
:10385000224B01A0F640256182804111170500002E
:10386000130545D106C622C4EF10D0651384C18A62
:103870002300A4001928034504002244B240130683
:103880000032896541016F10E07C797106D613071B
:103890008008F337078093F787083EC20F100000B7
:1038A000B7170040930570052380B704130680FA0C
:1038B0002380C7040F10000083C6F70293F6A60FFB
:1038C000A387D702238007049246F3A606800F1031
:1038D000000073370780137787083AC40F10000081
:1038E0002380B7042380C7040F10000003C7F7022A
:1038F00013672700A387E70223800704A247F3A7E3
:1039000007800F1000000545EFE03F85C13E81476D
:1039100001478146054685451305407EEFE0DF8877
:1039200068005146814597D0FF1FE7802000B70708
:10393000C0A83EC8B787E803938707D03ECA68008F
:1039400097D7FF1F938767A83EC6EF20400FB2505E
:103950004561828010C90CC14CC10CC5232A0500E9
:10396000B2954CC510CD23AAD18A82801387418B92
:103970001C43011122CC26CA06CE2A84BA8499C7D8
:10398000054532C62EC482973246A2451C480545DD
:1039900063E2C70658405C44998FB386F5003387CD
:1039A000C50063E7C702638EE5025C408505938628
:1039B000170054C083C6F5FF2380D700EDB75840E9
:1039C00085051305170048C003C5F5FF2300A700B0
:1039D000E397D5FE1840B307F64058C0014763602F
:1039E000F7021C480145918F1CC85C483E969C40DC
:1039F00050C895E3F2406244D244056182804C4055
:103A00001385150048C03385E6000345050005070A
:103A10002380A500E9B782970145E9BF1387418B51
:103A20001C43011122CC26CA06CE2A84BA8499C727
:103A3000054532C62EC482973246A2455C480545EC
:103A400063E3C70618445C44998FB386F500338757
:103A5000C50063E7C702638EE5021C4485059386B3
:103A6000170014C483C70700A38FF5FEEDB71844F1
:103A700085051305170008C403470700A38FE5FE5B
:103A8000E397D5FE1840B307F64018C401476361B9
:103A9000F7021C480145B2971CC85C483386C740F2
:103AA0009C4050C895E3F2406244D2440561828054
:103AB0000C441385150008C403C50500B385E60052
:103AC00005072380A500E1B782970145E9BF9387E9
:103AD000418B9843011122CC26CA06CEAA843E848B
:103AE00019C7054532C62EC402973246A245DC48A6
:103AF000054563E9C7049444DC44958F63E9C70432
:103B000081473387F600638CC7020345070033877C
:103B1000F50085072300A700EDB7034805003385AE
:103B2000E5000507230005013385E600E317F7FEEE
:103B3000884001471D8EB306E500636CC7001C403A
:103B400001458DE3F2406244D24405618280014721
:103B5000E1BF03C80600B306F700AE962380060156
:103B60000507D1BF82970145F1BF9387418B9843E9
:103B7000011122CC26CA06CE2A84BE8409C7054577
:103B80002EC60297B2455C48054563E9B7021C445E
:103B900058441D8FAE976376B7001C403387E540CD
:103BA000BA971CC41C480145AE971CC85C48B38535
:103BB000B7409C404CC899C382970145F24062448B
:103BC000D244056182809387819C23A4F1869387E8
:103BD00081A823A6F186938781B0411123A8F1869D
:103BE000938781B806C623AAF186EFF0AFA0B24052
:103BF000B7E700E03707400023A0E71041018280CB
:103C0000B787004083C7A70205458D8BB9C393874B
:103C10000187138541C18C435849411106C622C40E
:103C2000930700029385050463FEE7001306000274
:103C3000F53313050002EFF0CFA3B2402244014553
:103C40004101828040491376F40FC93B1375F40F8C
:103C5000DDB78280938701878C4341112A861385C3
:103C6000014306C6213319C517250200130505486F
:103C7000EF10A21AB24003C5018213060002930599
:103C8000000241016F10003DB787004003C7670085
:103C90001377F70F9376270063830646011106CE4C
:103CA00022CC26CA4AC84EC603C777009306000333
:103CB00013770703630BD70203C777009146137787
:103CC000F703630CD71E63E3E60C85466305D71C38
:103CD0006309071C8946630DD7188D46630DD71AF3
:103CE000B787004009472383E700378700408347B1
:103CF0007700E207E18763DE072C930720FC2301AE
:103D0000F7029386818688420347750083476500E2
:103D100022075D8F239DE18A83471500A38CF18ADA
:103D20008344050013F604066305061E1307000C02
:103D30006399E4321307F005639EE7189737020092
:103D4000938707E623AEF18A014409469387C18B26
:103D50008C43EF00926F9307F00F6301F42683D733
:103D6000A18B930600043E8763F4F600130700045A
:103D700042074183998F9376F70F239DF18AB78786
:103D800000402380D702130700FC2DAC93062002CD
:103D9000630AD70E63E3E602930600026306D704C4
:103DA00093061002E31ED7F203C767021377C70F0B
:103DB000136727002383E70225B7930630026305C4
:103DC000D70E93064002E31DD7F003C7270313471E
:103DD00007042389E70203C727031377C70F136775
:103DE00027002389E702EDBD03C7918B9546630346
:103DF000D7069946631BD7069387A18B03D4070088
:103E000013070004BE8463748700130400049387BF
:103E100081861389C18B8843420483250900418030
:103E20002286EF00926283D704009379F40F818F8A
:103E3000239DF18A832709003E9423AE818AB787A8
:103E400000402380370303C7270213470704238159
:103E5000E70279B503C7370083C6A18B137707083C
:103E6000558FA381E7000947DDB723800702E5BF2F
:103E700003C7770013770704E30407E603C5870049
:103E8000D13BB9BD03C7A7021377C70F136727003C
:103E90002385E702B1B503C7770013770704E30171
:103EA00007E483C787002DBD03C7E7021377C70F59
:103EB000136727002387E70225B503C77700137729
:103EC0000704E30F07E003C7270313470708238905
:103ED000E702C1BF130750091304F00F6399E7020B
:103EE0008347350003472500A207D98F61476397B1
:103EF000E700973702009387E7CAA9B5194701443D
:103F00006397E70097370200938707CA25BD0146EC
:103F100035BD29466364F60A172602001306461AC1
:103F20008A07B2979C43B2978287834735008346BE
:103F300025000946A207D58F93D687006382C60A5B
:103F40006368D6008547638FF6001304F00F09A855
:103F50008D456381B60A930720020144E397F6FE7C
:103F6000814709A8972702009387C71B23AEF18AD0
:103F70000144C947C207C18363F4E700239DF18A66
:103F80009387A18B03D607009307000463F4C7004F
:103F9000130600049389C18B1319060183A5090038
:103FA000135909014A86EF00524A03A609004A96AE
:103FB00023AEC18A9307F00F6315F40AB787004058
:103FC0001307F0FC2381E702B787004009472383EA
:103FD000E700F2406244D2444249B249056182801E
:103FE000972702009387871123AEF18A0144930734
:103FF000700249B793F7F70F8546638ED7008DC7D8
:10400000E395C7F4972702009387071423AEF18A3C
:104010000144F14785B7972702009387E71123AE44
:10402000F18A0144B947B9B797370200938707B7B8
:1040300023AEF18A0144914735BF83472500239D74
:10404000F18A05A083C7818B2300F50003D7A18BDC
:10405000854763F8E7008547DDB783472500238C54
:10406000F18AE204E184E3CC04CE814609BB13F774
:10407000F4018947E314F7F4834745006381E704BB
:10408000636CF7000547E39BE7F2378700408347FF
:10409000670293F7370799A0130710086388E702B0
:1040A00013072008E39CE7F0378700408347A70207
:1040B00093F7C70B93E727002305F7025DB7378710
:1040C00000408347A70293F73707FDB737870040C3
:1040D0008347670293F7C70B93E727002303F70291
:1040E00049B7230005009DB7230005009C42A3802B
:1040F000070003D7A18B8947E3F5E7F689B79376E5
:1041000017008DC2A381070009472381E7024947B1
:104110002383E7022385E7022387E70205472383FA
:10412000E700828093764700FDDA03C75700114706
:10413000FDB709C993070008739007800F100000AE
:10414000014582809307800873900780D5BF2A8637
:10415000B305B04017250200130505156F00523A4C
:10416000011106CE19C589476301F502F2400561C8
:104170008280680097C0FF1FE78020741725020027
:104180001305851FEF007249D5B7680097C0FF1F60
:10419000E780A072172502001305C51FE5B783D776
:1041A000018D6390A7022399B18C239AC18C239B24
:1041B000D18C2E86172502001305050DBE856F00D4
:1041C0003234172502001305A50D6F001245035761
:1041D0004500011106CE83D7018D631FF702C16729
:1041E000F917894503C5018223A8F18C23AA018C04
:1041F000EF10C010914503C50182EF1020108547D4
:104200001306F100854513055030A307F100EF7048
:104210005142F240056182801725020013054508CE
:10422000EF00B23FFDB73D897D15954763E4A716C2
:1042300017270200130707F30A053A951C4141119D
:1042400022C406C6BA972E8482871725020013055A
:1042500025072244B24041016F00323C83C725004C
:1042600019476391E7022E859D3783456400172522
:1042700002001305E505EF00B2281725020013051B
:10428000E506C1BF0D47E38AE7FEB2402244410183
:10429000828003C725009547E319F7FEC16703D75E
:1042A000018DF91703D5A500630FF700EF70916A30
:1042B0001725020013058504EF003236172502008A
:1042C0001305450679B72398A18C83D7E50013061B
:1042D000006403C501822399F18C83D70501239AD9
:1042E000F18C83D725018945239BF18CDD472396EB
:1042F000F182EF003056096613060690A14503C50A
:104300000182EF0030550566130606C8914503C5C6
:104310000182EF0030540356E4008355A4001725B2
:1043200002001305E5FEEF00B21D49BF03C72500DB
:104330008D47172502001305A5FFE318F7F411BFF9
:1043400083C5250091476397F500172502001305E3
:10435000A5FF01B79947639FF50022858D3D8345F1
:104360006400172502001305A5F62244B24041015E
:104370006F0012199547639AF50083471400F1F70F
:1043800017250200130505FEE9B5172502001305E0
:10439000E5FDE1BF82809C410947638FE7000D473F
:1043A0006382E70205476392E706AA8517250200A4
:1043B000130585E76F00D214AA851725020013059F
:1043C000E5E8CDBF411122C42E8483D58500172591
:1043D00002001305E5E906C6EF00921203568400B9
:1043E0004C40138541C1EFF06FD819C51725020065
:1043F0001305C5CFEF0072222244B24003C50182EB
:104400009305000441016F005025828079711705E2
:1044100000001305E52406D622D426D2EF10802A08
:1044200093840182994705442380A400231AF10054
:10443000100893074006854513055030231CF100F2
:1044400023088100EF70F11E17E6FF1F130606ED2B
:10445000E14513057030EF70D11D138641829D45F3
:1044600013056030EF70F11C5008894513051031B9
:10447000EF70311C3008894513052031EF70711B36
:10448000930500050D45EF30A00293050005114589
:10449000EF30000285457945EF30800130089145C5
:1044A0001305704023048100230681002308810046
:1044B00002CC230A0100EF6041503000854513050E
:1044C0000040EF60814F7000854513051040EF609C
:1044D000C14E5008854513052040EF60014E10087D
:1044E000854513055040EF60414D7D55EF505037E5
:1044F0007D55EF70F07DEFE0FFD17D55EFE0FFEBF4
:1045000017050000130565E9EFE07FAD17E6FF1F13
:10451000130646DFD5450145EF5030238947230672
:10452000F1008D472308F1009147230AF10093879A
:104530000186984383C747003000854501453ACC42
:10454000230EF10023048100EFE0DFEC70008545CD
:104550000545EFE03FEC100885450945EFE09FEB8E
:10456000500885450D45EFE0FFEA300895451145B7
:10457000EFE05FEAC1671387018DF9171CC323229F
:1045800007001385C181EFE01FE81385018CEF5010
:10459000411103C5040085450564EF00100C1306A6
:1045A000048097060000938606B997F5FF1F938550
:1045B000A5B113850143EFF0EFB913060480970608
:1045C0000000938646B797E5FF1F9385252E138538
:1045D00041C1EFF02FB8B25022549254456182800D
:1045E00041112E8683D5C18206C622C426C2938776
:1045F000E5FF634FF60017250200130565C0EF00C5
:1046000022706D442285B24022449244410182804E
:10461000420641820147AA848146ED4503D5018DBA
:104620002395C18CEF50905B23A6A18C054479D9CA
:1046300003D6A18CA68597C0FF1FE78000280146FE
:104640009385818C03D5018DEFE01F9F2A845DD96E
:10465000ED451385818CEF5030706DB7797122D4A0
:1046600026D206D64AD04ECE52CC001893970501DA
:10467000C187AE8463D5070A03C50182C1262A8992
:1046800039C5834705001307000B6389E706130745
:10469000000D639CE7028347250045476385E704D7
:1046A00065476394E7020348A500834795000347E5
:1046B0008500834675000346650083455500172530
:1046C00002001305A5ABEF00A2634A857D24216596
:1046D000258D130104FDB250225492540259F2491F
:1046E000624A45618280034665008345750017254F
:1046F00002001305A5ABEF00A260C1BF0347450050
:104700009307F007E313F7FC835585001725020094
:10471000130585AB2396B182EF00825E7DB793F7D8
:10472000150091CF17E6FF1F130606BD938581C0C4
:1047300003C50182EF70413C13C5140059BF93F7C4
:104740002500ADCF13060064894503C50182EF0043
:104750007010930780F8230AF4FC03D7C1828D47B9
:1047600063EBE70017250200130545A7EF00E26A97
:1047700013C52400B9BF8547014781460546ED456D
:1047800003D5018D231DF4FCEF505045232EA4FCCE
:1047900065D10356A4FD930544FD97C0FF1FE78034
:1047A000C011930584FD03D5018DEFE0DFCE69D103
:1047B000ED45130584FDEF50305A5DBF93F785003A
:1047C00085C383C70182130740068146130640064E
:1047D000994503D5018DEF70812D13C58400D5BD9A
:1047E00093F705019DC3014789460946814503D5D5
:1047F000018DEF707118AA85172502001305059F1A
:10480000EF00025013C50401E9B593F7450085C3D5
:1048100003D5018DEF70D1130566130606C89145C7
:1048200003C50182EF00100313C544005DB593F783
:104830000502D1C713890143138AC1828327490125
:10484000A1C783D7C1821386D7FFB107918392078F
:104850008A893301F140832749016372F6048A850E
:104860004A85EFF0CFA683450A000A85F51593F532
:10487000F50FBD3309CD130600059305000203C5EE
:104880000182EF00207D4E8113C5040299B583D5C6
:10489000C182F5154A85EFF04FAD4E8145B703262D
:1048A00049018A854A85EFF08FA2832549010A854F
:1048B00093F5F50F353361F183254901E1BF93F796
:1048C00005040145E38707E0938741C1DC4B91CBA9
:1048D000EFF00FB315469305000403C50182EF0006
:1048E000607713C50404F5B341111305800406C6AF
:1048F00097B0FF1FE780A07B371700408327870A08
:104900008D451305002093E707202324F70AEFE0E5
:104910004FB0EFE00FCB172502001305A5CDEF0038
:10492000C24FEFE0DFDAEFE05FF3EF703105EFF059
:10493000FFADEFF04FA997C0FF1FE780A0AC23ACFD
:1049400005FE1C4191E7010001000CC18280BA877D
:1049500003A787FF6DFF23ACB7FE8280184183A7B2
:1049600085FF6319B7001CC1FD5723AC05FE238FDB
:10497000F5FE8280232CF6FEC5BF411122C437E428
:1049800000E026C204403707200006C6F98C232029
:10499000E4180F10000009E9232094101545B240D7
:1049A00022449244410182800347E5FF9307F00FC0
:1049B0006306F700232094101145D5B797D0FF1F49
:1049C000E78080B2014523209410D1BF411126C257
:1049D000B7E400E04AC003A90400B707200006C6F8
:1049E00022C43379F90023A0F4180F10000009E95C
:1049F00023A02411B2402244924402494101828002
:104A00009565938505D0C98D2A842105C205420587
:104A1000C181418197D0FF1FE780E09D01CDFD5707
:104A200023200500231285002303F50023A0241171
:104A30002105C9B723A0241101456DBF0111B7E7B6
:104A400000E04AC803A907004EC63707200006CE7B
:104A500022CC26CAAA893379E90023A0E7180F10CF
:104A60000000970700209387E76A8043814401464E
:104A700019E499E8A1654E85EF00500805A0834729
:104A8000E4FF6399370385CCA6851705002013053D
:104A90006568E93565D0A1654E85C126F24062445E
:104AA000B7E700E023A0271126854249D244B24946
:104AB0000561828091E02286032484FF55BFA28491
:104AC000E5BF41114AC037E900E022C403240900D0
:104AD0003707200006C626C2798C2320E9180F105C
:104AE000000089E523208910154515A0AA849707A1
:104AF000002083C777622E8563F5F400894763EE53
:104B00009700A53DB7E700E023A087100D45B24010
:104B10002244924402494101828083A785FF99E79C
:104B200003C7E5FF9307F00F6308F700B935B7E750
:104B300000E023A087104DBF238F95FE17050020AE
:104B40001305455DED3BA1652685012E014523201A
:104B5000891075BF9707002023AE075A82809707F8
:104B600000209387A7609C4399E33E85828003D70A
:104B700027006316B70003C70700E308A7FEDC475A
:104B8000E5B7A5C1011106CE22CC26CA8147C14690
:104B900033D7F540058B29C312053E9531473305C0
:104BA000E502170700201307A760044305443314E8
:104BB000F4002EC642044180AA949C40C8408297CB
:104BC000B24523A0040023A20400A18DF240624458
:104BD000D2442E85056182808507E39BD7FA014484
:104BE000EDB72E858280C9C1797122D406D626D22E
:104BF0004AD04ECE01444147B3D78540858BA5C3EB
:104C00001205314722953305E50297070020938767
:104C1000275A03A907008544B3948400C204C180C5
:104C2000BE892A990327090011C7032549002EC60A
:104C30000297B24531473304E40283A709003E944A
:104C40001C4489E72320090023220900B250225482
:104C5000A58D02599254F2492E8545618280050442
:104C6000E31CE4F88144DDB72E8582804111B7E76B
:104C700000E022C480433707200006C626C2798C94
:104C800023A0E7180F100000970700209387474ED6
:104C90009C539384018399C782979C403E9523A897
:104CA000A18239A0970700209387C74B9C43EDF75B
:104CB0008840B74703009387D73F3305F502B7A76E
:104CC0002600938737ECB24092443E9523A8A182F8
:104CD000B7E700E023A08710224441018280011140
:104CE000B7E700E022CC80434AC83707200006CE51
:104CF00026CA2A892E86798C23A0E7180F10000077
:104D0000131506019305F004418132C697C0FF1FB9
:104D1000E780606EAA8419C53246CA8597C0FF1F16
:104D2000E780A0B9B7E700E023A08710F240624413
:104D300026854249D244056182807971B7E700E057
:104D400022D480433708200006D626D24AD04ECE41
:104D500052CC56CA5AC85EC662C43374040123A03A
:104D600007190F10000005E123A087100945B25074
:104D7000225492540259F249624AD24A424BB24BEF
:104D8000224C45618280970700209387A73D9C4372
:104D9000BA8A368AB28B2E8BAA898297970700200F
:104DA0009387074198433E898144B146C147338C7C
:104DB000D40233068701104241EAC165938505F0AC
:104DC000414597C0FF1FE780006305E1970700207A
:104DD0009387073A9C5B81C7814511458297B7E766
:104DE00000E023A087102D4559B79707002093872F
:104DF000E737984331E79707002023A9A736230018
:104E0000050083270900054733179700232605006F
:104E1000232475012311E50023225501E29723A0E5
:104E2000370123A2670123A4570163040A0023006A
:104E30009A00B7E700E023A0871001450DBF3E8729
:104E40005C47F5FF48C765BF8504E392F4F6B7E712
:104E500000E023A08710214519BFB7E700E0984381
:104E6000B706200023A0D718758F0F1000009706F3
:104E7000002083C6762A6373D50217060020130626
:104E8000A62E931615000842369583560500D58D3B
:104E90002310B50023A0E7100145828023A0E7106E
:104EA0000D458280B7E700E09843B706200023A0B5
:104EB000D718758F0F1000009706002083C6D625DF
:104EC0006375D502170600201306062A93161500EF
:104ED000084293C5F5FF369583560500F58D2310DE
:104EE000B50023A0E7100145828023A0E7100D45FF
:104EF0008280011137E700E026CA0443B70620008C
:104F000006CE22CC4AC84EC652C4F58C2320D718F0
:104F10000F100000130705FF1377F70FFD4763E538
:104F2000E70AB146B306D5029707002093874728C2
:104F3000984336971C43C9CB135A450005443D8915
:104F40003315A4001314050141802E895285A285D2
:104F50003931AA8929CDA2855285A9379707002022
:104F6000938747209C4382979707002083D7872504
:104F7000338727032A84814613060064B3B72703C7
:104F800013050732B335E500BE95EFF09112B30774
:104F9000850097060020938666223E87D44263E40C
:104FA000A70063E4D7003387D74023A4E900B7E71D
:104FB00000E023A097100145F2406244D2444249E8
:104FC000B249224A05618280B7E700E023A097102A
:104FD0000945DDB70111B7E700E026CA844337076A
:104FE000200006CE22CC4AC84EC6F98C23A0E71872
:104FF0000F100000BD4763E9A70431473307E502FE
:10500000970700209387C71A9C43BA979C438DCF7C
:1050100005443314A400420441802E890145A28531
:105020003D3EAA8911C5A2850145AD3D23A42901B4
:10503000B7E700E023A097100145F2406244D24454
:105040004249B24905618280B7E700E023A097108A
:105050000945E5B779714AD037E900E026D28324C3
:105060000900B707200006D622D44ECE52CC56CA2D
:105070005AC85EC6FD8C2320F9180F100000970750
:10508000002083C77709637AF5009707002093878C
:10509000670D83AB070063970B00B7E700E023A021
:1050A0009710A9A0170B0020130B4B11832A4B005C
:1050B000B74736FE938707C82E8A9705002083D509
:1050C0006510BE9AB387C5022A84B2898146B3B5FA
:1050D000C50213850732B337F50013060064BE9589
:1050E000EFF0217D63F0AA02232099100145B25010
:1050F000225492540259F249624AD24A424BB24B6C
:1051000045618280829B9705002083D5A50BB387DC
:1051100035032A89130600648146B3B53503138528
:105120000732B337F500BE95EFF0A178B30725013C
:105130003E8903274B0063E4A70063E4E70033895B
:10514000E740D2852285EFF09FA109C923242501DC
:10515000B7E700E023A09710054551BF936504F021
:10516000C205C181414597C0FF1FE780C02819E9EA
:10517000970700209387C7FF9C5B85D3A2851145C5
:10518000829721BF97070020938747FE9C4385E7BE
:105190009707002023ACA7FC85472326050023247E
:1051A00025012311450123008500A300F5002322DA
:1051B000050079BFBA87D84775FFC8C7F1BF7971B5
:1051C000B7E700E026D284433707200006D622D472
:1051D0004AD04ECE52CC56CA5AC85EC662C466C2C7
:1051E0006AC0F98C23A0E7180F1000003DC14144AC
:1051F000B689B28A2E8A2A89B14C170B0020130B6C
:105200002BFB054D130C0003B30B940303270B007A
:105210005E971C43A5E39375F400B315BD001355C9
:105220004440C2055686C1811375F50F253539C135
:1052300083270B00DE9723A0270123A24701638465
:10524000090023808900B7E700E023A097100145FB
:1052500021A023A097100945B2502254925402591C
:10526000F249624AD24A424BB24B224C924C024D16
:10527000456182800504E31984F9B7E700E023A0C3
:1052800097102145D1BF0111B7E700E026CA84433A
:1052900022CC4AC84EC63707200006CE2A84AE89E3
:1052A0003289F98C23A0E7180F100000653322859E
:1052B000CE85EFF0DF8A2A8405C59705002083D5C7
:1052C00065F0B3872503130600648146B3B5250353
:1052D00013850732B337F500BE95EFF0815D48C006
:1052E00013351400F2406244B7E700E023A09710A2
:1052F0004249D244B2490E05056182800111B7E7E7
:1053000000E04AC803A9070022CC4EC63707200098
:1053100006CE26CAAA892E843379E90023A0E7188D
:105320000F100000EFF0BF83AA8419C123110500FC
:10533000A2854E85853E9707002083C7E7DD639BE6
:1053400037019707002083D7A7E15D8C97070020DE
:10535000239887E0B7E700E023A02711014591E0FB
:105360001945F2406244D2444249B2490561828003
:1053700001114AC837E900E022CC03240900B7072D
:10538000200006CE26CA4EC67D8C2320F9180F10A9
:1053900000009307F00263E8A704B147B304F502E5
:1053A000970900209389C9E083A70900A6979C4329
:1053B0009DCB9377F5008545B395F500C205C18176
:1053C00011812D3F83A709000145A69723A007005F
:1053D00023A2070023208910F2406244D2444249AC
:1053E000B24905618280B7E700E023A08710094534
:1053F000E5B74111B7E700E026C2844306C622C4E0
:1054000037072000F98C23A0E7180F100000EFF0F9
:105410000FF519E90145B2402244B7E700E023A0A7
:10542000971092444101828097070020938787D389
:105430009C430045829797070020938727D863688D
:10544000A402D843B74636FE938606C83305A44067
:105450003697E371E5FC13070064B335E50203D624
:10546000870081463305E502EFF0A1446DB7D843CC
:105470003A94C1BF411122C426C21704002013046C
:10548000E4D397040020938424C994485840970794
:105490000020938727CD06C69C436393E608829736
:1054A0005440B74736FE938707C8B6973387A7009F
:1054B0003A856364F7006364D7003305D7409704E7
:1054C00000209384A4E8DC5081CF970700209387C5
:1054D000A7EF94433707CDFF7D179C46F98F9CC6F5
:1054E00011E1484097070020938787C8DC538297D3
:1054F00019E5DC508DC3EF00C178EFF0D048DC50E7
:1055000099CB97070020938727EC9843B706330081
:105510001C47D58F1CC7B24022449244410182806F
:10552000829794485840B387A6003E8563E4D7002D
:10553000E3E7E7F83385E74059B7411106C6970717
:10554000002023ABA7C60295B2409707002023A1F5
:10555000A7BE014541018280994763E9B7008A05EA
:1055600097070020938707BEBE9588C18280970762
:10557000002023A1A7C411C58547170700202302D7
:10558000F7BE828041117146814517050020130541
:1055900065BB06C69707002023AA07BC9707002013
:1055A00023AC07C09707002023AE07BA9707002057
:1055B000238907BA9707002023AE07BE97B0FF1FC5
:1055C000E780C036130680028145170500201305C9
:1055D000A5B497B0FF1FE7806035EF60F1439707F0
:1055E00000209387E7B803C5C70383C7D703854562
:1055F0003E958D473305F50239051375F50F97076D
:105600000020238CA7B099473305F5021305052424
:1056100097C0FF1FE78020DE17070020232AA7B8C6
:1056200059CD994717060020034626AF3306F602E8
:1056300081451306062497B0FF1FE780202F9707A8
:1056400000209387E7B69C43938707241707002021
:105650002328F7AE17070020034727AC0A07BA979D
:10566000170700202322F7B0EFF0CFCEE1299707EC
:1056700000209387E7AC94439707002083C7D7A9FE
:1056800013972700369717F6FFFF1306065610C329
:10569000138717001377F70F0A07369717F6FFFFE0
:1056A0001306664E10C313873700890793F7F70F69
:1056B0008A0797050020A381E5A6B69790C3B2405C
:1056C000410182809707002083C717A51707002094
:1056D0000347A7A463F3E70217070020130747A6B1
:1056E00018439386170017060020A307D6A29396A7
:1056F0002700369708C33E8582809307F00FE5BFE9
:105700001C416384071641777D8FB70600208947C7
:10571000631ED71403574500630A0714411122C4BE
:1057200019462A849305F00F610506C697B0FF1F3E
:10573000E780402E05478D476304E5121C4481CB6A
:1057400058589947630E0710185C630B071013062F
:105750000004814517050020130585A197B0FF1FA0
:10576000E780C01C13060004A2851705002013055E
:1057700025A097B0FF1FE78040149707002083D72C
:10578000E79F170700201307A79E99E793070010CC
:10579000970600202394F69E9707002083C7279E34
:1057A00091E7854797060020238BF69C97070020FA
:1057B00083D7079D91E7ED47970600202392F69C3B
:1057C0009707002083C7B79B91E79547970600206E
:1057D000A387F69A9707002083C7A79A91E7854782
:1057E00097060020238FF6989707002083C77799A4
:1057F00099E78347F70097060020A384F698970758
:10580000002083C7379881CF93F637008983170626
:105810000020230DD69897060020A389F6989707B5
:10582000002083C7279691E7D54797060020238B52
:10583000F6948347640199E79307C0039706002015
:105840002383F6941C5791C78297970700202399CA
:10585000A78CFD5717070020A30EF7BC25338147FF
:10586000B24022443E854101828089473E85828044
:1058700001114EC6970900209389499483A7090016
:1058800006CE22CC26CA4AC852C4829713090064A5
:10589000B335250303DA8900814652863305250393
:1058A000EFF021019707002093870787804FAA8494
:1058B00001456306940233858440636E940003A51A
:1058C000490052868146B335A9023305A902EFE0AB
:1058D000517E018D26959707002023AB9784F240D7
:1058E0006244D2444249B249224A05618280011190
:1058F00022CC0A852E84414697050200938585694E
:1059000006CEEFF08134180806043A94035504FFDC
:105910009707002083D7278BF2406244AA97374528
:105920000F00130505243355F502056182809707A2
:10593000002083D7478951471D45637CF70279478B
:1059400019456378F7021307200315456373F702BF
:105950001307B0041145637EF700130740060D4599
:105960006379F7001307600909456374F70013B5FD
:10597000B70F8280011122CC06CE2A842EC6EFF00A
:10598000EFAEB245F240818D33A5A5022295624467
:105990001375F50F05618280011122CC06CE2A8491
:1059A0002EC6EFF0AFACB245F240818D33A5A50213
:1059B000229562444205418105618280011122CC19
:1059C00006CE2A842EC6EFF06FAAB245F240818D32
:1059D00033B5A502229562440561828097F7FF1FC7
:1059E00093870779985739CB411122C426C206C63E
:1059F000BE84029717F7FF1F035787722A8415CBBF
:105A0000BA876373A700AA87C207C183BA86637384
:105A1000E400A286C206C182958F5147635BF700FE
:105A2000DC5491C38297EF00810E97F7FF1F2399F3
:105A3000876EB2402244924441018280828097F76F
:105A4000FF1F23A7077897F7FF1F93876772DC571D
:105A5000011106CEAA8581C72AC68297B245CDC15B
:105A60009C410545D9CBDC41C9CB83D78500D1C743
:105A700083D7A500D9C3514617F5FF1F1305057439
:105A800097B0FF1FE78060E397F7FF1F238E077231
:105A900097F7FF1F938787729C4317F7FF1F2323F6
:105AA000F76C97F7FF1F83C7176E8DE79307805733
:105AB00017F5FF1F035505713305F50237460F0033
:105AC0001306062481468145EFE0B15E97F7FF1F7C
:105AD000A38BA76A17F7FF1F0347F76AA54763E77A
