:040000006F00C07855
:10000400000000000000000090000020AA02002070
:10001400A9BDF9F5900000200000000000000000D8
:10002400900000209000002000000000000000006C
:10003400900000200000000090000020000000005C
:1000440090000020900000209000002090000020EC
:10005400900000209000002090000020000000008C
:1000640090000020900000209000002090000020CC
:1000740090000020900000209000002090000020BC
:1000840090000020900000209000002090000020AC
:1000940001A0B7F707000111944B13078008F33749
:1000A400078093F787083EC20F100000B71700407F
:1000B4001308700523800705930580FA2380B7048D
:1000C4000F10000003C6B7041376F60DA385C7040A
:1000D400238007041246732606800F10000013764F
:1000E400050255CEF336078093F6860836C40F1002
:1000F4000000238007052380B7040F100000B70613
:1001040014007D89558D88C701000100010001009C
:1001140023800704A246F3A606800F10000073375D
:100124000780137787083AC60F100000238007055D
:100134002380B7040F1000000F1000003727004081
:1001440093061005A303D78023800704B247F3A7BF
:1001540007800F10000093078008F3B7078093F718
:1001640087083ECE0F100000B71700401307700534
:100174002380E704130780FA2380E7040F100000AC
:1001840003C7B70413670708A385E704238007049C
:10019400F247F3A707800F100000056182801376F1
:1001A400050459C2733607801376860832C80F10C7
:1001B4000000238007052380B7040F1000003706D2
:1001C4001400130606047D89518D88C701000100BF
:1001D40001000100238007044246732606800F10A5
:1001E400000073370780137787083ACA0F1000009E
:1001F400238007052380B7040F100000A54793F65A
:10020400F60F639EF600B727004013073005A3835B
:10021400E780B717004023800704D2470DBFB727F4
:10022400004013072005E5B7733707801377870865
:100234003ACC0F100000238007052380B7040F1069
:10024400000098471367070C98C723800704E24708
:10025400FDBD0111814601468145114506CE7D2A29
:1002640093078008F3B7078093F787083EC60F10FB
:100274000000B7170040130770052380E704130735
:1002840080FA2380E7040F10000003C76704136794
:1002940017002383E70423800704B247F3A70780EA
:1002A4000F100000F2400561828041118146014631
:1002B40081451145A52213078008F337078093F77A
:1002C40087083EC40F100000B717004013067005DE
:1002D4002380C704930680FA2380D7040F100000FC
:1002E400FD552396B70223800704A245F3A5058094
:1002F4000F10000073370780137787083AC60F1072
:1003040000002380C7042380D7040F10000003C714
:100314006704136717002383E70423800704B247A5
:10032400F3A707800F10000001A0BD473305F502B5
:1003340001007D1575FD8280411122C426C206C6C6
:10034400AA84014463179400B240224492444101B8
:10035400828005041305803E4204C13F4180DDB71D
:100364002303048015472303E48001002302A480AF
:10037400828083076480E3CE07FE230304808280A7
:1003840083076480E3CE07FE0345448082808307AD
:100394006480E3CE07FE2302A4808280411126C438
:1003A4004AC24EC006C61377F50BAD47AA892E89FB
:1003B40095446306F70019456537653F8D444E85BE
:1003C4004537FD59FD1463983401B240A2441249E3
:1003D400824941018280135509011375F50F453F88
:1003E4002209CDB7011126CC06CEB7040800513737
:1003F4001545BD37713769372AC6A53F324593770E
:10040400150089EB136515001375F50FF240E244EE
:1004140005618280FD14E9FC0145CDBF397126DCFC
:100424004ADA4ED852D656D45AD25ED006DE62CEBE
:1004340066CCB7E700E07D5783AA070022C603AA6B
:10044400470023A0E71823A2E718B71700401307B3
:1004540070052380E704130780FA2380E70483C729
:100464004704930B75FFB684E20793FBFB0F8546A5
:10047400AA892E8B328937240040E187015763FA19
:1004840076016308D5008946130700026313D5007B
:100494000157D98F93F7F70FB71C00402382FC0450
:1004A40011472303E4801305F00F5D3D094CD1355A
:1004B400636D7C11B7050700DA9537870700795516
:1004C40063F2E504B3879500636EF702370B080007
:1004D400A94733EB65016399F90689E48144513DE9
:1004E40026850DA0DA850945553D05090345F9FF23
:1004F400FD14050B693D81C49377FB0FFDF7DD35D2
:1005040069FD7D55B7170040130770052380E70484
:10051400130780FA2380E70403C74704418B23822F
:10052400E704F250B7E700E023A0571123A24711D4
:10053400E25432445259C259325AA25A125B825B73
:10054400724CE24C21618280A5476395F906856966
:100554001309F00FB3069900B3742B01B694134931
:10056400F9FFB3749900856B33796901416B938703
:10057400F9FFB3F7270199E363FC340193D94900E8
:10058400C147E3E637FF99BF0569C1697D19D9B74A
:100594001305800D638869011305000263847901E2
:1005A40013051008CA85DD3B353D21DD4E99B38422
:1005B4003441D9B7DA852D45D533CA94E30099F28D
:1005C40005097D3BA30FA9FED5BF9387F9FF93F7D8
:1005D400F70F6361FC0C83C71C0413073008631F07
:1005E400F70437070800636BEB04B3079B00B706F7
:1005F400100063F5D704334BEB0089476393F90686
:100604008980D549E38C04ECDA850945413B11091D
:100614000327C9FF91472320E48003076480E34E46
:1006240007FE23033481FD17EDFBFD14110B81C478
:100634009377FB0FE9FF7D3371F5E1B5B717004000
:1006440003C75704B70708001377070219E3B787EE
:1006540007007955E378FBEA33079B00E3FFE7F8EB
:1006640055B58547E382F9F2DA852D45053B938933
:10067400F4FFE38504E6293393F7390091EB8326ED
:1006840004800327090093074900E39AE6E43E89BE
:10069400CE84F1BFB5476396F9001305900BC931B9
:1006A40035BDB1471305B00AE38BF9FE9947639151
:1006B400F904B7050800B365BB002D45C531814475
:1006C4008D4BA149753963967401832704802320D7
:1006D400F9008504E39834FF8327048013172B0162
:1006E400635507002312F900D5BB2322F900FDB39B
:1006F4009D476399F90281451305B0044531BD4412
:100704002320090023220900FD599D3993F7740021
:10071400CA9703C70700FD14398D2380A700E39609
:1007240034FF6DBBA1476392F9046D398144630DB5
:100734000B008D479304C0036308FB00930400057A
:1007440063048B01930440041375C507E30895D82B
:100754001945393139390545213126850D39094580
:100764003D314931E31C05D669BB91476399F900D2
:1007740013056006F536F53E130590090DB7E38FB2
:0807840009D4F154A9BB0000E7
:10078C00971100209381C185176100201301C106C8
:10079C001305400097050020938505861706002059
:1007AC00130606FE63FAC5008322050023A055003C
:1007BC0011059105E3EAC5FE173500001305450048
:1007CC00970500209385C5FB1386818063FAC500CD
:1007DC008322050023A0550011059105E3EAC5FE0F
:1007EC0013858180938501966377B50023200500DE
:1007FC001105E36DB5FEFD42739002BC8D42739002
:10080C004280930280087390023097F2FF1F93820C
:10081C00A27E93E2320073905230970200009382D2
:10082C00820B73901234730020303D432A8763731C
:10083C00C3029377F700BDEFADE5937606FF3D8AD3
:10084C00BA960CC34CC30CC74CC74107E36BD7FE1D
:10085C0011E28280B306C3408A0697020000969686
:10086C006780A6002307B700A306B7002306B700CE
:10087C00A305B7002305B700A304B7002304B700F2
:10088C00A303B7002303B700A302B7002302B700EA
:10089C00A301B7002301B700A300B7002300B700E2
:1008AC00828093F5F50F93968500D58D939605016F
:1008BC00D58D61B793962700970200009696868295
:1008CC00E78086FA9680C1171D8F3E96E374C3F8B5
:1008DC00A5B779711305800406D622D426D24AD046
:1008EC004ECE52CC56CA5AC85EC662C466C297F087
:1008FC00FF1FE7808079154597000020E78040A313
:10090C0085450545292E371400408327840A8545E3
:10091C001305001093E707202324F40AB12C8D450E
:10092C0013050020912C7521834514041735000004
:10093C00130545A49384C181EF10607423A69180A4
:10094C009387C18523A8F180EF00B03217350000E2
:10095C00130585A34169EF105007973A0000938A5D
:10096C00AAA37D19173A0000130A8AA79389C18993
:10097C00378B0040854B554C83476B000145858B6D
:10098C0091CB23037B014D21631685019707002032
:10099C00238C77E59707002083C707E599E363135A
:1009AC0085031305800C97070020238F07E297001F
:1009BC000020E780E097EF00106DAA8501C55685F1
:1009CC00EF10E06BEF10A067AA8519C51735000072
:1009DC001305459EEF10A06A13053003EF00D04AB3
:1009EC00630125091374F50F228551236304041048
:1009FC009307F4FF3147B387E702CE9783CC870088
:100A0C0093F7FC006382071293958C01E185FD85B9
:100A1C0093F5050C014613E50C09652BAA85631AA1
:100A2C00050E93CC0C08630A040C7D143145330479
:100A3C00A4024E942304940103448B001374F40F0A
:100A4C0019CC173500001305A598EF104063814CA5
:100A5C0093F7FC0F63E6870A2945EF10806605457E
:100A6C00912113053002EF003042E30725F1137496
:100A7C00F50F2285ED2961C09307F4FF3147B38749
:100A8C00E702CE9703CB87009377FB00638F070CAD
:100A9C0093158B01E185FD8593F5050C01461365D6
:100AAC000B09052BAA855DE5134B0B0841C87D147A
:100ABC0031453304A4024E9423046401B7870040EB
:100ACC0003C487001374F40F1DC01385C181EF009C
:100ADC0050421735000013052594EF10405A014B76
:100AEC009377FB0F63EF87042945EF10805D054575
:100AFC00552EBDBD83CC418D21B7238A918D2DBF41
:100B0C00B387940183C507005285850CEF102057DD
:100B1C0081B79307A002E304F5F417350000130521
:100B2C00A58CEF10C05525BF173500001305058D9A
:100B3C00EF10A0692DB703CB418DB9B7238A618D16
:100B4C00B5BFB387640183C507005285050BEF1051
:100B5C00005379B79307A002E30BF5F817350000A3
:100B6C001305858CEF10A05159B7173500001305EC
:100B7C00258DEF108065A5BF914763EEB70217373F
:100B8C0000001307E78D8A05BA959C41BA978287B6
:100B9C00B717004003A7470B1345F5FF698F23AA2E
:100BAC00E70A03A7070B698F23A8E70A03A7070A1D
:100BBC00798D23A0A70A8280B717004083A6470B24
:100BCC001347F5FFF98E23AAD70A83A6070B558D79
:100BDC0023A8A70A83A6070A758F23A0E70A828099
:100BEC00B717004003A7470B498F23AAE70A03A7AF
:100BFC00070B1345F5FF45BFB717004083A6470BFE
:100C0C001347F5FF758F23AAE70A03A7070A598D27
:100C1C004DB7B717004003A7470B498FEDB7797154
:100C2C0006D622D426D24AD04ECEB717004003C7E0
:100C3C00470203C7570221E5130780087337078063
:100C4C00137787083AC20F10000013077005238032
:100C5C00E704130780FA2380E7040F1000002382B7
:100C6C000702238007049247F3A707800F100000A8
:100C7C00B250225492540259F2494561828093F742
:100C8C00050893F63500054789C78981858913E7DF
:100C9C00250093048008F3B7048093F787083EC4BB
:100CAC000F10000037140040930970052300340521
:100CBC00130980FA230024050F1000002302E4021C
:100CCC00A302D40223000404A247F3A707800F1049
:100CDC000000054597F0FF1FE780A064F3B4048083
:100CEC0093F4840826C60F1000002300340523005B
:100CFC0024050F1000008347440293E7C70023022A
:100D0C00F40223000404B24785B7B71700408847A4
:100D1C00420541819377050491EB9377F5013755A3
:100D2C00E801130505803345F50282809377050CA5
:100D3C00130700046397E7009377F50137459C1C74
:100D4C00CDB72165130505D0828081473737004028
:100D5C00A14663C4C700328582800345B740E38E49
:100D6C00A6FE3385F5000345050085072304A7403F
:100D7C00CDB7970700209387A7A69C4313870196AE
:100D8C003E95636EE500176700201307E7866368DE
:100D9C00A700170700202325A7A43E858280FD57B6
:100DAC00EDBF411122C406C62A8485372947B307F3
:100DBC00E502B2408D83B3D7870222449507B3D79F
:100DCC00E70237370040C207C1832316F7404101C1
:100DDC008280716541111305052006C6D937B737D6
:100DEC000040130770F82381E7400D47A381E740CB
:100DFC0013070004A380E74005472387E740B24070
:100E0C0041018280B787004003C707001377F70BB7
:100E1C002380E70003C767021377F7072383E702F2
:100E2C0082802396018C8280411106C63787004050
:100E3C008347570003C5C18C858B9DCF11C5834754
:100E4C0017000145858B95E7E93FB787004083C7BD
:100E5C005700172500001305E561858393C717001C
:100E6C00858B2387F18C85472386F18CEF10E03539
:100E7C005545B240410182806DDD65371725000074
:100E8C0013050560EF1060345945E5B7378700400E
:100E9C00834737001375F50793F70708C98FA3012C
:100EAC00F700828011C1B9BF378700408347070024
:100EBC0093E707042300F70082804111A147014505
:100ECC0006C622C4A384F18037840040C13783470F
:100EDC00140093F7E70FA300F4002D378347140099
:100EEC003D4593F7970F93E72700A300F40097F085
:100EFC00FF1FE780E043834714001305A00F93F70F
:100F0C00D70FA300F40097F0FF1FE78080418547BF
:100F1C002303F400B24022444101828083C7C18C78
:100F2C0081E785472386F18CB787004003C75700BC
:100F3C005945058B05CF03C71700058B19EF03C760
:100F4C005700098B933617002387D18C19C703C719
:100F5C00170013674700A380E700378700408347DB
:100F6C001700014593E71700A300F7008280411199
:100F7C0006C622C431C1B1477D153305F502138471
:100F8C00C1892A9403451400113703452400193FE5
:100F9C00834724009DEB3787004083476702130586
:100FAC00400693E707082303F7022244B2404101AD
:100FBC0017F3FF1F6700E33603C5D18CC13D2244F4
:100FCC00B24003C5E18C4101F1BDB2402244410164
:100FDC0082805D71A2C4A6C2CAC04EDE52DC56DA53
:100FEC005AD85ED662D466D26AD06ECE86C6B78721
:100FFC0000402387B702B78400402A8A32892385B0
:10100C00B702935945000144938D6400094B854AFE
:10101C00D54B7D5CB94C294D2384440323806D0151
:10102C009307803E03C70D00098B01EF05453EC6B3
:10103C0097F0FF1FE780E02EB247FD17C207C18370
:10104C00F5F32384040283C70D00898B81E7130514
:10105C00E00F71A883C70D00858B85C723805D01C8
:10106C00E133631475012384518183C7C18CDDC7BF
:10107C0005476387E70A1305800C97F0FF1FE7808D
:10108C00402A83C70D00898BD9C783C7740093F797
:10109C000704C9EB83C7740093F7F70F13F5F70038
:1010AC00630495096319A50363030908FD576303DA
:1010BC00F9007D197D141374F40F3D4597F0FF1F53
:1010CC00E780202605041374F40F8947E3F687F4B0
:1010DC001305000229A82547638AE902B5476385F1
:1010EC00F9008547E395F9F669D913650502B64011
:1010FC00264496440649F259625AD25A425BB25B74
:10110C00225C925C025DF24D616182809D8B0D4789
:10111C00E39CE7FC5DB723808D0145B75945C1BF02
:10112C005545F1B70145E1B71305E002C9B7130501
:10113C00A00275BF011126CA4AC8AE842A891305BC
:10114C00800C06CE22CC4EC652C456C25AC097F062
:10115C00FF1FE780001D99C02380040037840040E6
:10116C00A14789692306F402138609718145130589
:10117C00000D853563130518930700FD2307F40252
:10118C002305F40285472306F402138A0181832781
:10119C000A00172500001305652FD28A03C47700B7
:1011AC0003C767002204598CA285EF00506D6302BF
:1011BC0004106300091083270A001725000013058B
:1011CC00E52D9389097183C50700EF00506B8327C8
:1011DC000A00378A00408387070063C3070613059C
:1011EC00800C97F0FF1FE780C01383C79180637456
:1011FC00F4009377F40F2306FA0281470347CA02DF
:10120C006392E7128345EA024E864145D933631651
:10121C00050E8347CA021D8C4204418081C8834756
:10122C00CA0203C70400BA972380F4004DF883C5A3
:10123C000400172500001305A527EF00506495A89E
:10124C00938AC1801305800C97F0FF1FE780600D17
:10125C008345AA024E8613050009A53B59ED0347A9
:10126C008A009377F40F6376870083478A0093F79D
:10127C00F70F1D8C4204418091C403C704003E97B4
:10128C002380E40001479376F70F6392D7083E99C9
:10129C0083478A0093F7F70F89CB03478A0083C7EC
:1012AC009180FD17F98F91E351FCB787004023869D
:1012BC0007021305800C97F0FF1FE7808006B787A5
:1012CC00004083C7C7021305000993F7F70F91E39A
:1012DC0041450966130606719305000CDD3911EDC5
:1012EC00378700408347C70293F7F70F99C78347A7
:1012FC00870093F7F70F91C35D45F2406244D244E7
:10130C004249B249224A924A024B0561828083A625
:10131C000A00BA9603C60600B306E9000507238047
:10132C00C60095B703A70A008346090005093E9736
:10133C0085072300D70093F7F70FC9B5814793852D
:10134C000181A1463307F5000346070098413E97FB
:10135C002300C7008507E397D7FE82800111A147C0
:10136C00172500001305854206CEA384F180F937BA
:10137C009305F1001385C18D753B05E19387C18DF4
:10138C0083C77700A384F1800347F10097270000FF
:10139C0083D727406373F7005D45F2400561828077
:1013AC000111172500001305E53D06CE413F9305BD
:1013BC00F1001385C18DBD3B29E10347F10097274F
:1013CC00000083D7873C5D456369F70283C7E18DD5
:1013DC00172500001305053BA307F10085379387FC
:1013EC0001819C430347F1009305F100A38307009F
:1013FC002383E7001385C18D353BF2400561828064
:10140C00411126C2AA84172500001305A53806C66B
:10141C0022C42D37938701819C438145014523814B
:10142C009700A381070039332A8401E92685B93C4A
:10143C00294597F0FF1FE780A0EF2285B240224498
:10144C00924441018280411122C42A841725000054
:10145C001305C53406C6DD35938701819C43B24024
:10146C008145238187002244A38107000145410166
:10147C00D1B1411122C406C6B7870040130700F84A
:10148C002380E7003784004083470400E207E187AC
:10149C00E3DC07FEA3000400A3010400930780040F
:1014AC00A306F40083D7C180231CF40083D70181E9
:1014BC00231EF4002305040223070402930790F86B
:1014CC002300F400930700042303F402FD572303C5
:1014DC00F400EFF01F958D472301F400B240224435
:1014EC002384018041018280797152CC56CA06D680
:1014FC0022D426D24AD04ECE5AC85EC662C4AA8A1C
:10150C002E8ABDC131479387F5FFB387E702138756
:10151C00418ABA9723900700239107009307FAFF9B
:10152C003147B387E7021389C18901448149154CBE
:10153C000D4B938BC18C3E9983C73A0083C62A000E
:10154C00A207D58F63E7F9022945EF009037228572
:10155C00B250225492540259F249624AD24A424B36
:10156C00B24B224C45618280239A018C239B018CC7
:10157C0075B7B3843A0183C714006396870583C794
:10158C0034008D8B6391670583C724001397870103
:10159C006187635A0702BD8B3307890063140A0005
:1015AC0033878B002304F700B3878B0083C5870038
:1015BC00050417250000130565F01374F40FEF00F4
:1015CC00102CE3638BF803C70400C147E3EEE7F686
:1015DC004E979379F70F8DB7B9C531479387F5FFC0
:1015EC00B387E7021387418ABA97239007002391A8
:1015FC000700B1489386F5FFB38616030346350002
:10160C00834725009388C18922065D8E094781474F
:10161C000148154F894F138EC18CB698C14263692E
:10162C00C80001458280239A018C239B018CD1B781
:10163C0033030501834613006395E60383463300A9
:10164C008D8A6390F60383462300939E860193DE76
:10165C008E41BD8A85C563DE0E00C6972384D700F4
:10166C00854783460300E3EED2FA36981378F80FD9
:10167C007DB746972304D7000D47E5B763D40E001A
:10168C00F297E9BF7297FDB783C6F18CA5476390BB
:10169C00F60203C7C18C894763FBE70003C6818D43
:1016AC0085479385C18931488948637CF600639FDF
:1016BC00A60203C5C18C133535003305A040420585
:1016CC0005A01387F7FF330707032E970343370053
:1016DC00631AA3000347070063F6E800139507019C
:1016EC0041818280850793F7F70FC1B741657D155E
:1016FC008280B717000201119387179206CE3EC461
:10170C00C167034715003EC683470500D98F0347C1
:10171C003500D98F03474500D98F03475500D98F22
:10172C0003476500D98F03477500D98F8DEF834729
:10173C0025009387D7FA85EB93850181A14630006C
:10174C0098413E96034606003E9785072300C70046
:10175C00E397D7FE930571001385C18DEFF09F9D24
:10176C00F240056182800145E5BF011122CC2A843B
:10177C00172500001305050426CA4AC806CE13898E
:10178C0001816D3E8327090081449305F10023827A
:10179C008700A38297001385C18DEFF0BF9915E1E7
:1017AC001725000013050500513E832709009305FA
:1017BC00F1001385C18D23828700A3829700EFF07F
:1017CC007F97F2406244D244424905618280011104
:1017DC0017250000130585FD06CE8D369305F10007
:1017EC001385C18DEFF01F9511E90347F100972781
:1017FC00000083D707FC6373F7005D45F240056179
:10180C008280938701819C43011106CE130730FA25
:10181C002380E70011472382A700A38007002381C0
:10182C000700A3810700A38207002383E700A3839B
:10183C0007009305F1001385C18DEFF0BF8F19E5FB
:10184C000347F1008D4763E3E7005D45F240056116
:10185C008280938701819C43130730022380E70029
:10186C000D472381B7002382A700A380E700A38143
:10187C000700A382070023830700A3830700814589
:10188C0001456FF03F8B0111172500001305C5D4DE
:10189C0006CE22CC26CA4AC84EC652C456C2EF0047
:1018AC00D012EFF08FE18144014413094006054545
:1018BC0097F0FF1FE780C0A7EFF04FE619E585040E
:1018CC0093F4F40F63629928014405041374F40F24
:1018DC00E31F24FDEFF0EFD417250000130545DDC1
:1018EC00EF00B00E5944F1A8B387840083C50700FC
:1018FC004E850504EF00A0781374F40F93170401C0
:10190C00C183E3E327FF2945EF00A07B83D7840045
:10191C0017290000034929E84A852398F18C83D7BD
:10192C00A40083C9018E2399F18CD93C2A8405E14A
:10193C0017250000130545CBA386218DEF002074DD
:10194C0085342A8417290000130989A915C5A28595
:10195C0017250000130545D4EF00607289472386D4
:10196C00F18CA9A8B387840083C507004A850504B8
:10197C00EF00E0701374F40F9317040103D7E18D9B
:10198C00C183E3E1E7FE2945EF00A07303C9118E83
:10199C006395091083C9A18EA147639EF9024A85FC
:1019AC005D342A844DF58D472386F18C1725000074
:1019BC00130585C4A387318DEF0030010545EFF089
:1019CC006FCE2285F2406244D2444249B249224A47
:1019DC00924A056182809D476395F90203C7B18ED7
:1019EC0085476313F7144A85B93C2A842DF18D473A
:1019FC002386F18C17250000130505C1A387318DB3
:101A0C0065BF8D476392F91203C7B18E854763EDAD
:101A1C00E71081451385C18DC13CAA8517250000AF
:101A2C00130585BFEF00A0654A8583C9C18EEFF011
:101A3C009FA12A84E31D05F00D3B0DE50149972A72
:101A4C000000938AEA99130A0004B387240183C522
:101A5C00070056850509EF008062E31849FF294508
:101A6C00EF0020668D472386F18C8547639BF90038
:101A7C0093073002A387F18C17250000130545BB93
:101A8C0025BF8947639FF90A93073003A387F18C1D
:101A9C0017250000130505BB05B7A5476396F90884
:101AAC003D332A84E31505EA83C5E18D1725000033
:101ABC00130545BAE92303C7E18D914763E1E704B8
:101ACC00238CE18C4A85EFF01F982A84E31105E8FA
:101ADC008D472386F18CA547A387F18C8544138908
:101AEC00C189B149172A0000130ACAB783C7818D6F
:101AFC0063FA970017250000130505B975BD238CF3
:101B0C00F18CC9B79387F4FFB3873703A1452685BA
:101B1C00CA9723800700353B01C5A68552858523CE
:101B2C00850493F4F40FD9B74A85EFF0DF912A843A
:101B3C00E31F05E08D472386F18CFD57A387F18CBD
:101B4C00B5BD1304B00F21B503C5E18CEFF08FB513
:101B5C0017250000130545B81D23EFF03F802A849C
:101B6C00E31705DE172900000349B9C2220997279C
:101B7C00000083C707C23369F9009384C18D97298C
:101B8C0000009389E9859DBB938701819C431307D2
:101B9C0030022380E70005472381B7002382A7008A
:101BAC00A380E700A3810700A3820700238307001B
:101BBC00A3830700814501456FF0CFD779714ECED5
:101BCC00AA85AA89172500001305859922D406D663
:101BDC0026D24AD052CC56CA5AC85EC662C466C215
:101BEC001304E00F6929638909224E85EFF02FB8A1
:101BFC0017250000130545AE5921EFF02FF62A8466
:101C0C00631C05201389F9FF314A330A4903138BEE
:101C1C00C18D83578B009384C189938B090193FBEE
:101C2C00FB0F5E8583CA018E269A2312FA00835716
:101C3C00AB002313FA00EFF0AFFC2A84631E051CE3
:101C4C00A3007A01172500001305059A0D29EFF062
:101C5C002FF52A846312051C03CA118E971B0000F2
:101C6C00938B0B789317040103D7E18DC18363ED3C
:101C7C00E7062945B92183CBA18E639C0A16A1479F
:101C8C00639EFB06314433048902CE851385C18DD6
:101C9C00EFF09F949149972A0000938A2A82269408
:101CAC0083458400FD19568593F9F90FC92E050457
:101CBC00E39809FE294531215285EFF0CFF82A84AB
:101CCC0035E9B1473309F9028D4717250000130593
:101CDC00A592CA942380F400A147A381F400F521B6
:101CEC000545EFF02F9C0DAAB3078B0083C50700A9
:101CFC005E85050469261374F40FADB78D47639B9D
:101D0C00FB1203C7B18E854763E6E712CE851385B8
:101D1C00C18D83CB018EEFF02FFDAA851725000016
:101D2C001305858FA92E528583CAC18EEFF0AFF1B2
:101D3C002A8441C1A2851725000013052588812618
:101D4C00B1473309F902894726992300F90049BFA5
:101D5C005285EFF09FA109ED8149B3073B0183C583
:101D6C00070062858509212EE39999FF2945912E5B
:101D7C00050A137AFA0FE31D7AFDB149B309390349
:101D8C000D4B8547A69923806901639CFA02930742
:101D9C003002A381F90063F94A01171500001305FD
:101DAC00E57D2521A38169011725000013054588D0
:101DBC003DB7014A171C0000130C8C62930C0004F5
:101DCC005DBF09476385EA001304B00FA5B713077D
:101DDC003003A381E90063F94701171500001305CF
:101DEC00E579E526A3816901172500001305858592
:101DFC00FDB5A5476390FA04B147B307F90217156F
:101E0C00000013052579A697A38157017D2E228505
:101E1C0085459D3B2A844DD92285B250225492543B
:101E2C000259F249624AD24A424BB24B224C924C72
:101E3C0045618280314433048902CE851385C18D7E
:101E4C00EFF08FF99149171B0000130B2B672694A9
:101E5C0083458400FD195A8593F9F90F0D24050467
:101E6C00E39809FE2945B12C5285EFF0CFDD2A8489
:101E7C00E31205ECB147B307F9020D47A69723808F
:101E8C00E70063930A00DE8AB1473309F902CA946A
:101E9C00A3815401B1B5797122D426D24ECE52CC45
:101EAC0056CA5AC85EC662C406D64AD066C2054433
:101EBC009384C18DB149138AC189854A171B0000CF
:101ECC00130B0B65971B0000938B4B62171C0000C8
:101EDC00130C4C5F83C7818D014563FF8700B250A3
:101EEC00225492540259F249624AD24A424BB24BA2
:101EFC00224C924C45618280EFF06F872285EFF087
:101F0C005F9071FD03C7040083C7E18D058B01C78A
:101F1C0093F6170081E6C1466398D70A1309F4FFBC
:101F2C00B30C39032285D29C23905C01EFF07F8D9A
:101F3C005DF583C71400A2856285898B13B71700E2
:101F4C002381EC0091C35E851D2A1305800C97E05C
:101F5C00FF1FE780E03D91452285EFF09F8F41F117
:101F6C005A85A524054597E0FF1FE780603C228534
:101F7C00EFF03F892DF583C70400C18BE5F71305FE
:101F8C00400697E0FF1FE780A03AD1452285ED3E41
:101F9C00C1452285D53E21F52285EFF09F8621F1A2
:101FAC0083C70400858B91E73309390352992300C9
:101FBC00090022852131E31405F20545EFE09FEE7F
:101FCC0005041374F40F39B7898B95CFC545228559
:101FDC00653E1715000013056555C52A91452285E8
:101FEC00EFF03F87E31D05EE054597E0FF1FE78007
:101FFC0020342285EFF0FF80E31305EE83C7040045
:10200C00C18BFDF375BF4DFF1309F4FFB307390303
:10201C00D29783C7070099C7A2851715000013052F
:10202C006552B1283309390383C72400858B529933
:10203C0023000900D1D7C1452285B93651B703C752
:10204C00C18C894763FBE70203C7F18CA547631674
:10205C00F7024111014506C6EFE07FF12D3DAA853F
:10206C0011C5171500001305E53411280545EFE0DF
:10207C007FE3B24001454101828001458280397184
:10208C003EDA2ED232D436D63AD842DC46DE97E748
:10209C00FF1F9387277522CC804326CA06CEAA84BD
:1020AC0009C41C4C99E32285A92B0C445410268698
:1020BC00228536C6EF00901AF2406244D244216168
:1020CC008280011197E7FF1F9387C77122CC804351
:1020DC0006CEAA8519C41C4C89E72AC6228515236D
:1020EC00B245104422856244F24005616F00107CB9
:1020FC00011126CA4AC806CE22CC4EC652C4AA84A6
:10210C002E8901C51C4D91E3ED299C4C804499E32B
:10211C002685C529971700009387075F631CF40277
:10212C00C0408357C400A18BB1C71C48A1C7FD593F
:10213C00294A1C4483450900FD17B1E91CC463DE20
:10214C0007062286A94526854128FD576308F50216
:10215C00294535A0971700009387075D6314F40099
:10216C008044C1B79717000093870758E31BF4FA14
:10217C00C04445BFA2852685052255D97D55F24020
:10218C006244D2444249B249224A056182801CC44D
:10219C00050963D70700184C63CBE7006389450139
:1021AC001C401387170018C02380B70059B722862C
:1021BC0026851D20E31F35F7D1B71C401387170068
:1021CC0018C029472380E70061B797E7FF1F938763
:1021DC006761AA85884329BF011122CC26CA4AC847
:1021EC0006CE4EC6AA842E89328401C51C4D91E3BD
:1021FC00092997170000938727516319F406C040EB
:10220C001C4C1CC48357C400A18BC9C31C48BDCF34
:10221C001C4808409379F90F1379F90F1D8D5C4810
:10222C006346F500A2852685752C2DE51C44050515
:10223C00FD171CC41C401387170018C023803701DE
:10224C005C486389A7008357C400858B81CBA94761
:10225C006316F900A285268571240DEDF2406244C7
:10226C004A85D2444249B2490561828097170000E1
:10227C009387874B6314F400804459B79717000079
:10228C0093878746E31EF4F6C0449DBFA28526853E
:10229C0021203DDD7D59D9B7411197E7FF1F938769
:1022AC00675426C2844322C44AC006C62A892E8497
:1022BC0089C49C4C99E32685A9269717000093871F
:1022CC00A744631CF402C0400317C4009317070112
:1022DC00C18393F68700B5EE93F607019DEEA547F3
:1022EC002320F900136707042316E4007D55B24040
:1022FC00224492440249410182809717000093873F
:10230C00A7426314F4008044C1B797170000938769
:10231C00A73DE31BF4FAC04445BF918B8DC74C58C5
:10232C0089C9930744046384F5004A859123232AC1
:10233C0004028357C4002322040093F7B7FD23162D
:10234C00F4001C481CC08357C40093E78700231675
:10235C00F4001C4881EF8357C4001307002093F747
:10236C0007286385E700A2854A85A5218357C40009
:10237C0013F7170005C75C4823240400B307F0408B
:10238C001CCC1C480145A5F78317C40013F707089C
:10239C0039DF93E707042316F40089BF898B0147C3
:1023AC0091E3584818C4F1BF83D7C500011122CC62
:1023BC0026CA06CE4AC84EC613F78700AA842E84B6
:1023CC0071EFD841634DE000B841634AE00001452C
:1023DC00F2406244D2444249B24905618280585469
:1023EC007DD703A904009396370123A0040063DD75
:1023FC00060670488357C400918B99C75C401D8EAC
:10240C005C5899C33C401D8E5C540C50814626850B
:10241C008297FD570357C400631DF5009440F547A0
:10242C0063E8D706B70740208507B3D7D700858B5D
:10243C00A5C31C48232204001CC09317370163D882
:10244C000700FD576314F5009C4091E368C84C5895
:10245C0023A02401ADDD930744046384F500268595
:10246C000129232A0402A5B70C500146854626856E
:10247C000297FD572A86E31FF5F69C40A5DF7547AA
:10248C006385E70059476394E70423A0240181B7CF
:10249C00136707042316E4007D551DBF83A90501AE
:1024AC00E38709F203A905008D8B23A035013309BD
:1024BC003941014791E3D84918C4E35A20F11C541F
:1024CC000C50CA864E86268582976349A000835796
:1024DC00C40093E707042316F4007DBFAA993309BF
:1024EC00A940E1BF9C49B9CF011122CC06CE2A8468
:1024FC0011C51C4D81E72EC62922B2459717000045
:10250C0093878720639BF5004C408397C50095C744
:10251C0022856244F240056141BD97170000938704
:10252C00A7206394F5000C44CDB797170000938750
:10253C00A71BE39CF5FC4C44C9BFF2406244014527
:10254C000561828001458280411122C406C62A841D
:10255C002316B5002317C5002320050023220500F0
:10256C00232405002322050623280500232A050021
:10257C00232C0500214681451305C505EFE0EFAA84
:10258C00971700009387C7BD5CD0971700009387FF
:10259C0027C01CD497170000938767C45CD4971787
:1025AC000000938727C700D01CD8B24022444101B9
:1025BC00828097050000938525F389AA411126C2D4
:1025CC00130680069384F5FFB384C4024AC02E8997
:1025DC0022C406C69385440781262A8401CD232074
:1025EC00050023222501310508C413868406814584
:1025FC00EFE0AFA32285B24022449244024941014C
:10260C0082801C4DBDE3411106C622C49707000011
:10261C00938767FA1CD5971700009387271A9C435A
:10262C002324050423260504232805046314F5003C
:10263C0085471CCD2A841D2848C02285052808C43E
:10264C0022852D2048C4484001469145F53D08445B
:10265C000546A545D53D48440946C945F535854748
:10266C001CCCB240224441018280828041119717D8
:10267C0000009387A71426C284434AC006C69C4C0C
:10268C0022C42A8999E32685AD3F9384840480442F
:10269C00DC40FD1763D607009C40B9CF8440C5BF12
:1026AC000317C40039E7C1778507232204062320CA
:1026BC00040023220400232404005CC42328040007
:1026CC00232A0400232C0400214681451305C4054C
:1026DC00EFE0AF95232A0402232C040223240404E4
:1026EC00232604042285B24022449244024941012B
:1026FC0082801304840671BF91454A85C13588C018
:10270C0051FDB1472320F9000144E9BF797122D46E
:10271C004AD052CC56CA5AC85EC606D626D24ECE1F
:10272C002A8AAE8A130485040149054BFD5B09EC2A
:10273C00B25022544A8592540259F249624AD24A02
:10274C00424BB24B45618280044483294400FD19FD
:10275C0063D409000040E1BF83D7C400637BFB0056
:10276C008397E40063877701A6855285829A336943
:10277C00A90093848406E1BF1971A6DAAE8483950F
:10278C00E500A2DC86DE328463DC050083D7C4005E
:10279C0023A0060093F7070885E7930700401DA0C8
:1027AC00300836C6EF00902CB246E34105FE724766
:1027BC00BD67F98F7977BA9793B717009CC2F1BFB1
:1027CC00930700041CC0F6506654D65401450961A9
:1027DC00828083D7C500011122CC06CE26CA4AC8F6
:1027EC00898B2E8489CF930774041CC01CC8854721
:1027FC005CC8F2406244D244424905618280740054
:10280C003000AA84953FA2452A892685312201ED04
:10281C008317C40013F7072069FFF19B93E7270088
:10282C002316F400C9B7970700009387C7D89CD428
:10283C008357C40008C008C893E707082316F400A0
:10284C00A2475CC8B24791CF8315E4002685EF0000
:10285C00902401C98357C400F19B93E717002316FA
:10286C00F4008357C4003369F9002316240151B7CF
:10287C00DDC183A7C5FF411122C406C626C213843D
:10288C00C5FF63D307003E94AA84EF00B02793875B
:10289C0041819C4381EF2322040023AA818022449E
:1028AC00B2402685924441016F00F025637EF4000E
:1028BC0014403307D4006396E7009843DC43369703
:1028CC0018C05CC0D9BFBA87D84319C3E37DE4FEF6
:1028DC0094433386D700631F86001040B29694C38E
:1028EC003386D700E31DC7FA10435843B29694C3FE
:1028FC00D8C375B76375C400B1479CC04DB71040C1
:10290C00B306C4006316D70014435843B29614C0E0
:10291C0058C0C0C369B78280011126CA93843500A0
:10292C00F19806CE22CC4AC84EC6A104B14763F535
:10293C00F404B14463E4B4042A89EF00B01C938717
:10294C00418198433A8429E4938781819C4399E798
:10295C0081454A85EF00E07D23ACA180A6854A85A0
:10296C00EF00207DFD5963193507B1472320F9008D
:10297C004A85EF00501929A0E3DE04FAB1471CC1C7
:10298C000145F2406244D2444249B2490561828019
:10299C001C40858F63CF0702AD4663F6F6001CC062
:1029AC003E9404C031A05C406313870223AAF180DB
:1029BC004A85EF0050151305B40093074400619944
:1029CC003307F5405DDF3A94898F1CC05DBF5CC353
:1029DC00C5B72287404085BF130435007198E302C8
:1029EC0085FCB305A4404A85A927E31C35FBB5BF7C
:1029FC001C46FD171CC663DA0700184E63C5E700BA
:102A0C00A9476394F5006FF02FFD1C422E851387A8
:102A1C00170018C22380B7008280011122CC26CA6D
:102A2C004AC84EC652C406CE2A89AE893284B30433
:102A3C00D6007D5A63149400014509A8834504000F
:102A4C004E864A8575370504E31645FFF24062440D
:102A5C00D2444249B249224A05618280357122CD65
:102A6C0026CB4AC94EC706CF52C556C35AC1DEDE65
:102A7C00E2DCE6DAAA89AE843289368409C51C4DBB
:102A8C0099E3EFF01FB8971700009387E7C7639C93
:102A9C00F40C83A4490083D7C400A18BFDC79C48C8
:102AAC00EDC793070002A304F1029307000302D2BF
:102ABC002305F10222C6930B5002971A0000938A49
:102ACC00AAC8054C294B4A848347040099C36391D7
:102ADC00770FB30C2441638D0C00E6864A86A685DD
:102AEC004E85253FFD576307F51E9256E69636D266
:102AFC00834704006380071EFD571309140002C8A6
:102B0C0002CE3ECA02CCA309010482D4834509003B
:102B1C0015465685EF00607D13041900C24759E92C
:102B2C0013F7070109C713070002A309E10413F700
:102B3C00870009C71307B002A309E1048346090003
:102B4C001307A0026380E608F2474A8481462546B3
:102B5C000347040093051400130707FD6379E60A85
:102B6C00B5CA3ECE85A8971700009387E7BB63953F
:102B7C00F40083A4890005B7971700009387C7B6A4
:102B8C00E39BF4F083A4C90039B7A6854E85EFF01A
:102B9C00AFF001D97D55FA406A44DA444A49BA4942
:102BAC002A4A9A4A0A4BF65B665CD65C0D618280B7
:102BBC00050419BF330555413315AC00C98F3EC808
:102BCC002289A9B7324793064700184336C6634992
:102BDC0007023ACE034704009307E002631FF70491
:102BEC00034714009307A002631BF702B2470904C2
:102BFC00138747009C433AC663C107023ECA35A8F7
:102C0C003307E04093E727003ACE3EC8E1B7B387DD
:102C1C00670385462E84BA9725BFFD57C5B70504B3
:102C2C0002CA8146814725460347040093051400D8
:102C3C00130707FD6376E606F1F2834504000D46A3
:102C4C00171500001305C5B04D2511CD97170000C1
:102C5C00938707B01D8D93070004B397A7004245D7
:102C6C0005045D8D2AC8834504001946171500001C
:102C7C00130545AE130914002304B102BD253DC153
:102C8C0097D7FFFF9387473795E74247B2471377AC
:102C9C00071009CF91073EC69257D2973ED225B561
:102CAC00B387670385462E84BA97BDBF9D07E19B0A
:102CBC00A107D5B7780097060000938646D62686DE
:102CCC000C084E8597000000E7000000FD572A8A8B
:102CDC00E314F5FC83D7C40093F70704E39C07EADD
:102CEC00125555BD780097060000938646D326866C
:102CFC000C084E85012AD9BF797156CA9C49BA8AEB
:102D0C00984522D426D24ECE52CC06D64AD05AC89A
:102D1C005EC6AA892E84B284368A63D3E700BA874A
:102D2C009CC00347340419C385079CC01C4093F70F
:102D3C00070281C79C4089079CC0032904001379B2
:102D4C006900631A0900130B9401FD5B5C44984005
:102D5C00998F634CF9041C408346340493F70702A3
:102D6C00B336D000A5EB13063404D2854E85829A77
:102D7C00FD576303F5041C4011469840998B54444D
:102D8C0081446397C700B384E64063D30400814455
:102D9C001C4418486354F700998FBE940149690488
:102DAC007D5B63982405014509A885465A86D28522
:102DBC004E85829A631E75017D55B25022549254F1
:102DCC000259F249624AD24A424BB24B4561828067
:102DDC000509ADBF3307D40013060003A301C704D4
:102DEC000347540493871600A2978906A381E7042E
:102DFC009DBF85462286D2854E85829AE30E65FB61
:102E0C00050945B7797122D426D24AD04ECE06D6C2
:102E1C0052CC56CA5AC8B68983C685019307900608
:102E2C003289AA842E8413863504638DF60263E2FC
:102E3C00D706930780056387F61863EDD700638088
:102E4C00062293073004638EF60A930A24042301A6
:102E5C00D404C9A0930730066385F60A930740068D
:102E6C00E395F6FE1C40084393F6070893054500CE
:102E7C00C5C61C410CC363D807001307D002B307A7
:102E8C00F040A301E404971600009386268D294791
:102E9C006DA8930700076383F61663E5D7029307C3
:102EAC00E006638AF6189307F006E390F6FA0C40F6
:102EBC001C4313F80508138547006307080608C36D
:102ECC009C438DA893075007E383F6FE9307800776
:102EDC00638AF61293073007E399F6F61C43D04148
:102EEC0081459386470014C383AA07005685F52EA7
:102EFC0001C53305554148C05C401CC8A3010404FE
:102F0C0071A81C43930A2404938647009C4314C362
:102F1C002301F4048547D5B793F607041C410CC371
:102F2C00B9DAC207C18781BF93F5050408C3C9D9B3
:102F3C0083D707001307F0066387E60E9716000089
:102F4C009386C6812947A30104044C400CC463C575
:102F5C00050008406D9908C099E3B28A91CDB28AF8
:102F6C00B3F5E702FD1AB69583C505002380BA00B8
:102F7C00B3D5E70263FFE70AA147631EF7001C40C5
:102F8C00858B91CB58401C4863C7E700930700031F
:102F9C00A38FFAFEFD1A3306564110C84E87CA8617
:102FAC007000A2852685893B7D5A631E450B7D5595
:102FBC00B250225492540259F249624AD24A424BBC
:102FCC0045618280A382D50497060000938606791A
:102FDC000C40084313F805081C411105630D080249
:102FEC0008C313F7150001C793E505020CC0414750
:102FFC00B9FB0C4093F5F5FD0CC0B1B79C4193E7C0
:10300C0007029CC193078007A302F40497060000F3
:10301C009386067675BF13F8050408C3E30308FC12
:10302C00C207C1837DBF9706000093862673214794
:10303C0019BFAE8735B794411C43CC4913F8060829
:10304C00138547006306080008C39C438CC301A882
:10305C0008C393F606049C43F5DA2390B7002328A3
:10306C000400B28A25BF14485686CA8526858299E3
:10307C00E30F45F31C40898B8DE7B2474844E35975
:10308C00F5F23E8535B785465686CA8526858299E2
:10309C00E30F65F1050A5C443247998FE345FAFE6C
:1030AC00E9BF014A930A94017D5BF5B7011122CC6B
:1030BC0006CE2A8409C91C4D99E732C62EC4EFF0FE
:1030CC004FD43246A245970700009387E7636316F7
:1030DC00F60250401C46FD171CC663D00704184E60
:1030EC0063C7E70093F7F50F29476398E70222853A
:1030FC006244F24005616FF02F8E970700009387B2
:10310C00A7626314F6001044F1B797070000938789
:10311C00A75DE311F6FC504475BF1C4213F5F50F87
:10312C001387170018C22380B700F2406244056170
:10313C008280411122C42A842E8523AE019406C6B6
:10314C00EFD03FC3FD576317F5009387C1959C43A0
:10315C0091C31CC0B240224441018280411122C45F
:10316C002E848395E50006C64522634905007C48FC
:10317C00AA977CC8B2402244410182808357C40084
:10318C007D777D17F98F2316F400EDB783D7C50033
:10319C00011122CC26CA4AC84EC606CE93F7071098
:1031AC00AA842E843289B68991C78395E500894615
:1031BC00014631228357C4007D777D17F98F231682
:1031CC00F4008315E4006244F240CE864A86B2498C
:1031DC0042492685D24405613DA8411122C42E8462
:1031EC008395E50006C6E128FD570357C400631B11
:1031FC00F500FD77FD17F98F2316F400B240224439
:10320C00410182808567D98F2316F40068C8FDB709
:10321C008395E50005A8411122C42A842E85B28528
:10322C00368623AE019406C6EFD03FB2FD57631726
:10323C00F5009387C1959C4391C31CC0B2402244B6
:10324C0041018280411122C42A842E8523AE01942F
:10325C0006C6CD20FD576317F5009387C1959C4397
:10326C0091C31CC0B240224441018280411122C44E
:10327C002A842E85B28523AE019406C6D120FD5733
:10328C006317F5009387C1959C4391C31CC0B24052
:10329C00224441018280411122C42A842E8523AE0E
:1032AC00019406C66520FD576317F5009387C195F9
:1032BC009C4391C31CC0B240224441018280411105
:1032CC0022C42A842E85B285368623AE019406C686
:1032DC006120FD576317F5009387C1959C4391C3FB
:1032EC001CC0B24022444101828093F5F50F2A960E
:1032FC006314C5000145828083470500E38DB7FE4A
:10330C000505FDB782808280411122C42A842E8556
:10331C00B285368623AE019406C6A920FD576317E5
:10332C00F5009387C1959C4391C31CC0B2402244C5
:10333C00410182809307800523AEF1947D558280F4
:10334C009307800523AEF1947D5582809307800509
:10335C0023AEF194014582809307800523AEF1944E
:10336C007D5582809307800523AEF1947D55828034
:10337C00537461727420404368697049443D253030
:10338C0032580A0057616974204465766963652078
:10339C00496E0000456E756D416C6C526F6F7444D4
:1033AC00657620657272203D20253032580A000067
:1033BC00456E756D416C6C487562506F727420650A
:1033CC007272203D20253032580A00004D6F757303
:1033DC006520646174613A20000000007825303269
:1033EC00582000004D6F757365206572726F7220E6
:1033FC00253032780A0000004D6F757365206E6FB2
:10340C0020696E7465727275707420656E64706F6D
:10341C00696E74006B6579626F61726420646174AB
:10342C00613A20006B6579626F617264206572721B
:10343C006F7220253032780A000000006B657962CB
:10344C006F617264206E6F20696E74657272757034
:10345C007420656E64706F696E74000034D7FFFF62
:10346C005CD7FFFF84D7FFFF9CD7FFFFB6D7FFFFCA
:10347C005553422064657620696E000055534220F6
:10348C00646576206F757400774C656E6774683A66
:10349C002025780A0000000062526571756573740E
:1034AC00547970653A2025780A00000053656E64E3
:1034BC003A2025640A0000002530327820000000F4
:1034CC00466F756E642066756C6C207370656564F0
:1034DC0020646576696365206F6E20706F7274204E
:1034EC002531640A00000000466F756E64206C6F15
:1034FC007720737065656420646576696365206FF9
:10350C006E20706F7274202531640A0052657365E9
:10351C007420706F727420616E64207468656E2004
:10352C007761697420696E00446576696365206F04
:10353C006E20706F7274206572726F7200000000E2
:10354C00446576696365206F6E20706F72742025F8
:10355C0031642072656D6F7665640A00496E69741A
:10356C002064657620404578744875622D706F72C2
:10357C00745F2531642000005553425F4445565F0B
:10358C00434C4153535F4849442052656164790070
:10359C00546869732070726F6772616D20646F6E0E
:1035AC00277420737570706F7274204C6576656C1F
:1035BC002032204855420000496E69744465764FAC
:1035CC006E48756220457272203D20253032580AB3
:1035DC0000000000526573657420686F737420706E
:1035EC006F72740047657443666744657363723A1F
:1035FC00200000005553422D4469736B20526561C5
:10360C00647900005553422D5072696E74205265D6
:10361C0061647900416E616C797A65486964496EC0
:10362C0074456E647020253032780A005553422D53
:10363C004B6579626F617264205265616479000038
:10364C005553422D4D6F7573652052656164790039
:10365C004D617820506F72743A253032582000003A
:10366C004578742D48554220506F72745F25316433
:10367C002320706F776572206F6E206572726F7287
:10368C000A0000005553422D485542205265616492
:10369C0079000000496E6974526F6F74446576202E
:1036AC00457272203D20253032580A0044697361FE
:1036BC00626C6520686F737420706F727420626521
:1036CC006361757365206F6620646973636F6E6EDA
:1036DC006563740047657444657644657363723A38
:1036EC0020000000000000000000000000000000AE
:1036FC0000000000000000000000000000000000BE
:10370C0000000000000000000000000000000000AD
:10371C00000000000000000000000000000000009D
:10372C00000000000000000000000000000000008D
:10373C00000000000000000000000000000000007D
:10374C0000000000232D302B20000000686C4C0082
:10375C0065666745464700003031323334353637BD
:10376C003839414243444546000000003031323381
:10377C0034353637383961626364656600000000A1
:10378C008006000200000400800600010000120008
:10379C00000502000000000000090000000000000D
:1037AC008106002200004100A0060029000009004B
:0C37BC00210A0000000000008807002027
:1037C800000000001037000030370000F03600001D
:1037D80000000000000000000000000000000000E1
:1037E80000000000000000000000000000000000D1
:1037F80000000000000000000000000000000000C1
:1038080000000000000000000000000000000000B0
:1038180000000000000000000000000000000000A0
:08382800480900208807002078
:00000001FF
