:040000006F20904994
:10000400000000000000000090000020C402002056
:10001400A9BDF9F57C0300200000000000000000E9
:100024007C0300209000002000000000000000007D
:10003400900000200000000090000020000000005C
:1000440090000020900000209000002090000020EC
:1000540090000020AC1E0020801A00200000000048
:10006400900000209000002090000020EA0500206D
:10007400E203002090000020900000209000002067
:1000840090000020900000209000002090000020AC
:1000940001A04111B7170040985F3AC6945F3247F8
:1000A400E39CE6FE324541018280B7F70700011167
:1000B400944B13078008F337078093F787083EC2F1
:1000C4000F100000B71700401308700523800705C0
:1000D400930580FA2380B7040F10000003C6B70409
:1000E4001376F60DA385C7042380070412467326EE
:1000F40006800F1000001376050255CEF3360780F4
:1001040093F6860836C40F10000023800705238069
:10011400B7040F100000B70614007D89558D88C7F9
:10012400010001000100010023800704A246F3A698
:1001340006800F10000073370780137787083AC6CC
:100144000F100000238007052380B7040F10000060
:100154000F1000003727004093061005A303D78033
:1001640023800704B247F3A707800F10000093070A
:100174008008F3B7078093F787083ECE0F1000007E
:10018400B7170040130770052380E704130780FAAC
:100194002380E7040F10000003C7B70413670708A0
:1001A400A385E70423800704F247F3A707800F1011
:1001B4000000056182801376050459C273360780F6
:1001C4001376860832C80F100000238007052380A9
:1001D400B7040F10000037061400130606047D89C7
:1001E400518D88C70100010001000100238007042C
:1001F4004246732606800F1000007337078013777A
:1002040087083ACA0F100000238007052380B7042B
:100214000F100000A54793F6F60F639EF600B7276C
:10022400004013073005A383E780B71700402380FD
:100234000704D2470DBFB727004013072005E5B7D1
:1002440073370780137787083ACC0F100000238098
:1002540007052380B7040F10000098471367070CA5
:1002640098C723800704E247FDBD0111814601467A
:100274008145114506CEEF10D00C93078008F3B7E3
:10028400078093F787083EC60F100000B717004099
:10029400130770052380E704130780FA2380E7041B
:1002A4000F10000003C76704136717002383E704D4
:1002B40023800704B247F3A707800F100000F24021
:1002C4000561828041118146014681451145EF1047
:1002D400500713078008F337078093F787083EC455
:1002E4000F100000B7170040130670052380C704E1
:1002F400930680FA2380D7040F100000FD5523963F
:10030400B70223800704A245F3A505800F1000005F
:1003140073370780137787083AC60F1000002380CD
:10032400C7042380D7040F10000003C767041367B2
:1003340017002383E70423800704B247F3A7078049
:100344000F10000001A0BD473305F50201007D1523
:1003540075FD8280411122C426C206C6AA840144C6
:1003640063179400B2402244924441018280050400
:100374001305803E4204C13F4180DDB7930500026E
:1003840073A0458082457390153492402242B24254
:100394004243D2436244F244025592552256B25625
:1003A4004257D2576258F25806499649264AB64AE5
:1003B400464BD64B664CF64C065D965D265EB65EA5
:1003C400465FD65F0961730020304111B7170040C2
:1003D400985F3AC6945F3247E39CE6FE324541019A
:1003E4008280B7170040130700032388E70285477C
:1003F40023A4F18273002030BD6601471386C183B4
:10040400938606A685458347060093F7F70F91C3A5
:100414008280050701000100E3F7E6FE238EB18226
:10042400DDB7BD66014713868183938606A685459D
:100434008347060093F7F70F91C3828005070100F5
:100444000100E3F7E6FE238CB182DDB7B737004045
:100454002147B736004091E1828003C6B740E30CE0
:10046400C7FE05050346F5FFFD15C2052384C640F6
:10047400C181D5B78147B736004003C7A64013965C
:10048400070141821377F70F19E33285828003C68F
:1004940086403307F50085072300C700F9BF4111E3
:1004A40022C406C62A84976000E0E780001B034745
:1004B4001400238E01829307B00F63F5E700ED5714
:1004C400A300F400834514009306F00F1306F00F05
:1004D40013052400975000E0E780C05F09E522443B
:1004E400B240410111BFB240224441018280411116
:1004F4009397050122C406C6C1872E8463D10702DF
:10050400974000E0E780C0D509C5974000E0E78048
:1005140000D02165218DB24022444101828093F7AD
:10052400150013C51500E5FB93F7250099C713853E
:100534004196B53713452400F9BF93F745000145AB
:10054400F9DB13C54500C1BF9306F00F1306F00F86
:10055400930580021385C185175300E06700C37EAD
:100564008D476306F50463E6A7008547630AF50033
:100574008280C5476305F502C9476306F502828098
:10058400238EA18203C781806310A70693874183CA
:100594009C43850723AAF182A38DE182828085474B
:1005A400238EF182828083C781809DEF71BF4111C8
:1005B40022C406C62E8489E9938701839C43850758
:1005C40023A8F182513739A093F7150091C3AD3FA9
:1005D40009886DF82244B24003C5A18391454101C5
:1005E400174300E0670083E1828037370040834788
:1005F40047408546BD8B638AD704834747401147EC
:10060400BD8B6385E70031476391E704011148001E
:1006140022CE26CC85359374F50F138441E82686C3
:100624004C002285EF00D04301CD1048144CA68520
:10063400179500E01305055A978000E0E780A02491
:100644007244E244056173002030730020300DC110
:10065400B1476302F502930770026300F502AD47E8
:1006640063E6A7007D151375F50F82807915E5BF44
:100674001305500282801305600282808146A148DE
:1006840063E3B600828083D761800148014613F793
:10069400170033170701598E13D747003D8F2207E0
:1006A40013770710858305081376F60FD98FE310A7
:1006B40018FF2393F180B307D50085062380C70074
:1006C40093F6F60F75BF0147916821436363B70042
:1006D400828083D741800146814613F8170033187E
:1006E400C800B366D80013D81700B347F800BA0798
:1006F400B3F71701050693F6F60FB3E70701E31EF8
:1007040066FC2392F180B307E50005072380D70038
:100714001377F70F65BF411122C426C206C683476B
:1007240005001D47AA842E84636DF700179700E027
:100734001307073D8A07BA979C430905BA9782872E
:10074400353FA3808400B240224492444101828018
:10075400138645009305000FEF00B055DDB71386EF
:1007640045009305A00ACDBFB93FE1BF13864500FC
:100774009305F00FD5B7138645008145F1BF138665
:100784004500BD45D1BF1386450093055005E9B723
:10079400797122D4138441E8584806D626D24AD027
:1007A4008D4763FEE70081452285EF00704E854743
:1007B400AA84630CF50085452285EF00D041B25030
:1007C400225492540259456182808D452285EF005E
:1007D400304C5C4813094500E3E327FF4A862C00AC
:1007E4002285EF0090381146979500E09385C56205
:1007F4002800EF00304D51ED976000E0E780E0E520
:1008040093076010172700002319F74883479100C6
:10081400172700002304F7488347A1001727000087
:10082400A30EF74697270000238B074683C79183BF
:10083400639997000145977000E0E780A02CA38C92
:10084400018203C7818085476312F704938741833C
:100854009843A54597260000A383E6449C43A183BF
:1008640017270000230EF742172500001305C54281
:10087400F13E23A801822386018223AA0182FD5727
:100884002384F180CA85138541E805BF93870183DA
:10089400C1B71146979500E09385C5572800EF002E
:1008A400704221E993074010172700002317F73EF1
:1008B400834791009D45172500001305E53D172743
:1008C4000000230DF73C8347A10017270000A3076E
:1008D400F73C972700002384073C8D3E0345C10065
:1008E400A38C91822386A182977000E0E780A035D3
:1008F40051BF1146979500E0938505532800EF00FA
:10090400703C0DE993074010172700002317F738B0
:10091400834791009D45172700002301F73883473B
:10092400A10017270000A30BF736972700002388A0
:1009340007361DBF1146979500E09385A54E280004
:10094400EF0050383DE9976000E0E78000D193075D
:100954004010172700002312F734834791009D4568
:100964001725000013054533172700002308F73225
:100974008347A10017270000A302F732972700003E
:10098400238F0730E1340345C100D1312386A1828E
:10099400138741A623A801828347070093F7F7FC36
:1009A4002382F1A6A382A1A63A85975000E0E780AE
:1009B40060F823840180493EF1B51146979500E023
:1009C400938545472800EF00F02F41ED976000E044
:1009D400E780A0C89307401017270000231FF72AB9
:1009E400834791009D45172500001305E52A172725
:1009F40000002305F72A8347A10017270000A30F4F
:100A0400F72897270000238C072889340345C10061
:100A14003D39138741A62386A18223A801828347F7
:100A2400070093F7F7FC2382F1A6A382A1A63A85D7
:100A3400975000E0E78000F08345D100138541968C
:100A4400A382B1968347E1002382F19623849180A7
:100A5400D931894503C5A183974000E0E780009A16
:100A640015B51146979500E09385453C2800EF00A5
:100A7400702521E59307401017270000231FF72056
:100A8400834791009D45172500001305E52017278E
:100A940000002305F7208347A10017270000A30FB8
:100AA400F71E97270000238C071E4D320345C10013
:100AB400977000E0E780C00BF1B31146979500E012
:100AC4009385C5352800EF00F01F35E993074010E2
:100AD400172700002313F71C834791009D45172512
:100AE40000001305651B172700002309F71A834725
:100AF400A10017270000A303F71A972700002380FB
:100B0400071AA932B7170040130770052380E704BA
:100B1400130780FA2380E70403C7E7041377F70871
:100B24002387E7040347C10083C6E7041207558FF0
:100B34001377F70F2387E70423800704A1B309463B
:100B4400979500E09385C52D2800EF00B01741E18B
:100B5400976000E0E78060B093074010172700001B
:100B6400231DF712834791009D45172500001305A7
:100B7400A512172700002303F7128347A1001727A4
:100B84000000A30DF71097270000238A07107D3873
:100B94000345C1006D3C2386A1828347D1000547EC
:100BA400639FE70083C741A693F7F70C2382F1A65E
:100BB400A382A1A623A80182138541A6FDB30947F8
:100BC400E398E7FE83C741A693E70701C5B7094643
:100BD400979500E09385C5252800EF00B00E5DE5EC
:100BE400976000E0E78060A7930740101727000094
:100BF4002315F70A834791009D4517250000130527
:100C0400A50917270000230BF7088347A10017271E
:100C14000000A305F7089727000023820708EFF0D8
:100C2400FF820345C10025348345D1002386A18278
:100C340013854196A382B1968347E1002382F196FE
:100C4400D93C8347F1000547639AE70283C741A66D
:100C540093F7F70C2382F1A623A801829387C1821C
:100C640083C70700138541A6A382F1A6975000E02D
:100C7400E78040CC85472384F180E1BB0947E39DAD
:100C8400E7FC83C741A693E70701E9B79307401040
:100C9400172700002313F700834791009D4517256C
:100CA4000000130565FF172700002309F7FE83479B
:100CB400A10017270000A303F7FE97270000238055
:100CC40007FEEFF0AFF87DBE797122D41384012AB8
:100CD400584806D626D24AD08D4763FEE7008145A0
:100CE4002285EF00E07A8547AA84630CF5008545E8
:100CF4002285EF00406EB25022549254025945614D
:100D040082808D452285EF00A0785C481309450058
:100D1400E3E327FF4A862C002285EF000065114695
:100D2400979500E09385450F2800EF00A07959EDD1
:100D3400976000E0E7806092930760101727000037
:100D4400231DF7F483479100172700002308F7F4C5
:100D54008347A10017270000A302F7F49727000098
:100D6400238F07F283C79183639997000145977096
:100D740000E0E78020D9A38C018203C781808547E6
:100D84006313F704938741839843A545972600008E
:100D9400A387E6F09C43A183172700002302F7F002
:100DA40017250000130545EFEF00007923A8018201
:100DB4002386018223AA0182FD572384F180CA85F8
:100DC4001385012A3DB7938701837DBF114697950B
:100DD40000E0938525042800EF00C06E29E99307FD
:100DE400401017270000231AF7EA834791009D4516
:100DF40017250000130545EA172700002300F7EA2A
:100E04008347A10017270000A30AF7E897270000EB
:100E1400238707E8EF0040720345C100A38C918249
:100E24002386A182977000E0E780E0E149BF114684
:100E3400979500E0938545FF2800EF00A0680DE931
:100E440093074010172700002319F7E48347910004
:100E54009D45172700002303F7E48347A1001727C4
:100E64000000A30DF7E297270000238A07E20DBFD5
:100E74001146979500E09385E5FA2800EF00806419
:100E840035ED975000E0E780407D93074010172729
:100E940000002314F7E0834791009D4517250000C7
:100EA400130585DF17270000230AF7DE8347A10017
:100EB40017270000A304F7DE97270000238107DE2D
:100EC400EF0080670345C100EFF06FF82386A1822D
:100ED400138741A623A801828347070093F7F7FCF1
:100EE4002382F1A6A382A1A63A85975000E0E78069
:100EF40060A423840180EFF02FE5D1B511469795C6
:100F040000E0938525F32800752B51ED975000E000
:100F1400E780A0749307401017270000231FF7D61B
:100F2400834791009D45172500001305E5D6172733
:100F340000002305F7D68347A10017270000A30F5D
:100F4400F7D497270000238C07D4FD230345C10061
:100F5400EFF0EFEF138741A62386A18223A8018235
:100F64008347070093F7F7FC2382F1A6A382A1A687
:100F74003A85975000E0E780E09B8345D1001385D4
:100F84004196A382B1968347E1002382F19623849C
:100F94009180EFF04FF8894503C5A183973000E0B5
:100FA400E780C04529BD1146979500E0938505E883
:100FB4002800092B21E59307401017270000231E62
:100FC400F7CC834791009D45172500001305C5CC38
:100FD400172700002304F7CC8347A100172700003C
:100FE400A30EF7CA97270000238B07CAB123034532
:100FF400C100977000E0E780A0B7D1B31146979580
:1010040000E09385A5E12800752935E99307401090
:10101400172700002313F7C8834791009D45172520
:101024000000130565C7172700002309F7C6834787
:10103400A10017270000A303F7C697270000238009
:1010440007C6DD29B7170040130770052380E7049E
:10105400130780FA2380E70403C7E7041377F7082C
:101064002387E7040347C10083C6E7041207558FAB
:101074001377F70F2387E7042380070489B309460E
:10108400979500E09385C5D928002D2949E197500B
:1010940000E0E780805C9307401017270000231EC0
:1010A400F7BE834791009D45172500001305C5BE73
:1010B400172700002304F7BE8347A1001727000069
:1010C400A30EF7BC97270000238B07BCB52103456B
:1010D400C100EFF0CFD72386A1828347D100054713
:1010E400639FE70083C741A693F7F70C2382F1A619
:1010F400A382A1A623A80182138541A6FDB30947B3
:10110400E398E7FE83C741A693E70701C5B70946FD
:10111400979500E09385C5D128006D266313050CCF
:10112400975000E0E78060539307401017270000B2
:101134002315F7B6834791009D4517250000130535
:10114400A5B517270000230BF7B48347A100172781
:101154000000A305F7B497270000238207B4E92E03
:101164000345C100EFF0AFCE8345D1002386A182B1
:1011740013854196A382B1968347E1002382F196B9
:10118400EFF06FD98347F10005476394E70483C701
:1011940041A693F7F70C2382F1A683C5C182179564
:1011A40000E01305A5A423A80182977000E0E7805E
:1011B400806D9387C18283C70700138541A6A382EC
:1011C400F1A6974000E0E780E07685472384F1802C
:1011D400D9B30947E393E7FC83C741A693E7070123
:1011E4005DBF93074010172700002318F7AA834711
:1011F40091009D4517250000130505AA1727000037
:10120400230EF7A88347A10017270000A308F7A817
:1012140097270000238507A8052655B6411106C661
:10122400EFF00FD7553483C7B18395C30545EFF06D
:101234008F911385419683C55196A38D0182EFF05A
:101244008FCDB2401385419641016FF04FA5B24056
:1012540041018280411106C6EF00D077C137EDBF4E
:101264001C4963EFC70658415C45998FB386F50066
:101274003387C50063E8C702638FE5025C418505D7
:101284009386170054C183C6F5FF2380D700EDB7BA
:1012940058418505130817002322050103C8F5FFEB
:1012A40023000701E396D5FE1841B307F64058C161
:1012B4000147636AF7001C49918F1CC95C493E963B
:1012C40050C9014582804C41138815002322050131
:1012D4003388E60003480800050723800501D1BFD1
:1012E400054582805C4963E0C70818455C45998FD1
:1012F400B386F5003387C50063E8C702638FE50250
:101304001C4585059386170014C583C70700A38F62
:10131400F5FEEDB7184585051308170023240501CC
:1013240003470700A38FE5FEE396D5FE1841B307F4
:10133400F64018C50147636BF7001C49B2971CC9F6
:101344005C493386C74050C9014582800C451388E7
:1013540015002324050103C80500B385E60005072D
:1013640023800501C9BF054582805C4963E3C70644
:1013740014455C45958F63E1C7048147638CC702BC
:101384003387F600034507003387F50085072300FC
:10139400A700EDB73388E600834808003388E500EA
:1013A400050723001801E317F7FE084101471D8EC6
:1013B4006366C700014582800147F5B7B306E500BF
:1013C40003C80600B306F700AE962380060105079E
:1013D400C5B7054582805C4963E6B7021C4558459C
:1013E4001D8FAE976376B7001C413387E540BA97EB
:1013F4001CC51C49AE971CC95C49B385B7404CC990
:1014040001458280054582801C4963E1C708184173
:101414001C45998FB386F5003387C50063E8C7027E
:101424006381E5041C4585059386F7FF14C583C6CF
:10143400F5FF2380D700EDB7184585051308F7FF9E
:101444002324050103C8F5FF23000701E396D5FE15
:101454000C4D1841B307F6402E9718C50147636A2F
:10146400F7001C49918F1CC95C493E9650C901453F
:1014740082800C451388F5FF232405013388E60098
:1014840003480800050723800501D1BF0545828074
:1014940018491C4D637DF7001C4558451D8F63E4B6
:1014A400E5001C41998DBE9503C505008280014568
:1014B40082802A96AA876393C70082808507A38FB8
:1014C400B7FED5BF01476314E60001458280B30728
:1014D400E5000507B386E500838707008386F6FFEA
:1014E400E383D7FE3385D7408280974700009387F4
:1014F40027AE23A8F18097470000938767B923AAF2
:10150400F180974700009387A7C0411123ACF18075
:10151400974700009387C7C706C623AEF18097207C
:1015240000E0E780A06FB240B7E700E03707400073
:1015340023A0E71041018280B787004083C7A70238
:10154400858B9DEF411106C69386818113F7F70FB2
:10155400636CB70013F5F50F972000E0E780E073A4
:10156400B2400145410182803307F500034607007C
:10157400984213F8F70F850742972300C704F9B779
:10158400054582808280938781818C43411122C4E6
:101594002A862A841385012A06C6D9310DC1938768
:1015A400012AA2852244904BB240944F178500E053
:1015B400130545624101177300E06700C32CB24074
:1015C40022444101828082808280B787004003C721
:1015D40067001377F70F9376270063890646011196
:1015E40006CE22CC26CA4AC84EC603C77700930645
:1015F400000313770703630BD70203C777009146F1
:101604001377F7036300D72063E5E60C8546630987
:10161400D71C630D071C89466301D71A8D466301E5
:10162400D71CB787004009472383E700378700406A
:1016340083477700E207E18763D4072E930720FCF2
:101644002301F7029386018188420347750083478B
:10165400650022075D8F2390E18483471500238F63
:10166400F1828344050013F604066309061E13077A
:10167400000C639FE4321307F0056392E71A97871F
:1016840000E09387277C23A2F184014409469387D1
:1016940041848C43977000E0E78080139307F00F38
:1016A4006305F42683D70184930600043E8763F41C
:1016B400F6001307000442074183998F9376F70FCE
:1016C4002390F184B78700402380D702130700FCDE
:1016D40089A493062002630CD70E63E3E602930603
:1016E40000026306D70493061002E31CD7F203C773
:1016F40067021377C70F136727002383E70215B721
:10170400930630026307D70E93064002E31BD7F01B
:1017140003C72703134707042389E70203C72703E3
:101724001377C70F136727002389E702DDBD03C7BB
:10173400E18395466305D7069946631DD7069387CB
:10174400018403D4070013070004BE846374870074
:10175400130400049387018113894184884342045C
:101764008325090041802286977000E0E7804006C7
:1017740083D704009379F40F818F2390F184832716
:1017840009003E9423A28184B78700402380370355
:1017940003C72702134707042381E70259B503C788
:1017A400370083C6018413770708558FA381E700A8
:1017B4000947DDB723800702E5BF03C77700137726
:1017C4000704E30007E603C58700753B99BD03C71B
:1017D400A7021377C70F136727002385E70291B584
:1017E40003C7770013770704E30D07E283C7870075
:1017F4000DBD03C7E7021377C70F136727002387BD
:10180400E70205B503C7770013770704E30B07E086
:1018140003C72703134707082389E702C1BF130738
:1018240050091304F00F6399E70283473500034717
:101834002500A207D98F61476397E700978700E0E7
:101844009387876089B5194701446397E7009787B1
:1018540000E09387A75F05BD014615BD2946636671
:10186400F60A178600E01306A62B8A07B2979C4354
:10187400B297828783473500834625000946A2072D
:10188400D58F93D687006384C60A6368D6008547DC
:10189400638FF6001304F00F09A88D456383B60A1D
:1018A400930720020144E397F6FE814709A897872E
:1018B40000E09387E73723A2F1840144C947C207B4
:1018C400C18363F4E7002390F1849387018403D6F2
:1018D40007009307000463F4C70013060004938908
:1018E40041841319060183A50900135909014A8685
:1018F400977000E0E780C0ED03A609004A9623A292
:10190400C1849307F00F6315F40AB78700401307E7
:10191400F0FC2381E702B787004009472383E700EF
:10192400F2406244D2444249B249056182809787B9
:1019340000E09387672C23A2F1840144930770028B
:10194400BDBF93F7F70F8546638ED7008DC7E3932A
:10195400C7F4978700E09387E72E23A2F18401441C
:10196400F147B1BF978700E09387872B23A2F184C7
:101974000144B947A9B7978700E09387674C23A22E
:10198400F1840144914725BF834725002390F184C6
:1019940005A083C7D1832300F50003D701848547BD
:1019A40063F8E7008547DDB783472500A38EF182FE
:1019B400E204E184E3C804CE814629B313F7F401B9
:1019C4008947E314F7F4834745006381E704636CB4
:1019D400F7000547E39BE7F2378700408347670238
:1019E40093F7370799A0130710086388E7021307D2
:1019F4002008E39CE7F0378700408347A70293F76A
:101A0400C70B93E727002305F7025DB7378700402C
:101A14008347A70293F73707FDB73787004083470B
:101A2400670293F7C70B93E727002303F70249B72D
:101A3400230005009DB7230005009C42A3800700F6
:101A440003D701848947E3F5E7F689B7937617004E
:101A54008DC2A381070009472381E70249472383F5
:101A6400E7022385E7022387E70205472383E7008C
:101A7400828093764700FDDA03C757001147FDB70C
:101A8400A936730020302303048015472303E48020
:101A940001002302A480828083076480E3CE07FED2
:101AA40023030480828083076480E3CE07FE03451A
:101AB4004480828083076480E3CE07FE2302A480EF
:101AC4008280411126C44AC24EC006C61377F50B64
:101AD400AD47AA892E8995446306F70019456537F1
:101AE400653F8D444E854537FD59FD146398340197
:101AF400B240A2441249824941018280135509012E
:101B04001375F50F453F2209CDB7011126CC06CE3A
:101B1400B704080051371545BD37713769372AC6F0
:101B2400A53F32459377150089EB136515001375AE
:101B3400F50FF240E24405618280FD14E9FC0145A1
:101B4400CDBF397126DC4ADA4ED852D656D45AD291
:101B54005ED006DE62CE66CCB7E700E07D5783AA8E
:101B6400070022C603AA470023A0E71823A2E71808
:101B7400B7170040130770052380E704130780FAA2
:101B84002380E70483C74704930B75FFB684E207F9
:101B940093FBFB0F8546AA892E8B3289372400409C
:101BA400E187015763FA76016308D5008946130774
:101BB40000026313D5000157D98F93F7F70FB71CB1
:101BC40000402382FC0411472303E4801305F00F33
:101BD4005D3D094CD135636D7C11B7050700DA957D
:101BE40037870700795563F2E504B3879500636E80
:101BF400F702370B0800A94733EB65016399F9062F
:101C040089E48144513D26850DA0DA850945553D79
:101C140005090345F9FFFD14050B693D81C493775C
:101C2400FB0FFDF7DD3569FD7D55B7170040130740
:101C340070052380E704130780FA2380E70403C7B1
:101C44004704418B2382E704F250B7E700E023A066
:101C5400571123A24711E25432445259C259325AFD
:101C6400A25A125B825B724CE24C21618280A547CE
:101C74006395F90685691309F00FB3069900B374E7
:101C84002B01B6941349F9FFB3749900856B33792A
:101C94006901416B9387F9FFB3F7270199E363FC6B
:101CA400340193D94900C147E3E637FF99BF056979
:101CB400C1697D19D9B71305800D638869011305BE
:101CC40000026384790113051008CA85DD3B353DA4
:101CD40021DD4E99B3843441D9B7DA852D45D53306
:101CE400CA94E30099F205097D3BA30FA9FED5BF71
:101CF4009387F9FF93F7F70F6361FC0C83C71C0408
:101D040013073008631FF70437070800636BEB04FD
:101D1400B3079B00B706100063F5D704334BEB0001
:101D240089476393F9068980D549E38C04ECDA8505
:101D34000945413B11090327C9FF91472320E4804A
:101D440003076480E34E07FE23033481FD17EDFB94
:101D5400FD14110B81C49377FB0FE9FF7D3371F5FB
:101D6400E1B5B717004003C75704B7070800137756
:101D7400070219E3B78707007955E378FBEA3307CD
:101D84009B00E3FFE7F855B58547E382F9F2DA856E
:101D94002D45053B9389F4FFE38504E6293393F746
:101DA400390091EB83260480032709009307490037
:101DB400E39AE6E43E89CE84F1BFB5476396F90021
:101DC4001305900BC93135BDB1471305B00AE38B38
:101DD400F9FE99476391F904B7050800B365BB00A0
:101DE4002D45C53181448D4BA149753963967401E4
:101DF400832704802320F9008504E39834FF832794
:101E0400048013172B01635507002312F900D5BB77
:101E14002322F900FDB39D476399F9028145130517
:101E2400B0044531BD442320090023220900FD5993
:101E34009D3993F77400CA9703C70700FD14398DC1
:101E44002380A700E39634FF6DBBA1476392F90496
:101E54006D398144630D0B008D479304C0036308FF
:101E6400FB009304000563048B0193044004137581
:101E7400C507E30895D81945393139390545213164
:101E840026850D3909453D314931E31C05D669BB29
:101E940091476399F90013056006F536F53E13057D
:101EA40090090DB7E38F09D4F154A9BB197106C287
:101EB40012C416C61AC81ECA22CC26CE2AD02ED2C6
:101EC40032D436D63AD83EDA42DC46DECAC0CEC276
:101ED400D2C4D6C6DAC8DECAE2CCE6CEEAD0EED2A6
:101EE400F2D4F6D6FAD8FEDA938501828841E70067
:101EF400050092402242B2424243D2436244F24439
:101F0400025592552256B2564257D2576258F25849
:101F140006499649264AB64A464BD64B664CF64C79
:101F2400065D965D265EB65E465FD65F0961730008
:101F34002030B7E700E09843B706200023A0D71865
:101F4400758F0F10000001C599C1814711E6B7E7ED
:101F540000E023A0E7108280B386F50003C80600E2
:101F6400B306F500850723800601E317F6FEC5B71F
:101F740037E700E01C43B70620002320D718F58F6D
:101F84000F10000001C53307C50011E637E700E074
:101F94002320F71082800505A30FB5FEE31DE5FE9F
:101FA400F5B737E700E01C43B70620002320D71815
:101FB400F58F0F10000001C599C1014711EA37E7F9
:101FC40000E02320F710054582800507E309E6FEBB
:101FD4003308E500B386E5000348080083C606001D
:101FE400E305D8FE37E700E02320F710014582809F
:101FF40037E700E01C43B70620002320D718F58FED
:102004000F10000001C53307C50019E637E700E0EB
:102014002320F7100145828005058346F5FFE397E9
:10202400B6FEE31BE5FE37E700E02320F710054585
:1020340082807971973700009387072322D48043E5
:1020440006D626D24AD04ECE52CC56CA5AC85EC6FE
:1020540069C037C9C901014B9739000093894920E8
:102064001309F937173A0000130A4A20973A000077
:10207400938A4A1A973400009384042483572400D3
:1020840095E35C44631D0B0017370000232EF71CF7
:10209400832BC4002285EF00502F5E84A9A8232639
:1020A400FB00FDB783A7090082971C443307F54062
:1020B4006375F500D8401D8F2A976361E908973747
:1020C400000023A10716835524000345040097202C
:1020D40000E0E780A0325C405844B9C70C44D040CB
:1020E400AE97BE8663E4B70063E4C700B386C74017
:1020F40014C4228B3A8459F09737000093878711D0
:102104009C4B09476373F708F91717370000232B13
:10211400F710B250225492540259F249624AD24AF8
:10212400424BB24B4561828063170B009737000026
:1021340023ACE712B1BF2326EB0099BF03274A0261
:102144001DCF63E1A7043385A7408347040085E3DB
:10215400173700000347F7125917B307A7003E8546
:10216400D44063E4E70063E4D7003385D74083A712
:102174000A016376F5009737000023A5A70A228B8E
:10218400404495BFD840BA977DBF9737000023AB32
:10219400070841B797370000938787119C4385C38D
:1021A400411106C682979737000083C7470B89E71A
:1021B4009737000023AE070EB24041018280973763
:1021C400000083C7C70991E79737000023A2070ED1
:1021D40082808280411122C4173400001304440613
:1021E4001C4006C626C24AC091C782979737000092
:1021F40023A807049737000083C7170E858B173968
:1022040000001309290D89CF834779001947631208
:10221400F71097370000A381070CF9295C448297D3
:102224001C4491C38297973400009384A40398407C
:1022340017360000034616FE9737000083C787FD54
:1022440093961700BA9683D60600E5C29737000026
:1022540083C747FC63E5C70E97370000238C07FA52
:102264001C40639E071497370000938767FF9C43C5
:10227400638707149737000093870704DC431737F5
:1022840000002321F7FA75339737000083C7370519
:10229400639707129737000083C7570491CF83478A
:1022A400790093F7F70F89EB97370000A3880702AB
:1022B400973000E0E78060C697370000938707FBFC
:1022C400DC53638E070E973700009387A7F49C4B6B
:1022D400FDC78347790015476363F70E97370000FE
:1022E40083C7C704918BE1EF9737000083C727F7B3
:1022F400F9E790409736000083C6D6F163C7D70C40
:102304002244B240924402494101172300E067008D
:102314000336834779001D47E314F7F0973700002D
:10232400A38C07FAD12E1C48DDBD850793F7F70F60
:10233400973600002380F6EEE3E0C7F001BF86077E
:102344003E97835507002310070097370000239713
:1023540007F097370000938767EE9C43173500001A
:10236400034545EB13172500BA979C43829797378B
:10237400000083D7A7EE173700000347A7E993C7E8
:10238400F7FF7D8D9317170098403E9783570700FA
:102394005D8D2310A7009737000083C7A7E791C777
:1023A4008507173700002307F7E6173700000347B0
:1023B40067E69737000083C7F7E5E37FF7E8B240A5
:1023C40022449244024941018280139717003297B4
:1023D400035707006DF7850715B737C700408326F5
:1023E400C720B707FCFFFD17F58F2326F720010050
:1023F4000100973700009387E7E1C84F83278726BA
:102404002326D7206A0593C7F7FF99835D8D8280C1
:10241400EFF05FD873000000000000009732000066
:102424009382E2E30383020023800200630F03002C
:10243400F32510342EC0970500009385A5FD7390F5
:102444001534EF00204E7300203086DCEF00804D01
:10245400E6508280000017370000130767E7144333
:10246400411122C49C5E4AC006C6998326C2858B4C
:102474003A84173900001309A908D1CB9307000641
:102484009CDE17370000034747E59307000897349D
:102494000000938424E4631BF700832709009C4312
:1024A40093F70704173700002309F7E283C70400F2
:1024B40093F707049DC397370000938767DA9C431B
:1024C40082979737000023A5A7E283C7040093F7F8
:1024D400F70B17370000230FF7DE83C7440093F789
:1024E400070495E7854717370000A307F7DE9737FA
:1024F40000009387A7E09C433707020098C713079F
:1025040000FC973600002389E6DC9848F8D318408D
:102514001C5F9183858B8DC31C5F93E707011CDFD0
:1025240097370000938787DD9C4323A207068547DE
:10253400173700002302F7DA83270900D8430583FD
:10254400058B19C7D843759BD8C3D843799BD8C387
:10255400B24022449244024941018280ED3D73001D
:1025640020309317D50063D3070297370000938771
:10257400E7D89C437D57B8D797370000938787C91E
:10258400DC4F8507173700002324F7CA93778500AB
:102594009DCB9737000083C707D493E717001737FD
:1025A4000000230AF7D2930700F817370000230529
:1025B400F7D2973700009387A7D198435C57F19BD4
:1025C40093E717005CD7937715008DC79737000002
:1025D40083C757D093E7170017370000A30CF7CE33
:1025E400973700009387C7CE98435C57F19B93E7D6
:1025F40017005CD79377650095CB93774500173721
:102604000000130727CDCDCB8347070093E71700BE
:10261400173700002300F7CC97370000938747CB88
:1026240098435C57F19B93E717005CD79317F50029
:1026340063D4070217370000034747E1418B9737FC
:102644000000938727D951C383C7870793E70702FD
:1026540017370000230CF7DE9317E50063D7070252
:102664009737000083C747C7E207E18763D70700AE
:102674008547173700002301F7C697370000938773
:10268400E7C79C433707020098C79317C50063D474
:10269400070217370000034777DB058B97370000E5
:1026A400938747D329C383C7970793E7270017372F
:1026B4000000A30DF7D882808347370093E7170003
:1026C40017370000A309F7C081BF03C787078946EE
:1026D4003D8B6308D70083C787070D47BD8BE39DF8
:1026E400E7F69147B5B703C79707118B69D783C737
:1026F400970793E7870065BF97370000938707C064
:102704009443973700009387E7BC03C70700058B02
:1027140011CB97370000238107BC97370000A38DA6
:1027240007BA828003C71700058B65F7F85271FF5B
:1027340083C75700DDB717370000130767B90328AD
:102744000700832788039583858BADEF11C6832704
:102754000803BD832300F6009DC61C43985B46070F
:10276400935767016356070093E707C0C207C18305
:1027740003970600C207C18709C7BA970947B3C7B9
:10278400E7022390F6008DCD8345150095C9973750
:10279400000083C787B493F707041387950089451E
:1027A40085C33A95834705000547994593F6F7068F
:1027B4006398E600E207E187814563D30700B945E2
:1027C4002E8582808545EDBF411126C206C622C4EE
:1027D40097340000938484B23DED9440AE87F85260
:1027E4007DFF37F400E03E8597370000238507AE70
:1027F400832704D1B285ED9B2328F4D0832704D109
:1028040093E787022328F4D073005010972000E048
:10281400E780605D97370000938787AB9C43B706DA
:1028240080009843558F98C3D857719BD8D7973752
:102834000000A38307AA97370000A38D07A89C4034
:10284400094798C3832704D193E787002328F4D04A
:10285400730050100DA08D476315F50497370000E1
:10286400938707A79C43B70680009843558F98C366
:10287400D857719BD8D7944017370000130787A502
:1028840083472700858B89EB83473700858BC1CB32
:1028940097370000238207A4B240224492444101A6
:1028A40082808547E319F5FCB7F700E003A707D159
:1028B4006D9B23A8E7D003A707D11367870223A83A
:1028C400E7D07300501098408177FD175447F58F77
:1028D4005CC70F1000009840B70702001CC793079D
:1028E40000F8173600002309F69E973700009387F7
:1028F400279E9C439C439D83858B639FA7009307DE
:1029040060197CD354C737F700E0832707D193E7D6
:1029140087002328F7D02DBF9307E01BDDB7FC52B7
:10292400A5F39DBF973700009387479D9C43884735
:10293400D847798D09C988C79387C18403A3070041
:102944006303030002838280173700001307479B49
:102954008346B7019737000083C7579D4C4BB69702
:10296400FD8B33D7F50097360000A38BF698973686
:102974000000A38DF69A058B15EF17370000034767
:10298400379BB3F7E702814601471305000233D6AC
:10299400E500058A1378F70F19CA6397D7009737AC
:1029A4000000A38F07958280850693F6F60F05072E
:1029B400E31FA7FC8280973700009387678A9C43B4
:1029C400011122CC4AC806CE26CA4EC68297973732
:1029D40000009387E794804701496301A406BE84FD
:1029E40063668506018D135455009737000083C72D
:1029F400C7921379F5016360F40497390000938951
:102A0400A98B993703A884009736000083C6E69003
:102A1400139756004297158C3A8683A54900636440
:102A240007016364B7003306B7409737000023AD4E
:102A3400C78EE378D4FC160433692401F24062445F
:102A44004A85D2444249B2490561828097370000E1
:102A540093878786DC4333848740229569B7973709
:102A640000009387A78998438967938707F47CD3E9
:102A7400973700009387C78D9C4383A60709139655
:102A840056006358060083A607091396660063443C
:102A940006007453FDF282804111B7E700E022C4BE
:102AA40080433707200006C6798C23A0E7180F104F
:102AB400000011C199E5B7E700E023A087100145A4
:102AC4007DA893073500C207C183F19BC207C18368
:102AD400130740036369F702173700001307078FD2
:102AE4000843173700001307E78D14436392A602C7
:102AF4001727000013078777185B55DFC207DD8DA2
:102B0400054502974DBF173700001307E78BC9BF70
:102B1400035765002DEB035745006366F706B306BC
:102B2400F7402146637CD60203280500938687007C
:102B34001D8FAA966117172600000356066E23926E
:102B4400E60023A006012393060014C12312F50016
:102B5400130786FF972600002391E66C2313B50024
:102B64009725000083D5656BB387F54017270000D0
:102B74002315F76AB7E700E023A087102105B240C8
:102B8400224441018280084195B7B7E700E08C43B5
:102B94003707200023A0E718F98D0F10000001E586
:102BA40023A0B7108280973700009387278203A35E
:102BB4000700973700009387E78083A807008146C2
:102BC4009A8763F2170D03A807006361F50C636F1E
:102BD400A80A138787006368E50A03D6670021679C
:102BE40005076317E60003C7218505072389E184E8
:102BF400172500001305056203D647000357650037
:102C040023930700329742074183172E00002316AF
:102C1400EE60638C6702172300001303E37A032337
:102C240003006304F30203D366006310030283D733
:102C3400460023A0060121073E9621062392C600E2
:102C440097270000239BE75CB6879843630D17031F
:102C5400972600009386467794426306D7028356EC
:102C6400670095E283D64700035647001843A10640
:102C7400B2962392D70098C383576500A1071727FC
:102C84000000231CF758B7E700E019BFBE86C287CF
:042C94000DBF000070
:102C9800971100209381818717410020130101B605
:102CA8001305400097D5FF1F93854535170600206B
:102CB800130606FE63FAC5008322050023A055000B
:102CC80011059105E3EAC5FE1775000013050518FF
:102CD800970500209385C5FB1386018163FAC5001B
:102CE8008322050023A0550011059105E3EAC5FEDE
:102CF8001385018197350020938585806377B5001A
:102D0800232005001105E36DB5FEFD42739002BC5A
:102D18008D4273904280930280087390023097D25C
:102D2800FF1F9382A22D93E23200739052309712C4
:102D380000009382A24073901234730020303D4308
:102D48002A876373C3029377F700BDEFADE59376E7
:102D580006FF3D8ABA960CC34CC30CC74CC7410743
:102D6800E36BD7FE11E28280B306C3408A0697025E
:102D7800000096966780A6002307B700A306B70051
:102D88002306B700A305B7002305B700A304B700BF
:102D98002304B700A303B7002303B700A302B700B7
:102DA8002302B700A301B7002301B700A300B700AF
:102DB8002300B700828093F5F50F93968500D58D93
:102DC80093960501D58D61B7939627009702000069
:102DD80096968682E78086FA9680C1171D8F3E9662
:102DE800E374C3F8A5B7B717004003C7770513778F
:102DF800E70FA38BE704130700F8A38DE7043D470B
:102E0800238CE70413075003A38CE70403C7A70523
:102E18001377D70F238DE7048280B717004003C7C5
:102E2800E7020D8941111377C70F498F9306800870
:102E3800F3B6068093F6860836C60F100000930690
:102E480070052380D704930680FA2380D7040F10D7
:102E580000002387E70223800704B247F3A707800F
:102E68000F1000004101828041112A83014E930E08
:102E7800407E130F0019930F400663E56E12930806
:102E8800001913034006B3781503854E0D4FA14F63
:102E9800337365020D891335150063EFBE121308ED
:102EA800F6FF794672984208135808013307C7029B
:102EB80013D61700BE0732976146B3F6C60213064B
:102EC8008070B386C6023697A166F58F42075D8F7C
:102ED800B716004083C7F60293F70708A303F1006B
:102EE8000346710083C7F60293F70708E394C7FE09
:102EF80083477100B716004093F7F70F63880712EE
:102F080093078008F3B7078093F787083EC40F102C
:102F18000000B7170040930670052380D704930676
:102F280080FA2380D7040F10000023AA070383C662
:102F3800170393E60608A388D70223800704A2474D
:102F4800F3A707800F1000001166B71700407D1621
:102F5800D45BC85F93854703A98EF18EF5FA930673
:102F68008008F3B6068093F6860836C60F10000070
:102F7800930670052380D704930680FA2380D7042C
:102F88000F10000098C103C7170313670704A3882D
:102F9800E70223800704B247F3A707800F10000059
:102FA800410182807D133368E3039308E016630EC2
:102FB80008003368F3039308D01663080800937871
:102FC800330093B818009388D81633081E01131ECF
:102FD8000801135E0E0155B56393E5030548638642
:102FE80008000148630303002A8871087298FD15D8
:102FF800131E0801C205135E0E01C18179BD13F8C5
:10300800150063F4BF007908D5B713381800E5BF79
:1030180083C7F60293F70708A303F100034671007C
:1030280083C7F60293F70708E394C7FE8347710046
:1030380093F7F70FF1DFE9B5317126DB66CB06DFD1
:1030480022DD4AD94ED752D556D35AD15ECF62CD5A
:103058006AC96EC7AA8C02D8EF00701DAA849307AC
:103068008008F3B7078093F787083EDA0F1000004F
:10307800B7170040130770052380E704130780FA89
:103088002380E7040F10000003C7F7021377770FB8
:10309800A387E70203C7F70213678700A387E7023E
:1030A80023800704D257F3A707800F1000000545B7
:1030B800AD339305803EB3C6B4029307007D216704
:1030C80013065002BD69930BA004116B014A814A93
:1030D80013048008130970057D1BB387F602B3C774
:1030E800E702130780C133C7E4023EC0FD873ECC28
:1030F800938709A68549B399990193D9394033072C
:10310800C7023347F7023386C6023AC27D873AC4FC
:10311800B38B76033347F602B3CBFB023AC67D87FF
:103128003AC813D7FB413ACE37470F001307072495
:10313800B3C4E4020567130707FA33179701B3848A
:10314800E40213070010B3C4E40213070008B384B1
:10315800B40233C7E402B7140040938D0404B38962
:10316800D9023ACA7D873AD013076055B389E90274
:10317800B3C9F90293D7F9413ED2F336048093F6E6
:10318800860836DC0F100000930770052380FD00C9
:10319800930680FA2380DD000F10000083C63405F3
:1031A80093F6860FA389D40483C6340593E61600E4
:1031B800A389D40423800D00E256F3A606800F10DD
:1031C8000000130C80FA116DF336048093F686081C
:1031D80036DE0F100000930770052380FD00238062
:1031E8008D010F10000083C63405216693E60602A0
:1031F800A389D40483D60405B3E6A6012398D4048E
:1032080083D60405D18E2398D40423800D00F2566A
:10321800F3A606800F10000083C6340593F6060255
:10322800638A061803C63405218A6DDE0818EF0084
:1032380010047336048013768608B2C20F1000009B
:1032480023802D0123808D010F100000B717004047
:1032580003C637051376F60DA389C70403C63705D9
:1032680013660602A389C70483D604052166B3E65C
:10327800A6012398D40483D60405D18E2398D404B8
:1032880023800D009646F3A606800F10000083C623
:10329800340593F606026386061483C63405A18AAC
:1032A800EDFE97D0FF1FE78080DEAA8636D497D040
:1032B800FF1FE780C0DDA256E30AD5FE83D60405CA
:1032C8004255B3E6A6012398D404D12783C6340512
:1032D800A18AEDDE03D6040583C62405824733762A
:1032E800CB00B306DB0293D5F641B296B388F6401D
:1032F800E24733B8C6002E983308F840A247B3B661
:1033080016013308D84063C70701631DF8009247C8
:1033180063FA1701C247634DF80E63950701B24778
:1033280063E8F80E894663E7560FF24693151800CE
:1033380013D3F8015E8613951800B365B30042D61F
:1033480046D4EF4030513258850A93FAFA0F634752
:10335800000163120838A258638F08361308150055
:10336800B336A800B69513D6F5013298B336C8001F
:10337800AE9613581800FE06B3E6060173360480AD
:1033880013768608B2C60F10000023802D01238013
:103398008D010F10000003D6C402B296C206C18286
:1033A8002396D40223800D00B646F3A606800F109C
:1033B800000019BDF336048093F68608B6C00F10D6
:1033C800000023802D0123808D010F10000083C68B
:1033D800340593E60602A389D40423800D008646AB
:1033E80005BDF336048093F68608B6C40F100000B6
:1033F80023802D0123808D010F10000083C6340522
:1034080093E60602A389D40423800D00A646A5BD31
:10341800E38D0AF0F336048093F68608B6C80F10D9
:103428000000930680FA23802D012380DD000F1011
:10343800000083C6340593F5FC0F93F6860FA38925
:10344800D40483C63405CD8EA389D40423800D000B
:10345800C646F3A606800F100000130580FA03C6BF
:103468003405938634051D8A6314962973360480BF
:1034780013768608B2CC0F100000130680FA23805A
:103488002D012380CD000F10000003C6060013761F
:10349800F60D2380C60003C60600136606022380C5
:1034A800C60083D604051166D18E2398D40483D62A
:1034B80004052166D18E2398D40423800D00E646A6
:1034C800F3A606800F100000130680FA83C63405A1
:1034D80093F606026388062483C63405138C3405E4
:1034E800A18AFDDA08186123F336048093F686086A
:1034F800B6D00F100000930680FA23802D01238098
:10350800DD000F10000083460C00116693F6F60DDF
:103518002300DC0083460C0093E606022300DC004F
:1035280083D60405D18E2398D40483D60405216656
:10353800D18E2398D40423800D008656F3A60680E6
:103548000F100000130680FA83C6340593F60602AE
:103558006385062083C63405A18AEDFE97D0FF1F38
:10356800E780E0B22A8C97D0FF1FE78040B2E30CD7
:1035780085FF83D6040511664255D18E2398D4045D
:10358800392383C6340513863405A18AFDDAF33658
:10359800048093F68608B6D40F100000930680FACC
:1035A80023802D012380DD000F10000083460600D4
:1035B80093F6F60D2300D60023800D00A656F3A639
:1035C80006800F10000083D6040503C62405D247E1
:1035D800B376DB003306CB021305800C9355F64116
:1035E8003696330DF6408257333CD6002E9C333640
:1035F800A601330CFC40330CCC40330885039256AB
:103608004E86B335A5033305A503C295EF40902434
:1036180063468001631E0C16630C0D161306150015
:103628003335A6002E959356F5013696B335D60058
:10363800AA959396F50105828585D18E6346B000DB
:10364800639D051A638B061A03D6C40215823305D7
:10365800D6003336C500B2956348B000639105249F
:103668001306F00F637DA622894663F34615930778
:103678008008F3B7078093F78708BED60F100000BD
:1036880037170040930770052300F704930780FA63
:103698002300F7040F1000008356C70289678117BB
:1036A800D58FC207C1832316F70223000704B65734
:1036B800F3A707800F100000FA506A54DA544A59E9
:1036C800BA592A5A9A5A0A5BFA4B6A4CDA4C4A4D4A
:1036D800BA4D296182801308F5FF3335A800FD151E
:1036E8002E951356F5013298B336C800AA9651B1F3
:1036F800F336048093F68608B6CA0F1000002380BC
:103708002D012380AD000F10000083C63405CD8E37
:10371800A389D40423800D00D646F3A606800F1093
:10372800000035BBF336048093F68608B6CE0F103A
:10373800000023802D012380CD000F10000083C6D8
:10374800340593E60602A389D40423800D00F646C7
:10375800F3A606800F10000095BBF336048093F69D
:103768008608B6D20F10000023802D012380CD00DB
:103778000F10000083C6340593E60602A389D4041B
:1037880023800D009656F3A606800F1000006DBB2F
:103798009306F5FF33B5A600FD152E959355F50153
:1037A800AE96B3B5B600AA951396F501858269B5AC
:1037B800F336048093F68608B6D80F1000009306F7
:1037C80080FA23802D012380DD000F10000083D6AE
:1037D800C4020566011693F6F60FD18EC206C182A1
:1037E8002396D40223800D00C656F3A606800F1038
:1037F8000000050A137AFA0F49B233E6B60045C24B
:1038080003D6C4023305D0403338A000B305B04016
:10381800B385054115826345B000D1E16371A608FF
:10382800894663F0460593078008F3B7078093F746
:103838008708BEDA0F100000B7170040130770059D
:103848002380E704130780FA2380E7040F100000A1
:1038580003D7C7027D8B2396E70223800704D65738
:1038680081BDF336048093F68608B6DC0F1000009D
:10387800930680FA23802D012380DD000F100000BD
:1038880083D6C4020566011693F6F60FD18EC206DA
:10389800C1822396D40223800D00E656B9B7930758
:1038A8008008F3B7078093F78708BEDE0F10000083
:1038B80037170040930770052300F704930780FA31
:1038C8002300F7040F1000000356C7029397560011
:1038D800B297C207C1832316F70223000704F657DD
:1038E800C1BB914763EEB70217670000130787252E
:1038F8008A05BA959C41BA978287B717004003A7F3
:10390800470B1345F5FF698F23AAE70A03A7070B9F
:10391800698F23A8E70A03A7070A798D23A0A70AB6
:103928008280B717004083A6470B1347F5FFF98E2F
:1039380023AAD70A83A6070B558D23A8A70A83A60F
:10394800070A758F23A0E70A8280B717004003A7EC
:10395800470B498F23AAE70A03A7070B1345F5FF6F
:1039680045BFB717004083A6470B1347F5FF758F70
:1039780023AAE70A03A7070A598D4DB7B7170040CE
:1039880003A7470B498FEDB7914763EEB702176757
:1039980000001307671C8A05BA959C41BA9782876D
:1039A800B717004003A7470D1345F5FF698F23AAF2
:1039B800E70C03A7070D698F23A8E70C03A7070CDB
:1039C800798D23A0A70C8280B717004083A6470DE6
:1039D8001347F5FFF98E23AAD70C83A6070D558D3B
:1039E80023A8A70C83A6070C758F23A0E70C828059
:1039F800B717004003A7470D498F23AAE70C03A771
:103A0800070D1345F5FF45BFB717004083A6470DBF
:103A18001347F5FF758F23AAE70C03A7070C598DE9
:103A28004DB7B717004003A7470D498FEDB7B71734
:103A380000408847420541819377050491EB9377CD
:103A4800F5013755E801130505803345F5028280F5
:103A58009377050C130700046397E7009377F50144
:103A680037459C1CCDB72165130505D0828037E703
:103A780000E01C435443A183E206D58F1CC1FD57C7
:103A88002320F7182322F7180F100000828013173D
:103A98008500B7E700E023A0E710618123A2A71003
:103AA8008280B7F700E08847CC4782808147373764
:103AB8000040A14663C4C700328582800345B70031
:103AC800E38EA6FE3385F50003450500850723042C
:103AD800A700CDB797F7FF1F938747239C43172766
:103AE80000201307E7A13E95636EE5001737002015
:103AF8001307C7B06368A70017F7FF1F2328A7207D
:103B08003E858280FD57EDBF411122C406C62A8436
:103B1800393F2947B307E502B2408D83B3D78702FF
:103B280022449507B3D7E70237370040C207C1835D
:103B38002316F700410182807165411113050520A4
:103B480006C6D937B7370040130770F82381E70056
:103B58000D47A381E70013070004A380E70005478A
:103B68002387E700B24041018280411122C406C682
:103B78002A84753D2947B307E502B2408D83B3D740
:103B8800870222449507B3D7E70237370040C207B8
:103B9800C1832316F74041018280716541111305E5
:103BA800052006C6D937B7370040130770F82381B8
:103BB800E7400D47A381E74013070004A380E740CF
:103BC80005472387E740B2404101828037370040EC
:103BD800834727401A0593F7F703C98F93F7F70F21
:103BE8002301F7408280B737004003C7174019C93F
:103BF800D98DA380B74003C7074013678700238088
:103C0800E740828093C5F5FFF98DA380B740828095
:103C1800B7870040238007001307C0FC2386E7000E
:103C2800A386E70003D701812398E70003D74181E2
:103C3800239AE70003D78181239CE70003D7C1813A
:103C4800239EE70089462381D70249472383E70259
:103C58002385E7022387E7022389D702A381070088
:103C6800130790022380E700B716004003D7A60188
:103C78001367070C239DE6007D572383E70013078E
:103C880010F8A380E7001D472381E7008280B787EB
:103C980000402384A70203C7A7021377C70F238511
:103CA800E702828011456FF02FB9411193962500E4
:103CB800AA852D4506C697E0FF1FE78040E8B24079
:103CC800014541018280011122CC06CE3714004003
:103CD80026CA4AC84EC652C483447405034AB4056A
:103CE8008349840503499405EFF0EF8F8347A405C2
:103CF80093F4F40F137AFA0F93E71700230DF404E3
:103D080093F9F90F1379F90FB717004003C7A705FF
:103D1800058B6DFF03D5C705A38D4705238C370594
:103D2800A38C2705A38B9704F2406244D2444249EE
:103D3800B249224A0561828041119397050122C444
:103D480006C6C1872E8463DB0700292311C15529C4
:103D58002165218DB24022444101828093F71500EC
:103D680013C51500E5FB93F7250013C52500FDF3E2
:103D78009397250163DF0700EF10403D253737F69D
:103D88000200130606E0896503C54182F52D096521
:103D9800C9B7939715010145E3DE07FA17650000D7
:103DA800130545E1EF40103F13060064916503C514
:103DB8004182D92D116571BF2D71232A9110FD748F
:103DC800E98C232C811023282111232631112A84E0
:103DD800AE893289930600100A86A6852D45232EC2
:103DE800111097E0FF1FE78080D51315440151811A
:103DF8000A0513962900CA850A9597E0FF1FE780F0
:103E08000013A68585660146254597E0FF1FE780D4
:103E180000D30A86A68593060010294597E0FF1F60
:103E2800E780E0D18320C11103248111832441114B
:103E3800032901118329C11015618280B7F7070092
:103E480003C70701411106C622C426C24AC0A547B6
:103E5800631AF7009537B24022449244024901455B
:103E68004101828013942500AA843289A286AA85FA
:103E78000146254597E0FF1FE78060CCA2864A8669
:103E8800A685294597E0FF1FE78060CBE9B75D71FC
:103E9800494697650000938565CD176500001305B1
:103EA800A5DB86C697E0FF1FE780600F01E917656D
:103EB80000001305E5CCEF40F02D01A0B7F600E0B7
:103EC800795798CAFD57DCCA0567B7E700E023A011
:103ED800E7101306F00290C223A0E7180F100000A5
:103EE80017E7FF1F1307475323A0E1824157A38A0F
:103EF800E7401306000481450A8597E0FF1FE78025
:103F0800E006970700209387278C3EC08967938730
:103F180007802312F1009D673EC4B7070105938708
:103F280007103EC6ED472318F10085472309F10025
:103F3800970700009387A7D73EDA97070000938773
:103F480027F03EDC8567938757D1231AF10097073E
:103F58000000938747B53ED0970700009387E7D6C0
:103F68003ED497070000938727D43ED60A879767E1
:103F780000009387E7EB97660000938606EB03C67D
:103F88005700FD170507A30BC700E39AD7FE0A855C
:103F9800EF00B015AA8501C917650000130585BF94
:103FA800EF40B00D01A0B640616182804111170554
:103FB80000001305A5D806C622C4EF00500F1384CD
:103FC80041822300A4001128034504002244B24082
:103FD800130600328965410145A9797106D6130790
:103FE8008008F337078093F787083EC20F10000058
:103FF800B7170040930570052380B704130680FAAD
:104008002380C7040F10000083C6F70293F6A60F9B
:10401800A387D702238007049246F3A606800F10D1
:10402800000073370780137787083AC40F10000021
:104038002380B7042380C7040F10000003C7F702CA
:1040480013672700A387E70223800704A247F3A783
:1040580007800F1000000545EFE03FDCA1318147E4
:1040680001478146054685451305407EEFE0DFDFC1
:1040780068005146814597E0FF1FE78020EFB707AA
:10408800C0A83EC8B787E8033ECA680097C7FF1FA5
:10409800938767333EC6EF00302AB250456182806D
:1040A800411113060040938541A8138541E806C6CF
:1040B80022C4392A13060040938501EA1385012A90
:1040C800138441A63122814513060002228597E018
:1040D800FF1FE780A0E917C5FF1F13050541EF0083
:1040E800007D238DA182B7477671938797121CC4F0
:1040F800B7575500938757555CC4B7D725009387A2
:1041080007785CC08967938727702310F40097C7E6
:10411800FF1F9387A7441CC82285ED57230EF40080
:10412800EF1090002244B240AA85176500001305DD
:10413800A5A841016F40607441111305800406C6AB
:1041480022C497C0FF1FE78000F63714004083277A
:10415800840C8D451305000893E707082324F40C05
:10416800EFF09F82D13A8327840A8D4513050020FA
:1041780093E707202324F40AEFF0AFF685451305EB
:104188000010EFF00FF6113C176500001305C5A5E8
:10419800EF40500017650000130505ACEF40807F25
:1041A800FD312935EF20D02409450D3485450545D5
:1041B8001D3CB7E700E03707000823A0E71097D0B9
:1041C800FF1FE7804032E93D97D0FF1FE780400896
:1041D80010C90CC14CC10CC5232A0500B2954CC5A9
:1041E80010CD8280184183A785FF6319B7001CC1D1
:1041F800FD5723AC05FE238FF5FE8280232CF6FEA7
:10420800C5BF411122C437E400E026C20440370785
:10421800200006C6F98C2320E4180F10000009E9D5
:10422800232094101545B2402244924441018280D3
:104238000347E5FF9307F00F6306F7002320941068
:104248001145D5B797F0FF1FE780E093014523207C
:104258009410D1BF0111B7E700E04AC803A90700CD
:104268004EC63707200006CE22CC26CAAA89337943
:10427800E90023A0E7180F10000097170020938784
:10428800A7F880438144014611E491E8A1654E8571
:10429800852605A08347E4FF6399370385CCA68567
:1042A80017150020130545F6353F6DD0A1654E85DD
:1042B8008122F2406244B7E700E023A02711268557
:1042C8004249D244B2490561828091E022860324A2
:1042D80084FF5DBFA284E5BF9717002023A607F2DD
:1042E8008280971700209387A7F79C4399E33E8520
:1042F800828003D727006316B70003C70700E308C7
:10430800A7FEDC47E5B7A5C1011106CE22CC26CA17
:104318008147C14633D7F540058B29C312053E9521
:1043280031473305E502171700201307A7F70443A1
:1043380005443314F4002EC642044180AA949C40DC
:10434800C8408297B24523A0040023A20400A18D8F
:10435800F2406244D2442E85056182808507E39B42
:10436800D7FA0144EDB72E858280C9C1797122D46C
:1043780006D626D24AD04ECE01444147B3D785400F
:10438800858BA5C31205314722953305E50297179A
:104398000020938727F103A907008544B39484007C
:1043A800C204C180BE892A990327090011C70325C1
:1043B80049002EC60297B24531473304E40283A769
:1043C80009003E941C4489E72320090023220900A0
:1043D800B2502254A58D02599254F2492E85456156
:1043E80082800504E31CE4F88144DDB72E858280D1
:1043F800B7E700E09843B706200023A0D718758FC9
:104408000F1000009716002083C656E06373D5028C
:1044180017160020130686E49316150008423695F1
:1044280083560500D58D2310B50023A0E71001455C
:10443800828023A0E7100D458280B7E700E098430B
:10444800B706200023A0D718758F0F100000971605
:10445800002083C6B6DB6375D50217160020130645
:10446800E6DF93161500084293C5F5FF3695835687
:104478000500F58D2310B50023A0E71001458280C3
:1044880023A0E7100D45828079714AD037E900E012
:1044980026D283240900B707200006D622D44ECEA0
:1044A80052CC56CA5AC85EC6FD8C2320F9180F1084
:1044B80000009717002083C777D5637AF500971710
:1044C8000020938767D983AB070063970B00B7E792
:1044D80000E023A09710A9A0171B0020130B4BDDA9
:1044E800832A4B00B74736FE938707C82E8A97154D
:1044F800002083D565DCBE9AB387C5022A84B289B9
:104508008146B3B5C50213850732B337F5001306E4
:104518000064BE95EF30907163F0AA0223209910D1
:104528000145B250225492540259F249624AD24A81
:10453800424BB24B45618280829B9715002083D500
:10454800A5D7B38735032A89130600648146B3B516
:10455800350313850732B337F500BE95EF30106D7C
:10456800B30725013E8903274B0063E4A70063E4F2
:10457800E7003389E740D2852285A53309C923247A
:104588002501B7E700E023A09710054559BF9365BB
:1045980004F0C205C181414597E0FF1FE780804FC5
:1045A80019E9971700209387E7CB9C5B8DD3A285E9
:1045B8001145829729BF97170020938767CA9C43A4
:1045C80085E79717002023ADA7C885472326050050
:1045D800232425012311450123008500A300F500AC
:1045E8002322050079BFBA87D84775FFC8C7F1BF2E
:1045F8000111B7E700E04AC803A9070022CC4EC65C
:104608003707200006CE26CAAA892E843379E90006
:1046180023A0E7180F100000E931AA8419C123115B
:104628000500A2854E85113D9717002083C707BE58
:10463800639B37019717002083D7C7C15D8C9717F5
:104648000020239987C0B7E700E023A02711014580
:1046580091E01945F2406244D2444249B2490561A9
:104668008280411122C426C217140020130444C4B6
:1046780097140020938484B99448584097170020D1
:10468800938787BD06C69C436392E6088297544089
:10469800B74736FE938707C8B6973387A7003A858A
:1046A8006364F7006364D7003305D740971400208C
:1046B8009384C4C1DC5081CF971700209387C7C863
:1046C80094433707CDFF7D179C46F98F9CC611E1AF
:1046D8004840971700209387E7B8DC53829711E585
:1046E800DC5085C3EF00703D112DDC5099CB971736
:1046F8000020938767C59843B70633001C47D58FBA
:104708001CC7B24022449244410182808297944857
:104718005840B387A6003E8563E4D700E3E8E7F88E
:104728003385E74061B7411106C69717002023AFCC
:10473800A7B60295B2409717002023A5A7AE01455A
:1047480041018280994763E9B7008A0597170020DD
:10475800938787AEBE9588C182809717002023A5CE
:10476800A7B411C58547171700202306F7AE828026
:10477800411171468145171500201305E5AB06C6A2
:104788009717002023AE07AC9717002023A007B285
:104798009717002023A207AC97170020238D07AA9C
:1047A8009717002023A207B097D0FF1FE780007C4F
:1047B80013068002814517150020130525A597D0FB
:1047C800FF1FE780A07AEF30605597170020938786
:1047D80067A903C5C70383C7D70385453E958D479A
:1047E8003305F50239051375F50F97170020238057
:1047F800A7A299473305F5021305052497E0FF1F83
:10480800E780402917170020232EA7A851CD9947E4
:10481800171600200346A69F3306F60281451306A5
:10482800062497D0FF1FE7806074971700209387AE
:1048380067A79C439387072417170020232CF79E0C
:10484800171700200347A79C0A07BA9717170020D5
:104858002326F7A05134DD26971700209387879DDC
:1048680094439717002083C7779A139727003697A2
:10487800170600001306A6AF10C313871700137797
:10488800F70F0A07369717060000130606A810C385
:1048980013873700890793F7F70F8A0797150020C2
:1048A800A386E596B69790C3B240410182809717D8
:1048B800002083C7B795171700200347479563F370
:1048C800E702171700201307E79618439386170087
:1048D80017160020A30CD69293962700369708C384
:1048E8003E8582809307F00FE5BF1C41638407165D
:1048F80041777D8FB70600208947631ED714035779
:104908004500630A0714411122C419462A849305F5
:10491800F00F610506C697D0FF1FE780206D054799
:104928008D476304E5121C4481CB58589947630EA0
:104938000710185C630B0710130600048145171550
:1049480000201305259297D0FF1FE78020621306E9
:104958000004A285171500201305C59097D0FF1FE6
:10496800E780E05C9717002083D78790171700200F
:104978001307478F99E7930700109716002023998C
:10498800F68E9717002083C7C78E91E7854797163D
:1049980000202380F68E9717002083D7A78D91E7F4
:1049A800ED47971600202397F68C9717002083C7AA
:1049B800578C91E7954797160020A38CF68A97178E
:1049C800002083C7478B91E78547971600202384EB
:1049D800F68A9717002083C7178A99E78347F70055
:1049E80097160020A389F6889717002083C7D788D1
:1049F80081CF93F637008983171600202302D68AC1
:104A080097160020A38EF6889717002083C7C786BD
:104A180091E7D547971600202380F68683476401DF
:104A280099E79307C003971600202388F6841C573C
:104A380091C7829797070020239EA77CFD571717D9
:104A48000020A30DF7942D338147B24022443E85C0
:104A58004101828089473E85828001114EC697199F
:104A680000209389E98483A7090006CE22CC26CAB0
:104A78004AC852C4829713090064B335250303DA80
:104A880089008146528633052503EF30301A97078F
:104A980000209387A777804FAA8401456306940274
:104AA80033858440636E940003A54900528681468D
:104AB800B335A9023305A902EF305017018D2695A9
:104AC8009707002023A09776F2406244D2444249D7
:104AD800B249224A05618280970700209387877828
:104AE800985731CB411122C426C206C6BE8402970C
:104AF80017070020035707722A840DCBBA87637300
:104B0800A700AA87C207C183BA866373E400A28696
:104B1800C206C182958F5147635AF700DC5491C38E
:104B280082972D25970700202396876EB24022444E
:104B380092444101828082809707002023A407784D
:104B48009707002093870772DC57011106CEAA85C4
:104B580081C72AC68297B245C5C19C410545D1CBBC
:104B6800DC41C1CB83D78500C9C783D7A500D1C392
:104B78005146170500201305A57397D0FF1FE7803E
:104B8800003B97070020238B077297070020938725
:104B980027729C43170700202320F76C97070020F3
:104BA80083C7B76D8DE79307805717050020035516
:104BB800A5703305F50237460F0013060624814613
:104BC8008145EF30B00697070020A388A76A17072A
:104BD80000200347976AA54763E7E700A947170737
:104BE8000020A30CF76817050000130545E7253ECC
:104BF8000145F240056182809707002023A60762DD
:104C080097D7FF1F9387277D170700202322F76A6E
:104C18007D579707002023AFE768B787320093874F
:104C280027A19706002023A9F66897070020238765
:104C38000768B7C7004023A4E72681BF011122CC2B
:104C48001704002013040462084406CE26CA4AC882
:104C580001E90545F2406244D24442490561828037
:104C68005C58E5DB185C75D7700085458297184459
:104C7800B247E300F7FE9305E0041705002003554B
:104C8800255F97E0FF1FE780E0E017070020232F4C
:104C9800A75861D1170600200356865D9305F00FCB
:104CA80097D0FF1FE780802C814417090020130943
:104CB800E9559707002083C7C75B0326090263C12C
:104CC800F402328597E0FF1FE780E0EB0145970784
:104CD800002023AD07549707002023AB07549DBF3E
:104CE8009705002083D5C558B38795020844185CFA
:104CF800898185043E9508C2029765BF9707002001
:104D08009387875C9C43B7068000B7050082984369
:104D1800FD15558F98C31307F00F98DF130700058B
:104D2800D8DBD857B7060080558FD8D7D457170780
:104D3800002003476754131687011377F703ED8E96
:104D48006607558FD8D76186170700201307C75FF6
:104D58009306A003184363DCC600744F37060007A8
:104D6800D18E74CF370702001307C72099A0930686
:104D7800200263DAC600744F370600F97D16F18EFB
:104D880037060005F1BFB70600F99385F6FF744FA3
:104D98006945ED8E6355C50037060003D1B7B705E1
:104DA8000001CD8E74CFE35F06FA370702001307C0
:104DB8000721D8DF984B137707FC1367E70098CBD8
:104DC80037E700E0D147A309F70497D7FF1F938778
:104DD800A77893E717007CD78280938781849C43C8
:104DE80099CB944BD04B9842518F98C294439C478F
:104DF8009842D98F9CC2970700209387E74C1707E2
:104E080000200347474D170600201306A64E054805
:104E18009C431307E7091442631E0503884313657F
:104E2800050888C3C8468177FD17E98FDCC60F10CF
:104E380000001C42B7060200AD0594C7930600F8AF
:104E4800170600202306D6488A05BA958605ECD3AE
:104E5800C8C7828088431375F5F788C3C846817729
:104E6800FD17E98FDCC60F1000001C42B7060200D0
:104E7800A90594C7930600F817060020230AD6440C
:104E88008E05E1B7938781849C4389CFD44303A8D7
:104E9800870098423367070198C2D447DC4B984291
:104EA800D98F9CC2970700209387074205479C43E8
:104EB8009505631EE50298438E051367070898C396
:104EC800984F137707C01367A71398CF1307800766
:104ED800A389E7009385C5039707002023A0B7405F
:104EE80011C606069707002023AAC73E828098436A
:104EF80092051377F7F798C3984F137707C013678E
:104F0800271398CF1307F007A389E700E1B74111EA
:104F180006C6170700200347E73BA1476311F704BC
:104F28009707002083C7473D858B17060020034657
:104F3800D63E9706002083C6463EBDC79707002089
:104F48009387873DC8432DC1834515000905EF00A8
:104F5800F05E11C5854717070020A30DF736170720
:104F68000020034727379947631CF700970700205D
:104F78009387C745FC5F83C7B70095CBEF201079AF
:104F880017070020034707359D476312F702970765
:104F980000209387A74383A7070983C7770081CB9E
:104FA800B24041016F20105F814501454DB7B240C5
:104FB80041018280170700201307C7331C43B44BF5
:104FC80093F6F68FB4CB944393E6860094C39C4340
:104FD8008D83858B89C701000100010001009707B7
:104FE80000209387672E94439C4293F7F7CF93E76B
:104FF80007109CC297070020938707359043B70690
:10500800CEFFFD161C46F58F1CC61C433707030050
:10501800B8CB938781849C4399CBD44390479842DB
:10502800518F98C2944BDC4B9842D98F9CC29707FA
:105038000020A380072A8280970700209387872B68
:105048009C439C438D8B638207104111B7E700E0B6
:105058004AC003A9070026C23707200006C622C493
:10506800AA843379E90023A0E7180F100000170776
:105078000020034717268D47170400201304042532
:10508800631BF70097070020938707279C4B01466F
:105098008145454582971947639BE404970700209B
:1050A80083C7572399CB9707002083C7A722639606
:1050B800970097070020A38F072083477400214794
:1050C8006318F70093078010170700202314F720B0
:1050D8009707002023810718F13DB2402244B7E723
:1050E80000E023A0271192440249410182809D4794
:1050F800639FF4009707002083C7D71DDDDF1707DC
:1051080000200347271D8D47E319F7FA5DB783464B
:105118007400630BD700034774006387E700834775
:1051280074002147E316F7FA9707002083C7971AF8
:10513800C5F38347740017070020230DF718854728
:1051480017070020A308F71861B782801707002007
:105158000347371891476307F70C97070020938791
:10516800A7399843B7C7004093870730631CF70AED
:105178000111354506CE22CC26CA4AC84EC66D3D19
:1051880097090020938949140D2AEF10D02ABD36BB
:1051980083A70900170900201309091BB706330064
:1051A8009843970400209384E4143704030013679A
:1051B800070898C398431377F7CF98C39843137792
:1051C800F7CF1367072098C3032709001C47D58F1B
:1051D8001CC79C4013078455B8CBEF10F03DEF2057
:1051E8007010EF109030EF10903903A709001C439E
:1051F80093F7F7CF93E707101CC3832609003707F7
:10520800CEFF7D179C46F2404249F98F9CC69C40D0
:10521800B249D244A0CB624497070020A38B070A67
:10522800056182808280B7C70040138707309706E0
:10523800002023A3E62C138707204111970600209E
:1052480023AAE60A9387071037D7004022C4970697
:10525800002023ABE60E17040020130424071707C9
:1052680000202323F7068547A303F40097070020AF
:10527800938747FF9C4306C65CD0938707111CD0D1
:1052880097D7FF1F9387A72D23A6F184C135B7E7CA
:1052980000E0A305040003C7574113670708A38A62
:1052A800E740B24037071000224423A0E710370731
:1052B800200023A0E7104101828017070020130770
:1052C80067FA03074701970700209387A7029C43C3
:1052D8006358070413074008D8CBD8D3D8DBF8C3E2
:1052E80013076007D8CF9306E006D4D7D4DFF8C7F2
:1052F800130780072393E700F84BB7060080558F04
:10530800F8CB5147F8CB17070020130727FC585351
:10531800F8DF7D5798C737071F003D07D8C7828039
:105328001307C00855BF970700209387E7019843E4
:1053380017060020130646FC970700209387C7F836
:1053480094438347160013F8F707D9C588425C428F
:10535800137505F83365050188C213F5150001C9F1
:1053680093F5050341456386A506938787C14C5786
:105378004168130808A093E525004CD7B3D5070367
:10538800B70810FEFD18B3F70703FD89139545010B
:105398006C43B3F51501C98D6CC39305A00F370590
:1053A800FCFFAA07B3D7B7026C43E98DBA07B983E4
:1053B800CD8F7CC383470600898B99CB9C4293F79A
:1053C800F70713E707049C4293F707F8D98F9CC2A5
:1053D80082809387078361BF5C57F59B5CD79C42AB
:1053E80093F707F8B3E707019CC2E9B7411106C66E
:1053F80097070020238907F2753EB2400145410115
:10540800828041119707002083C777EC06C6858BF9
:1054180095C7E93F97070020A38B07EA9707002065
:10542800238807EA97070020938707ED03A307015E
:10543800014681450545B240410102839707002096
:10544800938747EB9C43FC5385E34D379707002030
:10545800238007E897070020938707EA03A307013B
:10546800014681454545C1BF97070020938707E658
:1054780083C777000D476317F70085471707002094
:10548800230BF7DCB24041018280411197070020CD
:1054980083C7E7E326C206C622C4858B970400208B
:1054A800938444E5F5CB97070020238207E297070A
:1054B8000020938767E99843170500200345C5E353
:1054C80017040020130444E35C578583858BB1CB14
:1054D800504093760503C145930786C16394B6008F
:1054E80093070683C165938505A0B3D6B70237082D
:1054F80010FE7D18B3F7B702FD8A13964601744370
:10550800B3F60601D18E74C39306A00F3706FCFFCD
:10551800AA07B3D7D7027443F18EBA07B983D58FD8
:105528007CC3118501469705002083C5A5DE0D893A
:10553800EFF05F95170500001305E50AEFF0EFA1FE
:1055480098408177FD175447F58F5CC70F1000000E
:105558009840B70702001CC7930700F817060020F9
:105568002308F6D697070020938707D69C439C43C9
:105578009D83858B99CF93076019032304017CD3FE
:1055880054C70146814505452244B2409244410131
:1055980002839307E01BD5B79C40FC5385E3B935DC
:1055A80097070020238607D2970700209387C7D440
:1055B80003A30701014681454545F9B79707002030
:1055C8009387C7D083C777000D476317F7008547D0
:1055D800170700202301F7C8B24022449244410132
:1055E800828001119707002083C777CE06CE22CC90
:1055F800858B17070020130767CDC1CF3A84FD3389
:10560800485097070020A38407CC8145814613069C
:10561800F10097070020238D07CA97D0FF1FE78066
:10562800401193158501E1858DE15C509306F00FDB
:1056380003C70700630BD7009707002083C7D7CDA0
:105648006385D7006303F700894597070020938790
:10565800A7CA038707006347070058508346F1002D
:105668002300D7009C4B505093F5F50F09458297BE
:105678009707002083C707CB898B81CB8545170502
:105688000020034565CAEFE0BFD6F24062440561D9
:105698008280970700209387E7C59C43FC5385E3E6
:1056A800B13397070020238507C297070020938707
:1056B800A7C49C4B0146814549458297F9B7834762
:1056C80077000D47E313F7FC8547170700202304ED
:1056D800F7B865BF797122D452CC56CA06D626D2FD
:1056E8004AD04ECE5AC893070008AA8A2E84328A16
:1056F8006319F602BD4497D0FF1FE780802BE3FCB7
:10570800A4FE9707002083C7C7C09607C117E3E424
:10571800A7FE970700209387E7BD9C4313078007E0
:10572800F8D317090020130929BA0327090081456E
:1057380097040020938404BC5C5797090020938940
:10574800A9BBF19B93E717005CD717050020034519
:10575800B5BAD13E83270900970500209385C5BEB9
:105768003706330098431377F7CF98C398431377D6
:10577800F7CF1367072098C398411447D18E14C7F1
:1057880094403706030013068625B0CA03A689008D
:1057980090C703A6C900D0C3DC4293E71700DCC258
:1057A8005C4393F7F7EF5CC3010001009841970948
:1057B8000020938969B6170B0020130B2BB15C43AB
:1057C80093E707105CC383C7E90093E7270017072F
:1057D8000020230AF7B49307FAFF93F7F70F05475A
:1057E8006369F70C03250B022286D6852300450141
:1057F800A3008500090597C0FF1FE78040730327B2
:105808000B029C4093150401C181B8DF17070020E3
:10581800230F07AA17070020A30B07AA17070020C2
:10582800230807AA0D4797060020A384E6AA1307B2
:105838000008631EEA08F8537DFF97070020938746
:10584800A7A19C432EC6829703A78900B245636827
:10585800E506198D83270B02370480000D81130795
:10586800F42F6205598D88C3170500200345C5A884
:1058780011850D89EFF06FD6832709009843418F72
:1058880098C3D857719BD8D797070020A38207A43D
:1058980097070020A38C07A29C40094798C3B250E1
:1058A800225492540259F249624AD24A424B456103
:1058B800828093070008E314FAF4094489B797072C
:1058C80000209387E79EDC43998F3E9561B71705C3
:1058D8000020034565A211850D89EFF00FD08327BD
:1058E8000900B7068000171500001305A50F984397
:1058F800558F98C3D857719BD8D7EFE01FE6970705
:105908000020238107A297070020A383079C9707FD
:105918000020A38D079A9C40094798C383C7C900F4
:1059280093F7F70FE5DFA5BF1C49638D07184111F1
:1059380022C406C626C2834705002A8493F70704B3
:1059480089C75C410945638E07101306000281452B
:10595800170500201305459A97C0FF1FE7800061CF
:1059680013060002A285170500201305E59897C0C5
:10597800FF1FE780C05B9707002083C777999704CC
:1059880000209384649799E7930780021707002003
:10599800A300F7989707002083C7A79791E7A14727
:1059A800170700202307F7969707002083C77796E5
:1059B80091E7C54717070020A30DF7949707002024
:1059C80083C7479591E7ED57170700202304F794FD
:1059D8009707002083C7179491E7ED571707002012
:1059E800A30AF7928347040093F7070491CFDC409A
:1059F80037B724001307F7E9636AF70693075002DD
:105A080017070020A30AF78E970700209387C790EF
:105A1800C84309C597D0FF1FE780E0169707002005
:105A280023AE078E83C70400858B85C31705002026
:105A38000345558E93059004090597D0FF1FE7800D
:105A480060059707002023ABA78C83C71400014586
:105A580017070020A309F78C9C4417070020232769
:105A6800F78CB240224492444101828037072500D6
:105A78009306F74863EDF6003767DBFF13070793D4
:105A8800BA971307007DB3D7E702FD1795BF130731
:105A980007496395E700930760029DB737D725004C
:105AA8001307F777636DF7003767DBFF1307079373
:105AB800BA971307007DB3D7E702F91791B7930791
:105AC80070023DBF05458280797126D29704002077
