:020000024000BC
:10E000006F00624F0000000000180118002801286E
:10E0100002280328002901290229032904290529A6
:10E02000062907290829002A012A022A032A042A84
:10E03000052AA62A50EC0600DEFD0400F0020020AE
:10E0400076030020C00200208E0200201C02002067
:10E05000E6FF04002E000500D40105006004050061
:10E060004E0505003CFC0400FAFA0400BCFB040069
:10E070004CFB04003E0B050026050020BCFF0400FD
:10E080000A08050012A206000AA4060082A40600DF
:10E09000366306006A6306003E1906007E0E06001F
:10E0A000AC9B060040080500D46A0600B6AA05002D
:10E0B00044AB05009CAB0500DE1305002A140500E7
:10E0C00094120500DE660500986105007470050075
:10E0D00044740500F0770500CC5305006A53050031
:10E0E000525705001854050040530500C45305005D
:10E0F000F25205009C540500F4540500A454050098
:10E10000A854050042550500FC5405002E55050095
:10E11000465A05004A5A050098540500A0540500C7
:10E1200040550500485A0500F0550500B85B05004C
:10E1300038860500B6860500F486050042690500AC
:10E140005A69050096690500A44D0500C24E0500F8
:10E15000384F0500B43205005A2D0500BA430500BA
:10E16000D82D05001E3F05008ECC060030C50600E8
:10E17000ECC90600FAE00600E0DF06006CE30600EA
:10E180005CE3060064E30600A4E30600A0B6060014
:10E19000000000000000000000000000000000007F
:10E1A00014E40600DCDD060092DD0600000000003D
:10E1B000000000000000000000000000000000005F
:10E1C000788506006873060008770600C6740600A6
:10E1D000507F0600969C060000000000D4B60600A2
:10E1E000DC0C0500A6640600B46A0600AC6B0600F1
:10E1F0000000000000000000000000003E6D05006F
:10E20000AA840600000000000000000000000000DA
:10E2100018730600360700209265060090E306009A
:10E22000000000000000000060E30600EC030500B1
:10E23000946A050098E306006E8606003C87060097
:10E24000B687060032CA060094E306009CE3060087
:10E250000A0E0600A0E306008A11002050110020DB
:10E260007C9C060000000000000000000000000090
:10E27000000000000000000000000000000000009E
:10E280006373B60082801C419105110523AEF5FE33
:10E29000C5BFB727002037270020938707891307BA
:10E2A000C7E06373F700828023A007009107D5BF02
:10E2B0004111B7E700E022C480433707200006C6BB
:10E2C000798C23A0E7180F10000011C199E5B7E77A
:10E2D00000E023A08710014545A893073500C20739
:10E2E000C183F19BC207C183130740036366F70232
:10E2F000372700200325079B372700208326879A8E
:10E300006391A60237270020032707A469D3C20719
:10E31000DD8D0545029765BF372700200325C79A85
:10E32000E1BF035765002DE7035745006362F70619
:10E33000B72600203306F74021489386869B6378F2
:10E34000C8028328050003D86600138687001D8F46
:10E350002A9661172312E6002320160123130600D4
:10E3600010C12312F500130788FF2393E60023133F
:10E37000B50083D566002105B387F5402393F600E9
:10E38000B7E700E023A08710B24022444101828019
:10E390000841BDB7B7E700E003A807003707200032
:10E3A00023A0E7183378E8000F10000001E523A050
:10E3B00007118280B727002003AE079BB7270020F4
:10E3C00003A3879A8146F28763FC670A83A8070044
:10E3D000636BF50A63E9A80A138787006362E50A9D
:10E3E00003D66700216705076319E600372600207A
:10E3F000034746910507230AE690372600201305B8
:10E40000869B83D5470003576500239307001306B7
:10E41000869B2E97420741832313E5006387C7033A
:10E42000372500200325C59A6301F50203D5660050
:10E4300009ED83D7460023A016012107BE95A1054B
:10E440002392B6002313E600B6879843630A670257
:10E45000B726002083A6C69A6304D70283566700B6
:10E4600085E283D64700835547001843A106AE9640
:10E470002392D70098C383576600A1072313F600A1
:10E48000B7E700E02DB7BE86C6873DBFB7E700E01F
:10E490009843B706200023A0D718758F0F100000EF
:10E4A00001C599C1814711E6B7E700E023A0E71055
:10E4B0008280B386F50003C80600B306F500850721
:10E4C00023800601E317F6FEC5B737E700E01C43DB
:10E4D000B70620002320D718F58F0F10000019C1B0
:10E4E00091C111E637E700E02320F7108280910503
:10E4F00003A7C5FF11057D16232EE5FEDDB737E71F
:10E5000000E01C43B70620002320D718F58F0F101A
:10E51000000001C53307C50011E637E700E02320FE
:10E52000F71082800505A30FB5FEE31DE5FEF5B7E4
:10E53000B7E700E09843B706200023A0D718758FEF
:10E540000F1000008147B306F5008386060099E6A8
:10E55000B7E600E023A0E6103E8582808507E5B798
:10E5600037E700E01C43B70620002320D718F58FBB
:10E570000F10000001C599C1014711EA37E700E01B
:10E580002320F710054582800507E309E6FE3308DE
:10E59000E500B386E5000348080083C60600E305EE
:10E5A000D8FE37E700E02320F7100145828037E7E7
:10E5B00000E01C43B70620002320D718F58F0F106A
:10E5C00000001307F6FFBA952A966317C50037E7D0
:10E5D00000E02320F7108280FD1503C71500050514
:10E5E000A30FE5FEDDB737E700E01C43B7062000C8
:10E5F0002320D718F58F0F10000001C53307C50081
:10E6000019E637E700E02320F71001458280050571
:10E610008346F5FFE397B6FEE31BE5FE37E700E030
:10E620002320F7100545828079714AD037290020D0
:10E6300022D40324C9A006D626D24ECE52CC56CA26
:10E640005AC85EC662C45DC4372A0020B7290020BC
:10E65000B7240020814BB72A002037CBC901130A09
:10E660000AA19389899B9384C4A58357240099EFB9
:10E670005C44639A0B002326F9A0032CC400228576
:10E68000113B6284A9A823A6FB00C5BF83A74AA0AB
:10E6900082971C443307F5406375F500D8401D8F01
:10E6A0002A979306FB3763EBE60623A809008355F8
:10E6B000240003450400970005E0E78000BA5C40B1
:10E6C0005844A9C70C44D040AE97BE8663E4B70057
:10E6D00063E4C700B386C74014C4A28B3A8451F4E4
:10E6E000B72700209387879B984B894663FBE606F4
:10E6F000791798CBB250225492540259F249624A87
:10E70000D24A424BB24B224C4561828063950B004A
:10E710002326E9A09DB723A6EB0085B703274A026D
:10E720001DCB63EDA7023385A7408347040091EF1B
:10E7300003477A01D4405917B307A7003E8563E425
:10E74000E70063E4D7003385D74083A709016374EA
:10E75000F50023A8A900A28B404451B7D840BA972E
:10E76000D9B723A8070079B7B727002003A747A583
:10E77000411122C406C63E8411C30297B727002068
:10E7800083C727A093F7F70F99E3232A04A4B24085
:10E7900022444101828001114EC6B729002083A77F
:10E7A000499E06CE22CC26CA4AC852C456C281C748
:10E7B000829723A2099EB7240020938744D083C761
:10E7C000570037240020938444D0858B1304449E43
:10E7D00081CF83C7740019476316F70EA382040024
:10E7E000EF0010685C4482971C4491C382973724E1
:10E7F0000020372900209307849B032789A003C6A4
:10E800001700130A849B8347849B93961700BA963C
:10E8100083D60600F9C28347849B63E8C70C83A7AD
:10E82000499E230C049A63940712B727002083A7FC
:10E8300047A0638E0710B727002083A707A62328C9
:10E84000FA00DD3383C7B4006393071083C79400D5
:10E8500081CF83C7740093F7F70F99E7A38404006F
:10E86000976006E0E780C01CB727002083A747A376
:10E87000F9CF83270A01E1CF83C774001547636886
:10E88000F70CB7270020938707D583C7C700918B64
:10E89000DDEFB727002083C727A093F7F70FC5EB5D
:10E8A00083461A00032689A063CCD70A6244F2404B
:10E8B000D2444249B249224A924A0561170305E00F
:10E8C000670023F883C774001D47E31FF7F0A38296
:10E8D0000400EF00F0581C4839B7850793F7F70F8D
:10E8E000230CF49AE3E1C7F23DB786073E978355C0
:10E8F0000700231007000345849BB727002083A748
:10E90000079E13172500B72A0020BA979C4323902F
:10E910000AA0829783D70AA00347849B93C7F7FF77
:10E920007D8D93171700032789A03E978357070013
:10E930005D8D2310A7008347849B81C78507230C27
:10E94000F49A0347849B83471A00E37AF7ECF2407A
:10E950006244D2444249B249224A924A05618280C5
:10E960001397170032970357070075F385072DBFDC
:10E9700037C700408326C720B707FCFFFD17F58F78
:10E980002326F72001000100B72700209387879BEB
:10E99000C84F832787262326D7206A0593C7F7FF0A
:10E9A00099835D8D8280B727002003A307A76303A7
:10E9B000030002831305F00F828003278511630291
:10E9C00007120346E5048546630E0610411122C472
:10E9D00006C68347C5002A8493F7C70F2306F500B0
:10E9E000834597000358C700139585016185637FB0
:10E9F0000607635805060345870093F5F507A3044A
:10EA0000B70093E527006314D50093E517002306AC
:10EA1000B4005C4389075CC3A30AC4000325041146
:10EA20004C430905A5348327841103465401D4437C
:10EA300003D7C700B296118FD4C32396E700894746
:10EA4000A30DF400B72700200347640383C727A260
:10EA50006377F7048347C40093E707012306F400B4
:10EA60003DA893E717002306F4007DB71376F80F4F
:10EA7000635D05020345870093E527006314D50015
:10EA800093E517002306B400A30AC400A3040700FB
:10EA90008547A30DF400832784119C43C5F7B2403A
:10EAA0002244814636854101828093E71700230680
:10EAB000F400A30AC400A3040700032504114C4377
:10EAC00042860905E1328327841103465401D44369
:10EAD00003D7C700B296118FD4C32396E7008D47A2
:10EAE0004DBF854636858280B727002083A7C7CED5
:10EAF000411122C406C6858B2A84DDEB41651305CE
:10EB000025F5972006E0E780C0EC5DC18347A500AE
:10EB10002315F50083270412B5E72320A41223222E
:10EB2000A41285472311F4042320050083476401C0
:10EB300054412316F5000347D4002304E50005479C
:10EB4000A304E50037270020032787D21385170287
:10EB500015811C437D151375F50F9CC25C43DCC207
:10EB60001C479CC65C47DCC61C4B9CCA5C4BDCCA81
:10EB70001C4F9CCE5C4FDCCE19CD9386060213074A
:10EB80000702C1BF8327441288C38357240423226A
:10EB9000A412850741BFB7270020938787BC03D7FE
:10EBA000870005072394E700B24022444101828098
:10EBB0008347C40023090400054593C74700230683
:10EBC000F400DDB78347850193F7E70FDDEB83475B
:10EBD0009501C5EB034625018346C50009CA3727C1
:10EBE000002083456503034737A263E7E50013F779
:10EBF000060149CB014709C6C18A0357E51881C6FA
:10EC00008356251936973DCFB727002003D547A651
:10EC10001307C71237460F00B335A7024111130679
:10EC20000624814622C426C206C67D543305A702A7
:10EC300097E006E0E78060BAB727002083C777A295
:10EC4000B384A700B727002003A787C58327070938
:10EC500063F387003E84184375FBB727002083A722
:10EC600047A0829781476364A400B307A440B240E1
:10EC70002244B3B7970093C7170092443E854101E1
:10EC8000828081473E858280B727002003A7C7D2B4
:10EC90003C5BFDFF010001008280011122CC4AC8CB
:10ECA0004EC606CE26CA52C456C25AC00347B50045
:10ECB00085472A842E8983290509631BF7248357F6
:10ECC0000508835AC503372A0020130ACAA563F72B
:10ECD0005721834605016393E62003278511631FAF
:10ECE000071E0327450A631B071E8346F5001D47C1
:10ECF0006396E61E03471401B38AFA4013950A018E
:10ED0000418121CF9377170099CB8357E405835630
:10ED10000404958F63D5A70013950701418193776C
:10ED2000270099CB8357E41283560404958F63D54B
:10ED3000A7001395070141819377070199CB83576A
:10ED4000C41483560404958F63D5A7001395070157
:10ED50004181218B11E311E105450357A40393077A
:10ED6000204E832444093305A702035B8A003746FB
:10ED70000F008146130606243305F502B72700204D
:10ED800083C767A2B3549502B335AB02BE94C204E5
:10ED9000C180231394083305AB0297E006E0E780B7
:10EDA000C0A3B307350133B5A7002E953E87832650
:10EDB0004A0019E163E4D7003387D740B384640382
:10EDC000B7460F009387F623938606242320E90095
:10EDD000A697B3D7D702D697636CF70E1D8F232063
:10EDE000E900B729002083A749A08324090082975E
:10EDF00063E3A4123385A4406350050C83A749A0A4
:10EE0000372B0020130BCBA5829703270900636AD9
:10EE1000E510198D8357E40303578B008E07B387E2
:10EE2000E7021307003293870719B3D7E70263EFAE
:10EE3000A70E374A0F00930AFA23130A0A248357AE
:10EE4000040485072310F4048347041499E32285FE
:10EE5000AD2A2285971006E0E780A0DE6DE58326C7
:10EE600004098327C40803274B00B6973E8563E453
:10EE7000D70063E4E7003385E7408347F401835418
:10EE800064082328A4088507A30FF40083578B0088
:10EE9000B384F402D694B3D444036365950CB304ED
:10EEA000954083A749A023209900829763E0A40C92
:10EEB0003385A440E34505F8B727002083C777A230
:10EEC00063E4A708B727002023A087C60145ADA8A3
:10EED00083264A00B387F6403E9711B783578A00CE
:10EEE00003576408B7460F003307F7029387F623EA
:10EEF0003E9793870624B357F70263E7F900B38779
:10EF0000F9402320F900F1BD03274A00BA99C5BF93
:10EF100023A03501F9B5B727002083A707A6BE9423
:10EF2000D1BD83274B00998F3E95EDB5A145228534
:10EF3000971006E0E78000CAA305A402B7270020C7
:10EF400083A707A481EF7D55F2406244D244424931
:10EF5000B249224A924A024B056182808945154591
:10EF60008297D5B7B3049740AA9425BF83274B0057
:10EF7000BE943DBF31C901116C0022CC06CE2A845B
:10EF8000293B15CDFD576302F50237270020B24714
:10EF9000834577A263EFB70003459402B385B7407A
:10EFA0002EC697F004E0E7804042F24062440561DB
:10EFB000828037270020032707A6BA97F1BF971052
:10EFC00006E0E7808055D5B78280797126D206D6D3
:10EFD00022D44AD04ECE52CC56CA5AC85EC68347B7
:10EFE000550303447513AA843E941374F40F9307D6
:10EFF000400263F687001304B4FD1374F40F03AAF0
:10F00000841383AAC413A38B841222865285D685C7
:10F0100097D006E0E780A079058915E503CBD412E7
:10F0200001498149337B6403930B50024A86528520
:10F03000D68597D006E0E7808077058915C563916E
:10F0400069031374F90F238B8412B2502254925423
:10F050000259F249624AD24A424BB24B4561828020
:10F060008509E20993D989410509E31179FDE1BFD9
:10F070008327850903560504797193D60701BD8E50
:10F08000C206C182358E1357764093575640898BFE
:10F09000058B5D8F93573640918B5D8F935716404C
:10F0A000A18B5D8F93171600C18B5D8F9317360070
:10F0B00093F707025D8F931756009355860093F7D9
:10F0C00007041E065D8F1376F60F518F93D75540B8
:10F0D00013D63540118A898BD18F13D67540D18FC5
:10F0E00013D61540218AD18F13961500418AD18FEE
:10F0F0001396350013760602D18F139655001376BA
:10F1000006049E05D18F93F5F50FCD8FA2074546D6
:10F110005D8F3307C70222D42A8426D252CC56CA26
:10F12000032A8413832AC4135AC806D63697420783
:10F13000418393577740135557400989858BC98F71
:10F14000135537401189C98F135517402189C98F2D
:10F15000131517004189C98F131537001375050260
:10F16000C98F1315570093558700137505041E07A3
:10F17000C98F1377F70FD98F13D5354013D7554063
:10F180001189098B498F13D57540498F13D51540C7
:10F190002189498F139515004189498F13953500B1
:10F1A00013750502498F13955500137505049E05C7
:10F1B000498F93F5F50F4D8F2207D98FB387C7027B
:10F1C0004AD04ECE5EC662C4B697C207C18313D77B
:10F1D000774013D557400989058B498F13D53740A0
:10F1E0001189498F13D517402189498F139517002D
:10F1F0004189498F1395370013750502498F13957F
:10F20000570093D58700137505049E07498F93F720
:10F21000F70FD98F13D5354013D755401189098B76
:10F22000498F13D57540498F13D515402189498FD2
:10F23000139515004189498F139535001375050203
:10F24000498F13955500137505049E05498F93F555
:10F25000F50F4D8F2207D98FB387C70213065002CF
:10F260005285D685B697BD8E93940601C18033F63C
:10F27000C402137BF60F97D006E0E7804053058960
:10F280000DED8347D41201498149B3849702130CD1
:10F290005002C1804A865285D68597D006E0E78025
:10F2A00000510589937BF90F11C5638634038509E5
:10F2B00093F9F90F0509E31F89FD230B6413B2507D
:10F2C000225492540259F249624AD24A424BB24BFA
:10F2D000224C456182805E8BCDB70111B72700209B
:10F2E00022CC03A487C826CA4AC84EC606CEAA8422
:10F2F00013092500854915C083C71400034734004E
:10F30000858B6304F700405CFDB719469305440004
:10F310004A85EFF0EFA4E31835FF2285F2406244FE
:10F32000D2444249B249056182804111B727002089
:10F3300022C403A487C826C24AC006C69304250077
:10F34000054901E82285B240224492440249410124
:10F350008280A6851305A402974006E0E780E09628
:10F36000E30225FF405CF1BF0111B727002022CC4A
:10F3700003A407C826CA06CE2AC42EC6854419E4AB
:10F380000145F2406244D244056182808347910086
:10F3900003471400858B6304F7000044CDB719467A
:10F3A0009305A10013052400EFF08F9BE31795FE52
:10F3B0000545C1BFEFF04FBB730000000000000027
:10F3C000971200009382228B0383020023800200A5
:10F3D000630F0300F32510342EC0970500009385BA
:10F3E000A5FD73901534EF00E0497300203086DCF2
:10F3F000EF004049E65082800000B726002003A7B6
:10F4000006D001114AC81C5F4EC606CE998322CC95
:10F4100026CA858B3689B7290020ADCF9307000611
:10F42000372400201CDF930744D083C767001307ED
:10F430000008930444D06319F70083A7C9CF9C4305
:10F4400093F707042383F400834744D093F707041A
:10F4500089CFB727002083A747A08297C8CC8347CE
:10F4600044D093F7F70B2302F4D083C7440093F7FB
:10F4700007048DE38547A382F400B727002083A704
:10F48000C7D23707020098C7130700FC2382E400A5
:10F490009848F8D3032709D01C5F9183858B95C3C7
:10F4A0001C5F93E707011CDFB727002083A7C7D2A3
:10F4B000054723A20706B7270020938747D023825A
:10F4C000E70083A7C9CFD8430583058B19C7D84365
:10F4D000759BD8C3D843799BD8C3F2406244D244C9
:10F4E0004249B24905618280093F73002030931779
:10F4F000D50063DF0700B727002083A7C7D27D5759
:10F50000B8D7B72700209387879BD84F0507D8CF58
:10F510009377850085CBB7270020938747D003C713
:10F520002700136717002381E700130700F82382E1
:10F53000E700B727002003A707D05C57F19B93E7AC
:10F5400017005CD79377150085C7B72700209387EE
:10F5500047D003C7170013671700A380E700B7273A
:10F56000002003A707D05C57F19B93E717005CD7F7
:10F57000937765008DC713774500B727002059CFD3
:10F5800003C747D0136717002382E7D0B7270020AF
:10F5900003A707D05C57F19B93E717005CD793173D
:10F5A000F50063D20702B7270020138787BC834684
:10F5B0000707938787BCC18ABDCA8347070793E7BC
:10F5C00007022308F7069317E50063D60702B7275B
:10F5D0000020938747D003C74700620761876355C0
:10F5E000070005472382E700B727002083A7C7D27B
:10F5F0003707020098C79317C50063D00702B727E3
:10F600000020938787BC03C71707058B29C303C74F
:10F61000170713672700A388E7068280938747D0E0
:10F6200003C7370013671700A381E70085B703C737
:10F63000070789463D8B6308D70003C707078D4638
:10F640003D8BE312D7F811472388E706ADBF03C708
:10F650001707118B79D303C717071367870065BF97
:10F66000B7270020B726002003A6C7D2938746D02D
:10F6700003C746D0058B11C723820700A38207006A
:10F68000828003C71700058B65FB785275F303C7AB
:10F690005700EDB737270020032807D083278803BA
:10F6A0009583858BC1E311C683270803BD8323009F
:10F6B000F60085CA832707D0985B460793576701F2
:10F6C0006356070093E707C0C207C183039706008C
:10F6D000C207C18709C7BA970947B3C7E702239092
:10F6E000F6009DCD8345150085CDB7270020938773
:10F6F00047D083C7670013879500894593F70704B0
:10F7000085C33A95834705000547994593F6F70663
:10F710006398E600E207E187814563D30700B945B6
:10F720002E8582808545EDBF411126C206C622C4C2
:10F730004AC0B724002035ED83A6C4D2AE87F85264
:10F740007DFF37290020130949D02301090037F430
:10F7500000E03E85832704D1B285ED9B2328F4D0B9
:10F76000832704D193E787022328F4D07300501035
:10F77000975006E0E780E018B727002083A707D05E
:10F78000B70680009843558F98C3D857719BD8D738
:10F7900083A7C4D2A3020900A3000900094798C3A4
:10F7A000832704D193E787002328F4D073005010F7
:10F7B00005A08D476314F504B727002083A707D061
:10F7C000B70680009843558F98C3D857719BD8D7F8
:10F7D00083A6C4D2B7270020938747D003C727004A
:10F7E000058B19E703C73700058B51CB2382070030
:10F7F000B240224492440249410182808547E31984
:10F80000F5FCB7F700E003A707D16D9B23A8E7D06D
:10F8100003A707D11367870223A8E7D0730050100E
:10F8200003A7C4D28177FD175447F58F5CC70F102B
:10F83000000003A7C4D2B7070200130600F81CC7D4
:10F84000B7270020938747D02382C700B72700201F
:10F8500083A707D09C439D83858B639FA700930755
:10F8600060197CD354C737F700E0832707D193E7AB
:10F8700087002328F7D01DBF9307E01BDDB7F852A0
:10F8800031FFBDB7B727002083A7C7D28847D84725
:10F89000798D09C988C7B727002003A3C7916303DF
:10F8A00003000283828037270020B72600201386BA
:10F8B00006D3130707D58347D7008345B601484AC7
:10F8C000AE97FD8BB355F500A300F600A306F70035
:10F8D000858995E903471701814613080002B3F7AC
:10F8E000E7020147B355E50085899378F70F89C989
:10F8F0006395D700A30016018280850693F6F60F64
:10F900000507E31107FF8280B727002083A747A0E0
:10F91000011122CC26CA52C406CE4AC84EC68297CE
:10F92000B7240020938704D58047014A6301A406C9
:10F93000938404D563668506018D372700209307DD
:10F9400007D383C7A70113545500137AF501130990
:10F9500007D3636BF402B72900209389C9A5A137A7
:10F960008346A90103A8840083A549001397560084
:10F970004297158C3A86636407016364B7003306C7
:10F98000B74090C4E37DD4FC1604336A4401F240CE
:10F9900062445285D2444249B249224A056182807A
:10F9A000B727002083A707A633848740229571B725
:10F9B000B727002003A7C7D28967938707F47CD3B2
:10F9C000B727002083A707D883A6070913965600F8
:10F9D0006358060083A60709139666006344060071
:08F9E0007453FDF28280000067
:10F9E800B72700203727002083A7079B0327879A7C
:10F9F80001456313F700828083D6670081E683D6CA
:10FA0800470036959C43F5B7B727002083A507A183
:10FA180037270020938707A1138605222328C79A32
:10FA280003D74700938785FFB72600204111BA976F
:10FA3800056523A4F69A06C61D0593563700637418
:10FA4800E500930600203307D6003725002023263B
:10FA5800E59A23A0E522E1162312D6002313060017
:10FA68001CC3998FE1172312F700231307008D3F5A
:10FA7800B240B7270020239FA79A41018280B72769
:10FA88000020B726002083A7079B03A6869A2A870B
:10FA9800B305B5406314F6003A8529A89386870014
:10FAA8009C43E369D7FEE377F7FE2E85E3E4D5FEB2
:10FAB800E3F2F5FE828023AC05FE1C4191E70100CC
:10FAC80001000CC18280BA8703A787FF6DFF23ACB2
:10FAD800B7FE8280184183A785FF6319B7001CC150
:10FAE800FD5723AC05FE238FF5FE8280232CF6FEFE
:10FAF800C5BF411122C437E400E026C204403707DD
:10FB0800200006C6F98C2320E4180F10000009E92C
:10FB1800232094101545B24022449244410182802A
:10FB28000347E5FF9307F00F6306F70023209410BF
:10FB38001145D5B79700FB1FE780805E014523205C
:10FB48009410D1BF411126C2B7E400E04AC003A90E
:10FB58000400B707200006C622C43379F90023A0A1
:10FB6800F4180F10000009E923A02411B240224420
:10FB780092440249410182809565938505D0C98DDB
:10FB88002A842105C2054205C18141819700FB1FD6
:10FB9800E780C04A01CDFD572320050023128500C8
:10FBA8002303F50023A024112105C9B723A024119C
:10FBB80001456DBF0111B7E700E04AC803A9070076
:10FBC8004EC63707200006CE22CC26CAAA8933792A
:10FBD800E90023A0E7180F100000372500200324B0
:10FBE800459B8144014619E499E8A1654E85EF00DB
:10FBF800B00631A88347E4FF6397370395C8A68505
:10FC08001305459BC13D75D0A1654E85C92EF240AF
:10FC18006244B7E700E023A0271126854249D24471
:10FC2800B2490561828091E02286032484FF65BF82
:10FC3800A284E5BF41114AC037E900E022C4032489
:10FC480009003707200006C626C2798C2320E91848
:10FC58000F10000089E523208910154515A0B72746
:10FC6800002083C7979BAA842E8563F5F4008947F3
:10FC780063EE9700BD3DB7E700E023A087100D4570
:10FC8800B2402244924402494101828083A785FF01
:10FC980099E703C7E5FF9307F00F6308F700913D65
:10FCA800B7E700E023A087104DBF37250020238F3A
:10FCB80095FE1305459B0135A16526850D26014551
:10FCC8002320891075BFB727002023AA079A8280AE
:10FCD800B727002083A7C7A099E33E85828003D772
:10FCE80027006316B70003C70700E308A7FEDC4731
:10FCF800E5B7B9CD011106CE22CC26CA8147C14647
:10FD080033D7F540058B21C312053E95314733059E
:10FD1800E50237270020832407A505443314F4009F
:10FD28002EC642044180AA949C40C8408297B2459E
:10FD380023A0040023A20400A18DF2406244D2440F
:10FD48002E85056182808507E39CD7FA0144EDB7CB
:10FD58002E858280BDCD797122D406D626D24AD08E
:10FD68004ECE01444147B3D78540858BB1CF1205AC
:10FD7800314722953305E502B727002003A907A5D7
:10FD88008544B3948400C204C180BE892A9903279C
:10FD9800090011C7032549002EC60297B24531470D
:10FDA8003304E40283A709A53E941C4489E7232071
:10FDB800090023220900B2502254A58D02599254F9
:10FDC800F2492E85456182800504E31EE4F88144EA
:10FDD800DDB72E8582804111B7E700E026C2844353
:10FDE8003707200006C622C4F98C23A0E7180F1095
:10FDF8000000B727002083A707A337240020130497
:10FE0800048691C782971C403E9508C031A0B72749
:10FE1800002083A747A0FDF70840B7470300938752
:10FE2800D73F3305F502B7A72600938737ECB240D2
:10FE38003E9508C02244B7E700E023A097109244FB
:10FE4800410182800111B7E700E022CC80434AC813
:10FE58003707200006CE26CA2A892E86798C23A049
:10FE6800E7180F100000131506019305F0044181EF
:10FE780032C69700FB1FE780601CAA8419C532466A
:10FE8800CA859700FB1FE7802039B7E700E023A069
:10FE98008710F240624426854249D2440561828037
:10FEA8007971B7E700E022D480433708200006D6EE
:10FEB80026D24AD04ECE52CC56CA5AC85EC662C462
:10FEC8003374040123A007190F10000005E123A0D3
:10FED80087100945B250225492540259F249624A95
:10FEE800D24A424BB24B224C45618280B727002050
:10FEF80083A747A0BA8A368AB28B2E8BAA898297A3
:10FF0800B727002003A707A53E898144B146C1470A
:10FF1800338CD40233068701104241E6C1659385CC
:10FF280005F041459700FB1FE780401119EDB72701
:10FF3800002083A707A481C7814511458297B7E7A9
:10FF480000E023A087102D4571B7B727002003A72D
:10FF5800C7A021E723A6A7A023000500832709A59A
:10FF6800054733179700232605002324750123111D
:10FF7800E50023225501E29723A0370123A2670158
:10FF880023A4570163040A0023009A00B7E700E09E
:10FF980023A0871001453DBF3E875C47F5FF48C752
:10FFA80065BF8504E396F4F6B7E700E023A0871061
:10FFB80021450DB7B727002083A787A5411122C483
:10FFC80006C6372400201304849B89C782975C489F
:10FFD8003E9548C84848B240224441018280B7E76C
:10FFE80000E09843B706200023A0D718758F0F109C
:08FFF8000000B726002083C6BB
:020000025000AC
:10000000969B6372D50237260020931615000325B0
:1000100086A0369583560500D58D2310B50023A004
:10002000E7100145828023A0E7100D458280B7E7E5
:1000300000E09843B706200023A0D718758F0F1053
:100040000000B726002083C6969B6374D50237262E
:10005000002093161500032586A093C5F5FF36955D
:1000600083560500F58D2310B50023A0E710014548
:10007000828023A0E7100D458280011137E700E060
:1000800026CA0443B706200006CE22CC4AC84EC674
:1000900052C4F58C2320D7180F100000130705FF5A
:1000A0001377F70FFD4763E2E70AB146B306D502BF
:1000B000B727002003A707A536971C43D9C71359B4
:1000C000450005443D893315A40013140501418002
:1000D000AE894A85A28509312A8A39C9A2854A850D
:1000E000B937B727002083A747A037290020130975
:1000F000C9A58297835789002A848146B38537032F
:1001000013060064B3B7370313850532B335B50062
:10011000BE95EFE04145B30785003E878326490041
:1001200063E4A70063E4D7003387D7402324EA00C1
:10013000B7E700E023A097100145F2406244D244A3
:100140004249B249224A05618280B7E700E023A014
:1001500097100945DDB70111B7E700E026CA8443CF
:100160003707200006CE22CC4AC84EC6F98C23A001
:10017000E7180F100000BD4763E8A70431473307B5
:10018000E502B727002083A707A5BA979C438DCF28
:1001900005443314A400420441802E890145A28500
:1001A000253EAA8911C5A2850145513523A42901FF
:1001B000B7E700E023A097100145F2406244D24423
:1001C0004249B24905618280B7E700E023A0971059
:1001D0000945E5B779714AD037E900E026D2832492
:1001E0000900B707200006D622D44ECE52CC56CAFC
:1001F0005AC85EC6FD8C2320F9180F100000B727DF
:10020000002083C7979B6378F500B727002083AB56
:1002100047A063970B00B7E700E023A0971099A0D1
:10022000B72900209389C9A5AE8A03AB490083D5BD
:100230008900B74736FE938707C83E9BB387C50240
:100240002A84328A8146B3B5C50213850732B33793
:10025000F50013060064BE95EFE0E1306370AB0279
:10026000232099100145B250225492540259F24968
:10027000624AD24A424BB24B45618280829B83D50F
:1002800089002A8913060064B38745038146B3B504
:10029000450313850732B337F500BE95EFE0A12C77
:1002A000B30725013E8903A7490063E4A70063E47F
:1002B000E7003389E740D6852285393C09C92324E4
:1002C0002501B7E700E023A09710054569BF9365B6
:1002D00004F0C205C18141459700FB1FE78080D62D
:1002E00011E9B727002083A707A495D7A285114558
:1002F000829715B7372700208327C7A095E32326C9
:10030000A7A0854723260500232425012311550195
:1003100023008500A300F500232205005DB7BA87FE
:10032000D84775FFC8C7F1BF7971B7E700E026D29B
:1003300084433707200006D622D44AD04ECE52CC72
:1003400056CA5AC85EC662C466C26AC0F98C23A087
:10035000E7180F1000002DC14144B689B28A2E8AD9
:100360002A89B14C372B0020054D130C0003B30B29
:10037000940303270BA55E971C43A5E39375F40034
:10038000B315BD0013554440C2055686C18113758F
:10039000F50F893539C183270BA5DE9723A02701E7
:1003A00023A247016384090023808900B7E700E0A6
:1003B00023A09710014521A023A097100945B25012
:1003C000225492540259F249624AD24A424BB24BE9
:1003D000224C924C024D456182800504E31984F958
:1003E000B7E700E023A097102145D1BF0111B7E77F
:1003F00000E026CA844322CC4AC84EC637072000F4
:1004000006CE2A84AE893289F98C23A0E7180F1012
:100410000000C9332285CE85C1302A8405C5B7279F
:10042000002083D547A6130600648146B3872503C1
:10043000B3B5250313850732B337F500BE95EFE05A
:10044000811248C013351400F2406244B7E700E05F
:1004500023A097104249D244B2490E05056182801B
:100460000111B7E700E04AC803A9070022CC4EC635
:100470003707200006CE26CAAA892E843379E900E0
:1004800023A0E7180F100000EFF01F85AA8419C100
:1004900023110500A2854E85593EB727002083C74A
:1004A000879B63993701B727002003D707A0598C92
:1004B000239087A0B7E700E023A02711014591E032
:1004C0001945F2406244D2444249B24905618280F2
:1004D00001114AC837E900E022CC03240900B7071C
:1004E000200006CE26CA4EC67D8C2320F9180F1098
:1004F00000009307F00263E6A704B147B304F502D6
:10050000B729002083A709A5A6979C439DCB937785
:10051000F5008545B395F500C205C1811181893784
:1005200083A709A50145A69723A0070023A20700DA
:1005300023208910F2406244D2444249B249056105
:100540008280B7E700E023A087100945E5B7411195
:10055000B7E700E026C2844306C622C4370720005E
:10056000F98C23A0E7180F100000EFF0EFF619E95F
:100570000145B2402244B7E700E023A0971092441F
:1005800041018280B727002083A747A000458297BA
:10059000B72700209387C7A56368A402D843B7464E
:1005A00036FE938606C83305A4403697E372E5FC11
:1005B00013070064B335E50203D68700814633058F
:1005C000E502EFD0517A75B7D8433A94C1BF4111D3
:1005D00022C426C237240020B72400201307C4A554
:1005E0009384849B94485843B727002006C683A76A
:1005F00047A01304C4A56392E60882975440B74706
:1006000036FE938707C8B6973387A7003A85636499
:10061000F7006364D7003305D740B72400209387E1
:1006200044D0DC53938444D099CBB727002083A6D1
:1006300007D83707CDFF7D179C46F98F9CC611E17F
:100640004840B727002083A747A3829719E5DC50CD
:1006500085C3EF60816CEF503166DC5091CBB727DA
:10066000002003A707D8B70633001C47D58F1CC747
:10067000B24022449244410182808297944858407B
:10068000B387A6003E8563E4D700E3E8E7F8338547
:10069000E74061B74111B727002006C623ACA7A4E5
:1006A0000295B240B727002023A8A79C014541012D
:1006B0008280994763E9B700B72700208A059387AE
:1006C000479EBE9588C18280B727002023AAA7A491
:1006D00011C5B727002005472381E7A08280B727EF
:1006E000002023A607A0B727002023AC07A4B72724
:1006F000002023A207A037250020B72700204111A2
:10070000238107A07146B727002081451305459E28
:1007100006C623AA07A422C426C2372400209700B5
:10072000FB1FE78000B71305849B130680028145F9
:100730009700FB1FE780E0B5EFF08FADB7270020F3
:10074000938707A103C5C70383C7D7031304849BFB
:1007500085453E958D473305F5029947B72400201E
:1007600039051375F50F2301A4003305F5021305B0
:1007700005249700FB1FE780E08C23A8A4A449C1AF
:1007800003462400994781453306F60213060624E2
:100790009700FB1FE780E0AF83A704A50347240071
:1007A000B7240020938707240A0723A0F49EBA9752
:1007B000372700202324F7A0EFF06FD1A529834726
:1007C000140083A6049E370605001397270036976A
:1007D0001306C6D510C3138717001377F70F0A0740
:1007E0003706050036971306A6CF10C313873700C8
:1007F000890793F7F70F8A07A300E400B69790C321
:10080000B2402244924441018280372700201307DE
:10081000879B834717008346270063F0D702B726DC
:10082000002083A6069E13861700A300C700139717
:100830002700369708C33E8582809307F00FE5BFF7
:100840001C41638C071041777D8FB70600208947D4
:100850006316D7100357450063020710411126C2E3
:100860001946AA849305F00F610506C622C49700B5
:10087000FB1FE78080B005478D47630AE50C9C4469
:1008800091C7D858994761C7985C71C33724002035
:10089000130600048145130504A19700FB1FE780A0
:1008A000409F13060004A685130504A19700FB1FB3
:1008B000E7800097930704A103D7C70009E7130750
:1008C00000102396E70003C7E70001E705472387E9
:1008D000E70003D7070101E76D472398E70003C747
:1008E000F70001E71547A387E70003C7270101E7E2
:1008F00005472389E70003C7370109E703C7F70066
:10090000A389E70003C7570101CB9376370009831A
:10091000238ED702A38EE70203C7470101E755479D
:10092000238AE70003C7640109E71307C003238B89
:10093000E7009C5791C78297B72700202390A79C78
:10094000B72700207D57A386E7DE513B8147B240A1
:10095000224492443E854101828089473E858280BF
:1009600001114AC8372900208327C9A506CE22CC09
:1009700026CA52C456C24EC68297130A0064B335C3
:1009800045031309C9A5835A890081465686330554
:100990004503EFD0513DB72700201387879B004FB9
:1009A000AA840145630694029389879B338584401A
:1009B000636E94000325490056868146B335AA022A
:1009C0003305AA02EFD0313A018D269523AC990068
:1009D000F2406244D2444249B249224A924A0561F5
:1009E0008280011122CC2E84B7F506000A8541468B
:1009F0009385459B06CEEFD09170180806043A9473
:100A0000B7270020035504FF83D767A6F24062444E
:100A1000AA9737450F00130505243355F5020561E4
:100A20008280B727002083D767A651471D45637C86
:100A3000F702794719456378F70213072003154534
:100A40006373F7021307B0041145637EF7001307C1
:100A500040060D456379F700130760090945637483
:100A6000F70013B5B70F8280011122CC06CE2A847D
:100A70002EC6EFF0CFB6B245F240818D33A5A50268
:100A8000229562441375F50F05618280011122CC15
:100A900006CE2A842EC6EFF08FB4B245F240818D87
:100AA00033A5A502229562444205418105618280F9
:100AB000011122CC06CE2A842EC6EFF04FB2B245E9
:100AC000F240818D33B5A502229562440561828092
:100AD000B7270020138707A118572DC3411122C43F
:100AE00026C24AC006C6138907A10297B72700206D
:100AF0001387879B035787002A849384879B0DCB9A
:100B0000BA876373A700AA87C207C183BA866373D3
:100B1000E400A286C206C182958F5147635AF7004E
:100B20008327C90291C38297EF6041082394840010
:100B3000B2402244924402494101828082800111E4
:100B4000B727002022CC3724002023A807A693072C
:100B500004A1DC5706CE26CAAA85130404A181C7C6
:100B60002AC68297B245C9C99C410545C9C3DC4123
:100B7000BDCF83D78500A5CF83D7A500ADCBB72444
:100B800000201385C4A551469384C4A597F0FA1F8D
:100B9000E780006923860400B727002083A6C7A545
:100BA000372700202322D7A0034774011DE3938732
:100BB000C7A503D587009307805737460F00330535
:100BC000F5021306062481468145EFD0D119A30B07
:100BD000A40003477401A54763E5E700A947A30BF9
:100BE000F40037150500130505966D340145F240F4
:100BF0006244D24405618280B72700209387879B97
:100C00003707002023AE070013070770B72700201F
:100C100023AEE7A4378732009387C7A5FD56130795
:100C200027A1D4C398C723860700B7C7004023A4D1
:100C3000D7269DB7011122CC37240020930704A1A9
:100C4000884706CE26CA4AC801E90545F2406244F3
:100C5000D244424905618280130404A15C58F5D74F
:100C6000185C65D77000854582971844B247E30E3B
:100C7000F7FC0355C4009305E004B724002097F067
:100C8000FA1FE780203C1387849B08D39384849BBE
:100C90004DDD0356C4009305F00F014997F0FA1F8C
:100CA000E780205F8347E4009050634DF900328570
:100CB00097F0FA1FE7804047014523A0040223A2D2
:100CC000040269B78355C4000844185CB387250340
:100CD000898105093E9508C20297E9B701114EC600
:100CE000B7290020938709A19C4726CA4AC852C445
:100CF00006CE22CC56C25AC02A8AAE843289638D6F
:100D0000071E938909A103A7490363040712130768
:100D1000F01F6362A712372400201307849B832AE5
:100D200007021304849B639A0A0803D5C9009565DA
:100D3000938515E097F0FA1FE780C03008D02A8627
:100D40006DC983D5C90083A7490303A5890089819B
:100D5000829783A78900832A04025CD0894763169F
:100D6000FA08C1476397F40C83D5C900914793856E
:100D700005FCB3C5F5028A05D69503C72500930780
:100D8000A0056314F70A83D705006390470B4A85D3
:100D90002686910597F0FA1FE78080481C505685FB
:100DA000639357130145F2406244D2444249B24929
:100DB000224A924A024B056182805850E380E7FA4A
:100DC00003D5C9009565938525E097F0FA1FE78064
:100DD0006027AA8A39CD83D5C9002A8683A749030B
:100DE00003A589008981829795BF8D47631BFA000F
:100DF000C1476390F40483D5C900938545FDF199FB
:100E0000A5BF91476318FA006395440383D5C900D1
:100E1000A115F5B793070010631DFA00A14763EA17
:100E2000970083D5C900C115D9BF1C505685639062
:100E3000570D29458DBF9D6A637C5509930A05E0CE
:100E40001947B3CAEA0203D7C900372B0020B38A77
:100E5000EA02BE9A93078B9BDC53130B8B9B639523
:100E6000570103240B021DE003D5C9009305E004DC
:100E700097F0FA1FE780001D2A8445DD83D5C9005D
:100E800083A749032A86898156858297914513074E
:100E9000A005898193972500A29783C627006393B5
:100EA000E60483D60700639C460385058A052686EB
:100EB000A2954A8597F0FA1FE780803683270B02B8
:100EC000E38287EE228597F0FA1FE780E025D9BDFF
:100ED00021677917E36FA7F4B30A5541ADB783C50E
:100EE000370045BF83270B02E38587F4228597F0FF
:100EF000FA1FE780602335BFB727002083A5879DB1
:100F00008DD991479306A0058983139727002E97C3
:100F100003462700E31FD6F003560700631C460173
:100F200085078A072686BE954A8597F0FA1FE780CF
:100F3000202F8DBD83473700C1BFB727002093877F
:100F400007A1984729C3985F1DCF8546631DD50229
:100F5000411122C4372400201304849B105006C67C
:100F600019CE83D5C700485089810297085097F061
:100F7000FA1FE780601B2320040223220402B240F0
:100F80002244410182808280011122CC372400203A
:100F9000930704A156C283AA870026CA4AC84EC630
:100FA00006CE52C42A89AE84B289130404A1638C8C
:100FB0000A1C1C5C99EB2945F2406244D244424928
:100FC000B249224A924A056182805C58EDD7930764
:100FD000F01F63E8A70C372A002093078A9B9C53D5
:100FE000130A8A9BB9C7084483274A02639FA70450
:100FF00089476317F906C147E39FF4FA0355C40014
:101000009147130505FC3345F50293172500032589
:101010000A022686CE853E959307A0052301F5009A
:1010200023102501110597F0FA1FE780601F014585
:1010300061B70355C4009305E00497F0FA1FE780F9
:1010400060002320AA0245F1BDB78355C4005C5857
:1010500003260A02898182971C442322FA0249BF8F
:101060008D47631CF900C147E397F4F40355C400AE
:10107000130545FD9377C5FF59BF91476318F900E4
:10108000E39B24F30355C4002115EDB7930700102B
:10109000E313F9F2A147E3E097F20355C4004115C9
:1010A000D1BF9D676378F506930705E01947B3C77D
:1010B000E7020357C400372A0020B387E702BE9A2D
:1010C00093078A9B9C53130A8A9BA1CF83274A02CA
:1010D0006395570703250A0291461308A005930557
:1010E000F00F93D72600139727002A97034627006F
:1010F000631606078358070003463700639C2805DC
:10110000B306D64063C6960485078A072686CE8531
:101110003E9511BF21677917E36FA7E8B307F54044
:1011200049BF0355C4009305E00497F0FA1FE78018
:1011300060F12320AA0259F9BDBD8355C4005C5853
:1011400003260A0289815685829723225A0359B7BA
:101150002310B70093160601C18261B70356C4007D
:10116000B38596009105130606FCE366B6E4138684
:101170003400719A1106B29623010701231027014A
:10118000A301D70051B7372A002093078A9B9C53AD
:10119000130A8A9BA9C303250A0291461308A005D6
:1011A0009305F00F93D72600139727002A9703463D
:1011B0002700631406058358070003463700639829
:1011C0002801B306D640E3D196F42310B700931656
:1011D0000601C182C1BF0345E4008357C4009305E3
:1011E000E0043305F5024205418197F0FA1FE780DC
:1011F00060E52320AA0245F17DBB0356C400834568
:10120000E400B385C502338696001106E3E5C5DA2E
:10121000B9BF0145828083C705002300F50083D74D
:101220002500A300F50083D72500A1832301F50045
:1012300083C74500A301F50011458280B727002030
:1012400023AA0788B727002023A80788828029C1FE
:10125000411126C206C622C4AA8401458DC52E842A
:10126000B7F50600228541469385459C97F0FA1F05
:10127000E78000FB83C7040005452306F40083C70D
:101280001400A306F400B24022449244410182803B
:1012900001458280011122CC26CA06CE0947AA84C4
:1012A00032846381E50441468147639BC500638FB7
:1012B000E6006397B6000DA841478147638EE600BC
:1012C000F2406244D2443E85056182808A8522854F
:1012D000BD3F41468A8519A88A85953F41468A8542
:1012E000228531A0E39AB6FC2E86A285268597F04A
:1012F000FA1FE7802000AA87E1B7B727002023A8BC
:10130000A7888280B727002023AAA788828001119E
:1013100022CC0354650006CE26CA4AC84EC641C038
:1013200083298500AE842A8803C9090081471317E1
:101330008901618763550702B147054563FA870450
:101340005114420403552800418033878900A28646
:101350004E868545EFA0300EB337A00085077D147B
:1013600013556900420405891379F90341802380EC
:10137000F400A380A4002381240123928400014768
:1013800019C01387190098C409476383E700014512
:10139000F2406244D2444249B24905618280054527
:1013A000C5BFC167F917630AF502D94763F7B702EA
:1013B000011122CC2EC606CE2A84EF70D056B2453B
:1013C0006368B50022856244F24005616F90807ABF
:1013D000F240624405450561828005458280C1670F
:1013E000F9176314F5006F701054411106C6EF90A1
:1013F000206711E15D45B2404101828091476394CD
:10140000F502834705002300F600834725000347C4
:101410001500A207D98F2311F60083473500014537
:101420002302F6008280114582804111814522C449
:1014300026C206C6AA8405252A8409E9B727002002
:1014400083A7078981C7F945268582972285B240FF
:10145000224492444101828039714ED656D25AD0EC
:1014600006DE22DC26DA4AD852D4AA8A2E8BB2892A
:1014700041EF36C6AD379145EF70B05CAA844D4957
:101480002DC9B246054A238034010544630A0B0086
:10149000B68513851400029B0505131405014180D0
:1014A000E20993D9894163D30902C1455685EF907A
:1014B0006069654905E933868400A2852685EFA029
:1014C000A0482A8905E131044204418091472C0853
:1014D0005685231CF10026CE231D8100EF80B071BC
:1014E0002A8901C963070A00268597F0FA1FE78059
:1014F000A0C3F25062544A85D2544259B259225A7A
:10150000925A025B21618280BA84014AADBF011107
:1015100022CC26CA4AC84EC606CE2A893284B6894B
:10152000253FAA840DE1B727002083A7478981CFF3
:1015300005476317E40003C4090005041374F40F9E
:10154000A2854A858297F240624426854249D24468
:10155000B24905618280AE86B71505000147054690
:10156000938565216DB783D705002300F50083D7E8
:101570000500A183A300F5000945828083D70500FB
:101580002300F50083D70500A183A300F50083D7CE
:1015900025002301F50083D72500A183A301F500D1
:1015A0001145828083D705002300F50083D705000D
:1015B000A183A300F50083D725002301F50083D77D
:1015C0002500A183A301F50083C755002302F50080
:1015D00083C76500A302F50003D585001905420500
:1015E0004181828083D705002300F50083D7050061
:1015F000A183A300F5000945828083D7050023005D
:10160000F50083D70500A183A300F50083D725004B
:101610002301F50083D72500A183A301F50011451F
:10162000828003D54500060542054181828083D72B
:1016300005002300F50083D70500A183A300F50072
:1016400003D52500090542054181828083D7050025
:101650002300F50083D70500A183A300F50083D7FD
:1016600025002301F50083D72500A183A301F50000
:1016700003D54500110542054181828083C70500DD
:101680002300F5000545828083D70500411122C45F
:1016900006C62300F50083D705002E841105A1831B
:1016A000A30EF5FE83D725009505230FF5FE83D7FE
:1016B000D5FFA183A30FF5FE03C6F5FF97F0FA1F30
:1016C000E78000B603454400B240224411054101C1
:1016D00082808947639CF500834715000347050016
:1016E0000145A207D98F2310F60082801145828020
:1016F00003D70500D94763FEE702011122CC06CECD
:101700002EC62A84EF703022B24683D70600636D5E
:10171000F50022856244F240B715050001470946ED
:101720009385655605610DBBF2406244094505612C
:1017300082800945828091479DC583460500FD153D
:10174000C2058547C1816392F60213D725008D89B2
:10175000914791E9914701CB05052301D60023105C
:10176000E60048C281473E85828009479147E39C55
:10177000E6FEC94733D7F502B3F5F502D1BFAE8611
:10178000B7150500014711469385C557F1B193F789
:10179000350091EB8981914789C52310B60048C275
:1017A00081473E8582809147EDBF03C74500894749
:1017B000631AF702011122CC2A84C84506CEAE86F0
:1017C000014719C52EC69D45EFE0EFABB2462A870B
:1017D00022856244F240B715050019469385455AA3
:1017E00005619DB90945828099E111458280834751
:1017F000050005472311F600E379F7FEFD1593F583
:10180000F50F33D7F502B387E702E390F5FE050540
:1018100048C22310E6000145828083C7450009477E
:10182000AE866385E70041476399E700B715050079
:10183000014721469385856805B1094582802310BB
:10184000B60091E1014548C201458280AE86B715D8
:101850000500014729469385455EFDBE2310B6006D
:1018600091E1014548C201458280AE86B715050069
:10187000014731469385A55FC5B62310B60091E1B7
:10188000014548C20145828003D74500854763FD75
:10189000E702011122CC2A84884106CE0DC12EC652
:1018A0008545EFE04F9E2A8722856244B246F2408A
:1018B000B7150500394693852562056171BEF24072
:1018C00062440945056182800945828091479DC532
:1018D000034705008D46914763F2E602FD15C205F8
:1018E000C181B3C6E5023308D70263990501050536
:1018F0002310D6002311E60048C281473E8582802E
:1019000083C745000947AE866385E7004147639971
:10191000E700B715050001474146938585682DBE50
:1019200009458280B335B0001395250082800111EE
:1019300022CC26CA06CE03C785008547AA842E84FA
:1019400049466310F702613C83572400491513068A
:10195000200963C8A700F2406244D24409450561EA
:1019600082800347940085476314F70013660604DA
:10197000484011C58D4532C6EFE0EF903246A28651
:101980006244F2402A872685D244B7150500938524
:10199000E5620561D1B48D4763FFB7028347150047
:1019A00003470500F115A207D98F2310F6008347DE
:1019B000350003472500C205A207C181D98F231135
:1019C000F6002312B60089C5110508C601458280BC
:1019D00023240600E5BF11458280011122CC2A8410
:1019E000884506CEAE8611C52EC69545EFE0AF8977
:1019F000B2462A8722856244F240B715050059464F
:101A00009385C564056189BCB335B0001395250085
:101A10008280AE86B7150500014761469385C5678C
:101A200025BC8547114563F4D702834716008345DB
:101A30000600A207CD8F2310F7009387E6FF23113E
:101A4000F70089476386F600090650C30145828086
:101A500023220700E5BF0147814679468145EDBA5B
:101A600083D705002300F50083D70500A183A300D9
:101A7000F5000945828083C7250005472300F5004E
:101A800003D505006397E7000A0505054205418176
:101A90008280C9473305F502CDBF03D505000A058D
:101AA00042054181828083D725002300F50003D5BC
:101AB000050083D725003305F50205054205418160
:101AC000828003D50500828003D50500828003D57E
:101AD0000500828083D725002300F50003D505008B
:101AE00083D725003305F502050542054181828033
:101AF00083D705002300F50083D70500A183A30049
:101B0000F50083D725002301F50083D72500A183A5
:101B1000A301F50003D545001105420541818280EE
:101B200083D705002300F50083D70500A183A30018
:101B3000F50003D5250009054205418182808947CA
:101B40001145639BF6008347160083460600014556
:101B5000A207D58F2310F700828003D70500D9474D
:101B6000AE8663F9E700B725050001470D4693856A
:101B700005A671BA0945828011456393A602834781
:101B80001600834606000145A207D58F2310F700F3
:101B90008347360083462600A207D58F2311F7001E
:101BA000828083C725000547FD1793F7F70F636110
:101BB000F70483D705008DCF011122CC2A84C841B8
:101BC00006CE15C12EC68945EFD0FFEB2A872285A8
:101BD0006244B246F240B72505001546938565A7D5
:101BE00005616FF0DF92F240624409450561828031
:101BF000094582809547114563F9D706411122C4F2
:101C000026C24AC006C683471600BA8403470600A8
:101C1000A2073284D98F2390F4008347360003470C
:101C2000260093054400A207D98F2391F400894729
:101C30002382F400094613855400368997E0FA1F81
:101C4000E780005E9307A9FF2394F4009947631B84
:101C5000F90023A60400B2402244924402490145FF
:101C6000410182801904C0C4FDB7828083D705007A
:101C70008DCF011122CC2A84C84106CE15C12EC6B3
:101C80008545EFD05FE02A8722856244B246F24064
:101C9000B72505001D469385A5A905616FF03F870F
:101CA000F240624409450561828009458280994776
:101CB0006395F6048947411106C62302F70083475E
:101CC000160083460600B285A207D58F2310F700C1
:101CD000834736008346260003464700A207D58F78
:101CE000130557002311F700910597E0FA1FE780CD
:101CF0002053B240014541018280D1471145639490
:101D0000F600C1474DBF828083D705008DCF0111FA
:101D100022CC2A84C84106CE15C12EC68945EFD0F3
:101D20009FD62A8722856244B246F240B725050035
:101D30002546938565AA05616FF06FFDF240624408
:101D40000945056182800945828089471145639B69
:101D5000F60083471600834606000145A207D58F8B
:101D60002310F7008280011122CC2A84C84106CEBC
:101D7000AE86014719C52EC68545EFD0DFD0B246E5
:101D80002A8722856244F240B72505002D469385B7
:101D900025AC05616FF0AFF711456393A602834749
:101DA0001600834606000145A207D58F2310F700D1
:101DB0008347360083462600A207D58F2311F700FC
:101DC0008280011122CC2A84C84106CEAE8611C57C
:101DD0002EC68545EFD03FCBB2462A872285624486
:101DE000F240B72505003546938585AC05616FF057
:101DF0000FF293F71600114589EB89476387F600C8
:101E000085822312D70010C301458280011122CCA4
:101E10002A84C84106CE15C12EC68545EFD0BFC65F
:101E20002A8722856244B246F240B72505003D4626
:101E30009385E5AC05616FF08FEDF2406244094592
:101E40000561828083D705008DCF011122CC2A84C1
:101E5000C84106CE15C12EC68945EFD0DFC22A87FC
:101E600022856244B246F240B72505004546938577
:101E700045AD05616FF0AFE9F24062440945056187
:101E8000828009458280854763FCD7022304A7002E
:101E9000A304B7008347160083450600A207CD8F31
:101EA0002310F7009387E6FF2311F7008947638625
:101EB000F600090650C30145828023220700E5BFD2
:101EC00011458280014781464D4681456FF02FE4E0
:101ED0008D47114563FBD7028347160083450600F3
:101EE000A207CD8F2310F7008347360083452600D5
:101EF000A207CD8F2311F7009387C6FF2312F700A7
:101F00006386A600110610C70145828023240700BE
:101F1000E5BF011122CC2A84884506CEAE8611C5C4
:101F20002EC69545EFD03FB6B2462A872285624439
:101F3000F240B72505005D46938505AF05616FF05A
:101F40000FDD854711456397F6008347060001457D
:101F50002300F700828001478146654681456FF086
:101F60000FDB011122CC2A84C84106CEAE86014780
:101F700019C52EC68D45EFD01FB1B2462A872285DE
:101F80006244F240B72505006D46938505B20561B0
:101F90006FF08FCC011122CC2A84C84106CEAE86C8
:101FA000014719C52EC68D45EFD0FFADB2462A8731
:101FB00022856244F240B72505007546938505B237
:101FC00005616FF06FC9011106CE2EC6EF80702536
:101FD00001C9B245F2400355250005616FC0B02F1D
:101FE000F240494505618280B7270020A380078C15
:101FF000B72700202380078CB727002023A4078A57
:10200000B727002023A6078AB727002023A8078A1E
:10201000B727002023AA078AB727002023A2078A10
:10202000B727002023A0078AB7270020239A07A8F4
:1020300013064038938747A92391C7027176130787
:10204000400B130606B82391E7002392C7021167DD
:102050001D46930600059305000A1305007D239293
:10206000E7002393C70241470546130810F823955C
:10207000E7002396E7002399E700239AE700239BD4
:10208000E700239CE7002394E7022393B7002394FF
:10209000B7002397D7002398D700239DA700239E3E
:1020A0000700239F0700239007022395C70223966A
:1020B0000703239707029308F00723980702239248
:1020C000E7042393E704239FE7042390E706239183
:1020D000E7062392E706239917031307C01C239AE8
:1020E000C702239BC702239C0702239D0702239E4E
:1020F0000702239F0702239007042391C704239418
:102100000704239507042396C7042397D70423982D
:10211000D7042399A704239A0704239B0704239C2D
:102120000704239DD704239ED7042393A706239453
:10213000070623950706239607062397B7062398D5
:10214000B70623990706239AE7067D57239B0706C0
:10215000239007092391E7088280011126CAAA84E7
:10216000214522CC06CE2E8432C636C43AC2EFD0E8
:10217000FF9D1DC9A24612473246930700FD23006A
:10218000F5009947A30095002301F5002303D5002E
:10219000A303E5002312C500AA8522856244F2400C
:1021A000D24405616FD09FA9F2406244D2440561D8
:1021B0008280B727002023A8A78A8280B727002023
:1021C00023AAA78A8280011122CC4AC806CE26CA39
:1021D0002A890144B30489006368B400F240624470
:1021E000D2444249056182802EC6EFD05FBF93176B
:1021F0000501C183A183B2452380F4009307140035
:1022000093F7F70F850463F9B700CA970904238091
:10221000A7001374F40F7DBF3E847DBF411122C41B
:1022200037240020130444A703556400C16706C681
:10223000FD17630FF500B727002003C687BBB7253E
:1022400000209385858BEF80805CFD572313F4007D
:10225000B24022444101828009C925151375F50F4A
:102260001335850E13451500828001458280239029
:102270000500C9C6797122D426D24ECE52CC5AC896
:1022800006D64AD056CA5EC63684328AAE892A8BB2
:10229000814463F34407B307940083C7070013899D
:1022A00014004209939A070193DA0A0113590901AC
:1022B00063840A04CA976341FA04B307240183CBF9
:1022C00007005E85513F0DC99387FAFF2390F900FF
:1022D00063906B03130519002295B2502254925457
:1022E0000259F249624AD24A424BB24B456182805E
:1022F000D694C204C18071BF0145C5B70145828033
:10230000011122CC3724002026CA4AC84EC69307A2
:1023100044A706CE2E89D0CB8CCBC8C7AA84414611
:102320009305F00F4A8597E0FA1FE780000585497D
:10233000130444A7631935030848C145693541466C
:102340009305F00F268597E0FA1FE7800003054903
:102350006315250348446244F240D2444249B249DD
:10236000C14505618DB5414681454A8597E0FA1F13
:10237000E780A000E31535FDC1B7414681452685BC
:1023800097E0FA1FE78060FFE30625FDF240624414
:10239000D2444249B24905618280411122C43724A6
:1023A000002026C24AC0AE842A8913060002814555
:1023B000130544A706C697E0FA1FE78080ED930750
:1023C00044A7A3812701B7270020238E97BAEFC027
:1023D000C072854719C181474945230AF4A6B24016
:1023E00022449244024941018280814781CD19C92A
:1023F0008547631BF50083C7550093E707FCA3825D
:10240000F50085473E85828089476317F50083C7BD
:10241000550093F7F703E5B70D478547E314E5FE4D
:1024200003C755001377F70313670704A382E5007A
:10243000D1BF81478DC105C103C755009306000C6C
:1024400085471377070C6308D700930600048D4770
:102450006303D70089473E858280411122C4005D15
:1024600006C626C21DC8AA84085009C597E0FA1FEF
:10247000E78080CB485009C597E0FA1FE780C0CAC3
:10248000085409C597E0FA1FE78000CA228597E043
:10249000FA1FE78060C923AC0402B2402244924490
:1024A0004101828019E9B727002083C767A791C738
:1024B00037250020130585898280372500201305E4
:1024C000C5A88280B727002003C567A78280B727E9
:1024D000002003A507A88280B727002003A547A8EE
:1024E0008280B727002083A787A888438280B727E8
:1024F0000020938747A7D44B9842050798C203C58D
:1025000037009307F00F6305F50091656FD0BFADFD
:102510008280011122CC06CE2E8432C6EF8000616B
:102520009147B2456310F502B727002083A7478B78
:1025300095C303A30700630F030022856244F240A2
:1025400005610283B727002083A7C78A81C703A339
:102550004700D5B7F240624405450561828001110C
:1025600022CC2A840355450006CE26CA4AC84EC648
:10257000EF80E0393DC92A89834405008349C500BD
:10258000E93D4A85EF80B01903554400EF8040557E
:10259000372900201309098C83470900B9CB639AB6
:1025A0009704B727002083C5178C2685293C19E19D
:1025B0002300090003554400EF8040579147631FF3
:1025C000F500B7270020938747A78356440003D719
:1025D00067006395E6007D572393E700F24062446D
:1025E000D2444249B2490561828081499304F00F87
:1025F00045B79307F00FE38FF4FA83466400035660
:102600004400034524004E87A685813E65B7797155
:102610005EC6AA8B2E8552CC56CA5AC806D622D47C
:1026200026D24AD04ECEAE8A328B368AEF80202E0A
:102630007DC1045D2A89E5C09C50614599C313059D
:1026400040039C5481C751054205418163050A003E
:10265000710542054181DC5081C75D05420541811C
:10266000EFD0CFCE2A8445C96146814597E0FA1F55
:10267000E78020C2B727002083C947AC63940900D4
:1026800083490900930700FD2300F400A947A30034
:1026900074012301F400230364018C5023125401BC
:1026A0001305840191C908C47146930A440397E055
:1026B000FA1FE780E0B656858C5491C948C451464C
:1026C000930A450197E0FA1FE78080B55685630CB1
:1026D0000A0008C87146D285930AC50197E0FA1F1F
:1026E000E78000B45685CC5099C548C85D4697E050
:1026F000FA1FE780E0B2A2854E85EFD02FD4225496
:10270000B2509254F249624AD24A424BB24B4A8585
:102710000259456199B3B250225492540259F24978
:10272000624AD24A424BB24B4561828001114EC689
:10273000AA892E854AC806CE22CC26CA2E89EF80C9
:10274000001D21C9B727002083C447AC99E083440A
:1027500005001945EFD08FBF2A8405CD8145194664
:1027600097E0FA1FE780E0B2930700FD2300F40032
:10277000B947A30034012301F40023122401A285E8
:102780006244F2404249B2492685D24405616FD085
:10279000EFCAF2406244D2444249B24905618280A4
:1027A00039715ECEAA8B2E8526DA4ED652D456D2F9
:1027B0005AD006DE22DC4AD8AE84328BB68A3A8AF8
:1027C000BE8942C6EF80A01421CD2A894145EFD0B1
:1027D000EFB72A8431C54146814597E0FA1FE7806B
:1027E00040ABB727002003C547AC19E103450900FA
:1027F000930700FD2300F400BD472301F400B24716
:10280000A30074012312940023046401A30454015F
:1028100023054401A30534015CC4A285EFD00FC297
:10282000F2506254D2544259B259225A925A025B1F
:10283000F24B21618280797126D2AA8439454AD02F
:102840004ECE06D622D42EC6B2893689EFD00FB02E
:1028500021C1B2459307000D2310F500B1472A842A
:102860002312B5002301F500CE851905194697E01E
:10287000FA1FE780E09A23062401A2852254B25071
:102880000259F24913F5F40F925445616FD00FBB12
:10289000B250225492540259F2494561828041114A
:1028A00026C2B7240020938444A703C7340006C679
:1028B00022C44AC09307F00F630CF7042A893945F4
:1028C000EFD0CFA82A8429C5930700FDB7250020A3
:1028D0002300F500A3002501230105009385C5A869
:1028E0000D05194697E0FA1FE780809383D784008F
:1028F000A28503C534002315F40083C71400230602
:10290000F4002244B2409244024941016FD00FB317
:10291000B2402244924402494101828001115AC0CE
:102920002A8B314526CA4EC652C456C206CE22CC88
:102930004AC8AE84B28A368ABA89EFD02FA13DCD7B
:102940002A842685EF70B07C11C50347C500A147D6
:102950006314F704B727002003C977A7930700FD86
:102960002300F4009D47A30064012301F400231217
:102970009400231354012314440123153401A28528
:102980006244F240D244B249224A924A024B4A85FA
:10299000424905616FD08FAAB727002003C9D7BB72
:1029A000E31E0BFAB727002083A787959C47DDD746
:1029B000CE865286D685268582974DB7F2406244F0
:1029C000D2444249B249224A924A024B056182806E
:1029D000011122CC2A84214506CE2EC6EFD00F97B6
:1029E00021C1B245930700FD2300F500C54723012F
:1029F000F50083C73500A301F50083D745002312F6
:102A0000F50083C765002303F50083C77500AA8519
:102A1000A303F50022856244F24005616FD00FA246
:102A2000F240624405618280397162CC2A8C59453A
:102A300026DA4AD84ED652D456D25AD05ECE06DEC8
:102A400022DCAE8432C636C4BA8B3E8BC28A468A3A
:102A50008359010403494104EFD04F8F25C9324601
:102A6000930700FDA2462300F5009547A301C5008A
:102A7000A30085012301F5002A8419461105A9C286
:102A8000B68597D0FA1FE780A07923066401230A50
:102A90002401231574012317540123184401231919
:102AA0003401A2856254F2504259B259225A925AC4
:102AB000025BF24B624C2685D25421616FD00F9895
:102AC000814597D0FA1FE780C07CC1B7F2506254AD
:102AD000D2544259B259225A925A025BF24B624C7A
:102AE00021618280411122C437240020130444A7AD
:102AF0008347240006C626C28DCBB7240020AA85B2
:102B000019461385848997D0FA1FE78060710345C1
:102B1000240093858489EFF05F8D2244B2401385B1
:102B20008489924441016FB0107EB24022449244A5
:102B3000014541018280411126C2B72400209387BC
:102B400044A706C622C44AC003C737009307F00F44
:102B5000938444A76304F7042A892945EFC01FFF23
:102B60002A840DCD930700FD2300F500A147A300A3
:102B700025012301F50083C72400B7250020938594
:102B80008589A301F5001946110597D0FA1FE78042
:102B9000206903C53400A285EFD04F8A03C7240003
:102BA0008D476311F702B727002083A7078B99CBC6
:102BB00003A38700630803002244B2409244024901
:102BC00041010283B2402244924402494101828081
:102BD000797122D406D626D24AD04ECE52CC56CACD
:102BE00009445DCD2A8903550500AE895144EF7033
:102BF0001052AA8455C537270020930787BB83C787
:102C000047008546BA8AFD1793F7F70F494463F9E1
:102C1000F6080347C500A1476314F700639209084B
:102C20009C5C4544B5EF9165938545711305C002E1
:102C300097D0FA1FE780004188DC2A8A4D442DC1D5
:102C40001306C002814597D0FA1FE780806483573E
:102C5000090093064A0036852311FA007146930550
:102C6000490036C697D0FA1FE780805B894723006A
:102C7000FA0003C5C400B2460356090083C58ABBE7
:102C8000611513351500EF80F06E2A846386090004
:102C9000CE852685EF80405801C42685EFF0EFFBF6
:102CA0002285B250225492540259F249624AD24AC1
:102CB00045618280B727002083C7C7BB0547FD1742
:102CC00093F7F70F6378F708894751C6011122CCB3
:102CD00026CA4AC84EC652C406CEAA89368AB284CB
:102CE0002E89EF70D0422A84D14729C9485509C599
:102CF00097D0FA1FE7804043F1452685EFD00F9526
:102D000048D4CD4705CD8346C40021478147639F02
:102D1000E600630D0A000347A5010356050193066B
:102D20002501AA854E85EF80C056AA870347440037
:102D3000630F0900136767002302E400F240624456
:102D4000D2444249B249224A3E85056182801367D6
:102D50004700DDB7C9473E8582809307000463EBD7
:102D6000A700B7270020938747A906053E9503557E
:102D70000500828041657D158280011122CC2A8464
:102D80002E8526CA06CEAE84EF7070381DCDB747AB
:102D90000F009387F723094563E4870281450A857D
:102DA000414697D0FA1FE780C04EA68523108100C8
:102DB0000A85418023018100A3010100EF80304793
:102DC000F2406244D244056182804945D5BFB727AD
:102DD0000020238DA7BA82806F80F053797152CC86
:102DE0002A8A328522D426D24AD04ECE56CA5AC812
:102DF0005EC606D662C4AE8BB28A368BBA843E8972
:102E0000C2894684EF70B03015C92A8C63140A0257
:102E100013774B008347450015CF93E72701230223
:102E2000FC008DEC631C0902639A090205E8ED9B26
:102E30002302FC00832B8C03639F0B06B2502254A9
:102E400092540259F249624AD24A424BB24B224C46
:102E500045618280F59B93E70701D1B793E747006F
:102E60002302FC0001CC1C484146A2852324FC021D
:102E700013058C0197D0FA1FE780803A63910B020B
:102E8000D5D80325CC0209C597D0FA1FE780C02901
:102E9000F1452685EFC09FFB2326AC0261BFE30B03
:102EA00009F80325CC0209C597D0FA1FE780C0278F
:102EB000F1454A85C5B79DC483A70B0299EB91657F
:102EC00093853571714597D0FA1FE780A01723A02D
:102ED000AB0203A50B0219C57146A68597D0FA1F50
:102EE000E78000346388090283A74B0299EB916560
:102EF000938525715D4597D0FA1FE780A01423A222
:102F0000AB0203A54B0219C55D46CE8597D0FA1FCB
:102F1000E78000311DC483A78B0299EB91659385EF
:102F20001571514597D0FA1FE780C01123A4AB0259
:102F300003A58B0219C55146A28597D0FA1FE780D9
:102F4000202E2254B2509254F249B24B224CCA86DF
:102F50005A860259424BD6855285D24A624A456109
:102F60006FF0EFEA011126CA52C406CE22CC4AC83D
:102F70004EC62A8AAE84EF70901925C5AA893945B4
:102F8000EFC0DFBC2A8431CDB727002003C947AC8E
:102F90006314090003C909009307000D2310F4000E
:102FA000AD472301F40093856900130534001946E9
:102FB00097D0FA1FE780C02693F714008580858894
:102FC0002306F400A306940023154401A28562445D
:102FD000F240D244B249224A4A85424905616FC053
:102FE000FFC5F2406244D2444249B249224A0561D7
:102FF000828001114EC652C456C206CE22CC26CAC9
:103000004AC8AA8A2E8AB289EF7070102DCD2A89FB
:103010001305C002EFC09FB32A8435C5B72700202F
:1030200083C447AC99E0834409009307000D231043
:10303000F400E9472301F400930569001305340007
:10304000194697D0FA1FE780A01DD2852315540199
:103050001305C400414697D0FA1FE780601CCE8557
:103060001305C401414697D0FA1FE780601BA28573
:103070006244F2404249B249224A924A2685D244E9
:1030800005616FC0BFBBF2406244D2444249B249BD
:10309000224A924A05618280411122C437240020CD
:1030A0001304048A084006C619C597D0FA1FE780A2
:1030B000A00723200400B240224441018280011174
:1030C00006CE22CC26CA4AC82EC6EF70500439CD8F
:1030D000B245B727002003C947AC0CD5AA846314B6
:1030E0000900034905004145EFC05FA62A841DCDB4
:1030F0009307000D2310F500A5472301F50083C7B2
:103100005400938564001105A30FF5FE194697D06E
:10311000FA1FE780E0109C54A285F2405CC4624430
:10312000D2444A85424905616FC05FB1F2406244B2
:10313000D2444249056182801D71A2CC86CE2A8488
:103140002EC6EF70C07C05CD8346C5001147AA8707
:1031500049456392E6029C5FB24599C383C5670106
:10316000B7D605002308B1009386C6B2100889457A
:103170002285EF802001F64066442561828051451A
:10318000DDBFB727002083C7C7BB0547FD1793F7EF
:10319000F70F637AF704894721CA411122C426C276
:1031A0004AC006C6B2842E89EF7060762A84D14761
:1031B00005C5630809008347450093E727002302FC
:1031C000F5004146A6851305840197D0FA1FE780D4
:1031D00020059C481CD48147B240224492440249B5
:1031E0003E8541018280C9473E858280797122D423
:1031F00006D62A842EC6EF70807101CDB245228595
:10320000230EB1006C08EF70B07DB25022544561BE
:1032100082805145DDBF6F703006C1671387E7FFBD
:103220006395E502B727002083A7C78A91EB49453C
:1032300082804945B2402244924402494101828041
:1032400003A30700E30503FE0283411122C426C243
:103250004AC006C6FD172A892E84B284639AF502F5
:10326000B727002083A7C78A91CF9C4381CF82973D
:1032700011E9B72700202380278DB7270020A380DE
:10328000978C4DBFA6854A85EFE0FFD345F5D5B7AE
:103290002E85EF70C06751DD834705000D45E39B28
:1032A00027F922852244B2400249A6859244410171
:1032B0006FB070029307000463E2A7064111C16773
:1032C00022C406C626C2FD172A8409456382F50278
:1032D000C547AE846313F4022E85EFB0500737253F
:1032E0000020130545A906042A94231094000145E3
:1032F000B24022449244410182809307A0036316A6
:10330000F4002E85EFB0E07DD9BF9307B003E3183A
:10331000F4FC13F5F50FEFB0007DD1B709458280BD
:10332000411106C622C426C237240020AA84EFE039
:10333000BFCBEF10E01DEFA01142130544A781455C
:103340001306000297D0FA1FE780A0F4130444A7E5
:10335000930700F02311F400B7270020138787BBE1
:10336000FD562301D700230204002244238C97BA80
:10337000B24026859244954541016F50F0665971DF
:1033800093970501A6D286D6A2D4CAD0CECED2CCEF
:10339000D6CADAC8DEC6E2C4E6C2EAC06EDEC187BB
:1033A000AE8463D3075237240020034584BB3729FA
:1033B0000020372A0020EFC07F80AA8C22CCB72AB9
:1033C0000020B72B0020130449A7372C002063935B
:1033D0000C022165258DB650265496540659F6499F
:1033E000664AD64A464BB64B264C964C064DF25D85
:1033F0006561828083C70C001307200A639CE70085
:103400008349340003D52C00C1656686FD15EFF0B5
:103410004F909DA26247130787BB8349270013077C
:1034200010096398E71683C71C001547639FE700E0
:103430006685EFF0CF926685EFC02FECE24703C5BB
:1034400087BBEFC0AFF7AA8C59B73947639BE71624
:1034500003D54C008567A5076316F50483A58C008A
:1034600003CB0500631D0B00850591C9372500209E
:1034700019461305C5A897D0FA1FE78060DA0347FD
:1034800049A785476317F71063080B00230A09A6AD
:103490005A85EFF0CFC045B78947230AF9A6EFB0A8
:1034A000406651BF896713872700631CE50403AB9F
:1034B0008C0063000B0E83470B0089EF83472B00C2
:1034C00003471B00A207D98F2314F40083473B0056
:1034D000A300F400034749A78947631CF70A834701
:1034E0000B0091C7230A09A603450B005DB783456E
:1034F0001400035584008D47230AF9A6EF50D051DC
:10350000E5B795076319F50083A78C0003C507008D
:10351000EFF06FE20DB7F9771387A7FF2A974207FD
:103520004183914663F1E6049387A7FCAA97C207FB
:10353000C18371476371F70289671387B70063100E
:10354000E50483A78A8AE38807EE9C43E685E38443
:1035500007EE829715A0370700181307F770B357C7
:10356000F700858BA9CB83270A8BE38607EC9C4366
:10357000E38307EC66858297E31F05EA19A81387A2
:10358000C7006311E50283A78C0083C70700E384AB
:1035900007EA9307F00FE380F9EAE6854E85EFC06E
:1035A000EFE969BDB9076318F5008327CC8AE38486
:1035B00007E8DC4361BF896793871704E303F5F8E5
:1035C000C9BF3D476399E70403D54C00896713875A
:1035D000D700E30CE5FC13879701E308E5FCCD0772
:1035E000E319F5FA03576400C167FD17631DF7007F
:1035F0008327CC8AE38107E4DC43E38E07E2096595
:10360000E6854D05B9B7B727002083A7478BE3842C
:1036100007E29C43DDB71307E003E39CE7F683C7AB
:103620002C0005476398E70E83C76C0037270020FE
:10363000930D078AE1E783A70D00D5CF03CB0700E1
:10364000A14903C57C00138D8C00EA85EFE07FDE85
:1036500083C74C01A383AC0083D80C0103D8EC00D2
:1036600003D74C002A8603C53C003EC283D72C01F9
:10367000EA86DA853EC0CE87EFF00FBB83C73C00F9
:1036800095E7DD4783D80C0103D8EC0083C67C00A6
:1036900083D54C003EC283D72C016A873EC0CE87BB
:1036A00005465A85EF70805FA381AC0083A70D00AB
:1036B00081C71145EFF05F9E138B0B8C03450B0008
:1036C000E30B05D6B727002083C5178CEFE0BF8F2B
:1036D000E30305D683C63C0093071003638AF60014
:1036E00003D64C0083450B004E873685EFE0FFA6DE
:1036F00023800B8C89B3034B340099B783270A8B43
:10370000034B3400914995DFDC4385DF814501455A
:10371000829705BF29476398E70A83C76C0037275C
:103720000020930D078AA5EF83A70D00B5C703CB33
:103730000700A14903C57C0093868C009377250080
:10374000BDCB13761500138E4C0183C70C0283D8B2
:10375000CC0103D8AC0103D74C0003C53C003EC2EA
:1037600083D7EC01DA8572CE3EC0CE87EFF0CFABC7
:1037700083C73C00724E9DFBDD4783D8CC0103D844
:10378000AC0183C67C0083D54C003EC283D7EC01DC
:1037900072873EC0CE8729B7034B340059BF8327B9
:1037A0000A8B034B34009149D1D7DC43C1D7814503
:1037B0000145829741B7B68536CEEFE09FC7F24606
:1037C0002A86368E59B70947639CE70083A78A8A01
:1037D000E38307C6DC43E38007C666858297A1B909
:1037E0002D476398E70083A78A8AE38607C49C472E
:1037F000DDB70D476397E70066868D4503D54C001E
:1038000039B119476395E706930561021305103135
:10381000EFA0017D2C1013052031EFA0617C03D6B1
:103820006C008357810203D54C0063E8C70083D640
:103830008C000357610263F7E60093050002EFB0C6
:103840000030D5BE6374E6002393EC0063F4D70028
:103850002394FC0003D7CC0083D6AC0003D68C00A5
:1038600083D56C0001488147EFB0202DE9B61D4794
:10387000E381E7D231476395E7006686B145BDBF76
:1038800035476398E70083A78A8AE38607BADC474F
:1038900099B74947639DE70083270A8BE38B07CEDF
:1038A000DC43E38807CE814505458297DDB14D476E
:1038B000E391E7CE83270A8BE38D07CCDC43E38AD1
:1038C00007CCE6850945D5B793F7150089CFB7270B
:1038D000002083A7878A89C7DC4399C30145829763
:1038E00013C51400CDBC93F7250091CFB727002056
:1038F00083A7078B91C7DC4381C781450545829724
:1039000013C52400C9BC93F745000145E38507AC06
:10391000B727002083A7478A37240020130444A731
:1039200091CF85472302F400B727002083A7078B98
:1039300091C7DC4381C781450545829748442C10D7
:10394000EF70507B2810EFF0EF99B727002083D756
:1039500067AB81CF130600643386C702B727002008
:1039600003C587BB9145EFC0FF8613C54400A5B4CE
:10397000411122C4372400200325448A06C619C5F4
:1039800097C0FA1FE780407A2322048AB24022447B
:10399000410182805971A2D4372400208327448AB0
:1039A00086D6A6D2CAD0CECED2CCD6CADAC80545E3
:1039B000638D070C9305F1041305F041EF80513737
:1039C0009305F1041305F041EF809136B7270020ED
:1039D000938747A783C727000347F104B337F00055
:1039E00011C389070327448A3EDE03453700930548
:1039F0004700EFE09F9F0327448A2ADC0D4583455B
:103A000027002EDAEFF06FB52AD81145EFF0EFB4AA
:103A10000324448A2AD665450347A400034BB40017
:103A20003AD4EFF08FB3AA846945EFF00FB32A8937
:103A30007145EFF08FB2AA896D45EFF00FB22A8A77
:103A40007545EFF08FB1AA8A7945EFF00FB1E20426
:103A50006258F2572257B2564256D2551375F50F97
:103A600093FAFA0F137AFA0F93F9F90F1379F90F02
:103A7000E1842ACC56CA52C84EC64AC426C25AC08D
:103A8000930844000545EFB0400DB65026549654B7
:103A90000659F649664AD64A464B6561828001114D
:103AA00022CC06CE26CA8D472E846315F50603C7A1
:103AB0003500B7240020E94703D54500938444A787
:103AC0006316F70083D764006382A706EF60306453
