:040000006F20C008A5
:10000400000000000000000090000020AA02002070
:10001400A9BDF9F560030020000000000000000005
:100024006003002090000020000000000000000099
:10003400900000200000000090000020000000005C
:1000440090000020900000209000002090000020EC
:10005400900000200C080020900000200000000008
:1000640090000020900000209000002090000020CC
:10007400C603002090000020900000209000002083
:1000840090000020900000209000002090000020AC
:1000940001A0B7F707000111944B13078008F33749
:1000A400078093F787083EC20F100000B71700407F
:1000B4001308700523800705930580FA2380B7048D
:1000C4000F10000003C6B7041376F60DA385C7040A
:1000D400238007041246732606800F10000013764F
:1000E400050255CEF336078093F6860836C40F1002
:1000F4000000238007052380B7040F100000B70613
:1001040014007D89558D88C701000100010001009C
:1001140023800704A246F3A606800F10000073375D
:100124000780137787083AC60F100000238007055D
:100134002380B7040F1000000F1000003727004081
:1001440093061005A303D78023800704B247F3A7BF
:1001540007800F10000093078008F3B7078093F718
:1001640087083ECE0F100000B71700401307700534
:100174002380E704130780FA2380E7040F100000AC
:1001840003C7B70413670708A385E704238007049C
:10019400F247F3A707800F100000056182801376F1
:1001A400050459C2733607801376860832C80F10C7
:1001B4000000238007052380B7040F1000003706D2
:1001C4001400130606047D89518D88C701000100BF
:1001D40001000100238007044246732606800F10A5
:1001E400000073370780137787083ACA0F1000009E
:1001F400238007052380B7040F100000A54793F65A
:10020400F60F639EF600B727004013073005A3835B
:10021400E780B717004023800704D2470DBFB727F4
:10022400004013072005E5B7733707801377870865
:100234003ACC0F100000238007052380B7040F1069
:10024400000098471367070C98C723800704E24708
:10025400FDBD0111814601468145114506CE91241B
:1002640093078008F3B7078093F787083EC60F10FB
:100274000000B7170040130770052380E704130735
:1002840080FA2380E7040F10000003C76704136794
:1002940017002383E70423800704B247F3A70780EA
:1002A4000F100000F2400561828041118146014631
:1002B40081451145FD2213078008F337078093F722
:1002C40087083EC40F100000B717004013067005DE
:1002D4002380C704930680FA2380D7040F100000FC
:1002E400FD552396B70223800704A245F3A5058094
:1002F4000F10000073370780137787083AC60F1072
:1003040000002380C7042380D7040F10000003C714
:100314006704136717002383E70423800704B247A5
:10032400F3A707800F10000001A0BD473305F502B5
:1003340001007D1575FD8280411122C426C206C6C6
:10034400AA84014463179400B240224492444101B8
:10035400828005041305803E4204C13F4180DDB71D
:100364009305000273A04580824573901534924032
:100374002242B2424243D2436244F244025592556D
:100384002256B2564257D2576258F25806499649F5
:10039400264AB64A464BD64B664CF64C065D965DED
:1003A400265EB65E465FD65F096173002030411158
:1003B400B7170040985F3AC6945F3247E39CE6FE65
:1003C400324541018280B717004013070003238898
:1003D400E702854723A0F18473002030411106C64B
:1003E400EF00007FF5BF2303048015472303E48057
:1003F40001002302A480828083076480E3CE07FE89
:1004040023030480828083076480E3CE07FE0345D0
:100414004480828083076480E3CE07FE2302A480A5
:100424008280411126C44AC24EC006C61377F50B1A
:10043400AD47AA892E8995446306F70019456537A7
:10044400653F8D444E854537FD59FD14639834014D
:10045400B240A244124982494101828013550901E4
:100464001375F50F453F2209CDB7011126CC06CEF1
:10047400B704080051371545BD37713769372AC6A7
:10048400A53F32459377150089EB13651500137565
:10049400F50FF240E24405618280FD14E9FC014558
:1004A400CDBF397126DC4ADA4ED852D656D45AD248
:1004B4005ED006DE62CE66CCB7E700E07D5783AA45
:1004C400070022C603AA470023A0E71823A2E718BF
:1004D400B7170040130770052380E704130780FA59
:1004E4002380E70483C74704930B75FFB684E207B0
:1004F40093FBFB0F8546AA892E8B32893724004053
:10050400E187015763FA76016308D500894613072A
:1005140000026313D5000157D98F93F7F70FB71C67
:1005240000402382FC0411472303E4801305F00FE9
:100534005D3D094CD135636D7C11B7050700DA9533
:1005440037870700795563F2E504B3879500636E36
:10055400F702370B0800A94733EB65016399F906E5
:1005640089E48144513D26850DA0DA850945553D30
:1005740005090345F9FFFD14050B693D81C4937713
:10058400FB0FFDF7DD3569FD7D55B71700401307F7
:1005940070052380E704130780FA2380E70403C768
:1005A4004704418B2382E704F250B7E700E023A01D
:1005B400571123A24711E25432445259C259325AB4
:1005C400A25A125B825B724CE24C21618280A54785
:1005D4006395F90685691309F00FB3069900B3749E
:1005E4002B01B6941349F9FFB3749900856B3379E1
:1005F4006901416B9387F9FFB3F7270199E363FC22
:10060400340193D94900C147E3E637FF99BF05692F
:10061400C1697D19D9B71305800D63886901130574
:1006240000026384790113051008CA85DD3B353D5A
:1006340021DD4E99B3843441D9B7DA852D45D533BC
:10064400CA94E30099F205097D3BA30FA9FED5BF27
:100654009387F9FF93F7F70F6361FC0C83C71C04BE
:1006640013073008631FF70437070800636BEB04B4
:10067400B3079B00B706100063F5D704334BEB00B8
:1006840089476393F9068980D549E38C04ECDA85BC
:100694000945413B11090327C9FF91472320E48001
:1006A40003076480E34E07FE23033481FD17EDFB4B
:1006B400FD14110B81C49377FB0FE9FF7D3371F5B2
:1006C400E1B5B717004003C75704B707080013770D
:1006D400070219E3B78707007955E378FBEA330784
:1006E4009B00E3FFE7F855B58547E382F9F2DA8525
:1006F4002D45053B9389F4FFE38504E6293393F7FD
:10070400390091EB832604800327090093074900ED
:10071400E39AE6E43E89CE84F1BFB5476396F900D7
:100724001305900BC93135BDB1471305B00AE38BEE
:10073400F9FE99476391F904B7050800B365BB0056
:100744002D45C53181448D4BA1497539639674019A
:10075400832704802320F9008504E39834FF83274A
:10076400048013172B01635507002312F900D5BB2E
:100774002322F900FDB39D476399F90281451305CE
:10078400B0044531BD442320090023220900FD594A
:100794009D3993F77400CA9703C70700FD14398D78
:1007A4002380A700E39634FF6DBBA1476392F9044D
:1007B4006D398144630D0B008D479304C0036308B6
:1007C400FB009304000563048B0193044004137538
:1007D400C507E30895D8194539313939054521311B
:1007E40026850D3909453D314931E31C05D669BBE0
:1007F40091476399F90013056006F536F53E130534
:1008040090090DB7E38F09D4F154A9BB197106C23D
:1008140012C416C61AC81ECA22CC26CE2AD02ED27C
:1008240032D436D63AD83EDA42DC46DECAC0CEC22C
:10083400D2C4D6C6DAC8DECAE2CCE6CEEAD0EED25C
:10084400F2D4F6D6FAD8FEDA938581838841E7009C
:10085400050092402242B2424243D2436244F244EF
:10086400025592552256B2564257D2576258F25800
:1008740006499649264AB64A464BD64B664CF64C30
:10088400065D965D265EB65E465FD65F09617300BF
:100894002030B7E700E09843B706200023A0D7181C
:1008A400758F0F10000001C599C1814711E6B7E7A4
:1008B40000E023A0E7108280B386F50003C8060099
:1008C400B306F500850723800601E317F6FEC5B7D6
:1008D40037E700E01C43B70620002320D718F58F24
:1008E4000F10000019C191C111E637E700E0232081
:1008F400F7108280910503A7C5FF11057D16232EED
:10090400E5FEDDB737E700E01C43B70620002320EF
:10091400D718F58F0F10000001C53307C50011E685
:1009240037E700E02320F71082800505A30FB5FE0A
:10093400E31DE5FEF5B7B7E700E09843B7062000EE
:1009440023A0D718758F0F1000008147B306F50058
:100954008386060099E6B7E600E023A0E6103E850C
:1009640082808507E5B737E700E01C43B70620001F
:100974002320D718F58F0F10000001C599C1014736
:1009840011EA37E700E02320F710054582800507C8
:10099400E309E6FE3308E500B386E50003480800F2
:1009A40083C60600E305D8FE37E700E02320F710EE
:1009B4000145828037E700E01C43B706200023206E
:1009C400D718F58F0F1000001307F6FFBA952A9673
:1009D4006317C50037E700E02320F7108280FD1578
:1009E40003C715000505A30FE5FEDDB737E700E0F3
:1009F4001C43B70620002320D718F58F0F100000E2
:100A040001C53307C50019E637E700E02320F710D6
:100A14000145828005058346F5FFE397B6FEE31B97
:100A2400E5FE37E700E02320F71005458280797161
:100A3400973700009387472322D4804306D626D2D3
:100A44004AD04ECE52CC56CA5AC85EC669C037C9BF
:100A5400C901014B97390000938989201309F9379B
:100A6400173A0000130A8A20973A0000938A8A1AD8
:100A740097340000938444248357240095E35C4412
:100A8400631D0B00173700002320F71E832BC400BF
:100A94002285EF00F02C5E84A9A82326FB00FDB775
:100AA40083A7090082971C443307F5406375F5005A
:100AB400D8401D8F2A976361E9089737000023A364
:100AC40007168355240003450400973000E0E780AF
:100AD40020EB5C405844B9C70C44D040AE97BE8666
:100AE40063E4B70063E4C700B386C74014C4228B31
:100AF4003A8459F0973700009387C7119C4B0947F4
:100B04006373F708F91717370000232DF710B25055
:100B1400225492540259F249624AD24A424BB24B8D
:100B24004561828063170B009737000023AEE712FC
:100B3400B1BF2326EB0099BF03274A021DCF63E10F
:100B4400A7043385A7408347040085E317370000D3
:100B5400034737135917B307A7003E85D44063E40E
:100B6400E70063E4D7003385D74083A70A0163769F
:100B7400F5009737000023A7A70A228B404495BFAE
:100B8400D840BA977DBF9737000023AD070841B717
:100B9400973700009387C7119C4385C3411106C64C
:100BA40082979737000083C7870B89E79737000040
:100BB40023A00710B240410182809737000083C709
:100BC400070A91E79737000023A4070E82808280EA
:100BD400411122C417340000130484061C4006C6C5
:100BE40026C24AC091C782979737000023AA0704F8
:100BF4009737000083C7D725858B17390000130961
:100C0400E92489CF8347790019476312F71097378E
:100C14000000A38F0722F9235C4482971C4491C3EC
:100C24008297973400009384E403984017360000B9
:100C3400034656FE9737000083C7C7FD93961700F7
:100C4400BA9683D60600E5C29737000083C787FCAF
:100C540063E5C70E97370000238E07FA1C40639E96
:100C64000714973700009387A7FF9C4363870714F3
:100C74009737000093874704DC431737000023238A
:100C8400F7FA75339737000083C7F71C6397071289
:100C94009737000083C7171C91CF8347790093F7D8
:100CA400F70F89EB97370000A386071A977001E0C6
:100CB400E780A06197370000938747FBDC53638E7E
:100CC400070E973700009387E7F49C4BFDC78347D3
:100CD400790015476363F70E9737000083C7871CB5
:100CE400918BE1EF9737000083C767F7F9E79040EE
:100CF4009736000083C616F263C7D70C2244B2406D
:100D0400924402494101173300E06700E328834716
:100D140079001D47E314F7F097370000A38A071200
:100D2400D1211C48DDBD850793F7F70F97360000E6
:100D34002382F6EEE3E0C7F001BF86073E978355B2
:100D440007002310070097370000239907F097370F
:100D540000009387A7EE9C4317350000034585EBFD
:100D640013172500BA979C4382979737000083D7BF
:100D7400E7EE173700000347E7E993C7F7FF7D8DD8
:100D84009317170098403E97835707005D8D2310F3
:100D9400A7009737000083C7E7E791C78507173790
:100DA40000002309F7E6173700000347A7E6973743
:100DB400000083C737E6E37FF7E8B2402244924459
:100DC40002494101828013971700329703570700A5
:100DD4006DF7850715B737C700408326C720B707C7
:100DE400FCFFFD17F58F2326F7200100010097373C
:100DF4000000938727E2C84F832787262326D7201E
:100E04006A0593C7F7FF99835D8D8280011122CC17
:100E1400604126CA4AC84EC652C406CEAA841D4A98
:100E2400130965058549BC446364F4000545B9A00C
:100E340003C7D40083474400631A470503C78402E9
:100E44006304F7000040C5B70347540083C7540543
:100E5400E31AF7FE1946CA85130564002936E3131D
:100E640035FF0347C40083C79402E31DF7FC03570F
:100E7400E40083D7A402E317F7FC0145F24062447F
:100E8400D2444249B249224A05618280E31CF7FAFE
:100E94000347540083C75405E316F7FA1946CA8575
:100EA40013056400C934E31F35F9C1BF0111973735
:100EB40000009387270B22CC03A4070C26CA06CE76
:100EC4002AC42EC6854419E40145F2406244D24442
:100ED400056182808347910003471400858B630476
:100EE400F7000044CDB719469305A100130524006B
:100EF4009D3CE31895FE0545C9BF0000EFF05FC9AE
:100F0400730000000000000097320000938222D595
:100F14000383020023800200630F0300F3251034CF
:100F24002EC0970500009385A5FD73901534EF003E
:100F3400204E7300203086DCEF00804DE650828026
:100F4400000017370000130727F01443411122C48F
:100F54009C5E4AC006C6998326C2858B3A8417399B
:100F64000000130929EED1CB930700069CDE173746
:100F74000000034707EE93070008973400009384AA
:100F8400E4EC631BF700832709009C4393F70704F1
:100F940017370000230FF7EA83C7040093F7070409
:100FA4009DC3973700009387A7CB9C4382979737BD
:100FB400000023ABA7EA83C7040093F7F70B1737A6
:100FC40000002305F7E883C7440093F7070495E777
:100FD400854717370000A30DF7E69737000093877E
:100FE40067E99C433707020098C7130700FC97364C
:100FF4000000238FE6E49848F8D318401C5F9183DF
:10100400858B8DC31C5F93E707011CDF97370000B6
:10101400938747E69C4323A20706854717370000BA
:101024002308F7E283270900D8430583058B19C7F2
:10103400D843759BD8C3D843799BD8C3B2402244C4
:101044009244024941018280ED3D730020309317A0
:10105400D50063D30702973700009387A7E19C4329
:101064007D57B8D7973700009387C7BADC4F8507F9
:1010740017370000232EF7BA937785009DCB973757
:10108400000083C7C7DC93E717001737000023006D
:10109400F7DC930700F817370000230BF7DA9737CC
:1010A4000000938767DA98435C57F19B93E7170036
:1010B4005CD7937715008DC79737000083C717D97E
:1010C40093E7170017370000A302F7D897370000FB
:1010D400938787D798435C57F19B93E717005CD7B6
:1010E4009377650095CB9377450017370000130776
:1010F400E7D5CDCB8347070093E7170017370000E8
:101104002306F7D497370000938707D498435C5796
:10111400F19B93E717005CD79317F50063D407029C
:1011240017370000034787EB418B973700009387FD
:1011340067E351C383C7870793E7070217370000A4
:10114400230EF7E89317E50063D7070297370000EB
:1011540083C707D0E207E18763D7070085471737BE
:1011640000002307F7CE973700009387A7D09C434E
:101174003707020098C79317C50063D407021737CF
:1011840000000347B7E5058B97370000938787DD99
:1011940029C383C7970793E7270017370000A30FD6
:1011A400F7E282808347370093E717001737000080
:1011B400A30FF7C881BF03C7870789463D8B630820
:1011C400D70083C787070D47BD8BE39DE7F691479B
:1011D400B5B703C79707118B69D783C7970793E7F9
:1011E400870065BF973700009387C7C89443973734
:1011F40000009387A7C503C70700058B11CB97375A
:101204000000238707C497370000A38307C48280A4
:1012140003C71700058B65F7F85271FF83C75700A2
:10122400DDB717370000130727C2032807008327F9
:1012340088039583858BADEF11C683270803BD838F
:101244002300F6009DC61C43985B4607935767012D
:101254006356070093E707C0C207C18303970600DC
:10126400C207C18709C7BA970947B3C7E7022390E2
:10127400F6008DCD8345150095C99737000083C7C7
:1012840047BD93F7070413879500894585C33A95AD
:10129400834705000547994593F6F7066398E600EA
:1012A400E207E187814563D30700B9452E85828033
:1012B4008545EDBF411126C206C622C497340000FD
:1012C400938444BB3DED9440AE87F8527DFF37F4E0
:1012D40000E03E8597370000238B07B6832704D1AF
:1012E400B285ED9B2328F4D0832704D193E78702AA
:1012F4002328F4D073005010977001E0E78040E495
:1013040097370000938747B49C43B70680009843FF
:10131400558F98C3D857719BD8D797370000A389A6
:1013240007B297370000A38307B29C40094798C3CC
:10133400832704D193E787002328F4D07300501047
:101344000DA08D476315F504973700009387C7AF49
:101354009C43B70680009843558F98C3D857719B18
:10136400D8D7944017370000130747AE83472700A8
:10137400858B89EB83473700858BC1CB973700007A
:10138400238807ACB24022449244410182808547BD
:10139400E319F5FCB7F700E003A707D16D9B23A879
:1013A400E7D003A707D11367870223A8E7D0730008
:1013B400501098408177FD175447F58F5CC70F1084
:1013C40000009840B70702001CC7930700F81736BF
:1013D4000000230FF6A6973700009387E7A69C43E7
:1013E4009C439D83858B639FA700930760197CD3DF
:1013F40054C737F700E0832707D193E787002328F2
:10140400F7D02DBF9307E01BDDB7FC52A5F39DBFBA
:1014140097370000938707A69C438847D847798D60
:1014240009C988C79387018D03A3070063030300D9
:1014340002838280973700009387C7A39843896704
:10144400938707F47CD3973700009387E7A79C43DF
:1014540083A60709139656006358060083A6070956
:1014640013966600634406007453FDF282804111B2
:10147400B7E700E022C480433707200006C6798C12
:1014840023A0E7180F10000011C199E5B7E700E0A9
:1014940023A0871001457DA893073500C207C183A7
:1014A400F19BC207C183130740036369F70217372F
:1014B40000001307A7AA084317370000130787A9DA
:1014C40014436392A602172700001307277A185BB8
:1014D40055DFC207DD8D054502974DBF1737000064
:1014E400130787A7C9BF035765002DEB03574500B2
:1014F4006366F706B306F7402146637CD6020328E9
:101504000500938687001D8FAA9661171726000091
:101514000356A6702392E60023A006012393060037
:1015240014C12312F500130786FF972600002396A3
:10153400E66E2313B5009725000083D5056EB387A7
:10154400F54017270000231AF76CB7E700E023A043
:1015540087102105B240224441018280084195B799
:10156400B7E700E08C433707200023A0E718F98D84
:101574000F10000001E523A0B71082809737000008
:101584009387C79D03A30700973700009387879C21
:1015940083A8070081469A8763F2170D03A8070002
:1015A4006361F50C636FA80A138787006368E50A13
:1015B40003D66700216705076317E60003C7818C1C
:1015C40005072384E18C172500001305A56403D6C1
:1015D400470003576500239307003297420741836E
:1015E400172E0000231BEE62638C67021733000082
:1015F40013038396032303006304F30203D36600F7
:101604006310030283D7460023A0060121073E96F8
:1016140021062392C600972700002390E760B6872F
:101624009843630D1703973600009386E69294421D
:101634006306D7028356670095E283D647000356B4
:1016440047001843A106B2962392D70098C3835744
:101654006500A107172700002311F75CB7E700E036
:1016640019BFBE86C2870DBF032785116304071205
:101674000346E504854663000612411122C406C6EA
:101684008347C5002A8493F7C70F2306F5008345D3
:1016940097000358C7001395850161856370060997
:1016A400635905060345870093F5F507A304B700BE
:1016B40093E527006314D50093E517002306B400CF
:1016C4005C4389075CC3A30AC400032504114C438B
:1016D4000905EFF00F9C8327841103465401D4437A
:1016E40003D7C700B296118FD4C32396E700894766
:1016F400A30DF400034764039727000083C727580A
:101704006377F7048347C40093E707012306F400D3
:101714003DA893E717002306F40075B71376F80F76
:10172400635D05020345870093E527006314D50034
:1017340093E517002306B400A30AC400A30407001A
:101744008547A30DF400832784119C43C5F7B24059
:101754002244814636854101828093E7170023069F
:10176400F400A30AC400A3040700032504114C4396
:1017740042860905EFF0EF91832784110346540153
:10178400D44303D7C700B296118FD4C32396E7007E
:101794008D4745BF854636858280973700009387FD
:1017A400278F9C43411122C406C6858B2A84C5EF2A
:1017B4004165130525F5970002E0E780407D45C5A6
:1017C4008347A5002315F50083270412BDE72320D2
:1017D400A4122322A41285472311F4042320050014
:1017E4008347640154412316F5000347D4002304BE
:1017F400E5000547A304E500172700001307076564
:1018040058531385170215811C437D151375F50F65
:101814009CC25C43DCC21C479CC65C47DCC61C4BB8
:101824009CCA5C4BDCCA1C4F9CCE5C4FDCCE19CDF1
:101834009386060213070702C1BF8327441288C395
:10184400835724042322A412850779B7972700001D
:1018540083D7C7718507172700002319F770B24093
:101864002244410182808347C400230904000545C2
:1018740093C747002306F400DDB78347850193F738
:10188400E70FD5EF83479501DDEB0346250183463A
:10189400C50009CA83456503172700000347373E7F
:1018A40063E7E50013F7060141CF014709C6C18A82
:1018B4000357651C81C68356A51C369751C313076D
:1018C400C712172500000355A53FB335A7023746B5
:1018D4000F00411113060624814622C426C206C6FF
:1018E4007D543305A702973002E0E78040EE972746
:1018F400000083C71739B384A70097270000938794
:10190400676603A787098327070963F387003E8473
:10191400184375FB97270000938787349C4382976D
:1019240081476364A400B307A440B2402244B3B720
:10193400970093C7170092443E85410182808147F6
:101944003E858280972700009387C75298433C5B6B
:10195400FDFF010001008280011122CC4AC84EC65D
:1019640006CE26CA52C456C25AC00347B50085479C
:101974002A842E89832905096311F72683570508CC
:10198400835AC503172A0000130A0A33172B0000D1
:10199400035B0B3363FB5721834605016397E62002
:1019A40003278511631307200327450A631F071EB6
:1019B4008346F5001D47639AE61E03471401B38A64
:1019C400FA4013950A01418121CF9377170099CBEF
:1019D4008357E40583560404958F63D5A7001395B4
:1019E400070141819377270099CB8357E4128356EB
:1019F4000404958F63D5A70013950701418193775C
:101A0400070199CB8357C41483560404958F63D577
:101A1400A700139507014181218B11E311E10545CD
:101A24000357A4039307204E832444093305A702D4
:101A340037460F008146130606243305F50297271F
:101A4400000083C70724B3549502B335AB02BE9498
:101A5400C204C180231394083305AB02973002E01B
:101A6400E780E0D6B307350133B5A7002E953E874E
:101A740083264A0019E163E4D7003387D740B3844F
:101A84006403B7460F009387F62393860624232026
:101A9400E900A697B3D7D702D6976362F7101D8FD4
:101AA4002320E900972900009389891B83A7090053
:101AB40083240900829763E5A4123385A440635408
:101AC400050C83A709008297032709006361E512C7
:101AD400198D8357E403172700000357671E8E07E9
:101AE400B387E7021307003293870719B3D7E702D6
:101AF40063E7A710374A0F00130BFA23972A000055
:101B0400938A8A1B130A0A24835704048507231023
:101B1400F4048347041499E322855922228597F01B
:101B240001E0E780403A75E9832604098327C40865
:101B340003A74A00B6973E8563E4D70063E4E70051
:101B44003385E7408347F401835464082328A408B9
:101B54008507A30FF4009727000083D76716B38483
:101B6400F402DA94B3D444036368950CB304954047
:101B740083A7090023209900829763E3A40C33858B
:101B8400A440E34305F89727000083C7970F63E752
:101B9400A7089727000023A78746014541A083266D
:101BA4004A00B387F6403E97E5BD8354640837473F
:101BB4000F009307F723B3846403BE9493070724A9
:101BC400B3D7F40263E7F900B387F9402320F9009F
:101BD400D1BD03274A00BA99C5BF23A03501D9B5A1
:101BE400972700009387470DDC43BE94F9B59727E8
:101BF40000009387670CDC43998F3E95D9BDA145BE
:101C0400228597F001E0E780E024A305A40297274A
:101C140000009387A7059C5B81EF7D55F2406244E9
:101C2400D2444249B249224A924A024B0561828017
:101C3400894515458297D5B7B3049740AA940DBF3B
:101C440083A74A00BE9425BF39C901116C0022CC78
:101C540006CE2A8411331DCDFD576302F502B24727
:101C64009725000083C5F50163EFB700034594028F
:101C7400B385B7402EC6972000E0E78000E8F24025
:101C8400624405618280172700001307E702584366
:101C9400BA97E9BF970002E0E78060E0CDB78280A1
:101CA400797126D206D622D44AD04ECE52CC56CA08
:101CB4005AC85EC68347550303447513AA843E94E9
:101CC4001374F40F9307400263F687001304B4FD02
:101CD4001374F40F03AA841383AAC413A38B84126A
:101CE40022865285D685973002E0E780C0A8058910
:101CF40015E503CBD41201498149337B6403930B6B
:101D040050024A865285D685973002E0E780A0A625
:101D1400058915C5639169031374F90F238B841224
:101D2400B250225492540259F249624AD24A424B66
:101D3400B24B456182808509E20993D9894105093D
:101D4400E31179FDE1BF8327850903560504797101
:101D540093D60701BD8EC206C182358E13577640D5
:101D640093575640898B058B5D8F93573640918BE3
:101D74005D8F93571640A18B5D8F93171600C18B0F
:101D84005D8F9317360093F707025D8F9317560004
:101D94009355860093F707041E065D8F1376F60F9E
:101DA400518F93D7554013D63540118A898BD18FE3
:101DB40013D67540D18F13D61540218AD18F13962F
:101DC4001500418AD18F1396350013760602D18F00
:101DD40013965500137606049E05D18F93F5F50FDF
:101DE400CD8FA20745465D8F3307C70222D42A84CC
:101DF40026D252CC56CA032A8413832AC4135AC83F
:101E040006D6369742074183935777401355574078
:101E14000989858BC98F135537401189C98F13558B
:101E240017402189C98F131517004189C98F1315CC
:101E3400370013750502C98F131557009355870092
:101E4400137505041E07C98F1377F70FD98F13D5A0
:101E5400354013D755401189098B498F13D57540E7
:101E6400498F13D515402189498F13951500418950
:101E7400498F1395350013750502498F1395550045
:101E8400137505049E05498F93F5F50F4D8F2207B1
:101E9400D98FB387C7024AD04ECE5EC662C4B69706
:101EA400C207C18313D7774013D557400989058BDF
:101EB400498F13D537401189498F13D5174021898C
:101EC400498F139517004189498F1395370013756E
:101ED4000502498F1395570093D5870013750504A0
:101EE4009E07498F93F7F70FD98F13D5354013D732
:101EF40055401189098B498F13D57540498F13D5E6
:101F040015402189498F139515004189498F1395EF
:101F1400350013750502498F139555001375050493
:101F24009E05498F93F5F50F4D8F2207D98FB387FF
:101F3400C702130650025285D685B697BD8E939478
:101F44000601C18033F6C402137BF60F973002E01A
:101F5400E780608205890DED8347D41201498149E8
:101F6400B3849702130C5002C1804A865285D685E9
:101F7400973002E0E78020800589937BF90F11C533
:101F840063863403850993F9F90F0509E31F89FD75
:101F9400230B6413B250225492540259F249624AF8
:101FA400D24A424BB24B224C456182805E8BCDB704
:101FB4000111972700009387E7FA22CC03A4870C2A
:101FC40026CA4AC84EC606CEAA84130925008549E6
:101FD40015C083C7140003473400858B6304F700DE
:101FE400405CFDB71946930544004A85EFE0BF976E
:101FF400E31835FF2285F2406244D2444249B24993
:10200400056182804111972700009387A7F522C4B8
:1020140003A4870C26C24AC006C6930425000549BA
:1020240001E82285B240224492440249410182805F
:10203400A6851305A402972002E0E780C02DE302E1
:1020440025FF405CF1BF411197270000938787F17A
:1020540022C403A4870C26C24AC006C693042500E2
:10206400054901E82285B2402244924402494101D3
:102074008280A6851305A401972002E0E780A029A9
:08208400E30225FF405CF1BFFF
:10208C009711002093814197174100201301C176CD
:10209C001305400097E5FF1F938505F617060020F2
:1020AC00130606FE63FAC5008322050023A0550023
:1020BC0011059105E3EAC5FE175502001305458588
:1020CC00970500209385C5FB1386818363FAC500B1
:1020DC008322050023A0550011059105E3EAC5FEF6
:1020EC001385818397250020938545FB6377B50085
:1020FC00232005001105E36DB5FEFD42739002BC73
:10210C008D4273904280930280087390023097E264
:10211C00FF1F938262EE93E232007390523097125B
:10212C0000009382622E73901234730020303D4372
:10213C002A876373C3029377F700BDEFADE59376FF
:10214C0006FF3D8ABA960CC34CC30CC74CC741075B
:10215C00E36BD7FE11E28280B306C3408A06970276
:10216C00000096966780A6002307B700A306B70069
:10217C002306B700A305B7002305B700A304B700D7
:10218C002304B700A303B7002303B700A302B700CF
:10219C002302B700A301B7002301B700A300B700C7
:1021AC002300B700828093F5F50F93968500D58DAB
:1021BC0093960501D58D61B7939627009702000081
:1021CC0096968682E78086FA9680C1171D8F3E967A
:1021DC00E374C3F8A5B7B717004003C777051377A7
:1021EC00E70FA38BE704130700F8A38DE7043D4723
:1021FC00238CE70413075003A38CE70403C7A7053C
:10220C001377D70F238DE704828041112A83014E67
:10221C00930E407E130F0019930F400663E56E1268
:10222C009308001913034006B3781503854E0D4F20
:10223C00A14F337365020D891335150063EFBE1280
:10224C001308F6FF794672984208135808013307B1
:10225C00C70213D61700BE0732976146B3F6C60203
:10226C0013068070B386C6023697A166F58F4207B7
:10227C005D8FB716004083C7F60293F70708A303D8
:10228C00F1000346710083C7F60293F70708E39445
:10229C00C7FE83477100B716004093F7F70F6388AA
:1022AC00071293078008F3B7078093F787083EC49B
:1022BC000F100000B7170040930670052380D70459
:1022CC00930680FA2380D7040F10000023AA07037B
:1022DC0083C6170393E60608A388D7022380070456
:1022EC00A247F3A707800F1000001166B717004034
:1022FC007D16D45BC85F93854703A98EF18EF5FAE2
:10230C0093068008F3B6068093F6860836C60F103F
:10231C000000930670052380D704930680FA23806F
:10232C00D7040F10000098C103C7170313670704E5
:10233C00A388E70223800704B247F3A707800F1096
:10234C000000410182807D133368E3039308E0169B
:10235C00630E08003368F3039308D0166308080073
:10236C009378330093B818009388D81633081E015D
:10237C00131E0801135E0E0155B56393E503054862
:10238C00638608000148630303002A887108729869
:10239C00FD15131E0801C205135E0E01C18179BD26
:1023AC0013F8150063F4BF007908D5B7133818007B
:1023BC00E5BF83C7F60293F70708A303F1000346B2
:1023CC00710083C7F60293F70708E394C7FE8347AF
:1023DC00710093F7F70FF1DFE9B5914763EEB702A0
:1023EC00174702001307C7AC8A05BA959C41BA97E8
:1023FC008287B717004003A7470B1345F5FF698F7A
:10240C0023AAE70A03A7070B698F23A8E70A03A7E8
:10241C00070A798D23A0A70A8280B717004083A6EC
:10242C00470B1347F5FFF98E23AAD70A83A6070B90
:10243C00558D23A8A70A83A6070A758F23A0E70A40
:10244C008280B717004003A7470B498F23AAE70ADE
:10245C0003A7070B1345F5FF45BFB717004083A62D
:10246C00470B1347F5FF758F23AAE70A03A7070A43
:10247C00598D4DB7B717004003A7470B498FEDB7E0
:10248C00B71700408847420541819377050491EBCB
:10249C009377F5013755E801130505803345F502AF
:1024AC0082809377050C130700046397E7009377FA
:1024BC00F50137459C1CCDB72165130505D08280ED
:1024CC00B7F700E08847CC47828081473737004018
:1024DC00A14663C4C700328582800345B740E38EB2
:1024EC00A6FE3385F5000345050085072304A740A8
:1024FC00CDB797070020938727D09C431727002040
:10250C001307C7B93E95636EE50017470020130704
:10251C00A70E6368A70017070020232FA7CC3E85C2
:10252C008280FD57EDBF411122C406C62A84893F23
:10253C002947B307E502B2408D83B3D78702224403
:10254C009507B3D7E70237370040C207C18323167C
:10255C00F74041018280716541111305052006C6C3
:10256C00D937B7370040130770F82381E7400D4780
:10257C00A381E74013070004A380E74005472387A6
:10258C00E740B24041018280411193962500AA8513
:10259C002D4506C697E0FF1FE78020F0B2400145AD
:1025AC0041018280011122CC06CE3714004026CA8C
:1025BC004AC84EC652C483447405034AB4058349C1
:1025CC0084050349940501398347A40593F4F40F5A
:1025DC00137AFA0F93E71700230DF40493F9F90F0C
:1025EC001379F90FB717004003C7A705058B6DFFCB
:1025FC0003D5C705A38D4705238C3705A38C270569
:10260C00A38B9704F2406244D2444249B249224A15
:10261C000561828001119397050122CC06CEC187FA
:10262C002E8463DD0700EF00D07219C1EF005066F5
:10263C002165218DF24062440561828093F715007B
:10264C0013C51500E5FB93F7250013C52500FDF315
:10265C009397250163D30706EF60812AB7170040D3
:10266C0003C7E702930680081377C70F1367170099
:10267C00F3B6068093F6860836C60F100000930654
:10268C0070052380D704930680FA2380D7040F109B
:10269C0000002387E70223800704B247F3A70780D3
:1026AC000F10000037F60200130606E0896503C51B
:1026BC00C183EF10804B0965ADBF939715010145A0
:1026CC00E3DA07F61745020013054584EF20A265EF
:1026DC0013060064916503C5C183EF1000491165B1
:1026EC0089BF2D71232A9110FD74E98C232C811044
:1026FC0023282111232631112A84AE89328993068D
:10270C0000100A86A6852D45232E111097E0FF1F79
:10271C00E780A0D81315440151810A0513962900AE
:10272C00CA850A9597E0FF1FE7802016A685856667
:10273C000146254597E0FF1FE78020D60A86A6852F
:10274C0093060010294597E0FF1FE78000D58320F2
:10275C00C1110324811183244111032901118329FF
:10276C00C11015618280B7F7070003C7070141113B
:10277C0006C622C426C24AC0A547631AF70095377D
:10278C00B240224492440249014541018280139493
:10279C002500AA843289A286AA850146254597E0A0
:1027AC00FF1FE78080CFA2864A86A685294597E041
:1027BC00FF1FE78080CEE9B71D71494697350200AF
:1027CC009385457017450200130545C786CE97E0E3
:1027DC00FF1FE780C01801E9173502001305C56F0C
:1027EC00EF20625401A0B7F600E0795798CAFD5764
:1027FC00DCCA0567B7E700E023A0E7101306F00278
:10280C0090C223A0E7180F10000017E7FF1F130753
:10281C00276F23ACE1824157A38AE74013060004DB
:10282C008145080897E0FF1FE780400D97070020BF
:10283C00938787B83EC8896793870780231AF1006E
:10284C009D673ECCB7070105938707103ECEED4739
:10285C002310F10285472301F102970700009387AB
:10286C00E7D2BEC297070000938727F0BEC48567E6
:10287C00938757D12312F102B7F507009707000091
:10288C00938747C43ED88146970700009387C7D1EA
:10289C003000E10519453EDC97E0FF1FE780E0BF03
:1028AC0018088147994630003E9603460600850776
:1028BC000507A30BC700E398D7FEC24791C7035780
:1028CC00410185676373F70001A08307410263D759
:1028DC00070493078008F3B7078093F787083EC473
:1028EC000F100000B7170040130770052380E70492
:1028FC00130780FA2380E7040F100000B847B706CF
:10290C00100013670718B8C79853558F98D32380B6
:10291C000704A247F3A707800F1000000808EF1068
:10292C00700FAA8501C9173502001305255CEF202D
:10293C00E22D01A0F64025618280411117050000AF
:10294C00130585CD06C622C4EF1010091384C1836C
:10295C002300A4001928034504002244B2401306A6
:10296C000032896541016F104020797106D613073A
:10297C008008F337078093F787083EC20F100000DA
:10298C00B7170040930570052380B704130680FA2F
:10299C002380C7040F10000083C6F70293F6D60FEE
:1029AC00A387D702238007049246F3A606800F1054
:1029BC00000073370780137787083AC40F100000A4
:1029CC002380B7042380C7040F10000003C7F7024D
:1029DC0013675700A387E70223800704A247F3A7D6
:1029EC0007800F1000008147014781460546854549
:1029FC001305407EEFF07F8168005146814597E0DA
:102A0C00FF1FE780A0EFB707C0A83EC8B78732000A
:102A1C003ECA680097E7FF1F9387E7983EC6EF1002
:102A2C005033B2504561828082802A86B305B04013
:102A3C0017450200130545806F20421D011122CC61
:102A4C0036C606CE2E84EF00D053B24637460F0062
:102A5C00130606243376C50291CAB28517350200D7
:102A6C001305857C32C6EF20621A324622856244F9
:102A7C00F240814505616FA0517A81E9AA8517352D
:102A8C0002001305656C6F2062180547639EE50014
:102A9C00AA85173502001305A56D09C61735020066
:102AAC001305456F6F20821609476399E5000DE603
:102ABC00AA85173502001305E56FEDB70D47639D29
:102ACC00E500AA85173502001305057161DE17357F
:102ADC0002001305E57245BF828039711397050119
:102AEC0026DA06DE22DC4AD84ED652D456D241879C
:102AFC00AE8463570720EF00D0252A84630C05466B
:102B0C00034705009307000B6314F7468357250012
:102B1C0003D7E1921389C1926307F73A03D7419423
:102B2C006305F74603D7A1956314F744894A89498D
:102B3C0069AE5C44173502001305454483C5070094
:102B4C0019A94D476393E7029305A00517350200B9
:102B5C001305054509A1C9466316D7028345C40070
:102B6C001735020013058542FDA66D47639CE700EF
:102B7C005C44173502001305A54383C50700EF20FD
:102B8C00E208D5A65947B389E902CA9903C7B90027
:102B9C00630B073C63990A3C03C771938546631822
:102BAC00D7081D47639CE7028357840085CB5C44A0
:102BBC00173502001305054183C5170003C707002D
:102BCC00A205D98D239DB19203C6370083C7270078
:102BDC0022065D8E239EC192EF2042038347440060
:102BEC001D476394E70403471400E947639DE736E8
:102BFC0083D7A193638907362314F1008357090106
:102C0C000947A38BE1922315F100F97793872710DD
:102C1C002316F100FD5703C651842C0003D5E19215
:102C2C002307F100EF50F02E3DAE0547C1B78946A2
:102C3C006311D70825476390E7048357840085CF39
:102C4C00584493050002130600648347170003479A
:102C5C00070003C5C192A207D98F239FF192238C41
:102C6C000192EF00907083D5E193173502001305A4
:102C7C002538EF10B2798347440025476399E70262
:102C8C0003471400E9476390E72E8D47A38BF1921D
:102C9C008357E9002314F100835709012315F10030
:102CAC00930720202316F10093079002ADB7054738
:102CBC00D9BF8D466319D72A25476390E7048357FC
:102CCC00840085CF58449305001013060064834795
:102CDC0017000347070003C5C192A207D98F2390A1
:102CEC00F194238C0192EF00506883D50194173531
:102CFC00020013056532EF107271A38B0192A5A42B
:102D0C0013F7150005C317F6FF1F1306663997F561
:102D1C00FF1F9385253803C55184EF90112813C5E7
:102D2C00140099AC13F7050801CB41657D15EFB084
:102D3C00514413C5040889A4AA8703C7C19201454D
:102D4C00631CF72293F7850095C781572314F10074
:102D5C00239D019223AE0192854783C65184094677
:102D6C002C0003D5E192A38BF192EF50D03813C510
:102D7C00840019A493F70502CDC383C78193A5E7FB
:102D8C0003C7418083D7E19303D5E1922DC7231468
:102D9C00F1000147854781460546C94523180100C6
:102DAC002315F100EF50F01E2AC615CD9307A00590
:102DBC002300F50003C651842C0003D5E192EF509B
:102DCC00D0150DE58547238CF19283C7418093B7CD
:102DDC001700130600649305000203C5C1922382F9
:102DEC00F180EF00905813C5040279A2C945280060
:102DFC00EF503061CDBF03C651842C002314F10079
:102E0C00EF50F0106DF18547238CF19283C7418010
:102E1C0093B717002382F180F9B793F7050191CF8F
:102E2C0013078025814613064006D14503D5E19250
:102E3C00EFB0B13313C5040181A293F70510ADC3F4
:102E4C0083C78193B1E79387C19283D74701014729
:102E5C0081462314F10009468947C94503D5E192FF
:102E6C00231801002315F100EF50B0122AC60DC132
:102E7C00054423008500B24703C651842C00A3806F
:102E8C00070003D5E192EF50500911E5238C819294
:102E9C0013C50410D5A0C9452800EF509056CDBFDE
:102EAC0093F70504F1CB03D5E192EFB0D12B056676
:102EBC00130606969305000403C5C192EF00F04A71
:102ECC0013C5040455A8814A8149D947B387F9022F
:102EDC00094783454400130A8400CA9783C74700F7
:102EEC006395E7080D476381E50205476394E502A6
:102EFC0003478400631EF7028345C40017350200A4
:102F0C0013058504EF109250D947B387F902CA977D
:102F1C0023860700034744009307F007631AF70062
:102F2C00835584001735020013058503EF10124EEC
:102F3C00834744002D47E38EE7BE0547E393E7C084
:102F4C0003478400A946E318D7C08345C40017354E
:102F5C0002001305A501EF10724BD947B389F90292
:102F6C004E9923060900834544005285EF50704961
:102F7C002285392B2165258DF2506254D254425949
:102F8C00B259225A925A21618280854A854935BFAD
:102F9C008347250035476366F7361737020013075A
:102FAC0027F78A07BA979C43011122CC06CE26CA72
:102FBC004AC84EC652C456C2BA972A84828703C7DF
:102FCC004184A54763E6E732034945009309550060
:102FDC0081441384019703C5418463E5A4060E055F
:102FEC000905CE852295194697E0FF1FE780E089F9
:102FFC0083C5418493973500850593F5F50FA2970A
:10300C001386F5FFA38027010E0622962382B18436
:10301C0062448348760003486600834756000347A2
:10302C00460083463600F240D2444249B249224A15
:10303C00924A034626001735020013056502056106
:10304C006F10D23C9395340089051946A2954E8594
:10305C0097E0FF1FE780A090631C0528850493F47C
:10306C00F40F95BF01441389019797F9FF1F9389BA
:10307C00290117FAFF1F130A0A0197FAFF1F938AF7
:10308C00EA0083C74184637FF402931434008904FB
:10309C00CA941946A6854E8597E0FF1FE780208CC1
:1030AC0015E11946A685528597E0FF1FE780208B16
:1030BC0011E91946A685568597E0FF1FE780208AFF
:1030CC006304052283C74184639D87021735020080
:1030DC00130585FBEF103245014685450D452382CE
:1030EC000184EF90817417350200130565F6624474
:1030FC00F240D2444249B249224A924A05616F10C9
:10310C00924217350200130565F9EF10D2419387EF
:10311C0001970E04930624003E9403461400BE96B9
:10312C0081450145EF90016D0566130606C89305B0
:10313C00000803C55184EF00502317350200130516
:10314C00E5F675B79305000803C55184EF00504CA4
:10315C00834414006394040EC16703D7E192F917FA
:10316C008355A4006303F70203D74194630EF70061
:10317C0003D7A1956302F70C2E85EFB0817F17352D
:10318C0002001305A5F3A5B78544D9473387F4028C
:10319C009387C19217350200130585F3BA97094737
:1031AC002382E7000356E4002391B700EF101226A8
:1031BC009DE8854713060064A14503C5C192238C85
:1031CC00F1920564EF00701A130604C8C14503C5DB
:1031DC00C192EF009019130604969305000403C5E1
:1031EC00C192EF009018173502001305A5EFEF10F0
:1031FC009233C16703D7E192F917630AF70003D73B
:10320C0041946306F70003D7A1956313F70E1735A6
:10321C0002001305E5E3EF101231238201846244AE
:10322C00F240D2444249B249224A924A014685456B
:10323C000D4505616F90615F894481BFA685173587
:10324C000200130525EBEF10721CD1B78357450014
:10325C0003D7E1928144630DF70003D74194854471
:10326C006308F70003D7A1958D446313F7008944D5
:10327C00D947B387F4029384C1920346640017358F
:10328C0002001305E5E8BE9483D52400EF10121854
:10329C0003C50400F9572391F40023820400A3858D
:1032AC000400239904002386040093050004238260
:1032BC000184EF00F03517350200130565D9EF10C6
:1032CC009226B1BF62440356650083554500F24017
:1032DC00D2444249B249224A924A17350200130598
:1032EC0025E505616F10921205041374F40F51BBA0
:1032FC00F2406244D2444249B249224A924A0561A0
:10330C0082808280797117F5FFFF1305457D06D603
:10331C0022D426D24AD04ECEEF00106C8565A38203
:10332C00A184938505960945EF209049D1451D450B
:10333C00EF201049930540062145EF207048930576
:10334C0040063545EF20D04785470D477000914525
:10335C001305F0402304F100A304F1002305E10060
:10336C00A305F10002C6EFA0B1123000854513058C
:10337C008040EFA0F1111306910085451305904094
:10338C00EFA011111306A10085451305A040EFA075
:10339C0031101306B10085451305D040EFA0510F35
:1033AC001384C1929384E19697F9FFFF9389297353
:1033BC0079594E85EF0050622300A400231124019B
:1033CC0023020400A30504002306040023190400AF
:1033DC002317040023180400231A04005904E31AC9
:1033EC0094FCEF60203303C55184EF50105F85458A
:1033FC0003C55184B52BB250225492540259F24950
:10340C004561828041111305800406C697D0FF1FC9
:10341C00E780A0C7371700408327870A8D4513051F
:10342C00002093E707202324F70AEFE01FFBEFF0BF
:10343C008F921735020013056500EF10D20EEFF0D6
:10344C00AFB7EFF08FCFEFB001556D3D97D0FF1FA9
:10345C00E78040F823AC05FE1C4191E70100010018
:10346C000CC18280BA8703A787FF6DFF23ACB7FE20
:10347C008280184183A785FF6319B7001CC1FD57D3
:10348C0023AC05FE238FF5FE8280232CF6FEC5BFF0
:10349C00411122C437E400E026C204403707200063
:1034AC0006C6F98C2320E4180F10000009E923202C
:1034BC0094101545B2402244924441018280034746
:1034CC00E5FF9307F00F6306F700232094101145D6
:1034DC00D5B797E0FF1FE780200801452320941003
:1034EC00D1BF411126C2B7E400E04AC003A90400D1
:1034FC00B707200006C622C43379F90023A0F418BC
:10350C000F10000009E923A02411B2402244924478
:10351C000249410182809565938505D0C98D2A8425
:10352C002105C2054205C181418197E0FF1FE7805B
:10353C0080F301CDFD5723200500231285002303C2
:10354C00F50023A024112105C9B723A0241101459E
:10355C006DBF0111B7E700E04AC803A907004EC6CA
:10356C003707200006CE22CC26CAAA893379E90077
:10357C0023A0E7180F100000970700209387876897
:10358C0080438144014619E499E8A1654E85EF001A
:10359C00300805A08347E4FF6399370385CCA685E3
:1035AC001705002013050566E93565D0A1654E8524
:1035BC00C126F2406244B7E700E023A0271126851C
:1035CC004249D244B2490561828091E022860324AB
:1035DC0084FF55BFA284E5BF41114AC037E900E022
:1035EC0022C4032409003707200006C626C2798CA2
:1035FC002320E9180F10000089E5232089101545B8
:10360C0015A0AA849707002083C717602E8563F541
:10361C00F400894763EE9700A53DB7E700E023A0CF
:10362C0087100D45B24022449244024941018280E8
:10363C0083A785FF99E703C7E5FF9307F00F63089E
:10364C00F700B935B7E700E023A087104DBF238FF3
:10365C0095FE170500201305E55AED3BA16526855F
:10366C00012E01452320891075BF9707002023AB3D
:10367C0007588280970700209387475E9C4399E305
:10368C003E85828003D727006316B70003C7070067
:10369C00E308A7FEDC47E5B7A5C1011106CE22CC95
:1036AC0026CA8147C14633D7F540058B29C312057D
:1036BC003E9531473305E502170700201307475E97
:1036CC00044305443314F4002EC642044180AA94EA
:1036DC009C40C8408297B24523A0040023A204005A
:1036EC00A18DF2406244D2442E850561828085070B
:1036FC00E39BD7FA0144EDB72E858280C9C179715D
:10370C0022D406D626D24AD04ECE01444147B3D756
:10371C008540858BA5C31205314722953305E502FB
:10372C00970700209387C75703A907008544B394D4
:10373C008400C204C180BE892A990327090011C7DD
:10374C00032549002EC60297B24531473304E402E3
:10375C0083A709003E941C4489E7232009002322F7
:10376C000900B2502254A58D02599254F2492E856B
:10377C00456182800504E31CE4F88144DDB72E85A5
:10378C0082804111B7E700E022C480433707200054
:10379C0006C626C2798C23A0E7180F1000009707E5
:1037AC0000209387E74B9C539384818099C7829721
:1037BC009C403E9523A4A18039A0970700209387B5
:1037CC0067499C43EDF78840B74703009387D73F81
:1037DC003305F502B7A72600938737ECB240924425
:1037EC003E9523A4A180B7E700E023A087102244D4
:1037FC00410182800111B7E700E022CC80434AC826
:10380C003707200006CE26CA2A892E86798C23A05B
:10381C00E7180F100000131506019305F004418101
:10382C0032C697E0FF1FE78000C4AA8419C5324650
:10383C00CA8597D0FF1FE7804005B7E700E023A0BB
:10384C008710F240624426854249D2440561828049
:10385C007971B7E700E022D480433708200006D600
:10386C0026D24AD04ECE52CC56CA5AC85EC662C474
:10387C003374040123A007190F10000005E123A0E5
:10388C0087100945B250225492540259F249624AA7
:10389C00D24A424BB24B224C4561828097070020A2
:1038AC009387473B9C43BA8A368AB28B2E8BAA8964
:1038BC008297970700209387A73E98433E898144BF
:1038CC00B146C147338CD40233068701104241EA1A
:1038DC00C165938505F0414597E0FF1FE780A0B8CF
:1038EC0005E1970700209387A7379C5B81C781452B
:1038FC0011458297B7E700E023A087102D4559B7F3
:10390C009707002093878735984331E79707002066
:10391C0023A6A73423000500832709000547331786
:10392C00970023260500232475012311E50023228B
:10393C005501E29723A0370123A2670123A4570165
:10394C0063040A0023009A00B7E700E023A0871065
:10395C0001450DBF3E875C47F5FF48C765BF850431
:10396C00E392F4F6B7E700E023A08710214519BFD6
:10397C00B7E700E09843B706200023A0D718758F4F
:10398C000F1000009706002083C616286373D5021B
:10399C00170600201306462C931615000842369580
:1039AC0083560500D58D2310B50023A0E7100145E3
:1039BC00828023A0E7100D458280B7E700E0984392
:1039CC00B706200023A0D718758F0F10000097069C
:1039DC00002083C676236375D502170600201306D4
:1039EC00A62793161500084293C5F5FF3695835606
:1039FC000500F58D2310B50023A0E710014582804A
:103A0C0023A0E7100D458280011137E700E026CA9C
:103A1C000443B706200006CE22CC4AC84EC652C478
:103A2C00F58C2320D7180F100000130705FF137710
:103A3C00F70FFD4763E5E70AB146B306D5029707D2
:103A4C0000209387E725984336971C43C9CB135A1C
:103A5C00450005443D893315A4001314050141802C
:103A6C002E895285A2853931AA8929CDA285528504
:103A7C00A937970700209387E71D9C4382979707E8
:103A8C00002083D72723338727032A8481461306F4
:103A9C000064B3B7270313050732B335E500BE95B1
:103AAC00EF00F251B307850097060020938606209D
:103ABC003E87D44263E4A70063E4D7003387D74042
:103ACC0023A4E900B7E700E023A097100145F240DA
:103ADC006244D2444249B249224A05618280B7E726
:103AEC0000E023A097100945DDB70111B7E700E00E
:103AFC0026CA84433707200006CE22CC4AC84EC6BD
:103B0C00F98C23A0E7180F100000BD4763E9A70448
:103B1C0031473307E50297070020938767189C43CA
:103B2C00BA979C438DCF05443314A40042044180C2
:103B3C002E890145A2853D3EAA8911C5A285014564
:103B4C00AD3D23A42901B7E700E023A09710014560
:103B5C00F2406244D2444249B24905618280B7E7DF
:103B6C0000E023A097100945E5B779714AD037E9F1
:103B7C0000E026D283240900B707200006D622D401
:103B8C004ECE52CC56CA5AC85EC6FD8C2320F918AC
:103B9C000F1000009707002083C71707637AF50002
:103BAC00970700209387070B83AB070063970B00E5
:103BBC00B7E700E023A09710A9A0170B0020130B68
:103BCC00EB0E832A4B00B74736FE938707C82E8A25
:103BDC009705002083D5050EBE9AB387C5022A84AB
:103BEC00B2898146B3B5C50213850732B337F500E8
:103BFC0013060064BE95EF00923C63F0AA022320EA
:103C0C0099100145B250225492540259F249624A19
:103C1C00D24A424BB24B45618280829B9705002071
:103C2C0083D54509B38735032A8913060064814679
:103C3C00B3B5350313850732B337F500BE95EF00E6
:103C4C001238B30725013E8903274B0063E4A70014
:103C5C0063E4E7003389E740D2852285213C09C91A
:103C6C0023242501B7E700E023A09710054559BF91
:103C7C00936504F0C205C181414597D0FF1FE780D1
:103C8C00807E19E997070020938787FD9C5B8DD375
:103C9C00A2851145829729BF97070020938707FCBF
:103CAC009C4385E79707002023AAA7FA854723267C
:103CBC000500232425012311450123008500A300C1
:103CCC00F5002322050079BFBA87D84775FFC8C70E
:103CDC00F1BF7971B7E700E026D2844337072000A3
:103CEC0006D622D44AD04ECE52CC56CA5AC85EC63C
:103CFC0062C466C26AC0F98C23A0E7180F100000DA
:103D0C003DC14144B689B28A2E8A2A89B14C170B1F
:103D1C000020130BEBF8054D130C0003B30B9403AD
:103D2C0003270B005E971C43A5E39375F400B315B2
:103D3C00BD0013554440C2055686C1811375F50F5D
:103D4C002D3539C183270B00DE9723A0270123A231
:103D5C0047016384090023808900B7E700E023A0B2
:103D6C009710014521A023A097100945B250225469
:103D7C0092540259F249624AD24A424BB24B224CFB
:103D8C00924C024D456182800504E31984F9B7E732
:103D9C0000E023A097102145D1BF0111B7E700E047
:103DAC0026CA844322CC4AC84EC63707200006CE0A
:103DBC002A84AE893289F98C23A0E7180F100000F1
:103DCC006D332285CE85EFF0FF8A2A8405C59705D1
:103DDC00002083D525EEB3872503130600648146A6
:103DEC00B3B5250313850732B337F500BE95EF0045
:103DFC00121D48C013351400F2406244B7E700E0CE
:103E0C0023A097104249D244B2490E050561828025
:103E1C000111B7E700E04AC803A9070022CC4EC63F
:103E2C003707200006CE26CAAA892E843379E900EA
:103E3C0023A0E7180F100000EFF0DF83AA8419C14C
:103E4C0023110500A2854E858D3E9707002083C760
:103E5C00A7DB639B37019707002083D767DF5D8C57
:103E6C0097070020239687DEB7E700E023A02711F1
:103E7C00014591E01945F2406244D2444249B249AD
:103E8C000561828001114AC837E900E022CC032485
:103E9C000900B707200006CE26CA4EC67D8C23200B
:103EAC00F9180F1000009307F00263E8A704B1475C
:103EBC00B304F50297090020938989DE83A70900D2
:103ECC00A6979C439DCB9377F5008545B395F5005C
:103EDC00C205C18111812D3F83A709000145A69719
:103EEC0023A0070023A2070023208910F24062447C
:103EFC00D2444249B24905618280B7E700E023A071
:103F0C0087100945E5B74111B7E700E026C28443A5
:103F1C0006C622C437072000F98C23A0E7180F101F
:103F2C000000EFF02FF519E90145B2402244B7E744
:103F3C0000E023A097109244410182809707002053
:103F4C00938747D19C43004582979707002093871E
:103F5C00E7D56368A402D843B74636FE938606C8F5
:103F6C003305A4403697E371E5FC13070064B335C1
:103F7C00E50203D6870081463305E502EF003204E3
:103F8C006DB7D8433A94C1BF411122C426C217045D
:103F9C0000201304A4D1970400209384E4C6944811
:103FAC005840970700209387E7CA06C69C43639343
:103FBC00E60882975440B74736FE938707C8B697F2
:103FCC003387A7003A856364F7006364D700330531
:103FDC00D740970400209384A4E6DC5081CF970748
:103FEC0000209387A7ED94433707CDFF7D179C46A0
:103FFC00F98F9CC611E1484097070020938747C66C
:10400C00DC53829719E5DC508DC3EF40B126EF30BD
:10401C009168DC5099CB97070020938727EA984347
:10402C00B70633001C47D58F1CC7B24022449244BC
:10403C0041018280829794485840B387A6003E8500
:10404C0063E4D700E3E7E7F83385E74059B741115C
:10405C0006C69707002023A9A7C40295B24097076C
:10406C00002023AFA7BA014541018280994763E93B
:10407C00B7008A05970700209387C7BBBE9588C1F8
:10408C0082809707002023AFA7C011C5854717076B
:10409C0000202300F7BC8280411171468145170531
:1040AC000020130525B906C69707002023A807BAD8
:1040BC009707002023AA07BE9707002023AC07B858
:1040CC0097070020238707B89707002023AC07BC6D
:1040DC0097D0FF1FE7808082130680028145170569
:1040EC000020130565B297D0FF1FE7802081EFA059
:1040FC00B115970700209387A7B603C5C70383C7DD
:10410C00D70385453E958D473305F5023905137563
:10411C00F50F97070020238AA7AE99473305F502C0
:10412C001305052497D0FF1FE780E0331707002005
:10413C002328A7B659CD9947170600200346E6ACAD
:10414C003306F60281451306062497C0FF1FE7804D
:10415C00E07A970700209387A7B49C4393870724A2
:10416C00170700202326F7AC170700200347E7A901
:10417C000A07BA97170700202320F7AEEFF0EFCE0F
:10418C00D929970700209387A7AA94439707002063
:10419C0083C797A713972700369717F6FFFF1306C9
:1041AC00265610C3138717001377F70F0A07369795
:1041BC0017F6FFFF1306864E10C3138737008907C7
:1041CC0093F7F70F8A0797050020A38FE5A2B69700
:1041DC0090C3B240410182809707002083C7D7A2C9
:1041EC0017070020034767A263F3E70217070020B5
:1041FC00130707A418439386170017060020A3057E
:10420C00D6A093962700369708C33E8582809307E5
:10421C00F00FE5BF1C416384071641777D8FB7060D
:10422C0000208947631ED71403574500630A0714FF
:10423C00411122C419462A849305F00F610506C664
:10424C0097C0FF1FE780007A05478D476304E5128E
:10425C001C4481CB58589947630E0710185C630BAC
:10426C000710130600048145170500201305459F10
:10427C0097C0FF1FE780806813060004A28517050E
:10428C0000201305E59D97C0FF1FE780006097078E
:10429C00002083D7A79D170700201307679C99E779
:1042AC0093070010970600202392F69C9707002096
:1042BC0083C7E79B91E78547970600202389F69AE9
:1042CC009707002083D7C79A91E7ED479706002000
:1042DC002390F69A9707002083C7779991E7954723
:1042EC0097060020A385F6989707002083C7679848
:1042FC0091E7854797060020238DF69697070020B7
:10430C0083C7379799E78347F70097060020A38266
:10431C00F6969707002083C7F79581CF93F6370061
:10432C00898317060020230BD69697060020A387B7
:10433C00F6969707002083C7E79391E7D547970632
:10434C0000202389F6928347640199E79307C00301
:10435C00970600202381F6921C5791C782979707E6
:10436C0000202397A78AFD5717070020A30EF7BA42
:10437C0025338147B24022443E85410182808947E2
:10438C003E85828001114EC69709002093890992BF
:10439C0083A7090006CE22CC26CA4AC852C48297EB
:1043AC0013090064B335250303DA8900814652866C
:1043BC0033052503EF00A240970700209387C7849D
:1043CC00804FAA8401456306940233858440636E52
:1043DC00940003A5490052868146B335A9023305E2
:1043EC00A902EF00C23D018D26959707002023A955
:1043FC009782F2406244D2444249B249224A056152
:10440C008280011122CC0A852E8441469725020018
:10441C00938505A906CEEF000274180806043A9499
:10442C00035504FF9707002083D7E788F2406244C6
:10443C00AA9737450F00130505243355F50205617E
:10444C0082809707002083D7078751471D45637CDF
:10445C00F702794719456378F702130720031545CE
:10446C006373F7021307B0041145637EF70013075B
:10447C0040060D456379F70013076009094563741D
:10448C00F70013B5B70F8280011122CC06CE2A8417
:10449C002EC6EFF00FAFB245F240818D33A5A502C9
:1044AC00229562441375F50F05618280011122CCAF
:1044BC0006CE2A842EC6EFF0CFACB245F240818DE9
:1044CC0033A5A50222956244420541810561828093
:1044DC00011122CC06CE2A842EC6EFF08FAAB2454B
:1044EC00F240818D33B5A50222956244056182802C
:1044FC0097F7FF1F9387C776985739CB411122C482
:10450C0026C206C6BE84029717F7FF1F03574770D3
:10451C002A8415CBBA876373A700AA87C207C18305
:10452C00BA866373E400A286C206C182958F514796
:10453C00635BF700DC5491C38297EF40613C97F7C3
:10454C00FF1F2397876CB240224492444101828022
:10455C00828097F7FF1F23A5077697F7FF1F938796
:10456C002770DC57011106CEAA8581C72AC682970F
:10457C00B245C5C19C410545D1CBDC41C1CB83D7EC
:10458C008500C9C783D7A500D1C3514617F5FF1FB6
:10459C001305C57197C0FF1FE780202F97F7FF1FEA
:1045AC00238C077097F7FF1F938747709C4317F76F
:1045BC00FF1F2321F76A97F7FF1F83C7D76B8DE780
:1045CC009307805717F5FF1F0355C56E3305F5028A
:1045DC0037460F001306062481468145EF00221E44
:1045EC0097F7FF1FA389A76817F7FF1F0347B76843
:1045FC00A54763E7E700A94717F7FF1FA30DF76669
:10460C0017050000130545D899340145F2400561A2
:10461C00828097F7FF1F23A7076097C7FF1F938719
:10462C00077B17F7FF1F2323F7687D5797F7FF1FAB
:10463C0023A0E768B7873200938727A197F6FF1F5F
:10464C0023AAF66697F7FF1F23880766B7C70040B3
:10465C0023A4E72681BF011122CC17F4FF1F1304FA
:10466C002460084406CE26CA4AC801E90545F24032
:10467C006244D2444249056182805C58E5DB185C97
:10468C0075D77000854582971844B247E300F7FE52
:10469C009305E00417F5FF1F0355455D97D0FF1FE9
:1046AC00E78060DC17F7FF1F2320A75861D117F6AE
:1046BC00FF1F0356A65B9305F00F97C0FF1FE78003
:1046CC00E023814417F9FF1F1309095497F7FF1FC3
:1046DC0083C7E7590326090263C1F402328597D0D8
:1046EC00FF1FE78060E7014597F7FF1F23AE0752D6
:1046FC0097F7FF1F23AC07529DBF97F5FF1F83D57C
:10470C00E556B38795020844185C898185043E956B
:10471C0008C2029765BF011156C297FAFF1F938A10
:10472C002A5483A78A0022CC4AC84EC606CE26CA73
:10473C0052C45AC0AA892E8432896386072203A7E1
:10474C004A03630907141307F01F6367A71497F450
:10475C00FF1F9384644B03AA040263170A0A95652E
:10476C00938515E017F5FF1F0355455097D0FF1F94
:10477C00E78060CF97F7FF1F23A8A74A2A86630B11
:10478C00051083A74A0303A58A0097F5FF1F83D55D
:10479C00E54D8981829783A78A0003AA040217F743
:1047AC00FF1F2325F7488947639CF908C14763130A
:1047BC00F40E97F5FF1F83D5654B938505FC914748
:1047CC00B3C5F5028A05D29503C725009307A0054A
:1047DC00631EF70A83D70500639A370B4A85228636
:1047EC00910597C0FF1FE780400A9C505285639348
:1047FC0047150145F2406244D2444249B249224A2B
:10480C00924A024B05618280D850E38EE7F8956599
:10481C00938525E017F5FF1F0355454597D0FF1FDE
:10482C00E78060C42A8A3DC52A8683A74A0303A56C
:10483C008A0097F5FF1F83D5654389818297A5B7B9
:10484C008D47639DF900C1476316F40497F5FF1F6C
:10485C0083D5C541938545FDF199B5B79147639AC9
:10486C00F9006319340397F5FF1F83D52540A11573
:10487C00E5B793070010639FF900A14763EC87002D
:10488C0097F5FF1F83D5853EC115F9B79C5052850E
:10489C006396470D2945B9BF1D6A568B6371450B4D
:1048AC00130A05E01947334AEA0217F7FF1F0357AB
:1048BC00E73B97FAFF1F938A2A35330AEA023E9A9E
:1048CC0083A74A026395470183A40A029DE49305DA
:1048DC00E00417F5FF1F0355653997D0FF1FE780DC
:1048EC0080B8AA8445D983274B0397F5FF1F83D53E
:1048FC00E5372A8689815285829791451307A00551
:10490C00898193972500A69783C627006393E604B5
:10491C0083D60700639C360385058A052286A695F7
:10492C004A8597C0FF1FE78040F683A70A02E382FF
:10493C0097EC268597D0FF1FE78000C25DBD2167ED
:10494C007917E369A7F4330A454185B783C5370066
:10495C0045BF83A70A02E38F97F2268597D0FF1FE6
:10496C00E78080BF05BF97F7FF1F9387E7298C531C
:10497C0095D191479306A0058983139727002E970D
:10498C0003462700E318D6F003560700631C3601D4
:10499C0085078A072286BE954A8597C0FF1FE78048
:1049AC00C0EE81BD83473700C1BF97F7FF1F9387C8
:1049BC00272B984739C79C5FA9C705476313E504A4
:1049CC00411122C417F4FF1F13040424105006C60F
:1049DC000DC6485097F5FF1F83D5452989818297CD
:1049EC00085097D0FF1FE78020B797F7FF1F23AD24
:1049FC00072297F7FF1F23AB0722B2402244410145
:104A0C0082808280011117F7FF1F130767254EC69E
:104A1C008329870022CC26CA4AC806CE52C456C265
:104A2C00AA842E843289638B09201C5FBA8A99EB85
:104A3C002945F2406244D2444249B249224A924A40
:104A4C00056182805C5BEDD79307F01F63EAA70ECC
:104A5C0097F9FF1F9389491B83A70902B1CB03A5C3
:104A6C008A0083A749026395A70689476393F408D4
:104A7C00C147E31FF4FA17F5FF1F0355251F914794
:104A8C00130505FC3345F5029317250003A5090210
:104A9C002286CA853E959307A0052301F5002310B5
:104AAC009500110597C0FF1FE78020DE014551B727
:104ABC009305E00417F5FF1F0355451B97D0FF1F07
:104ACC00E780609A97F7FF1F23A0A71649F98DB7C7
:104ADC0083A74A0303A6090297F5FF1F83D505197F
:104AEC008981829783A78A0017F7FF1F2320F71469
:104AFC00ADBF8D47639EF400C147E31BF4F217F57D
:104B0C00FF1F0355A516130545FD9377C5FFBDBFC4
:104B1C009147639AF400E31D94F017F5FF1F0355BA
:104B2C00E5142115DDB793070010E393F4F0A147CA
:104B3C00E3E087F017F5FF1F035545134115F1B757
:104B4C009D676379F506930705E01947B3C7E7023C
:104B5C0017F7FF1F0357871117FAFF1F130ACA0A0B
:104B6C00B387E702BE9983270A02A1CF83274A02A3
:104B7C006399370703250A0291461308A00593058C
:104B8C00F00F93D72600139727002A970346270088
:104B9C00631F060783580700034637006395980682
:104BAC00B306D64063CF860485078A072286CA855A
:104BBC003E95CDBD21677917E36CA7E6B307F540A9
:104BCC0041BF9305E00417F5FF1F0355250A97D045
:104BDC00FF1FE780408997F7FF1F23A7A70459F50C
:104BEC0081BD83A74A0303260A0297F5FF1F83D5CD
:104BFC00E50789814E85829797F7FF1F23A8370316
:104C0C0095BF2310B70093160601C1829DBFB385D3
:104C1C00860017F6FF1F035666059105130606FC62
:104C2C00E368B6E013063400719A1106B2962301BC
:104C3C00070123109700A301D700BDB797F7FF1FFB
:104C4C00938787FC9453BE89A9C203A50902914698
:104C5C001308A0059305F00F93D726001397270090
:104C6C002A97034627006318060583580700034656
:104C7C00370063989800B306D640E3D786F223102A
:104C8C00B70093160601C182C1BF8357C70017F541
:104C9C00FF1F0345C5FD9305E0043305F5024205EE
:104CAC00418197C0FF1FE780007C97F7FF1F23AD62
:104CBC00A7F641FDB5BB17F6FF1F035626FB97F56C
:104CCC00FF1F83C5C5FAB385C5023386860011065E
:104CDC00E3E0C5D681BF01458280011106CE2EC608
:104CEC00EF80B01A01C9B245F240035525000561A9
:104CFC006FC0305DF240494505618280A388018612
:104D0C002388018623AC018423AE018423A0018671
:104D1C0023A2018623AA018423A8018497F7FF1FED
:104D2C00938747FC930640382391D702F1761307FB
:104D3C00400B938606B82391E7002392D7021167A4
:104D4C009D46130600059305000A1305007D23926A
:104D5C00E7002393D70241478546130810F82395A3
:104D6C00E7002396E7002399E700239AE700239BAB
:104D7C00E700239CE7002394E7022390070023938A
:104D8C00B7002394B7002397C7002398C700239D2F
:104D9C00A700239E0700239F07002390070223955B
:104DAC00D70223960703239707029308F00723984B
:104DBC0007022392E7042393E704239FE70423903D
:104DCC00E7062391E7062392E706239917031307B7
:104DDC00C01C239AD702239BD702239C0702239D36
:104DEC000702239E0702239F0702239007042391A7
:104DFC00D70423940704239507042396D7042397F9
:104E0C00C7042398C7042399A704239A0704239B58
:104E1C000704239C0704239DC704239EC7042393E4
:104E2C00A7062394070623950706239607062397C0
:104E3C00B7062398B70623990706239AE706514726
:104E4C00239DE7067D57239B0706239C0706239E7D
:104E5C00D706239F0706239007092391E708828032
:104E6C00011126CAAA84214522CC06CE2E8432C634
:104E7C0036C43AC2EFE0EFE61DC9A24612473246ED
:104E8C00930700FD2300F5009947A300950023012B
:104E9C00F5002303D500A303E5002312C500AA8562
:104EAC0022856244F240D24405616FE0EFF2F24099
:104EBC006244D2440561828023ACA184828023AEFB
:104ECC00A184828023A0A186828023A2A1868280D5
:104EDC00011122CC4AC806CE26CA2A890144B30441
:104EEC0089006368B400F2406244D24442490561CF
:104EFC0082802EC6EFE0FF8893170501C183A18342
:104F0C00B2452380F4009307140093F7F70F850440
:104F1C0063F9B700CA9709042380A7001374F40F30
:104F2C007DBF3E847DBFC16717F5FF1F0355E5D9D3
:104F3C00FD176304F502411117F6FF1F034686EEB9
:104F4C009385818606C6EF80E051B240FD5717F776
:104F5C00FF1F231CF7D641018280828009C92515C9
:104F6C001375F50F1335850E134515008280014519
:104F7C00828023900500C9C6797122D426D24ECEE8
:104F8C0052CC5AC806D64AD056CA5EC63684328A25
:104F9C00AE892A8B814463F34407B307940083C71B
:104FAC000700138914004209939A070193DA0A0146
:104FBC001359090163840A04CA976341FA04B307BD
:104FCC00240183CB07005E85513F0DC99387FAFFFF
:104FDC002390F90063906B03130519002295B250CE
:104FEC00225492540259F249624AD24A424BB24B71
:104FFC0045618280D694C204C18071BF0145C5B79A
:10500C0001458280411126C2AE8422C497F7FF1F4E
:10501C0023A4C7CC97F7FF1F23AEB7CA97F7FF1F80
:10502C0023A8A7CA2A8441469305F00F26854AC0B7
:10503C0006C6054997C0FF1FE780C09A6310250577
:10504C0097F7FF1F938707C8884BC14551354146D9
:10505C009305F00F228597C0FF1FE780A098854429
:10506C0063189502224497F7FF1F9387A7C5B24098
:10507C0092440249C847C145410199BD4146814509
:10508C00268597C0FF1FE780E095E31225FD4DBFF5
:10509C0041468145228597C0FF1FE780A094E3031A
:1050AC0095FCB24022449244024941018280411154
:1050BC0022C426C22E84AA8413060002814517F549
:1050CC00FF1F130525C006C697C0FF1FE78000838E
:1050DC0097F7FF1FA38997BE97F7FF1F238687D4E7
:1050EC00EFC07020854719C181474945B240224421
:1050FC0017F7FF1F2308F7BC9244410182808147B8
:10510C0081CD19C98547631BF50083C7550093E70B
:10511C0007FCA382F50085473E858280894763178B
:10512C00F50083C7550093F7F703E5B70D4785479F
:10513C00E314E5FE03C755001377F7031367070461
:10514C00A382E500D1BF81478DC105C103C75500BE
:10515C009306000C85471377070C6308D70093065A
:10516C0000048D476303D70089473E858280411137
:10517C0022C4005D06C626C21DC8AA84085009C5F3
:10518C0097C0FF1FE780403D485009C597C0FF1FDF
:10519C00E780803C085409C597C0FF1FE780C03BDF
:1051AC00228597C0FF1FE780203B23AC0402B2404E
:1051BC00224492444101828009ED97F7FF1F83C777
:1051CC0087B017F5FF1F130565B181CB138581845B
:1051DC00828017F5FF1F130565B0828017F5FF1F3E
:1051EC00034565AE828097F7FF1F9387A7ADC8472D
:1051FC00828097F7FF1F9387E7AC884B828097F7E5
:10520C00FF1F938727ACDC4B8843828097F7FF1FE7
:10521C00938747ABD84B1C4385071CC317F5FF1F5F
:10522C00034575AA9307F00F6305F50091656FE0D0
:10523C002FF48280011122CC06CE2E8432C6EF8050
:10524C0080559147B245631FF500938741869C4377
:10525C008DC303A30700630E030022856244F24052
:10526C00056102839387C1859C4381C703A34700D3
:10527C00DDB7F2406244054505618280011122CC04
:10528C002A840355450006CE26CA4AC84EC6EF806E
:10529C00A02E35C52A89834405008349C500C13D2C
:1052AC004A85EF80700A03554400EF80004A83C79B
:1052BC000187B1CB6399970483C511872685EFF0DD
:1052CC00DFA119E12388018603554400EF80A04C2F
:1052DC009147631FF5000357440097F7FF1F83D7CF
:1052EC00C79E6317F700FD5717F7FF1F231FF79C87
:1052FC00F2406244D2444249B249056182808149FC
:10530C009304F00F6DB79307F00FE38FF4FA834615
:10531C00640003564400034524004E87A685893655
:10532C0065B779715EC6AA8B2E8552CC56CA5AC8FF
:10533C0006D622D426D24AD04ECEAE8A328B368AAC
:10534C00EF8080237DC1045D2A89E5C09C506145B6
:10535C0099C3130540039C5481C7510542054181F3
:10536C0063050A00710542054181DC5081C75D056A
:10537C0042054181EFE0EF962A8445C9614681459B
:10538C0097B0FF1FE780805797F9FF1F83C9899853
:10539C006394090083490900930700FD2300F4007E
:1053AC00A947A30074012301F400230364018C506A
:1053BC00231254011305840191C908C47146930A40
:1053CC00440397B0FF1FE780404C56858C5491C91D
:1053DC0048C45146930A450197B0FF1FE780E04A45
:1053EC005685630C0A0008C87146D285930AC5011C
:1053FC0097B0FF1FE78060495685CC5099C548C8C7
:10540C005D4697B0FF1FE7804048A2854E85EFE0D0
:10541C00AF9C2254B2509254F249624AD24A424B47
:10542C00B24B4A850259456199B3B25022549254F9
:10543C000259F249624AD24A424BB24B45618280D0
:10544C0001114EC6AA892E854AC806CE22CC26CA80
:10545C002E89EF80601221C997F4FF1F83C4848BBF
:10546C0099E0834405001945EFE0AF872A8405CD08
:10547C008145194697B0FF1FE7804048930700FD10
:10548C002300F400B947A30034012301F4002312D4
:10549C002401A2856244F2404249B2492685D24495
:1054AC0005616FE06F93F2406244D2444249B249C5
:1054BC000561828039715ECEAA8B2E8526DA4ED696
:1054CC0052D456D25AD006DE22DC4AD8AE84328B65
:1054DC00B68A3A8ABE8942C6EF80000A21CD2A8953
:1054EC004145EFE00F802A8431C54146814597B094
:1054FC00FF1FE780A04017F5FF1F0345A58119E1A9
:10550C0003450900930700FD2300F400BD47230168
:10551C00F400B247A3007401231294002304640125
:10552C00A304540123054401A30534015CC4A285E2
:10553C00EFE08F8AF2506254D2544259B259225A37
:10554C00925A025BF24B21618280797126D2AA8435
:10555C0039454AD04ECE06D622D42EC6B2893689CB
:10556C00EFD03FF821C1B2459307000D2310F50091
:10557C00B1472A842312B5002301F500CE85190505
:10558C00194697B0FF1FE780403023062401A285FF
:10559C002254B2500259F24913F5F40F925445615A
:1055AC006FE08F83B250225492540259F2494561F4
:1055BC00828017E7FF1F034717719307F00F630DE6
:1055CC00F706411126C2AA84394522C406C64AC030
:1055DC00EFD03FF12A8439C9930700FD2300F50071
:1055EC00A30095002301050097E5FF1F9385056F28
:1055FC000D05194697B0FF1FE780202917E9FF1FFB
:10560C001309496C83578900A28517E5FF1F0345D1
:10561C00956B2315F400834719002306F4002244EC
:10562C00B2409244024941016FD01FFBB240224468
:10563C009244024941018280828001115AC02A8B16
:10564C00314526CA4EC652C456C206CE22CC4AC8D2
:10565C00AE84B28A368ABA89EFD0BFE835CD2A84B7
:10566C002685EF70707111C50347C500A1476314FF
:10567C00F70417E9FF1F03491965930700FD230081
:10568C00F4009D47A30064012301F400231294004D
:10569C00231354012314440123153401A2856244BD
:1056AC00F240D244B249224A924A024B4A854249BC
:1056BC0005616FD07FF217E9FF1F0349F976E31EEE
:1056CC000BFA9387C1909C439C47C5DBCE865286D0
:1056DC00D6852685829755B7F2406244D24442491A
:1056EC00B249224A924A024B05618280011122CCB6
:1056FC002A84214506CE2EC6EFD0BFDE21C1B2458D
:10570C00930700FD2300F500C5472301F50083C76F
:10571C003500A301F50083D745002312F50083C79C
:10572C0065002303F50083C77500AA85A303F50064
:10573C0022856244F24005616FD01FEAF240624458
:10574C0005618280397162CC2A8C594526DA4AD897
:10575C004ED652D456D25AD05ECE06DE22DCAE8461
:10576C0032C636C4BA8B3E8BC28A468A8359010430
:10577C0003494104EFD0FFD625C93246930700FDFB
:10578C00A2462300F5009547A301C500A30085019F
:10579C002301F5002A8419461105A9C2B68597B0D4
:1057AC00FF1FE780800E23066401230A24012315C2
:1057BC007401231754012318440123193401A285C1
:1057CC006254F2504259B259225A925A025BF24B2D
:1057DC00624C2685D25421616FD01FE0814597B071
:1057EC00FF1FE780A011C1B7F2506254D254425946
:1057FC00B259225A925A025BF24B624C216182805E
:10580C0097E7FF1F83C7274C8DCB4111AA851946FB
:10581C001385818406C697B0FF1FE7800007938528
:10582C00818417E5FF1F0345054AEFF05F8DB240F9
:10583C001385818441016FC0C02B0145828017E71D
:10584C00FF1F034757489307F00F6305F7084111F3
:10585C0026C2AA84294522C406C6EFD09FC82A8432
:10586C0029C1930700FD2300F500A1472301F50092
:10587C00A300950097E7FF1F9387C74483C72700B2
:10588C00938581841105A30FF5FE194697B0FF1F70
:10589C00E780A0FFA28517E5FF1F0345D542EFD097
:1058AC00BFD317E7FF1F034707428D47631FF7005E
:1058BC00938701869C4391CB03A387006307030066
:1058CC002244B240924441010283B24022449244A9
:1058DC004101828017E7FF1F0347E73E8D47631A9C
:1058EC00F700938701869C4389C703A38700E31DB8
:1058FC0003FC8280797122D406D626D24AD04ECEB1
:10590C0052CC094455CD2A89035505002E8A5144A1
:10591C00EF709046AA844DC597E7FF1F83C7C75009
:10592C00FD1793F7F70F05474944637BF7080347C7
:10593C00C500A1476314F70063140A089C5C454436
:10594C00C1E39165938545711305C00297C0FF1F94
:10595C00E78060B188DCAA894D443DC11306C002C2
:10596C00814597B0FF1FE78060F983570900938644
:10597C00490036852391F90071469305490036C6D6
:10598C0097B0FF1FE78060F089472380F90003C5BB
:10599C00C400B24603560900611597E5FF1F83C585
:1059AC00654813351500EF8090602A8463060A0061
:1059BC00D2852685EF80204901C42685EFF02FFB88
:1059CC002285B250225492540259F249624A4561DE
:1059DC00828097E7FF1F83C72745FD1793F7F70FC3
:1059EC0005476378F708894751C6011122CC26CAAE
:1059FC004AC84EC652C406CEAA89368AB2842E89AB
:105A0C00EF7090372A84D14729C9485509C597C0EA
:105A1C00FF1FE78060B4F1452685EFD0BFDD48D489
:105A2C00CD4705CD8346C40021478147639FE600DF
:105A3C00630D0A000347A5010356050193062501D2
:105A4C00AA854E85EF80E047AA8703474400630F81
:105A5C000900136767002302E400F2406244D24459
:105A6C004249B249224A3E8505618280136747004C
:105A7C00DDB7C9473E8582809307000463EBA7001E
:105A8C0097E7FF1F9387072606053E9503550500EC
:105A9C00828041657D158280011122CC2A842E855D
:105AAC0026CA06CEAE84EF70302D1DCDB7470F0041
:105ABC009387F723094563E4870281450A854146AC
:105ACC0097B0FF1FE78080E3A685231081000A852D
