:040000006F208003EA
:10000400000000000000000090000020C202002058
:10001400A9BDF9F5780300200000000000000000ED
:100024007803002090000020000000000000000081
:10003400900000200000000090000020000000005C
:1000440090000020900000209000002090000020EC
:10005400900000209808002090000020000000007C
:1000640090000020900000209000002090000020CC
:10007400DE0300209000002090000020900000206B
:100084009000002090000020F40300209000002045
:1000940001A04111B7170040985F3AC6945F3247F8
:1000A400E39CE6FE324541018280B7F70700011167
:1000B400944B13078008F337078093F787083EC2F1
:1000C4000F100000B71700401308700523800705C0
:1000D400930580FA2380B7040F10000003C6B70409
:1000E4001376F60DA385C7042380070412467326EE
:1000F40006800F1000001376050255CEF3360780F4
:1001040093F6860836C40F10000023800705238069
:10011400B7040F100000B70614007D89558D88C7F9
:10012400010001000100010023800704A246F3A698
:1001340006800F10000073370780137787083AC6CC
:100144000F100000238007052380B7040F10000060
:100154000F1000003727004093061005A303D78033
:1001640023800704B247F3A707800F10000093070A
:100174008008F3B7078093F787083ECE0F1000007E
:10018400B7170040130770052380E704130780FAAC
:100194002380E7040F10000003C7B70413670708A0
:1001A400A385E70423800704F247F3A707800F1011
:1001B4000000056182801376050459C273360780F6
:1001C4001376860832C80F100000238007052380A9
:1001D400B7040F10000037061400130606047D89C7
:1001E400518D88C70100010001000100238007042C
:1001F4004246732606800F1000007337078013777A
:1002040087083ACA0F100000238007052380B7042B
:100214000F100000A54793F6F60F639EF600B7276C
:10022400004013073005A383E780B71700402380FD
:100234000704D2470DBFB727004013072005E5B7D1
:1002440073370780137787083ACC0F100000238098
:1002540007052380B7040F10000098471367070CA5
:1002640098C723800704E247FDBD0111814601467A
:100274008145114506CE5D2C93078008F3B70780AE
:1002840093F787083EC60F100000B7170040130706
:1002940070052380E704130780FA2380E7040F1016
:1002A400000003C76704136717002383E704238050
:1002B4000704B247F3A707800F100000F24005615E
:1002C40082804111814601468145114585241307E9
:1002D4008008F337078093F787083EC40F100000A7
:1002E400B7170040130670052380C704930680FAED
:1002F4002380D7040F100000FD552396B7022380F6
:100304000704A245F3A505800F100000733707808A
:10031400137787083AC60F1000002380C704238090
:10032400D7040F10000003C7670413671700238363
:10033400E70423800704B247F3A707800F100000E7
:1003440001A0BD473305F50201007D1575FD8280CE
:10035400411122C426C206C6AA840144631794002C
:10036400B240224492444101828005041305803E38
:100374004204C13F4180DDB79305000273A045806C
:1003840082457390153492402242B2424243D24392
:100394006244F244025592552256B2564257D257FD
:1003A4006258F25806499649264AB64A464BD64BF5
:1003B400664CF64C065D965D265EB65E465FD65F7D
:1003C4000961730020304111B7170040985F3AC6A5
:1003D400945F3247E39CE6FE324541018280B717C1
:1003E4000040130700032388E702854723A4F1860E
:1003F4007300203037470040834747C09946BD8B80
:10040400638BD70231476385E70011476397E7029F
:10041400B745004003C6A5C013854119938585C01F
:10042400973000E0E780C03A420541810DE58547F9
:100434002389F18819A0834757C07300203083466D
:1004440087C0850793F7F70F238ED1868346A7C00D
:10045400E3E7D7FEE9BF814737470040C5BF4111F5
:1004640006C6EF00A07F974000E0E7800082D5BF7A
:100474002303048015472303E48001002302A4809E
:10048400828083076480E3CE07FE23030480828096
:1004940083076480E3CE07FE03454480828083079C
:1004A4006480E3CE07FE2302A4808280411126C427
:1004B4004AC24EC006C61377F50BAD47AA892E89EA
:1004C40095446306F70019456537653F8D444E85AD
:1004D4004537FD59FD1463983401B240A2441249D2
:1004E400824941018280135509011375F50F453F77
:1004F4002209CDB7011126CC06CEB7040800513726
:100504001545BD37713769372AC6A53F32459377FC
:10051400150089EB136515001375F50FF240E244DD
:1005240005618280FD14E9FC0145CDBF397126DCEB
:100534004ADA4ED852D656D45AD25ED006DE62CEAD
:1005440066CCB7E700E07D5783AA070022C603AA5A
:10055400470023A0E71823A2E718B71700401307A2
:1005640070052380E704130780FA2380E70483C718
:100574004704930B75FFB684E20793FBFB0F854694
:10058400AA892E8B328937240040E187015763FA08
:1005940076016308D5008946130700026313D5006A
:1005A4000157D98F93F7F70FB71C00402382FC043F
:1005B40011472303E4801305F00F5D3D094CD13549
:1005C400636D7C11B7050700DA9537870700795505
:1005D40063F2E504B3879500636EF702370B0800F6
:1005E400A94733EB65016399F90689E48144513DD8
:1005F40026850DA0DA850945553D05090345F9FF12
:10060400FD14050B693D81C49377FB0FFDF7DD35C0
:1006140069FD7D55B7170040130770052380E70473
:10062400130780FA2380E70403C74704418B23821E
:10063400E704F250B7E700E023A0571123A24711C3
:10064400E25432445259C259325AA25A125B825B62
:10065400724CE24C21618280A5476395F906856955
:100664001309F00FB3069900B3742B01B694134920
:10067400F9FFB3749900856B33796901416B9387F2
:10068400F9FFB3F7270199E363FC340193D94900D7
:10069400C147E3E637FF99BF0569C1697D19D9B739
:1006A4001305800D638869011305000263847901D1
:1006B40013051008CA85DD3B353D21DD4E99B38411
:1006C4003441D9B7DA852D45D533CA94E30099F27C
:1006D40005097D3BA30FA9FED5BF9387F9FF93F7C7
:1006E400F70F6361FC0C83C71C0413073008631FF6
:1006F400F70437070800636BEB04B3079B00B706E6
:10070400100063F5D704334BEB0089476393F90674
:100714008980D549E38C04ECDA850945413B11090C
:100724000327C9FF91472320E48003076480E34E35
:1007340007FE23033481FD17EDFBFD14110B81C467
:100744009377FB0FE9FF7D3371F5E1B5B7170040EF
:1007540003C75704B70708001377070219E3B787DD
:1007640007007955E378FBEA33079B00E3FFE7F8DA
:1007740055B58547E382F9F2DA852D45053B938922
:10078400F4FFE38504E6293393F7390091EB8326DC
:1007940004800327090093074900E39AE6E43E89AD
:1007A400CE84F1BFB5476396F9001305900BC931A8
:1007B40035BDB1471305B00AE38BF9FE9947639140
:1007C400F904B7050800B365BB002D45C531814464
:1007D4008D4BA149753963967401832704802320C6
:1007E400F9008504E39834FF8327048013172B0151
:1007F400635507002312F900D5BB2322F900FDB38A
:100804009D476399F90281451305B0044531BD4400
:100814002320090023220900FD599D3993F7740010
:10082400CA9703C70700FD14398D2380A700E396F8
:1008340034FF6DBBA1476392F9046D398144630DA4
:100844000B008D479304C0036308FB009304000569
:1008540063048B01930440041375C507E30895D81A
:100864001945393139390545213126850D3909456F
:100874003D314931E31C05D669BB91476399F900C1
:1008840013056006F536F53E130590090DB7E38FA1
:1008940009D4F154A9BB0000197106C212C416C6CA
:1008A4001AC81ECA22CC26CE2AD02ED232D436D68C
:1008B4003AD83EDA42DC46DECAC0CEC2D2C4D6C67C
:1008C400DAC8DECAE2CCE6CEEAD0EED2F2D4F6D66C
:1008D400FAD8FEDA938501868841E7000500924044
:1008E4002242B2424243D2436244F24402559255F8
:1008F4002256B2564257D2576258F2580649964980
:10090400264AB64A464BD64B664CF64C065D965D77
:10091400265EB65E465FD65F096173002030B7E796
:1009240000E09843B706200023A0D718758F0F1056
:10093400000001C599C1814711E6B7E700E023A093
:10094400E7108280B386F50003C80600B306F500FD
:10095400850723800601E317F6FEC5B737E700E0F5
:100964001C43B70620002320D718F58F0F10000072
:1009740019C191C111E637E700E02320F710828006
:10098400910503A7C5FF11057D16232EE5FEDDB7EE
:1009940037E700E01C43B70620002320D718F58F63
:1009A4000F10000001C53307C50011E637E700E06A
:1009B4002320F71082800505A30FB5FEE31DE5FE95
:1009C400F5B7B7E700E09843B706200023A0D7188F
:1009D400758F0F1000008147B306F500838606006B
:1009E40099E6B7E600E023A0E6103E8582808507FD
:1009F400E5B737E700E01C43B70620002320D718EB
:100A0400F58F0F10000001C599C1014711EA37E7BE
:100A140000E02320F710054582800507E309E6FE80
:100A24003308E500B386E5000348080083C60600E2
:100A3400E305D8FE37E700E02320F7100145828064
:100A440037E700E01C43B70620002320D718F58FB2
:100A54000F1000001307F6FFBA952A966317C50016
:100A640037E700E02320F7108280FD1503C7150047
:100A74000505A30FE5FEDDB737E700E01C43B70625
:100A840020002320D718F58F0F10000001C533076D
:100A9400C50019E637E700E02320F71001458280FE
:100AA40005058346F5FFE397B6FEE31BE5FE37E74E
:100AB40000E02320F71005458280797197470000F4
:100AC400938707D122D4804306D626D24AD04ECE6D
:100AD40052CC56CA5AC85EC669C037C9C901014B4F
:100AE40097490000938949CE1309F937174A000042
:100AF400130A4ACE974A0000938A4AC897440000D2
:100B0400938404D28357240095E35C44631D0B0053
:100B140017470000232EF7CA832BC4002285EF0059
:100B2400F0225E84A9A82326FB00FDB783A7090051
:100B340082971C443307F5406375F500D8401D8F38
:100B44002A976361E9089747000023A107C48355E6
:100B5400240003450400974000E0E78000935C40D4
:100B64005844B9C70C44D040AE97BE8663E4B7007E
:100B740063E4C700B386C74014C4228B3A8459F097
:100B840097470000938787BF9C4B09476373F70817
:100B9400F91717470000232BF7BEB2502254925482
:100BA4000259F249624AD24A424BB24B45618280B1
:100BB40063170B009747000023ACE7C0B1BF23269F
:100BC400EB0099BF03274A021DCF63E1A7043385D5
:100BD400A7408347040085E3174700000347F7C095
:100BE4005917B307A7003E85D44063E4E70063E4E4
:100BF400D7003385D74083A70A016376F50097476A
:100C0400000023A5A7B8228B404495BFD840BA97CB
:100C14007DBF9747000023AB07B641B79747000055
:100C2400938787BF9C4385C3411106C68297974724
:100C3400000083C747B989E79747000023AE07BC84
:100C4400B240410182809747000083C7C7B791E74C
:100C54009747000023A207BC82808280411122C4EE
:100C640017440000130444B41C4006C626C24AC0FC
:100C740091C782979747000023A807B297470000BF
:100C840083C757D3858B17490000130969D289CFCD
:100C94008347790019476312F71097470000A38B25
:100CA40007D03D235C4482971C4491C382979744A8
:100CB40000009384A4B1984017460000034616AC84
:100CC4009747000083C787AB93961700BA9683D6DD
:100CD4000600E5C29747000083C747AA63E5C70E2D
:100CE40097470000238C07A81C40639E071497476E
:100CF4000000938767AD9C43638707149747000000
:100D0400938707B2DC43174700002321F7A8753304
:100D14009747000083C777CA639707129747000075
:100D240083C797C991CF8347790093F7F70F89EB6E
:100D340097470000A38207C8974001E0E7800009B5
:100D440097470000938707A9DC53638E070E9747E4
:100D540000009387A7A29C4BFDC7834779001547E2
:100D64006363F70E9747000083C707CA918BE1EFCF
:100D74009747000083C727A5F9E7904097460000EE
:100D840083C6D69F63C7D70C2244B240924402491B
:100D94004101174300E06700E3D0834779001D4712
:100DA400E314F7F097470000A38607C015211C48F9
:100DB400DDBD850793F7F70F974600002380F69C67
:100DC400E3E0C7F001BF86073E9783550700231071
:100DD4000700974700002397079E974700009387D3
:100DE400679C9C431745000003454599131725004C
:100DF400BA979C4382979747000083D7A79C1747CD
:100E040000000347A79793C7F7FF7D8D931717003B
:100E140098403E97835707005D8D2310A70097479E
:100E2400000083C7A79591C78507174700002307CC
:100E3400F79417470000034767949747000083C758
:100E4400F793E37FF7E8B240224492440249410118
:100E54008280139717003297035707006DF78507B1
:100E640015B737C700408326C720B707FCFFFD1717
:100E7400F58F2326F7200100010097470000938790
:100E8400E78FC84F832787262326D7206A0593C771
:100E9400F7FF99835D8D8280011197470000938746
:100EA40067C222CC03A4070C26CA06CE2AC42EC6C7
:100EB400854419E40145F2406244D24405618280CC
:100EC4008347910003471400858B6304F7000044B3
:100ED400CDB719469305A10013052400193EE31864
:100EE40095FE0545C9BF0000EFF05FD37300000015
:100EF40000000000974200009382E28C038302000A
:100F040023800200630F0300F32510342EC09705DD
:100F140000009385A5FD73901534EF00204E7300F7
:100F2400203086DCEF00804DE650828000001747B9
:100F340000001307A7A71443411122C49C5E4AC0B2
:100F440006C6998326C2858B3A8417490000130983
:100F5400A9A5D1CB930700069CDE174700000347E1
:100F640087A59307000897440000938464A4631B37
:100F7400F700832709009C4393F7070417470000F1
:100F8400230BF7A283C7040093F707049DC3974775
:100F94000000938767839C4382979747000023A7A9
:100FA400A7A283C7040093F7F70B17470000230198
:100FB400F7A083C7440093F7070495E785471747CD
:100FC4000000A309F79E974700009387E7A09C437E
:100FD4003707020098C7130700FC97460000238BCD
:100FE400E69C9848F8D318401C5F9183858B8DC389
:100FF4001C5F93E707011CDF974700009387C79D99
:101004009C4323A207068547174700002304F79A49
:1010140083270900D8430583058B19C7D843759BDB
:10102400D8C3D843799BD8C3B240224492440249DE
:1010340041018280ED3D730020309317D50063D3C6
:10104400070297470000938727999C437D57B8D799
:101054009737000093878772DC4F850717370000A6
:10106400232CF772937785009DCB9747000083C7A5
:10107400479493E7170017470000230CF792930750
:1010840000F8174700002307F7929747000093875B
:10109400E79198435C57F19B93E717005CD79377EC
:1010A40015008DC79747000083C7979093E71700F3
:1010B40017470000A30EF78E974700009387078F0A
:1010C40098435C57F19B93E717005CD793776500CF
:1010D40095CB93774500174700001307678DCDCB59
:1010E4008347070093E71700174700002302F78C94
:1010F400974700009387878B98435C57F19B93E74E
:1011040017005CD79317F50063D407021747000054
:101114000347C7A2418B974700009387A79A51C3FF
:1011240083C7870793E70702174700002308F7A040
:101134009317E50063D707029747000083C78787A3
:10114400E207E18763D707008547174700002303B9
:10115400F78697470000938727889C433707020048
:1011640098C79317C50063D40702174700000347C5
:10117400F79C058B974700009387C79429C383C7BF
:10118400970793E7270017470000A309F79A82807F
:101194008347370093E7170017470000A30BF78036
:1011A40081BF03C7870789463D8B6308D70083C780
:1011B40087070D47BD8BE39DE7F69147B5B703C796
:1011C4009707118B69D783C7970793E7870065BF94
:1011D400974700009387478094439737000093878D
:1011E400277D03C70700058B11CB973700002383A6
:1011F400077C97370000A38F077A828003C7170004
:10120400058B65F7F85271FF83C75700DDB71737B1
:1012140000001307A7790328070083278803958311
:10122400858BADEF11C683270803BD832300F60029
:101234009DC61C43985B4607935767016356070096
:1012440093E707C0C207C18303970600C207C1879B
:1012540009C7BA970947B3C7E7022390F6008DCDB3
:101264008345150095C99737000083C7C77493F762
:10127400070413879500894585C33A95834705007C
:101284000547994593F6F7066398E600E207E18778
:10129400814563D30700B9452E8582808545EDBF1E
:1012A400411126C206C622C4973400009384C47236
:1012B4003DED9440AE87F8527DFF37F400E03E8563
:1012C400973700002387076E832704D1B285ED9BEF
:1012D4002328F4D0832704D193E787022328F4D06A
:1012E40073005010974001E0E780A0959737000005
:1012F4009387C76B9C43B70680009843558F98C368
:10130400D857719BD8D797370000A385076A9737BA
:101314000000A38F07689C40094798C3832704D122
:1013240093E787002328F4D0730050100DA08D4755
:101334006315F50497370000938747679C43B70606
:1013440080009843558F98C3D857719BD8D7944041
:10135400173700001307C76583472700858B89EB80
:1013640083473700858BC1CB9737000023840764FC
:10137400B24022449244410182808547E319F5FC3E
:10138400B7F700E003A707D16D9B23A8E7D003A715
:1013940007D11367870223A8E7D073005010984041
:1013A4008177FD175447F58F5CC70F1000009840F4
:1013B400B70702001CC7930700F817360000230B79
:1013C400F65E973700009387675E9C439C439D833A
:1013D400858B639FA700930760197CD354C737F7A5
:1013E40000E0832707D193E787002328F7D02DBF98
:1013F4009307E01BDDB7FC52A5F39DBF97370000B0
:101404009387875D9C438847D847798D09C988C7E6
:101414009387C19203A307006303030002838280BE
:10142400973700009387475B98438967938707F44E
:101434007CD3973700009387675F9C4383A6070993
:10144400139656006358060083A607091396660090
:10145400634406007453FDF282804111B7E700E053
:1014640022C480433707200006C6798C23A0E718DE
:101474000F10000011C199E5B7E700E023A0871021
:1014840001457DA893073500C207C183F19BC207BC
:10149400C183130740036369F7021737000013077A
:1014A4002762084317370000130707611443639248
:1014B400A602173700001307E731185B55DFC20790
:1014C400DD8D054502974DBF173700001307075FF1
:1014D400C9BF035765002DEB035745006366F70644
:1014E400B306F7402146637CD602032805009386A1
:1014F40087001D8FAA9661171736000003566628C9
:101504002392E60023A006012393060014C12312AC
:10151400F500130786FF973600002394E62623136D
:10152400B5009735000083D5C525B387F540173737
:1015340000002318F724B7E700E023A08710210553
:10154400B240224441018280084195B7B7E700E0E8
:101554008C433707200023A0E718F98D0F100000F3
:1015640001E523A0B7108280973700009387475581
:1015740003A30700973700009387075483A8070045
:1015840081469A8763F2170D03A807006361F50C7F
:10159400636FA80A138787006368E50A03D66700A8
:1015A400216705076317E60003C7419205072382F5
:1015B400E192173500001305651C03D64700035755
:1015C400650023930700329742074183173E0000CA
:1015D4002319EE1A638C6702173300001303034EBA
:1015E400032303006304F30203D3660063100302BE
:1015F40083D7460023A0060121073E9621062392A5
:10160400C60097370000239EE716B6879843630DFC
:101614001703973600009386664A94426306D702FE
:101624008356670095E283D6470003564700184364
:10163400A106B2962392D70098C383576500A107E9
:1016440017370000231FF712B7E700E019BFBE8663
:10165400C2870DBF03278511630407120346E504FF
:10166400854663000612411122C406C68347C5009D
:101674002A8493F7C70F2306F50083459700035880
:10168400C7001395850161856370060963590506D2
:101694000345870093F5F507A304B70093E52700F6
:1016A4006314D50093E517002306B4005C4389074F
:1016B4005CC3A30AC400032504114C430905EFF0DD
:1016C4000FA68327841103465401D44303D7C700CC
:1016D400B296118FD4C32396E7008947A30DF40073
:1016E400034764039737000083C7E70F6377F70462
:1016F4008347C40093E707012306F4003DA893E75A
:1017040017002306F40075B71376F80F635D05021E
:101714000345870093E527006314D50093E517007C
:101724002306B400A30AC400A30407008547A30D3D
:10173400F400832784119C43C5F7B24022448146B8
:1017440036854101828093E717002306F400A30A3B
:10175400C400A3040700032504114C434286090571
:10176400EFF0EF9B8327841103465401D44303D73E
:10177400C700B296118FD4C32396E7008D4745BFA7
:1017840085463685828097370000938767469C4359
:10179400411122C406C6858B2A84C5EF4165130511
:1017A40025F5970002E0E780408645C58347A500FC
:1017B4002315F50083270412BDE72320A412232256
:1017C400A41285472311F4042320050083476401F0
:1017D40054412316F5000347D4002304E5000547CC
:1017E400A304E500173700001307871C585313851B
:1017F400170215811C437D151375F50F9CC25C43BC
:10180400DCC21C479CC65C47DCC61C4B9CCA5C4BB8
:10181400DCCA1C4F9CCE5C4FDCCE19CD93860602ED
:1018240013070702C1BF8327441288C383572404C4
:101834002322A412850779B79737000083D7072995
:101844008507173700002313F728B24022444101CB
:1018540082808347C40023090400054593C74700D9
:101864002306F400DDB78347850193F7E70FD5EF2F
:1018740083479501DDEB034625018346C50009CA6C
:1018840083456503173700000347F7F563E7E50071
:1018940013F7060141CF014709C6C18A0357651CE6
:1018A40081C68356A51C369751C31307C712173533
:1018B4000000035565F7B335A70237460F00411101
:1018C40013060624814622C426C206C67D54330567
:1018D400A702972002E0E780604F9737000083C794
:1018E400D7F0B384A700973700009387A71D03A7F9
:1018F40087098327070963F387003E84184375FB30
:1019040097370000938747EC9C4382978147636431
:10191400A400B307A440B2402244B3B7970093C7CE
:10192400170092443E854101828081473E85828032
:10193400973700009387470A98433C5BFDFF0100FB
:1019440001008280011122CC4AC84EC606CE26CAA6
:1019540052C456C25AC00347B50085472A842E890B
:10196400832905096311F72683570508835AC5039C
:10197400173A0000130ACAEA173B0000035BCBEADC
:1019840063FB5721834605016397E62003278511EE
:10199400631307200327450A631F071E8346F500C8
:1019A4001D47639AE61E03471401B38AFA40139550
:1019B4000A01418121CF9377170099CB8357E4051E
:1019C40083560404958F63D5A700139507014181BD
:1019D4009377270099CB8357E41283560404958F99
:1019E40063D5A7001395070141819377070199CB2C
:1019F4008357C41483560404958F63D5A7001395A5
:101A040007014181218B11E311E105450357A4032B
:101A14009307204E832444093305A70237460F0059
:101A24008146130606243305F5029737000083C761
:101A3400C7DBB3549502B335AB02BE94C204C18074
:101A4400231394083305AB02972002E0E7800038A3
:101A5400B307350133B5A7002E953E8783264A0088
:101A640019E163E4D7003387D740B3846403B746EE
:101A74000F009387F623938606242320E900A69774
:101A8400B3D7D702D6976362F7101D8F2320E900DE
:101A940097390000938949D383A709008324090057
:101AA400829763E5A4123385A4406354050C83A78D
:101AB40009008297032709006361E512198D835792
:101AC400E40317370000035727D68E07B387E702CE
:101AD4001307003293870719B3D7E70263E7A71008
:101AE400374A0F00130BFA23973A0000938A4AD31C
:101AF400130A0A248357040485072310F404834734
:101B0400041499E322855922228597E001E0E780B5
:101B1400404375E9832604098327C40803A74A00C0
:101B2400B6973E8563E4D70063E4E7003385E74076
:101B34008347F401835464082328A4088507A30F6A
:101B4400F4009737000083D727CEB384F402DA94E5
:101B5400B3D444036368950CB304954083A7090088
:101B640023209900829763E3A40C3385A440E343C4
:101B740005F89737000083C757C763E7A708973767
:101B8400000023A187FE014541A083264A00B387B4
:101B9400F6403E97E5BD8354640837470F0093072A
:101BA400F723B3846403BE9493070724B3D7F402E2
:101BB40063E7F900B387F9402320F900D1BD032777
:101BC4004A00BA99C5BF23A03501D9B5973700009B
:101BD400938707C5DC43BE94F9B597370000938714
:101BE40027C4DC43998F3E95D9BDA145228597E052
:101BF40001E0E780E02DA305A40297370000938756
:101C040067BD9C5B81EF7D55F2406244D2444249FA
:101C1400B249224A924A024B0561828089451545A0
:101C24008297D5B7B3049740AA940DBF83A74A00FF
:101C3400BE9425BF39C901116C0022CC06CE2A847A
:101C440011331DCDFD576302F502B24797350000ED
:101C540083C5B5B963EFB70003459402B385B740B4
:101C64002EC6973000E0E780E099F24062440561B7
:101C74008280173700001307A7BA5843BA97E9BF01
:101C840097F001E0E78060E9CDB78280797126D2D0
:101C940006D622D44AD04ECE52CC56CA5AC85EC6B4
:101CA4008347550303447513AA843E941374F40FB5
:101CB4009307400263F687001304B4FD1374F40F12
:101CC40003AA841383AAC413A38B84122286528585
:101CD400D685972002E0E78060CC058915E503CB23
:101CE400D41201498149337B6403930B50024A8621
:101CF4005285D685972002E0E78040CA058915C53C
:101D0400639169031374F90F238B8412B250225424
:101D140092540259F249624AD24A424BB24B45614B
:101D240082808509E20993D989410509E31179FD86
:101D3400E1BF8327850903560504797193D607010A
:101D4400BD8EC206C182358E1357764093575640D6
:101D5400898B058B5D8F93573640918B5D8F93579D
:101D64001640A18B5D8F93171600C18B5D8F93175F
:101D7400360093F707025D8F93175600935586003C
:101D840093F707041E065D8F1376F60F518F93D7D2
:101D9400554013D63540118A898BD18F13D675409F
:101DA400D18F13D61540218AD18F13961500418AFD
:101DB400D18F1396350013760602D18F13965500F2
:101DC400137606049E05D18F93F5F50FCD8FA207E8
:101DD40045465D8F3307C70222D42A8426D252CCCB
:101DE40056CA032A8413832AC4135AC806D63697BC
:101DF4004207418393577740135557400989858B90
:101E0400C98F135537401189C98F1355174021893C
:101E1400C98F131517004189C98F1315370013751E
:101E24000502C98F131557009355870013750504D0
:101E34001E07C98F1377F70FD98F13D5354013D7E2
:101E440055401189098B498F13D57540498F13D596
:101E540015402189498F139515004189498F1395A0
:101E6400350013750502498F139555001375050444
:101E74009E05498F93F5F50F4D8F2207D98FB387B0
:101E8400C7024AD04ECE5EC662C4B697C207C183AB
:101E940013D7774013D557400989058B498F13D53C
:101EA40037401189498F13D517402189498F1395DC
:101EB40017004189498F1395370013750502498F1F
:101EC4001395570093D58700137505049E07498F12
:101ED40093F7F70FD98F13D5354013D75540118990
:101EE400098B498F13D57540498F13D51540218926
:101EF400498F139515004189498F13953500137542
:101F04000502498F13955500137505049E05498FE5
:101F140093F5F50F4D8F2207D98FB387C7021306A8
:101F240050025285D685B697BD8E93940601C18022
:101F340033F6C402137BF60F972002E0E78000A675
:101F440005890DED8347D41201498149B384970271
:101F5400130C5002C1804A865285D685972002E030
:101F6400E780C0A30589937BF90F11C56386340309
:101F7400850993F9F90F0509E31F89FD230B641300
:101F8400B250225492540259F249624AD24A424B04
:101F9400B24B224C456182805E8BCDB701119737DD
:101FA4000000938727B222CC03A4870C26CA4AC810
:101FB4004EC606CEAA8413092500854915C083C7D9
:101FC400140003473400858B6304F700405CFDB7BD
:101FD4001946930544004A85EFE0BFA1E31835FF95
:101FE4002285F2406244D2444249B249056182806A
:101FF4004111973700009387E7AC22C403A4870CF0
:1020040026C24AC006C693042500054901E8228574
:10201400B24022449244024941018280A6851305BC
:10202400A402970002E0E780000EE30225FF405C73
:04203400F1BF0000F8
:1020380097110020938101B3174100201301017CFF
:102048001305400097E5FF1F938545FB1706002001
:10205800130606FE63FAC5008322050023A0550077
:1020680011059105E3EAC5FE17450200130545F180
:10207800970500209385C5FB1386818563FAC50003
:102088008322050023A0550011059105E3EAC5FE4A
:102098001385818597350020938585B66377B500CC
:1020A800232005001105E36DB5FEFD42739002BCC7
:1020B8008D4273904280930280087390023097E2B9
:1020C800FF1F9382A2F393E232007390523097225B
:1020D8000000938222E473901234730020303D4351
:1020E8002A876373C3029377F700BDEFADE5937654
:1020F80006FF3D8ABA960CC34CC30CC74CC74107B0
:10210800E36BD7FE11E28280B306C3408A069702CA
:10211800000096966780A6002307B700A306B700BD
:102128002306B700A305B7002305B700A304B7002B
:102138002304B700A303B7002303B700A302B70023
:102148002302B700A301B7002301B700A300B7001B
:102158002300B700828093F5F50F93968500D58DFF
:1021680093960501D58D61B79396270097020000D5
:1021780096968682E78086FA9680C1171D8F3E96CE
:10218800E374C3F8A5B7B717004003C777051377FB
:10219800E70FA38BE704130700F8A38DE7043D4777
:1021A800238CE70413075003A38CE70403C7A70590
:1021B8001377D70F238DE7048280B717004003C732
:1021C800E7020D8941111377C70F498F93068008DD
:1021D800F3B6068093F6860836C60F1000009306FD
:1021E80070052380D704930680FA2380D7040F1044
:1021F80000002387E70223800704B247F3A707807C
:102208000F1000004101828041112A83014E930E74
:10221800407E130F0019930F400663E56E12930872
:10222800001913034006B3781503854E0D4FA14FCF
:10223800337365020D891335150063EFBE12130859
:10224800F6FF794672984208135808013307C70207
:1022580013D61700BE0732976146B3F6C6021306B7
:102268008070B386C6023697A166F58F42075D8FE8
:10227800B716004083C7F60293F70708A303F100D7
:102288000346710083C7F60293F70708E394C7FE75
:1022980083477100B716004093F7F70F638807125A
:1022A80093078008F3B7078093F787083EC40F1099
:1022B8000000B7170040930670052380D7049306E3
:1022C80080FA2380D7040F10000023AA070383C6CF
:1022D800170393E60608A388D70223800704A247BA
:1022E800F3A707800F1000001166B71700407D168E
:1022F800D45BC85F93854703A98EF18EF5FA9306E0
:102308008008F3B6068093F6860836C60F100000DC
:10231800930670052380D704930680FA2380D70498
:102328000F10000098C103C7170313670704A38899
:10233800E70223800704B247F3A707800F100000C5
:10234800410182807D133368E3039308E016630E2E
:1023580008003368F3039308D016630808009378DD
:10236800330093B818009388D81633081E01131E3B
:102378000801135E0E0155B56393E50305486386AE
:1023880008000148630303002A8871087298FD1544
:10239800131E0801C205135E0E01C18179BD13F831
:1023A800150063F4BF007908D5B713381800E5BFE6
:1023B80083C7F60293F70708A303F10003467100E9
:1023C80083C7F60293F70708E394C7FE83477100B3
:1023D80093F7F70FF1DFE9B531714AD966CB06DF1C
:1023E80022DD26DB4ED752D556D35AD15ECF62CDE9
:1023F8006AC96EC7AA8C02D8EF0010122A899307FF
:102408008008F3B7078093F787083EDA0F100000BB
:10241800B7170040130770052380E704130780FAF5
:102428002380E7040F10000003C7F7021377770F24
:10243800A387E70203C7F70213678700A387E702AA
:1024480023800704D257F3A707800F100000054523
:10245800AD33130780C13347E902116A93070AE8CD
:1024680093065002BD69930BA004814A014B1304E3
:102478008008930470057D1AB347F9023307D70221
:102488003EC0FD873ECC938709A69309803E33471B
:10249800F7023AC27D873AC4334739038549B3996D
:1024A800990193D93940B306D702B30B7703B3C662
:1024B800F602B3CBFB0236C6FD8636C893D6FB417F
:1024C80036CEB7460F00938606243349D90285666F
:1024D800938606FAB3969601B389E9021307605505
:1024E8003309D90293060010B389E9023349D902A6
:1024F800B3C9F9029316390036CA37190040FD8668
:1025080036D0930D090493D7F9413ED2F3360480AF
:1025180093F6860836DC0F100000930770052380B9
:10252800FD00930680FA2380DD000F10000083462B
:10253800390593F6860FA309D9048346390593E62E
:102548001600A309D90423800D00E256F3A60680DD
:102558000F100000130C80FA116DF336048093F607
:10256800860836DE0F100000930770052380FD00F3
:1025780023808D010F10000083463905216693E6FC
:102588000602A309D90483560905B3E6A601231850
:10259800D90483560905D18E2318D90423800D0048
:1025A800F256F3A606800F1000008346390593F60D
:1025B80006026389061803463905218A6DDE081864
:1025C800612F7336048013768608B2C20F1000009C
:1025D80023809D0023808D010F100000B717004055
:1025E80003C637051376F60DA389C70403C6370556
:1025F80013660602A389C704835609052166B3E654
:10260800A6012318D90483560905D18E2318D904A5
:1026180023800D009646F3A606800F10000083461F
:10262800390593F606026386061483463905A18A9E
:10263800EDFE97E0FF1FE78080A5AA8636D497E0D5
:10264800FF1FE780C0A4A256E30AD5FE83560905FA
:102658004255B3E6A6012318D904392F8346390514
:10266800A18AEDDE0356090583462905824733769C
:10267800CA00B306DA0293D5F641B296B388F6409B
:10268800E24733B8C6002E983308F840A247B3B6DD
:1026980016013308D84063C70701631DF800924745
:1026A80063FA1701C247634DF80E63950701B247F5
:1026B80063E8F80E894663E7660FF246931518003B
:1026C80013D3F8015E8613951800B365B30042D69C
:1026D80046D4EF1062313258050B137BFB0F63476A
:1026E800000163120838A258638F083613081500D2
:1026F800B336A800B69513D6F5013298B336C8009C
:10270800AE9613581800FE06B3E606017336048029
:1027180013768608B2C60F10000023809D00238020
:102728008D010F1000000356C902B296C206C1827D
:102738002316D90223800D00B646F3A606800F1093
:10274800000021BDF336048093F68608B6C00F104A
:10275800000023809D0023808D010F100000834618
:10276800390593E60602A309D90423800D0086469D
:102778000DBDF336048093F68608B6C40F1000002A
:1027880023809D0023808D010F10000083463905AA
:1027980093E60602A309D90423800D00A646A5BD29
:1027A800E30D0BF0F336048093F68608B6C80F10D5
:1027B8000000930680FA23809D002380DD000F101F
:1027C80000008346390593F5FC0F93F6860FA3099D
:1027D800D90483463905CD8EA309D90423800D0079
:1027E800C646F3A606800F100000130580FA0346BC
:1027F8003905930639051D8A6314962973360480B2
:1028080013768608B2CC0F100000130680FA2380D6
:102818009D002380CD000F10000003C6060013762C
:10282800F60D2380C60003C6060013660602238041
:10283800C600835609051166D18E2318D90483561C
:1028480009052166D18E2318D90423800D00E64698
:10285800F3A606800F100000130680FA8346390598
:1028680093F606026388062483463905130C390556
:10287800A18AFDDA0818CD21F336048093F686087C
:10288800B6D00F100000930680FA23809D002380A5
:10289800DD000F10000083460C00116693F6F60D5C
:1028A8002300DC0083460C0093E606022300DC00CC
:1028B80083560905D18E2318D90483560905216644
:1028C800D18E2318D90423800D008656F3A60680DE
:1028D8000F100000130680FA8346390593F60602A6
:1028E8006385062083463905A18AEDFE97D0FF1F30
:1028F800E780E0792A8C97D0FF1FE7804079E30CC6
:1029080085FF8356090511664255D18E2318D904CF
:10291800A5218346390513063905A18AFDDAF33660
:10292800048093F68608B6D40F100000930680FA48
:1029380023809D002380DD000F10000083460600E1
:1029480093F6F60D2300D60023800D00A656F3A6B5
:1029580006800F1000008356090503462905D24753
:10296800B376DA003306CA021305800C9355F64194
:102978003696330DF6408257333CD6002E9C3336BC
:10298800A601330CFC40330CCC4033088503925627
:102998004E86B335A5033305A503C295EF10C204CF
:1029A80063468001631E0C16630C0D161306150092
:1029B8003335A6002E959356F5013696B335D600D5
:1029C800AA959396F50105828585D18E6346B00058
:1029D800639D051A638B061A0356C90215823305CF
:1029E800D6003336C500B2956348B000639105241C
:1029F8001306F00F637DA622894663F356159307E5
:102A08008008F3B7078093F78708BED60F10000039
:102A180037170040930770052300F704930780FADF
:102A28002300F7040F1000008356C7028967811737
:102A3800D58FC207C1832316F70223000704B657B0
:102A4800F3A707800F100000FA506A54DA544A5965
:102A5800BA592A5A9A5A0A5BFA4B6A4CDA4C4A4DC6
:102A6800BA4D296182801308F5FF3335A800FD159A
:102A78002E951356F5013298B336C800AA9651B16F
:102A8800F336048093F68608B6CA0F100000238038
:102A98009D002380AD000F10000083463905CD8EC0
:102AA800A309D90423800D00D646F3A606800F108B
:102AB800000035BBF336048093F68608B6CE0F10B7
:102AC800000023809D002380CD000F100000834666
:102AD800390593E60602A309D90423800D00F646BA
:102AE800F3A606800F10000095BBF336048093F61A
:102AF8008608B6D20F10000023809D002380CD00E9
:102B08000F1000008346390593E60602A309D9048D
:102B180023800D009656F3A606800F1000006DBBAB
:102B28009306F5FF33B5A600FD152E959355F501CF
:102B3800AE96B3B5B600AA951396F501858269B528
:102B4800F336048093F68608B6D80F100000930673
:102B580080FA23809D002380DD000F10000083563B
:102B6800C9020566011693F6F60FD18EC206C18218
:102B78002316D90223800D00C656F3A606800F102F
:102B88000000850A93FAFA0F51B233E6B60045C23F
:102B98000356C9023305D0403338A000B305B0400E
:102BA800B385054115826345B000D1E16371A6087C
:102BB800894663F0560593078008F3B7078093F7B3
:102BC8008708BEDA0F100000B7170040130770051A
:102BD8002380E704130780FA2380E7040F1000001E
:102BE80003D7C7027D8B2396E70223800704D657B5
:102BF80081BDF336048093F68608B6DC0F1000001A
:102C0800930680FA23809D002380DD000F100000CA
:102C18008356C9020566011693F6F60FD18EC206D1
:102C2800C1822316D90223800D00E656B9B793074F
:102C38008008F3B7078093F78708BEDE0F100000FF
:102C480037170040930770052300F704930780FAAD
:102C58002300F7040F1000000356C702939756008D
:102C6800B297C207C1832316F70223000704F65759
:102C7800C1BB914763EEB7021737020013074783BA
:102C88008A05BA959C41BA978287B717004003A76F
:102C9800470B1345F5FF698F23AAE70A03A7070B1C
:102CA800698F23A8E70A03A7070A798D23A0A70A33
:102CB8008280B717004083A6470B1347F5FFF98EAC
:102CC80023AAD70A83A6070B558D23A8A70A83A68C
:102CD800070A758F23A0E70A8280B717004003A769
:102CE800470B498F23AAE70A03A7070B1345F5FFEC
:102CF80045BFB717004083A6470B1347F5FF758FED
:102D080023AAE70A03A7070A598D4DB7B71700404A
:102D180003A7470B498FEDB7B7170040884742050F
:102D280041819377050491EB9377F5013755E801D5
:102D3800130505803345F50282809377050C130748
:102D480000046397E7009377F50137459C1CCDB7DE
:102D58002165130505D0828037E700E01C43544302
:102D6800A183E206D58F1CC1FD572320F718232223
:102D7800F7180F100000828013178500B7E700E0EE
:102D880023A0E710618123A2A7108280B7F700E093
:102D98008847CC478280814737370040A14663C4C3
:102DA800C700328582800345B740E38EA6FE33858F
:102DB800F5000345050085072304A740CDB797F71D
:102DC800FF1F9387275A9C4317270020130747E3C1
:102DD8003E95636EE5001747002013072782636856
:102DE800A70017F7FF1F232FA7563E858280FD57A0
:102DF800EDBF411122C406C62A84393F2947B307CB
:102E0800E502B2408D83B3D7870222449507B3D732
:102E1800E70237370040C207C1832316F740410154
:102E28008280716541111305052006C6D937B73769
:102E38000040130770F82381E7400D47A381E7405E
:102E480013070004A380E74005472387E740B24003
:102E580041018280411122C406C62A84753D294752
:102E6800B307E502B2408D83B3D7870222449507A2
:102E7800B3D7E70237470040C207C1832316F7C01C
:102E880041018280716541111305052006C6D937B5
:102E9800B7470040130770F82381E7C00D47A381A7
:102EA800E7C013070004A380E7C005472387E7C0EE
:102EB800B24041018280B747004003C717C019C913
:102EC800D98DA380B7C003C707C0136787002380C5
:102ED800E7C0828093C5F5FFF98DA380B7C08280D3
:102EE800CC41411106C6328503C6150083C50500CD
:102EF80022064D8E42068D654186138875A2630CA5
:102F0800060F6348C804138845A26306060B634A84
:102F1800C800938535A26309B606239006002946A2
:102F280079A0138855A26308060B938565A2E3165A
:102F3800B6FEC1451D4663ECE5064546198E63F3AA
:102F4800C7003E862390C6009725020093858558C2
:102F580089A8138895A26300060F634E060B138891
:102F6800A5A2630A060F938505A5E318B6FA994545
:102F78001D4663EEE502198E63F3C7003E86239073
:102F8800C6009385C18031A89D451D4663E1E502D1
:102F98002146198E63F3C7003E862390C6009385A9
:102FA8008185BA9597E0FF1FE78020970146B240D8
:102FB800328541018280AD451D46E3EAE5FE314692
:102FC800198E63F3C7003E862390C600972502003A
:102FD80093850554F9B7B1451D46E3EAE5FC354646
:102FE800198E63F3C7003E862390C600972502001A
:102FF800938505537DB7C1451D46E3EAE5FA454685
:10300800198E63F3C7003E862390C60097250200F9
:103018009385854D79B7C1451D46E3EAE5F84546F0
:10302800198E63F3C7003E862390C60097250200D9
:1030380093850550BDB7C1451D46E3EAE5F645460B
:10304800198E63F3C7003E862390C60097250200B9
:103058009385C54AB9B7B5451D46E3EAE5F439464F
:10306800198E63F3C7003E862390C6009725020099
:10307800938545453DB797F6FF1F9386660E4146F3
:10308800CD4517F5FF1F1305A5FA6F80B04C114504
:103098006FF08FB4411193962500AA852D4506C679
:1030A80097D0FF1FE7804048B24001454101828028
:1030B800011122CC06CE3714004026CA4AC84EC693
:1030C80052C483447405034AB405834984050349FB
:1030D8009405EFF04F8B8347A40593F4F40F137A0C
:1030E800FA0F93E71700230DF40493F9F90F1379F6
:1030F800F90FB717004003C7A705058B6DFF03D568
:10310800C705A38D4705238C3705A38C2705A38BFB
:103118009704F2406244D2444249B249224A0561C6
:10312800828041119397050122C406C6C1872E8467
:1031380063DD0700EF00D07219C1EF00506621650A
:10314800218DB24022444101828093F7150013C5B6
:103158001500E5FB93F7250013C52500FDF39397AC
:10316800250163D00702EF20012A153737F6020040
:10317800130606E0896503C54186EF10E04F09652F
:10318800C1B7939715010145E3DD07FA172502003A
:103198001305C53FEF10421913060064916503C576
:1031A8004186EF10604D116561BF2D71232A911082
:1031B800FD74E98C232C8110232821112326311139
:1031C8002A84AE893289930600100A86A6852D4581
:1031D800232E111097D0FF1FE780003513154401E7
:1031E80051810A0513962900CA850A9597D0FF1FB1
:1031F800E780A072A68585660146254597D0FF1F02
:10320800E78080320A86A68593060010294597D064
:10321800FF1FE78060318320C111032481118324BB
:103228004111032901118329C11015618280B7F763
:10323800070003C70701411106C622C426C24AC0B7
:10324800A547631AF7009537B240224492440249D1
:1032580001454101828013942500AA843289A286FF
:10326800AA850146254597D0FF1FE780E02BA28657
:103278004A86A685294597D0FF1FE780E02AE9B747
:103288001D714946972502009385C52B1725020015
:103298001305057486CE97D0FF1FE780407501E9B6
:1032A800172502001305452BEF10020801A0B7F6F9
:1032B80000E0795798CAFD57DCCA0567B7E700E010
:1032C80023A0E7101306F00290C223A0E7180F10FE
:1032D800000017E7FF1F1307A7C123A0E186415786
:1032E800A38AE740130600048145080897D0FF1F0A
:1032F800E780C069970700209387C7C23EC88967DF
:1033080093870780231AF1009D673ECCB707010514
:10331800938707103ECEED472310F102854723011E
:10332800F10297070000938727D7BEC297070000CE
:10333800938727F0BEC48567938757D12312F1027C
:10334800970700009387C7A43ED8B7F507009707EB
:103358000000938727D63EDC8146970700009387B5
:1033680047D33000E10519453EDE97D0FF1FE780BF
:10337800A01B18088147994630003E960346060070
:1033880085070507A30BC700E398D7FEC24791C777
:103398000357410185676373F70001A08307410262
:1033A80063D7070493078008F3B7078093F7870864
:1033B8003EC40F100000B7170040130770052380A4
:1033C800E704130780FA2380E7040F100000B847CA
:1033D800B706100013670718B8C79853558F98D3C6
:1033E80023800704A247F3A707800F1000000808EE
:1033F800EF105013AA8501C91725020013050517F8
:10340800EF00F26001A0F6402561828041111705A6
:103418000000130545D106C622C4EF10F00C138432
:1034280041862300A4001928034504002244B24021
:1034380013060032896541016F100024797106D6A0
:1034480013078008F337078093F787083EC20F10E9
:103458000000B7170040930570052380B7041306D2
:1034680080FA2380C7040F10000083C6F70293F682
:10347800A60FA387D702238007049246F3A60680E7
:103488000F10000073370780137787083AC40F10AE
:1034980000002380B7042380C7040F10000003C76F
:1034A800F70213672700A387E70223800704A247D0
:1034B800F3A707800F1000000545EFE01FD0C13EBD
:1034C800814701478146054685451305407EEFE063
:1034D800BFD368005146814597D0FF1FE780004B56
:1034E800B707C0A83EC8B787E803938707D03ECA86
:1034F800680097D7FF1F9387C7EC3EC6EF1070365A
:10350800B25045618280797126D206D622D44AD03B
:103518004ECE52CC03C88500A1441378080263112B
:10352800080683C8050009482E848144639A080563
:1035380003A84500AA89328A83471800034808006F
:103548003689A207B3E70701C2070D68C1871308C8
:1035580028906380070581440357A40097F7FF1F4D
:1035680083D767C6631EF7009387C1869C4389CBC0
:103578000D473AC22316210152C44C004E8582974A
:10358800B2502254268502599254F249624A456142
:1035980082808547EF60D03FAA845DFD9387C1860E
:1035A800984355DB83471A0083460A004C00A2075C
:1035B800D58FB337F00085073EC24E85029769BFA5
:1035C8000111172502001305A5FC22CC2EC6328452
:1035D80036C406CEEF005255B2458947A24603C607
:1035E80005006319F602D84183471700034707000F
:1035F800A207D98FC2070D67C18713072790639B5E
:10360800E700CC452390C6002285094697D0FF1FC6
:10361800E780A030F240624401450561828041673D
:103628007917630CE502411122C406C685472A842E
:10363800639AF50022852244B2409385819741011F
:103648006F80207C89476396F5008545EFA0903709
:1036580075D1B2402244410182808280411126C244
:10366800AA844165938581977D1506C622C4EF809B
:103678004079170500001305C5FAEFA0F02B97F65F
:10368800FF1F9386A6B44146994517F5FF1F1305FA
:10369800E5ADEF80206C2A8419C5172502001305B3
:1036A800E5EFEF0072482285B240224423A69186B6
:1036B80092444101828041119385819706C6EF604B
:1036C800F027B2407D151335150041018280411164
:1036D80022C42E849385819726C206C6AA84EF60E9
:1036E800F025058915C197F7FF1F938727A883D76A
:1036F800A702A285B2402310F400224426859244F2
:10370800014641016F707000B2402244924449451D
:103718004101828083572500035505003385A74062
:10372800420541818280AA8705C21307F6FFB37656
:10373800C700054599EA23A00700CCC32394C70016
:103748002395E700014582800545828023200500F6
:103758008280AA871145B5C72DC683D6070003D72F
:1037680087000D45369783D62700158F420741837A
:1037780029CB0145B9C5835606006373D700BA86BD
:10378800C206C18201471315070141816366D5004E
:103798002310D600014582803385E5008348050063
:1037A80003D8A70003D52700050733780501C843C8
:1037B80042952300150103D5270005052391A7008D
:1037C800D9B782802A8729CD835605008357A5005B
:1037D800B697835625008507958FC207C183BE8695
:1037E8006373F600B286C206C1820D459DCB814740
:1037F8006394D70001458280035627000355A7002C
:1038080003C805008507718D5043C207C1832A96F6
:10381800230006010356270005062311C700C9BF68
:1038280011458280AA871145B1CF29CE83D60700DA
:1038380003D72700158F8356060042074183637319
:10384800D700BA86C206C18209450DCF0147636613
:10385800D7002310D6000145828003D5070003D87E
:10386800A70033780501C84342950348050033850E
:10387800E50005072300050103D50700050523908A
:10388800A700F1B7828029C5035705008357250093
:10389800998F3E87C207C1836373F6003287420758
:1038A8004183814763E4E700014582808356050030
:1038B8000356A5008507758E5441B29683C6060047
:1038C8002380D5008356050085062310D500D9BF6F
:1038D800114582802A86B305B040172502001305DA
:1038E800E5DC6F00D21283D781886390A702239505
:1038F800B1882396C1882397D1882E861725020080
:10390800130545D7BE856F009210172502001305D1
:10391800E5D76F00722103574500011106CE83D702
:1039280081886315F702C167F91723A4F18823A6D4
:10393800018885471306F100854513055030A30714
:10394800F100EF70D14EF240056182801725020028
:10395800130545C8EF00521DFDB7411193970501A6
:1039680022C406C626C24AC0C1872E8463D1070274
:1039780003C59181EF00C06E19C1EF004062216557
:10398800218DB2402244924402494101828093F73A
:10399800150091CF17F6FF1F1306068493858198AB
:1039A80003C59181EF70111513451400D9BF93F722
:1039B800850099CF83C791811307400681465146F8
:1039C800A14503D58188EF70510E1345840055BF7A
:1039D80093F705010145D5D7938741829C438544D8
:1039E8006389970081C70D496377F910134504016E
:1039F80049BF03D58188C13103D7818809E9C167E7
:103A0800F917E315F7FE138541198933C5B73A85C8
:103A1800EF10F07875152398A18813854119DD39C1
:103A280083D70189636CF50813854119E531AA85A7
:103A380017250200130585BAEF00627D13860189F8
:103A48009385C13A13854119F13B1375F50F23AAE4
:103A5800018849FD03D6018901478146ED4503D513
:103A680081882391C188EF60602723A2A188630E13
:103A7800050C03D621889385C13A97D0FF1FE780AC
:103A8800C0E993850188014603D581888931AA85D3
:103A980029CD17250200130565B6EF0042778D473B
:103AA80023A2F182ED4513850188EF60E03A0946CB
:103AB800C14503C59181EF00303C0DBF9384418916
:103AC8009840A947E3ECE7F61146C14503C5918143
:103AD800EF00903A9C4017250200130525B1850791
:103AE80023AAF188EF00520411B7854723A2F18277
:103AF800239801886DBF03D6018901478146ED45AA
:103B080003D581882391C188EF60401D23A2A18835
:103B18000DCD03D621889385C13A97D0FF1FE78042
:103B2800C0DF93850188014603D581884D36AA8573
:103B380011C917250200130525ADEF00426D23A218
:103B480021838DB723A2918265B7894723A2F18289
:103B5800B9BF3D897D15954763E2A7121727020073
:103B68001307C7A50A053A951C41411122C406C688
:103B7800BA972E848287172502001305A5B422441C
:103B8800B24041016F00427A03C725009947631488
:103B9800F7002E854933172502001305A5B3C5B7CD
:103BA80003C7250095476317F70CC16703D78188BA
:103BB800F91703D5A500630FF700EF7031591725E2
:103BC8000200130525B2EF0022761725020013051F
:103BD800E5B375B72394A18883D7E5000966130672
:103BE80006902395F18883D7050103C59181239613
:103BF800F18883D72501A1452397F188EF00D027C5
:103C08000356E4008355A400172502001305C5AE2A
:103C1800EF00E25F5DBF172502001305E5AF85B72A
:103C280083C5250091476397F50017250200130502
:103C380025B0B1B79947639FF5002285E9398345D7
:103C4800640017250200130565B02244B240410103
:103C58006F00E25B9547639AF50083471400F1F71C
:103C680017250200130545B019BF172502001305D3
:103C780025B0E1BFB2402244410182808280011117
:103C8800680006CEEFF04F8D83C7218989CB09469E
:103C9800C14503C59181EF00301E23890188324553
:103CA800EFF08F8DB745004083C7B5C01D47636DE2
:103CB800F70083C7B5C02146938585C01D8E42068F
:103CC80041821385013AC136F24005618280411173
:103CD800130600209385011A1385013A06C622C4EB
:103CE800EFF07FA405661306068097F5FF1F9385FE
:103CF800A58013854119EFF01FA3371400408327CF
:103D0800840A8D451305000293E707022324F40A69
:103D1800EFE03FF68327840A8545414593E707018D
:103D28002324F40AEFE0FFF4EFF0CF95954505451D
:103D3800EFF06F98B2402244B7E700E0114723A2A2
:103D4800E7104101828001112317B1001306E10039
:103D5800AA851385013A06CEEFF0BF9FF2400561B0
:103D680082809C41011106CE22CC09476383E70279
:103D78000D476386E70205476399E700AA8517257B
:103D8800020013052589EF008248F240624405616C
:103D98008280AA85172502001305058AEDB72E84AF
:103DA80083D58500172502001305458BEF002246B1
:103DB800835784004C401306E100138541192317EB
:103DC800F100EFF01F990946C14503C59181EF0045
:103DD800B00A835584004840BD3745BF0111170517
:103DE80000001305C5B706CE22CC26CAEF00D06F57
:103DF80093849181994705442380A4002315F100F9
:103E0800130691009307803E85451305503023160D
:103E1800F100A3048100EF70910117E6FF1F13065C
:103E2800E63DE54513057030EF7071001386C181DA
:103E38009D4513056030EF70817F1306A100894509
:103E480013051031EF70A17E7000894513052031EC
:103E5800EF70E17D9305000A0D45EF20707593051D
:103E6800000A1145EF20D074700091451305704089
:103E7800A303810023048100A304810002C6230553
:103E88000100EF60413313067100854513050040BA
:103E9800EF6061323000854513051040EF60A131B5
:103EA8001306A100854513052040EF60C1301306B5
:103EB8009100854513055040EF60E12F7D55EF5087
:103EC800302A7D55EF70D070EFF0EF9A170500009B
:103ED800130565E9EFF08FF817E6FF1F1306863024
:103EE800D5450145EF507016C16713878188F917CA
:103EF8001CC32322070013854187EF40517A03C56D
:103F080004008545AD2BF2406244D24405618280AD
:103F180041111305800406C697C0FF1FE780A0184B
:103F2800371700408327870A8D451305002093E73C
:103F380007202324F70AEFE0DFD3EFE09FEE1725F1
:103F480002001305E5A8EF00223EEFF06FB3EFF093
:103F5800EFCBEF70F12159359D3B97C0FF1FE780EC
:103F6800C04F23AC05FE1C4191E7010001000CC1C4
:103F78008280BA8703A787FF6DFF23ACB7FE8280D4
:103F8800184183A785FF6319B7001CC1FD5723ACEF
:103F980005FE238FF5FE8280232CF6FEC5BF411156
:103FA80022C437E400E026C204403707200006C6D2
:103FB800F98C2320E4180F10000009E9232094103D
:103FC8001545B24022449244410182800347E5FFEF
:103FD8009307F00F6306F700232094101145D5B717
:103FE80097D0FF1FE7804056014523209410D1BF8A
:103FF800411126C2B7E400E04AC003A90400B7078C
:10400800200006C622C43379F90023A0F4180F1043
:10401800000009E923A02411B24022449244024935
:10402800410182809565938505D0C98D2A84210533
:10403800C2054205C181418197D0FF1FE780A04199
:1040480001CDFD5723200500231285002303F50029
:1040580023A024112105C9B723A0241101456DBF50
:104068000111B7E700E04AC803A907004EC63707A1
:10407800200006CE22CC26CAAA893379E90023A0DB
:10408800E7180F100000970700209387676E80439A
:104098008144014619E499E8A1654E85EF0050086E
:1040A80005A08347E4FF6399370385CCA6851705E8
:1040B80000201305E56BE93565D0A1654E85C1265D
:1040C800F2406244B7E700E023A027112685424961
:1040D800D244B2490561828091E02286032484FF9C
:1040E80055BFA284E5BF41114AC037E900E022C4A8
:1040F800032409003707200006C626C2798C23202E
:10410800E9180F10000089E523208910154515A02E
:10411800AA849707002083C7F7652E8563F5F40006
:10412800894763EE9700A53DB7E700E023A0871015
:104138000D45B2402244924402494101828083A73E
:1041480085FF99E703C7E5FF9307F00F6308F700BA
:10415800B935B7E700E023A087104DBF238F95FE40
:10416800170500201305C560ED3BA1652685012EC6
:1041780001452320891075BF9707002023AA075EF1
:10418800828097070020938727649C4399E33E85A4
:10419800828003D727006316B70003C70700E30828
:1041A800A7FEDC47E5B7A5C1011106CE22CC26CA79
:1041B8008147C14633D7F540058B29C312053E9583
:1041C80031473305E5021707002013072764044326
:1041D80005443314F4002EC642044180AA949C403E
:1041E800C8408297B24523A0040023A20400A18DF1
:1041F800F2406244D2442E85056182808507E39BA4
:10420800D7FA0144EDB72E858280C9C1797122D4CD
:1042180006D626D24AD04ECE01444147B3D7854070
:10422800858BA5C31205314722953305E50297070B
:1042380000209387A75D03A907008544B3948400F1
:10424800C204C180BE892A990327090011C7032522
:1042580049002EC60297B24531473304E40283A7CA
:1042680009003E941C4489E7232009002322090001
:10427800B2502254A58D02599254F2492E854561B7
:1042880082800504E31CE4F88144DDB72E85828032
:104298004111B7E700E022C480433707200006C673
:1042A80026C2798C23A0E7180F100000970700207A
:1042B8009387C7519C539384818299C782979C4066
:1042C8003E9523A4A18239A0970700209387474FE2
:1042D8009C43EDF78840B74703009387D73F3305E2
:1042E800F502B7A72600938737ECB24092443E9573
:1042F80023A4A182B7E700E023A08710224441014C
:1043080082800111B7E700E022CC80434AC8370712
:10431800200006CE26CA2A892E86798C23A0E71883
:104328000F100000131506019305F004418132C6F1
:1043380097D0FF1FE7802012AA8419C53246CA8584
:1043480097C0FF1FE780605DB7E700E023A08710F4
:10435800F240624426854249D244056182807971DF
:10436800B7E700E022D480433708200006D626D2DB
:104378004AD04ECE52CC56CA5AC85EC662C43374AE
:10438800040123A007190F10000005E123A08710DE
:104398000945B250225492540259F249624AD24A0B
:1043A800424BB24B224C456182809707002093878D
:1043B80027419C43BA8A368AB28B2E8BAA89829768
:1043C800970700209387874498433E898144B146E4
:1043D800C147338CD40233068701104241EAC165D4
:1043E800938505F0414597D0FF1FE780C00605E19A
:1043F800970700209387873D9C5B81C781451145BE
:104408008297B7E700E023A087102D4559B7970793
:1044180000209387673B984331E79707002023A53F
:10442800A73A23000500832709000547331797009B
:1044380023260500232475012311E50023225501B5
:10444800E29723A0370123A2670123A4570163043D
:104458000A0023009A00B7E700E023A0871001456F
:104468000DBF3E875C47F5FF48C765BF8504E392EB
:10447800F4F6B7E700E023A08710214519BFB7E796
:1044880000E09843B706200023A0D718758F0F10B7
:1044980000009706002083C6F62D6373D502170621
:1044A80000201306263293161500084236958356C7
:1044B8000500D58D2310B50023A0E71001458280A3
:1044C80023A0E7100D458280B7E700E09843B706C0
:1044D800200023A0D718758F0F1000009706002022
:1044E80083C656296375D502170600201306862D44
:1044F80093161500084293C5F5FF369583560500B7
:10450800F58D2310B50023A0E7100145828023A074
:10451800E7100D458280011137E700E026CA044301
:10452800B706200006CE22CC4AC84EC652C4F58C27
:104538002320D7180F100000130705FF1377F70F74
:10454800FD4763E5E70AB146B306D50297070020A1
:104558009387C72B984336971C43C9CB135A4500FA
:1045680005443D893315A4001314050141802E89A3
:104578005285A2853931AA8929CDA2855285A937C4
:10458800970700209387C7239C43829797070020AB
:1045980083D70729338727032A84814613060064B3
:1045A800B3B7270313050732B335E500BE95EFF01F
:1045B8003101B3078500970600209386E6253E87DC
:1045C800D44263E4A70063E4D7003387D74023A429
:1045D800E900B7E700E023A097100145F2406244E4
:1045E800D2444249B249224A05618280B7E700E0D5
:1045F80023A097100945DDB70111B7E700E026CAE7
:1046080084433707200006CE22CC4AC84EC6F98C10
:1046180023A0E7180F100000BD4763E9A70431473E
:104628003307E502970700209387471E9C43BA97F4
:104638009C438DCF05443314A400420441802E8945
:104648000145A2853D3EAA8911C5A2850145AD3D1A
:1046580023A42901B7E700E023A097100145F24001
:104668006244D2444249B24905618280B7E700E01A
:1046780023A097100945E5B779714AD037E900E0DA
:1046880026D283240900B707200006D622D44ECEAE
:1046980052CC56CA5AC85EC6FD8C2320F9180F1092
:1046A80000009707002083C7F70C637AF500970787
:1046B80000209387E71083AB070063970B00B7E7E9
:1046C80000E023A09710A9A0170B0020130BCB1410
:1046D800832A4B00B74736FE938707C82E8A97056B
:1046E800002083D5E513BE9AB387C5022A84B28910
:1046F8008146B3B5C50213850732B337F5001306F3
:104708000064BE95EFF0C16B63F0AA0223209910F4
:104718000145B250225492540259F249624AD24A8F
:10472800424BB24B45618280829B9705002083D51E
:10473800250FB38735032A89130600648146B3B56C
:10474800350313850732B337F500BE95EFF041679F
:10475800B30725013E8903274B0063E4A70063E400
:10476800E7003389E740D2852285EFF09FA109C988
:1047780023242501B7E700E023A09710054551BF82
:10478800936504F0C205C181414597D0FF1FE780BA
:1047980080CC19E997070020938747039C5B85D352
:1047A800A2851145829721BF970700209387C701EB
:1047B8009C4385E79707002023A8A7008547232661
:1047C8000500232425012311450123008500A300AA
:1047D800F5002322050079BFBA87D84775FFC8C7F7
:1047E800F1BF7971B7E700E026D28443370720008C
:1047F80006D622D44AD04ECE52CC56CA5AC85EC625
:1048080062C466C26AC0F98C23A0E7180F100000C2
:104818003DC14144B689B28A2E8A2A89B14C170B08
:104828000020130BABFE054D130C0003B30B9403D0
:1048380003270B005E971C43A5E39375F400B3159B
:10484800BD0013554440C2055686C1811375F50F46
:10485800253539C183270B00DE9723A0270123A222
:1048680047016384090023808900B7E700E023A09B
:104878009710014521A023A097100945B250225452
:1048880092540259F249624AD24A424BB24B224CE4
:10489800924C024D456182800504E31984F9B7E71B
:1048A80000E023A097102145D1BF0111B7E700E030
:1048B80026CA844322CC4AC84EC63707200006CEF3
:1048C8002A84AE893289F98C23A0E7180F100000DA
:1048D80065332285CE85EFF0DF8A2A8405C59705E2
:1048E800002083D5E5F3B3872503130600648146CA
:1048F800B3B5250313850732B337F500BE95EFF03E
:10490800214C48C013351400F2406244B7E700E078
:1049180023A097104249D244B2490E05056182800E
:104928000111B7E700E04AC803A9070022CC4EC628
:104938003707200006CE26CAAA892E843379E900D3
:1049480023A0E7180F100000EFF0BF83AA8419C155
:1049580023110500A2854E85853E9707002083C751
:1049680067E1639B37019707002083D727E55D8CB4
:1049780097070020239487E4B7E700E023A02711D6
:10498800014591E01945F2406244D2444249B24996
:104998000561828001114AC837E900E022CC03246E
:1049A8000900B707200006CE26CA4EC67D8C2320F4
:1049B800F9180F1000009307F00263E8A704B14745
:1049C800B304F50297090020938949E483A70900F5
:1049D800A6979C439DCB9377F5008545B395F50045
:1049E800C205C18111812D3F83A709000145A69702
:1049F80023A0070023A2070023208910F240624465
:104A0800D2444249B24905618280B7E700E023A059
:104A180087100945E5B74111B7E700E026C284438E
:104A280006C622C437072000F98C23A0E7180F1008
:104A38000000EFF00FF519E90145B2402244B7E74D
:104A480000E023A09710924441018280970700203C
:104A5800938707D79C430045829797070020938741
:104A6800A7DB6368A402D843B74636FE938606C818
:104A78003305A4403697E371E5FC13070064B335AA
:104A8800E50203D6870081463305E502EFF041339E
:104A98006DB7D8433A94C1BF411122C426C2170446
:104AA8000020130464D7970400209384A4CC94486E
:104AB8005840970700209387A7D006C69C43639366
:104AC800E60882975440B74736FE938707C8B697DB
:104AD8003387A7003A856364F7006364D70033051A
:104AE800D74097040020938424ECDC5081CF9707AB
:104AF8000020938727F394433707CDFF7D179C4603
:104B0800F98F9CC611E1484097070020938707CC8E
:104B1800DC53829719E5DC508DC3EF001126EFF0C6
:104B28001076DC5099CB970700209387A7EF98431E
:104B3800B70633001C47D58F1CC7B24022449244A5
:104B480041018280829794485840B387A6003E85E9
:104B580063E4D700E3E7E7F83385E74059B7411145
:104B680006C69707002023A7A7CA0295B240970751
:104B7800002023ADA7C0014541018280994763E920
:104B8800B7008A0597070020938787C1BE9588C11B
:104B980082809707002023ADA7C611C58547170750
:104BA8000020230EF7C08280411171468145170508
:104BB80000201305E5BE06C69707002023A607C0F8
:104BC8009707002023A807C49707002023AA07BE39
:104BD80097070020238507BE9707002023AA07C24E
:104BE80097C0FF1FE78080DA13068002814517050A
:104BF8000020130525B897C0FF1FE78020D9EF6074
:104C0800F16097070020938767BC03C5C70383C774
:104C1800D70385453E958D473305F502390513754C
:104C2800F50F970700202388A7B499473305F502A5
:104C38001305052497D0FF1FE780E08117070020A0
:104C48002326A7BC59CD9947170600200346A6B2CC
:104C58003306F60281451306062497C0FF1FE78036
:104C6800E0D297070020938767BA9C43938707246D
:104C7800170700202324F7B2170700200347A7AF20
:104C88000A07BA9717070020232EF7B2EFF0CFCE06
:104C9800E12997070020938767B09443970700207E
:104CA80083C757AD13972700369717F6FFFF1306EC
:104CB800065610C3138717001377F70F0A0736979E
:104CC80017F6FFFF1306664E10C3138737008907D0
:104CD80093F7F70F8A0797050020A38DE5A8B697E5
:104CE80090C3B240410182809707002083C797A8EC
:104CF80017070020034727A863F3E70217070020D8
:104D08001307C7A918439386170017060020A303A3
:104D1800D6A693962700369708C33E8582809307C8
:104D2800F00FE5BF1C416384071641777D8FB706F6
:104D380000208947631ED71403574500630A0714E8
:104D4800411122C419462A849305F00F610506C64D
:104D580097C0FF1FE78000D205478D476304E5121F
:104D68001C4481CB58589947630E0710185C630B95
:104D7800071013060004814517050020130505A533
:104D880097C0FF1FE78080C013060004A28517059F
:104D980000201305A5A397C0FF1FE78000B8970759
:104DA800002083D767A317070020130727A299E7D6
:104DB80093070010970600202390F6A2970700207B
:104DC80083C7A7A191E78547970600202387F6A008
:104DD8009707002083D787A091E7ED479706002023
:104DE800239EF69E9707002083C7379F91E7954734
:104DF80097060020A383F69E9707002083C7279E67
:104E080091E7854797060020238BF69C970700209B
:104E180083C7F79C99E78347F70097060020A3808C
:104E2800F69C9707002083C7B79B81CF93F637007E
:104E38008983170600202309D69C97060020A3859E
:104E4800F69C9707002083C7A79991E7D54797064F
:104E580000202387F6988347640199E79307C003E6
:104E680097060020238FF6961C5791C782979707BD
:104E780000202395A790FD5717070020A30AF7C025
:104E880025338147B24022443E85410182808947CB
:104E98003E85828001114EC6970900209389C997E3
:104EA80083A7090006CE22CC26CA4AC852C48297D4
:104EB80013090064B335250303DA89008146528655
:104EC80033052503EFE0D16F970700209387878A82
:104ED800804FAA8401456306940233858440636E3B
:104EE800940003A5490052868146B335A9023305CB
:104EF800A902EFE0F16C018D26959707002023A702
:104F08009788F2406244D2444249B249224A056134
:104F18008280011122CC0A852E8441469705020021
:104F28009385055806CEEFF02123180806043A9415
:104F3800035504FF9707002083D7A78EF2406244E9
:104F4800AA9737450F00130505243355F502056167
:104F580082809707002083D7C78C51471D45637C03
:104F6800F702794719456378F702130720031545B7
:104F78006373F7021307B0041145637EF700130744
:104F880040060D456379F700130760090945637406
:104F9800F70013B5B70F8280011122CC06CE2A8400
:104FA8002EC6EFF0EFAEB245F240818D33A5A502D3
:104FB800229562441375F50F05618280011122CC98
:104FC80006CE2A842EC6EFF0AFACB245F240818DF2
:104FD80033A5A5022295624442054181056182807C
:104FE800011122CC06CE2A842EC6EFF06FAAB24554
:104FF800F240818D33B5A502229562440561828015
:1050080097F7FF1F9387877C985739CB411122C4A4
:1050180026C206C6BE84029717F7FF1F03570776F6
:105028002A8415CBBA876373A700AA87C207C183EE
:10503800BA866373E400A286C206C182958F51477F
:10504800635BF700DC5491C38297EF00C13B97F78D
:10505800FF1F23958772B240224492444101828007
:10506800828097F7FF1F23A3077C97F7FF1F93877B
:10507800E775DC57011106CEAA8581C72AC6829733
:10508800B245CDC19C410545D9CBDC41C9CB83D7BD
:105098008500D1C783D7A500D9C3514617F5FF1F8F
:1050A8001305857797C0FF1FE780208797F7FF1FB5
:1050B800238A077697F7FF1F938707769C4317F78E
:1050C800FF1F232FF76E97F7FF1F83C797718DE791
:1050D8009307805717F5FF1F035585743305F502AD
:1050E80037460F001306062481468145EFE0514DEF
:1050F80097F7FF1FA387A76E17F7FF1F0347776E62
:10510800A54763E7E700A94717F7FF1FA30BF76C4D
:1051180017050000130545D8EFF07FA40145F240BC
:105128000561828097F7FF1F23A4076697C7FF1FB3
:105138009387E7D217F7FF1F2320F76E7D5797F75E
:10514800FF1F23ADE76CB7873200938727A197F637
:10515800FF1F23A7F66C97F7FF1F2385076CB7C7B8
:10516800004023A4E726B9B7011122CC17F4FF1F8A
:105178001304C465084406CE26CA4AC801E9054591
:10518800F2406244D2444249056182805C58E5DBC2
:10519800185C75D77000854582971844B247E300BC
:1051A800F7FE9305E00417F5FF1F0355E56297C066
:1051B800FF1FE780402A17F7FF1F232DA75C61D147
:1051C80017F6FF1F035646619305F00F97B0FF1FB0
:1051D800E780C07B814417F9FF1F1309A95997F786
:1051E800FF1F83C7875F0326090263C1F402328564
:1051F80097C0FF1FE7804035014597F7FF1F23AB96
:10520800075897F7FF1F23A907589DBF97F5FF1F5A
:1052180083D5855CB38795020844185C8981850429
:105228003E9508C2029765BF011156C297FAFF1F43
:10523800938ACA5983A78A0022CC4AC84EC606CE8A
:1052480026CA52C45AC0AA892E8432896386072284
:1052580003A74A03630907141307F01F6367A7141A
:1052680097F4FF1F9384045103AA040263170A0AE0
:105278009565938515E017F5FF1F0355E55597C00C
:10528800FF1FE780401D97F7FF1F23A5A7502A8619
:10529800630B051083A74A0303A58A0097F5FF1F30
:1052A80083D585538981829783A78A0003AA04023C
:1052B80017F7FF1F2322F74E8947639CF908C14758
:1052C8006313F40E97F5FF1F83D50551938505FCED
:1052D8009147B3C5F5028A05D29503C72500930700
:1052E800A005631EF70A83D70500639A370B4A8522
:1052F8002286910597B0FF1FE78020629C50528557
:10530800639347150145F2406244D2444249B24989
:10531800224A924A024B05618280D850E38EE7F810
:105328009565938525E017F5FF1F0355E54A97C056
:10533800FF1FE78040122A8A3DC52A8683A74A03B1
:1053480003A58A0097F5FF1F83D5054989818297B0
:10535800A5B78D47639DF900C1476316F40497F517
:10536800FF1F83D56547938545FDF199B5B79147EB
:10537800639AF9006319340397F5FF1F83D5C54570
:10538800A115E5B793070010639FF900A14763ECE7
:10539800870097F5FF1F83D52544C115F9B79C50A1
:1053A80052856396470D2945B9BF1D6A568B6371AF
:1053B800450B130A05E01947334AEA0217F7FF1F9E
:1053C8000357874197FAFF1F938ACA3A330AEA02BA
:1053D8003E9A83A74A026395470183A40A029DE483
:1053E8009305E00417F5FF1F0355053F97C0FF1FFE
:1053F800E7806006AA8445D983274B0397F5FF1FEA
:1054080083D5853D2A8689815285829791451307E0
:10541800A005898193972500A69783C627006393E3
:10542800E60483D60700639C360385058A05228631
:10543800A6954A8597B0FF1FE780204E83A70A02EA
:10544800E38297EC268597C0FF1FE780E00F5DBDDC
:1054580021677917E369A7F4330A454185B783C5FE
:10546800370045BF83A70A02E38F97F2268597C0C6
:10547800FF1FE780600D05BF97F7FF1F9387872FF2
:105488008C5395D191479306A005898313972700DC
:105498002E9703462700E318D6F003560700631C2F
:1054A800360185078A072286BE954A8597B0FF1F71
:1054B800E780A04681BD83473700C1BF97F7FF1F2C
:1054C8009387C730984739C79C5FA9C705476313B7
:1054D800E504411122C417F4FF1F1304A429105036
:1054E80006C60DC6485097F5FF1F83D5E52E89815E
:1054F8008297085097C0FF1FE780000597F7FF1FA6
:1055080023AA072897F7FF1F23A80728B240224499
:10551800410182808280011117F7FF1F1307072BB3
:105528004EC68329870022CC26CA4AC806CE52C452
:1055380056C2AA842E843289638B09201C5FBA8ADA
:1055480099EB2945F2406244D2444249B249224A81
:10555800924A056182805C5BEDD79307F01F63EA8E
:10556800A70E97F9FF1F9389E92083A70902B1CBFA
:1055780003A58A0083A749026395A7068947639311
:10558800F408C147E31FF4FA17F5FF1F0355C524B4
:105598009147130505FC3345F5029317250003A52C
:1055A80009022286CA853E959307A0052301F500C6
:1055B80023109500110597B0FF1FE78000360145BD
:1055C80051B79305E00417F5FF1F0355E52097C071
:1055D800FF1FE78040E897F7FF1F23ADA71A49F997
:1055E8008DB783A74A0303A6090297F5FF1F83D542
:1055F800A51E8981829783A78A0017F7FF1F232D8D
:10560800F718ADBF8D47639EF400C147E31BF4F262
:1056180017F5FF1F0355451C130545FD9377C5FF77
:10562800BDBF9147639AF400E31D94F017F5FF1F7F
:105638000355851A2115DDB793070010E393F4F09D
:10564800A147E3E087F017F5FF1F0355E51841155B
:10565800F1B79D676379F506930705E01947B3C766
:10566800E70217F7FF1F0357271717FAFF1F130A39
:105678006A10B387E702BE9983270A02A1CF83275E
:105688004A026399370703250A0291461308A005C1
:105698009305F00F93D72600139727002A97034600
:1056A8002700631F060783580700034637006395E2
:1056B8009806B306D64063CF860485078A072286F4
:1056C800CA853E95CDBD21677917E36CA7E6B30778
:1056D800F54041BF9305E00417F5FF1F0355C50FBB
:1056E80097C0FF1FE78020D797F7FF1F23A4A70ABB
:1056F80059F581BD83A74A0303260A0297F5FF1FC0
:1057080083D5850D89814E85829797F7FF1F23A53D
:10571800370995BF2310B70093160601C1829DBFB4
:10572800B385860017F6FF1F0356060B910513066F
:1057380006FCE368B6E013063400719A1106B296C7
:105748002301070123109700A301D700BDB797F7DE
:10575800FF1F938727029453BE89A9C203A5090294
:1057680091461308A0059305F00F93D726001397C9
:1057780027002A9703462700631806058358070061
:105788000346370063989800B306D640E3D786F2FD
:105798002310B70093160601C182C1BF8357C70003
:1057A80017F5FF1F034565039305E0043305F5026C
:1057B8004205418197C0FF1FE780E0C997F7FF1FA7
:1057C80023AAA7FC41FDB5BB17F6FF1F0356C60069
:1057D80097F5FF1F83C56500B385C502338686002C
:1057E8001106E3E0C5D681BF0145828083C7050065
:1057F8002300F50083D72500A300F50083D72500F3
:10580800A1832301F50083C74500A301F5001145D5
:10581800828023AE018823AC0188828029C141118E
:1058280026C206C622C4AA8401458DC52E842285B7
:10583800414697050200938565F497B0FF1FE780FE
:10584800C00D83C7040005452306F40083C7140070
:10585800A306F400B24022449244410182800145EB
:105868008280011122CC26CA06CE0947AA84328436
:105878006381E50441468147639BC500638FE60069
:105888006397B6000DA841478147638EE600F24052
:105898006244D2443E85056182808A852285BD3F67
:1058A80041468A8519A88A85953F41468A85228579
:1058B80031A0E39AB6FC2E86A285268597B0FF1FF5
:1058C800E780E012AA87E1B723AEA18882800111A0
:1058D80022CC0354650006CE26CA4AC84EC641C02B
:1058E80083298500AE842A8803C9090081471317D4
:1058F8008901618763550702B147054563FA870443
:105908005114420403552800418033878900A28638
:105918004E868545EF90901BB337A00085077D1410
:1059280013556900420405891379F90341802380DE
:10593800F400A380A400238124012392840001475A
:1059480019C01387190098C409476383E700014504
:10595800F2406244D2444249B24905618280054519
:10596800C5BFC167F917630AF502D94763F7B702DC
:10597800011122CC2EC606CE2A84EF603068B245CB
:105988006368B50022856244F24005616F80900625
:10599800F240624405450561828005458280C16701
:1059A800F9176314F5006F607065411106C6EF8042
:1059B800207311E15D45B2404101828039714ED6B4
:1059C80056D25AD006DE22DC26DA4AD852D4AA8A1F
:1059D8002E8BB28941EF36C6D9379145EF60907268
:1059E800AA844D492DC9B246054A2380340105448D
:1059F800630A0B00B68513851400029B0505131472
:105A080005014180E20993D9894163D30902C1455F
:105A18005685EF80207B654905E933868400A28599
:105A28002685EF90C05B2A8905E131044204418054
:105A380091472C085685231CF10026CE231D810092
:105A4800EF80E0002A8901C963070A00268597C00C
:105A5800FF1FE78060AFF25062544A85D254425922
:105A6800B259225A925A025B21618280BA84014A51
:105A7800ADBF011122CC26CA4AC84EC606CE2A8915
:105A88003284B689253FAA8405E19387C1899C435E
:105A980081CF05476317E40003C4090005041374A4
:105AA800F40FA2854A858297F240624426854249CE
:105AB800D244B24905618280AE8601470546970502
:105AC80000009385E5D275B7011106CE2EC6EF808A
