:040000006F10107DF0
:10000400000000000000000090000020CC0200204E
:10001400A9BDF9F5840300200000000000000000E1
:100024008403002090000020000000000000000075
:10003400900000200000000090000020000000005C
:1000440090000020900000209000002090000020EC
:10005400900000202C0800209000002000000000E8
:1000640090000020900000209000002090000020CC
:10007400EA0300209000002090000020900000205F
:1000840090000020900000209000002090000020AC
:1000940001A0411106C6EF00F035F5BF4111B717B5
:1000A4000040985F3AC6945F3247E39CE6FE3245CF
:1000B40041018280B7F707000111944B13078008B0
:1000C400F337078093F787083EC20F100000B71775
:1000D40000401308700523800705930580FA2380E8
:1000E400B7040F10000003C6B7041376F60DA385FA
:1000F400C704238007041246732606800F100000ED
:100104001376050255CEF336078093F6860836C477
:100114000F100000238007052380B7040F10000090
:10012400B70614007D89558D88C7010001000100C0
:10013400010023800704A246F3A606800F100000E6
:1001440073370780137787083AC60F10000023809F
:1001540007052380B7040F1000000F100000372795
:10016400004093061005A303D78023800704B247F9
:10017400F3A707800F10000093078008F3B70780E8
:1001840093F787083ECE0F100000B71700401307FF
:1001940070052380E704130780FA2380E7040F1017
:1001A400000003C7B70413670708A385E704238087
:1001B4000704F247F3A707800F100000056182804F
:1001C4001376050459C2733607801376860832C83D
:1001D4000F100000238007052380B7040F100000D0
:1001E40037061400130606047D89518D88C7010063
:1001F40001000100010023800704424673260680A3
:100204000F10000073370780137787083ACA0F105E
:100214000000238007052380B7040F100000A547C2
:1002240093F6F60F639EF600B727004013073005D8
:10023400A383E780B717004023800704D2470DBF8C
:10024400B727004013072005E5B7733707801377F6
:1002540087083ACC0F100000238007052380B704D9
:100264000F10000098471367070C98C723800704F2
:10027400E247FDBD0111814601468145114506CE87
:10028400812493078008F3B7078093F787083EC655
:100294000F100000B7170040130770052380E70410
:1002A400130780FA2380E7040F10000003C76704D4
:1002B400136717002383E70423800704B247F3A7D7
:1002C40007800F100000F2400561828041118146D1
:1002D400014681451145ED2213078008F337078055
:1002E40093F787083EC40F100000B71700401306A9
:1002F40070052380C704930680FA2380D7040F1067
:100304000000FD552396B70223800704A245F3A5F8
:1003140005800F10000073370780137787083AC6EB
:100324000F1000002380C7042380D7040F1000009F
:1003340003C76704136717002383E70423800704B4
:10034400B247F3A707800F10000001A0BD47330593
:10035400F50201007D1575FD8280411122C426C27B
:1003640006C6AA84014463179400B240224492440E
:100374004101828005041305803E4204C13F41804F
:10038400DDB700009305000273A045808245739099
:10039400153492402242B2424243D2436244F24470
:1003A400025592552256B2564257D2576258F258C5
:1003B40006499649264AB64A464BD64B664CF64CF5
:1003C400065D965D265EB65E465FD65F0961730084
:1003D40020304111B7170040985F3AC6945F324706
:1003E400E39CE6FE324541018280B71700401307C3
:1003F40000032388E7028547174700002326F7B642
:10040400730020302303048015472303E480010094
:100414002302A480828083076480E3CE07FE230343
:100424000480828083076480E3CE07FE0345448012
:10043400828083076480E3CE07FE2302A480828047
:10044400411126C44AC24EC006C61377F50BAD4708
:10045400AA892E8995446306F70019456537653FD7
:100464008D444E854537FD59FD1463983401B240DF
:10047400A24412498249410182801355090113752E
:10048400F50F453F2209CDB7011126CC06CEB7049E
:10049400080051371545BD37713769372AC6A53F5E
:1004A40032459377150089EB136515001375F50F25
:1004B400F240E24405618280FD14E9FC0145CDBFB0
:1004C400397126DC4ADA4ED852D656D45AD25ED086
:1004D40006DE62CE66CCB7E700E07D5783AA07004C
:1004E40022C603AA470023A0E71823A2E718B717D8
:1004F4000040130770052380E704130780FA238064
:10050400E70483C74704930B75FFB684E20793FBA4
:10051400FB0F8546AA892E8B328937240040E18758
:10052400015763FA76016308D50089461307000270
:100534006313D5000157D98F93F7F70FB71C004009
:100544002382FC0411472303E4801305F00F5D3D6F
:10055400094CD135636D7C11B7050700DA953787EF
:100564000700795563F2E504B3879500636EF702DB
:10057400370B0800A94733EB65016399F90689E451
:100584008144513D26850DA0DA850945553D05096F
:100594000345F9FFFD14050B693D81C49377FB0FF7
:1005A400FDF7DD3569FD7D55B7170040130770056C
:1005B4002380E704130780FA2380E70403C7470472
:1005C400418B2382E704F250B7E700E023A05711E0
:1005D40023A24711E25432445259C259325AA25A00
:1005E400125B825B724CE24C21618280A547639569
:1005F400F90685691309F00FB3069900B3742B014A
:10060400B6941349F9FFB3749900856B3379690182
:10061400416B9387F9FFB3F7270199E363FC340136
:1006240093D94900C147E3E637FF99BF0569C1691A
:100634007D19D9B71305800D63886901130500027C
:100644006384790113051008CA85DD3B353D21DD3E
:100654004E99B3843441D9B7DA852D45D533CA943C
:10066400E30099F205097D3BA30FA9FED5BF93874B
:10067400F9FF93F7F70F6361FC0C83C71C0413079E
:100684003008631FF70437070800636BEB04B307F4
:100694009B00B706100063F5D704334BEB00894782
:1006A4006393F9068980D549E38C04ECDA8509451E
:1006B400413B11090327C9FF91472320E480030725
:1006C4006480E34E07FE23033481FD17EDFBFD1424
:1006D400110B81C49377FB0FE9FF7D3371F5E1B50D
:1006E400B717004003C75704B7070800137707027A
:1006F40019E3B78707007955E378FBEA33079B00D2
:10070400E3FFE7F855B58547E382F9F2DA852D452D
:10071400053B9389F4FFE38504E6293393F7390015
:1007240091EB832604800327090093074900E39A89
:10073400E6E43E89CE84F1BFB5476396F90013051C
:10074400900BC93135BDB1471305B00AE38BF9FEEF
:1007540099476391F904B7050800B365BB002D45BB
:10076400C53181448D4BA149753963967401832742
:1007740004802320F9008504E39834FF8327048050
:1007840013172B01635507002312F900D5BB23224D
:10079400F900FDB39D476399F90281451305B0043F
:1007A4004531BD442320090023220900FD599D3908
:1007B40093F77400CA9703C70700FD14398D23808B
:1007C400A700E39634FF6DBBA1476392F9046D392A
:1007D4008144630D0B008D479304C0036308FB0041
:1007E4009304000563048B01930440041375C50747
:1007F400E30895D81945393139390545213126851C
:100804000D3909453D314931E31C05D669BB914792
:100814006399F90013056006F536F53E1305900952
:100824000DB7E38F09D4F154A9BB0000197106C2B6
:1008340012C416C61AC81ECA22CC26CE2AD02ED25C
:1008440032D436D63AD83EDA42DC46DECAC0CEC20C
:10085400D2C4D6C6DAC8DECAE2CCE6CEEAD0EED23C
:10086400F2D4F6D6FAD8FEDA973500009385856F70
:100874008841E700050092402242B2424243D243FB
:100884006244F244025592552256B2564257D25708
:100894006258F25806499649264AB64A464BD64B00
:1008A400664CF64C065D965D265EB65E465FD65F88
:1008B400096173002030B7E700E09843B7062000D1
:1008C40023A0D718758F0F10000001C599C1814767
:1008D40011E6B7E700E023A0E7108280B386F500B5
:1008E40003C80600B306F500850723800601E31755
:1008F400F6FEC5B737E700E01C43B7062000232007
:10090400D718F58F0F10000019C191C111E637E710
:1009140000E02320F7108280910503A7C5FF11058D
:100924007D16232EE5FEDDB737E700E01C43B7064E
:1009340020002320D718F58F0F10000001C53307BE
:10094400C50011E637E700E02320F7108280050593
:10095400A30FB5FEE31DE5FEF5B7B7E700E0984346
:10096400B706200023A0D718758F0F100000814709
:10097400B306F5008386060099E6B7E600E023A0F7
:10098400E6103E8582808507E5B737E700E01C4323
:10099400B70620002320D718F58F0F10000001C5DB
:1009A40099C1014711EA37E700E02320F710054514
:1009B40082800507E309E6FE3308E500B386E50017
:1009C4000348080083C60600E305D8FE37E700E0C5
:1009D4002320F7100145828037E700E01C43B70667
:1009E40020002320D718F58F0F1000001307F6FFFF
:1009F400BA952A966317C50037E700E02320F7105D
:100A04008280FD1503C715000505A30FE5FEDDB7BC
:100A140037E700E01C43B70620002320D718F58FE2
:100A24000F10000001C53307C50019E637E700E0E1
:100A34002320F7100145828005058346F5FFE397DF
:100A4400B6FEE31BE5FE37E700E02320F71005457B
:100A540082807971973700009387C75622D48043E8
:100A640006D626D24AD04ECE52CC56CA5AC85EC6F4
:100A740069C037C9C901014B9739000093890954EA
:100A84001309F937173A0000130A0A54973A000079
:100A9400938A0A4E973400009384C45783572400E2
:100AA40095E35C44631D0B0017370000232CF750BB
:100AB400832BC4002285EF10E0405E84A9A823267E
:100AC400FB00FDB783A7090082971C443307F54058
:100AD4006375F500D8401D8F2A976361E90897373D
:100AE400000023AF074883552400034504009740C2
:100AF40000E0E78080135C405844B9C70C44D04000
:100B0400AE97BE8663E4B70063E4C700B386C7400C
:100B140014C4228B3A8459F09737000093874745D1
:100B24009C4B09476373F708F9171737000023290B
:100B3400F744B250225492540259F249624AD24ABA
:100B4400424BB24B4561828063170B00973700001C
:100B540023AAE746B1BF2326EB0099BF03274A0225
:100B64001DCF63E1A7043385A7408347040085E3D1
:100B7400173700000347B7465917B307A7003E8548
:100B8400D44063E4E70063E4D7003385D74083A708
:100B94000A016376F5009737000023A3A73E228B52
:100BA400404495BFD840BA977DBF9737000023A92A
:100BB400073C41B797370000938747459C4385C35B
:100BC400411106C682979737000083C7073F89E71C
:100BD4009737000023AC0742B24041018280973727
:100BE400000083C7873D91E79737000023A00742A1
:100BF40082808280411122C4173400001304043A15
:100C04001C4006C626C24AC091C782979737000087
:100C140023A607389737000083C7575A858B17399F
:100C240000001309695991CF834779001947631369
:100C3400F71097370000A3830758EF00F0705C4467
:100C440082971C4491C3829797340000938444375D
:100C54009840173600000346B6319737000083C723
:100C6400273193961700BA9683D60600EDC29737BC
:100C7400000083C7E72F63E6C70E97370000238978
:100C8400072E1C40639F0714973700009387073390
:100C94009C4363880714973700009387A737DC4386
:100CA40017370000232EF72C6D339737000083C7C6
:100CB4005751639807129737000083C7775091CF35
:100CC4008347790093F7F70F89EB97370000A389DF
:100CD400074E97B001E0E780006C973700009387D8
:100CE400A72EDC53638F070E97370000938747289E
:100CF4009C4BE5CB8347790015476364F70E973720
:100D0400000083C7E750918BE9EF9737000083C752
:100D1400C72AE1EB90409736000083C6762563C866
:100D2400D70C2244B240924402494101174300E0E7
:100D340067008351834779001D47E314F7F0973721
:100D44000000A38D0746EF0030601C48D5BD850721
:100D540093F7F70F97360000238CF620E3EFC7EEE6
:100D640039B786073E978355070023100700973746
:100D7400000023930724973700009387E7219C43BF
:100D8400173500000345C51E13172500BA979C4369
:100D940082979737000083D727221737000003472D
:100DA400271D93C7F7FF7D8D9317170098403E9733
:100DB400835707005D8D2310A7009737000083C772
:100DC400271B91C78507173700002303F71A173726
:100DD40000000347E7199737000083C77719E37EBC
:100DE400F7E8B240224492440249410182801397B9
:100DF40017003297035707006DF785070DB737C7FC
:100E040000408326C720B707FCFFFD17F58F232674
:100E1400F720010001009737000093876715C84F3A
:100E2400832787262326D7206A0593C7F7FF99834C
:100E34005D8D828003278511630207120346E50452
:100E44008546630E0610411122C406C68347C500B9
:100E54002A8493F7C70F2306F500834597000358A8
:100E6400C700139585016185637F060763580506EE
:100E74000345870093F5F507A304B70093E527001E
:100E84006314D50093E517002306B4005C43890777
:100E94005CC3A30AC400032504114C430905213C87
:100EA4008327841103465401D44303D7C700B29661
:100EB400118FD4C32396E7008947A30DF400034799
:100EC40064039737000083C747116377F7048347A8
:100ED400C40093E707012306F4003DA893E7170035
:100EE4002306F4007DB71376F80F635D050203450E
:100EF400870093E527006314D50093E517002306C4
:100F0400B400A30AC400A30407008547A30DF4009A
:100F1400832784119C43C5F7B24022448146368519
:100F24004101828093E717002306F400A30AC4005A
:100F3400A3040700032504114C4342860905A53A7E
:100F44008327841103465401D44303D7C700B296C0
:100F5400118FD4C32396E7008D474DBF8546368550
:100F6400828097370000938767239C43411122C4F2
:100F740006C6858B2A84C5EF4165130525F5976060
:100F840001E0E780204845C58347A5002315F50007
:100F940083270412BDE72320A4122322A412854729
:100FA4002311F404232005008347640154412316CC
:100FB400F5000347D4002304E5000547A304E50036
:100FC400173700001307471F58531385170215815D
:100FD4001C437D151375F50F9CC25C43DCC21C4792
:100FE4009CC65C47DCC61C4B9CCA5C4BDCCA1C4FD1
:100FF4009CCE5C4FDCCE19CD938606021307070204
:10100400C1BF8327441288C3835724042322A41214
:10101400850779B79737000083D7C72B850717371C
:1010240000002319F72AB2402244410182808347F9
:10103400C40023090400054593C747002306F400B0
:10104400DDB78347850193F7E70FD5EF8347950114
:10105400DDEB034625018346C50009CA83456503C4
:1010640017370000034777F763E7E50013F7060136
:1010740041CF014709C6C18A0357651C81C68356FF
:10108400A51C369751C31307C71217350000035523
:10109400E5F8B335A70237460F00411113060624BD
:1010A400814622C426C206C67D543305A702974052
:1010B40002E0E780E03D9737000083C757F2B3842E
:1010C400A700973700009387672003A78709832722
:1010D400070963F387003E84184375FB97370000C4
:1010E4009387C7ED9C43829781476364A400B30749
:1010F400A440B2402244B3B7970093C71700924468
:101104003E854101828081473E8582809737000079
:101114009387070D98433C5BFDFF0100010082802B
:10112400011122CC4AC84EC606CE26CA52C456C2A3
:101134005AC00347B50085472A842E8983290509A7
:101144006311F72683570508835AC503173A00002D
:10115400130A4AEC173B0000035B4BEC63FB57217B
:10116400834605016397E62003278511631307204F
:101174000327450A631F071E8346F5001D47639A2C
:10118400E61E03471401B38AFA4013950A0141810C
:1011940021CF9377170099CB8357E4058356040432
:1011A400958F63D5A7001395070141819377270095
:1011B40099CB8357E41283560404958F63D5A70013
:1011C4001395070141819377070199CB8357C41481
:1011D40083560404958F63D5A700139507014181B5
:1011E400218B11E311E105450357A4039307204E16
:1011F400832444093305A70237460F0081461306AA
:1012040006243305F5029737000083C747DDB3543E
:101214009502B335AB02BE94C204C1802313940873
:101224003305AB02974002E0E7808026B30735011F
:1012340033B5A7002E953E8783264A0019E163E45F
:10124400D7003387D740B3846403B7460F0093872E
:10125400F623938606242320E900A697B3D7D70262
:10126400D6976362F7101D8F2320E9009739000099
:101274009389C9D483A7090083240900829763E56D
:10128400A4123385A4406354050C83A709008297F4
:10129400032709006361E512198D8357E4031737A7
:1012A40000000357A7D78E07B387E702130700325E
:1012B40093870719B3D7E70263E7A710374A0F00EC
:1012C400130BFA23973A0000938ACAD4130A0A2408
:1012D4008357040485072310F4048347041499E313
:1012E400228559222285975001E0E780200575E97F
:1012F400832604098327C40803A74A00B6973E85BA
:1013040063E4D70063E4E7003385E7408347F401EF
:10131400835464082328A4088507A30FF40097378F
:10132400000083D7A7CFB384F402DA94B3D4440380
:101334006368950CB304954083A7090023209900A2
:10134400829763E3A40C3385A440E34305F89737FD
:10135400000083C7D7C863E7A7089737000023A70F
:101364008700014541A083264A00B387F6403E9793
:10137400E5BD8354640837470F009307F723B3840C
:101384006403BE9493070724B3D7F40263E7F90018
:10139400B387F9402320F900D1BD03274A00BA9945
:1013A400C5BF23A03501D9B597370000938787C6F9
:1013B400DC43BE94F9B5973700009387A7C5DC4397
:1013C400998F3E95D9BDA1452285975001E0E780CC
:1013D400C0EFA305A402973700009387E7BE9C5B88
:1013E40081EF7D55F2406244D2444249B249224AD7
:1013F400924A024B05618280894515458297D5B78B
:10140400B3049740AA940DBF83A74A00BE9425BF96
:1014140039C901116C0022CC06CE2A8411331DCDAA
:10142400FD576302F502B2479735000083C535BB0B
:1014340063EFB70003459402B385B7402EC69740C7
:1014440000E0E7802096F24062440561828017370D
:101454000000130727BC5843BA97E9BF976001E01F
:10146400E78040ABCDB78280797126D206D622D4EC
:101474004AD04ECE52CC56CA5AC85EC6834755038C
:1014840003447513AA843E941374F40F9307400223
:1014940063F687001304B4FD1374F40F03AA8413D2
:1014A40083AAC413A38B841222865285D6859740BF
:1014B40002E0E780E0BA058915E503CBD4120149BF
:1014C4008149337B6403930B50024A865285D68547
:1014D400974002E0E780C0B8058915C563916903A8
:1014E4001374F90F238B8412B2502254925402596C
:1014F400F249624AD24A424BB24B45618280850925
:10150400E20993D989410509E31179FDE1BF8327F4
:10151400850903560504797193D60701BD8EC20669
:10152400C182358E1357764093575640898B058B6D
:101534005D8F93573640918B5D8F93571640A18BE7
:101544005D8F93171600C18B5D8F9317360093F749
:1015540007025D8F931756009355860093F707048F
:101564001E065D8F1376F60F518F93D7554013D611
:101574003540118A898BD18F13D67540D18F13D6FC
:101584001540218AD18F13961500418AD18F139665
:10159400350013760602D18F139655001376060490
:1015A4009E05D18F93F5F50FCD8FA20745465D8F2C
:1015B4003307C70222D42A8426D252CC56CA032A1D
:1015C4008413832AC4135AC806D636974207418324
:1015D40093577740135557400989858BC98F135505
:1015E40037401189C98F135517402189C98F1315A5
:1015F40017004189C98F1315370013750502C98F68
:101604001315570093558700137505041E07C98FDA
:101614001377F70FD98F13D5354013D75540118958
:10162400098B498F13D57540498F13D515402189EE
:10163400498F139515004189498F1395350013750A
:101644000502498F13955500137505049E05498FAE
:1016540093F5F50F4D8F2207D98FB387C7024AD070
:101664004ECE5EC662C4B697C207C18313D7774015
:1016740013D557400989058B498F13D537401189F4
:10168400498F13D517402189498F13951700418934
:10169400498F1395370013750502498F1395570029
:1016A40093D58700137505049E07498F93F7F70FA9
:1016B400D98F13D5354013D755401189098B498FDC
:1016C40013D57540498F13D515402189498F13953A
:1016D40015004189498F1395350013750502498F0B
:1016E40013955500137505049E05498F93F5F50F61
:1016F4004D8F2207D98FB387C70213065002528534
:10170400D685B697BD8E93940601C18033F6C40284
:10171400137BF60F974002E0E780809405890DED76
:101724008347D41201498149B3849702130C5002B0
:10173400C1804A865285D685974002E0E780409270
:101744000589937BF90F11C563863403850993F9E1
:10175400F90F0509E31F89FD230B6413B2502254CA
:1017640092540259F249624AD24A424BB24B224C39
:10177400456182805E8BCDB7011197370000938756
:10178400E7B422CC03A4870C26CA4AC84EC606CEA8
:10179400AA8413092500854915C083C7140003478B
:1017A4003400858B6304F700405CFDB7194693054C
:1017B40044004A85EFF06F9DE31835FF2285F2401F
:1017C4006244D2444249B24905618280411197374B
:1017D40000009387A7AF22C403A4870C26C24AC083
:1017E40006C693042500054901E82285B240224437
:1017F4009244024941018280A6851305A402979070
:1018040001E0E780A0B3E30225FF405CF1BF0111D2
:1018140097370000938787AB22CC03A4070C26CA12
:1018240006CE2AC42EC6854419E40145F24062441A
:10183400D244056182808347910003471400858B5D
:101844006304F7000044CDB719469305A1001305BE
:101854002400EFF08F93E31795FE0545C1BF000008
:10186400EFF04FB573000000000000009722000065
:101874009382A2740383020023800200630F030097
:10188400F32510342EC0970500009385A5FD7390B1
:101894001534EF00204E7300203086DCEF00804DBD
:1018A400E65082800000173700001307A790144306
:1018B400411122C49C5E4AC006C6998326C2858B08
:1018C4003A84173900001309A98ED1CB9307000677
:1018D4009CDE173700000347878E93070008973470
:1018E40000009384648D631BF700832709009C43E5
:1018F40093F70704173700002303F78C83C704000A
:1019040093F707049DC3972700009387276B9C4395
:1019140082979737000023AFA78A83C7040093F701
:10192400F70B173700002309F78883C7440093F7A0
:10193400070495E7854717370000A301F788973711
:1019440000009387E7899C433707020098C7130771
:1019540000FC973600002383E6869848F8D31840A5
:101964001C5F9183858B8DC31C5F93E707011CDF8C
:10197400973700009387C7869C4323A207068547B1
:1019840017370000230CF78283270900D843058307
:10199400058B19C7D843759BD8C3D843799BD8C343
:1019A400B24022449244024941018280ED3D7300D9
:1019B40020309317D50063D307029737000093872D
:1019C40027829C437D57B8D7972700009387475AAF
:1019D400DC4F850717270000232AF75A93778500E1
:1019E4009DCB9727000083C7477D93E717001727F0
:1019F40000002304F77C930700F817270000230F47
:101A0400F77A972700009387E77A98435C57F19B0E
:101A140093E717005CD7937715008DC797270000CD
:101A240083C7977993E7170017270000A306F77871
:101A3400972700009387077898435C57F19B93E7B7
:101A440017005CD79377650095CB937745001727EC
:101A5400000013076776CDCB8347070093E7170091
:101A640017270000230AF7749727000093878774C9
:101A740098435C57F19B93E717005CD79317F500E5
:101A840063D40702173700000347C78B418B97378E
:101A940000009387A78351C383C7870793E707028F
:101AA400173700002300F78A9317E50063D707026E
:101AB4009727000083C78770E207E18763D7070091
:101AC400854717270000230BF76E9727000093879D
:101AD40027719C433707020098C79317C50063D446
:101AE4000702173700000347F785058B9727000087
:101AF4009387C77D29C383C7970793E727001737C1
:101B04000000A301F78482808347370093E717001E
:101B140017270000A303F76A81BF03C78707894615
:101B24003D8B6308D70083C787070D47BD8BE39DB3
:101B3400E7F69147B5B703C79707118B69D783C7F2
:101B4400970793E7870065BF972700009387476946
:101B54009443972700009387276603C70700058BE4
:101B640011CB97270000238B076497270000A387D6
:101B74000764828003C71700058B65F7F85271FF6D
:101B840083C75700DDB7172700001307A762032890
:101B94000700832788039583858BADEF11C68327C0
:101BA4000803BD832300F6009DC61C43985B4607CB
:101BB400935767016356070093E707C0C207C183C1
:101BC40003970600C207C18709C7BA970947B3C775
:101BD400E7022390F6008DCD8345150095C997271C
:101BE400000083C7C75D93F70704138795008945F1
:101BF40085C33A95834705000547994593F6F7064B
:101C04006398E600E207E187814563D30700B9459D
:101C14002E8582808545EDBF411126C206C622C4A9
:101C2400972400009384C45B3DED9440AE87F85242
:101C34007DFF37F400E03E8597270000238F075689
:101C4400832704D1B285ED9B2328F4D0832704D1C4
:101C540093E787022328F4D07300501097A001E083
:101C6400E780C05A972700009387C7549C43B70660
:101C740080009843558F98C3D857719BD8D797271E
:101C84000000A38D075297270000A38707529C40AA
:101C9400094798C3832704D193E787002328F4D006
:101CA400730050100DA08D476315F50497270000AD
:101CB400938747509C43B70680009843558F98C339
:101CC400D857719BD8D79440172700001307C74EE5
:101CD40083472700858B89EB83473700858BC1CBEE
:101CE40097270000238C074CB240224492444101C0
:101CF40082808547E319F5FCB7F700E003A707D115
:101D04006D9B23A8E7D003A707D11367870223A8F5
:101D1400E7D07300501098408177FD175447F58F32
:101D24005CC70F1000009840B70702001CC7930758
:101D340000F8172600002303F6489727000093872E
:101D440067479C439C439D83858B639FA7009307B0
:101D540060197CD354C737F700E0832707D193E792
:101D640087002328F7D02DBF9307E01BDDB7FC5273
:101D7400A5F39DBF97270000938787469C43884718
:101D8400D847798D09C988C79387819203A307002F
:101D940063030300028382809727000093874744EC
:101DA40098438967938707F47CD397270000938728
:101DB40067489C4383A60709139656006358060098
:101DC40083A6070913966600634406007453FDF264
:101DD40082804111B7E700E022C480433707200026
:101DE40006C6798C23A0E7180F10000011C199E5ED
:101DF400B7E700E023A0871001457DA893073500CD
:101E0400C207C183F19BC207C183130740036369FF
:101E1400F702172700001307274B08431727000072
:101E24001307074A14436392A602172700001307F7
:101E3400A719185B55DFC207DD8D054502974DBF15
:101E44001727000013070748C9BF035765002DEB88
:101E5400035745006366F706B306F7402146637CE3
:101E6400D60203280500938687001D8FAA96611762
:101E740017260000035626102392E60023A006012D
:101E84002393060014C12312F500130786FF972637
:101E940000002392E60E2313B5009725000083D596
:101EA400850DB387F540172700002316F70CB7E715
:101EB40000E023A087102105B24022444101828022
:101EC400084195B7B7E700E08C433707200023A00B
:101ED400E718F98D0F10000001E523A0B7108280E8
:101EE400972700009387473E03A307009727000026
:101EF4009387073D83A8070081469A8763F2170DED
:101F040003A807006361F50C636FA80A13878700B1
:101F14006368E50A03D66700216705076317E600CF
:101F240003C7019205072380E192172500001305DA
:101F3400250403D64700035765002393070032970F
:101F440042074183172E00002317EE02638C6702B9
:101F54001723000013030337032303006304F3026E
:101F640003D366006310030283D7460023A006014F
:101F740021073E9621062392C60097270000239C42
:101F8400E7FEB6879843630D1703972600009386F0
:101F9400663394426306D7028356670095E283D67C
:101FA4004700035647001843A106B2962392D70070
:101FB40098C383576500A10717270000231DF7FA6C
:0C1FC400B7E700E019BFBE86C2870DBF62
:101FD00097110020938181B817510020130181824D
:101FE0001305400097E5FF1F9385C50117060020E4
:101FF000130606FE63FAC5008322050023A05500E0
:1020000011059105E3EAC5FE176502001305C59E9B
:10201000970500209385C5FB1386018763FAC500E9
:102020008322050023A0550011059105E3EAC5FEB2
:1020300013850187972500209385453C6377B5007C
:10204000232005001105E36DB5FEFD42739002BC2F
:102050008D4273904280930280087390023097E221
:10206000FF1F938222FA93E232007390523097124C
:1020700000009382A28873901234730020303D4395
:102080002A876373C3029377F700BDEFADE59376BC
:1020900006FF3D8ABA960CC34CC30CC74CC7410718
:1020A000E36BD7FE11E28280B306C3408A06970233
:1020B000000096966780A6002307B700A306B70026
:1020C0002306B700A305B7002305B700A304B70094
:1020D0002304B700A303B7002303B700A302B7008C
:1020E0002302B700A301B7002301B700A300B70084
:1020F0002300B700828093F5F50F93968500D58D68
:1021000093960501D58D61B793962700970200003D
:1021100096968682E78086FA9680C1171D8F3E9636
:10212000E374C3F8A5B7011106CEA3070100EF00C1
:102130007003A307A10001C983C7D18789C785455B
:102140001305F100BD2BF24005618280854503C572
:1021500001876F20502D411106C622C4EF20F20FD7
:1021600083C7A18895CFFD1793F7F70F2385F188D3
:102170009DE3EF00F076894503C50187EF20F074F9
:1021800093070032A14503C50187170700202317D5
:10219000F71CEF2090732244B24041016F20720679
:1021A00017550200130505A9EF30720703D5C1B317
:1021B000EF2092532394A18879DD938741B383D78D
:1021C00087001345F5FF130480027D8DEF20621612
:1021D000EF20D21F2390A18815C5EF00D06D930783
:1021E000000A17070020231BF7168D370146894583
:1021F00003C50187EF20F042A14503C50187EF2009
:10220000902251BF7D141374F40F79F069B7411116
:1022100022C406C693F725002E8485C7EF00A07759
:10222000193783C7B18899C72146894503C50187F6
:10223000EF20303F134424002285B2402244410164
:10224000828093F7150085C7393783C7C18781C757
:1022500083C7B18891CB1706002003562610854509
:1022600003C50187EF20F03B13441400F1B793F747
:10227000450089CFEF00F06813060032914503C591
:102280000187EF20103A134444007DB793F785008F
:10229000C5F7014455B7411117050000130565F74F
:1022A00006C622C4EF30001F138401872300A40058
:1022B00017050020130585D2EF00703203D5C1B396
:1022C000930720031345F5FF2385F18842058547D1
:1022D000A385F18841819307000A17070020231F77
:1022E000F706EF2002059D35034504009145EF20D8
:1022F0009013034504008945EF20F01203450400C4
:10230000A145EF2050122244B24017550200130598
:10231000259341016F30A270828083C7B18895E315
:102320004111175502001305A59A06C6EF30226F1A
:102330001D35B240175502001305C59941016F3094
:10234000026E82800DE10111680006CE97E0FF1F4A
:10235000E780A05617550200130585A5EF30226CC3
:10236000F24005618280828083D7C1BF6390A7025B
:10237000239FB1BE2390C1C02391D1C02E86175593
:10238000020013056595BE856F3022551755020072
:10239000130505966F30A26841119397050122C479
:1023A00006C626C2C1872E8463DA070603C581806C
:1023B000EF208045AA840DCD834705001307000B4D
:1023C000638FE7021307000D6391E70203472500BF
:1023D000C547631CF7000346650083457500175524
:1023E00002001305658AEF30424F2685EF20A035A5
:1023F0002165218DB24022449244410182800347ED
:1024000045009307F007E312F7FE83558500175543
:10241000020013056589EF30424CC1BF93F71500E8
:1024200091CF17060020130626BC938541A003C553
:102430008180EF000257134514006DBF93F725000C
:1024400099CB13060064894503C58180EF20701D78
:102450001345240045B793F7850099CF83C7818042
:102460001307400681462946994503D5C1BFEF00B1
:10247000A24E13458400BDBF93F705019DC30147DC
:1024800089460946814503D5C1BFEF009239AA8527
:102490001755020013058582EF30224413450401CD
:1024A00091BF93F745000145B1D703D5C1BFEF00F8
:1024B000D2340566130606C8914503C58180EF2016
:1024C0005016134544003DB703574500011106CE91
:1024D00083D7C1BF6315F704F957894503C58180C8
:1024E000239EF1BE239F01BE239001C0239101C012
:1024F000EF20B03D914503C58180EF20103D83C79B
:10250000B18899CB85471306F100854513055030F6
:10251000A307F100EF00827CF2400561828017453D
:1025200002001305E57CEF30824FFDB779714AD088
:102530001389C1872300090017050000130505E66C
:1025400006D622D426D2A38E0186EF20B0749384BF
:102550008180994705442380A4001386E1872314D2
:10256000F1008545A947130550302316F1002300DB
:10257000860023008900EF0062761706002013060C
:10258000E6A8D14513057030EF0042751386C1806F
:102590009D4513056030EF006274300089451305D6
:1025A0001031EF00A2737000894513052031EF0050
:1025B000E272170600201306E6A3D5450145EF7029
:1025C0006075930500320D45EF40904B9305003246
:1025D0001145EF40F04A85457945EF40704A70005B
:1025E000914513057040A302810023038100A303DA
:1025F000810002C623040100EFF0412713065100B9
:10260000854513050040EFF06126130661008545FE
:1026100013051040EFF0812530008545130520405B
:10262000EFF0C12413067100854513055040EFF00B
:10263000E1237D55EF70607F7D55EF901040EF10E6
:10264000D01F7D55EF1030364D468145680023047C
:102650008100353489473000854501452306F10066
:10266000EF10103A7000CD450545EF107039938793
:10267000C1BF7957138541802390E700239107005C
:102680002392070023930700EF10B036138541878C
:10269000EFD0D16D03C504008545EF20C058174524
:1026A00002001305E55CEF308237170500001305C3
:1026B00005C7EF306108B250225492540259456167
:1026C000828001112E8683D5418122CC06CE93874C
:1026D000E5FF2A846346F6001386D5FF4206418251
:1026E00001478146ED4503D5C1BF2315C100EF70F9
:1026F000902B0356A100A2852AC697E0FF1FE78012
:10270000C01B2C0003D5C1BFEF10903309C5ED45A8
:102710002800EF701041F24062440561828083C757
:10272000C18785E7411122C41386E18705448545A9
:102730001305503006C6238F8186EF00225AB2401F
:10274000238E818622444101828082803D897D15CD
:10275000954763EFA716174702001307E74F0A05CF
:102760003A951C41411122C406C6BA972E8482872D
:1027700017450200130545582244B24041016F300D
:10278000022A83C7250019476394E7022E852D3B53
:10279000834564001745020013050557EF30E21327
:1027A0008547238EF186174502001305A557E9B723
:1027B0000D47E387E7FEB24022444101828003C710
:1027C00025009547E319F7FEC16703D7C1BFF91785
:1027D00003D5A5006304F702EF007202174502005B
:1027E00013054555EF30A2238547A38EF186238E2E
:1027F00001861745020013056556BDBF239EA1BE85
:1028000083D7E5001306006403C58180239FF1BED2
:1028100083D705012390F1C083D7250189452391F2
:10282000F1C0EF200060096613060690A14503C5BC
:102830008180EF20005FEFF07F910356E400835525
:10284000A4001745020013052550EF30020969BFA7
:1028500003C725008D47E310F7F68547A38EF18661
:10286000238EF186174502001305055031B783C545
:10287000250091476397F500174502001305455061
:10288000E5BD99476392F50222853D398345640091
:102890001745020013054547EF3022042244B24099
:1028A000A38E01864101A5BD9547639AF500834734
:1028B0001400F9F3174502001305454E75BD224477
:1028C000B240174502001305E54D41016F30E200AB
:1028D0008280371700408327870C411106C693E793
:1028E00007082324F70C8D4513050008EF10E03D81
:1028F000B24041016F10E05741111305800406C634
:1029000097D0FF1FE780407BE9371745020013058A
:10291000E54BEF30C210175502001305E5B6EF3056
:102920000210EF10B035EF10704EEF00C26FFD3E99
:10293000EFF07F9697D0FF1FE780E07583C711B354
:10294000138701AF3E9785072300A70093F7F70F82
:102950001307F0036365F700A388F1B28280A388B0
:1029600001B2828083C701B303C711B3014563037A
:10297000F702138701AF3E9785070345070093F7DA
:10298000F70F1307F0036365F7002388F1B2828025
:10299000238801B28280797106D622D426D24AD009
:1029A0004ECE52CC56CA5AC85EC6EF20020BEF205C
:1029B000E2212390A188EF20C20483D7018889C730
:1029C000930720032385F1889384418803AA040098
:1029D000832A0A0063930A0E83298A006394090EEE
:1029E000C167FD17239CF1809C4003A94700631F2A
:1029F000091EC167FD17B2502254239BF1809254E7
:102A00000259F249624AD24A424BB24B4561828036
:102A10000347B40011CB8347C400850793F7F70F32
:102A200063FCE7062306F40085090D0993F9F90F05
:102A30001379F90F83C78A00E3F0F9FA83270A00B4
:102A400003A70A0013944900DC434E97034707008D
:102A50003E9483D70188B3D7E740858B8346A40093
:102A6000A1C389E6230574014A85C93D0357840043
:102A700045DF83576400E3FDE7F88507C207C1839C
:102A80002313F400E312F7FA130529002305640168
:102A90001375F50F653549BF230604004A85DDBF70
:102AA00081CA13051900230504001375F50F793544
:102AB000231304002306040085BF05498149094BFF
:102AC000854B8DBF03C949008947E3FB27F183DAB2
:102AD000690003A4C900014A83A70900131B1A0057
:102AE000229BD29703C50700050A137AFA0FEF104D
:102AF00092092310AB0083C74900E36FFAFC01453C
:102B000081479306F9FF63CDD70641ED931719006E
:102B1000A2970356040083D7E7FF835524003307A9
:102B2000F64093160701C1823307B6402E96B2973E
:102B30004207C2074183C18391E28546E3F2FAEA84
:102B400083D5890083D7A9003307B70233C9270388
:102B50003347D702338625032E97420741833347F5
:102B6000E6023309A9023A99420913590901E30B14
:102B700009E613871700CA87E35627E785479DB5FF
:102B800085071397170022970356070013171500A0
:102B900022970357070093F7F70FE376C7F63E85B2
:102BA0009DB76394A602131719007917229703564D
:102BB00007008355E7FF835704003307B640931699
:102BC0000701C1823307F64095B7931715003E946D
:102BD000835704000356E4FF835524003387C7401E
:102BE00093160701C1823387B74089B783444900F0
:102BF0008947E3F097E0835969000324C900014A3B
:102C000083270900D29703C50700EF10C2779317F7
:102C10001A00A297050A2390A7009377FA0FE3E121
:102C200097FE014581479386F4FF63CCD70659E9A7
:102C300093971400A2970356040083D7E7FF8355A8
:102C400024003307F64093160701C1823307B640CC
:102C50002E96B2974207C2074183C18391E285460F
:102C6000E3F9F9D8835589008357A9003307B702E0
:102C7000B3C497023347D702338695022E97420793
:102C800041833347E602B384A402BA94C204C180EC
:102C9000E38304D613871700A687E35E97D485479E
:102CA00099BB850713971700229703560700131740
:102CB000150022970357070093F7F70FE377C7F63E
:102CC0003E85A5B76394A60213971400791722973F
:102CD000035607008355E7FF835704003307B640C8
:102CE00093160701C1823307F6409DB7931715006D
:102CF0003E94835704000356E4FF83552400338732
:102D0000C74093160701C1823387B74091B79747F1
:102D100002009387270D0E053E951C41B716004013
:102D20001386460B8A073E9658410C421347F7FF1D
:102D3000F98D0CC21386060B3E960C429386060A4A
:102D4000B697F98D0CC29443758F98C382809747CC
:102D50000200938727090E053E951C413717004056
:102D60009306070ABE9690424C411307C70ABA97CA
:102D70004D8E90C28CC38280938741B39043D443DD
:102D8000B717004083A5070B1347F6FFF98D23A85B
:102D9000B70A83A5470B6D8F23AAE70A03A7070A83
:102DA000518F23A0E70A03A7C70A518F23A6E70A7A
:102DB00003A6070D13C7F6FF798E23A8C70C03A639
:102DC000470D718F23AAE70C03A7070C558F23A08B
:102DD000E70C03A7C70C558F23A6E70C828035713B
:102DE00026CB4EC7E2DC06CF22CD4AC952C556C318
:102DF0005AC1DEDEE6DAEAD8EED6B717004013078E
:102E00003006A38CE70403C7A7052A8C9749020064
:102E1000938949041377D70F238DE7040D47A38BBC
:102E2000E704EF10723B4E8682C682C882CA82CC0B
:102E300082CE8146CE84974802009388A8FA1387F1
:102E400041B31303000205482145834716008E074E
:102E5000C6978C43639B051A0C43DC43CD8F23AA92
:102E6000F1B283558700B317D8008506CD8F239E16
:102E7000F1B23906E39BA6FC0C435043835687000E
:102E800017450200130545080144EF2012253717A6
:102E9000004083477705394A214993E72700A30B70
:102EA000F704D93DB7070003A107BEC69147230821
:102EB000F1049307803EBECC5146938701A1EC00FC
:102EC0000810BECEA3090104231A0104EF209215B5
:102ED0000810EF10C22BB305440339460808050457
:102EE000A695EF2032140808EF100233E31524FFF3
:102EF0007D79974402009384E4F50144014A130963
:102F0000892B930C0019974B0200938BAB01214B3B
:102F100083CA140003D6440083D524009306803E60
:102F20005685EF10F239B3072501C207C183137D1F
:102F3000F40FAA8663E3FC0EAA852AC66A85EF1001
:102F4000C23CB246A28556865E850504EF20F21883
:102F5000B904E31F64FB630B0A06393D856A174514
:102F60000200130525FEFD7B938C8AEDEF20322BAA
:102F70000144938BFB37938A7AED03CA1900137BC4
:102F8000F40F014952856133930D00029314090136
:102F9000C1809306803E0D46A6855285EF105232C1
:102FA0002A8D13076025631C090663FAAC06AA85FF
:102FB0002286174502001305E5FCEF201212528508
:102FC00079330504A147B909E319F4FAEF10722324
:102FD00083260C0023A28189239801B203C68600B0
:102FE000014785459377F70F63EBC70AFA406A44B8
:102FF000DA444A49BA492A4A9A4A0A4BF65B665C5D
:10300000D65C465DB65D0D618280E39C65E44C4311
:10301000DC43CD8F23ACF1B2A9B5054A25B7B30780
:103020007D01C207C1836365F702EA855A85EF1007
:10303000C22D0D46A6855A85EF108232EA864A8651
:10304000A285174502001305A5F7EF20120985BFD9
:1030500063FCAA03FD14C204C180D1460D46A685B7
:103060005285EF10F225AA855A85EF10022A0D46E7
:10307000A6855A85EF10C22EEA864A86A285174594
:103080000200130565F6D1B70509E311B9F1A28570
:1030900017450200130585F9EF2032040DB7DC4215
:1030A000131547000507AA972382B70023A407003A
:1030B0002386070005BF9307200341112385F1886C
:1030C0000145854706C6A385F188EF10822617457E
:1030D0000200130525FBEF209214B240410169B9AB
:1030E000411106C6513903D5C1B3A3850188EF103C
:1030F0004224B240174502001305C5F741016F2075
:103100001212797122D40A8426D24AD04ECE06D623
:1031100052CC02C002C202C402C622898144A14923
:103120002685EF10422685042310A90093F4F40F9E
:103130000909E39734FF93090401A28417490200A7
:103140001309C9DB839504004A858904EF20E278DE
:10315000E39A34FF2945EF20427C22898144214AA9
:103160002685EF10C21B85042310A90093F4F40FE9
:103170000909E39744FF97440200938424D88315F8
:10318000040026850904EF204275E31A34FF29451F
:10319000EF20A278014417490200130929D6A1445F
:1031A0002285EF1022200504AA851374F40F4A85A6
:1031B000EF20A272E31694FE17450200130585D492
:1031C000EF20F2052254B25092540259F249624A59
:1031D00017450200130505D345616F205204B71748
:1031E000004003C777051377E70FA38BE7041307A6
:1031F00000F8A38DE7043D47238CE7041307500331
:10320000A38CE70403C7A7051377D70F238DE70423
:103210008280B717004003C7E7020D894111137779
:10322000C70F498F93068008F3B6068093F6860889
:1032300036C60F100000930670052380D70493064E
:1032400080FA2380D7040F1000002387E702238031
:103250000704B247F3A707800F10000041018280E6
:1032600041112A83014E930E407E130F0019930FD4
:10327000400663E56E129308001913034006B37805
:103280001503854E0D4FA14F337365020D8913351C
:10329000150063EFBE121308F6FF794672984208D4
:1032A000135808013307C70213D61700BE07329719
:1032B0006146B3F6C60213068070B386C60236971F
:1032C000A166F58F42075D8FB716004083C7F602EF
:1032D00093F70708A303F1000346710083C7F602C2
:1032E00093F70708E394C7FE83477100B7160040C1
:1032F00093F7F70F6388071293078008F3B70780E7
:1033000093F787083EC40F100000B71700409306DC
:1033100070052380D704930680FA2380D7040F100A
:10332000000023AA070383C6170393E60608A388B1
:10333000D70223800704A247F3A707800F100000DD
:103340001166B71700407D16D45BC85F93854703AD
:10335000A98EF18EF5FA93068008F3B6068093F6EF
:10336000860836C60F100000930670052380D70428
:10337000930680FA2380D7040F10000098C103C77A
:10338000170313670704A388E70223800704B247E3
:10339000F3A707800F100000410182807D1333687E
:1033A000E3039308E016630E08003368F303930801
:1033B000D016630808009378330093B818009388F8
:1033C000D81633081E01131E0801135E0E0155B5F1
:1033D0006393E5030548638608000148630303001F
:1033E0002A8871087298FD15131E0801C205135E24
:1033F0000E01C18179BD13F8150063F4BF0079088F
:10340000D5B713381800E5BF83C7F60293F707084E
:10341000A303F1000346710083C7F60293F7070880
:10342000E394C7FE8347710093F7F70FF1DFE9B527
:1034300031714AD966CB06DF22DD26DB4ED752D565
:1034400056D35AD15ECF62CD6AC96EC7AA8C02D854
:10345000EF0010122A8993078008F3B7078093F7CB
:1034600087083EDA0F100000B717004013077005F9
:103470002380E704130780FA2380E7040F1000007D
:1034800003C7F7021377770FA387E70203C7F70293
:1034900013678700A387E70223800704D257F3A7A7
:1034A00007800F1000000545AD33130780C1334777
:1034B000E902116A93070AE893065002BD69930B6B
:1034C000A004814A014B13048008930470057D1AFF
:1034D000B347F9023307D7023EC0FD873ECC93873E
:1034E00009A69309803E3347F7023AC27D873AC462
:1034F000334739038549B399990193D93940B306C4
:10350000D702B30B7703B3C6F602B3CBFB0236C6C2
:10351000FD8636C893D6FB4136CEB7460F0093865C
:1035200006243349D9028566938606FAB396960136
:10353000B389E902130760553309D90293060010D5
:10354000B389E9023349D902B3C9F90293163900A4
:1035500036CA37190040FD8636D0930D090493D73B
:10356000F9413ED2F336048093F6860836DC0F101C
:103570000000930770052380FD00930680FA2380E6
:10358000DD000F1000008346390593F6860FA3096E
:10359000D9048346390593E61600A309D90423808C
:1035A0000D00E256F3A606800F100000130C80FAFF
:1035B000116DF336048093F6860836DE0F10000096
:1035C000930770052380FD0023808D010F100000FC
:1035D00083463905216693E60602A309D90483567A
:1035E0000905B3E6A6012318D90483560905D18E2F
:1035F0002318D90423800D00F256F3A606800F107D
:1036000000008346390593F60602638906180346CF
:103610003905218A6DDE0818612F73360480137610
:103620008608B2C20F10000023809D0023808D0108
:103630000F100000B717004003C637051376F60DCC
:10364000A389C70403C6370513660602A389C70406
:10365000835609052166B3E6A6012318D9048356CB
:103660000905D18E2318D90423800D009646F3A6B0
:1036700006800F1000008346390593F60602638624
:10368000061483463905A18AEDFE97D0FF1FE78017
:1036900020A1AA8636D497D0FF1FE78060A0A2564B
:1036A000E30AD5FE835609054255B3E6A601231861
:1036B000D904392F83463905A18AEDDE0356090561
:1036C0008346290582473376CA00B306DA0293D5CA
:1036D000F641B296B388F640E24733B8C6002E985A
:1036E0003308F840A247B3B616013308D84063C781
:1036F0000701631DF800924763FA1701C247634D43
:10370000F80E63950701B24763E8F80E894663E750
:10371000660FF2469315180013D3F8015E861395D1
:103720001800B365B30042D646D4EF10B218325831
:10373000050B137BFB0F6347000163120838A25887
:10374000638F083613081500B336A800B69513D654
:10375000F5013298B336C800AE9613581800FE062D
:10376000B3E606017336048013768608B2C60F10DE
:10377000000023809D0023808D010F100000035660
:10378000C902B296C206C1822316D90223800D0057
:10379000B646F3A606800F10000021BDF336048064
:1037A00093F68608B6C00F10000023809D0023808A
:1037B0008D010F1000008346390593E60602A30928
:1037C000D90423800D0086460DBDF336048093F6A0
:1037D0008608B6C40F10000023809D0023808D0151
:1037E0000F1000008346390593E60602A309D904A9
:1037F00023800D00A646A5BDE30D0BF0F336048033
:1038000093F68608B6C80F100000930680FA23804E
:103810009D002380DD000F1000008346390593F5DD
:10382000FC0F93F6860FA309D90483463905CD8E84
:10383000A309D90423800D00C646F3A606800F1005
:103840000000130580FA03463905930639051D8AE1
:10385000631496297336048013768608B2CC0F1051
:103860000000130680FA23809D002380CD000F10F6
:10387000000003C606001376F60D2380C60003C6BB
:103880000600136606022380C600835609051166EA
:10389000D18E2318D904835609052166D18E2318A9
:1038A000D90423800D00E646F3A606800F10000021
:1038B000130680FA8346390593F6060263880624C8
:1038C00083463905130C3905A18AFDDA0818CD2184
:1038D000F336048093F68608B6D00F1000009306E6
:1038E00080FA23809D002380DD000F1000008346B6
:1038F0000C00116693F6F60D2300DC0083460C00E5
:1039000093E606022300DC0083560905D18E2318B6
:10391000D904835609052166D18E2318D904238042
:103920000D008656F3A606800F100000130680FADD
:103930008346390593F606026385062083463905DA
:10394000A18AEDFE97C0FF1FE78080752A8C97C083
:10395000FF1FE780E074E30C85FF835609051166BD
:103960004255D18E2318D904A52183463905130663
:103970003905A18AFDDAF336048093F68608B6D4B9
:103980000F100000930680FA23809D002380DD0045
:103990000F1000008346060093F6F60D2300D600B4
:1039A00023800D00A656F3A606800F100000835654
:1039B000090503462905D247B376DA003306CA0261
:1039C0001305800C9355F6413696330DF640825719
:1039D000333CD6002E9C3336A601330CFC40330C0E
:1039E000CC403308850392564E86B335A503330584
:1039F000A503C295EF10026C63468001631E0C168E
:103A0000630C0D16130615003335A6002E9593563C
:103A1000F5013696B335D600AA959396F501058241
:103A20008585D18E6346B000639D051A638B061AA7
:103A30000356C90215823305D6003336C500B29548
:103A40006348B000639105241306F00F637DA6223E
:103A5000894663F3561593078008F3B7078093F7F9
:103A60008708BED60F100000371700409307700577
:103A70002300F704930780FA2300F7040F100000D7
:103A80008356C70289678117D58FC207C183231662
:103A9000F70223000704B657F3A707800F100000B2
:103AA000FA506A54DA544A59BA592A5A9A5A0A5B4D
:103AB000FA4B6A4CDA4C4A4DBA4D296182801308A0
:103AC000F5FF3335A800FD152E951356F5013298F4
:103AD000B336C800AA9651B1F336048093F686082F
:103AE000B6CA0F10000023809D002380AD000F1088
:103AF000000083463905CD8EA309D90423800D002B
:103B0000D646F3A606800F10000035BBF3360480BE
:103B100093F68608B6CE0F10000023809D00238008
:103B2000CD000F1000008346390593E60602A30975
:103B3000D90423800D00F646F3A606800F1000007E
:103B400095BBF336048093F68608B6D20F100000BA
:103B500023809D002380CD000F100000834639058F
:103B600093E60602A309D90423800D009656F3A616
:103B700006800F1000006DBB9306F5FF33B5A6005D
:103B8000FD152E959355F501AE96B3B5B600AA95E1
:103B90001396F501858269B5F336048093F686089D
:103BA000B6D80F100000930680FA23809D00238072
:103BB000DD000F1000008356C9020566011693F65A
:103BC000F60FD18EC206C1822316D90223800D00C2
:103BD000C656F3A606800F100000850A93FAFA0F66
:103BE00051B233E6B60045C20356C9023305D04090
:103BF0003338A000B305B040B38505411582634555
:103C0000B000D1E16371A608894663F056059307B9
:103C10008008F3B7078093F78708BEDA0F1000001B
:103C2000B7170040130770052380E704130780FAD5
:103C30002380E7040F10000003D7C7027D8B239673
:103C4000E70223800704D65781BDF336048093F63C
:103C50008608B6DC0F100000930680FA23809D00D2
:103C60002380DD000F1000008356C902056601168F
:103C700093F6F60FD18EC206C1822316D902238095
:103C80000D00E656B9B793078008F3B7078093F79E
:103C90008708BEDE0F10000037170040930770053D
:103CA0002300F704930780FA2300F7040F100000A5
:103CB0000356C70293975600B297C207C1832316D3
:103CC000F70223000704F657C1BB914763EEB70222
:103CD000173702001307473C8A05BA959C41BA97EB
:103CE0008287B717004003A7470D1345F5FF698F7B
:103CF00023AAE70C03A7070D698F23A8E70C03A7E6
:103D0000070C798D23A0A70C8280B717004083A6EB
:103D1000470D1347F5FFF98E23AAD70C83A6070D8D
:103D2000558D23A8A70C83A6070C758F23A0E70C3D
:103D30008280B717004003A7470D498F23AAE70CDD
:103D400003A7070D1345F5FF45BFB717004083A62E
:103D5000470D1347F5FF758F23AAE70C03A7070C40
:103D6000598D4DB7B717004003A7470D498FEDB7E1
:103D7000B71700408847420541819377050491EBCE
:103D80009377F5013755E801130505803345F502B2
:103D900082809377050C130700046397E7009377FD
:103DA000F50137459C1CCDB72165130505D08280F0
:103DB00037E700E01C435443A183E206D58F1CC1C2
:103DC000FD572320F7182322F7180F1000008280D8
:103DD00013178500B7E700E023A0E710618123A255
:103DE000A7108280B7F700E08847CC4782808147E0
:103DF00037370040A14663C4C7003285828003453F
:103E0000B700E38EA6FE3385F50003450500850760
:103E10002304A700CDB79387C1819C4317070020D7
:103E20001307C75D3E95636CE50017270020130755
:103E3000677D6366A70023AEA1803E858280FD5723
:103E4000EDBF411122C406C62A841D372947B30796
:103E5000E502B2408D83B3D7870222449507B3D7DA
:103E6000E70237370040C207C1832316F70041013C
:103E70008280716541111305052006C6D937B73711
:103E80000040130770F82381E7000D47A381E70086
:103E900013070004A380E70005472387E700B2402B
:103EA00041018280CC41411106C6328503C615000E
:103EB00083C5050022064D8E42068D654186138816
:103EC00075A2630C060F6348C804138845A26306F5
:103ED000060B634AC800938535A26309B606239092
:103EE0000600294679A0138855A26308060B93851E
:103EF00065A2E316B6FEC1451D4663ECE5064546E0
:103F0000198E63F3C7003E862390C60097350200E2
:103F10009385C51A89A8138895A26300060F634E7E
:103F2000060B1388A5A2630A060F938505A5E3185F
:103F3000B6FA99451D4663EEE502198E63F3C70094
:103F40003E862390C6009385818231A89D451D46FB
:103F500063E1E5022146198E63F3C7003E86239094
:103F6000C6009385C188BA9597D0FF1FE780E0947B
:103F70000146B240328541018280AD451D46E3EAEB
:103F8000E5FE3146198E63F3C7003E862390C600D6
:103F90009735020093854516F9B7B1451D46E3EA0A
:103FA000E5FC3546198E63F3C7003E862390C600B4
:103FB00097350200938545157DB7C1451D46E3EA57
:103FC000E5FA4546198E63F3C7003E862390C60086
:103FD000973502009385C50F79B7C1451D46E3EAC1
:103FE000E5F84546198E63F3C7003E862390C60068
:103FF0009735020093854512BDB7C1451D46E3EADA
:10400000E5F64546198E63F3C7003E862390C60049
:10401000973502009385050DB9B7B5451D46E3EA0E
:10402000E5F43946198E63F3C7003E862390C60037
:1040300097350200938585073DB797E6FF1F938666
:1040400026114146CD4517E5FF1F130565FD6F801D
:10405000001703C885002145137808016319080675
:104060002D4535E703C505000947631EE504328584
:10407000D041411106C60347160003460600220739
:10408000518F4166130816FE63090701091663067E
:10409000C70223900600294531A83E8691C30546F4
:1040A000CC452390C6004206418297D0FF1FE7808F
:1040B000C0800145B240410182804D473E86E37198
:1040C000F7FE4D46F1BF23900600054582808280B1
:1040D00083C7850093F70702C9E783CE05008948A7
:1040E0002E88854763901E09DC4183C8170083C76B
:1040F0000700A208B3E8F8008D6793872790638FC5
:10410000F8043A8E41670517A947639DE804AD4757
:10411000631A0E04411126C206C622C40547B6849E
:10412000B5476367D7020325C8003284A2850546D8
:1041300097C0FF1FE7806078938781899843814704
:1041400001CB184311C72686A285014502978147F6
:10415000B240224492443E854101828085476F608F
:10416000C04FA1473E85828041677917630CE50205
:10417000411122C406C685472A84639AF500228528
:104180002244B240938541B541016F80200E89479A
:104190006396F5008545EFA0C04575D1B240224435
:1041A000410182808280411122C42A844165938525
:1041B00041B57D1506C6EF80600B1705000013059D
:1041C000E5FA0588EFA0203A05C02244B24097E600
:1041D000FF1F9386A6004146A14517E5FF1F130563
:1041E000E5F741016F70B07DB240224401454101C5
:1041F000828009C523ACA188014582804545828023
:10420000411106C6AE870547B28519C56302E502AE
:104210000945B240410182806145E39CE7FE0546C5
:104220001385418997C0FF1FE78020690145D5B7F5
:104230004D476145E39FE7FC4D46138501B4DDB76B
:10424000411122C42E84938541B526C206C6AA8494
:10425000EF60603B058915C197E7FF1F938707F063
:1042600083D7A705A285B2402310F40022442685F7
:104270009244014641016F70E015B24022449244DD
:1042800049454101828011456FF08F9A4111939603
:104290002500AA852D4506C697C0FF1FE78080220E
:1042A000B240014541018280011122CC06CE371473
:1042B000004026CA4AC84EC652C483447405034A05
:1042C000B4058349840503499405EFE05FF1834712
:1042D000A40593F4F40F137AFA0F93E71700230D54
:1042E000F40493F9F90F1379F90FB717004003C7D6
:1042F000A705058B6DFF03D5C705A38D4705238C47
:104300003705A38C2705A38B9704F2406244D2445F
:104310004249B249224A05618280411193970501C1
:1043200022C406C6C1872E8463DB0700F12911C1B0
:1043300019292165218DB24022444101828093F7E1
:10434000150013C51500E5FB93F7250013C52500DF
:10435000FDF39397250163D20702EF80E1672537CC
:1043600037F60200130606E08965170500200345AD
:1043700025BFEF00102B096575BF93971501014507
:10438000E3DB07FA173502001305C5DEEF102269DB
:1043900013060064916517050020034565BCEF0016
:1043A0005028116541BF2D71232A9110FD74E98CAD
:1043B000232C811023282111232631112A84AE8930
:1043C0003289930600100A86A6852D45232E1110EA
:1043D00097C0FF1FE780000F1315440151810A05A4
:1043E00013962900CA850A9597C0FF1FE780E04C05
:1043F000A68585660146254597C0FF1FE780800C8E
:104400000A86A68593060010294597C0FF1FE780FE
:10441000600B8320C11103248111832441110329DE
:1044200001118329C11015618280B7F7070003C706
:104430000701411106C622C426C24AC0A547631A15
:10444000F7009537B24022449244024901454101A8
:10445000828013942500AA843289A286AA85014607
:10446000254597C0FF1FE780E005A2864A86A685FE
:10447000294597C0FF1FE780E004E9B71D71494651
:1044800097350200938585CA173502001305C5FFCD
:1044900086CE97C0FF1FE780804F01E917350200E5
:1044A000130505CAEF10A25701A0B7F600E079572F
:1044B00098CAFD57DCCA0567B7E700E023A0E710FC
:1044C0001306F00290C223A0E7180F10000017D7C0
:1044D000FF1F1307E7399706002023A5E6A84157D9
:1044E000A38AE740130600048145080897C0FF1F10
:1044F000E780C04397E7FF1F938787263EC88967F9
:1045000093870780231AF1009D673ECCB70701050A
:10451000938707103ECEED472310F1028547230114
:10452000F102970700009387A7D6BEC29707000045
:104530009387E7EFBEC48567938757D12312F102B3
:10454000970700009387478A3ED8B7F5070097077B
:1045500000009387A7D53EDC81469707000093872C
:10456000C7D23000E10519453EDE97C0FF1FE78046
:1045700060F518088147994630003E9603460600CC
:1045800085070507A30BC700E398D7FEC24791C76D
:104590000357410185676373F70001A08307410258
:1045A00063D7070493078008F3B7078093F787085A
:1045B0003EC40F100000B71700401307700523809A
:1045C000E704130780FA2380E7040F100000B847C0
:1045D000B706100013670718B8C79853558F98D3BC
:1045E00023800704A247F3A707800F1000000808E4
:1045F000EF00106EAA8501C917350200130585B5B5
:10460000EF10A22D01A0F64025618280411117050F
:1046100000001305C5D006C622C4EF00B06717041A
:1046200000201304E4932300A40019280345040088
:104630002244B24013060032896541016F00607E5A
:10464000797106D613078008F337078093F7870838
:104650003EC20F100000B71700409305700523807D
:10466000B704130680FA2380C7040F10000083C626
:10467000F70293F6A60FA387D7022380070492467A
:10468000F3A606800F1000007337078013778708A2
:104690003AC40F1000002380B7042380C7040F1012
:1046A000000003C7F70213672700A387E7022380F0
:1046B0000704A247F3A707800F1000000545EFE0AD
:1046C0005FB5D136814701478146054685451305CB
:1046D000407EEFE0FFB868005146814597C0FF1F5C
:1046E000E780C024B707C0A83EC8B787E803938710
:1046F00007D03ECA680097C7FF1F9387C7CD3EC645
:10470000EF10E010B2504561828023AC05FE1C41E1
:1047100091E7010001000CC18280BA8703A787FFDF
:104720006DFF23ACB7FE8280184183A785FF631914
:10473000B7001CC1FD5723AC05FE238FF5FE828018
:10474000232CF6FEC5BF411122C437E400E026C287
:1047500004403707200006C6F98C2320E4180F1008
:10476000000009E9232094101545B24022449244E8
:10477000410182800347E5FF9307F00F6306F700CE
:10478000232094101145D5B797D0FF1FE780C07341
:10479000014523209410D1BF411126C2B7E400E0A7
:1047A0004AC003A90400B707200006C622C4337913
:1047B000F90023A0F4180F10000009E923A0241128
:1047C000B24022449244024941018280956593851A
:1047D00005D0C98D2A842105C2054205C1814181C8
:1047E00097D0FF1FE780205F01CDFD5723200500F4
:1047F000231285002303F50023A024112105C9B746
:1048000023A0241101456DBF0111B7E700E04AC89C
:1048100003A907004EC63707200006CE22CC26CAC1
:10482000AA893379E90023A0E7180F10000097F751
:10483000FF1F9387A77380438144014619E499E8D9
:10484000A1654E85EF00700805A08347E4FF6399DA
:10485000370385CCA68517F5FF1F13052571E935AC
:1048600065D0A1654E85C126F2406244B7E700E0FD
:1048700023A0271126854249D244B249056182808E
:1048800091E02286032484FF55BFA284E5BF411135
:104890004AC037E900E022C403240900370720009A
:1048A00006C626C2798C2320E9180F10000089E57E
:1048B00023208910154515A0AA8497F7FF1F83C7E9
:1048C000376B2E8563F5F400894763EE9700A53DAD
:1048D000B7E700E023A087100D45B2402244924480
:1048E00002494101828083A785FF99E703C7E5FF5D
:1048F0009307F00F6308F700B935B7E700E023A08E
:1049000087104DBF238F95FE17F5FF1F1305056612
:10491000ED3BA1652685012E01452320891075BF39
:1049200097F7FF1F23A40764828097F7FF1F9387E1
:1049300067699C4399E33E85828003D7270063160D
:10494000B70003C70700E308A7FEDC47E5B7A5C12A
:10495000011106CE22CC26CA8147C14633D7F54085
:10496000058B29C312053E9531473305E50217F73C
:10497000FF1F13076769044305443314F4002EC670
:1049800042044180AA949C40C8408297B24523A02B
:10499000040023A20400A18DF2406244D2442E857B
:1049A000056182808507E39BD7FA0144EDB72E8528
:1049B0008280C9C1797122D406D626D24AD04ECE81
:1049C00001444147B3D78540858BA5C312053147C4
:1049D00022953305E50297F7FF1F9387E76203A946
:1049E00007008544B3948400C204C180BE892A991B
:1049F0000327090011C7032549002EC60297B245B7
:104A000031473304E40283A709003E941C4489E73C
:104A10002320090023220900B2502254A58D0259F7
:104A20009254F2492E85456182800504E31CE4F826
:104A30008144DDB72E8582804111B7E700E022C4B2
:104A400080433707200006C626C2798C23A0E718CA
:104A50000F10000097F7FF1F938707579C5393840D
:104A6000818399C782979C403E9523ACA18239A04F
:104A700097F7FF1F938787549C43EDF78840B7470C
:104A800003009387D73F3305F502B7A72600938726
:104A900037ECB24092443E9523ACA182B7E700E0E8
:104AA00023A087102244410182800111B7E700E072
:104AB00022CC80434AC83707200006CE26CA2A895E
:104AC0002E86798C23A0E7180F100000131506011D
:104AD0009305F004418132C697D0FF1FE780A02FD5
:104AE000AA8419C53246CA8597C0FF1FE780E0DC5B
:104AF000B7E700E023A08710F240624426854249D0
:104B0000D244056182807971B7E700E022D4804306
:104B10003708200006D626D24AD04ECE52CC56CAEE
:104B20005AC85EC662C43374040123A007190F106B
:104B3000000005E123A087100945B2502254925489
:104B40000259F249624AD24A424BB24B224C456169
:104B5000828097F7FF1F938767469C43BA8A368AFD
:104B6000B28B2E8BAA89829797F7FF1F9387C7492D
:104B700098433E898144B146C147338CD402330601
:104B80008701104241EAC165938505F0414597D000
:104B9000FF1FE780402405E197F7FF1F9387C74277
:104BA0009C5B81C7814511458297B7E700E023A050
:104BB00087102D4559B797F7FF1F9387A740984354
:104BC00031E797F7FF1F23AFA73E23000500832798
:104BD0000900054733179700232605002324750194
:104BE0002311E50023225501E29723A0370123A2D8
:104BF000670123A4570163040A0023009A00B7E762
:104C000000E023A0871001450DBF3E875C47F5FFFC
:104C100048C765BF8504E392F4F6B7E700E023A038
:104C20008710214519BFB7E700E09843B706200079
:104C300023A0D718758F0F10000097F6FF1F83C6AB
:104C400036336373D50217F6FF1F130666379316C4
:104C500015000842369583560500D58D2310B50002
:104C600023A0E7100145828023A0E7100D45828034
:104C7000B7E700E09843B706200023A0D718758F48
:104C80000F10000097F6FF1F83C6962E6375D5029E
:104C900017F6FF1F1306C63293161500084293C578
:104CA000F5FF369583560500F58D2310B50023A03A
:104CB000E7100145828023A0E7100D458280011195
:104CC00037E700E026CA0443B706200006CE22CC10
:104CD0004AC84EC652C4F58C2320D7180F100000C6
:104CE000130705FF1377F70FFD4763E5E70AB146A2
:104CF000B306D50297F7FF1F93870731984336977E
:104D00001C43C9CB135A450005443D893315A40003
:104D10001314050141802E895285A2853931AA8953
:104D200029CDA2855285A93797F7FF1F93870729B9
:104D30009C43829797F7FF1F83D7472E338727031C
:104D40002A84814613060064B3B72703130507328C
:104D5000B335E500BE95EF006273B307850097F6A3
:104D6000FF1F9386262B3E87D44263E4A70063E4AB
:104D7000D7003387D74023A4E900B7E700E023A09A
:104D800097100145F2406244D2444249B249224A56
:104D900005618280B7E700E023A097100945DDB7E1
:104DA0000111B7E700E026CA84433707200006CE8A
:104DB00022CC4AC84EC6F98C23A0E7180F10000079
:104DC000BD4763EAA70431473307E50297F7FF1FA2
:104DD000938787239C43BA979C4395CF054433140C
:104DE000A400420441802E890145A285EFF0FFB363
:104DF000AA8911C5A2850145A53D23A42901B7E7CC
:104E000000E023A097100145F2406244D244424999
:104E1000B24905618280B7E700E023A097100945F9
:104E2000E5B779714AD037E900E026D2832409003A
:104E3000B707200006D622D44ECE52CC56CA5AC846
:104E40005EC6FD8C2320F9180F10000097F7FF1F96
:104E500083C71712637AF50097F7FF1F938707162A
:104E600083AB070063970B00B7E700E023A0971020
:104E7000A9A017FBFF1F130BEB19832A4B00B747A1
:104E800036FE938707C82E8A97F5FF1F83D505192D
:104E9000BE9AB387C5022A84B2898146B3B5C502DA
:104EA00013850732B337F50013060064BE95EF0093
:104EB000E25D63F0AA02232099100145B25022540A
:104EC00092540259F249624AD24A424BB24B45616E
:104ED0008280829B97F5FF1F83D54514B3873503E6
:104EE0002A89130600648146B3B53503138507325A
:104EF000B337F500BE95EF006259B30725013E892F
:104F000003274B0063E4A70063E4E7003389E7402D
:104F1000D2852285EFF07FA109C923242501B7E7B7
:104F200000E023A09710054551BF936504F0C2052A
:104F3000C181414597D0FF1FE780E0E919E997F764
:104F4000FF1F938767089C5B85D3A28511458297D5
:104F500021BF97F7FF1F9387E7069C4385E797F7E5
:104F6000FF1F23A1A706854723260500232425012B
:104F70002311450123008500A300F500232205002D
:104F800079BFBA87D84775FFC8C7F1BF7971B7E74E
:104F900000E026D284433707200006D622D44AD028
:104FA0004ECE52CC56CA5AC85EC662C466C26AC0E9
:104FB000F98C23A0E7180F1000003DC14144B689C9
:104FC000B28A2E8A2A89B14C17FBFF1F130BCB0321
:104FD000054D130C0003B30B940303270B005E97DE
:104FE0001C43A5E39375F400B315BD00135544406D
:104FF000C2055686C1811375F50F253539C1832742
:105000000B00DE9723A0270123A247016384090038
:1050100023808900B7E700E023A09710014521A075
:1050200023A097100945B250225492540259F249D4
:10503000624AD24A424BB24B224C924C024D4561DD
:1050400082800504E31984F9B7E700E023A09710F4
:105050002145D1BF0111B7E700E026CA844322CC25
:105060004AC84EC63707200006CE2A84AE89328948
:10507000F98C23A0E7180F10000065332285CE8538
:10508000EFF0BF8A2A8405C597F5FF1F83D505F980
:10509000B3872503130600648146B3B52503138542
:1050A0000732B337F500BE95EF00423E48C01335D6
:1050B0001400F2406244B7E700E023A09710424991
:1050C000D244B2490E05056182800111B7E700E0C4
:1050D0004AC803A9070022CC4EC63707200006CED7
:1050E00026CAAA892E843379E90023A0E7180F1075
:1050F0000000EFF09F83AA8419C123110500A28547
:105100004E85EFF0FFB697F7FF1F83C767E6639BF7
:10511000370197F7FF1F83D727EA5D8C97F7FF1FAB
:10512000239C87E8B7E700E023A02711014591E021
:105130001945F2406244D2444249B2490561828035
:1051400001114AC837E900E022CC03240900B7075F
:10515000200006CE26CA4EC67D8C2320F9180F10DB
:1051600000009307F00263E8A704B147B304F50217
:1051700097F9FF1F938949E983A70900A6979C43E4
:105180009DCB9377F5008545B395F500C205C181A8
:105190001181253F83A709000145A69723A0070099
:1051A00023A2070023208910F2406244D2444249DE
:1051B000B24905618280B7E700E023A08710094566
:1051C000E5B74111B7E700E026C2844306C622C412
:1051D00037072000F98C23A0E7180F100000EFF02C
:1051E000CFF419E90145B2402244B7E700E023A01B
:1051F000971092444101828097F7FF1F938707DC45
:105200009C430045829797F7FF1F9387A7E0636849
:10521000A402D843B74636FE938606C83305A44099
:105220003697E371E5FC13070064B335E50203D656
:10523000870081463305E502EF0042256DB7D8436C
:105240003A94C1BF411122C426C217F4FF1F1304B0
:1052500064DC97F4FF1F9384A4D19448584097F7D7
:10526000FF1F9387A7D506C69C436393E6088297E2
:105270005440B74736FE938707C8B6973387A700D1
:105280003A856364F7006364D7003305D74097F429
:10529000FF1F938464F2DC5081CF97F7FF1F938741
:1052A00067F994433707CDFF7D179C46F98F9CC65D
:1052B00011E1484097F7FF1F938707D1DC5382978E
:1052C00019E5DC508DC3EF707108EF607158DC5048
:1052D00099CB97F7FF1F9387E7F59843B7063300FD
:1052E0001C47D58F1CC7B2402244924441018280A2
:1052F000829794485840B387A6003E8563E4D70060
:10530000E3E7E7F83385E74059B7411106C697F759
:10531000FF1F23AFA7CE0295B24097F7FF1F23A52B
:10532000A7C6014541018280994763E9B7008A0514
:1053300097F7FF1F938787C6BE9588C1828097F72E
:10534000FF1F23A5A7CC11C5854717F7FF1F23060D
:10535000F7C6828041117146814517F5FF1F13057D
:10536000E5C306C697F7FF1F23AE07C497F7FF1FD5
:1053700023A007CA97F7FF1F23A207C497F7FF1FB1
:10538000238D07C297F7FF1F23A207C897B0FF1FFF
:10539000E780C05913068002814517F5FF1F1305EA
:1053A00025BD97B0FF1FE7806058EFD0915197F768
:1053B000FF1F938767C103C5C70383C7D70385450D
:1053C0003E958D473305F50239051375F50F97F7AF
:1053D000FF1F2380A7BA99473305F502130505245B
:1053E00097D0FF1FE780209F17F7FF1F232EA7C02E
:1053F00059CD994717F6FF1F0346A6B73306F602A5
:1054000081451306062497B0FF1FE780205297F7C7
:10541000FF1F938767BF9C439387072417F7FF1FDE
:10542000232CF7B617F7FF1F0347A7B40A07BA974D
:1054300017F7FF1F2326F7B8EFF08FCEE12997F774
:10544000FF1F938767B5944397F7FF1F83C757B232
:1054500013972700369717F6FFFF1306C65510C39C
:10546000138717001377F70F0A07369717F6FFFF12
:105470001306264E10C313873700890793F7F70FDB
:105480008A0797F5FF1FA385E5AEB69790C3B24094
:105490004101828097F7FF1F83C797AD17F7FF1F62
:1054A000034727AD63F3E70217F7FF1F1307C7AEE4
:1054B00018439386170017F6FF1FA30BD6AA9396DF
:1054C0002700369708C33E8582809307F00FE5BF1B
:1054D0001C416384071641777D8FB70600208947FA
:1054E000631ED71403574500630A0714411122C4F1
:1054F00019462A849305F00F610506C697B0FF1F71
:10550000E780405105478D476304E5121C4481CB79
:1055100058589947630E0710185C630B0710130661
:105520000004814517F5FF1F130505AA97B0FF1F5B
:10553000E780C03F13060004A28517F5FF1F13057F
:10554000A5A897B0FF1FE780403797F7FF1F83D7C5
:1055500067A817F7FF1F130727A799E793070010FE
:1055600097F6FF1F2398F6A697F7FF1F83C7A7A6F6
:1055700091E7854797F6FF1F238FF6A497F7FF1F44
:1055800083D787A591E7ED4797F6FF1F2396F6A4EB
:1055900097F7FF1F83C737A491E7954797F6FF1F3B
:1055A000A38BF6A297F7FF1F83C727A391E7854731
:1055B00097F6FF1F2383F6A297F7FF1F83C7F7A174
:1055C00099E78347F70097F6FF1FA388F6A097F7A0
:1055D000FF1F83C7B7A081CF93F63700898317F6E3
:1055E000FF1F2301D6A297F6FF1FA38DF6A097F702
:1055F000FF1F83C7A79E91E7D54797F6FF1F238F0D
:10560000F69C8347640199E79307C00397F6FF1F51
:105610002387F69C1C5791C7829797F7FF1F239DFE
:10562000A794FD5717F7FF1FA30CF7C62533814733
:10563000B24022443E854101828089473E85828076
:1056400001114EC697F9FF1F9389C99C83A70900D2
:1056500006CE22CC26CA4AC852C4829713090064D7
:10566000B335250303DA89008146528633052503C5
:10567000EFF0D16197F7FF1F9387878F804FAA8440
:1056800001456306940233858440636E940003A54C
:10569000490052868146B335A9023305A902EFF0CD
:1056A000F15E018D269597F7FF1F23AF978CF2408F
:1056B0006244D2444249B249224A056182800111C2
:1056C00022CC0A852E844146971502009385855584
:1056D00006CEEF002215180806043A94035504FF7D
:1056E00097F7FF1F83D7A793F2406244AA973745E5
:1056F0000F00130505243355F5020561828097F7E5
:10570000FF1F83D7C79151471D45637CF702794737
:1057100019456378F7021307200315456373F702F1
:105720001307B0041145637EF700130740060D45CB
:105730006379F7001307600909456374F70013B52F
:10574000B70F8280011122CC06CE2A842EC6EFF03C
:10575000AFAEB245F240818D33A5A50222956244D9
:105760001375F50F05618280011122CC06CE2A84C3
:105770002EC6EFF06FACB245F240818D33A5A50285
:10578000229562444205418105618280011122CC4B
:1057900006CE2A842EC6EFF02FAAB245F240818DA4
:1057A00033B5A502229562440561828097F7FF1FF9
:1057B00093878781985739CB411122C426C206C6E8
:1057C000BE84029717E7FF1F0357077B2A8415CB78
:1057D000BA876373A700AA87C207C183BA866373B7
:1057E000E400A286C206C182958F5147635BF70031
:1057F000DC5491C38297EF70211E97E7FF1F239D12
:105800008776B2402244924441018280828097F799
:10581000FF1F23AB078097E7FF1F9387E77ADC57CB
:10582000011106CEAA8581C72AC68297B245CDC18D
:105830009C410545D9CBDC41C9CB83D78500D1C775
:1058400083D7A500D9C3514617E5FF1F1305857CF3
:1058500097B0FF1FE780600697E7FF1F2382077C52
:1058600097E7FF1F9387077B9C4317E7FF1F2327BB
:10587000F77497E7FF1F83C797768DE793078057E5
:1058800017E5FF1F035585793305F50237460F00ED
:105890001306062481468145EFF0513F97E7FF1F2D
:1058A000A38FA77217E7FF1F03477773A54763E727
:1058B000E700A94717E7FF1FA303F77217050000CA
:1058C000130545D8EFF07FA40145F24005618280C1
:1058D00097E7FF1F23AC076A97B7FF1F93876752AD
:1058E00017E7FF1F2328F7727D5797E7FF1F23A5B0
:1058F000E772B7873200938727A197E6FF1F23AF90
:10590000F67097E7FF1F238D0770B7C7004023A4E9
:10591000E726B9B7011122CC17E4FF1F1304C46AAC
:10592000084406CE26CA4AC801E90545F240624449
:10593000D2444249056182805C58E5DB185C75D72A
:105940007000854582971844B247E300F7FE93053F
:10595000E00417E5FF1F0355E56797C0FF1FE780C9
:10596000804717E7FF1F2325A76261D117E6FF1FB6
:10597000035646669305F00F97B0FF1FE78000FBC4
:10598000814417E9FF1F1309A95E97E7FF1F83C72B
:1059900087640326090263C1F402328597C0FF1FA2
:1059A000E7808052014597E7FF1F23A3075E97E733
:1059B000FF1F23A1075E9DBF97E5FF1F83D585616C
:1059C000B38795020844185C898185043E9508C216
:1059D000029765BF011156C297EAFF1F938ACA5EFC
:1059E00083A78A0022CC4AC84EC606CE26CA52C415
:1059F0005AC0AA892E8432896386072203A74A03E4
:105A0000630907141307F01F6367A71497E4FF1FC8
:105A10009384045603AA040263170A0A95659385C2
:105A200015E017E5FF1F0355E55A97C0FF1FE780F4
:105A3000803A97E7FF1F23ADA7542A86630B051012
:105A400083A74A0303A58A0097E5FF1F83D58558DE
:105A50008981829783A78A0003AA040217E7FF1FA0
:105A6000232AF7528947639CF908C1476313F40E50
:105A700097E5FF1F83D50556938505FC9147B3C570
:105A8000F5028A05D29503C725009307A005631E7A
:105A9000F70A83D70500639A370B4A85228691055A
:105AA00097B0FF1FE78060E19C50528563934715D4
:105AB0000145F2406244D2444249B249224A924AE4
:105AC000024B05618280D850E38EE7F89565938597
:105AD00025E017E5FF1F0355E54F97C0FF1FE7803F
